:020000041000EA
:1080000010B5184B184A9A4203D0184B154A9A4299
:1080100004D3174B174A9A4210D31EE0164B134A4B
:108020000332D21A92080132920000230D480E4901
:10803000CC58C45004339342FAD1EAE70F4B0C49B1
:108040000331C91A8908013189000023094C002035
:108050001A19106004338B42FAD1094B9847094B27
:10806000984710BD4483011044830110F083011030
:1080700094B20110F083011048830110F4830110C1
:108080008550011099F8001010B5064C2378002B8C
:1080900007D1054B002B02D0044800E000BF0123AC
:1080A000237010BDF0830110000000004483011014
:1080B000084B10B5002B03D00749084800E000BF6B
:1080C00007480368002B00D110BD064B002BFBD0E6
:1080D0009847F9E700000000F48301104483011081
:1080E000448301100000000070B5094B984705005B
:1080F000084CFA218900A047074B1860074928005F
:10810000A047074B18600522064B1A6070BDC04699
:108110001DC70010113001104883011040420F00AC
:108120004483011010E000E0F8B505000B4F0C4E41
:108130000C4C0DE02E20B8473368002B07D063604D
:108140000023A3608022520223681342FCD0013D29
:10815000002DEFD10448054B9847F8BD915201100E
:108160004883011010E000E0BC6201105D52011074
:10817000012303704370FA23DB0143607047C0465C
:10818000064B00225A601A6803218A431A601900BC
:108190008022D2010B681342FCD1704700D000400E
:1081A000024A116810230B431360704700D000404F
:1081B00010B5044B9847044B1B68002B00D0984720
:1081C00010BDC046A18100100C840110014B186045
:1081D0007047C0460C8401100022014B1A607047A2
:1081E0000C840110F0B583B000222B4B1A73037876
:1081F000022B05D1284A117B01330B43137305E091
:10820000012B03D1244A117B0B431373234B1A68B0
:1082100053001FD0214D00272C26FF368021C90195
:108220002F6001970197019BB34206D8C046019B7E
:1082300001330193019BB342F8D944780B00002C21
:1082400003D180239B0000E02A681342FCD12A68F6
:108250005300E5D14378002B05D1104B42685A609A
:1082600001221A6004E00D4B42685A6002221A6033
:108270004378012B09D10949E022D2010B68134050
:108280009342FBD10022054B1A6005492B20054B78
:10829000984703B0F0BDC04600E0004000D0004069
:1082A000B181001059D20010F0B54F464646C0B417
:1082B00081464D881723002D2FD002682824135D96
:1082C000DB07FCD4012334241355143C13550B88CD
:1082D0005B000224FF3423439BB21380002401235C
:1082E0009846137BDBB24046184206D0671C1079D3
:1082F0008446486866460655BCB2AC42F1D3DB06FC
:1083000003D41021137A0B42FCD04B465979002339
:10831000002902D12033D154002318000CBC904610
:108320009946F0BDF0B583B08446080063461C68EA
:1083300000226B46DA8049882832A35CDB07FCD434
:1083400001233422A354143AA35403885B00E0327F
:1083500013439BB2238001276B469D1D237ADBB21A
:108360001F4207D02A8892B2561CB6B22E804668A9
:10837000B25C22802A8892B29142EFD8DB0603D405
:108380001022237A1342FCD063465B79002B02D182
:1083900000222033E254002003B0F0BD0323037019
:1083A0000D334380083B43600133C360073B836068
:1083B0000361704770B5040015000160002826D0E5
:1083C000002A26D028228B5CDB07FCD400230B7507
:1083D0002368114A934203D10320104B984706E0CB
:1083E00017200F4A934215D102300C4B984724684E
:1083F000298928790B4EB047298A287BB0472B78EA
:1084000023746B88238301232377002002E0172045
:1084100000E0172070BDC04600300040F1CD0010D4
:108420000034004079C3001010B5002808D017238D
:10843000002906D000234371034B9847030000E056
:108440001723180010BDC046A982001010B50028DF
:1084500008D01723002906D000234371034B984707
:10846000030000E01723180010BDC046258300104C
:1084700010B5002808D01723002906D0163B4371F9
:10848000034B9847030000E01723180010BDC046B7
:108490002583001010B582B02423254AD35C002B1D
:1084A00019D0002803D002226B46DA7102E00022C4
:1084B0006B46DA711E4B1A68517C5B6818786B4604
:1084C000073301221B4CA047002827D16B46DA79DD
:1084D000174B5A742AE0164B9B7A002B21D00028A8
:1084E00008D0134B5B7C0020002B1FD101226B4670
:1084F000DA7102E000226B46DA710D4B1A68517C8A
:108500005B6818786B46073301220A4CA0470028A5
:108510000AD16B46DA79064B5A7407E001204042D3
:1085200004E00120404201E00120404202B010BDC1
:108530004C83011019AA0010F0B585B007000E0099
:10854000214B9B7A002B35D01F4B1A68117C5B683E
:10855000187803AB02221D4CA047019000282DD1B2
:1085600003AB1C7824025B781C4324B2002E02D09B
:108570003000174B9847144B5D68164E2000B047EB
:10858000041C0823E85EB047011C201C124B9847CE
:10859000041CE888B047011C201C104B9847104968
:1085A000104B98478F21C9050F4B98470F4B9847A1
:1085B000386006E001235B42019302E001235B4245
:1085C0000193019805B0F0BD4C83011075AA00100D
:1085D0007DB50010A9400110593D01109D370110D3
:1085E00000000C42B1340110313B01106540011014
:1085F00010B582B0794B9B7A002B00D1CEE06B4650
:10860000073300221A70754A1168497C5268107845
:108610000122734CA047002800D0C2E06F4B1A68BB
:1086200051795B6818786B46073301226C4CA04780
:10863000002800D0B8E0694B1A6811795B68187897
:108640006B4607330122664CA047002800D0AEE0FD
:108650002423624AD35C002B4FD06B4607330C2295
:108660001A705E4A116809795268107801225C4CD0
:10867000A047002800D09DE032305A4B9847C022D6
:108680006B46DA71554B9B7ADB0702D520326B467D
:10869000DA71524B1A6811795B6818786B460733A8
:1086A00001224F4CA047002800D086E04B4B5B7C5A
:1086B000002B03D002226B46DA7102E000226B46E7
:1086C000DA71464B1A68517C5B6818786B46073341
:1086D0000122434CA047002872D16B460733002289
:1086E0001A703E4A116849795268107801223C4C50
:1086F000A047431E984140426DE06B460733042279
:108700001A70364A11680979526810780122344C7F
:10871000A047002857D1314B9B7C002B03D12F4B16
:108720009B7ADB0703D440226B46DA7102E06022B9
:108730006B46DA71294B1A6811795B6818786B46B9
:1087400007330122264CA04700283FD13230254B69
:108750009847224B5B7C002B03D001226B46DA71D9
:1087600002E000226B46DA711C4B1A68517C5B6890
:1087700018786B4607330122194CA047002828D1EE
:10878000164A130010331168497952681078012293
:10879000134CA047431E984140421CE00120404238
:1087A00019E00120404216E00120404213E0012080
:1087B000404210E0012040420DE0012040420AE02A
:1087C0000120404207E00120404204E001204042F5
:1087D00001E00120404202B010BDC0464C830110B0
:1087E00019AA00102981001010B582B0244B9B7A81
:1087F000002B3BD0FA235B00984210D002D8FA2815
:1088000009D036E0FA239B0098420CD0FA23DB0013
:1088100098420CD02DE000226B46DA710AE0082263
:108820006B46DA7106E010226B46DA7102E018221C
:108830006B46DA716B4607331B78114A127ADB08F4
:1088400000209A421AD00E4B1A6891795B6818780A
:108850006B46073301220B4CA04700280CD16B4616
:1088600007331B78DB08064A137207E001204042F9
:1088700004E00120404201E00120404202B010BD6E
:108880004C83011019AA0010114B5B7A012B09D0FF
:10889000002B04D0022B08D0032B09D014E00223B4
:1088A000037007E00423037004E00823037001E071
:1088B00010230370064BDA7C0023002A06D00378CD
:1088C0005B000370002301E001235B421800704746
:1088D0004C83011010B582B0214B9B7A002B35D010
:1088E00004280CD002D8022805D032E008280AD08B
:1088F00010280CD02DE000226B46DA710AE0082225
:108900006B46DA7106E010226B46DA7102E018223B
:108910006B46DA716B4607331B78114A527ADB08D3
:1089200000209A421AD00E4B1A68D1795B681878E9
:108930006B46073301220B4CA04700280CD16B4635
:1089400007331B78DB08064A537207E001204042D8
:1089500004E00120404201E00120404202B010BD8D
:108960004C83011019AA001010B582B02B4B9B7AD2
:10897000002B49D0BB2803D901226B46DA711AE0DB
:10898000612803D902226B46DA7114E0292803D941
:1089900003226B46DA710EE0132803D904226B46DA
:1089A000DA7108E0092803D905226B46DA7102E082
:1089B00006226B46DA71194BDA7A6B4607331B785D
:1089C00000209A4228D0154B1A6891785B68187875
:1089D0006B4607330122124CA047002817D16B4683
:1089E0000733197840220A431A700C4A1168097A31
:1089F0005268107801220A4CA04700280AD16B4621
:108A0000DA79064BDA7207E00120404204E00120E7
:108A1000404201E00120404202B010BD4C830110F1
:108A200019AA00102423054AD35C002B03D1D38953
:108A30000380002001E00120404270474C83011078
:108A400030B583B0011E20D0174BD88981421FD882
:108A5000642920D86B46DC1D144B984701382070E0
:108A6000114B24221968895C5B6818782300233A2B
:108A70000F4CA047041E11D10B4DE8896B46D979E4
:108A800001310C4B984728850AE00124644207E035
:108A90000124644204E00124644201E001246442B0
:108AA000200003B030BDC0464C83011011300110CE
:108AB00019AA00102531011070B52423164AD35C81
:108AC0000024002B26D1947A002C15D00123984342
:108AD000157C04401474041B631E9C4164420028EE
:108AE0000DD1137D002B12D10C4B984712E00A4B8D
:108AF0001D74012464420DE0012464420AE0012057
:108B0000064B9847064B9847002803D0EFE7012013
:108B1000024B9847200070BD4C83011095840010D3
:108B2000F1850010F0B54F4680B488B001900391F4
:108B300002921E002423694AD35C002B00D0B6E0C9
:108B40003370937A002B00D1B4E0137C002B00D15A
:108B5000B3E05A06D20F55009A0601D5AA1CD5B229
:108B6000DA0601D5AA1CD5B21B0701D5AB1DDDB2B3
:108B70005A4B1A68117B5B68187805AB0222584C77
:108B8000A047041E00D09BE005AA13781B02527870
:108B90001A439146AFB2BA4200D299E04F4B5A689D
:108BA00053885B08994513D94C4B1B68D97C1078C6
:108BB00005AB01224A4CA047002800D083E005AB5A
:108BC0001B78DB0604D5474B9847022464427FE0BC
:108BD0000298454B9847414B1A68517B5B6818785F
:108BE00005AB2A003E4CA047041E6FD12900484621
:108BF0003E4B984701380E9B187000233370002DB0
:108C00001AD0364B1A7C0023120715D505AB1A78FB
:108C1000120259780A43039802809A781202D9788E
:108C20000A4342801A7912025B79134383803278B7
:108C30000823134333700623BB4249D0274A127CD2
:108C400052060FD505A9CA5C1202C91849780A4311
:108C500001990A80317840220A43327002339BB274
:108C60009F4235D01D4A127C92060FD505A9CA5CD9
:108C70001202C91849780A4301994A8031782022A2
:108C80000A43327002339BB29F4221D0134A127CB6
:108C9000D2061DD505A9CA5C1202CB185B78134316
:108CA000019A9380327810231343337010E001242B
:108CB00064420DE0012464420AE00124644207E0BA
:108CC0000124644204E00124644201E0012464427E
:108CD000200008B004BC9146F0BDC0464C83011092
:108CE00075AA0010F18500107DB500102531011026
:108CF00030B583B00400594B9B7C834200D197E090
:108D0000002842D0554B1A6811795B6818786B4679
:108D100007330122524DA847002800D08AE06B4655
:108D200007331A7820218A431A704C4A116809794E
:108D30005268107801224B4DA84700287DD103309E
:108D4000494B984702226B46DA712223434AD35C8F
:108D5000002B02D082226B46DA7123233F4AD35C78
:108D6000002B05D06B46DA1DD97930230B431370E5
:108D70003A4B1A68D17D5B6818786B46073301223D
:108D8000384DA84700284FD05AE0344B1A68117963
:108D90005B6818786B4607330122314DA8470028DD
:108DA00051D12E4B9B7ADB0706D56B46DA1DD9795C
:108DB00020230B43137005E06B46DA1DDB7920217D
:108DC0008B431370254B1A6811795B6818786B46D2
:108DD00007330122234DA847002837D10330224B07
:108DE000984722231D4AD35C002B03D080226B4678
:108DF000DA7102E000226B46DA712323174AD35C52
:108E0000002B05D06B46DA1DD97930230B43137044
:108E1000124B1A68D17D5B6818786B4607330122C4
:108E2000104DA847002814D10C4B9C74002012E070
:108E3000002010E0012040420DE0012040420AE005
:108E40000120404207E00120404204E0012040426E
:108E500001E00120404203B030BDC0464C83011008
:108E600075AA001019AA00102981001030B583B02E
:108E7000040023231C4AD35C83422ED0002803D055
:108E800030226B46DA7102E000226B46DA71164B33
:108E90009B7C002B05D06B46DA1DD97902230B434E
:108EA00013702223104AD35C002B06D06B46DA1DC8
:108EB000DB79802149420B4313700B4B1A68D17D3B
:108EC0005B6818786B4607330122084DA8470028D5
:108ED00005D12323044AD45403E0002001E00120FB
:108EE000404203B030BDC0464C83011019AA0010A7
:108EF00010B582B0041E282C78D8002815D1002087
:108F0000444B984701AB00221A7007325A70424A0C
:108F10001168497D526810780222404CA047041E17
:108F200067D100223C4B1A7571E00120394B9847FC
:108F3000012C03D1022201AB1A701AE0022C03D1DA
:108F4000032201AB1A7014E0052C03D8042201ABF4
:108F50001A700EE00A2C03D8052201AB1A7008E043
:108F6000142C03D8062201AB1A7002E0072201ABD1
:108F70001A70294B1A68517A5B68187801AB012284
:108F8000264CA047002837D1234B1A68117A5B681A
:108F9000187801AB0122224CA04700282FD101AB49
:108FA000197808220A431A701B4A1168097A526814
:108FB00010780122194CA047002823D101AB2022B0
:108FC0001A70154A1168497D526810780122134CB5
:108FD000A047041E19D1104B08229A7200221A735E
:108FE00001321A7500200F4B984710E001246442AB
:108FF0000DE0012464420AE00124644207E00124F8
:10900000644204E00124644201E00124644220003F
:1090100002B010BD6D8E00104C83011019AA001013
:1090200075AA0010B98A001030B583B004002C4B2B
:109030009B7A002B48D02423294AD35C002B46D1AD
:10904000137D002B0AD0431E9BB2272B03D8254B40
:109050009847002440E00020224B98470421032C2D
:1090600007D9211CFA239B009C4201D91E4B198869
:1090700089B26B46DC1DFA2080001C4B98470138F2
:109080002070174B1A6851785B681878230001220A
:10909000174CA047041E1DD1114D6B46D9790131E3
:1090A000FA208000114B9847E8812B8D181C9BB249
:1090B000642B00D9642080B20E4B9847084BD889A6
:1090C00040080D4B984707E00124644204E0012466
:1090D000644201E001246442200003B030BDC04678
:1090E0004C830110F18E0010C06201102531011077
:1090F00019AA0010418A00106989001030B583B0A8
:1091000004007023034203D001226B46DA7115E09C
:10911000002803D000226B46DA710FE06B4607335C
:1091200040221A706A4A1168497D526810780122FB
:10913000684DA847002800D1B2E00BE0644B1A68E4
:10914000517D5B6818786B4607330122614DA84753
:10915000002805D000225E4B9A7201256D42B4E0D2
:109160006B46DA1DDB7940218B4359490B73002391
:109170001370630602D404226B46DA71A30605D489
:109180006B46DA1DD97902230B431370E30605D42D
:109190006B46DA1DD97901230B431370230705D4DD
:1091A0006B46DA1DD97938230B431370484B1A6884
:1091B000917D5B6818786B4607330122454DA847BF
:1091C000002805D00022424B9A7201256D427CE0B6
:1091D000082322009A436BD000203F4B98473C4B1A
:1091E0001A6811795B6818786B46063301223B4D8B
:1091F000A847002848D1E30709D511226B46DA7148
:109200006B469A1D997920230B43137008E01022B6
:109210006B46DA716B469A1D9B7920218B43137044
:1092200024232B4AD35C002B07D06B469A1D9B79D5
:10923000802149420B43137005E06B469A1D9B79D0
:109240007F210B401370224B26221968895C5B68D2
:1092500018786B460733253A1E4DA847002816D1CB
:109260001B4B1A6811795B6818786B46063301222C
:10927000184DA847051E0DD1154B9C7200221A757A
:109280003220174B984720E001256D421DE0012553
:109290006D421AE001256D4217E001256D4214E090
:1092A0006B4607331B7840229343094A137362E7E6
:1092B000074B1A6811795B6818786B4606330122F0
:1092C000064DA8470028A2D0E7E7280003B030BD2C
:1092D0004C83011019AA00106D8E001075AA0010A1
:1092E0002981001030B585B002AB80221A70B94ACE
:1092F0001168497D526810780122B74CA0470028B8
:1093000000D049E16430B54B984702AB00221A7097
:10931000B04A1168497D526810780122AE4CA047CE
:10932000002800D03BE1AB4A0023D37402AB4021BC
:1093300019701168097A526810780122A64CA0476A
:10934000002800D02EE1A34CFF23A3722372637286
:10935000E37201225242E2812374A3742285FE3B10
:10936000237300252133E5540133E55465752575D4
:10937000200016300D320021994B98472423E554E4
:109380000133E554E584FA20C000964B9847002845
:1093900000D00AE10230944B9847002800D007E142
:1093A0002A30924B9847002800D004E13230904B8D
:1093B0009847002800D001E18E4B9847002800D044
:1093C000FFE001308C4B98470C248C4D01AB0122FF
:1093D00000212000A847002803D16B461B79482BA9
:1093E00004D00134E4B2102CF0D101E00F2C05D9E7
:1093F0008348844CA0478448A047C4E02A23754A88
:10940000D45401AB10221A700F3A0A212000724C7A
:10941000A047002800D0B6E00130704B984701AB60
:109420001F221A700B326B49885C293A0A216A4C58
:10943000A047002800D0A6E00130684B98472A23B7
:10944000644AD05C01AB032210216C4CA047002879
:1094500000D098E05F4A01AB197880319185597846
:109460008031D185997880311186102119701A3197
:10947000505C01222039584CA047002800D082E0DF
:109480000130564B984700205B4B984701AB402278
:109490001A70504A1168897E5268107801224E4C29
:1094A000A04700286FD101AB4A4A2A21515C80387D
:1094B000014319701168897F526810780122464C67
:1094C000A04700285FD101AB02221A70414A1168FF
:1094D000C97F5268107801223F4CA047002852D122
:1094E00001AB88221A703B4A20211068415C526807
:1094F00010780122384CA047002844D101AB354AEE
:109500002A21515C197021211068415C5268107841
:109510000122314CA047002835D101AB0A221A7034
:109520002C4A22211068415C5268107801222A4C92
:10953000A047002827D101AB81221A70254A232198
:109540001068415C526810780122234CA047002823
:1095500019D101AB11221A701E4A26211068415CF4
:109560005268107801221C4CA04700280BD101AB97
:1095700003221A70174A27211068415C526810783C
:109580000122154CA0470A20204B9847041E1BD1EE
:1095900000201F4B984719E00124644216E0012483
:1095A000644213E00124644210E0012464420DE0AF
:1095B000012464420AE00124644207E00124644279
:1095C00004E00124644201E001246442200005B06B
:1095D00030BDC0464C83011019AA0010298100102B
:1095E00015510110E9870010D58800106989001015
:1095F00029900010B98A0010F18C001075AA001093
:10960000286501107D53011098630110418A0010F4
:10961000FD90001070B582B00C00151E25D0194BBE
:109620009B7A002B24D001AB020A1A70C0B258708A
:10963000144B5B6840185A8990421CDC114A12682E
:10964000D17E187801AB02220F4EB047002815D109
:10965000E2B20C4B1968097E5B6818782B000A4C43
:10966000A047431E984140420AE00120404207E0E3
:109670000120404204E00120404201E0012040423C
:1096800002B070BD4C83011019AA001070B582B0F1
:109690002423214AD35C834237D0002820D02523BD
:1096A000D35C002B33D000201C4DA84700201C4B5E
:1096B0009847194CE08C1B4B98476B4607330022A8
:1096C0001A706268107801222321174EB0470122D8
:1096D0002423E2540120A847144B9847002018E0A7
:1096E00000200E4B98476B4607330B4C227C1A70B8
:1096F00062681078012223210B4DA8470022242301
:10970000E2540A4B9847002003E0002001E00120CA
:10971000404202B070BDC0464C83011095840010D9
:10972000F18C00102990001019AA0010F18500108A
:10973000F0B585B006000D00294B9B7ADB0740D5BC
:10974000274B28221968895C5B68187801AB203A9E
:10975000244CA047041E37D101AB1B7803221340D1
:10976000012B34D101ABDB797F2B33D801A8817871
:1097700009024378194309B2318002791202C37891
:109780001A4312B2728083791B02407903431BB2E1
:109790009C46B38012482C23C75E7943091231805E
:1097A0002E23C15E4A43121272803023C25E63468A
:1097B00053431B12B380002D0ED028000A4B98474C
:1097C0000AE00124644207E00124644204E0022428
:1097D000644201E003246442200005B0F0BDC046AD
:1097E0004C83011075AA00107DB50010024B5B6818
:1097F0009B890380002070474C83011010B586B010
:1098000004000C221549103103A8154B9847C82CA9
:1098100019D82100C820134B9847013880B201AAFB
:10982000030A1370507002210F48104B984700280C
:109830000CD103AA0C210E480C4B9847002808D1E4
:109840000C4B9C8107E00120404204E00120404293
:1098500001E00120404206B010BDC046746701100F
:109860000351011025310110160200001596001059
:10987000C10A000010840110F0B5474680B482B0E0
:109880000400430700D19CE0C823DB00994200D9C3
:109890009AE00800584B98475849594B9847061C7E
:1098A0006B46DD1C2800574B98472B78042B19D0AA
:1098B000DAB2042A02D8022B05D088E0082B20D087
:1098C000102B2DD083E0504B98468D21C905301CBC
:1098D00098474E4FB84785B24D49301CC047B847EE
:1098E00080B22BE0484B98468C21C905301C984724
:1098F000464FB84785B24749301CC047B84780B289
:109900001CE0414B98468B21C905301C98473F4FBE
:10991000B84785B24049301CC047B84780B20DE017
:10992000394B98468A21C905301C9847374FB847AC
:1099300085B23A49301CC047B84780B201AB2A0A09
:109940001A705D70020A9A70D870E30710D501AAE8
:109950000221EA204000324B984700283AD16B465A
:109960009A1D02212530FF302D4B9847002834D115
:10997000A30710D501AA0221EC204000284B9847EC
:1099800000282DD16B469A1D02212930FF30244B2F
:109990009847002827D10020630729D501AA022172
:1099A000DD30FF301E4B984700281FD16B469A1DB3
:1099B00002212D30FF301A4B9847431E98414042F8
:1099C00016E00120404213E00120404210E0012057
:1099D00040420DE0012040420AE00120404207E001
:1099E0000120404204E00120404201E001204042C9
:1099F00002B004BC9046F0BD39410110000048435C
:109A00009D37011089880010313B01104534011049
:109A1000000040460000C045000040450000C04432
:109A20001596001000B583B0C30703D400226B461F
:109A3000DA7102E030226B46DA71830705D56B4696
:109A4000DA1DD9790C230B431370430705D56B46F8
:109A5000DA1DD97903230B4313706B46DA1D0121FC
:109A6000A4204000014B984703B000BD159600109C
:109A700000B583B00123002804D0031C042800D9BA
:109A80000423DBB26A460732013B137001215020E8
:109A9000FF30024B984703B000BDC046159600103A
:109AA00000B583B00521074B984780B201AA030A8D
:109AB000137050700221EF204000034B984703B011
:109AC00000BDC046113001101596001000B583B0DE
:109AD0000521074B984780B201AA030A1370507002
:109AE0000221ED204000034B984703B000BDC04663
:109AF000113001101596001010B582B00C00FA213B
:109B00008900094B9847604301AA03161370031498
:109B1000537003129370D0700421AE204000034BA9
:109B2000984702B010BDC0462531011015960010AF
:109B300000B583B00521074B984780B201AA030AFC
:109B4000137050700221AD204000034B984703B0C2
:109B500000BDC046113001101596001000B583B04D
:109B60000521074B984780B201AA030A1370507071
:109B70000221AC204000034B984703B000BDC04613
:109B8000113001101596001000B585B000280CD0DA
:109B900009220D491C3101A80C4B984701AA092143
:109BA0009720C0000A4B98470BE00922064928314C
:109BB00001A8064B984701AA09219720C000044B31
:109BC000984705B000BDC0467467011003510110ED
:109BD0001596001000B583B0002809D001ABC02253
:109BE0001A7002325A7002329A700232DA7001E050
:109BF000054B019301AA04210448054B9847054BE6
:109C0000984703B000BDC0468B8B8B8B980A000031
:109C100015960010F185001000B583B0002809D01A
:109C200001AB20221A7008325A7008329A7008323A
:109C3000DA7001E0054B019301AA04210448054BA9
:109C40009847054B984703B000BDC046A3A3A3A304
:109C50009E0A000015960010F1850010F0B585B041
:109C6000040001AD02232B70C8336B701933AB7045
:109C7000DA3BEB702A00042168206A4B9847A32343
:109C80002B704027274007D001ABC0225A70083202
:109C90009A70063ADA7004E001ABA3225A709A7007
:109CA000DA70C0256D00254007D001ABC4221A71BF
:109CB00008325A71063A9A7104E001ABA3221A7174
:109CC0005A719A7101AAA323D371137253720A2194
:109CD0005548544B98470326264003D0202201AB19
:109CE0001A7002E0D82201AB1A7001AA01214F4874
:109CF0004C4B9847A30603D501204D4B984702E0F3
:109D000000204B4B9847002D19D0E30509D501AB36
:109D1000B2221A70273A5A702B329A701B3ADA70B4
:109D200008E001ABB0221A70303A5A7034329A709F
:109D3000243ADA7001AA04213E483A4B9847E307D7
:109D400023D501AAF823137001218B200001354B84
:109D50009847FA210720384B98470720374B9847F8
:109D60000120374B98476420364B9847FA20400033
:109D7000354B9847C8213548354B98472820354BF7
:109D800098470A20344B984707E001AAD82313705C
:109D900001218B200001234B9847A30703D5D9222B
:109DA00001AB1A7002E0D82201AB1A7001AA01219E
:109DB0002A481C4B9847630703D50120284B984736
:109DC00002E00020264B9847E30603D50120254BEF
:109DD000984702E00020234B984708232343224A58
:109DE0005381224B9847002F03D100221E4B9A73B8
:109DF00002E006221C4B9A73002D03D01A4A937B73
:109E0000063393731423234203D0174A937B1033F2
:109E10009373002E03D0144A937B04339373002072
:109E200005B0F0BD15960010A70A0000B60A0000A4
:109E3000899B0010A20A000079980010259A001052
:109E4000719A0010A19A0010CD9A001009E3CA027D
:109E5000F99A0010319B00105D9B00103D07000037
:109E6000D59B0010199C001010840110F185001082
:109E700010B582B009480A4B98470A4B1A78D2B2FB
:109E8000094B1B78DBB2094908780949497B0090E6
:109E90000848094CA047002002B010BD28650110F9
:109EA0007D53011074A00110C49E01107BA001100D
:109EB000589F0110C06701105D52011010B50024B9
:109EC000094B1C700120094B9847094B1C7022223A
:109ED000084B1A70084B1B78002B02D1213A074B14
:109EE0001A70002010BDC046C59E011035B6001086
:109EF0007BA0011074A00110C49E0110559F011099
:109F000010B50120084B98470022084B1A702232E6
:109F1000074B1A70074B1B78002B02D1213A064BD6
:109F20001A70002010BDC04635B600107BA001108D
:109F300074A00110C49E0110559F011010B502229B
:109F4000024B1A701620024B984710BD7BA00110DF
:109F500089AE001010B52C482C4B98472C4B1B7821
:109F6000002B05D101222B4B1A702B4B984749E04F
:109F7000274B1B78DBB2212B30D002D8202B05D009
:109F800037E0222B17D0232B1BD032E02348244B61
:109F900098472448244B9847244B9847002803D0DF
:109FA0002348214B984724E022481F4B9847112211
:109FB000174B1A701DE01948194B98471E481A4B49
:109FC00098471648164B98471C48174B984700214E
:109FD0002B231B4AD15400201A4B98470F48104B93
:109FE00098471948104B9847184B18881321184B5D
:109FF00098471122064B1A700E3A164B1A7016200B
:10A00000154B984710BDC0461068011049A90010B3
:10A0100074A00110559F011015F60010286501105D
:10A020007D530110286801105D52011019090110BB
:10A030007C6801108868011090680110E8680110C0
:10A04000DC9F011021B3001014690110569F01100C
:10A05000450901107BA0011089AE001010B5112236
:10A06000054B1A700548064B98470648064B98471B
:10A07000064B9847002010BD74A001102865011000
:10A080007D5301104C6901105D520110559F001065
:10A0900010B50A4B1B78202B0CD10289084B1A8073
:10A0A0002122064B1A700748074B98470748084B70
:10A0B000984701E0074B9847002010BD74A001109D
:10A0C0006AA00110286501107D53011080690110FC
:10A0D0005D520110559F001010B5094B1B78212BC4
:10A0E0000AD12222064B1A700648074B98470121D5
:10A0F0000120064B984701E0054B9847002010BD12
:10A1000074A00110B069011049A90010ADB300108E
:10A11000559F001010B584B02022174B1A70174BB2
:10A120009847041E07D01648164B98471648174BF9
:10A13000984720001EE000230293154B0193C8238B
:10A14000DB0000930023002201210020114CA047D6
:10A15000041E07D10A480B4B98470F480B4B9847F2
:10A16000002007E00648074B984721000B48074BA3
:10A170009847E22004B010BD74A001105DEC0010FF
:10A18000286501107D530110C46901105D52011052
:10A190008F020000DD070110F8690110286A011024
:10A1A00030B583B005001C4B1B78222B0AD100214F
:10A1B00009331A4AD1540020194B98470021002036
:10A1C000184B9847144C112323701748174B984786
:10A1D0002278D2B2164B1B78DBB2164908781649A2
:10A1E000497B00901548164CA047AB781A2B0BD032
:10A1F000DAB21A2A04D8052B06D0082B07D103E0BF
:10A20000292B01D03B2B02D10E4B984701E00E4B7E
:10A210009847002003B030BD74A00110DC9F0110EE
:10A2200021B30010ADB30010286501107D5301105B
:10A23000C49E01107BA00110589F01106C6A011090
:10A240005D52011015A10010559F001070B586B029
:10A250002322644B1A70223A634B1A70634A1388A4
:10A260000133138001282DD0002802D002283FD0CE
:10A2700097E0002201AB1A705D4B1B79002B0AD0CE
:10A280005B4B5A7900237E2A01D80132D3B2584A57
:10A29000537101AA1370564B9B7A002B0ED0544B6E
:10A2A000DB7AFF2B02D00133DBB200E00023504AFF
:10A2B000D37201AA803B11780B4313704C4B9D8CD9
:10A2C000012270E04B490A6A01AB10161870101495
:10A2D000587010129870DA70CA691016187110143C
:10A2E000587110129871DA714023CD5A08225AE041
:10A2F000414A0E23D15E01AB19700912597010202A
:10A30000115E99700912D9701220115E197109122B
:10A3100059710820115E99710912D9710A20115ED4
:10A320001972091259720C20115E99720912D972B0
:10A330004423D55A183BD35C002B14D01423D15E90
:10A3400001AB1973091259731620115E9973091222
:10A35000D9731820115E19740912597400212C2325
:10A36000D154122208E001AB00221A735A739A7377
:10A37000DA731A745A740C322D231F49CB5C002BEC
:10A380000AD00A00CB6901A98B741B12CB7400217F
:10A390002D23D154142206E001AB00219974D97405
:10A3A00001E00022002592B201A92800134B984732
:10A3B000041E0ED11248134EB047134B18882900C3
:10A3C000124B984702000400084B19881048B04708
:10A3D00005E01048104B984710480A4B984720005A
:10A3E00006B070BD74A00110C59E011094A00110AC
:10A3F000589F0110DC9F0110C89E0110C110011070
:10A40000C06A01105D520110569F011061120110C7
:10A41000C86A0110286501107D530110D86A011027
:10A4200010B582B0010012310123019303001433EF
:10A43000009300230022024CA04702B010BDC0468A
:10A44000A1100110F0B54F464646C0B483B0944603
:10A45000012810D0002802D0022819D025E0BB2303
:10A4600050245325BE265A2757201C2290461B3ABB
:10A470000192914623E0EE2350245325BE265A270D
:10A4800057201C229046143A0192063A914616E053
:10A49000112350245325BE265A2757201C229046AC
:10A4A000083A0192113A914609E000230024002560
:10A4B00000260027002000229046019291464A463D
:10A4C0004A8202220A7042464A708870CF700E712A
:10A4D0004D718C71CB710B7200234B728B72CB72EE
:10A4E0000B734B738B73CB730B7412240C85624606
:10A4F000CA626A4692880A864A86112034228854A3
:10A500008B6300228B87CB8733300A5401300A5487
:10A5100001300A5448228B5202328B5202328B5243
:10A520000B6403B00CBC90469946F0BD10B5054BCA
:10A530000122DA705878002300220221024CA04741
:10A5400010BDC046589F011049F3001010B5054BCF
:10A5500001225A72D879002300220221024CA0471E
:10A5600010BDC046589F011049F3001010B582B0CD
:10A5700001AC2000204B9847002323700233637006
:10A58000013BE3701D4B587821001D4B9847002874
:10A5900005D01C481C4B98471C481D4B984701ACE4
:10A5A0002000154B98470023237002336370013B52
:10A5B000E370124BD8792100114B9847002805D041
:10A5C0001048114B98471348114B984701AC200095
:10A5D000094B984700232370637021001720084B14
:10A5E0009847002805D00748074B98470A48084B6A
:10A5F000984702B010BDC04685C00010589F01109A
:10A6000095C00010286501107D530110586B011092
:10A610005D520110906B0110C86B011070B5054DB3
:10A62000687802220449054CA047E87902220449CF
:10A63000A04770BD589F01102DA50010C5C4001083
:10A640004DA5001070B51F200C4DA84704001D201B
:10A65000A847050006000A480A4B9847220029002F
:10A6600009480A4B9847002C04D00320002D04D140
:10A67000023802E0701E8641700070BD4DC20010AD
:10A68000286501107D530110106C01105D520110FE
:10A6900070B505004F4C637B23734F4B9847607335
:10A6A000002D03D14D484E4B984705E0012D00D0B9
:10A6B00088E04C484A4B9847464B5B7B012B06D0C1
:10A6C000002B7AD0022B2DD0032B56D07DE0464BA9
:10A6D0001B78DBB2002B03D0223B012B19D80EE0F4
:10A6E0000122424B1A700023414A1370414A1370F1
:10A6F0000022FA210120404B9847002069E0002306
:10A700003A4A13703A4A137000203C4B9847002095
:10A710005FE03B483B4B98473B483C4B9847012008
:10A72000404256E0304B1B78DBB2222B12D0232B59
:10A730001AD0002B4BD101222C4B1A7000232C4A2B
:10A7400013702C4A13700022FA2101202A4B9847DB
:10A7500000203EE00023254A1370254A1370002094
:10A76000264B9847002034E02548264B9847284838
:10A77000264B9847012040422BE01B4B1B78002BB7
:10A7800008D11A4A13701A4A13700122214B1A7009
:10A7900000201EE0002100201F4B98470222134B8F
:10A7A0001A700023124A1370124A13700022FA2101
:10A7B0000120114B984700200BE00122154B1A7025
:10A7C000002006E00120404203E0002001E00120DB
:10A7D000404270BD589F011045A600103C6C01100E
:10A7E00049A90010506C011074A00110C49E011002
:10A7F0007BA0011096A00110D5B500104DA200104D
:10A80000286501107D530110646C01105D52011028
:10A810008C6C0110559F011021B3001010B50C0075
:10A82000002804D10C4B58780C4B984705E00128C0
:10A8300003D1094B58780A4B9847002C04D1064B9A
:10A84000D879064B984705E0012C03D1024BD87903
:10A85000034B984710BDC046589F011095C5001086
:10A86000F1C5001010B582B06B46DA1D00231370DD
:10A870000D4C210000200D4B984720000C4B9847B1
:10A88000041E07D00B480C4B984721000B480C4B7B
:10A89000984707E00748084B98470A4B598C0A48E5
:10A8A000074B984702B010BD689F011045A40010E7
:10A8B00021A40010286501107D530110B06C011017
:10A8C0005D520110589F0110F46C011010B582B058
:10A8D00001AC2000154B98470123237021000E2066
:10A8E000134B9847002805D01248134B984713483C
:10A8F000134B984700210E20124B984701AC2000C3
:10A900000A4B98470123237021000F20084B9847DA
:10A91000002805D00748084B98470848084B984737
:10A9200000210F20074B984702B010BD85C00010D2
:10A9300095C00010286501107D5301103C6D011079
:10A940005D520110EDC2001070B584B004000C48D7
:10A950000C4B98470C4B19780C4B18780C4B1D7806
:10A960000C4B1E780C4A537B127B03960295019088
:10A970000091210009480A4CA04704B070BDC046B0
:10A98000286501107D53011074A00110C49E0110B0
:10A990007BA00110549F0110589F01105C6D0110A5
:10A9A0005D52011030B587B01020144CA047144BF5
:10A9B00058601020A047134B586001AC2000124B88
:10A9C000984701232370813363807A3B63600133AE
:10A9D000E360073BA36023610C4D0D4C01AA0D49B8
:10A9E0002800A0470028F9D1084B1A682821535C99
:10A9F000DB07FCD40123137507B030BDD150011023
:10AA000080A0011060A001109D8300106CA00110B7
:10AA1000B583001000300040F8B5124C2080501C67
:10AA2000C0B2608060680170002A0ED00020411C16
:10AA3000185C656868540800C9B28A42F7D804E017
:10AA4000013CA4B2002C04D109E0074C054E074D8F
:10AA5000074F31002800B8470028F1D101E001205C
:10AA60004042F8BD80A00110E90300006CA0011075
:10AA70004D840010F0B5474680B41700984680B268
:10AA8000244B188001225A805B681970224B188071
:10AA90005F8000241F4E214D0AE02148214B98473A
:10AAA00021002148214B98470134214B9C4226D05C
:10AAB00031002048A8470028EFD10024164E1E4D33
:10AAC0000AE01748174B984721001748174B98473B
:10AAD0000134174B9C4215D031001648A847002876
:10AAE000EFD1002F11D000230B494A68D25C4046B9
:10AAF000C2540133DAB29742F7D8002006E00120B1
:10AB0000404203E00120404200E0002004BC9046A7
:10AB1000F0BDC04680A0011060A00110718400103B
:10AB2000286501107D5301109C6D01105D520110CC
:10AB3000E90300006CA001102984001010B528233F
:10AB4000064AD35C002B08D001212923D1540023CD
:10AB5000002201311E20024CA04710BDC89E0110EA
:10AB600049F3001010B582B001AC2000154B984796
:10AB70000023237002336370013BE37021001E2029
:10AB8000114B9847002805D01048114B98471148A1
:10AB9000114B984701AC20000A4B984701232370C2
:10ABA00021000620084B9847002805D10748084B8C
:10ABB00098470A48084B984701210620084B9847B8
:10ABC00002B010BD85C0001095C0001028650110AE
:10ABD0007D530110A46D01105D520110E46D011050
:10ABE000EDC2001010B5022202491E20024B984708
:10ABF00010BDC0463DAB0010C5C4001070B529485B
:10AC0000294B984729482A4B98470020294B9847B9
:10AC1000002805D02848264B9847012040423FE0B5
:10AC20002048214B98472548214B98477920244BB1
:10AC300098477820234B98470420234B98470420BB
:10AC4000224B9847224D2800224B9847681F224BE1
:10AC50009847A81E214B9847AC1F0723EB76F0209E
:10AC60004000E8831E4B984704201E4B9847012064
:10AC70001D4B984701232222A3540632A3540023DC
:10AC80000132A3540132A3540132A3540132A3541C
:10AC90000132A3540132A3542C3A2F33E254002042
:10ACA00070BDC046286501107D530110246E01104F
:10ACB0005D520110E5920010386E0110446E0110D3
:10ACC000FD900010B98A001029900010418A0010F0
:10ACD000CE9E0110258A001089880010ED97001083
:10ACE0005D9C0010FD9700108D96001030B585B06A
:10ACF000204C00222023E25421000E312000083095
:10AD0000123B6B4400930F236B4402AA1A4DA847D1
:10AD10002B23E35C012B04D801332B2215498B54E0
:10AD20000BE0144C00222B23E25420001C3002A91B
:10AD3000124B984701222D23E2542A230D4AD35C5B
:10AD4000012B04D801332A220A498B540BE0094C09
:10AD500000222A23E2542000143002A9084B98470D
:10AD600001222C23E25401212E23024AD154002037
:10AD700005B030BDC89E0110258B0010398500102C
:10AD80003197001010B582B06B46DA1D00231370A6
:10AD90000E4C210002200E4B984720000D4B984787
:10ADA000041E07D00C480D4B984721000C480D4B52
:10ADB000984708E00848094B984742230A4AD15A65
:10ADC0000A48084B984702B010BDC046F89E0110D3
:10ADD00045A4001021A40010286501107D53011026
:10ADE000586E01105D520110C89E0110986E01103E
:10ADF00010B50021014B984710BDC046EDC20010B0
:10AE000010B50121014B984710BDC046EDC200109E
:10AE100010B582B001AC20000A4B98470123237083
:10AE200021001620084B9847002805D00748084BFA
:10AE300098470848084B98471620084B984702B097
:10AE400010BDC04685C0001095C0001028650110D7
:10AE50007D530110D86E01105D52011001AE00103B
:10AE600010B50400054B9847002803D12000044B7F
:10AE7000984702E02000034B984710BD9DC2001088
:10AE800001AE0010F1AD001010B50C4B9847002238
:10AE90000B4B1A700B4B1B78DBB2022B02D0032B2F
:10AEA00002D004E0642103E0C821490000E0002151
:10AEB00001220120044B984710BDC046F1AD00109F
:10AEC0009CA001107BA00110D5B5001010B582B078
:10AED000054A1E2313701D3B0093044B044905488B
:10AEE000054CA04702B010BDCC9F0110B89F0110C7
:10AEF0007CA0011088A00110A9B40010F0B557463D
:10AF000080B482B0374DA2232B7000236B70AB70DE
:10AF1000354C03339A46009323002A0033493448C2
:10AF2000344FB847344E63781B02A2781343F38042
:10AF3000A4232B705346009323002A002B492C484E
:10AF4000B84763781B02A27813433381A6232B7082
:10AF50005346009323002A0024492548B8476378C4
:10AF60001B02A27813437381A8232B7053460093CE
:10AF700023002A001D491E48B84763781B02A278A7
:10AF80001343B381AA232B705346009323002A0056
:10AF900016491748B84763781B02A2781343F38118
:10AFA000AC232B705346009323002A000F4910480E
:10AFB000B84763781B02A27813433382AE232B7009
:10AFC0005346009323002A0008490948B84763788C
:10AFD0001B02A27813437382002002B004BC924685
:10AFE000F0BDC046CC9F0110B89F01107CA001109D
:10AFF00088A00110A9B40010DC9F011010B50A4B05
:10B00000984700280DD1094B01225A7002242521AE
:10B010005C5403315A54002201315A5401315A54BC
:10B0200000E0102010BDC046FDAE0010DC9F0110F6
:10B0300010B51748174B98471748184B98470121E8
:10B040000120174B984701212523164AD154164B4E
:10B0500098470320154B9847154B9847002806D072
:10B060000B480C4B984713480C4B9847FEE70D4B89
:10B0700002212522995401245C701E3A0E4B1A704D
:10B08000013901200D4B98470D4B1C7010BDC04677
:10B09000286501107D5301104C6F01105D520110A5
:10B0A0001DA80010DC9F0110CDAE001029810010FA
:10B0B000FDAF0010806F0110549F011021B30010EC
:10B0C000559F0110F0B557464E46C0B483B02523B6
:10B0D0002C4AD35C032B02D0042B25D04BE02A4C06
:10B0E000002323706370A370E370284D042700973A
:10B0F0002B00220026492748274EB246B047214E52
:10B100006B781A04AB781B021343EA78134373611C
:10B1100052232370513B00932B0022001C491D48F1
:10B12000D0472523F75426E0174C00232370637083
:10B13000A370E370154D043300932B0022001449D3
:10B140001448154EB146B0470E4E6B781A04AB78D2
:10B150001B021343EA781343B36142232370012790
:10B1600000972B0022000A490A48C84703222523DA
:10B17000F254013BF754002003B00CBC91469A46B0
:10B18000F0BDC046DC9F0110CC9F0110B89F01109C
:10B190007CA0011088A00110A9B40010F0B54F46A2
:10B1A00080B482B0264DEC892402AB691C1BE317E6
:10B1B0001E00288A234A914622000021C8474902DE
:10B1C000C00D0843FA23DB009C4660442862A8892E
:10B1D0002200019633000021C8474E06C2093243BF
:10B1E000CB112E890021300412184B4116001F008C
:10B1F00068892200019B0021C8470C06020A2243ED
:10B200000B12EC880021E003801859416A69002381
:10B21000C847CC02420D22434B15921BBB41110083
:10B220005B04CA0B1A43EA610748084B9847EA696E
:10B23000296A0748074B984702B004BC9146F0BD05
:10B24000DC9F0110ED330110286501107D530110C2
:10B25000C06F01105D52011010B50F4B1B78222BEF
:10B2600018D10E4B9847002806D00D480D4B984733
:10B270000D480E4B98470DE024230D4AD35C002B5C
:10B2800008D0140000222423E2540A4B98470122DC
:10B290002A23E25410BDC04674A00110C5B00010AE
:10B2A000286501107D530110007001105D520110DE
:10B2B000DC9F01109DB1001010B582B06B46DA1D05
:10B2C000002313700D4C210001200D4B98472000E6
:10B2D0000C4B9847041E07D00B480C4B9847210095
:10B2E0000B480C4B984707E00748084B98470A4B18
:10B2F000D98F0A48074B984702B010BD08A001102B
:10B3000045A4001021A40010286501107D530110F0
:10B31000387001105D520110DC9F01108070011027
:10B3200010B50C00002807D002212F23164AD15453
:10B330001E20164B984706E000212F23124AD154B5
:10B340001E20134B9847002C11D0124B03212522AD
:10B3500099540139063299540021802000020E4B85
:10B3600098470E4B984701220D4B1A700AE00221B4
:10B370002523084AD1540B4B98470B4B9847002282
:10B38000074B1A7010BDC046C89E011095C500102D
:10B39000F1C50010DC9F01100DB5001041B5001083
:10B3A00068A0011035B5001061B5001010B50C0093
:10B3B000002816D0144B984700280AD01348144B85
:10B3C00098471448144B984700210620134B984780
:10B3D0000BE00122124B1A7000210120114B9847FB
:10B3E00003E0002106200D4B9847002C06D00121D8
:10B3F00025230D4AD1540D4B984703E00021072027
:10B40000064B984710BDC046FDAB001028650110E3
:10B410007D530110CC7001105D520110EDC200107F
:10B42000C89E011021B30010DC9F011031B0001044
:10B4300030B58DB001AC2000134B9847102323701A
:10B4400021001248124B984702AC2000114B98473C
:10B45000682323710023A3701133A3600D3BA36104
:10B460001322E260E361143A2261226213326261C4
:10B470006362094D220009492800094B98472800BA
:10B48000084B98470DB030BD31BA00107CA00110B8
:10B4900069BA00103DBA001088A001100070004089
:10B4A00039BB0010A9BA0010F0B583B004000D003C
:10B4B0000092019308AB1E880122084FB847330061
:10B4C000019A00992000064EB0470600002229008C
:10B4D0002000B847300003B0F0BDC04621BD0010C9
:10B4E0009DBC001010B52823064AD35C002B08D061
:10B4F00001212923D1540023002202314220024C91
:10B50000A04710BDDC9F011049F3001030B583B097
:10B5100004000D006846054B98476B465D7001942A
:10B520006846034B984703B030BDC0467181001098
:10B53000E581001010B5014B984710BD81810010C6
:10B5400010B50448044B984780221205034B1A603B
:10B5500010BDC046E5B40010CD81001000E100E050
:10B5600010B5044B9847802109058023024AD15029
:10B5700010BDC046D981001000E100E07047C04610
:10B5800010B588B001AC2000084B9847084AA2606B
:10B5900000236370626163732000064B98470020AC
:10B5A000054CA0470120A04708B010BD85BD001084
:10B5B00080BA8C0119BE0010F5BD001010B5040052
:10B5C000024B98472000024B984710BD1DBF00104A
:10B5D000F5BD001010B51400012806D0002802D0D7
:10B5E000022804D005E01A2204E00C4A02E00C4ACA
:10B5F00000E00122002901D1FA2189000020094B35
:10B6000018704A4300212000074B98472000074B41
:10B6100098478022D201064B1A6010BD9065000049
:10B6200080BA8C01559F0110A9BD0010D1BD00103A
:10B6300000E100E010B5014B984710BDF5BD0010CA
:10B6400010B50122044B9A700023002201214020F2
:10B65000024CA04710BDC046C89F011049F300101E
:10B6600010B50122044B9A700023002201214120D1
:10B67000024CA04710BDC04678A0011049F300104D
:10B6800010B57C4B1B78DBB2012B03D0022B00D111
:10B69000AEE0E7E00022774B1A70774C637B2373B0
:10B6A000764B984760737648764B9847237B012BFF
:10B6B00002D0022B4CD093E06F4B5B7B012B02D06E
:10B6C000022B23D03BE0704B1B78002B15D16F4A27
:10B6D00013780133DBB213700F2B05D90022654BB1
:10B6E0001A706B4B9847C4E00122624B1A7000221B
:10B6F000FA210120674B9847BBE0674B1B78002B72
:10B7000000D0B6E00122654B1A70B2E05E4B1B78A8
:10B71000002B0BD100225D4B1A700132554B1A7071
:10B720000022642101205B4B9847A2E05A4B1B7812
:10B73000002B00D09DE00122584B1A7099E0564B27
:10B740001B78002B00D094E00122544B1A7090E03B
:10B75000494B5B7B012B23D0022B39D14A4B1B7801
:10B76000002B15D1494A13780133DBB213700F2B2C
:10B7700005D900223F4B1A70454B984779E00122CA
:10B780003C4B1A700022FA210120424B984770E08E
:10B79000414B1B78002B6CD10122404B1A7068E0A2
:10B7A000394B1B78002B0BD10022384B1A70013219
:10B7B000304B1A70002264210120364B984758E024
:10B7C000354B1B78002B54D10122344B1A7050E0BA
:10B7D000314B1B78002B4CD10122304B1A7048E0C2
:10B7E0002D4B1B78002B44D101222C4B1A7040E0CA
:10B7F000214C637B2373214B984760732048214B76
:10B800009847A289264B9A4212D1204A13780133D5
:10B81000DBB21370092B02D9224B984729E0022290
:10B82000144B1A700022FA2101201A4B984720E08D
:10B830002B231D4AD35C012B09D11C481C4B984774
:10B840001C481D4B9847012100201C4B98470022A3
:10B85000084B1A70104B1B78002B0AD101320F4B8A
:10B860001A7006E00C4B1B78002B02D101220B4B07
:10B870001A7010BDC49E0110589F011045A60010FB
:10B88000FC70011049A9001074A0011096A00110CD
:10B890003D9F0010D5B500107BA00110559F0110F1
:10B8A00003030000559F0010DC9F01102865011064
:10B8B0007D530110107101105D52011021B3001071
:10B8C00010B54648464B9847464B1B78DBB2022BD7
:10B8D0002FD0032B54D0012B7FD10022414B1A7063
:10B8E000414B1B78222B07D1404B1B78002B74D186
:10B8F00001323F4B1A7070E03E4A13780133DBB2DD
:10B900001370002B09D03C483C4B98470022354B24
:10B910001A702232344B1A705FE000213848374BDE
:10B92000984701222F4B1A7064210120354B98470C
:10B9300053E03548354B98473548304B98470022FF
:10B94000284B1A70334A13780133DBB21370137823
:10B95000DBB2072B08D916202F4B98472F4B98475F
:10B960000122234B1A7038E016202D4B98470222F3
:10B970001C4B1A70013A64210120224B98472CE09D
:10B980002148224B984727481C4B98470022154BCB
:10B990001A70204A13780133DBB213701378DBB2CC
:10B9A000032B0ED916201C4B98471748174B984766
:10B9B0001D48124B98471D4B984701220C4B1A709B
:10B9C0000BE01620164B98470322064B1A70023ADA
:10B9D000C821490001200B4B984710BD4C71011044
:10B9E00049A900107BA0011074A00110C49E011091
:10B9F000559F011069A00110607101105D52011086
:10BA000070710110D5B50010286501107D5301102B
:10BA10008C7101109CA0011001AE001015A1001046
:10BA200061AE0010B8710110E471011025F800102A
:10BA30000C2303700023437083707047012303704D
:10BA4000002343708370C37081330371773B83603D
:10BA50000133C36001330361013343610B3B8361F5
:10BA6000C36103624362704730B583B004000B7852
:10BA700003704B7843708B78837001AD2800074BBF
:10BA8000984701232B7020782900054B9847207890
:10BA90000121044B984703B030BDC04685C000105B
:10BAA00095C00010EDC20010036801221A7670479D
:10BAB00010B500230268137603680D4A934209D13A
:10BAC00041200C4CA0472620A0473820A047012049
:10BAD000A0470BE0084A934208D14220054CA047FA
:10BAE0002720A0473920A0470220A04710BDC0460C
:10BAF0000060004085CA00100070004010B5046866
:10BB0000094B9847094B9C4205D10120084CA0479E
:10BB10003820A04707E0074B9C4204D10220044C88
:10BB2000A0473920A04710BDB1BA00100060004006
:10BB3000F1CD001000700040F0B55F464646C0B43D
:10BB400083B006008846150031600B7EDB0701D507
:10BB500000230B7630004A4B98473368494A93429A
:10BB600009D14120484CA0472620A0473820A047B3
:10BB70000120A0470BE0454A934208D14220424CA5
:10BB8000A0472720A0473920A0470220A04701A8AE
:10BB90003F4B98472C00083418239B46AB442700A2
:10BBA0002068431C11D02B78012B02D16A461371F7
:10BBB00003E0002B01D16A461371C0B201A9354BD5
:10BBC0009847398A3878344B984704345C45E6D135
:10BBD000EB78424613742B78012B00D113772B7826
:10BBE000002B01D14246137733682A7872712A7884
:10BBF000012A01D12A799A826A78042A04D124215F
:10BC0000585C02435A5404E024215A5C04208243C5
:10BC10005A54AA78012A1AD0002A04D0022A0CD039
:10BC2000032A1ED026E02422995C022081439954E5
:10BC3000995C0138814399541CE02422985C0221CC
:10BC400001439954995C01208143995412E02422C4
:10BC5000995C022081439954985C012101439954D5
:10BC600008E02422985C022101439954985C012148
:10BC700001439954002003B00CBC90469B46F0BD94
:10BC8000FDBA00100060004029C70010007000409D
:10BC900085C0001095C0001079C30010F0B583B0C6
:10BCA000046800266D46EE710735002C34D000295B
:10BCB00004D129008079287001270BE0002A05D0E3
:10BCC0001720002B29D00026002703E0012600279B
:10BCD0006A4607322825605DC007FCD4207B207AA5
:10BCE000002B14D000257842474170424641207A0B
:10BCF000C007FCD508782070207BC007FCD52079D0
:10BD000010700135ADB2C9199219AB42EFD1237A47
:10BD1000DB06FCD5002000E01F2003B0F0BDC046CC
:10BD200010B50878002A03D00021044B984702E0A0
:10BD30000121024B9847002010BDC046EDC2001003
:10BD400010B50D4B1B7D002B07D001220A4B1A7337
:10BD50000A4B1B68002B00D098473423064AD35C5B
:10BD6000002B07D001212C23D154054B1B68002B3D
:10BD700000D0984710BDC04600100040208401103C
:10BD80002484011001230370037302224270427362
:10BD9000837083730022C270C27303710374826064
:10BDA000426102767047C046002807D1002902D1BF
:10BDB000064B1A6009E0054B9A6106E0002902D1A2
:10BDC000024B1A6201E0014B9A6370470010004079
:10BDD000002805D1064A117A80230B43137205E02F
:10BDE00003492822885C802303438B547047C04654
:10BDF00000100040002805D1064A117A7F230B402D
:10BE0000137205E003492822885C7F2303408B548A
:10BE10007047C0460010004070B504000420394B44
:10BE200098472378002B02D1237B002B65D036491D
:10BE3000CA6820231343CB60227E8B690320024013
:10BE400012012D30834313438B612378002B26D0BE
:10BE500063780121002B03D0023B5D425D41A901C3
:10BE6000A278520002252A40E3789B000A352B4035
:10BE70001A4315000D432379002B01D020231D43C5
:10BE8000224BA2681A601D721F49C4225200885CAE
:10BE9000012303438B5400201D4B984700E00025ED
:10BEA000237B002B29D0637B002B05D0012B05D0F1
:10BEB000022B04D1402502E0012500E00025A37BF0
:10BEC0005B0002211940E27B92000C2313400B43DC
:10BED0001D43237C002B01D020231D4362690B4BA3
:10BEE0001A6228229D5408496132FF32885C02237D
:10BEF00003438B540120064B984706491E20064BEE
:10BF0000984770BDF1CD001000B000400010004017
:10BF1000D1BD001041BD001059D20010002802D13F
:10BF2000024B196001E0024B196070472084011038
:10BF30002484011070B5164B1D68298F89B2CB0778
:10BF400007D401230124180022009A40114214D082
:10BF500001E00122002092B22A8746230C4AD35ADC
:10BF60000341DB070CD54423D35A0341DB0707D534
:10BF7000800010184368984702E00133102BE2D18B
:10BF800080210904C0235B00024AD15070BDC04625
:10BF9000A0A0011000E100E0F8B5184B9B6C1E8FCB
:10BFA000B6B237000024760B7603144D002E01D074
:10BFB000134B984722000123A3401F4213D09BB28A
:10BFC000A96C0B878E23EB5A2341DB070BD58C23FF
:10BFD0000A49CB5A2341DB0705D5123292008A1851
:10BFE0005368984702E00134102CDFD180214904C6
:10BFF000C0235B00034AD150F8BDC046A0A0011089
:10C0000051BC010000E100E010B590231B4AD2585A
:10C01000138F9BB2D90414D499040AD459040CD4B4
:10C02000DB0BDB039BB2002B20D080231B020F21F4
:10C030000AE080239B010D2106E08023DB010E2115
:10C0400002E080235B010C219BB21387D6230B4AAD
:10C05000D35A0B41DB0709D5D423D35A0B41DB0755
:10C0600004D52431890051184B68984780218904F0
:10C07000C0235B00024AD15010BDC046A0A00110F1
:10C0800000E100E000230370012242708370C3705E
:10C090007047C04670B51723012800D8C8E00728AC
:10C0A00009D8644D6A6C103B03409B0007249C40F8
:10C0B000A2436A6429E00F2809D85E4DAA6C0723C1
:10C0C00003409B0007249C40A243AA641DE017285C
:10C0D00009D8584DEA6C072303409B0007249C4075
:10C0E000A243EA6411E003002C3B032B0DD8524D10
:10C0F0008224E4002A5D120701269E40120F2B5D68
:10C10000B2430F26B34313432B5503001D3B022BB1
:10C1100029D84B78012B08D1474D2B7D1F24241A99
:10C120000122A24093432B7508E0434C257D1F223A
:10C13000121A012393402B43DBB22375CA780023E4
:10C14000002A75D03C490C881F22101A8000013348
:10C15000834023439BB20B80384A117802230B4360
:10C160001370002364E00A78002A40D10F2808D811
:10C17000012383409BB2324A938200231F2857D861
:10C1800012E01F2807D80F220240012393409BB2E0
:10C190002C4A938208E00F2318400E3B83409BB249
:10C1A000294A9382002343E04B78012B0CD0002BCB
:10C1B00002D0022B10D03AE01E490A6D01238340C1
:10C1C00013430B65002333E01A490B6D01228240B3
:10C1D00093430B6500232BE0164B596D01228240DF
:10C1E00011435965196D91431965002320E000231F
:10C1F000012A1DD10F2806D8013383409BB2104A73
:10C200001382002314E01F2808D80F2318400E3B88
:10C2100083409BB20B4A1382002309E00F2318408E
:10C220000E3B83409BB2084A1382002300E0172391
:10C23000180070BD00B0004000F0004000E0004079
:10C240000000014000100140003001400F2806D8D6
:10C250000F4B1988012383401800084014E01F2861
:10C2600009D80C4B19880F2303401A00012393406F
:10C270001800084008E0084B19880F2303401A00F3
:10C280000123934018000840431E9841C0B27047F4
:10C290000000014000100140003001400F2806D886
:10C2A0000F4B9988012383401800084014E01F2891
:10C2B00009D80C4B99880F2303401A00012393409F
:10C2C0001800084008E0084B99880F2303401A0023
:10C2D0000123934018000840431E9841C0B27047A4
:10C2E00000000140001001400030014010B50F284F
:10C2F00010D8002907D01D4A9188012383400B43A1
:10C300009BB2938031E019498B880122824093438C
:10C310008B802AE01F2814D8002909D014498C8862
:10C320000F2210400123834023439BB28B801CE0EB
:10C330000F498B880F2210400E3A824093438B8026
:10C3400013E0002909D00B498C880F2210400123EB
:10C35000834023439BB28B8007E006498B880F22E2
:10C3600010400E3A824093438B8010BD0000014084
:10C37000001001400030014070B50D0AFF23194044
:10C38000072833D84E4A546CF83B03409B000726DD
:10C390009E40B4435464546C0E009E4033002343CB
:10C3A0005364012900D08AE003280FD81100D0225D
:10C3B00052008C5803231840C0003C3383409C43F8
:10C3C0008C508B5885401D438D5078E03C49D222DB
:10C3D00052008C5803231840C0003C3383409C43D8
:10C3E0008C508B5885401D438D5068E00F2832D803
:10C3F000334A946C072303409B0007269E40B443B6
:10C400009464946C0E009E4033002343936401298E
:10C4100055D10B280FD81100D42252008C58032379
:10C420001840C0003C3383409C438C508B5885405F
:10C430001D438D5043E02249D62252008C580323DD
:10C440001840C0003C3383409C438C508B5885403F
:10C450001D438D5033E0172831D8194AD46C072377
:10C4600003409B0007269E40B443D464D46C0E0066
:10C470009E4033002343D364012920D113280FD8D1
:10C480001100D82252008C5803231840C0003C33BE
:10C4900083409C438C508B5885401D438D500EE04B
:10C4A000074ADA235B00D15803242040C0003C3403
:10C4B0008440A143D150D15885400D43D55070BD23
:10C4C00000B00040F0B500230F2804D91F24844297
:10C4D0005B411D3CE31A012A16D0002A04D0022A2F
:10C4E00022D0032A30D03EE0294EDC00E218D200F0
:10C4F00097590F2505400122AA4092B2BA85E41847
:10C50000E400A459A2862EE0214EDC00E218D200FD
:10C5100097590F2505400122AA4092B2BA85E41826
:10C52000E400A45922861EE0194EDC00E218D20075
:10C5300097590F2505400122AA4092B23A85E41886
:10C54000E400A45922860EE0114EDC00E218D2006D
:10C5500097590F2505400122AA4092B23A85E41866
:10C56000E400A459A2860F221040094CDD00EA180D
:10C57000520012189200A2185160EA18D200A218B4
:10C5800044320121814013880B431380F0BDC04623
:10C59000A0A0011030B50F2805D880221204124B3C
:10C5A0001A6000220CE01F2805D8802252040E4B8E
:10C5B0001A60012204E0802292040B4B1A600222CE
:10C5C0000F23184001218140084CD500AB18DB0037
:10C5D000E3184633188808431880AA18D200135964
:10C5E00089B2198430BDC04600E100E0A0A001106E
:10C5F00030B500230F2804D91F2282425B411D3A27
:10C60000D31A0F22104001218140074CDD00EA18A7
:10C61000D200A2184632108888431080EB18DB0045
:10C620001B5989B2998430BDA0A0011010B5114AE0
:10C630001000D830002107E002C39342FCD15180A2
:10C6400011804832824202D01300403BF4E70A4B8B
:10C650000A4A1A600A4A9A640A49902299500A4979
:10C6600027200A4CA0470A492820A0470949292029
:10C67000A04710BDE4A00110A0A0011000000140DF
:10C68000001001400030014035BF001059D20010A9
:10C6900099BF001009C0001001280DD0002802D059
:10C6A00002281CD02EE0184A90690C2303439361A2
:10C6B000164A174B1A601AE0134B98690822024376
:10C6C0009A619A69042082439A61124A53688020D1
:10C6D000000303435360104A0D4B1A6007E00A4AF7
:10C6E00093690C2083439361084A094B1A60064BF7
:10C6F0009A69032082439A619A69014011439961C2
:10C70000002000E01720704700B0004080BA8C0184
:10C7100078A1011000F0004080841E00014B1868D1
:10C720007047C04678A1011000B5352800D9A2E1B4
:10C730008000D24B1B589F46D14AD16802230B433D
:10C74000D360002098E1CE4AD16804230B43D36024
:10C75000002091E1CA4AD16808230B43D36000202E
:10C760008AE1C74AD16810230B43D360002083E1DC
:10C77000C34AD16820230B43D36000207CE1C04A28
:10C78000D16880230B43D360002075E1BC4AD36895
:10C79000802149000B43D36000206DE1B84AD36883
:10C7A000802109010B43D360002065E1B44AD368BE
:10C7B000802149010B43D36000205DE1B04AD3687A
:10C7C000802189010B43D360002055E1AC4AD36836
:10C7D0008021C9010B43D36000204DE1A84AD368F2
:10C7E000802109020B43D360002045E1A44AD368AD
:10C7F000802149020B43D36000203DE1A04AD36869
:10C80000802189020B43D360002035E19C4AD36824
:10C810008021C9020B43D36000202DE1984AD368E0
:10C82000802109030B43D360002025E1944AD3689B
:10C83000802149030B43D36000201DE1904AD36857
:10C84000802189030B43D360002015E18C4AD36813
:10C850008021C9030B43D36000200DE1884AD368CF
:10C86000802109040B43D360002005E1844AD3688A
:10C87000802149040B43D3600020FDE0804AD36847
:10C88000802189040B43D3600020F5E07C4AD36803
:10C890008021C9040B43D3600020EDE0784AD368BF
:10C8A000802109050B43D3600020E5E0744AD3687A
:10C8B000802149050B43D3600020DDE0704AD36836
:10C8C000802189050B43D3600020D5E06C4AD368F2
:10C8D0008021C9050B43D3600020CDE0684A11696F
:10C8E00001230B4313610020C6E0654A116902234E
:10C8F0000B4313610020BFE0614A116904230B431D
:10C9000013610020B8E05E4A116908230B431361EC
:10C910000020B1E05A4A116910230B431361002033
:10C92000AAE0574A116920230B4313610020A3E0BA
:10C93000534A116940230B43136100209CE0504A85
:10C94000116980230B431361002095E04C4A136961
:10C95000802149000B43136100208DE0484A136990
:10C96000802189000B431361002085E0444A13694C
:10C970008021C9000B43136100207DE0404A136908
:10C98000802109010B431361002075E03C4A1369C3
:10C99000802149010B43136100206DE0384A13697F
:10C9A000802189010B431361002065E0344A13693B
:10C9B0008021C9010B43136100205DE0304A1369F7
:10C9C000802109020B431361002055E02C4A1369B2
:10C9D000802149020B43136100204DE0284A13696E
:10C9E000802189020B431361002045E0244A13692A
:10C9F0008021C9020B43136100203DE0204A1369E6
:10CA0000802109030B431361002035E01C4A1369A0
:10CA1000802149030B43136100202DE0184A13695C
:10CA2000802189030B431361002025E0144A136918
:10CA30008021C9030B43136100201DE0104A1369D4
:10CA4000802109040B431361002015E00C4A117D7D
:10CA500001230B43137500200EE0094A117D0223C8
:10CA60000B431375002007E0054A117D04230B4397
:10CA70001375002000E0172000BDC0460C720110A5
:10CA800000B0004000B5352800D97DE18000BF4BE3
:10CA90001B589F46BE4AD36802218B43D3600020B7
:10CAA00073E1BB4AD36804218B43D36000206CE15F
:10CAB000B74AD36808218B43D360002065E1B44AAC
:10CAC000D36810218B43D36000205EE1B04AD36865
:10CAD00020218B43D360002057E1AD4AD3688021E9
:10CAE0008B43D360002050E1A94AD168A94B0B4089
:10CAF000D360002049E1A64AD168A74B0B40D36020
:10CB0000002042E1A24AD168A44B0B40D360002030
:10CB10003BE19F4AD168A24B0B40D360002034E137
:10CB20009B4AD1689F4B0B40D36000202DE1984A6F
:10CB3000D1689D4B0B40D360002026E1944AD16818
:10CB40009A4B0B40D36000201FE1914AD168984B6B
:10CB50000B40D360002018E18D4AD168954B0B4003
:10CB6000D360002011E18A4AD168934B0B40D36017
:10CB700000200AE1864AD168904B0B40D360002028
:10CB800003E1834AD1688E4B0B40D3600020FCE068
:10CB90007F4AD1688B4B0B40D3600020F5E07C4A84
:10CBA000D168894B0B40D3600020EEE0784AD16811
:10CBB000864B0B40D3600020E7E0754AD168844B78
:10CBC0000B40D3600020E0E0714AD168814B0B40FC
:10CBD000D3600020D9E06E4AD1687F4B0B40D36010
:10CBE0000020D2E06A4AD1687C4B0B40D360002021
:10CBF000CBE0674AD1687A4B0B40D3600020C4E099
:10CC0000634AD168774B0B40D3600020BDE0604A97
:10CC1000136901218B4313610020B6E05C4A13695C
:10CC200002218B4313610020AFE0594A13690421AC
:10CC30008B4313610020A8E0554A136908218B43F8
:10CC400013610020A1E0524A136910218B43136144
:10CC500000209AE04E4A136920218B431361002083
:10CC600093E04B4A136940218B43136100208CE011
:10CC7000474A136980218B431361002085E0444AB1
:10CC80001169444B0B40136100207EE0404A11695A
:10CC9000554B0B401361002077E03D4A1169534B1F
:10CCA0000B401361002070E0394A11693A4B0B4088
:10CCB0001361002069E0364A1169384B0B4013615B
:10CCC000002062E0324A1169354B0B4013610020AD
:10CCD0005BE02F4A1169334B0B401361002054E095
:10CCE0002B4A1169304B0B40136100204DE0284A5C
:10CCF00011692E4B0B401361002046E0244A116954
:10CD00002B4B0B40136100203FE0214A1169294B56
:10CD10000B401361002038E01D4A1169264B0B407F
:10CD20001361002031E01A4A1169244B0B40136152
:10CD300000202AE0164A1169214B0B4013610020A4
:10CD400023E0134A11691F4B0B40136100201CE0C4
:10CD50000F4A11691C4B0B401361002015E00C4A6F
:10CD6000137D01218B43137500200EE0084A137DCB
:10CD700002218B431375002007E0054A137D04212F
:10CD80008B431375002000E0172000BDE4720110F2
:10CD900000B00040FFFEFFFFFFF7FFFFFFEFFFFFC8
:10CDA000FFDFFFFFFFBFFFFFFF7FFFFFFFFFFEFF74
:10CDB000FFFFFDFFFFFFFBFFFFFFF7FFFFFFEFFFA1
:10CDC000FFFFDFFFFFFFBFFFFFFF7FFFFFFFFFFE54
:10CDD000FFFFFFFDFFFFFFFBFFFFFFF7FFFFFFEF81
:10CDE000FFFFFFDFFFFFFFBFFFFDFFFFFFFBFFFFB9
:10CDF00000B5432800D923E28000E04B1B589F4632
:10CE0000DF4B596802229143596059680A435A60BE
:10CE1000002016E2DA4B59680422914359605968A0
:10CE20000A435A6000200CE2D54B5968082291430E
:10CE3000596059680A435A60002002E2D04B596891
:10CE400010229143596059680A435A600020F8E162
:10CE5000CB4B596820229143596059680A435A6064
:10CE60000020EEE1C64B5968402291435960596851
:10CE70000A435A600020E4E1C14B59688022914383
:10CE8000596059680A435A600020DAE1BC4B59687E
:10CE9000BC4A0A405A605A68802149000A435A60D5
:10CEA0000020CEE1B64B5968B74A0A405A605A682A
:10CEB000802189000A435A600020C2E1B04B5968C2
:10CEC000B24A0A405A605A688021C9000A435A602F
:10CED0000020B6E1AA4B5968AD4A0A405A605A6828
:10CEE000802109010A435A600020AAE1A44B596835
:10CEF000A84A0A405A605A68802149010A435A6088
:10CF000000209EE19E4B5968A34A0A405A605A6825
:10CF1000802189010A435A60002092E1984B5968A8
:10CF20009E4A0A405A605A688021C9010A435A60E1
:10CF3000002086E1924B5968994A0A405A605A6823
:10CF4000802109020A435A6000207AE18C4B59681B
:10CF5000944A0A405A605A68802149020A435A603A
:10CF600000206EE1864B59688F4A0A405A605A6821
:10CF7000802189020A435A60002062E1804B59688F
:10CF80008A4A0A405A605A688021C9020A435A6094
:10CF9000002056E17A4B5968854A0A405A605A681F
:10CFA000802109030A435A6000204AE1744B596802
:10CFB000804A0A405A605A68802149030A435A60ED
:10CFC00000203EE16E4B59687B4A0A405A605A681D
:10CFD000802189030A435A60002032E1684B596876
:10CFE000764A0A405A605A688021C9030A435A6047
:10CFF000002026E1624B5968714A0A405A605A681B
:10D00000802109040A435A6000201AE15C4B5968E8
:10D010006C4A0A405A605A68802149040A435A609F
:10D0200000200EE1564B5968674A0A405A605A6818
:10D03000802189040A435A60002002E1504B59685C
:10D04000624A0A405A605A688021C9040A435A60F9
:10D050000020F6E04A4B59685D4A0A405A605A6817
:10D06000802109050A435A600020EAE0444B5968D0
:10D07000584A0A405A605A68802149050A435A6052
:10D080000020DEE03E4B5968534A0A405A605A6815
:10D09000802189050A435A600020D2E0384B596844
:10D0A0004E4A0A405A605A688021C9050A435A60AC
:10D0B0000020C6E0324A53685B005B085360536847
:10D0C000802109060B4353600020BAE02C4B1A89DB
:10D0D00001218A431A81198901220A431A810020F9
:10D0E000AFE0274B1A8902218A431A81198902224B
:10D0F0000A431A810020A4E0214B1A8904218A43A3
:10D100001A81198904220A431A81002099E01C4BD4
:10D110001A8908218A431A81198908220A431A8127
:10D1200000208EE0164B1A8910218A431A81198932
:10D1300010220A431A81002083E0114B1A89202112
:10D140008A431A81198920220A431A81002078E033
:10D150000B4B1A8940218A431A81198940220A43BC
:10D160001A8100206DE0064B1A8980218A431A81BA
:10D17000198980220A431A81002062E0BC730110E1
:10D1800000B00040FFFEFFFFFFFDFFFFFFFBFFFFC2
:10D19000FFF7FFFFFFEFFFFFFFDFFFFFFFBFFFFF17
:10D1A000FF7FFFFFFFFFFEFFFFFFFDFFFFFFFBFF16
:10D1B000FFFFF7FFFFFFEFFFFFFFDFFFFFFFBFFFF7
:10D1C000FFFF7FFFFFFFFFFEFFFFFFFDFFFFFFFBF6
:10D1D000FFFFFFF7FFFFFFEFFFFFFFDFFFFFFFBFD7
:10D1E000184B1989184A0A401A811989802252005D
:10D1F0000A431A81002024E0124B1989134A0A407D
:10D200001A811989802292000A431A81002018E0AD
:10D210000C4B19890E4A0A401A8119898022D200C2
:10D220000A431A8100200CE0064B1989094A0A407A
:10D230001A811989802212010A431A81002000E014
:10D24000172000BD00B00040FFFEFFFFFFFDFFFF05
:10D25000FFFBFFFFFFF7FFFF8023DB049C466044DA
:10D26000800001607047C04670B5204B1C68236881
:10D270001D7DEDB26A0613D51E212222A1541A7E0D
:10D2800023318A431A762123E35C1B0706D520232A
:10D29000E35C1B0702D520002369984723681B7CA9
:10D2A000EB0722D523681B7CDBB2626913706369CC
:10D2B00001336361A38B013B9BB2A383A38B9BB21E
:10D2C000002B12D12133E35C5B070ED52023E35CF6
:10D2D0005B070AD500222223E2542268137E012133
:10D2E0008B431376E3682000984770BD7CA1011042
:10D2F00070B5214B1C6823681D79EDB2EA0717D57C
:10D30000A2691178C9B20132A2611970E38B013BA5
:10D310009BB2E383E38B9BB2002B09D12268137A83
:10D3200001218B4313722268117A10230B4313726D
:10D33000EB0612D52123E35CDB070ED52023E35C4B
:10D34000DB070AD500222223E2542268137A102137
:10D350008B431372200063689847AB060AD52123DC
:10D36000E35C9B0706D52023E35C9B0702D5A368FB
:10D370002000984770BDC0467CA1011070B5204BBD
:10D380005C6823681D7DEDB26A0613D51E2122223A
:10D39000A1541A7E23318A431A762123E35C1B07AA
:10D3A00006D52023E35C1B0702D52000236998479C
:10D3B00023681B7CEB0722D523681B7CDBB26269E8
:10D3C0001370636901336361A38B013B9BB2A38339
:10D3D000A38B9BB2002B12D12133E35C5B070ED5EC
:10D3E0002023E35C5B070AD500222223E254226853
:10D3F000137E01218B431376E3682000984770BDAC
:10D400007CA1011070B5214B5C6823681D79EDB2D9
:10D41000EA0717D5A2691178C9B20132A261197061
:10D42000E38B013B9BB2E383E38B9BB2002B09D1DF
:10D430002268137A01218B4313722268117A102318
:10D440000B431372EB0612D52123E35CDB070ED5E9
:10D450002023E35CDB070AD500222223E254226862
:10D46000137A10218B431372200063689847AB0630
:10D470000AD52123E35C9B0706D52023E35C9B07A9
:10D4800002D5A3682000984770BDC0467CA101105A
:10D49000E1235B0203600023037143718371C37155
:10D4A000023383600322C2600132026101324261B1
:10D4B0008361C361036243627047C046F8B54F465B
:10D4C0004646C0B405001700016000234360836036
:10D4D000C36003614361836100228383C38320337C
:10D4E000C2540133C2540133C254554B994218D12E
:10D4F0000920544CA0470A20A0470920524CA047BD
:10D500000A20A047514B1D6051491020514CA047A3
:10D5100051491120A047514B01221A6001321A6073
:10D520001AE04F4B994217D10B20464CA0470C20D4
:10D53000A0470B20444CA0470C20A047434B5D6004
:10D5400048491220434CA04747491320A047434B6A
:10D5500004221A6004321A60FB7904229046002BE0
:10D5600052D1023398464FE0318A01CEC0B2C8474B
:10D570000134E4B24445F7D32B681A7DD20704D5B1
:10D5800001211A7C1A7D0A42FBD1002120229954E4
:10D59000FB79591E8B4159013B797A7913430B432F
:10D5A000BA79022A0DD0D1B2022902D8012A05D0B7
:10D5B0000FE0032A08D0042A09D00AE0022213430C
:10D5C00007E00622134304E00A22134301E00E227F
:10D5D0001343202229688B543E68244B984704004B
:10D5E0003100234B984782B20004000C7043201A8C
:10D5F0003109884206D900230133DBB2401A884240
:10D60000FAD807E0002305E03E0008360024194B55
:10D610009946A9E7002128202C68215401331B07D3
:10D620005B0FD20013439BB22A6893842B68197650
:10D630002B68197200200CBC90469946F8BDC04674
:10D6400000400040F1CD001029C700107CA101105E
:10D6500069D2001059D20010F1D2001000E100E0B0
:10D66000005000407DD3001005D400101DC70010ED
:10D670001130011079C300100268012013790342B0
:10D68000FCD011700020704702680120137D034216
:10D69000FCD0137C0B7000207047C0461723002A73
:10D6A0000DD00B33C35CDBB2052B08D08283416104
:10D6B00005222223C2540368043A1A760023180074
:10D6C0007047C0469300C31859602021012393403E
:10D6D000425C13434354704710B5212201238B4011
:10D6E000845C23438354012904D10268117A2023E6
:10D6F0000B43137210BDC04610B501228A4021248D
:10D70000035D93430355012904D10268137A1F3145
:10D710008B43137210BDC046F0B5474680B40C0071
:10D72000904600280DD1002A0EDD8F18084E094DB5
:10D73000306821002B6898470134A742F8D1404651
:10D7400003E00120404200E0002004BC9046F0BD10
:10D750008CA1011084A10110F0B5474680B40E00E1
:10D7600015000138022811D8002A12D000240C4BD1
:10D7700098460C4F43461868315D3B68984700282F
:10D7800009DB0134A542F5D1200006E0012040422A
:10D7900003E0002001E00120404204BC9046F0BDBF
:10D7A0008CA1011088A101100300064A1268002A0A
:10D7B00002D10549034A1160024A1068C318136078
:10D7C0007047C0462884011098CA011001204042C9
:10D7D0007047C04680239B014B6000207047C046C5
:10D7E000012070470020704710B50448044B98474B
:10D7F0000448054B9847002010BDC046286501101D
:10D800007D530110307601105D52011010B5007883
:10D81000002806D00348044B98470448044B984717
:10D82000E22010BD286501107D5301104C760110D7
:10D830005D52011010B50078002806D00348044B53
:10D8400098470448044B9847E22010BD2865011012
:10D850007D530110607601105D52011010B5040077
:10D860000448054B9847628821880448044B984730
:10D87000002010BD286501107D5301107476011041
:10D880005D52011070B50400C578002D08D10A481A
:10D890000A4B9847A278218809480A4B984708E024
:10D8A0000548064B9847A27821880748054B9847BA
:10D8B000E225280070BDC046286501107D53011087
:10D8C000AC7601105D520110DC76011070B50400D9
:10D8D000C578002D08D10A480A4B9847A2782188BC
:10D8E00009480A4B984708E00548064B9847A27834
:10D8F00021880748054B9847E225280070BDC0469F
:10D90000286501107D530110147701105D5201103C
:10D9100050770110F8B506001D4C9B239B00E718BB
:10D9200025002300563B1A8833889A4222D1237857
:10D93000052B01D0082B02D101232B701AE0072BF5
:10D940000FD89B00134AD3589F4600232370124BD5
:10D950001B78002B0ED0104A1378013BDBB21370FA
:10D9600008E00E480E4B984729780E480E4B984712
:10D9700000232B707C34BC42D2D10848084B984716
:10D980003288B1780948084B98470020F8BDC04656
:10D9900006A20110CC74011014A401102865011016
:10D9A0007D5301108C7701105D520110A477011096
:10D9B00010B50448044B98470448054B984700208D
:10D9C00010BDC046286501107D530110D4770110A9
:10D9D0005D520110F8B506000188284B00241A8911
:10D9E0008A4204D11A005E321278062A2ED00134FF
:10D9F000E4B27C33052CF2D139E0204963011A1BD3
:10DA000092008A18157614005E34072323701C4890
:10DA10001C4B98471C481D4B9847E2252BE01848A3
:10DA2000184B98471A48194B9847144963011A1B19
:10DA300092008A1810005E3008270770F078107581
:10DA4000B2781C1BA4000C19227614E0B578002DC6
:10DA5000E5D0D2E70A4E30000A4DA8470C480B4CDF
:10DA6000A0473000A8470B48A047E22503E0B5785F
:10DA7000002DC2D1EEE72800F8BDC046A8A10110D4
:10DA8000286501107D530110F07701105D520110DF
:10DA9000047801102878011030B585B004001F4BC0
:10DAA0001B78DBB2132B24D81C4D2B78DBB29800EB
:10DAB000C018C000C3181A48181829222100194B91
:10DAC00098471948194B98472978C9B2A379E27940
:10DAD000A0780390E078029020790190607900901E
