S0170000534D535F7065726970686572616C312E737265635E
S3151000800010B5184B184A9A4203D0184B154A9A4283
S3151000801004D3174B174A9A4210D31EE0164B134A35
S315100080200332D21A92080132920000230D480E49EB
S31510008030CC58C45004339342FAD1EAE70F4B0C499B
S315100080400331C91A8908013189000023094C00201F
S315100080501A19106004338B42FAD1094B9847094B11
S31510008060984710BD8C7301108C730110FC730110AE
S3151000807014A30110FC730110907301100074011009
S315100080804547011065D9001010B5064C2378002B12
S3151000809007D1054B002B02D0044800E000BF012396
S315100080A0237010BDFC730110000000008C730110CA
S315100080B0084B10B5002B03D00749084800E000BF55
S315100080C007480368002B00D110BD064B002BFBD0D0
S315100080D09847F9E700000000007401108C73011036
S315100080E08C73011000000000012303704370FA2303
S315100080F0DB0143607047C046064B00225A601A687F
S3151000810003218A431A6019008022D2010B68134298
S31510008110FCD1704700D00040024A116810230B436F
S315100081201360704700D0004010B5044B9847044BBD
S315100081301B68002B00D0984710BDC046198100104F
S3151000814018740110014B18607047C046187401105E
S315100081500022014B1A60704718740110F0B583B0F5
S315100081600022294B1A730378022B05D1264A117B5C
S3151000817001330B43137305E0012B03D1224A117B04
S315100081800B431373214B1A6853001FD01F4D002742
S315100081902C26FF368021C9012F6001970197019B7C
S315100081A0B34206D8C046019B01330193019BB342EB
S315100081B0F8D944780B00002C03D180239B0000E0F3
S315100081C02A681342FCD12A685300E5D14378002B64
S315100081D005D10E4B42685A6001221A6004E00B4B1F
S315100081E042685A6002221A604378012B06D1074969
S315100081F0E022D2010B6813409342FBD104492B2095
S31510008200044B984703B0F0BD00E0004000D000409A
S315100082102981001051B50010F0B557464E46454617
S31510008220E0B482B04D881723002D33D0036828247C
S315100082301A5DD207FCD4012234241A55143C1A555F
S315100082400A8852000224FF34224392B21A80F13C6B
S315100082501A7A2242FCD000226C1EA4462024A14683
S315100082600024A04601264479002C04D1624502D18F
S315100082704C4647461F551C7B344208D0541CA24618
S315100082801F794C68A75452466C46E280E288AA428F
S31510008290E9D30023180002B01CBC90469946A246AA
S315100082A0F0BDC046F0B5844602684E882824135D9A
S315100082B0DB07FCD4012334241355143C13550B88C7
S315100082C05B00E03423439BB2138000240125137A0C
S315100082D0DBB21D4204D0671C4868045D1480BCB232
S315100082E0B442F4D3DB0603D41021137A0B42FCD02C
S315100082F063465B79002B02D100212033D154002034
S31510008300F0BDC046032303700D334380083B436022
S315100083100133C360073B83600361704770B5040087
S3151000832015000160002826D0002A26D028228B5C52
S31510008330DB07FCD400230B752368114A934203D143
S315100083400320104B984706E017200F4A934215D189
S3151000835002300C4B98472468298928790B4EB04770
S31510008360298A287BB0472B7823746B8823830123B3
S315100083702377002002E0172000E0172070BDC046CA
S3151000838000300040E9B000100034004071A6001023
S3151000839010B5002808D01723002906D000234371F2
S315100083A0034B9847030000E01723180010BDC04682
S315100083B01982001010B5002808D01723002906D0FE
S315100083C000234371034B9847030000E0172318005E
S315100083D010BDC046A582001010B5002808D017237E
S315100083E0002906D0163B4371034B9847030000E063
S315100083F01723180010BDC046A58200100300064AB8
S315100084001268002A02D10549034A1160024A10680F
S31510008410C31813607047C0461C74011018AB0110C6
S31510008420012040427047C04680239B014B600020CC
S315100084307047C046012070470020704710B582B0C3
S3151000844009480A4B98470A4B1A78D2B2094B1B783F
S31510008450DBB2094908780949497B00900848094C5C
S31510008460A047002002B010BD7C5901103D4A0110F2
S31510008470908F0110C08E0110CF900110AC8F01109B
S31510008480805901101D49011070B51148114DA847AA
S31510008490114C6378013BDBB263701048104B984760
S315100084A01048A847012252420F4B1A6001200F4B69
S315100084B0984700220E4B1A70222323700D4B1B78FF
S315100084C0002B02D101320C4B1A70002070BDC04631
S315100084D0D05901101D490110908F01107C590110BF
S315100084E03D4A0110D8590110888F01105D9D00106A
S315100084F0CF900110C08E01108D8F011010B5012084
S31510008500084B98470022084B1A702232074B1A70F4
S31510008510074B1B78002B02D1213A064B1A7000200C
S3151000852010BDC0465D9D0010CF900110908F0110B8
S31510008530C08E01108D8F01100023024A1370024A5B
S3151000854013807047908F01101491011010B52C48AC
S315100085502C4B98472C4B1B78002B05D101222B4B0B
S315100085601A702B4B984749E0274B1B78DBB2212B0F
S3151000857030D002D8202B05D037E0222B17D0232B52
S315100085801BD032E02348244B98472448244B984765
S31510008590244B9847002803D02348214B984724E0C2
S315100085A022481F4B98471122174B1A701DE0194885
S315100085B0194B98471E481A4B98471648164B98471A
S315100085C01C48174B984700212B231B4AD1540020D7
S315100085D01A4B98470F48104B98471948104B984715
S315100085E0184B18881321184B98471122064B1A70EE
S315100085F00E3A164B1A701620154B984710BDC046EA
S31510008600E4590110018C0010908F01108D8F01100C
S3151000861011D700107C5901103D4A0110FC59011068
S315100086201D490110D1E70010505A01105C5A011073
S31510008630645A0110BC5A011034900110919A00101E
S31510008640E85A0110928F0110FDE70010CF9001102B
S31510008650CD97001010B51122054B1A700548064B20
S3151000866098470648064B9847064B9847002010BD7A
S31510008670908F01107C5901103D4A0110205B0110AA
S315100086801D4901104D85001070B50F4B1B78202B1E
S3151000869015D102890D4B1A8021220B4B1A700C4EE4
S315100086A030000C4DA8470C480C4CA0473000A8478A
S315100086B00B48A047FA2252000A4B1A6001E00A4BF7
S315100086C09847002070BDC046908F0110C2900110CF
S315100086D07C5901103D4A0110545B01101D490110CF
S315100086E0845B0110888F01104D85001010B50E4B5C
S315100086F01B78212B14D122220B4B1A700B480C4BD2
S315100087009847012101200B4B98470B480B4B984774
S315100087100B480C4B9847012252420B4B1A6001E052
S315100087200A4B9847002010BD908F0110945B0110E2
S31510008730018C00101D9B00107C5901103D4A011040
S31510008740D85901101D490110888F01104D85001050
S3151000875010B584B02022174B1A70174B9847041E79
S3151000876007D01648164B98471648174B98472000BF
S315100087701EE000230293154B0193C823DB000093E0
S315100087800023002201210020114CA047041E07D10E
S315100087900A480B4B98470F480B4B9847002007E0A9
S315100087A00648074B984721000B48074B9847E2208D
S315100087B004B010BD908F011059CD00107C590110D6
S315100087C03D4A0110A85B01101D4901108F020000DF
S315100087D095E60010DC5B01100C5C011030B583B01F
S315100087E005001C4B1B78222B0AD1002109331A4A8B
S315100087F0D1540020194B984700210020184B984758
S31510008800144C112323701748174B98472278D2B26D
S31510008810164B1B78DBB2164908781649497B00902F
S315100088201548164CA047AB781A2B0BD0DAB21A2A79
S3151000883004D8052B06D0082B07D103E0292B01D02D
S315100088403B2B02D10E4B984701E00E4B9847002068
S3151000885003B030BD908F011034900110919A001022
S315100088601D9B00107C5901103D4A0110C08E01104D
S31510008870CF900110AC8F0110505C01101D490110F2
S31510008880518700104D85001010B582B001001231CD
S315100088900123019303001433009300230022024C9A
S315100088A0A04702B010BDC04659EF0010F0B54F46B4
S315100088B04646C0B483B09446012810D0002802D092
S315100088C0022819D025E0BB2350245325BE265A274B
S315100088D057201C2290461B3A0192914623E0EE2324
S315100088E050245325BE265A2757201C229046143A48
S315100088F00192063A914616E0112350245325BE26BE
S315100089005A2757201C229046083A0192113A91464E
S3151000891009E000230024002500260027002000225D
S315100089209046019291464A464A8202220A7042466F
S315100089304A708870CF700E714D718C71CB710B723D
S3151000894000234B728B72CB720B734B738B73CB737F
S315100089500B7412240C856246CA626A4692880A868D
S315100089604A861120342288548B6300228B87CB874A
S3151000897033300A5401300A5401300A5448228B52BB
S3151000898002328B5202328B520B6403B00CBC9046EF
S315100089909946F0BD10B5054B0122DA7058780023C0
S315100089A000220221024CA04710BDC046AC8F011018
S315100089B045D4001010B5054B01225A72D879002300
S315100089C000220221024CA04710BDC046AC8F0110F8
S315100089D045D40010084B00225A731A701F21597083
S315100089E01E399970DA705A7199711D20D8711972E1
S315100089F05A72DA727047C046AC8F011010B582B049
S31510008A0001AC2000204B984700232370023363707B
S31510008A10013BE3701D4B587821001D4B98470028E9
S31510008A2005D01C481C4B98471C481D4B984701AC59
S31510008A302000154B98470023237002336370013BC7
S31510008A40E370124BD8792100114B9847002805D0B6
S31510008A501048114B98471348114B984701AC20000A
S31510008A60094B984700232370637021001720084B89
S31510008A709847002805D00748074B98470A48084BDF
S31510008A80984702B010BDC0461DA40010AC8F01104F
S31510008A902DA400107C5901103D4A01105C5D011097
S31510008AA01D490110945D0110CC5D011070B5054D86
S31510008AB0687802220449054CA047E8790222044945
S31510008AC0A04770BDAC8F011095890010BDA700108E
S31510008AD0B589001010B50C00002804D10C4B58783D
S31510008AE00C4B984705E0012803D1094B58780A4BDF
S31510008AF09847002C04D1064BD879064B984705E0C9
S31510008B00012C03D1024BD879034B984710BDC046B0
S31510008B10AC8F01108DA80010E9A8001010B582B016
S31510008B206B46DA1D002313700D4C210000200D4BEF
S31510008B30984720000C4B9847041E07D00B480C4B47
S31510008B40984721000B480C4B984707E00748084BFD
S31510008B5098470A4B598C0A48074B984702B010BDE4
S31510008B60BC8F0110AD880010898800107C59011047
S31510008B703D4A0110B45E01101D490110AC8F011061
S31510008B80F85E011010B582B001AC2000154B984765
S31510008B900123237021000E20134B9847002805D07F
S31510008BA01248134B98471348134B984700210E2031
S31510008BB0124B984701AC20000A4B984701232370AB
S31510008BC021000F20084B9847002805D00748084B6E
S31510008BD098470848084B984700210F20074B98479D
S31510008BE002B010BD1DA400102DA400107C59011058
S31510008BF03D4A0110405F01101D490110E5A5001006
S31510008C0070B584B004000C480C4B98470C4B19787F
S31510008C100C4B18780C4B1D780C4B1E780C4A537B5A
S31510008C20127B0396029501900091210009480A4C87
S31510008C30A04704B070BDC0467C5901103D4A0110D2
S31510008C40908F0110C08E0110CF9001108C8F0110E3
S31510008C50AC8F0110605F01101D49011030B587B04F
S31510008C601020144CA047144B58601020A047134BEB
S31510008C70586001AC2000124B9847032323701B3316
S31510008C806380163B63600133E360073BA360236197
S31510008C900C4D0D4C01AA0D492800A0470028F9D10A
S31510008CA0084B1A682821535CDB07FCD40123137583
S31510008CB007B030BD91470110D8900110B89001103F
S31510008CC005830010C49001101D8300100030004071
S31510008CD0F8B506000C0017001D001C481C4B9847E1
S31510008CE0220031001B481C4B98471C4B1E807A1CD7
S31510008CF0D2B25A805B681C70002F19D0013FFFB2A8
S31510008D000137EF192C0001235E1B144D32192378FD
S31510008D1069688B546B68995C11480F4A9047013407
S31510008D20BC42F3D104E0013CA4B2002C04D109E00A
S31510008D300C4C0A4E0C4D0D4F31002800B847002838
S31510008D40F1D101E001204042F8BDC0467C59011026
S31510008D503D4A0110A05F01101D490110D890011065
S31510008D60CC5F0110E9030000C4900110B583001018
S31510008D70F0B5474680B41700984680B21D4B188050
S31510008D8001225A805B6819701B4B18805F801B4C40
S31510008D90184E1B4D03E0013CA4B2002C1FD031002D
S31510008DA01848A8470028F6D1144E134D164C03E068
S31510008DB0013EB6B2002E15D029001248A047002851
S31510008DC0F6D1002F11D000230B494A68D25C4046D9
S31510008DD0C2540133DAB29742F7D8002006E00120D8
S31510008DE0404203E00120404200E0002004BC9046CF
S31510008DF0F0BDC046D8900110B8900110E9030000EC
S31510008E00D9830010C49001109183001010B544232B
S31510008E10064AD35C002B08D001214523D1540023E8
S31510008E20002201311E20024CA04710BDC48E011035
S31510008E3045D4001010B582B001AC20000A4B9847FB
S31510008E400023237002336370013BE37021001E2060
S31510008E50064B9847002805D00548064B9847064804
S31510008E60064B984702B010BD1DA400102DA400108B
S31510008E707C5901103D4A0110D45F01101D490110A3
S31510008E8010B5022202491E20024B984710BDC0465B
S31510008E900D8E0010BDA7001010B582B06B46DA1DFE
S31510008EA0002313700E4C210002200E4B9847200011
S31510008EB00D4B9847041E07D00C480D4B98472100C0
S31510008EC00C480D4B984708E00848094B98477A23F9
S31510008ED00A4AD15A0A48084B984702B010BDC046F4
S31510008EE02C8F0110AD880010898800107C59011054
S31510008EF03D4A0110146001101D490110C48E011065
S31510008F005460011010B582B06B4607331A700122F7
S31510008F10014CA04702B010BDD18C0010F0B55F46D1
S31510008F2056464D464446F0B48FB003900591E3483B
S31510008F30E34DA847E348E44FB84780226B216920E8
S31510008F40E24EB0476420E24CA047E248B847DB48FF
S31510008F50A847E148B84701226B216920B047002293
S31510008F606C216920B047C820A047DA48B847D348D3
S31510008F70A847DA48B847002238216920B0470022AE
S31510008F8023216920B04700226B216920B0470022B7
S31510008F9024216920B04700226A216920B0470C229B
S31510008FA06A216920B0470F20A047CA48B847C3486E
S31510008FB0A847CB48B84701221A216920B04700229A
S31510008FC019216920B04700221B216920B0470022D1
S31510008FD01C216920B047BF48B847B848A847C148C0
S31510008FE0B84740226A216920B04778222321692098
S31510008FF0B0472820A047B748B847B048A847BA484E
S31510009000B847002223216920B0470BAC2300022267
S3151000901072216920B54DA84720780002637818435D
S315100090200C21B34B984783B20293002B42D00023F6
S31510009030984600279B469A46994600250BAC019305
S3151000904023000C2274216920A84EB04723781B02F6
S31510009050627813431BB2019A94469C44634601936B
S31510009060A3781B02E27813431BB2FF1823791B0265
S31510009070627913431BB29944A3791B02E279134315
S315100090801BB29844237A1B02627A13431BB29A448A
S31510009090A37A1B02E27A13431BB29B440135ADB28D
S315100090A0029BAB42CCD15346BA465A46E34616000B
S315100090B01F0006E000239846002700269B469A4686
S315100090C099468448804B98478A4C02995846A0473F
S315100090D00500029B9B4619005046A04782465946FA
S315100090E04846A047814659464046A04701905946F2
S315100090F03800A047029059463000A04704904B46CE
S31510009100002B03DD7C4B9C46E14403E08023DB010E
S315100091109C46E144019B5942CA1703231A40521830
S3151000912091109212D2B20BAC227061700299484221
S31510009130C1171940091888108912A170E070049E91
S315100091407142C81703405B1899109B122371617105
S31510009150132169205D4EB047627814216920B0470B
S31510009160A27815216920B047E27816216920B04708
S31510009170227917216920B047627918216920B047F2
S315100091805E4F0198B8475E4E5E49B047039B186024
S315100091900298B8475B49B047039B58600498B84794
S315100091A05849B047039B9860230002227721692013
S315100091B04E4EB046B04727783F0263781F43089754
S315100091C0230002227A216920B04726783602637876
S315100091D01E430996230002227D216920C047237869
S315100091E01B02617819430A9107AB00221A705A7054
S315100091F09A70002301249A0008A81258224201D01E
S3151000920007AA9C540133032BF5D1EA1704331A40ED
S315100092105219D210BF1A5246D01718405044C010D7
S31510009220361A4A46D21713404B44DA108B1A3A12A2
S31510009230D2B20BAC227007A90878074367703012B8
S31510009240A07048780643E6701812207189780B438F
S315100092506371772169201D4EB047627878216920A5
S31510009260B047A2787A216920B047E2787B2169203D
S31510009270B04722797D216920B04762797E21692025
S31510009280B0471E4E2800B0471F4CE2218905A04763
S31510009290059D28605046B047E2218905A0476860C1
S315100092A04846B047E2218905A047A8600FB03CBCEC
S315100092B090469946A246AB46F0BDC0467C59011071
S315100092C03D4A0110946001101D490110058F0010D0
S315100092D0899D0010D0590110A0600110B4600110D2
S315100092E0C8600110E4600110F8600110718D001063
S315100092F0FD1F01101121011000C0FFFF552801109C
S31510009300F9230110000003432D26011030B583B058
S3151000931001AC23000122024DA847207803B030BDCE
S31510009320718D0010F0B55F4656464D464446F0B472
S315100093309DB00390062200211AA8E04CA0470C22EB
S31510009340002117A8A0470C22002114A8A0470C2220
S31510009350002111A8A0470C2200210EA8A047002228
S3151000936019216920D64CA04702221A216920A0474C
S3151000937000221B216920A04702221D216920A04737
S3151000938000221C216920A047C8251AACCD4E230007
S3151000939006223B216920B04723781B0262781343CB
S315100093A01BB2149A944663441493A3781B02E27872
S315100093B013431BB2159A009294466344159323796E
S315100093C01B02627913431BB2169A009294466344A9
S315100093D016932300062243216920B04723781B02E7
S315100093E0627813431BB2179A944663441793A37873
S315100093F01B02E27813431BB2189A009294466344F8
S31510009400189323791B02627913431BB2199A00929F
S31510009410944663441993013DEDB2002DB7D1002453
S31510009420A94E14ADC8216059B047605117ADC82177
S315100094306059B047605104340C2CF2D1E0221C2143
S3151000944069209F4CA047E0221C216920A0471920C3
S315100094509E4B9847C8251AAC9A4E230006223B21EC
S315100094606920B04723781B02627813431BB2119A06
S31510009470944663441193A3781B02E27813431BB2FC
S31510009480129A009294466344129323791B026279CE
S3151000949013431BB2139A009294466344139323000A
S315100094A0062243216920B04723781B0262781343B2
S315100094B01BB20E9A944663440E93A3781B02E2786D
S315100094C013431BB20F9A0092944663440F93237969
S315100094D01B02627913431BB2109A0092944663449E
S315100094E01093013DEDB2002DB7D10024764E11AD8B
S315100094F0C8216059B04760510EADC8216059B047B8
S31510009500605104340C2CF2D100221C2169206C4CC1
S31510009510A04700221B216920A04719206B4B9847B2
S315100095200D2169206A4DA84704000E216920A8471D
S3151000953000900F216920A847049000216920A847B0
S31510009540059001216920A847069002216920A847A5
S315100095500790604B9A46200098475F4B994698476C
S315100095605E4E00225E4BB04702000B005D485E491E
S315100095705E4FB8475E4D00225E4BA8475E4CA04733
S3151000958008900098D047C8470022554BB0470200B4
S315100095900B0054485449B8470022564BA847A047D9
S315100095A009900498D047C84700224D4BB047020097
S315100095B00B004C484C49B84700224E4BA847A047D1
S315100095C00A900598D047C8470022454BB04702007D
S315100095D00B0044484449B8470022464BA847A047C9
S315100095E00B900698D047C84700223D4BB047020063
S315100095F00B003C483C49B84700223E4BA847A047C1
S315100096000C900798D047C8470022354BB047020048
S315100096100B0034483449B8470022364BA847A047B8
S315100096200D900024354B99462B4D314B9846344BB3
S315100096309A462A4F304E11ABE35814AAA058181A5E
S31510009640C847A84700222F4BC0470090019108AB8E
S31510009650E058A84702000B0000980199D047002255
S31510009660284BB847B047039B18519B46A3440EABF3
S31510009670E35817AAA058181AC847A8470022214B22
S31510009680C04700900191230008AA94466344D86805
S31510009690A84702000B0000980199D0470022194BE9
S315100096A0B847B0475B46D86004340C2CC3D11DB004
S315100096B03CBC90469946A246AB46F0BDD547011034
S315100096C0058F0010718D001011210110899D001059
S315100096D00D930010E52801103D450110F53C0110D1
S315100096E00000F03F295C8FC2F528F03FB50D011040
S315100096F0013801100078A440E545011055280110E5
S31510009700B92F01100000594070B5752169200B4B17
S31510009710984771280FD10A4E30000A4DA8470A48BB
S315100097200A4CA0470A480B4B98473000A8470A48EE
S31510009730A047002001E00120404270BD0D930010AB
S315100097407C5901103D4A0110446101101D49011058
S31510009750C88E0110259300106C61011010B5002100
S31510009760014B984710BDC046E5A5001010B5012164
S31510009770014B984710BDC046E5A5001010B582B044
S3151000978001AC20000A4B98470123237021001620B4
S31510009790084B9847002805D00748084B98470848B3
S315100097A0084B98471620084B984702B010BDC04684
S315100097B01DA400102DA400107C5901103D4A011063
S315100097C0986101101D4901106D97001010B50C4BD2
S315100097D0984700220B4B1A700B4B1B78DBB2022BEF
S315100097E002D0032B02D004E0642103E0C821490013
S315100097F000E0002101220120044B984710BDC0460D
S315100098005D9700101C910110CF900110FD9C001067
S31510009810064B002225215A5406315A5401395A54FE
S3151000982002395A5401315A547047C04634900110C7
S3151000983010B582B0054A1E2313701D3B0093044BCE
S3151000984004490548054CA04702B010BD24900110EC
S3151000985010900110D4900110E0900110CD9B0010D3
S31510009860F0B5574680B482B0374DA2232B70002333
S315100098706B70AB70354C03339A46009323002A0065
S3151000988033493448344FB847344E63781B02A278B4
S315100098901343F380A4232B705346009323002A000E
S315100098A02B492C48B84763781B02A278134333819F
S315100098B0A6232B705346009323002A0024492548DB
S315100098C0B84763781B02A27813437381A8232B70C1
S315100098D05346009323002A001D491E48B847637853
S315100098E01B02A2781343B381AA232B70534600930D
S315100098F023002A0016491748B84763781B02A27836
S315100099001343F381AC232B705346009323002A0094
S315100099100F491048B84763781B02A2781343338265
S31510009920AE232B705346009323002A00084909489A
S31510009930B84763781B02A27813437382002002B0E3
S3151000994004BC9246F0BDC046249001101090011040
S31510009950D4900110E0900110CD9B001034900110AE
S3151000996010B50A4B984700280DD1094B01225A70A1
S31510009970022425215C5403315A54002201315A54D1
S3151000998001315A5400E0102010BDC04661980010F5
S315100099903490011010B51748174B98471748184BB5
S315100099A0984701210120174B984701212523164A74
S315100099B0D154164B98470320154B9847154B98478B
S315100099C0002806D00B480C4B984713480C4B984769
S315100099D0FEE70D4B02212522995401245C701E3A94
S315100099E00E4B1A70013901200D4B98470D4B1C7008
S315100099F010BDC0467C5901103D4A01100C62011081
S31510009A001D490110D58A00103490011031980010AC
S31510009A10899D001061990010406201108C8F011011
S31510009A20919A00108D8F011010B582B06B46DA1D19
S31510009A30002313700D4C210001200D4B9847200078
S31510009A400C4B9847041E07D00B480C4B9847210027
S31510009A500B480C4B984707E00748084B98470A4BAA
S31510009A60D98F0A48074B984702B010BD6090011075
S31510009A70AD880010898800107C5901103D4A0110EC
S31510009A80F86201101D490110349001104063011055
S31510009A9010B50C00002807D002216523154AD154B1
S31510009AA01E20154B984706E000216523114AD15414
S31510009AB01E20124B9847002C10D0114B0321252243
S31510009AC0995401390632995400210E480E4B984785
S31510009AD00E4B984701220E4B1A700AE002212523DD
S31510009AE0074AD1540B4B98470B4B98470022084B0B
S31510009AF01A7010BDC48E01108DA80010E9A80010B0
S31510009B0034900110D5030000319C0010659C0010A4
S31510009B10C0900110599C0010859C001010B50C00C7
S31510009B20002803D100210630074B9847002C06D099
S31510009B3001212523054AD154054B984703E00021FE
S31510009B400720014B984710BDE5A500103490011071
S31510009B509599001030B58DB001AC2000134B984785
S31510009B601023237021001248124B984702AC200094
S31510009B70114B9847682323710023A3701133A360F8
S31510009B800D3BA3611322E260E361143A2261226263
S31510009B90133262616362094D220009492800094B9C
S31510009BA098472800084B98470DB030BDB59D00105A
S31510009BB0D4900110ED9D0010C19D0010E090011091
S31510009BC000700040BD9E00102D9E0010F0B583B0B1
S31510009BD004000D000092019308AB1E880122084F65
S31510009BE0B8473300019A00992000064EB047060088
S31510009BF0002229002000B847300003B0F0BDC0464F
S31510009C00A5A0001021A0001010B52823064AD35C89
S31510009C10002B08D001212923D15400230022023120
S31510009C204220024CA04710BD3490011045D40010BC
S31510009C3030B583B004000D006846054B98476B4657
S31510009C405D7001946846034B984703B030BDC0461B
S31510009C50E98000105D81001010B5014B984710BDCA
S31510009C60F980001010B50448044B9847802212055D
S31510009C70034B1A6010BDC046099C001045810010A8
S31510009C8000E100E010B5044B9847802109058023B8
S31510009C90024AD15010BDC0465181001000E100E0CB
S31510009CA010B588B001AC2000094B9847094BA3604A
S31510009CB000236370084A626163732000074B98475C
S31510009CC00020074CA0470120A04708B010BDC04691
S31510009CD009A1001080BA8C0190650000B1A1001096
S31510009CE08DA1001010B50400024B98472000024BBE
S31510009CF0984710BDB5A200108DA1001010B5140024
S31510009D00012806D0002802D0022804D005E01A2225
S31510009D1004E00C4A02E00C4A00E00122002901D1BD
S31510009D20FA2189000020094B18704A4300212000AF
S31510009D30074B98472000074B98478022D201064BC5
S31510009D401A6010BD9065000080BA8C018D8F0110CD
S31510009D5041A1001069A1001000E100E010B5014B0F
S31510009D60984710BD8DA1001010B50122044B9A70B2
S31510009D700023002201214020024CA04710BDC046FE
S31510009D802090011045D4001010B5010001220120C9
S31510009D90054B9847054C0120A0470028FBD1013000
S31510009DA0034B984710BDC046FD9C00102DA1001016
S31510009DB08DA100100C23037000234370837070472D
S31510009DC001230370002343708370C37081330371C2
S31510009DD0773B83600133C360013303610133436111
S31510009DE00B3B8361C36103624362704730B583B036
S31510009DF004000B7803704B7843708B78837001AD39
S31510009E002800074B984701232B7020782900054B13
S31510009E10984720780121044B984703B030BDC046BF
S31510009E201DA400102DA40010E5A500100368012242
S31510009E301A76704710B500230268137603680D4A28
S31510009E40934209D141200C4CA0472620A047382028
S31510009E50A0470120A0470BE0084A934208D14220B0
S31510009E60054CA0472720A0473920A0470220A0472D
S31510009E7010BDC046006000407DAD0010007000406F
S31510009E8010B50468094B9847094B9C4205D101202F
S31510009E90084CA0473820A04707E0074B9C4204D146
S31510009EA00220044CA0473920A04710BD359E001053
S31510009EB000600040E9B0001000700040F0B55F4649
S31510009EC04646C0B483B006008846150031600B7E46
S31510009ED0DB0701D500230B7630004A4B98473368D1
S31510009EE0494A934209D14120484CA0472620A04711
S31510009EF03820A0470120A0470BE0454A934208D1DD
S31510009F004220424CA0472720A0473920A0470220D4
S31510009F10A04701A83F4B98472C00083418239B46AE
S31510009F20AB4427002068431C11D02B78012B02D19B
S31510009F306A46137103E0002B01D16A461371C0B251
S31510009F4001A9354B9847398A3878344B98470434E9
S31510009F505C45E6D1EB78424613742B78012B00D181
S31510009F6013772B78002B01D14246137733682A7862
S31510009F7072712A78012A01D12A799A826A78042A7A
S31510009F8004D12421585C02435A5404E024215A5C1B
S31510009F90042082435A54AA78012A1AD0002A04D0DF
S31510009FA0022A0CD0032A1ED026E02422995C022015
S31510009FB081439954995C0138814399541CE02422B9
S31510009FC0985C022101439954995C0120814399546C
S31510009FD012E02422995C022081439954985C012155
S31510009FE00143995408E02422985C022101439954B4
S31510009FF0985C012101439954002003B00CBC904693
S3151000A0009B46F0BD819E00100060004021AA001002
S3151000A010007000401DA400102DA4001071A60010A1
S3151000A020F0B583B0046800266D46EE710735002C36
S3151000A03034D0002904D129008079287001270BE03B
S3151000A040002A05D01720002B29D00026002703E070
S3151000A050012600276A4607322825605DC007FCD412
S3151000A060207B207A002B14D000257842474170427D
S3151000A0704641207AC007FCD508782070207BC0079F
S3151000A080FCD5207910700135ADB2C9199219AB42C1
S3151000A090EFD1237ADB06FCD5002000E01F2003B0A9
S3151000A0A0F0BDC04610B50878002A03D00021044B35
S3151000A0B0984702E00121024B9847002010BDC04688
S3151000A0C0E5A5001010B50D4B1B7D002B07D0012206
S3151000A0D00A4B1A730A4B1B68002B00D0984734237F
S3151000A0E0064AD35C002B07D001212C23D154054BF3
S3151000A0F01B68002B00D0984710BDC04600100040CA
S3151000A10020740110247401100123037003730222BA
S3151000A11042704273837083730022C270C2730371DC
S3151000A12003748260426102767047C046002802D1ED
S3151000A130024B586801E0014B586A70470010004006
S3151000A140002807D1002902D1064B1A6009E0054BF9
S3151000A1509A6106E0002902D1024B1A6201E0014B16
S3151000A1609A63704700100040002805D1064A117AFC
S3151000A17080230B43137205E003492822885C802351
S3151000A18003438B547047C04600100040002805D189
S3151000A190064A117A7F230B40137205E003492822E1
S3151000A1A0885C7F2303408B547047C04600100040E4
S3151000A1B070B504000420394B98472378002B02D140
S3151000A1C0237B002B65D03649CA6820231343CB6006
S3151000A1D0227E8B690320024012012D3083431343E4
S3151000A1E08B612378002B26D063780121002B03D0B6
S3151000A1F0023B5D425D41A901A278520002252A4028
S3151000A200E3789B000A352B401A4315000D4323793A
S3151000A210002B01D020231D43224BA2681A601D7209
S3151000A2201F49C4225200885C012303438B5400202B
S3151000A2301D4B984700E00025237B002B29D0637B1C
S3151000A240002B05D0012B05D0022B04D1402502E0AE
S3151000A250012500E00025A37B5B0002211940E27B6B
S3151000A26092000C2313400B431D43237C002B01D07B
S3151000A27020231D4362690B4B1A6228229D540849FC
S3151000A2806132FF32885C022303438B540120064B54
S3151000A290984706491E20064B984770BDE9B0001036
S3151000A2A000B000400010004069A10010C5A00010C9
S3151000A2B051B50010002802D1024B196001E0024B83
S3151000A2C019607047207401102474011070B5164B74
S3151000A2D01D68298F89B2CB0707D4012301241800E2
S3151000A2E022009A40114214D001E00122002092B2BD
S3151000A2F02A8746230C4AD35A0341DB070CD544233D
S3151000A300D35A0341DB0707D58000101843689847D6
S3151000A31002E00133102BE2D180210904C0235B0037
S3151000A320024AD15070BDC0462091011000E100E0F4
S3151000A330F8B5184B9B6C1E8FB6B237000024760BFF
S3151000A3407603144D002E01D0134B9847220001239B
S3151000A350A3401F4213D09BB2A96C0B878E23EB5AD6
S3151000A3602341DB070BD58C230A49CB5A2341DB0744
S3151000A37005D5123292008A185368984702E00134C4
S3151000A380102CDFD180214904C0235B00034AD15031
S3151000A390F8BDC0462091011051BC010000E100E05B
S3151000A3A010B590231B4AD258138F9BB2D90414D4DC
S3151000A3B099040AD459040CD4DB0BDB039BB2002B93
S3151000A3C020D080231B020F210AE080239B010D2140
S3151000A3D006E08023DB010E2102E080235B010C21C5
S3151000A3E09BB21387D6230B4AD35A0B41DB0709D5E9
S3151000A3F0D423D35A0B41DB0704D5243189005118D5
S3151000A4004B68984780218904C0235B00024AD150CB
S3151000A41010BDC0462091011000E100E0002303703A
S3151000A420012242708370C3707047C04670B51723FF
S3151000A430012800D8C8E0072809D8644D6A6C103B7B
S3151000A44003409B0007249C40A2436A6429E00F281E
S3151000A45009D85E4DAA6C072303409B0007249C4035
S3151000A460A243AA641DE0172809D8584DEA6C0723A1
S3151000A47003409B0007249C40A243EA6411E00300BA
S3151000A4802C3B032B0DD8524D8224E4002A5D120773
S3151000A49001269E40120F2B5DB2430F26B343134382
S3151000A4A02B5503001D3B022B29D84B78012B08D1C5
S3151000A4B0474D2B7D1F24241A0122A24093432B754E
S3151000A4C008E0434C257D1F22121A012393402B438B
S3151000A4D0DBB22375CA780023002A75D03C490C8854
S3151000A4E01F22101A80000133834023439BB20B8036
S3151000A4F0384A117802230B431370002364E00A785C
S3151000A500002A40D10F2808D8012383409BB2324A33
S3151000A510938200231F2857D812E01F2807D80F222E
S3151000A5200240012393409BB22C4A938208E00F23EA
S3151000A53018400E3B83409BB2294A9382002343E086
S3151000A5404B78012B0CD0002B02D0022B10D03AE006
S3151000A5501E490A6D0123834013430B65002333E024
S3151000A5601A490B6D0122824093430B6500232BE0A1
S3151000A570164B596D0122824011435965196D91434D
S3151000A5801965002320E00023012A1DD10F2806D8C3
S3151000A590013383409BB2104A1382002314E01F2814
S3151000A5A008D80F2318400E3B83409BB20B4A1382E8
S3151000A5B0002309E00F2318400E3B83409BB2084A44
S3151000A5C01382002300E01723180070BD00B000406E
S3151000A5D000F0004000E00040000001400010014083
S3151000A5E00030014010B50F2810D8002907D01D4A99
S3151000A5F09188012383400B439BB2938031E0194924
S3151000A6008B880122824093438B802AE01F2814D81E
S3151000A610002909D014498C880F2210400123834049
S3151000A62023439BB28B801CE00F498B880F2210406E
S3151000A6300E3A824093438B8013E0002909D00B49D0
S3151000A6408C880F2210400123834023439BB28B80BA
S3151000A65007E006498B880F2210400E3A824093433A
S3151000A6608B8010BD000001400010014000300140F9
S3151000A67070B50D0AFF231940072833D84E4A546C7B
S3151000A680F83B03409B0007269E40B4435464546C29
S3151000A6900E009E40330023435364012900D08AE004
S3151000A6A003280FD81100D02252008C5803231840CB
S3151000A6B0C0003C3383409C438C508B5885401D43CF
S3151000A6C08D5078E03C49D22252008C580323184012
S3151000A6D0C0003C3383409C438C508B5885401D43AF
S3151000A6E08D5068E00F2832D8334A946C0723034004
S3151000A6F09B0007269E40B4439464946C0E009E40C3
S3151000A700330023439364012955D10B280FD8110028
S3151000A710D42252008C5803231840C0003C33834087
S3151000A7209C438C508B5885401D438D5043E02249E5
S3151000A730D62252008C5803231840C0003C33834065
S3151000A7409C438C508B5885401D438D5033E0172801
S3151000A75031D8194AD46C072303409B0007269E4024
S3151000A760B443D464D46C0E009E4033002343D364A8
S3151000A770012920D113280FD81100D82252008C5845
S3151000A78003231840C0003C3383409C438C508B58A5
S3151000A79085401D438D500EE0074ADA235B00D158E1
S3151000A7A003242040C0003C348440A143D150D158EA
S3151000A7B085400D43D55070BD00B00040F0B5002364
S3151000A7C00F2804D91F2484425B411D3CE31A012A39
S3151000A7D016D0002A04D0022A22D0032A30D03EE016
S3151000A7E0294EDC00E218D20097590F2505400122A8
S3151000A7F0AA4092B2BA85E418E400A459A2862EE0C3
S3151000A800214EDC00E218D20097590F25054001228F
S3151000A810AA4092B2BA85E418E400A45922861EE032
S3151000A820194EDC00E218D20097590F250540012277
S3151000A830AA4092B23A85E418E400A45922860EE0A2
S3151000A840114EDC00E218D20097590F25054001225F
S3151000A850AA4092B23A85E418E400A459A2860F22BF
S3151000A8601040094CDD00EA18520012189200A21886
S3151000A8705160EA18D200A21844320121814013888F
S3151000A8800B431380F0BDC0462091011030B50F2840
S3151000A89005D880221204124B1A6000220CE01F28E1
S3151000A8A005D8802252040E4B1A60012204E0802241
S3151000A8B092040B4B1A6002220F231840012181408B
S3151000A8C0084CD500AB18DB00E3184633188808434C
S3151000A8D01880AA18D200135989B2198430BDC046FF
S3151000A8E000E100E02091011030B500230F2804D9B3
S3151000A8F01F2282425B411D3AD31A0F2210400121BA
S3151000A9008140074CDD00EA18D200A21846321088A2
S3151000A91088431080EB18DB001B5989B2998430BD2F
S3151000A9202091011010B5114A1000D830002107E00F
S3151000A93002C39342FCD1518011804832824202D028
S3151000A9401300403BF4E70A4B0A4A1A600A4A9A6413
S3151000A9500A49902299500A4927200A4CA0470A49C9
S3151000A9602820A04709492920A04710BD649101104D
S3151000A97020910110000001400010014000300140FC
S3151000A980CDA2001051B5001031A30010A1A30010E4
S3151000A99001280DD0002802D002281CD02EE0184A1B
S3151000A9A090690C2303439361164A174B1A601AE0F9
S3151000A9B0134B9869082202439A619A6904208243CC
S3151000A9C09A61124A53688020000303435360104A69
S3151000A9D00D4B1A6007E00A4A93690C208343936172
S3151000A9E0084A094B1A60064B9A69032082439A61FA
S3151000A9F09A69014011439961002000E017207047C1
S3151000AA0000B0004080BA8C01F891011000F00040AF
S3151000AA1080841E00014B18687047C046F8910110DB
S3151000AA2000B5352800D9A2E18000D24B1B589F46AD
S3151000AA30D14AD16802230B43D360002098E1CE4A55
S3151000AA40D16804230B43D360002091E1CA4AD16830
S3151000AA5008230B43D36000208AE1C74AD16810232C
S3151000AA600B43D360002083E1C34AD16820230B43F4
S3151000AA70D36000207CE1C04AD16880230B43D360A9
S3151000AA80002075E1BC4AD368802149000B43D3608E
S3151000AA9000206DE1B84AD368802109010B43D360C9
S3151000AAA0002065E1B44AD368802149010B43D36085
S3151000AAB000205DE1B04AD368802189010B43D36041
S3151000AAC0002055E1AC4AD3688021C9010B43D360FD
S3151000AAD000204DE1A84AD368802109020B43D360B8
S3151000AAE0002045E1A44AD368802149020B43D36074
S3151000AAF000203DE1A04AD368802189020B43D36030
S3151000AB00002035E19C4AD3688021C9020B43D360EB
S3151000AB1000202DE1984AD368802109030B43D360A6
S3151000AB20002025E1944AD368802149030B43D36062
S3151000AB3000201DE1904AD368802189030B43D3601E
S3151000AB40002015E18C4AD3688021C9030B43D360DA
S3151000AB5000200DE1884AD368802109040B43D36095
S3151000AB60002005E1844AD368802149040B43D36051
S3151000AB700020FDE0804AD368802189040B43D3600E
S3151000AB800020F5E07C4AD3688021C9040B43D360CA
S3151000AB900020EDE0784AD368802109050B43D36085
S3151000ABA00020E5E0744AD368802149050B43D36041
S3151000ABB00020DDE0704AD368802189050B43D360FD
S3151000ABC00020D5E06C4AD3688021C9050B43D360B9
S3151000ABD00020CDE0684A116901230B431361002060
S3151000ABE0C6E0654A116902230B4313610020BFE0DA
S3151000ABF0614A116904230B4313610020B8E05E4AD1
S3151000AC00116908230B4313610020B1E05A4A1169F8
S3151000AC1010230B4313610020AAE0574A1169202321
S3151000AC200B4313610020A3E0534A116940230B43E1
S3151000AC30136100209CE0504A116980230B43136175
S3151000AC40002095E04C4A1369802149000B4313619B
S3151000AC5000208DE0484A1369802189000B43136157
S3151000AC60002085E0444A13698021C9000B43136113
S3151000AC7000207DE0404A1369802109010B431361CE
S3151000AC80002075E03C4A1369802149010B4313618A
S3151000AC9000206DE0384A1369802189010B43136146
S3151000ACA0002065E0344A13698021C9010B43136102
S3151000ACB000205DE0304A1369802109020B431361BD
S3151000ACC0002055E02C4A1369802149020B43136179
S3151000ACD000204DE0284A1369802189020B43136135
S3151000ACE0002045E0244A13698021C9020B431361F1
S3151000ACF000203DE0204A1369802109030B431361AC
S3151000AD00002035E01C4A1369802149030B43136167
S3151000AD1000202DE0184A1369802189030B43136123
S3151000AD20002025E0144A13698021C9030B431361DF
S3151000AD3000201DE0104A1369802109040B4313619A
S3151000AD40002015E00C4A117D01230B4313750020DA
S3151000AD500EE0094A117D02230B431375002007E00C
S3151000AD60054A117D04230B431375002000E01720BC
S3151000AD7000BDC0468C63011000B0004000B53528F8
S3151000AD8000D97DE18000BF4B1B589F46BE4AD36851
S3151000AD9002218B43D360002073E1BB4AD3680421A0
S3151000ADA08B43D36000206CE1B74AD36808218B43EC
S3151000ADB0D360002065E1B44AD36810218B43D36079
S3151000ADC000205EE1B04AD36820218B43D360002077
S3151000ADD057E1AD4AD36880218B43D360002050E100
S3151000ADE0A94AD168A94B0B40D360002049E1A64A75
S3151000ADF0D168A74B0B40D360002042E1A24AD1682C
S3151000AE00A44B0B40D36000203BE19F4AD168A24B74
S3151000AE100B40D360002034E19B4AD1689F4B0B4016
S3151000AE20D36000202DE1984AD1689D4B0B40D3602A
S3151000AE30002026E1944AD1689A4B0B40D36000203B
S3151000AE401FE1914AD168984B0B40D360002018E15E
S3151000AE508D4AD168954B0B40D360002011E18A4A88
S3151000AE60D168934B0B40D36000200AE1864AD16823
S3151000AE70904B0B40D360002003E1834AD1688E4B80
S3151000AE800B40D3600020FCE07F4AD1688B4B0B400F
S3151000AE90D3600020F5E07C4AD168894B0B40D36023
S3151000AEA00020EEE0784AD168864B0B40D360002034
S3151000AEB0E7E0754AD168844B0B40D3600020E0E090
S3151000AEC0714AD168814B0B40D3600020D9E06E4A9D
S3151000AED0D1687F4B0B40D3600020D2E06A4AD1681C
S3151000AEE07C4B0B40D3600020CBE0674AD1687A4B8D
S3151000AEF00B40D3600020C4E0634AD168774B0B4007
S3151000AF00D3600020BDE0604A136901218B431361B1
S3151000AF100020B6E05C4A136902218B4313610020BE
S3151000AF20AFE0594A136904218B4313610020A8E04E
S3151000AF30554A136908218B4313610020A1E0524A38
S3151000AF40136910218B43136100209AE04E4A13694E
S3151000AF5020218B431361002093E04B4A1369402153
S3151000AF608B43136100208CE0474A136980218B4381
S3151000AF701361002085E0444A1169444B0B4013616C
S3151000AF8000207EE0404A1169554B0B4013610020AA
S3151000AF9077E03D4A1169534B0B401361002070E076
S3151000AFA0394A11693A4B0B401361002069E0364A61
S3151000AFB01169384B0B401361002062E0324A116967
S3151000AFC0354B0B40136100205BE02F4A1169334B60
S3151000AFD00B401361002054E02B4A1169304B0B4093
S3151000AFE0136100204DE0284A11692E4B0B40136166
S3151000AFF0002046E0244A11692B4B0B4013610020B8
S3151000B0003FE0214A1169294B0B401361002038E0BB
S3151000B0101D4A1169264B0B401361002031E01A4A74
S3151000B0201169244B0B40136100202AE0164A11695E
S3151000B030214B0B401361002023E0134A11691F4B6B
S3151000B0400B40136100201CE00F4A11691C4B0B408A
S3151000B0501361002015E00C4A137D01218B431375F3
S3151000B06000200EE0084A137D02218B431375002041
S3151000B07007E0054A137D04218B431375002000E079
S3151000B080172000BD6464011000B00040FFFEFFFFF2
S3151000B090FFF7FFFFFFEFFFFFFFDFFFFFFFBFFFFF22
S3151000B0A0FF7FFFFFFFFFFEFFFFFFFDFFFFFFFBFF21
S3151000B0B0FFFFF7FFFFFFEFFFFFFFDFFFFFFFBFFF02
S3151000B0C0FFFF7FFFFFFFFFFEFFFFFFFDFFFFFFFB01
S3151000B0D0FFFFFFF7FFFFFFEFFFFFFFDFFFFFFFBFE2
S3151000B0E0FFFDFFFFFFFBFFFF00B5432800D923E25A
S3151000B0F08000E04B1B589F46DF4B59680222914354
S3151000B100596059680A435A60002016E2DA4B5968AA
S3151000B11004229143596059680A435A6000200CE290
S3151000B120D54B596808229143596059680A435A60A9
S3151000B130002002E2D04B5968102291435960596899
S3151000B1400A435A600020F8E1CB4B596820229143FC
S3151000B150596059680A435A600020EEE1C64B596897
S3151000B16040229143596059680A435A600020E4E12D
S3151000B170C14B596880229143596059680A435A60F5
S3151000B1800020DAE1BC4B5968BC4A0A405A605A683A
S3151000B190802149000A435A600020CEE1B64B596817
S3151000B1A0B74A0A405A605A68802189000A435A6091
S3151000B1B00020C2E1B04B5968B24A0A405A605A6838
S3151000B1C08021C9000A435A600020B6E1AA4B59688B
S3151000B1D0AD4A0A405A605A68802109010A435A60EA
S3151000B1E00020AAE1A44B5968A84A0A405A605A6836
S3151000B1F0802149010A435A6000209EE19E4B5968FE
S3151000B200A34A0A405A605A68802189010A435A6043
S3151000B210002092E1984B59689E4A0A405A605A6833
S3151000B2208021C9010A435A60002086E1924B596871
S3151000B230994A0A405A605A68802109020A435A609C
S3151000B24000207AE18C4B5968944A0A405A605A6831
S3151000B250802149020A435A6000206EE1864B5968E4
S3151000B2608F4A0A405A605A68802189020A435A60F6
S3151000B270002062E1804B59688A4A0A405A605A682F
S3151000B2808021C9020A435A60002056E17A4B596858
S3151000B290854A0A405A605A68802109030A435A604F
S3151000B2A000204AE1744B5968804A0A405A605A682D
S3151000B2B0802149030A435A6000203EE16E4B5968CB
S3151000B2C07B4A0A405A605A68802189030A435A60A9
S3151000B2D0002032E1684B5968764A0A405A605A682B
S3151000B2E08021C9030A435A60002026E1624B59683F
S3151000B2F0714A0A405A605A68802109040A435A6002
S3151000B30000201AE15C4B59686C4A0A405A605A6828
S3151000B310802149040A435A6000200EE1564B5968B1
S3151000B320674A0A405A605A68802189040A435A605B
S3151000B330002002E1504B5968624A0A405A605A6826
S3151000B3408021C9040A435A600020F6E04A4B596826
S3151000B3505D4A0A405A605A68802109050A435A60B4
S3151000B3600020EAE0444B5968584A0A405A605A6825
S3151000B370802149050A435A600020DEE03E4B596899
S3151000B380534A0A405A605A68802189050A435A600E
S3151000B3900020D2E0384B59684E4A0A405A605A6823
S3151000B3A08021C9050A435A600020C6E0324A536814
S3151000B3B05B005B0853605368802109060B4353609A
S3151000B3C00020BAE02C4B1A8901218A431A81198967
S3151000B3D001220A431A810020AFE0274B1A89022165
S3151000B3E08A431A81198902220A431A810020A4E08D
S3151000B3F0214B1A8904218A431A81198904220A4386
S3151000B4001A81002099E01C4B1A8908218A431A8157
S3151000B410198908220A431A8100208EE0164B1A89D0
S3151000B42010218A431A81198910220A431A81002091
S3151000B43083E0114B1A8920218A431A811989202207
S3151000B4400A431A81002078E00B4B1A8940218A435F
S3151000B4501A81198940220A431A8100206DE0064B91
S3151000B4601A8980218A431A81198980220A431A81EE
S3151000B470002062E03C65011000B00040FFFEFFFFB7
S3151000B480FFFDFFFFFFFBFFFFFFF7FFFFFFEFFFFFD4
S3151000B490FFDFFFFFFFBFFFFFFF7FFFFFFFFFFEFF87
S3151000B4A0FFFFFDFFFFFFFBFFFFFFF7FFFFFFEFFFB4
S3151000B4B0FFFFDFFFFFFFBFFFFFFF7FFFFFFFFFFE67
S3151000B4C0FFFFFFFDFFFFFFFBFFFFFFF7FFFFFFEF94
S3151000B4D0FFFFFFDFFFFFFFBF184B1989184A0A400D
S3151000B4E01A811989802252000A431A81002024E009
S3151000B4F0124B1989134A0A401A811989802292001F
S3151000B5000A431A81002018E00C4B19890E4A0A408A
S3151000B5101A8119898022D2000A431A8100200CE070
S3151000B520064B1989094A0A401A8119898022120183
S3151000B5300A431A81002000E0172000BD00B0004029
S3151000B540FFFEFFFFFFFDFFFFFFFBFFFFFFF7FFFF04
S3151000B5508023DB049C466044800001607047C0462F
S3151000B56070B5204B1C6823681D7DEDB26A0613D595
S3151000B5701E212222A1541A7E23318A431A762123B0
S3151000B580E35C1B0706D52023E35C1B0702D52000CE
S3151000B5902369984723681B7CEB0722D523681B7CFD
S3151000B5A0DBB262691370636901336361A38B013B7C
S3151000B5B09BB2A383A38B9BB2002B12D12133E35CE6
S3151000B5C05B070ED52023E35C5B070AD500222223F6
S3151000B5D0E2542268137E01218B431376E368200020
S3151000B5E0984770BDFC91011070B5214B1C682368FB
S3151000B5F01D79EDB2EA0717D5A2691178C9B20132E1
S3151000B600A2611970E38B013B9BB2E383E38B9BB280
S3151000B610002B09D12268137A01218B4313722268F9
S3151000B620117A10230B431372EB0612D52123E35C18
S3151000B630DB070ED52023E35CDB070AD50022222385
S3151000B640E2542268137A10218B4313722000636828
S3151000B6509847AB060AD52123E35C9B0706D5202322
S3151000B660E35C9B0702D5A3682000984770BDC046CF
S3151000B670FC91011070B5204B5C6823681D7DEDB2FE
S3151000B6806A0613D51E212222A1541A7E23318A431B
S3151000B6901A762123E35C1B0706D52023E35C1B07E0
S3151000B6A002D520002369984723681B7CEB0722D517
S3151000B6B023681B7CDBB262691370636901336361B3
S3151000B6C0A38B013B9BB2A383A38B9BB2002B12D1FE
S3151000B6D02133E35C5B070ED52023E35C5B070AD5B9
S3151000B6E000222223E2542268137E01218B43137613
S3151000B6F0E3682000984770BDFC91011070B5214B8E
S3151000B7005C6823681D79EDB2EA0717D5A26911782E
S3151000B710C9B20132A2611970E38B013B9BB2E3837C
S3151000B720E38B9BB2002B09D12268137A01218B433C
S3151000B73013722268117A10230B431372EB0612D57B
S3151000B7402123E35CDB070ED52023E35CDB070AD558
S3151000B75000222223E2542268137A10218B4313729B
S3151000B760200063689847AB060AD52123E35C9B0744
S3151000B77006D52023E35C9B0702D5A36820009847D3
S3151000B78070BDC046FC910110E1235B0203600023EB
S3151000B790037143718371C371023383600322C260E4
S3151000B7A001320261013242618361C3610362436205
S3151000B7B07047C046F8B54F464646C0B40500170058
S3151000B7C00160002343608360C3600361436183614A
S3151000B7D000228383C3832033C2540133C2540133FE
S3151000B7E0C254554B994218D10920544CA0470A20EF
S3151000B7F0A0470920524CA0470A20A047514B1D6074
S3151000B80051491020514CA04751491120A047514B86
S3151000B81001221A6001321A601AE04F4B994217D171
S3151000B8200B20464CA0470C20A0470B20444CA047A9
S3151000B8300C20A047434B5D6048491220434CA0475B
S3151000B84047491320A047434B04221A6004321A605A
S3151000B850FB7904229046002B52D1023398464FE0D2
S3151000B860318A01CEC0B2C8470134E4B24445F7D399
S3151000B8702B681A7DD20704D501211A7C1A7D0A423B
S3151000B880FBD1002120229954FB79591E8B41590175
S3151000B8903B797A7913430B43BA79022A0DD0D1B288
S3151000B8A0022902D8012A05D00FE0032A08D0042A5B
S3151000B8B009D00AE00222134307E00622134304E0EC
S3151000B8C00A22134301E00E221343202229688B54C7
S3151000B8D03E68244B984704003100234B984782B2A8
S3151000B8E00004000C7043201A3109884206D900233F
S3151000B8F00133DBB2401A8842FAD807E0002305E08C
S3151000B9003E0008360024194B9946A9E70021282045
S3151000B9102C68215401331B075B0FD20013439BB2D3
S3151000B9202A6893842B6819762B68197200200CBC30
S3151000B93090469946F8BDC04600400040E9B0001058
S3151000B94021AA0010FC91011061B5001051B500102C
S3151000B950E9B5001000E100E00050004075B6001097
S3151000B960FDB6001015AA0010FD1F011071A60010DB
S3151000B9700268012013790342FCD011700020704731
S3151000B98002680120137D0342FCD0137C0B7000204B
S3151000B9907047C0461723002A0DD00B33C35CDBB2A9
S3151000B9A0052B08D08283416105222223C2540368E5
S3151000B9B0043A1A76002318007047C0469300C3183D
S3151000B9C05960202101239340425C1343435470472E
S3151000B9D010B5212201238B40845C23438354012913
S3151000B9E004D10268117A20230B43137210BDC0468E
S3151000B9F010B501228A402124035D93430355012982
S3151000BA0004D10268137A1F318B43137210BDC046DE
S3151000BA10F0B5474680B40C00904600280DD1002A98
S3151000BA200EDD8F18084E094D306821002B68984797
S3151000BA300134A742F8D1404603E00120404200E01D
S3151000BA40002004BC9046F0BD0C9201100492011027
S3151000BA50F0B5474680B40E0015000138022811D8FB
S3151000BA60002A12D000240C4B98460C4F43461868F7
S3151000BA70315D3B689847002809DB0134A542F5D1B2
S3151000BA80200006E00120404203E0002001E00120F2
S3151000BA90404204BC9046F0BD0C9201100892011071
S3151000BAA010B50448044B98470448054B98470020A6
S3151000BAB010BDC0467C5901103D4A0110C0660110E8
S3151000BAC01D49011010B50078002806D00348044B14
S3151000BAD098470448044B9847E22010BD7C59011042
S3151000BAE03D4A0110DC6601101D49011010B50078A1
S3151000BAF0002806D00348044B98470448044B98473F
S3151000BB00E22010BD7C5901103D4A0110F06601106B
S3151000BB101D49011010B504000448054B984762886A
S3151000BB2021880448044B9847002010BD7C59011009
S3151000BB303D4A0110046701101D49011070B504003B
S3151000BB40C578002D08D10A480A4B9847A278218853
S3151000BB5009480A4B984708E00548064B9847A278CB
S3151000BB6021880748054B9847E225280070BDC04636
S3151000BB707C5901103D4A01103C6701101D49011006
S3151000BB806C67011070B50400C578002D08D10A48FD
S3151000BB900A4B9847A278218809480A4B984708E02B
S3151000BBA00548064B9847A27821880748054B9847C1
S3151000BBB0E225280070BDC0467C5901103D4A01108F
S3151000BBC0A46701101D490110E0670110F8B50600C1
S3151000BBD01D4C9B239B00E71825002300563B1A8813
S3151000BBE033889A4222D12378052B01D0082B02D113
S3151000BBF001232B701AE0072B0FD89B00134AD3583A
S3151000BC009F4600232370124B1B78002B0ED0104A30
S3151000BC101378013BDBB2137008E00E480E4B9847C1
S3151000BC2029780E480E4B984700232B707C34BC4263
S3151000BC30D2D10848084B98473288B1780948084B42
S3151000BC4098470020F8BDC046869201104C66011038
S3151000BC50949401107C5901103D4A01101C68011082
S3151000BC601D4901103468011010B50448044B98475B
S3151000BC700448054B9847002010BDC0467C5901105A
S3151000BC803D4A0110646801101D490110F8B50600FF
S3151000BC900188284B00241A898A4204D11A005E3280
S3151000BCA01278062A2ED00134E4B27C33052CF2D158
S3151000BCB039E0204963011A1B92008A181576140080
S3151000BCC05E34072323701C481C4B98471C481D4B99
S3151000BCD09847E2252BE01848184B98471A48194BF5
S3151000BCE09847144963011A1B92008A1810005E3097
S3151000BCF008270770F0781075B2781C1BA4000C1971
S3151000BD00227614E0B578002DE5D0D2E70A4E300041
S3151000BD100A4DA8470C480B4CA0473000A8470B48C3
S3151000BD20A047E22503E0B578002DC2D1EEE7280042
S3151000BD30F8BDC046289201107C5901103D4A0110E9
S3151000BD40806801101D49011094680110B86801102F
S3151000BD5030B585B004001F4B1B78DBB2132B24D8EB
S3151000BD601C4D2B78DBB29800C018C000C3181A48B7
S3151000BD70181829222100194B98471948194B98472A
S3151000BD802978C9B2A379E279A0780390E078029075
S3151000BD9020790190607900901348144CA0472B78B5
S3151000BDA00133DBB22B70002311E00D480D4B984781
S3151000BDB00F480E4B98470F4B9847E223002806D0A2
S3151000BDC00748084B98470C48084B9847E223180039
S3151000BDD005B030BD0C7D01100C950110C347011044
S3151000BDE07C5901103D4A0110E06801101D490110EF
S3151000BDF01C690110DDE7001054690110F0B55F46AB
S3151000BE0056464D464446F0B483B005004188594B1A
S3151000BE1000241A898A4205D11A005E321278032A42
S3151000BE2000D19AE00134E4B27C33052CF1D157E00D
S3151000BE3021783000B84701344C45F9D14E484F4B64
S3151000BE4098474F484F4B98472E0022362C003234D5
S3151000BE504C4F31784C48B8470136A642F9D146487E
S3151000BE60464B98474948474B984742352F00464E10
S3151000BE70444D21783000A8470134BC42F9D171E015
S3151000BE8063011C1BA4003B4B1C195E342378012B49
S3151000BE9015D93948394B98473D483A4B98476888E1
S3151000BEA013213C4B9847019000285BD03248334B06
S3151000BEB098473948334B9847E223019352E00023C1
S3151000BEC001934FE02C4E30002C4DA84733482D4C93
S3151000BED0A0473000A8473248A047E223019341E02B
S3151000BEE02B79002BCCD1EDE72348244B9B46984762
S3151000BEF02A48244B9A4698472A781E4B984667013B
S3151000BF003B1B9B0043441A752A791A765E33052229
S3151000BF101A70381B8000404436300B32290022310B
S3151000BF20204B99469847381B8000404446301722CC
S3151000BF3029003231C847381B800040441A30AC1DE6
S3151000BF401C222100C8470C48D8471748D04716234B
S3151000BF509946A9440C4E0B4F6AE72B790193002B97
S3151000BF60C2D08DE7019803B03CBC90469946A246D4
S3151000BF70AB46F0BD289201107C5901103D4A0110C4
S3151000BF80786901101D4901106C6901108069011052
S3151000BF9088690110FDE70010A8690110C469011035
S3151000BFA0F0690110C3470110206A011010B500880E
S3151000BFB0782301220121024CA047002010BDC04663
S3151000BFC01DE80010F0B557464E464546E0B484B01D
S3151000BFD004000922002101A86A4B984725886A495E
S3151000BFE00A0000231089A84216D110005E3000788E
S3151000BFF0022811D164485A01D61AB60086195E363F
S3151000C00006223270F93213405A01D21A920082185F
S3151000C010127DD00705D41BE001337C32052BE1D10C
S3151000C0201EE0E078002813D05901C91A8B00564932
S3151000C030C9181A312088554B9847002800D19BE023
S3151000C0405348544B98475448544B9847E22093E032
S3151000C0505A01D31A9B004C4AD3185E3302221A7027
S3151000C06025880022002316000889A8420DD1080051
S3151000C0705E300078022808D15201921B9600424A7F
S3151000C08092195E320321117005E00133DBB20132E1
S3151000C0907C31052BE7D101AAE1789170012151700D
S3151000C0A0033111701F005A01D21A92003649525CA0
S3151000C0B0022A04D101AA03219171D17103E001AAC8
S3151000C0C001219171D17101AA1021517111717A0159
S3151000C0D0D21B92002C498A18127E402A34D15A015A
S3151000C0E0D31A9B009A461E00603676185546683558
S3151000C0F06D182B4B99460F239846C8474346184050
S3151000C1003070C84743461840B0740136AE42F4D179
S3151000C110564670361C4AB618214B99460F23984638
S3151000C120C8474346184028700135B542F8D11C4B14
S3151000C13098477B01DB1B9B00134AD3181A007032F9
S3151000C14010807A3310221A707A01D71BBF0060371D
S3151000C1500D4ABA182088002301A9124CA0470028BE
S3151000C1600AD001AB00229A705A700948094B9847B9
S3151000C1700D480A4B9847E22004B01CBC90469946DD
S3151000C180A246F0BDD5470110289201106DF300109C
S3151000C1907C5901103D4A0110286A01101D490110F1
S3151000C1A0514A011081F10010406A0110F0B55F4646
S3151000C1B056464D464446F0B485B080460488544AE7
S3151000C1C0002100231089A0420DD110005E300078A6
S3151000C1D0022808D14A01521A95004D4A52195E3268
S3151000C1E00321117005E00133DBB201317C32052BDE
S3151000C1F0E8D101AA002111729170517003201070BC
S3151000C200D1701E005A01D21A92004149525C022A7C
S3151000C21004D101AA03219171D17103E001AA012170
S3151000C2209171D17101AA1021517111717201921B74
S3151000C230920037498A18127E402A42D15F01FB1AB2
S3151000C2409B009B461C00603464185D4668356D186B
S3151000C2502700304B9A460F239946D0474B46184035
S3151000C2603870D0474B461840B8740137AF42F4D1F6
S3151000C2705B467033264FDF19264B9A460F23994695
S3151000C280D0474B46184028700135BD42F8D1224898
S3151000C290224B98472248234B9847224D2178224813
S3151000C2A0A8470134BC42F9D11A4B984773019B1B1E
S3151000C2B09B00174AD3181A00703210807A33102256
S3151000C2C01A701548154B98471848164B984773011E
S3151000C2D09B1B9B0060330E4A9A184346188800230E
S3151000C2E001A9134CA04700280AD001AB00229A706E
S3151000C2F05A700948094B98470E480A4B9847E2204E
S3151000C30005B03CBC90469946A246AB46F0BDC04629
S3151000C31028920110514A01107C5901103D4A011012
S3151000C3206C6A01101D4901107C6A0110846A0110A3
S3151000C33081F10010A06A0110F0B585B00500062243
S3151000C3403D4902A83D4EB04701AC04222900200009
S3151000C350B047E378002B62D139483A4B98473A48B0
S3151000C3603A4B984700263A4CFF271E20A047C3B2E7
S3151000C370002B1AD1324F3800324EB0473548334C65
S3151000C380A0473800B0473448A04728881321334BBC
S3151000C39098470300E220002B4CD02948294B984798
S3151000C3A02F482A4B9847E22044E01A00303A092ACF
S3151000C3B0DBD802AAB35438402A4B98470136062ECA
S3151000C3C026D0D2E71E481F4B984727481F4B984741
S3151000C3D00024244E02ABE05CB0470134062CF9D1A0
S3151000C3E001AB9978288802AA204B9847002821D0BB
S3151000C3F01348144B98471E48144B9847002019E0D1
S3151000C4000F48104B98471B48104B9847002011E0D7
S3151000C4100B480C4B984718480C4B9847D8E701AB7C
S3151000C4205A8880235B009A42CCD001AB9B78012BB3
S3151000C430E6D0002005B0F0BD88660110C347011094
S3151000C4407C5901103D4A0110C86A01101D4901109E
S3151000C45099CF0010F06A0110FC6A0110FDE7001078
S3151000C460A869011051490110106B0110B1F20010AA
S3151000C470486B0110606B01107C6B0110F0B55F46C4
S3151000C48056464D46E0B406000088494B002200246B
S3151000C4901989814237D119005E310978012932D9BB
S3151000C4A0434F53019D1AAD007D195E3506232B703F
S3151000C4B04048414B9A46984731884048404B9946E8
S3151000C4C098473C48D04763011B1B9B00FF187023FD
S3151000C4D09B46BB445B4619883A48C8473548D047FF
S3151000C4E0798D3948C8473348D04771883748C84787
S3151000C4F03048D04721003648C8475B461A887388AB
S3151000C5009A422AD106E00134E4B201327C33052C7A
S3151000C510BED122E06101091B8900254B59187231E1
S3151000C520301D08222B4B9847002816D12148224B44
S3151000C53098472948224B98476201131B9B0060338A
S3151000C5401B495B18121B92008A18117D3088012234
S3151000C550224CA047041E1ED015E0164F3800164E6A
S3151000C560B0471F48164DA8473800B0471D48A84782
S3151000C57063011C1BA4000E4B1C19208905211A4BA4
S3151000C5809847E2240DE00B480B4B984717480C4B85
S3151000C5909847002405E00748074B98471448084B6E
S3151000C5A0984720001CBC91469A46A346F0BDC0464B
S3151000C5B0289201107C5901103D4A0110906B011010
S3151000C5C01D490110BC6B0110D06B0110E46B0110FA
S3151000C5D0F46B0110A5470110046C0110E5F300106F
S3151000C5E0186C0110506C0110FDE70010A86C0110BA
S3151000C5F0C86C011030B5002A47D0062947D88900E3
S3151000C600284B5B589F46284B05240AE0274B0124EC
S3151000C61007E0274B052404E0264B012401E0264BB6
S3151000C6200524002816D1196800290BD106E01D0033
S3151000C6300433181F0068002806D100E01D002A6088
S3151000C64001212CE0043300210131C9B2A142EED3FD
S3151000C650002124E00021012821D119688A420CD139
S3151000C66006E01D000433181F0068824207D100E05F
S3151000C6701D0000232B60012111E00433002101313C
S3151000C680C9B2A142EDD3002109E0002107E0002143
S3151000C69005E00A4B0524C4E7094B0124C1E708004D
S3151000C6A030BDC0466C660110149201101092011034
S3151000C6B0989401104C9A0110AC940110C09401107A
S3151000C6C008950110F0B55F4656464D464446F0B4FF
S3151000C6D091B0050000247E4B1C60072200217D4886
S3151000C6E07D4EB047122200217C48B0477C4A00217B
S3151000C6F07C48B0477C4B1C70CD22920000217B48B1
S3151000C700B0477B4B1C708322920000217948B047BA
S3151000C710794B9B468023DB009A461A000021584627
S3151000C720B047764B994680235B0198461A00002144
S3151000C7304846B047724F1C2200213800B0475B466E
S3151000C740BB605346FB604B463B6143467B616D4B7A
S3151000C7501C605C609C60DC601C616B4B1C605C60E8
S3151000C7609C60DC601C61694B1C605C609C60DC60DA
S3151000C7701C61674B1C60674B1C60674B1C605C60E0
S3151000C7809C60DC601C61654B1C60654C9B239B00A8
S3151000C7909846A044504F40267C2200212000B847DE
S3151000C7A023005E3300221A7026767C34A045F3D11E
S3151000C7B05C4B1A70524C4A4B63604A4B23605A4882
S3151000C7C05A4B98475A485B4B984720005A4B984704
S3151000C7D000280BD0544E3000544DA8475748554C9E
S3151000C7E0A0473000A8475648A047FEE7554A002103
S3151000C7F00020554CA047554A02210020A047092188
S3151000C8005348544B9847002805D04748474B9847FC
S3151000C8105148484B984707225049083104A8504BB5
S3151000C82098472622002106A82B4B9847002D0CD19D
S3151000C83004A84C4B984704AD002806D03A483B4B09
S3151000C840984749483B4B984704AD3748374B98476C
S3151000C8502B796A79A9792878039068780290A87854
S3151000C8600190E87800904148324CA04706AC0A2364
S3151000C87023703F4B63800722290007A8384B98473F
S3151000C8800023E37623776377A377E37723846384A0
S3151000C89080239B00A3842000364B9847002805D0A0
S3151000C8A02148224B98473448224B98472800334B4F
S3151000C8B09847002805D01C481C4B984730481D4BFC
S3151000C8C0984711B03CBC90469946A246AB46F0BD7F
S3151000C8D0087D0110107D0110D5470110D494011068
S3151000C8E0E2040000287801100C7D01100C9501104F
S3151000C8F0049501104098011028740110187D01103C
S3151000C900E8940110AC940110C09401101492011017
S3151000C9100895011010920110989401104C9A01106C
S3151000C92028920110949401107C5901103D4A01106F
S3151000C930E46C01101D49011009E40010086D011086
S3151000C940346D0110E0700110F5C5001098660110E5
S3151000C9507C6D011021E30010886D011088660110AE
S3151000C960C347011055E30010A06D0110CC6D0110E6
S3151000C970983A000079E300101C6E0110BDE5001016
S3151000C980586E011010B5002200210A4B9847041E5C
S3151000C99006D10948094B984709480A4B984706E0BB
S3151000C9A00548064B98470848064B9847E22420004E
S3151000C9B010BDC0462DF300107C5901103D4A0110E0
S3151000C9C0A86E01101D490110CC6E0110F0B55F461E
S3151000C9D04E464546E0B49AB00500867A002E00D041
S3151000C9E0CCE07848784FB8472B796A79A979687876
S3151000C9F00290A8780190E87800907448744CA0478B
S3151000CA007048B84729897348A047122229007248EE
S3151000CA10724B98470495072229007148714B984725
S3151000CA20002800D1B3E02B78022B00D0AFE05022C3
S3151000CA30002106A86C4B98476C4F00230BE0591C3D
S3151000CA40147806A8C45401328BB2B342F7D17C379E
S3151000CA50331E502B04D01E001036B6B23A00EEE745
S3151000CA6006AA29000520624B9847061E06D155488E
S3151000CA70554B98475F48564B98479CE05148524B48
S3151000CA8098475D48524B9847E22694E0E7B20594E2
S3151000CA90072204994846D847002809D1059A530118
S3151000CAA09B1A9A00554B9B185E3302221A702BE084
S3151000CAB001347C239C46E144052CE7D172E01C002E
S3151000CAC0117800291AD101E0002400276301994644
S3151000CAD0181B8000494B98464044122229003F4BB0
S3151000CAE09847474A13780133DBB213704B461B1B2A
S3151000CAF09B0043445E3302221A7005E0791CCFB2C4
S3151000CB0001337C32052FDAD1072229003448354B00
S3151000CB10984700280CD17B01DB1B9B00374AD318A2
S3151000CB2005229A74023200212D482F4B984742E075
S3151000CB30324B98467C01E31B9B0043440A229A74AD
S3151000CB40033A00212648284B9847E41BA400444486
S3151000CB50A37C0A2B2FD10DE01A481B4B9847284B64
S3151000CB601978C9B227481A4B984728891321264B9A
S3151000CB70984720E02889254B98471CE01148124B0E
S3151000CB809847A97A2248124B9847002613E01C4B67
S3151000CB901B78DBB2042BDFD8184B99460024114BB7
S3151000CBA09B4673E75E23154AD35C002B8CD0194A3B
S3151000CBB00123012783E730001AB01CBC9046994622
S3151000CBC0A346F0BD7C5901103D4A0110EC6E0110D0
S3151000CBD01D490110306F0110D4940110C347011084
S3151000CBE0107D0110A5470110D54701106E92011056
S3151000CBF029E80010486F01106C6F0110289201107F
S3151000CC0094940110906F0110FDE7001085C9001073
S3151000CC10CC6F011002930110F0B5474680B403782B
S3151000CC20002B52D13E4D0024461C3E4F10222900A7
S3151000CC303000B847002831D00134E4B27C35052CD9
S3151000CC40F4D142E01D00117800291BD101E0002526
S3151000CC500024354B98466E01771BBF0047441222BD
S3151000CC6032493800324B9847324A13780133DBB2D7
S3151000CC7013705E3702233B70751BAD0045440833B5
S3151000CC80AB7431E00134E4B201337C32052CD9D1D6
S3151000CC903AE0264B1889284B98473CE02748284B02
S3151000CCA098472848284B98471F4863011A1B92003B
S3151000CCB0821811005E3102250D700A219174100040
S3151000CCC012221A491A4B98470EE01C481C4B9847DB
S3151000CCD01E481D4B98475E23134AD35C002BB6D0D3
S3151000CCE01B4A01230124ADE71448154B9847210030
S3151000CCF01848154B984763011C1BA4000A4B1C19B6
S3151000CD00A37C0A2B07D1C4E70C480D4B9847052185
S3151000CD1010480D4B9847002004BC9046F0BDC04605
S3151000CD206E920110A547011028920110D49401109B
S3151000CD30C34701109494011085C900107C59011045
S3151000CD403D4A0110F46F01101D4901100C700110BD
S3151000CD50029301102870011010B590B008AC032290
S3151000CD6062700223A3701633E3702271637101326D
S3151000CD70A271E3710B32227263720F3B2370053A74
S3151000CD80A272E3720BAA164B03CB03C21B78137065
S3151000CD9000236A461370153353701248124B984786
S3151000CDA01248134B984707236A461370F83353708B
S3151000CDB0062210496B46981C0F4B984708236A4663
S3151000CDC0152120000D4CA047002805D00548064B1C
S3151000CDD098470B48064B9847002010B010BDC04628
S3151000CDE07C6D01107C5901103D4A011080700110B4
S3151000CDF01D490110B4700110C347011011E600104F
S3151000CE00BC70011010B50E4B1B78012B0BD10222F2
S3151000CE100B4B1A700B4B1B68002B10D102210A48C2
S3151000CE200A4B98470BE0074B1B68002B07D0084CA2
S3151000CE3020789847012221000348064B984710BDD9
S3151000CE401C8D0110248D0110509A0110F1B900109B
S3151000CE50208D011095B9001070B506000D00034C19
S3151000CE6029003000A0470028FAD170BD81B9001002
S3151000CE7070B506000D00034C29003000A0470028AD
S3151000CE80FAD170BD71B9001070B500210020194B90
S3151000CE909847194C2000194B9847E1235B022360F1
S3151000CEA00223A3600322E260013222610132626131
S3151000CEB0A361E36123626362114D124B1D60124A36
S3151000CEC0124B1A60124A134B1A602200124928009C
S3151000CED0124B9847124E336898680021114CA047A0
S3151000CEE0336858680021A04702220F4928000F4BCB
S3151000CEF0984770BD91A90010749A011089B7001057
S3151000CF00509A01100C92011071CE00100892011067
S3151000CF1059CE00100492011000400040B5B7001021
S3151000CF20F8730110ED4A011005CE0010BDB90010BE
S3151000CF30F0B583B005000D4CA047A0470C4FB8477D
S3151000CF400C4E0D4A0D4BB04700900191FA2080000F
S3151000CF506843B84702000B0000980199B047084B88
S3151000CF609847084B186003B0F0BDC04615AA0010CC
S3151000CF70CD44011001380110C7AEFE19EFD8093F94
S3151000CF80BD230110188D0110024B1A68501E18602F
S3151000CF907047C046188D011070B504000122114B60
S3151000CFA01A70114B1B68002B03D102210F48104B2E
S3151000CFB0984720000F4B98470F4900230B7001220A
S3151000CFC00A480E4B9847074C0D4D2378022B02D07A
S3151000CFD0A8470028F9D10022024B1A70064B187880
S3151000CFE070BDC0461C8D0110248D0110509A011081
S3151000CFF0D1B9001031CF0010208D011095B9001055
S3151000D00089CF0010024B1A68026018607047C0463C
S3151000D0102C8D011030B50B4B1C68002C11D02568D7
S3151000D0201D6000232360A160E280A080064B1A6871
S3151000D030002A02D11C6004E01A001368002BFBD1F1
S3151000D040146030BD2C8D0110288D011070B5002391
S3151000D050064A1360064A1360064C26007836064DBB
S3151000D0602000A8470C34B442FAD170BD2C8D0110A3
S3151000D070288D0110308D011005D0001070B50400F8
S3151000D080134B1D68134B1B6898470C2C1FD00C3C78
S3151000D090E388052B1BD0EB0714D40F4B1B6802201B
S3151000D0A098470E4B1B6898470D4C032023689847EA
S3151000D0B00028FAD10B4B1B680230984701220A4B05
S3151000D0C01A6004E0094B1868094B1B68984770BD35
S3151000D0D0ECB10040D88D0110D08D0110E48D0110F7
S3151000D0E0B88D0110C08D011020B00040C48D011004
S3151000D0F0B48D011010B5064B064A196811605A68AE
S3151000D100054B1A60054B1B68002B00D0984710BDC5
S3151000D1109C9A01100CB0004010B00040789D011090
S3151000D12070B5322200210D480D4B984700210B484F
S3151000D130012502244A001154821853782B43DBB27E
S3151000D140A343537001311929F4D1044B5A78183975
S3151000D1508A435A70DA788A43DA7070BDB89A011029
S3151000D160D5470110064A1168064B0B401360064A54
S3151000D170136006490868064B03400B6053607047FE
S3151000D1800CB00040D30FFEFF9C9A011010B0004067
S3151000D190C0E7FFFFF0B557464E464546E0B44F4B45
S3151000D1A01B78002B04D04D4B1B78012B00D18CE043
S3151000D1B04B4B98474B4B9847002398464A4B424651
S3151000D1C01A604A4C8023802212049246E250802232
S3151000D1D052049146E250464D464B2B60464B474A09
S3151000D1E013604749474A1160474A1168474A116018
S3151000D1F0474A1168474A11604749484A11604849E9
S3151000D200484A1160484F494A3A604949494A1160AB
S3151000D21049494A4A11604A4E4A4A32604A494B4A7B
S3151000D22011604B494B4A11604B494C4A11604C49AD
S3151000D2304C4A11604C494D4A1160282098474C4978
S3151000D24028202B6898472B684A49272098474A4B2D
S3151000D2501A684A4B1A604A4A4A4B1A604A4A4B4B5A
S3151000D2601A604B4A4B4B1A604B4A4C4B1A604C4A4D
S3151000D2704C4B1A604C4A4D4B1A604D4A4D4B1A6036
S3151000D280A022920000214C484C4B984780229200D5
S3151000D2904B4B1A804B4B9847534623604B462360A3
S3151000D2A0494B42461A603B68484A1A603368484AF6
S3151000D2B01A600020474CA0470120A0470220A04733
S3151000D2C00122064B1A70002003E00122034B1A704C
S3151000D2D001201CBC90469946A246F0BDBC8D01109B
S3151000D2E021D1001065D10010DC8D011000E100E0A5
S3151000D2F06C9D0110D7070000BD070000A89A011009
S3151000D30051BC0100709D0110BC000410B08D0110BD
S3151000D310B8000410AC8D01109FB90100A49A011039
S3151000D320DBB90100B09A0110809D01103C00041079
S3151000D330C01F0410B49A0110C41F04107C9D011064
S3151000D340749D0110D41F0410D81F0410AC9A01103C
S3151000D350E9CB0100D08D01108FCD0100C08D0110D9
S3151000D360A3CE0100E48D0110CFCB0100B88D0110C2
S3151000D3701DD80010B1D70010E4000410D88D01108C
S3151000D380E99F0100E88D0110DDDB0100B48D01106D
S3151000D3905BDC0100C88D0110EC050410C48D011072
S3151000D3A0E3D50100D48D0110200C0410EC8D011072
S3151000D3B0099F0100A88D0110EC9A0110D5470110A4
S3151000D3C0849D01104DD00010789D0110F5D00010ED
S3151000D3D079D8001061D80010044B1A780523012A59
S3151000D3E002D1034B1860002318007047BC8D011042
S3151000D3F0DC8D011070B504000E4B1B68002B02D09B
S3151000D400408898476080E388A288618820880A4D02
S3151000D4102D68A8470500E288002A02D1074B9847D5
S3151000D42006E021000831064B98472800034B984721
S3151000D43070BDC046B08D0110E88D01107DD0001072
S3151000D440C347011070B515001C000A0202430A4BAF
S3151000D4501E6823000521A020C000B047061E0AD072
S3151000D460002C05D0002D03D022002900034B98472D
S3151000D4703000034B984770BDE88D0110C34701106B
S3151000D4807DD00010F0B55F4656464D464446F0B482
S3151000D49087B0441E00239946E31C1CD80D22002198
S3151000D4A002A8824B9847332302AA1370303B53705D
S3151000D4B093700233137193711472230A5372230CEF
S3151000D4C09372240ED472012313730D211000784B1E
S3151000D4D098470123994600240025764F764E7749C2
S3151000D4E0386833689847002800D088E0734B1C686A
S3151000D4F0A3889A46CD239B009A4500D1C7E023897D
