S0170000534D535F7065726970686572616C312E737265635E
S3151000800010B5184B184A9A4203D0184B154A9A4283
S3151000801004D3174B174A9A4210D31EE0164B134A35
S315100080200332D21A92080132920000230D480E49EB
S31510008030CC58C45004339342FAD1EAE70F4B0C499B
S315100080400331C91A8908013189000023094C00201F
S315100080501A19106004338B42FAD1094B9847094B11
S31510008060984710BD04780110047801107478011037
S3151000807068A701107478011008780110787801103B
S3151000808045530110ADDD001010B5064C2378002BBA
S3151000809007D1054B002B02D0044800E000BF012396
S315100080A0237010BD747801100000000004780110D0
S315100080B0084B10B5002B03D00749084800E000BF55
S315100080C007480368002B00D110BD064B002BFBD0D0
S315100080D09847F9E70000000078780110047801103D
S315100080E00478011000000000012303704370FA2386
S315100080F0DB0143607047C046064B00225A601A687F
S3151000810003218A431A6019008022D2010B68134298
S31510008110FCD1704700D00040024A116810230B436F
S315100081201360704700D0004010B5044B9847044BBD
S315100081301B68002B00D0984710BDC046198100104F
S3151000814090780110014B18607047C0469078011066
S315100081500022014B1A60704790780110F0B583B079
S315100081600022294B1A730378022B05D1264A117B5C
S3151000817001330B43137305E0012B03D1224A117B04
S315100081800B431373214B1A6853001FD01F4D002742
S315100081902C26FF368021C9012F6001970197019B7C
S315100081A0B34206D8C046019B01330193019BB342EB
S315100081B0F8D944780B00002C03D180239B0000E0F3
S315100081C02A681342FCD12A685300E5D14378002B64
S315100081D005D10E4B42685A6001221A6004E00B4B1F
S315100081E042685A6002221A604378012B06D1074969
S315100081F0E022D2010B6813409342FBD104492B2095
S31510008200044B984703B0F0BD00E0004000D000409A
S315100082102981001035BB0010F0B557464E4645462D
S31510008220E0B482B04D881723002D33D0036828247C
S315100082301A5DD207FCD4012234241A55143C1A555F
S315100082400A8852000224FF34224392B21A80F13C6B
S315100082501A7A2242FCD000226C1EA4462024A14683
S315100082600024A04601264479002C04D1624502D18F
S315100082704C4647461F551C7B344208D0541CA24618
S315100082801F794C68A75452466C46E280E288AA428F
S31510008290E9D30023180002B01CBC90469946A246AA
S315100082A0F0BDC046F0B5844602684E882824135D9A
S315100082B0DB07FCD4012334241355143C13550B88C7
S315100082C05B00E03423439BB2138000240125137A0C
S315100082D0DBB21D4204D0671C4868045D1480BCB232
S315100082E0B442F4D3DB0603D41021137A0B42FCD02C
S315100082F063465B79002B02D100212033D154002034
S31510008300F0BDC046032303700D334380083B436022
S315100083100133C360073B83600361704770B5040087
S3151000832015000160002826D0002A26D028228B5C52
S31510008330DB07FCD400230B752368114A934203D143
S315100083400320104B984706E017200F4A934215D189
S3151000835002300C4B98472468298928790B4EB04770
S31510008360298A287BB0472B7823746B8823830123B3
S315100083702377002002E0172000E0172070BDC046CA
S3151000838000300040CDB600100034004055AC00104F
S3151000839010B5002808D01723002906D000234371F2
S315100083A0034B9847030000E01723180010BDC04682
S315100083B01982001010B5002808D01723002906D0FE
S315100083C000234371034B9847030000E0172318005E
S315100083D010BDC046A582001010B5002808D017237E
S315100083E0002906D0163B4371034B9847030000E063
S315100083F01723180010BDC046A58200100300064AB8
S315100084001268002A02D10549034A1160024A10680F
S31510008410C31813607047C0469478011068AF0110F6
S31510008420012040427047C04680239B014B600020CC
S315100084307047C046012070470020704700207047E3
S31510008440054A137A013BDBB2137201235B42536078
S315100084502333137000207047409301102222024BE1
S315100084601A7000207047C04640930110044B00223A
S315100084701A700121494259811A731A72DA817047AA
S3151000848040930110F8B51C481C4B98471C4B1B78A1
S31510008490002B1CD01A4B1B78DBB2212B12D002D822
S315100084A0202B03D013E0232B08D910E0154B984747
S315100084B000280CD11122124B1A7008E0002100205E
S315100084C0114B98470E4B58891321104B9847002291
S315100084D00B4B1A7004240E4FC82676000D4D16202D
S315100084E0B8473000A847013CE4B2002CF7D101226E
S315100084F0094B1A70F8BDC04664660110118D001044
S315100085004093011091ED0010399E0010BDED001042
S31510008510D59A001079A200103D93011010B51122C2
S31510008520044B1A701620044B9847044B98470020AA
S3151000853010BDC04640930110419B00108584001069
S3151000854010B5084B1B78202B08D10289054B5A8190
S3151000855021221A70D432FF325A6001E0024B98473A
S31510008560002010BD409301108584001010B50C4BEF
S315100085701B78212B10D10A4C0133237009480A4B62
S3151000858098471620094B984701210120084B984718
S3151000859001235B42636001E0064B9847002010BD43
S315100085A0409301107C660110118D0010419B001044
S315100085B0399E00108584001010B584B02022164B09
S315100085C01A70164B9847041E07D01548154B984736
S315100085D01548164B984720001CE0002302933C33A5
S315100085E00193C823DB000093002300220121002001
S315100085F00F4CA047041E05D1012116200D4B98479C
S31510008600002007E00648074B984721000A48074B09
S315100086109847200004B010BD40930110BDD1001042
S31510008620906601103D560110946601101D550110FB
S3151000863055EC0010FD9A0010C866011010B5040024
S31510008640164B1B78DBB2202B12D3212B0DD9222BE4
S315100086500ED100210933124AD1540020114B9847EC
S3151000866000210020104B984702E016200F4B984728
S315100086700A4B11221A70123A5A60A378053BDAB2E5
S31510008680392A06D893000A4AD3589F46094B984769
S3151000869001E0094B9847002010BDC04640930110D9
S315100086A0D4930110059E0010399E0010419B0010B6
S315100086B07C650110B98500108584001070B50A24F8
S315100086C0094E0A4D1620B0476420A847013CE4B273
S315100086D0002CF7D10022064B1A70064B9847431E02
S315100086E09841404270BDC046D59A001079A200103C
S315100086F03D930110B985001070B584B001282ED0B5
S31510008700002802D0022840D07AE000236A4613706F
S315100087104C4B1B79002B0AD04A4B5A7900237E2AE0
S3151000872001D80132D3B2474A53716A461370454B8A
S315100087309B7A002B0FD0434BDB7AFF2B02D00133F1
S31510008740DBB200E000233F4AD372803B6A461278C0
S3151000875013436A4613703B4B9D8C012252E03A4AF2
S31510008760536A1916684601701914417019128170EE
S31510008770C370136A19160171191441711912817196
S31510008780C3714023D55A08223CE0304C304E314953
S31510008790A06EB047304DA8476B461870030A6A465C
S315100087A05370030C9370000ED0702A49E06EB047D8
S315100087B0A8476B461871030A6A465371030C9371E6
S315100087C0000ED0712349206FB047A8476B46187228
S315100087D0030A6A465372030C9372000ED0721D4937
S315100087E0606FB047A8476B461873030A6A465373FF
S315100087F0030C9373000ED0739C23E55A102201E0EC
S315100088000022002592B269462800144B9847041E90
S3151000881014D1134B58892900124B9847041E0AD1BC
S315100088200F4B1A7A0132D2B21A72DA890132DA8110
S3151000883002225A6002E00C480C4B9847200004B004
S3151000884070BDC04650930110D49301108894011046
S31510008850DD2E011000247449DD2A011039F50010AF
S3151000886040930110D9F600100C6701101D55011028
S3151000887010B582B0010012310123019303001433A5
S31510008880009300230022024CA04702B010BDC04640
S3151000889019F50010F0B54F464646C0B483B094465D
S315100088A0012810D0002802D0022819D025E0BB23B9
S315100088B050245325BE265A2757201C2290461B3A71
S315100088C00192914623E0EE2350245325BE265A27C3
S315100088D057201C229046143A0192063A914616E009
S315100088E0112350245325BE265A2757201C22904662
S315100088F0083A0192113A914609E000230024002516
S3151000890000260027002000229046019291464A46F2
S315100089104A8202220A7042464A708870CF700E71DF
S315100089204D718C71CB710B7200234B728B72CB72A3
S315100089300B734B738B73CB730B7412240C856246BB
S31510008940CA626A4692880A864A8611203422885458
S315100089508B6300228B87CB8733300A5401300A543D
S3151000896001300A5448228B5202328B5202328B52F9
S315100089700B6403B00CBC90469946F0BD10B5054B80
S315100089800122DA705878002300220121024CA047F8
S3151000899010BDC046509301108DD8001010B5054B70
S315100089A001225A72D879002300220121024CA047D5
S315100089B010BDC046509301108DD80010084B0022F0
S315100089C05A731A701F2159701E399970DA705A71BC
S315100089D099711D20D87119725A72DA727047C04691
S315100089E050930110F0B557464E464546E0B482B056
S315100089F001AC20001D4B9A469847002399462370D8
S31510008A000223984663700127E770194E707821008B
S31510008A10184DA8472000D0474B4623704346637035
S31510008A20E770F0792100A847002805D01248134BAB
S31510008A3098471348134B984701AC20000B4B9847A7
S31510008A40002323706370210017200A4B98470028D3
S31510008A5005D00948094B98470B480A4B984702B06E
S31510008A601CBC90469946A246F0BDC04661A90010AE
S31510008A705093011071A90010906601103D56011017
S31510008A80986701101D550110D067011070B5054D7E
S31510008A90687801220449054CA047E8790122044967
S31510008AA0A04770BD509301107D890010A1AD001034
S31510008AB09D89001070B51F20084CA04705001D2089
S31510008AC0A047002D04D00323002804D1023B02E066
S31510008AD0431E98414300180070BDC04629AB0010D4
S31510008AE0F8B50500394C637B2373394B984760738F
S31510008AF0002D03D13748384B984704E0012D43D158
S31510008B003648354B9847314B5B7B002B3FD0DAB25A
S31510008B10022A02D9032B20D039E0314B1B78DBB265
S31510008B20002B03D0223B012B33D811E01F202D4BF5
S31510008B30984732242C4F264E244D3220B847B04742
S31510008B406B7B834231D1013CE4B2002CF5D123E09A
S31510008B500020264B9847002037E0214B1B78002039
S31510008B60002B32D01F301F4B984732241E4F184E01
S31510008B70164D3220B847B0476B7B834221D1013C5A
S31510008B80E4B2002CF5D115E0012040421DE0002092
S31510008B901BE00120404218E01F20154B9847154B4B
S31510008BA09847431E984140420FE01F20104B9847AC
S31510008BB000200AE01F200E4B98470F4B98470020C5
S31510008BC003E01F200A4B98470020F8BD5093011070
S31510008BD0B58A001018680110118D00102C6801104C
S31510008BE040930110258D001079A20010F98600100F
S31510008BF0858D0010BD8600108584001010B50C0000
S31510008C00002804D10C4B58780C4B984705E00128E6
S31510008C1003D1094B58780A4B9847002C04D1064BC0
S31510008C20D879064B984705E0012C03D1024BD87929
S31510008C30034B984710BDC0465093011071AE0010FB
S31510008C40CDAE001010B582B06B46DA1D002313703E
S31510008C50094C21000020094B98472000084B9847E3
S31510008C60041E06D00748084B984721000748084BB2
S31510008C70984702B010BDC046609301109588001049
S31510008C8071880010906601103D5601104068011061
S31510008C901D55011010B582B001AC2000154B984738
S31510008CA00123237021000E20134B9847002805D06E
S31510008CB01248134B98471348134B984700210E2020
S31510008CC0124B984701AC20000A4B9847012323709A
S31510008CD021000F20084B9847002805D00748084B5D
S31510008CE098470848084B984700210F20074B98478C
S31510008CF002B010BD61A9001071A900109066011094
S31510008D003D560110846801101D550110C9AB0010A5
S31510008D10024B1B78024B1B787047C04640930110DC
S31510008D203C93011010B50400C30707D52E20134B32
S31510008D309847802109048023114AD150A30707D5EB
S31510008D402E200E4B98478021890480230C4AD1503F
S31510008D50630707D52E20094B9847802149048023A5
S31510008D60074AD150230707D52E20044B9847802158
S31510008D7009058023024AD15010BDC0465155011035
S31510008D8000E100E010B50400C30709D52E20174BEB
S31510008D909847174B80221204C02149005A501A6076
S31510008DA0A30709D52E20114B9847114B8022920408
S31510008DB0C02149005A501A60630709D52E200B4B63
S31510008DC098470B4B80225204C02149005A501A6012
S31510008DD0230709D52E20054B9847054B80221205EF
S31510008DE0C02149005A501A6010BDC0465155011095
S31510008DF000E100E030B587B01020144CA047144BAA
S31510008E0058601020A047134B586001AC2000124B3D
S31510008E109847032323701B336380163B636001332B
S31510008E20E360073BA36023610C4D0D4C01AA0D496D
S31510008E302800A0470028F9D1084B1A682821535C4E
S31510008E40DB07FCD40123137507B030BD9153011015
S31510008E507494011058940110058300106494011045
S31510008E601D83001000300040F8B5124C2080501CB5
S31510008E70C0B2608060680170002A0ED00020411CCC
S31510008E80185C656868540800C9B28A42F7D804E0CD
S31510008E90013CA4B2002C04D109E03324054E064D42
S31510008EA0064F31002800B8470028F1D101E0012013
S31510008EB04042F8BD7494011064940110B5830010FB
S31510008EC0F0B5474680B41700984680B21D4B1880FF
S31510008ED001225A805B6819701B4B18805F803324FF
S31510008EE0184E1A4D03E0013CA4B2002C1FD03100DD
S31510008EF01748A8470028F6D13326134D154C03E022
S31510008F00013EB6B2002E15D029001148A047002800
S31510008F10F6D1002F11D000230B494A68D25C404687
S31510008F20C2540133DAB29742F7D8002006E0012086
S31510008F30404203E00120404200E0002004BC90467D
S31510008F40F0BDC0467494011058940110D9830010D6
S31510008F50649401109183001010B58423064AD35CE3
S31510008F60002B08D001218523D15400230022013182
S31510008F701E20024CA04710BD889401108DD80010F9
S31510008F8010B582B001AC20000A4B9847002323701D
S31510008F9002336370013BE37021001E20064B984795
S31510008FA0002805D00548064B98470648064B9847B3
S31510008FB002B010BD61A9001071A9001090660110D1
S31510008FC03D560110A46801101D55011010B502225E
S31510008FD002491E20024B984710BDC046598F0010FB
S31510008FE0A1AD001010B51E20034B98470121842314
S31510008FF0024AD15410BDC04671AE001088940110BB
S3151000900010B51E20034B984700218423024AD154E1
S3151000901010BDC046CDAE00108894011010B582B0B8
S315100090206B46DA1D00231370094C21000220094BF0
S3151000903098472000084B9847041E06D00748084B4F
S31510009040984721000748084B984702B010BDC04604
S315100090501095011095880010718800109066011007
S315100090603D560110E46801101D5501100A4A0023EF
S3151000907013705370502153541371130010000C3099
S3151000908000211962D962996359649160D1600433E1
S3151000909008328342F5D170478894011010B582B01A
S315100090A06B4607331A700122014CA04702B010BD5F
S315100090B0698E0010F0B55F4656464D464446F0B4EC
S315100090C08FB00390059180226B216920CD4CA0476B
S315100090D06420CD4DA84701226B216920A0470022AC
S315100090E06C216920A047C820A84700223821692092
S315100090F0A047002223216920A04700226B21692066
S31510009100A047002224216920A04700226A21692055
S31510009110A0470C226A216920A0470F20A8470122E8
S315100091201A216920A047002219216920A047002290
S315100091301B216920A04700221C216920A04740223C
S315100091406A216920A047782223216920A047282078
S31510009150A847002223216920A0470BAC2300022236
S3151000916072216920A94DA847207800026378184318
S315100091700C21A74B984783B20293002B42D00023B1
S31510009180984600279B469A46994600250BAC0193B4
S3151000919023000C22742169209C4EB04723781B02B1
S315100091A0627813431BB2019A94469C44634601931A
S315100091B0A3781B02E27813431BB2FF1823791B0214
S315100091C0627913431BB29944A3791B02E2791343C4
S315100091D01BB29844237A1B02627A13431BB29A4439
S315100091E0A37A1B02E27A13431BB29B440135ADB23C
S315100091F0029BAB42CCD15346BA465A46E3461600BA
S315100092001F0006E000239846002700269B469A4634
S315100092109946804C02995846A0470500029B9B46EA
S3151000922019005046A047824659464846A0478146EF
S3151000923059464046A047019059463800A04702902B
S3151000924059463000A04704904B46002B03DD724B65
S315100092509C46E14403E08023DB019C46E144019BEC
S315100092605942CA1703231A40521891109212D2B2B9
S315100092700BAC2270617002994842C1171940091847
S3151000928088108912A170E070049E7142C8170340BD
S315100092905B1899109B122371617113216920594E25
S315100092A0B047627814216920B047A2781521692049
S315100092B0B047E27816216920B04722791721692034
S315100092C0B047627918216920B047544F0198B847C2
S315100092D0534E5449B047039B18600298B8475149FA
S315100092E0B047039B58600498B8474E49B047039B54
S315100092F098602300022277216920444EB046B04779
S3151000930027783F0263781F430897230002227A21A9
S315100093106920B0472678360263781E4309962300E3
S3151000932002227D216920C04723781B0261781943E8
S315100093300A9107AB00221A705A709A700023012402
S315100093409A0008A81258224201D007AA9C54013349
S31510009350032BF5D1EA1704331A405219D210BF1A4B
S315100093605246D01718405044C010361A4A46D217E3
S3151000937013404B44DA108B1A3A12D2B20BAC22704D
S3151000938007A90878074367703012A070487806431B
S31510009390E6701812207189780B4363717721692062
S315100093A0184EB047627878216920B047A2787A21A2
S315100093B06920B047E2787B216920B04722797D2168
S315100093C06920B04762797E216920B047134E280084
S315100093D0B047154CE2218905A047059D28605046E7
S315100093E0B047E2218905A04768604846B047E221A8
S315100093F08905A047A8600FB03CBC90469946A24686
S31510009400AB46F0BD9D90001079A20010C18E0010E1
S31510009410A9260110BD27011000C0FFFF5534011009
S31510009420492B011000000343DD2E0110F0B55F46F5
S3151000943056464D464446F0B483B08046364C01231A
S31510009440A3700133E370354BA363354BE363354BA0
S31510009450236400220A210C20334EB0470A20334BD6
S3151000946098470F220A210C20B0470A202F4B984705
S3151000947001AF3B00032210210C202D4DA847387850
S3151000948080382C4B9B4698472B4B9A469847002280
S315100094902A4B2B4DA84700222A4B2B4DA8472B4B66
S315100094A0994698474346186078788038D847D04709
S315100094B00022224B224DA8470022224B224DA847BC
S315100094C0C84743465860B8788038D847D0470022F6
S315100094D01A4B1B4DA84700221A4B1B4DA847C847CD
S315100094E04346986000220A210C20B0470A200F4BF1
S315100094F09847A2781201E3781A43D2B20A210C20B7
S31510009500B0470A20094B984703B03CBC9046994691
S31510009510A246AB46F0BDC046889401100000EB434E
S315100095200000F0420000FA429D90001079A200104F
S31510009530C18E0010553401103D5101100000703FCE
S31510009540014401100000F03F61350110E551011092
S3151000955030B583B001AC23000122024DA847207814
S3151000956003B030BDC18E001010B500210C20034B86
S3151000957098474838431E9841404210BD51950010F7
S31510009580F8B500226B216920214CA0476420214D9B
S31510009590A84701226B216920A047C820A8470522A9
S315100095A01A216920A047632219216920A0471B218F
S315100095B06920194EB047194F7A78D2001A2398436A
S315100095C00243D2B21B216920A0471C216920B04753
S315100095D03A78D200182398430243D2B21C2169204C
S315100095E0A0471D216920B047F02302001A40ED3B29
S315100095F01A431D216920A047122237216920A0474E
S31510009600012238216920A0476420A847F8BDC0462A
S315100096109D90001079A200105195001088940110A9
S31510009620F0B55F4656464D464446F0B49DB003909D
S31510009630062200211AA8E04CA0470C22002117A8E8
S31510009640A0470C22002114A8A0470C22002111A823
S31510009650A0470C2200210EA8A0470022192169203C
S31510009660D64CA04702221A216920A04700221B21AE
S315100096706920A04702221D216920A04700221C2133
S315100096806920A04796251AACCD4E230006223B2111
S315100096906920B04723781B02627813431BB2149AD1
S315100096A0944663441493A3781B02E27813431BB2C7
S315100096B0159A009294466344159323791B02627996
S315100096C013431BB2169A00929446634416932300D2
S315100096D0062243216920B04723781B026278134380
S315100096E01BB2179A944663441793A3781B02E27829
S315100096F013431BB2189A0092944663441893237925
S315100097001B02627913431BB2199A00929446634462
S315100097101993013DEDB2002DB7D10024A94E14AD19
S31510009720C8216059B047605117ADC8216059B0477C
S31510009730605104340C2CF2D1E0221C2169209F4C7C
S31510009740A047E0221C216920A04732209E4B984753
S3151000975096251AAC9A4E230006223B216920B04763
S3151000976023781B02627813431BB2119A9446634402
S315100097701193A3781B02E27813431BB2129A00923C
S3151000978094466344129323791B02627913431BB2E6
S31510009790139A00929446634413932300062243219E
S315100097A06920B04723781B02627813431BB20E9AC6
S315100097B0944663440E93A3781B02E27813431BB2BC
S315100097C00F9A0092944663440F9323791B02627991
S315100097D013431BB2109A0092944663441093013DB2
S315100097E0EDB2002DB7D10024764E11ADC8216059C7
S315100097F0B04760510EADC8216059B047605104346E
S315100098000C2CF2D100221C2169206C4CA04700229E
S315100098101B216920A04719206B4B98470D21692001
S315100098206A4DA84704000E216920A84700900F2111
S315100098306920A847049000216920A84705900121B6
S315100098406920A847069002216920A8470790604B17
S315100098509A46200098475F4B994698475E4E0022DD
S315100098605E4BB04702000B005D485E495E4FB8473D
S315100098705E4D00225E4BA8475E4CA04708900098AC
S31510009880D047C8470022554BB04702000B0054483A
S315100098905449B8470022564BA847A0470990049848
S315100098A0D047C84700224D4BB04702000B004C482A
S315100098B04C49B84700224E4BA847A0470A90059836
S315100098C0D047C8470022454BB04702000B0044481A
S315100098D04449B8470022464BA847A0470B90069824
S315100098E0D047C84700223D4BB04702000B003C480A
S315100098F03C49B84700223E4BA847A0470C90079812
S31510009900D047C8470022354BB04702000B003448F9
S315100099103449B8470022364BA847A0470D9000247B
S31510009920354B99462B4D314B9846344B9A462A4F18
S31510009930304E11ABE35814AAA058181AC847A847B6
S3151000994000222F4BC0470090019108ABE058A84762
S3151000995002000B0000980199D0470022284BB84707
S31510009960B047039B18519B46A3440EABE35817AA66
S31510009970A058181AC847A8470022214BC047009084
S315100099800191230008AA94466344D868A8470200A8
S315100099900B0000980199D0470022194BB847B047E1
S315100099A05B46D86004340C2CC3D11DB03CBC904629
S315100099B09946A246AB46F0BDD55301109D900010B6
S315100099C0C18E0010BD27011079A20010519500100C
S315100099D0E53401103D510110F54801100000F03F2B
S315100099E0295C8FC2F528F03F611401100144011063
S315100099F00078A440E551011055340110B93B01100F
S31510009A000000594010B575216920064B98477128FA
S31510009A1004D10548054B9847002001E0012040423B
S31510009A2010BDC0465195001090940110219600105B
S31510009A3010B50D4B984700280FD10C4908000C386B
S31510009A400B4B98470B4B98470B4B9847002807D161
S31510009A500A480B4B9847002004E00120404201E0E1
S31510009A600120404210BDC046059A0010B494011062
S31510009A70B59000108195001069950010CC940110D6
S31510009A802D94001010B50021014B984710BDC0460B
S31510009A90C9AB001010B50121014B984710BDC04647
S31510009AA0C9AB001010B582B001AC2000064B984728
S31510009AB00123237021001620044B98471620044BCF
S31510009AC0984702B010BDC04661A9001071A90010D8
S31510009AD0959A001010B50400054B9847002803D13D
S31510009AE02000044B984702E02000034B984710BD16
S31510009AF079AB0010959A0010859A001070B50C007D
S31510009B000A4B98470A4B5C700025012C02D1FA25A6
S31510009B10AD00FFE7064C20780649074B9847227898
S31510009B2029000120054B984770BDC046859A001044
S31510009B306C9401102DA20010A9A10010D9A100103B
S31510009B4010B5044B9847044B00225A701878034BF3
S31510009B50984710BD959A00106C940110C1A1001081
S31510009B60054B00222B215A5401395A5402395A54A2
S31510009B7001315A547047C046D493011010B582B0C3
S31510009B80084A1E2313701D3B0093074B07490848CC
S31510009B90084CA047041E02D10A20074B9847200004
S31510009BA002B010BDC4930110B0930110709401104F
S31510009BB07C9401106DA0001079A2001010B582B02F
S31510009BC0594AA223137000235370937003330093E2
S31510009BD0564B57495748584CA047002800D086E0A6
S31510009BE0524B5A78120299780A435449CA804E4AFF
S31510009BF0A4211170A13900914D494E484E4CA047F1
S31510009C00002877D1494B5A78120299780A434B4962
S31510009C100A81454AA6211170A33900914449454845
S31510009C20454CA047002868D1404B5A7812029978C3
S31510009C300A4342494A813C4AA8211170A53900912C
S31510009C403B493C483C4CA047002859D1374B5A78E1
S31510009C50120299780A4339498A81334AAA21117026
S31510009C60A739009132493348334CA04700284AD1CE
S31510009C702E4B5A78120299780A433049CA812A4AD9
S31510009C80AC211170A939009129492A482A4CA047BC
S31510009C9000283BD1254B5A78120299780A43274956
S31510009CA00A82214AAE211170AB3900912049214810
S31510009CB0214CA04700282CD1204A1C494B781B0266
S31510009CC089780B435382D388013B9BB21C4A93423B
S31510009CD022D81C4A10000C3019491388013B9BB23C
S31510009CE08B421CD802328242F7D1002019E00120A3
S31510009CF0404216E00120404213E00120404210E0AD
S31510009D00012040420DE0012040420AE0012040427D
S31510009D1007E00120404204E00120404201E001201A
S31510009D20404202B010BDC046C4930110B09301105A
S31510009D30709401107C9401106DA00010D493011042
S31510009D40E7FD0000DC93011010B5034B9847431E46
S31510009D509841000110BDC046BD9B001010B50E4BBA
S31510009D609847002808D00D480D4B98470D480E4BC4
S31510009D70984701235B420CE00C4B984700230028C0
S31510009D8007D00648064B98470948074B98470123C2
S31510009D905B42180010BDC0467D9B001090660110F6
S31510009DA03D560110246901101D550110499D0010E2
S31510009DB06069011010B582B06B46DA1D002313706E
S31510009DC0094C21000120094B98472000084B984761
S31510009DD0041E06D00748084B984721000748084B31
S31510009DE0984702B010BDC046009401109588001027
S31510009DF071880010906601103D560110A06901107F
S31510009E001D55011010B50C00002802D0064B9847BE
S31510009E1001E0064B9847002C02D0054B984701E00D
S31510009E20044B984710BDC046E58F001001900010F6
S31510009E3001A1001021A1001030B589B00C00002836
S31510009E4033D001210E20544B9847544B9847002885
S31510009E500FD05348534B98475348544B9847544B3D
S31510009E601878544B9847544B002287215A541A712C
S31510009E7016E001A801235B428360002303710125CC
S31510009E8045704E4B98474E4B18784A4B9847484B5F
S31510009E9018784C4B9847484B0221872299541D71CC
S31510009EA000210E203C4B984708E0414B1878414B57
S31510009EB09847414B002287215A541A71002C29D0F9
S31510009EC001210F20344B98473F4B984700280DD05F
S31510009ED03348344B98473D48344B98473C4B98474A
S31510009EE03C4B00222B215A541A7009E000216420A1
S31510009EF0394B9847374B02212B2299542A3A1A701C
S31510009F0000210F20244B984787232B4AD35C022B22
S31510009F1022D10CE02E4B98472E4B00222B215A545F
S31510009F201A708723244AD35C022B15D10CE02B23FD
S31510009F30284AD35C022B07D10722284B1A70284BCC
S31510009F409847284B98471BE00422244B1A70244B41
S31510009F509847254B984713E02B231E4AD35C022BB8
S31510009F6007D105221D4B1A70204B98471D4B984759
S31510009F7006E00122194B1A701C4B98471A4B98474A
S31510009F800748084B9847154B1978C9B21848074B1C
S31510009F90984709B030BDC046C9AB0010319A0010C1
S31510009FA0906601103D560110E86901101D5501100B
S31510009FB0C0930110B5A6001088940110D9A6001000
S31510009FC06C94011091A600105D9D0010146A01108A
S31510009FD0F5A00010D4930110C9A000103C930110F5
S31510009FE0E58F001001A1001021A1001001900010B2
S31510009FF04C6A011030B58DB001AC2000134B984758
S3151000A0001023237021001248124B984702AC2000EF
S3151000A010114B9847682323710023A3701133A36053
S3151000A0200D3BA3611322E260E361143A22612262BE
S3151000A030133262616362094D220009492800094BF7
S3151000A04098472800084B98470DB030BDDDA2001088
S3151000A0507094011015A30010E9A200107C94011051
S3151000A06000700040E5A3001055A30010F0B583B0B2
S3151000A07004000D000092019308AB1E880122084FC0
S3151000A080B8473300019A00992000064EB0470600E3
S3151000A090002229002000B847300003B0F0BDC046AA
S3151000A0A0CDA5001049A5001010B501212923044A99
S3151000A0B0D1540023002202314220024CA04710BD89
S3151000A0C0D49301108DD8001030B583B004000D0064
S3151000A0D06846064B98476B465D7063011C190194E0
S3151000A0E06846034B984703B030BDC046E980001060
S3151000A0F05D81001010B5014B984710BDF980001016
S3151000A10010B50448044B984780221205034B1A6079
S3151000A11010BDC046A9A000104581001000E100E066
S3151000A12010B5044B9847802109058023024AD15067
S3151000A13010BDC0465181001000E100E0F0B5474661
S3151000A14080B488B0124F00253D707D70BD70114EE1
S3151000A1500123984633707570B57001AC20000E4B14
S3151000A160984701235B42A3604346637025710B4BEE
S3151000A17063616573434623742000094B984738780A
S3151000A180084CA0473078A04708B004BC9046F0BDF4
S3151000A190C09301106C94011031A600109065000058
S3151000A1A0D9A60010B5A6001010B50400024B9847AA
S3151000A1B02000024B984710BDDDA70010B5A6001071
S3151000A1C010B50400024B98472000024B984710BD6B
S3151000A1D0B5A60010F5A7001010B51400012806D07A
S3151000A1E0002802D0022804D005E01A2204E00A4A08
S3151000A1F002E00A4A00E00122002900D101314A4357
S3151000A20000212000064B98472000064B98478022D5
S3151000A210D201054B1A6010BD9065000080BA8C0102
S3151000A22069A6001091A6001000E100E010B5012209
S3151000A230044BDA700023002201214120024CA04772
S3151000A24010BDC0466C9401108DD8001010B5074B88
S3151000A2505B78012B09D11620054B9847034B1A78CA
S3151000A260FA2189000120034B984710BD6C94011008
S3151000A270D59A0010D9A10010F0B583B001000022C4
S3151000A2806B46DA70114B1A780120114B984701274B
S3151000A2907F426B46DC1C0D4E0E4D0DE03078A84704
S3151000A2A00190019B019B002B02D0019B9F4202D281
S3151000A2B00123237000E0019F2378002BEED0034B7F
S3151000A2C01878054B984703B0F0BDC0466C94011042
S3151000A2D0D9A1001055A60010B5A600100C230370C6
S3151000A2E0002343708370704701230370002343706B
S3151000A2F08370C37081330371773B83600133C3600E
S3151000A30001330361013343610B3B8361C361036214
S3151000A3104362704730B583B004000B7803704B78F6
S3151000A32043708B78837001AD2800074B9847012343
S3151000A3302B7020782900054B984720780121044B73
S3151000A340984703B030BDC04661A9001071A900102E
S3151000A350C9AB0010036801221A76704710B50023A6
S3151000A3600268137603680D4A934209D141200C4CBA
S3151000A370A0472620A0473820A0470120A0470BE081
S3151000A380084A934208D14220054CA0472720A047EF
S3151000A3903920A0470220A04710BDC04600600040EB
S3151000A3A061B300100070004010B50468094B98475F
S3151000A3B0094B9C4205D10120084CA0473820A047E4
S3151000A3C007E0074B9C4204D10220044CA0473920D9
S3151000A3D0A04710BD5DA3001000600040CDB6001070
S3151000A3E000700040F0B55F464646C0B483B0060024
S3151000A3F08846150031600B7EDB0701D500230B76EE
S3151000A40030004A4B98473368494A934209D1412054
S3151000A410484CA0472620A0473820A0470120A04737
S3151000A4200BE0454A934208D14220424CA0472720D0
S3151000A430A0473920A0470220A04701A83F4B9847C4
S3151000A4402C00083418239B46AB4427002068431C75
S3151000A45011D02B78012B02D16A46137103E0002B21
S3151000A46001D16A461371C0B201A9354B9847398A92
S3151000A4703878344B984704345C45E6D1EB7842463D
S3151000A48013742B78012B00D113772B78002B01D165
S3151000A4904246137733682A7872712A78012A01D1D5
S3151000A4A02A799A826A78042A04D12421585C0243B4
S3151000A4B05A5404E024215A5C042082435A54AA7840
S3151000A4C0012A1AD0002A04D0022A0CD0032A1ED040
S3151000A4D026E02422995C022081439954995C013824
S3151000A4E0814399541CE02422985C0221014399541B
S3151000A4F0995C01208143995412E02422995C022030
S3151000A50081439954985C01210143995408E024220F
S3151000A510985C022101439954985C01210143995496
S3151000A520002003B00CBC90469B46F0BDA9A30010BA
S3151000A5300060004005B000100070004061A90010D6
S3151000A54071A9001055AC0010F0B583B00468002650
S3151000A5506D46EE710735002C34D0002904D1290040
S3151000A5608079287001270BE0002A05D01720002BD0
S3151000A57029D00026002703E0012600276A46073265
S3151000A5802825605DC007FCD4207B207A002B14D0D0
S3151000A59000257842474170424641207AC007FCD5D3
S3151000A5A008782070207BC007FCD520791070013503
S3151000A5B0ADB2C9199219AB42EFD1237ADB06FCD59D
S3151000A5C0002000E01F2003B0F0BDC04610B508788B
S3151000A5D0002A03D00021044B984702E00121024BC8
S3151000A5E09847002010BDC046C9AB001010B50D4BE2
S3151000A5F01B7D002B07D001220A4B1A730A4B1B68CE
S3151000A600002B00D098473423064AD35C002B07D082
S3151000A61001212C23D154054B1B68002B00D09847E1
S3151000A62010BDC04600100040987801109C780110AB
S3151000A6300123037003730222427042738370837383
S3151000A6400022C270C2730371037482604261027683
S3151000A6507047C046002802D1024B586801E0014BF2
S3151000A660586A704700100040002807D1002902D10F
S3151000A670064B1A6009E0054B9A6106E0002902D1E3
S3151000A680024B1A6201E0014B9A63704700100040BA
S3151000A690002805D1064A117A80230B43137205E070
S3151000A6A003492822885C802303438B547047C04695
S3151000A6B000100040002805D1064A117A7F230B406E
S3151000A6C0137205E003492822885C7F2303408B54CC
S3151000A6D07047C0460010004070B504000420394B86
S3151000A6E098472378002B02D1237B002B65D036495F
S3151000A6F0CA6820231343CB60227E8B690320024055
S3151000A70012012D30834313438B612378002B26D0FF
S3151000A71063780121002B03D0023B5D425D41A90104
S3151000A720A278520002252A40E3789B000A352B4076
S3151000A7301A4315000D432379002B01D020231D4306
S3151000A740224BA2681A601D721F49C4225200885CEF
S3151000A750012303438B5400201D4B984700E000252E
S3151000A760237B002B29D0637B002B05D0012B05D032
S3151000A770022B04D1402502E0012500E00025A37B31
S3151000A7805B0002211940E27B92000C2313400B431D
S3151000A7901D43237C002B01D020231D4362690B4BE4
S3151000A7A01A6228229D5408496132FF32885C0223BE
S3151000A7B003438B540120064B984706491E20064B2F
S3151000A7C0984770BDCDB6001000B000400010004094
S3151000A7D091A60010EDA5001035BB0010002802D17F
S3151000A7E0024B196001E0024B19607047987801100E
S3151000A7F09C780110002803D10022034B1A6002E056
S3151000A8000022024B1A607047987801109C7801104C
S3151000A81070B5164B1D68298F89B2CB0707D4012353
S3151000A8200124180022009A40114214D001E001229E
S3151000A830002092B22A8746230C4AD35A0341DB07DB
S3151000A8400CD54423D35A0341DB0707D580001018D3
S3151000A8504368984702E00133102BE2D180210904A6
S3151000A860C0235B00024AD15070BDC04674950110DA
S3151000A87000E100E0F8B5184B9B6C1E8FB6B237009E
S3151000A8800024760B7603144D002E01D0134B9847F7
S3151000A89022000123A3401F4213D09BB2A96C0B8741
S3151000A8A08E23EB5A2341DB070BD58C230A49CB5A4F
S3151000A8B02341DB0705D5123292008A185368984750
S3151000A8C002E00134102CDFD180214904C0235B0043
S3151000A8D0034AD150F8BDC0467495011051BC010011
S3151000A8E000E100E010B590231B4AD258138F9BB29B
S3151000A8F0D90414D499040AD459040CD4DB0BDB0301
S3151000A9009BB2002B20D080231B020F210AE080234C
S3151000A9109B010D2106E08023DB010E2102E080233E
S3151000A9205B010C219BB21387D6230B4AD35A0B41DA
S3151000A930DB0709D5D423D35A0B41DB0704D52431C1
S3151000A940890051184B68984780218904C0235B0001
S3151000A950024AD15010BDC0467495011000E100E0C6
S3151000A96000230370012242708370C3707047C04683
S3151000A97070B51723012800D8C8E0072809D8644DF8
S3151000A9806A6C103B03409B0007249C40A2436A64F8
S3151000A99029E00F2809D85E4DAA6C072303409B00B7
S3151000A9A007249C40A243AA641DE0172809D8584DD5
S3151000A9B0EA6C072303409B0007249C40A243EA64E9
S3151000A9C011E003002C3B032B0DD8524D8224E400DA
S3151000A9D02A5D120701269E40120F2B5DB2430F26E9
S3151000A9E0B34313432B5503001D3B022B29D84B7839
S3151000A9F0012B08D1474D2B7D1F24241A0122A2407A
S3151000AA0093432B7508E0434C257D1F22121A012310
S3151000AA1093402B43DBB22375CA780023002A75D0E6
S3151000AA203C490C881F22101A8000013383402343AF
S3151000AA309BB20B80384A117802230B431370002304
S3151000AA4064E00A78002A40D10F2808D801238340F1
S3151000AA509BB2324A938200231F2857D812E01F2830
S3151000AA6007D80F220240012393409BB22C4A9382AF
S3151000AA7008E00F2318400E3B83409BB2294A93826D
S3151000AA80002343E04B78012B0CD0002B02D0022B75
S3151000AA9010D03AE01E490A6D0123834013430B651B
S3151000AAA0002333E01A490B6D0122824093430B6554
S3151000AAB000232BE0164B596D012282401143596534
S3151000AAC0196D91431965002320E00023012A1DD139
S3151000AAD00F2806D8013383409BB2104A13820023F5
S3151000AAE014E01F2808D80F2318400E3B83409BB252
S3151000AAF00B4A1382002309E00F2318400E3B8340B4
S3151000AB009BB2084A1382002300E01723180070BD79
S3151000AB1000B0004000F0004000E00040000001409E
S3151000AB2000100140003001400F2806D80F4B19883D
S3151000AB30012383401800084014E01F2809D80C4B45
S3151000AB4019880F2303401A00012393401800084068
S3151000AB5008E0084B19880F2303401A00012393407D
S3151000AB6018000840431E9841C0B2704700000140CB
S3151000AB7000100140003001400F2806D80F4B99886D
S3151000AB80012383401800084014E01F2809D80C4BF5
S3151000AB9099880F2303401A00012393401800084098
S3151000ABA008E0084B99880F2303401A0001239340AD
S3151000ABB018000840431E9841C0B27047000001407B
S3151000ABC0001001400030014010B50F2810D80029A0
S3151000ABD007D01D4A9188012383400B439BB2938073
S3151000ABE031E019498B880122824093438B802AE0F9
S3151000ABF01F2814D8002909D014498C880F22104018
S3151000AC000123834023439BB28B801CE00F498B8822
S3151000AC100F2210400E3A824093438B8013E0002996
S3151000AC2009D00B498C880F221040012383402343FF
S3151000AC309BB28B8007E006498B880F2210400E3A94
S3151000AC40824093438B8010BD0000014000100140EC
S3151000AC500030014070B50D0AFF231940072833D87C
S3151000AC604E4A546CF83B03409B0007269E40B44363
S3151000AC705464546C0E009E403300234353640129E0
S3151000AC8000D08AE003280FD81100D02252008C5829
S3151000AC9003231840C0003C3383409C438C508B5890
S3151000ACA085401D438D5078E03C49D22252008C5885
S3151000ACB003231840C0003C3383409C438C508B5870
S3151000ACC085401D438D5068E00F2832D8334A946C66
S3151000ACD0072303409B0007269E40B4439464946C5C
S3151000ACE00E009E40330023439364012955D10B284F
S3151000ACF00FD81100D42252008C5803231840C000DC
S3151000AD003C3383409C438C508B5885401D438D505B
S3151000AD1043E02249D62252008C5803231840C00023
S3151000AD203C3383409C438C508B5885401D438D503B
S3151000AD3033E0172831D8194AD46C072303409B00F7
S3151000AD4007269E40B443D464D46C0E009E40330054
S3151000AD502343D364012920D113280FD81100D822F8
S3151000AD6052008C5803231840C0003C3383409C4348
S3151000AD708C508B5885401D438D500EE0074ADA23C0
S3151000AD805B00D15803242040C0003C348440A143CA
S3151000AD90D150D15885400D43D55070BD00B00040FC
S3151000ADA0F0B500230F2804D91F2484425B411D3CB3
S3151000ADB0E31A012A16D0002A04D0022A22D0032A26
S3151000ADC030D03EE0294EDC00E218D20097590F250C
S3151000ADD005400122AA4092B2BA85E418E400A459AB
S3151000ADE0A2862EE0214EDC00E218D20097590F25DC
S3151000ADF005400122AA4092B2BA85E418E400A4598B
S3151000AE0022861EE0194EDC00E218D20097590F2553
S3151000AE1005400122AA4092B23A85E418E400A459EA
S3151000AE2022860EE0114EDC00E218D20097590F254B
S3151000AE3005400122AA4092B23A85E418E400A459CA
S3151000AE40A2860F221040094CDD00EA185200121893
S3151000AE509200A2185160EA18D200A21844320121B9
S3151000AE60814013880B431380F0BDC04674950110C2
S3151000AE7030B50F2805D880221204124B1A60002212
S3151000AE800CE01F2805D8802252040E4B1A600122AE
S3151000AE9004E0802292040B4B1A6002220F23184002
S3151000AEA001218140084CD500AB18DB00E31846336E
S3151000AEB0188808431880AA18D200135989B2198421
S3151000AEC030BDC04600E100E07495011030B5002396
S3151000AED00F2804D91F2282425B411D3AD31A0F2232
S3151000AEE0104001218140074CDD00EA18D200A2185B
S3151000AEF04632108888431080EB18DB001B5989B244
S3151000AF00998430BD7495011010B5114A1000D830CF
S3151000AF10002107E002C39342FCD1518011804832D0
S3151000AF20824202D01300403BF4E70A4B0A4A1A60E9
S3151000AF300A4A9A640A49902299500A4927200A4CCB
S3151000AF40A0470A492820A04709492920A04710BD33
S3151000AF50B8950110749501100000014000100140D1
S3151000AF600030014011A8001035BB001075A8001064
S3151000AF70E5A8001001280DD0002802D002281CD008
S3151000AF802EE0184A90690C2303439361164A174B17
S3151000AF901A601AE0134B9869082202439A619A695B
S3151000AFA0042082439A61124A5368802000030343A7
S3151000AFB05360104A0D4B1A6007E00A4A93690C2039
S3151000AFC083439361084A094B1A60064B9A6903201A
S3151000AFD082439A619A69014011439961002000E009
S3151000AFE01720704700B0004080BA8C014C960110B3
S3151000AFF000F0004080841E00014B18687047C04660
S3151000B0004C96011000B5352800D9A2E18000D24B2C
S3151000B0101B589F46D14AD16802230B43D3600020A8
S3151000B02098E1CE4AD16804230B43D360002091E106
S3151000B030CA4AD16808230B43D36000208AE1C74A65
S3151000B040D16810230B43D360002083E1C34AD16833
S3151000B05020230B43D36000207CE1C04AD1688023B3
S3151000B0600B43D360002075E1BC4AD36880214900A8
S3151000B0700B43D36000206DE1B84AD36880210901E3
S3151000B0800B43D360002065E1B44AD368802149019F
S3151000B0900B43D36000205DE1B04AD368802189015B
S3151000B0A00B43D360002055E1AC4AD3688021C90117
S3151000B0B00B43D36000204DE1A84AD36880210902D2
S3151000B0C00B43D360002045E1A44AD368802149028E
S3151000B0D00B43D36000203DE1A04AD368802189024A
S3151000B0E00B43D360002035E19C4AD3688021C90206
S3151000B0F00B43D36000202DE1984AD36880210903C1
S3151000B1000B43D360002025E1944AD368802149037C
S3151000B1100B43D36000201DE1904AD3688021890338
S3151000B1200B43D360002015E18C4AD3688021C903F4
S3151000B1300B43D36000200DE1884AD36880210904AF
S3151000B1400B43D360002005E1844AD368802149046B
S3151000B1500B43D3600020FDE0804AD3688021890428
S3151000B1600B43D3600020F5E07C4AD3688021C904E4
S3151000B1700B43D3600020EDE0784AD368802109059F
S3151000B1800B43D3600020E5E0744AD368802149055B
S3151000B1900B43D3600020DDE0704AD3688021890517
S3151000B1A00B43D3600020D5E06C4AD3688021C905D3
S3151000B1B00B43D3600020CDE0684A116901230B438D
S3151000B1C013610020C6E0654A116902230B4313611F
S3151000B1D00020BFE0614A116904230B43136100206C
S3151000B1E0B8E05E4A116908230B4313610020B1E0F1
S3151000B1F05A4A116910230B4313610020AAE0574ADB
S3151000B200116920230B4313610020A3E0534A1169EF
S3151000B21040230B43136100209CE0504A11698023A0
S3151000B2200B431361002095E04C4A136980214900B5
S3151000B2300B43136100208DE0484A13698021890071
S3151000B2400B431361002085E0444A13698021C9002D
S3151000B2500B43136100207DE0404A136980210901E8
S3151000B2600B431361002075E03C4A136980214901A4
S3151000B2700B43136100206DE0384A13698021890160
S3151000B2800B431361002065E0344A13698021C9011C
S3151000B2900B43136100205DE0304A136980210902D7
S3151000B2A00B431361002055E02C4A13698021490293
S3151000B2B00B43136100204DE0284A1369802189024F
S3151000B2C00B431361002045E0244A13698021C9020B
S3151000B2D00B43136100203DE0204A136980210903C6
S3151000B2E00B431361002035E01C4A13698021490382
S3151000B2F00B43136100202DE0184A1369802189033E
S3151000B3000B431361002025E0144A13698021C903F9
S3151000B3100B43136100201DE0104A136980210904B4
S3151000B3200B431361002015E00C4A117D01230B43DA
S3151000B330137500200EE0094A117D02230B43137585
S3151000B340002007E0054A117D04230B4313750020E6
S3151000B35000E0172000BDC046786A011000B000401A
S3151000B36000B5352800D97DE18000BF4B1B589F469C
S3151000B370BE4AD36802218B43D360002073E1BB4AD7
S3151000B380D36804218B43D36000206CE1B74AD3689D
S3151000B39008218B43D360002065E1B44AD36810219D
S3151000B3A08B43D36000205EE1B04AD36820218B43E3
S3151000B3B0D360002057E1AD4AD36880218B43D36018
S3151000B3C0002050E1A94AD168A94B0B40D360002058
S3151000B3D049E1A64AD168A74B0B40D360002042E151
S3151000B3E0A24AD168A44B0B40D36000203BE19F4A90
S3151000B3F0D168A24B0B40D360002034E19B4AD16840
S3151000B4009F4B0B40D36000202DE1984AD1689D4B8D
S3151000B4100B40D360002026E1944AD1689A4B0B402A
S3151000B420D36000201FE1914AD168984B0B40D3603E
S3151000B430002018E18D4AD168954B0B40D36000204F
S3151000B44011E18A4AD168934B0B40D36000200AE180
S3151000B450864AD168904B0B40D360002003E1834AA3
S3151000B460D1688E4B0B40D3600020FCE07F4AD16838
S3151000B4708B4B0B40D3600020F5E07C4AD168894B9A
S3151000B4800B40D3600020EEE0784AD168864B0B4023
S3151000B490D3600020E7E0754AD168844B0B40D36037
S3151000B4A00020E0E0714AD168814B0B40D360002048
S3151000B4B0D9E06E4AD1687F4B0B40D3600020D2E0B2
S3151000B4C06A4AD1687C4B0B40D3600020CBE0674AB8
S3151000B4D0D1687A4B0B40D3600020C4E0634AD16830
S3151000B4E0774B0B40D3600020BDE0604A1369012101
S3151000B4F08B4313610020B6E05C4A136902218B432B
S3151000B50013610020AFE0594A136904218B4313617C
S3151000B5100020A8E0554A136908218B4313610020C7
S3151000B520A1E0524A136910218B43136100209AE05F
S3151000B5304E4A136920218B431361002093E04B4A36
S3151000B540136940218B43136100208CE0474A13692D
S3151000B55080218B431361002085E0444A1169444BD6
S3151000B5600B40136100207EE0404A1169554B0B4099
S3151000B5701361002077E03D4A1169534B0B4013616C
S3151000B580002070E0394A11693A4B0B4013610020D4
S3151000B59069E0364A1169384B0B401361002062E0AE
S3151000B5A0324A1169354B0B40136100205BE02F4A7C
S3151000B5B01169334B0B401361002054E02B4A11697B
S3151000B5C0304B0B40136100204DE0284A11692E4B79
S3151000B5D00B401361002046E0244A11692B4B0B40A7
S3151000B5E0136100203FE0214A1169294B0B4013617A
S3151000B5F0002038E01D4A1169264B0B4013610020CC
S3151000B60031E01A4A1169244B0B40136100202AE0DD
S3151000B610164A1169214B0B401361002023E0134A8F
S3151000B62011691F4B0B40136100201CE00F4A116972
S3151000B6301C4B0B401361002015E00C4A137D0121B1
S3151000B6408B43137500200EE0084A137D02218B43AD
S3151000B6501375002007E0054A137D04218B431375EB
S3151000B660002000E0172000BD506B011000B0004014
S3151000B670FFFEFFFFFFF7FFFFFFEFFFFFFFDFFFFFFD
S3151000B680FFBFFFFFFF7FFFFFFFFFFEFFFFFFFDFF77
S3151000B690FFFFFBFFFFFFF7FFFFFFEFFFFFFFDFFFE0
S3151000B6A0FFFFBFFFFFFF7FFFFFFFFFFEFFFFFFFD57
S3151000B6B0FFFFFFFBFFFFFFF7FFFFFFEFFFFFFFDFC0
S3151000B6C0FFFFFFBFFFFDFFFFFFFBFFFF00B5432896
S3151000B6D000D923E28000E04B1B589F46DF4B596888
S3151000B6E002229143596059680A435A60002016E2B3
S3151000B6F0DA4B596804229143596059680A435A60D3
S3151000B70000200CE2D54B59680822914359605968BC
S3151000B7100A435A60002002E2D04B59681022914326
S3151000B720596059680A435A600020F8E1CB4B5968B2
S3151000B73020229143596059680A435A600020EEE16D
S3151000B740C64B596840229143596059680A435A605A
S3151000B7500020E4E1C14B5968802291435960596831
S3151000B7600A435A600020DAE1BC4B5968BC4A0A40C9
S3151000B7705A605A68802149000A435A600020CEE177
S3151000B780B64B5968B74A0A405A605A6880218900F0
S3151000B7900A435A600020C2E1B04B5968B24A0A40C7
S3151000B7A05A605A688021C9000A435A600020B6E1DF
S3151000B7B0AA4B5968AD4A0A405A605A688021090155
S3151000B7C00A435A600020AAE1A44B5968A84A0A40C5
S3151000B7D05A605A68802149010A435A6000209EE146
S3151000B7E09E4B5968A34A0A405A605A6880218901BB
S3151000B7F00A435A60002092E1984B59689E4A0A40C3
S3151000B8005A605A688021C9010A435A60002086E1AD
S3151000B810924B5968994A0A405A605A68802109021F
S3151000B8200A435A6000207AE18C4B5968944A0A40C0
S3151000B8305A605A68802149020A435A6000206EE114
S3151000B840864B59688F4A0A405A605A688021890285
S3151000B8500A435A60002062E1804B59688A4A0A40BE
S3151000B8605A605A688021C9020A435A60002056E17C
S3151000B8707A4B5968854A0A405A605A6880210903EA
S3151000B8800A435A6000204AE1744B5968804A0A40BC
S3151000B8905A605A68802149030A435A6000203EE1E3
S3151000B8A06E4B59687B4A0A405A605A688021890350
S3151000B8B00A435A60002032E1684B5968764A0A40BA
S3151000B8C05A605A688021C9030A435A60002026E14B
S3151000B8D0624B5968714A0A405A605A6880210904B5
S3151000B8E00A435A6000201AE15C4B59686C4A0A40B8
S3151000B8F05A605A68802149040A435A6000200EE1B2
S3151000B900564B5968674A0A405A605A68802189041A
S3151000B9100A435A60002002E1504B5968624A0A40B5
S3151000B9205A605A688021C9040A435A600020F6E01A
S3151000B9304A4B59685D4A0A405A605A68802109057F
S3151000B9400A435A600020EAE0444B5968584A0A40B4
S3151000B9505A605A68802149050A435A600020DEE081
S3151000B9603E4B5968534A0A405A605A6880218905E5
S3151000B9700A435A600020D2E0384B59684E4A0A40B2
S3151000B9805A605A688021C9050A435A600020C6E0E9
S3151000B990324A53685B005B0853605368802109067E
S3151000B9A00B4353600020BAE02C4B1A8901218A43BD
S3151000B9B01A81198901220A431A810020AFE0274B08
S3151000B9C01A8902218A431A81198902220A431A8185
S3151000B9D00020A4E0214B1A8904218A431A8119896F
S3151000B9E004220A431A81002099E01C4B1A89082167
S3151000B9F08A431A81198908220A431A8100208EE087
S3151000BA00164B1A8910218A431A81198910220A4362
S3151000BA101A81002083E0114B1A8920218A431A814A
S3151000BA20198920220A431A81002078E00B4B1A89C3
S3151000BA3040218A431A81198940220A431A8100201B
S3151000BA406DE0064B1A8980218A431A811989802252
S3151000BA500A431A81002062E0286C011000B00040F1
S3151000BA60FFFEFFFFFFFDFFFFFFFBFFFFFFF7FFFFDF
S3151000BA70FFEFFFFFFFDFFFFFFFBFFFFFFF7FFFFFB0
S3151000BA80FFFFFEFFFFFFFDFFFFFFFBFFFFFFF7FFBF
S3151000BA90FFFFEFFFFFFFDFFFFFFFBFFFFFFF7FFF90
S3151000BAA0FFFFFFFEFFFFFFFDFFFFFFFBFFFFFFF79F
S3151000BAB0FFFFFFEFFFFFFFDFFFFFFFBF184B1989E7
S3151000BAC0184A0A401A811989802252000A431A819B
S3151000BAD0002024E0124B1989134A0A401A81198949
S3151000BAE0802292000A431A81002018E00C4B198913
S3151000BAF00E4A0A401A8119898022D2000A431A81F5
S3151000BB0000200CE0064B1989094A0A401A81198946
S3151000BB10802212010A431A81002000E0172000BD7E
S3151000BB2000B00040FFFEFFFFFFFDFFFFFFFBFFFF22
S3151000BB30FFF7FFFF8023DB049C4660448000016012
S3151000BB407047C04670B5204B1C6823681D7DEDB24A
S3151000BB506A0613D51E212222A1541A7E23318A4346
S3151000BB601A762123E35C1B0706D52023E35C1B070B
S3151000BB7002D520002369984723681B7CEB0722D542
S3151000BB8023681B7CDBB262691370636901336361DE
S3151000BB90A38B013B9BB2A383A38B9BB2002B12D129
S3151000BBA02133E35C5B070ED52023E35C5B070AD5E4
S3151000BBB000222223E2542268137E01218B4313763E
S3151000BBC0E3682000984770BD5096011070B5214B60
S3151000BBD01C6823681D79EDB2EA0717D5A26911789A
S3151000BBE0C9B20132A2611970E38B013B9BB2E383A8
S3151000BBF0E38B9BB2002B09D12268137A01218B4368
S3151000BC0013722268117A10230B431372EB0612D5A6
S3151000BC102123E35CDB070ED52023E35CDB070AD583
S3151000BC2000222223E2542268137A10218B431372C6
S3151000BC30200063689847AB060AD52123E35C9B076F
S3151000BC4006D52023E35C9B0702D5A36820009847FE
S3151000BC5070BDC0465096011070B5204B5C682368C5
S3151000BC601D7DEDB26A0613D51E212222A1541A7E1D
S3151000BC7023318A431A762123E35C1B0706D520233A
S3151000BC80E35C1B0702D520002369984723681B7CB9
S3151000BC90EB0722D523681B7CDBB2626913706369DC
S3151000BCA001336361A38B013B9BB2A383A38B9BB22E
S3151000BCB0002B12D12133E35C5B070ED52023E35C06
S3151000BCC05B070AD500222223E2542268137E012143
S3151000BCD08B431376E3682000984770BD5096011089
S3151000BCE070B5214B5C6823681D79EDB2EA0717D54C
S3151000BCF0A2691178C9B20132A2611970E38B013BB6
S3151000BD009BB2E383E38B9BB2002B09D12268137A93
S3151000BD1001218B4313722268117A10230B4313727D
S3151000BD20EB0612D52123E35CDB070ED52023E35C5B
S3151000BD30DB070AD500222223E2542268137A102147
S3151000BD408B431372200063689847AB060AD52123EC
S3151000BD50E35C9B0706D52023E35C9B0702D5A3680B
S3151000BD602000984770BDC04650960110E1235B0233
S3151000BD7003600023037143718371C37102338360BF
S3151000BD800322C26001320261013242618361C361E2
S3151000BD90036243627047C046F8B54F464646C0B484
S3151000BDA0050017000160002343608360C3600361D0
S3151000BDB04361836100228383C3832033C2540133DA
S3151000BDC0C2540133C254554B994218D10920544CD0
S3151000BDD0A0470A20A0470920524CA0470A20A04796
S3151000BDE0514B1D6051491020514CA047514911200B
S3151000BDF0A047514B01221A6001321A601AE04F4BCC
S3151000BE00994217D10B20464CA0470C20A0470B2077
S3151000BE10444CA0470C20A047434B5D604849122074
S3151000BE20434CA04747491320A047434B04221A60AE
S3151000BE3004321A60FB7904229046002B52D1023349
S3151000BE4098464FE0318A01CEC0B2C8470134E4B2F9
S3151000BE504445F7D32B681A7DD20704D501211A7CE5
S3151000BE601A7D0A42FBD1002120229954FB79591ED2
S3151000BE708B4159013B797A7913430B43BA79022ADC
S3151000BE800DD0D1B2022902D8012A05D00FE0032A1B
S3151000BE9008D0042A09D00AE00222134307E006223A
S3151000BEA0134304E00A22134301E00E221343202217
S3151000BEB029688B543E68244B984704003100234B65
S3151000BEC0984782B20004000C7043201A3109884248
S3151000BED006D900230133DBB2401A8842FAD807E0AC
S3151000BEE0002305E03E0008360024194B9946A9E7C1
S3151000BEF0002128202C68215401331B075B0FD20028
S3151000BF0013439BB22A6893842B6819762B6819728F
S3151000BF1000200CBC90469946F8BDC0460040004033
S3151000BF20CDB6001005B000105096011045BB00109C
S3151000BF3035BB0010CDBB001000E100E00050004002
S3151000BF4059BC0010E1BC0010F9AF0010A926011071
S3151000BF5055AC00100268012013790342FCD0117011
S3151000BF600020704702680120137D0342FCD0137C29
S3151000BF700B7000207047C0461723002A0DD00B33D4
S3151000BF80C35CDBB2052B08D08283416105222223D4
S3151000BF90C2540368043A1A76002318007047C04644
S3151000BFA09300C3185960202101239340425C134328
S3151000BFB04354704710B5212201238B40845C2343E0
S3151000BFC08354012904D10268117A20230B4313727A
S3151000BFD010BDC04610B501228A402124035D93434B
S3151000BFE00355012904D10268137A1F318B4313724A
S3151000BFF010BDC046F0B5474680B40C0090460028E8
S3151000C0000DD1002A0EDD8F18084E094D306821001B
S3151000C0102B6898470134A742F8D1404603E0012027
S3151000C020404200E0002004BC9046F0BD609601102E
S3151000C03058960110F0B5474680B40E001500013829
S3151000C040022811D8002A12D000240C4B98460C4F07
S3151000C05043461868315D3B689847002809DB013470
S3151000C060A542F5D1200006E00120404203E0002061
S3151000C07001E00120404204BC9046F0BD60960110DC
S3151000C0805C9601100020704700207047C078002889
S3151000C09000D0E2207047C0460020704710B50078E7
S3151000C0A0002806D00348044B98470448044B984789
S3151000C0B0E22010BD906601103D5601109C6E0110D5
S3151000C0C01D55011010B50078002806D00348044B02
S3151000C0D098470448044B9847E22010BD906601101B
S3151000C0E03D560110B06E01101D55011010B504001B
S3151000C0F0C078002808D00548054B9847A2782188B3
S3151000C1000448054B9847E22010BDC04690660110C2
S3151000C1103D560110C46E01101D550110F8B50400EE
S3151000C120194B9B2292009D180127002618001A0011
S3151000C130563A11882288914219D11A78052A01D0C7
S3151000C140082A01D1077012E0072A0FD892000F496A
S3151000C1508A5897461E700E4A1278002A07D00C4A43
S3151000C1601278013AD2B20A490A7000E006707C339E
S3151000C170AB42DBD10748084B98472288A17807487D
S3151000C180074B98470020F8BDDA960110386D01105C
S3151000C190E8980110906601103D560110FC6E0110D2
S3151000C1A01D550110F8B506000188284B00241A8980
S3151000C1B08A4204D11A005E321278062A2ED0013431
S3151000C1C0E4B27C33052CF2D139E0204963011A1B05
S3151000C1D092008A18157614005E34072323701C48C3
S3151000C1E01C4B98471C481D4B9847E2252BE01848D6
S3151000C1F0184B98471A48194B9847144963011A1B4C
S3151000C20092008A1810005E3008270770F0781075B3
S3151000C210B2781C1BA4000C19227614E0B578002DF8
S3151000C220E5D0D2E70A4E30000A4DA8470C480B4C11
S3151000C230A0473000A8470B48A047E22503E0B57891
S3151000C240002DC2D1EEE72800F8BDC0467C9601103D
S3151000C250906601103D5601102C6F01101D550110EE
S3151000C260406F0110646F011010B50100154B1B785B
S3151000C270DBB2132B12D8134C2378DBB29800C018FC
S3151000C280C000C318104818182922104B9847237855
S3151000C29023780133DBB22370002311E00C480D4BD9
S3151000C2A098470D480D4B98470D4B9847E2230028A9
S3151000C2B006D00748074B98470A48084B9847E22389
S3151000C2C0180010BD8481011060990110C35301102C
S3151000C2D0906601103D5601108C6F01101D5501100E
S3151000C2E09DED0010C46F0110F8B54F464646C0B418
S3151000C2F0050041883A4B00241A898A4204D11A0053
S3151000C3005E321278032A62D00134E4B27C33052CF3
S3151000C310F2D12BE063011C1BA400314B1C195E34B7
S3151000C3202378012B13D92F482F4B98472F48304B82
S3151000C3309847688813212F4B9847061E4BD02948DB
S3151000C340294B98472C482A4B9847E22643E000266B
S3151000C35041E0244E3000244DA8472848244CA047DD
S3151000C3603000A8472648A047E22634E02B79002B58
S3151000C370D0D1EEE71B481C4B984720481C4B9847DA
S3151000C3802A78174B994667013B1B9B004B441A753D
S3151000C3902A791A765E3305221A70381B80004844B3
S3151000C3A03630290022310B32164B98469847381BE7
S3151000C3B0800048444630290032311722C047381BC6
S3151000C3C0800048441A30A91D1C22C04703E02E796C
S3151000C3D0002ECFD09EE730000CBC90469946F8BD93
S3151000C3E07C960110906601103D560110DC6F01100D
S3151000C3F01D550110BDED0010FC6F011018700110D5
S3151000C40044700110C353011010B50088782301221F
S3151000C4100121024CA047002010BDC046DDED0010E2
S3151000C420F0B557464E464546E0B484B0040009229E
S3151000C430002101A86A4B984725886A490A000023FB
S3151000C4401089A84216D110005E300078022811D14A
S3151000C45064485A01D61AB60086195E36062232701C
S3151000C460F93213405A01D21A92008218127DD0075F
S3151000C47005D41BE001337C32052BE1D11EE0E078B8
S3151000C480002813D05901C91A8B005649C9181A31F8
S3151000C4902088554B9847002800D19BE05348544BB1
S3151000C4A098475448544B9847E22093E05A01D31AC0
S3151000C4B09B004C4AD3185E3302221A70258800223C
S3151000C4C0002316000889A8420DD108005E300078B6
S3151000C4D0022808D15201921B9600424A92195E32E6
S3151000C4E00321117005E00133DBB201327C31052BDB
S3151000C4F0E7D101AAE17891700121517003311170D1
S3151000C5001F005A01D21A92003649525C022A04D1EF
S3151000C51001AA03219171D17103E001AA0121917140
S3151000C520D17101AA1021517111717A01D21B920099
S3151000C5302C498A18127E402A34D15A01D31A9B00EC
S3151000C5409A461E0060367618554668356D182B4B80
S3151000C55099460F239846C847434618403070C84737
S3151000C56043461840B0740136AE42F4D15646703682
S3151000C5701C4AB618214B99460F239846C84743467E
S3151000C580184028700135B542F8D11C4B98477B01ED
S3151000C590DB1B9B00134AD3181A00703210807A33B3
S3151000C5A010221A707A01D71BBF0060370D4ABA18CD
S3151000C5B02088002301A9124CA04700280AD001ABFD
S3151000C5C000229A705A700948094B98470D480A4B31
S3151000C5D09847E22004B01CBC90469946A246F0BD8E
S3151000C5E0D55301107C960110A1F900109066011028
S3151000C5F03D560110747001101D5501105156011051
S3151000C600B5F700108C700110F0B55F4656464D46D2
S3151000C6104446F0B485B083460488484A0021002376
S3151000C6201089A0420DD110005E300078022808D182
S3151000C6304A01521A9500414A52195E32032111706D
S3151000C64005E00133DBB201317C32052BE8D101AABA
S3151000C650002111729170517003201070D1701F005B
S3151000C6605A01D21A92003549525C022A04D101AA03
S3151000C67003219171D17103E001AA01219171D17148
S3151000C68001AA1021517111717A01D21B92002B4906
S3151000C6908A18127E402A31D15A01D31A9B009A4623
S3151000C6A01D0060356D18544668346418244B99463D
S3151000C6B00F26C84730402870C8473040A874013547
S3151000C6C0A542F6D1554670351C4AAD181C4B9946F5
S3151000C6D00F239846C8474346184020700134AC4291
S3151000C6E0F8D1174B98477B01DB1B9B00134AD318D5
S3151000C6F01A00703210807A3310221A707A01D71B02
S3151000C700BF0060370D4ABA185B461888002301A986
S3151000C7100C4CA04700280AD001AB00229A705A7020
S3151000C72009480A4B98470A480A4B9847E22005B031
S3151000C7303CBC90469946A246AB46F0BD7C9601108D
S3151000C74051560110B5F70010906601103D560110B4
S3151000C750B87001101D550110F0B585B00500062200
S3151000C7603D4902A83D4EB04701AC042229002000E5
S3151000C770B047E378002B62D139483A4B98473A488C
S3151000C7803A4B984700263A4CFF271E20A047C3B2C3
S3151000C790002B1AD1324F3800324EB0473548334C41
S3151000C7A0A0473800B0473448A04728881321334B98
S3151000C7B098470300E220002B4CD02948294B984774
S3151000C7C02F482A4B9847E22044E01A00303A092AAB
S3151000C7D0DBD802AAB35438402A4B98470136062EA6
S3151000C7E026D0D2E71E481F4B984727481F4B98471D
S3151000C7F00024244E02ABE05CB0470134062CF9D17C
S3151000C80001AB9978288802AA204B9847002821D096
S3151000C8101348144B98471E48144B9847002019E0AC
S3151000C8200F48104B98471B48104B9847002011E0B3
S3151000C8300B480C4B984718480C4B9847D8E701AB58
S3151000C8405A8880235B009A42CCD001AB9B78012B8F
S3151000C850E6D0002005B0F0BD646E0110C353011080
S3151000C860906601103D560110E07001101D55011023
S3151000C870E1D300100871011014710110BDED001004
S3151000C880FC6F01105155011028710110E5F80010C8
S3151000C890607101107871011094710110F8B50600DD
S3151000C8A005882F4B0022002410001989A94216D1A1
S3151000C8B019005E310978012911D929495201101A36
S3151000C8C0800008185E30062303706201131B9B005C
S3151000C8D0CB1870331A8873889A4213D106E0013444
S3151000C8E0E4B201327C33052CDED10BE06101091B69
S3151000C8F089001B4B59187231301D0822194B984765
S3151000C900002815D0184F3800184EB0471848194D42
S3151000C910A8473800B0471848A84763011C1BA40055
S3151000C9200F4B1C1920890521144B9847E22016E05D
S3151000C9306201131B9B00603309495B18141BA4008A
S3151000C9400C19217D308801220D4CA047002806D0F5
S3151000C9500548064B98470B48064B98470020F8BDEC
S3151000C9607C960110A5530110906601103D560110DA
S3151000C970A87101101D550110E0710110BDED0010D8
S3151000C98019FA00103872011030B5002A47D006295E
S3151000C99047D88900284B5B589F46284B05240AE048
S3151000C9A0274B012407E0274B052404E0264B0124DE
S3151000C9B001E0264B0524002816D1196800290BD151
S3151000C9C006E01D000433181F0068002806D100E099
S3151000C9D01D002A6001212CE0043300210131C9B267
S3151000C9E0A142EED3002124E00021012821D11968AB
S3151000C9F08A420CD106E01D000433181F00688242DB
S3151000CA0007D100E01D0000232B60012111E0043343
S3151000CA1000210131C9B2A142EDD3002109E0002164
S3151000CA2007E0002105E00A4B0524C4E7094B012461
S3151000CA30C1E7080030BDC046586D01106896011058
S3151000CA4064960110EC980110A09E01100099011037
S3151000CA50149901105C990110F0B55F4656464D4683
S3151000CA604446F0B48DB006000024724B1C600722B9
S3151000CA7000217148714DA847122200217048A8471D
S3151000CA80704A00217048A847704B1C70CD22920046
S3151000CA9000216F48A8476F4B1C708322920000211B
S3151000CAA06D48A8476D4B9B468023DB009A461A00BB
S3151000CAB000215846A8476A4B994680235B01984641
S3151000CAC01A0000214846A847664F1C22002138004C
S3151000CAD0A8475B46BB605346FB604B463B614346EB
S3151000CAE07B61614B1C605C609C60DC601C615F4B11
S3151000CAF01C605C609C60DC601C615D4B1C605C6053
S3151000CB009C60DC601C615B4B1C605B4B1C605B4B70
S3151000CB101C605C609C60DC601C61594B1C60594C4D
S3151000CB209B239B009846A044444F40257C2200211D
S3151000CB302000B84723005E3300221A7025767C3415
S3151000CB40A045F3D1504B1A7046483E4B43603E4BBE
S3151000CB5003604E4B984700280BD04D4E30004D4D7C
S3151000CB60A8474D484D4CA0473000A8474C48A04711
S3151000CB70FEE74C4A002100204B4CA0474B4A0221AD
S3151000CB800020A04709214A484A4B9847002805D05B
S3151000CB903F48404B98474848404B984707224749DB
S3151000CBA008316846464B98472622002102A8234B97
S3151000CBB09847002E0CD16846424B98476E4600287F
S3151000CBC006D03348334B98473F48344B98476E4608
S3151000CBD002AC0A2323703D4B63800722310003A861
S3151000CBE0374B98470023E37623776377A377E3776A
S3151000CBF02384638480239B00A3842000344B9847AE
S3151000CC00002805D02248234B98473248234B984793
S3151000CC103000314B9847002805D01D481D4B9847CA
S3151000CC202E481E4B98470DB03CBC90469946A246DE
S3151000CC30AB46F0BD8081011088810110D5530110DB
S3151000CC4028990110E2040000A07C011084810110D3
S3151000CC506099011058990110949C0110A078011048
S3151000CC60908101103C99011000990110149901103E
S3151000CC70689601105C99011064960110EC980110E9
S3151000CC80A09E01107C960110E8980110C9E90010C9
S3151000CC90906601103D560110587201101D55011075
S3151000CCA084720110D874011089C90010746E0110B5
S3151000CCB0CC720110E1E80010D8720110646E0110F8
S3151000CCC0C353011015E90010F0720110983A0000D4
S3151000CCD039E900101C7301107DEB00105873011018
S3151000CCE010B500220021064B9847002806D00548AB
S3151000CCF0054B98470548064B9847E22010BDC0469D
S3151000CD0061F90010906601103D560110A8730110CC
S3151000CD101D550110F0B55F464E464546E0B49AB033
S3151000CD200500867A002E00D0C6E07548754FB847C4
S3151000CD302B796A79A97968780290A8780190E878B1
S3151000CD4000907148714CA0476D48B84729897048C2
S3151000CD50A047122229006F486F4B98470495072267
S3151000CD6029006E486E4B9847002800D1ADE02B780D
S3151000CD70022B00D0A9E05022002106A8694B984743
S3151000CD80694F00230BE0591C147806A8C4540132CD
S3151000CD908BB2B342F7D17C37331E502B04D01E0012
S3151000CDA01036B6B23A00EEE706AA290005205F4B08
S3151000CDB09847061E00D19CE05148524B98475C4854
S3151000CDC0524B9847E22694E0E7B20594072204995D
S3151000CDD04846D847002809D1059A53019B1A9A004C
S3151000CDE0544B9B185E3302221A702BE001347C23BD
S3151000CDF09C46E144052CE7D172E01C00117800290D
S3151000CE001AD101E00024002763019946181B8000FF
S3151000CE10484B98464044122229003F4B9847464AB1
S3151000CE2013780133DBB213704B461B1B9B00434434
S3151000CE305E3302221A7005E0791CCFB201337C32C0
S3151000CE40052FDAD1072229003448354B9847002898
S3151000CE500CD17B01DB1B9B00364AD31805229A7432
S3151000CE60023200212D482F4B984742E0314B98460D
S3151000CE707C01E31B9B0043440A229A74033A002167
S3151000CE802648284B9847E41BA4004444A37C0A2B4D
S3151000CE902FD10DE01A481B4B9847274B1978C9B26A
S3151000CEA026481A4B984728891321254B984720E086
S3151000CEB02889244B98471CE01148124B9847A97AA9
S3151000CEC02148124B9847002613E01B4B1B78DBB208
S3151000CED0042BDFD8174B99460024114B9B4673E75A
S3151000CEE05E23144AD35C002B8CD0184A01230127E9
S3151000CEF083E730001AB01CBC90469946A346F0BD95
S3151000CF00906601103D560110C87301101D55011091
S3151000CF100C74011028990110C35301108881011057
S3151000CF20A5530110D5530110C2960110E9ED00105A
S3151000CF30247401107C960110E898011048740110B1
S3151000CF40BDED0010E1CC001084740110569701104D
S3151000CF50F0B5474680B40378002B41D12F4D0024FD
S3151000CF60461C2F4F102229003000B84700283FD00A
S3151000CF700134E4B27C35052CF4D131E0DDB21C006D
S3151000CF801178002922D101E000240025254B98466E
S3151000CF906601371BBF004744122223493800234B32
S3151000CFA09847234A13780133DBB213705E37022396
S3151000CFB03B70341BA40044440833A3746B015D1BFF
S3151000CFC0AD004544AB7C0A2B23D104E001337C32FF
S3151000CFD0052BD3D11DE0144B1889164B984718E032
S3151000CFE05E23104AD35C002BCED0134A0123C5E72B
S3151000CFF00C4863011A1B9200821811005E3102253B
S3151000D0000D700A219174100012220749074B984798
S3151000D010E1E7002004BC9046F0BDC046C296011060
S3151000D020A55301107C96011028990110C3530110C5
S3151000D030E8980110E1CC001056970110F8B50D00D4
S3151000D0403B2872D883003C4AD3589F46840000265A
S3151000D0503A4FBB59002B04D01B59002B01D0280086
S3151000D06098470436142EF4D165E01338C4B2A400E0
S3151000D0700026334FBB59002B04D01B59002B01D06F
S3151000D080280098470436142EF4D154E01D38C4B243
S3151000D090A40000262B4FBB59002B04D01B59002B84
S3151000D0A001D0280098470436142EF4D143E02738CF
S3151000D0B0C0B2254B1B68002B3DD08000C358002BF7
S3151000D0C039D00800984736E02D38C0B21F4B1B6880
S3151000D0D0002B30D08000C358002B2CD00800984766
S3151000D0E029E03638C4B2A4000026194FBB59002BCC
S3151000D0F004D01B59002B01D0280098470436142E53
S3151000D100F4D118E03838C0B2124B1B68002B12D07D
S3151000D1108000C358002B0ED0080098470BE00E4B2A
S3151000D1201B68002B07D0984705E00C4D28000C4CC7
S3151000D130A0472800A047F8BD746D01100099011092
S3151000D14014990110689601105C99011064960110EB
S3151000D150EC980110A09E01108081011090660110BC
S3151000D1603D56011070B504000D4B1B78012B01D1F3
S3151000D1700C4B984722000C490C480D4B984704005D
S3151000D1800500074B1B78012B01D10A4B9847002D40
S3151000D19004D1064B18780449074B9847200070BDF8
S3151000D1A08F81011059DB0010949C011058990110C1
S3151000D1B071E1001031DB00103DD0001010B590B0B9
S3151000D1C008AC032262700223A3701633E370227137
S3151000D1D063710132A271E3710B32227263720F3BDB
S3151000D1E02370053AA272E3720BAA104B03CB03C24B
S3151000D1F01B78137007236A461370F8335370062290
S3151000D2000B496B46981C0B4B984708236A46152109
S3151000D2102000094CA047002805D00848084B98471D
S3151000D2200848094B9847002010B010BDCC72011069
S3151000D230AC740110C3530110D1EB001090660110AD
S3151000D2403D560110B47401101D55011010B50E4B4A
S3151000D2501B78012B0BD102220B4B1A700B4B1B6840
S3151000D260002B10D102210A480A4B98470BE0074BB6
S3151000D2701B68002B07D0084C207898470122210004
S3151000D2800348064B984710BD949101109C910110CC
S3151000D290A49E0110D5BF00109891011079BF0010FF
S3151000D2A070B506000D00034C29003000A047002879
S3151000D2B0FAD170BD65BF001070B506000D00034CA5
S3151000D2C029003000A0470028FAD170BD55BF0010C4
S3151000D2D070B500210020194B9847194C2000194BA6
S3151000D2E09847E1235B0223600223A3600322E260D6
S3151000D2F00132226101326261A361E36123626362DA
S3151000D300114D124B1D60124A124B1A60124A134BE2
S3151000D3101A60220012492800124B9847124E3368A1
S3151000D32098680021114CA047336858680021A0471F
S3151000D33002220F4928000F4B984770BD75AF001099
S3151000D340C89E01106DBD0010A49E011060960110BC
S3151000D350B9D200105C960110A1D200105896011097
S3151000D3600040004099BD001070780110ED56011074
S3151000D3704DD20010A1BF0010F0B583B005000D4CC2
S3151000D380A047A0470C4FB8470C4E0D4A0D4BB0475F
S3151000D39000900191FA2080006843B84702000B0004
S3151000D3A000980199B047084B9847084B186003B08E
S3151000D3B0F0BDC046F9AF0010CD5001100144011068
S3151000D3C0C7AEFE19EFD8093F0D2B01109091011031
S3151000D3D0024B1A68501E18607047C0469091011093
S3151000D3E070B504000122114B1A70114B1B68002BEB
S3151000D3F003D102210F48104B984720000F4B984736
S3151000D4000F4900230B7001220A480E4B9847074C10
S3151000D4100D4D2378022B02D0A8470028F9D10022FF
S3151000D420024B1A70064B187870BDC04694910110C5
S3151000D4309C910110A49E0110B5BF001079D3001065
S3151000D4409891011079BF0010D1D30010024B1A68C1
S3151000D450026018607047C046A491011030B50B4B9E
S3151000D4601C68002C11D025681D6000232360A16064
S3151000D470E280A080064B1A68002A02D11C6004E0E4
S3151000D4801A001368002BFBD1146030BDA491011053
S3151000D490A091011070B50023064A1360064A136066
S3151000D4A0064C26007836064D2000A8470C34B442A8
S3151000D4B0FAD170BDA4910110A0910110A89101108C
S3151000D4C04DD4001070B50400134B1D68134B1B6828
S3151000D4D098470C2C1FD00C3CE388052B1BD0EB0770
S3151000D4E014D40F4B1B68022098470E4B1B689847A5
S3151000D4F00D4C0320236898470028FAD10B4B1B6864
