S0170000534D535F7065726970686572616C312E737265635E
S3151000800010B5184B184A9A4203D0184B154A9A4283
S3151000801004D3174B174A9A4210D31EE0164B134A35
S315100080200332D21A92080132920000230D480E49EB
S31510008030CC58C45004339342FAD1EAE70F4B0C499B
S315100080400331C91A8908013189000023094C00201F
S315100080501A19106004338B42FAD1094B9847094B11
S31510008060984710BD9485011094850110048601105F
S31510008070FCB40110048601109885011008860110C1
S31510008080D561011089E6001010B5064C2378002B37
S3151000809007D1054B002B02D0044800E000BF012396
S315100080A0237010BD04860110000000009485011095
S315100080B0084B10B5002B03D00749084800E000BF55
S315100080C007480368002B00D110BD064B002BFBD0D0
S315100080D09847F9E700000000088601109485011002
S315100080E09485011000000000012303704370FA23E9
S315100080F0DB0143607047C046064B00225A601A687F
S3151000810003218A431A6019008022D2010B68134298
S31510008110FCD1704700D00040024A116810230B436F
S315100081201360704700D0004010B5044B9847044BBD
S315100081301B68002B00D0984710BDC046198100104F
S3151000814020860110014B18607047C046208601102A
S315100081500022014B1A60704720860110F0B583B0DB
S315100081600022294B1A730378022B05D1264A117B5C
S3151000817001330B43137305E0012B03D1224A117B04
S315100081800B431373214B1A6853001FD01F4D002742
S315100081902C26FF368021C9012F6001970197019B7C
S315100081A0B34206D8C046019B01330193019BB342EB
S315100081B0F8D944780B00002C03D180239B0000E0F3
S315100081C02A681342FCD12A685300E5D14378002B64
S315100081D005D10E4B42685A6001221A6004E00B4B1F
S315100081E042685A6002221A604378012B06D1074969
S315100081F0E022D2010B6813409342FBD104492B2095
S31510008200044B984703B0F0BD00E0004000D000409A
S315100082102981001009C40010F0B557464E46454650
S31510008220E0B482B04D881723002D33D0036828247C
S315100082301A5DD207FCD4012234241A55143C1A555F
S315100082400A8852000224FF34224392B21A80F13C6B
S315100082501A7A2242FCD000226C1EA4462024A14683
S315100082600024A04601264479002C04D1624502D18F
S315100082704C4647461F551C7B344208D0541CA24618
S315100082801F794C68A75452466C46E280E288AA428F
S31510008290E9D30023180002B01CBC90469946A246AA
S315100082A0F0BDC046F0B5844602684E882824135D9A
S315100082B0DB07FCD4012334241355143C13550B88C7
S315100082C05B00E03423439BB2138000240125137A0C
S315100082D0DBB21D4204D0671C4868045D1480BCB232
S315100082E0B442F4D3DB0603D41021137A0B42FCD02C
S315100082F063465B79002B02D100212033D154002034
S31510008300F0BDC046032303700D334380083B436022
S315100083100133C360073B83600361704770B5040087
S3151000832015000160002826D0002A26D028228B5C52
S31510008330DB07FCD400230B752368114A934203D143
S315100083400320104B984706E017200F4A934215D189
S3151000835002300C4B98472468298928790B4EB04770
S31510008360298A287BB0472B7823746B8823830123B3
S315100083702377002002E0172000E0172070BDC046CA
S3151000838000300040A1BF00100034004029B5001095
S3151000839010B5002808D01723002906D000234371F2
S315100083A0034B9847030000E01723180010BDC04682
S315100083B01982001010B5002808D01723002906D0FE
S315100083C000234371034B9847030000E0172318005E
S315100083D010BDC046A582001010B5002808D017237E
S315100083E0002906D0163B4371034B9847030000E063
S315100083F01723180010BDC046A58200100300064AB8
S315100084001268002A02D10549034A1160024A10680F
S31510008410C31813607047C0462486011000BD0110B2
S31510008420012040427047C04680239B014B600020CC
S315100084307047C0460120704700207047F0B55F4670
S3151000844056464D464446F0B49BB00C1C161C07937A
S31510008450FD4B1A6E92465A6E91469A6E0192DB6EDB
S315100084600293FA4D011C0390A8470090211C201C72
S31510008470A847F74F0490011C0098B8470590311C87
S31510008480301CA847069004990098B84700900699A2
S315100084900098B847EF4B984704900021EE4B984749
S315100084A0002800D03CE2E94D2699081CA847009008
S315100084B02799081CA847E64F0590011C0098B84755
S315100084C006902899081CA847089005990098B8475F
S315100084D0009008990098B847DE4B9847051C002174
S315100084E0DD4B9847002800D01AE2D84F494650462F
S315100084F0B847059001995046B8470C9002995046D6
S31510008500B8470D9049464846B8470E9001994846D7
S31510008510B8470F9002994846B8471090019B191C0E
S31510008520181CB847069002990198B8471190029AFC
S31510008530111C101CB8470890C84988460499FE209B
S315100085408005C047011C00900398B8471290009907
S31510008550201CB84713900099301CB8471490291C5A
S31510008560FE208005C047041C011C2698B847061C2F
S31510008570211C2798B8470090211C2898B8470390CB
S31510008580B34D311C1596301CA8470990B44C06996A
S31510008590FC208005A0470899A0471690009B191C3F
S315100085A0181CA8470A900D990F98A0471790039E7C
S315100085B0311C301CA8470B9010990C98A84718909E
S315100085C016990998B847061C17990A98B847011CB6
S315100085D0301CA847061C18990B98B847011C301C6C
S315100085E0A847061C0E99FC208005A04719900F99E4
S315100085F00D98A8470999B847049008991998A04763
S315100086000A99B847011C0498A8470490059911982F
S31510008610A0470B99B847011C0498A8470490311C31
S31510008620301CB8470D90311C301CB847061C049AF4
S31510008630111C101CB847011C301CA847854A9346CC
S315100086409047061C0C991098A0470490119905980C
S31510008650A847059006991998A0470C90049B191CD9
S31510008660181CA8470D90059A111C101CA8470F90AE
S3151000867051465046B8470E99A0470699A047089903
S31510008680A8470890311C301CA847061C0499099865
S31510008690B847069005990A98B847011C0698A84746
S315100086A006900C990B98B847011C0698A847011C10
S315100086B0A8470690311C1698B84709900699049851
S315100086C0B847011C0998A8470490311C1798B84759
S315100086D0099006990598B847011C0998A84709906A
S315100086E0311C1898B847061C06990C98B847011CF7
S315100086F0301CA84706905B4B00261E605E609E608D
S3151000870008991398B84705900F991498B847011C03
S315100087100598A047059006990098B8470A900999B8
S315100087200398B847011C0A98A047011C0598A8474A
S315100087304D49B8470799A847311CA84705900D9988
S315100087401498B847079008991298B847011C0798CB
S31510008750A047079004990398B8470390069915986F
S31510008760B847011C0398A047011C0798A8473E4923
S31510008770B8472499A847311CA84706900F99129814
S31510008780B84703900D991398B847011C0398A04752
S31510008790039009991598B847079004990098B84717
S315100087A0011C0798A047011C0398A8472E49B847F3
S315100087B02599A847311CA847061CFC2189052B4B77
S315100087C01868B8470790802109064944080005999A
S315100087D0B847009006990198B847011C0098A04721
S315100087E00090311C0298B847011C0098A0470799C1
S315100087F0B8475146A8470090011C0598B847039002
S31510008800311C0198B847011C0398A8470390069994
S315100088100298B847011C0398A0470799B8474946DC
S31510008820A847039000990698B8470490311C48460B
S31510008830B847011C0498A047049005990298B847B8
S31510008840011C049814E0C046D0A001103D3D011053
S31510008850BD360110F12101109D350110A939011005
S31510008860653F0110B0A1011000002041F8A20110CF
S31510008870A8470799B8470199A84704900099301C52
S31510008880B847061C06994846B847011C301CA8472D
S31510008890061C05990198B847011C301CA04707997A
S315100088A0B8470299A847041C009B191C181CB84706
S315100088B0061C0398011CB847011C0190301CA847E0
S315100088C00290049A111C101CB847011C05900298BE
S315100088D0A8470290211C201CB84706900199301C0D
S315100088E0A847061C0599301CA847061C0699301C7B
S315100088F0A847D847011CFE208005C047051C0C4E12
S31510008900011C0098B8473066291C0398B847706652
S31510008910291C0498B847B066291C201CB847F06675
S315100089201BB03CBC90469946A246AB46F0BDC0462D
S31510008930D0A00110034B1B78034B1B78034B1B78FD
S3151000894000207047ACA10110CCA00110DBA20110D1
S3151000895070B51148114DA847114C6378013BDBB235
S3151000896063701048104B98471048A847012252428E
S315100089700F4B1A6001200F4B984700220E4B1A70AE
S31510008980222323700D4B1B78002B02D101320C4B86
S315100089901A70002070BDC0460C740110AD63011032
S315100089A0ACA1011014740110CD64011018740110DB
S315100089B0A4A1011031A80010DBA20110CCA0011057
S315100089C0A9A1011010B50120084B98470022084BA9
S315100089D01A702232074B1A70074B1B78002B02D1E4
S315100089E0213A064B1A70002010BDC04631A800105F
S315100089F0DBA20110ACA10110CCA00110A9A101109D
S31510008A000023024A1370024A13807047ACA101106A
S31510008A10FCA2011010B50222024B1A701620024B4E
S31510008A20984710BDDBA20110E9A2001010B51B4833
S31510008A301B4B98471B4B1B78002B05D101221A4B59
S31510008A401A701A4B984728E0164B1B78DBB2212B6D
S31510008A5015D002D8202B03D016E0232B08D913E00B
S31510008A60134B984700280FD111220E4B1A700BE0AA
S31510008A7000212B230F4AD15400200F4B98470F4B40
S31510008A80188813210E4B98471122064B1A700E3A6E
S31510008A900C4B1A7016200C4B984710BD24740110FD
S31510008AA04D930010ACA10110A9A101102DE40010E6
S31510008AB0A9F7001040A2011069A50010AEA101107F
S31510008AC0D5F70010DBA20110E9A2001010B5112293
S31510008AD0024B1A70024B9847002010BDACA1011032
S31510008AE02D8A001010B50C4B1B78202B10D1028943
S31510008AF00A4B1A802122084B1A700948094B9847CD
S31510008B0009480A4B9847FA225200094B1A6001E0AD
S31510008B10084B9847002010BDACA10110CEA2011041
S31510008B2014740110CD6401103C740110AD63011072
S31510008B30A4A101102D8A001010B50E4B1B78212B05
S31510008B4014D122220B4B1A700B480C4B984701215B
S31510008B5001200B4B98470B480B4B98470B480C4B77
S31510008B609847012252420B4B1A6001E00A4B984774
S31510008B70002010BDACA101104C7401104D930010D3
S31510008B80F1A5001014740110CD64011018740110B1
S31510008B90AD630110A4A101102D8A001010B584B088
S31510008BA02022144B1A70144B9847041E07D01348F2
S31510008BB0134B98471348144B9847200018E000238E
S31510008BC00293124B0193C823DB000093002300226B
S31510008BD0012100200E4CA04704000020002C07D0D5
S31510008BE00648074B984721000A48074B9847E2204A
S31510008BF004B010BDACA1011091DA0010147401106C
S31510008C00CD64011060740110AD6301108F02000075
S31510008C106DF600109474011010B50400164B1B78F5
S31510008C20222B0AD100210933144AD1540020144BA7
S31510008C30984700210020134B98470F4B11221A70AA
S31510008C401B78114B1B78114B1B78A3781A2B0BD062
S31510008C50DAB21A2A04D8052B06D0082B07D103E05E
S31510008C60292B01D03B2B02D1094B984701E0094B28
S31510008C709847002010BDC046ACA1011040A20110BB
S31510008C8069A50010F1A50010CCA00110DBA20110FF
S31510008C909D8B00102D8A001030B587B001282DD07D
S31510008CA0002802D002283FD098E0002201AB1A70AB
S31510008CB0604B1B79002B0AD05E4B5A7900237E2A13
S31510008CC001D80132D3B25B4A537101AA1370594BC2
S31510008CD09B7A002B0ED0574BDB7AFF2B02D0013339
S31510008CE0DBB200E00023534AD37201AA803B11780D
S31510008CF00B4313704F4B9D8C012271E04E490A6A4B
S31510008D0001AB101618701014587010129870DA7093
S31510008D10CA69101618711014587110129871DA71F8
S31510008D204023CD5A08225BE0444A5223D15E01AB60
S31510008D301970091259705421515E99700912D9701F
S31510008D405621515E1971091259714C21515E997152
S31510008D500912D9714E21515E197209125972502198
S31510008D60515E99720912D9728C23D55A1A3BD35C6B
S31510008D70002B14D05823D15E01AB19730912597305
S31510008D805A21515E99730912D9735C21515E197477
S31510008D900912597400217223D154122208E001AB32
S31510008DA000221A735A739A73DA731A745A740C323D
S31510008DB073232249CB5C002B0BD00A005E23D35EB3
S31510008DC001A98B741B12CB7400217323D154142266
S31510008DD006E001AB00219974D97401E00022002548
S31510008DE092B201A92800164B9847041E1FD1154BA5
S31510008DF018882900144B9847041E15D1134A537826
S31510008E000133DBB25370124B1988013189B21980C4
S31510008E101048114DA8471148114B98471148A847BB
S31510008E200222114B1A6002E010480B4B98472000A3
S31510008E3007B030BDBCA1011040A20110D0A0011096
S31510008E4051FF0010AEA10110F1000110ACA10110EC
S31510008E50FCA20110D8740110AD6301101474011036
S31510008E60CD640110E4740110A4A10110F074011076
S31510008E7010B582B00100123101230193030014339F
S31510008E80009300230022024CA04702B010BDC0463A
S31510008E9031FF0010F0B54F464646C0B483B0944635
S31510008EA0012810D0002802D0022819D025E0BB23B3
S31510008EB050245325BE265A2757201C2290461B3A6B
S31510008EC00192914623E0EE2350245325BE265A27BD
S31510008ED057201C229046143A0192063A914616E003
S31510008EE0112350245325BE265A2757201C2290465C
S31510008EF0083A0192113A914609E000230024002510
S31510008F0000260027002000229046019291464A46EC
S31510008F104A8202220A7042464A708870CF700E71D9
S31510008F204D718C71CB710B7200234B728B72CB729D
S31510008F300B734B738B73CB730B7412240C856246B5
S31510008F40CA626A4692880A864A8611203422885452
S31510008F508B6300228B87CB8733300A5401300A5437
S31510008F6001300A5448228B5202328B5202328B52F3
S31510008F700B6403B00CBC90469946F0BD10B5054B7A
S31510008F800122DA705878002300220221024CA047F1
S31510008F9010BDC046BCA1011061E1001010B5054B13
S31510008FA001225A72D879002300220221024CA047CE
S31510008FB010BDC046BCA1011061E10010084B002293
S31510008FC05A731A701F2159701E399970DA705A71B6
S31510008FD099711D20D87119725A72DA727047C0468B
S31510008FE0BCA10110F0B557464E464546E0B482B0D6
S31510008FF001AC20001D4B9A469847002399462370D2
S315100090000223984663700127E770194E7078210085
S31510009010184DA8472000D0474B462370434663702F
S31510009020E770F0792100A847002805D01248134BA5
S3151000903098471348134B984701AC20000B4B9847A1
S31510009040002323706370210017200A4B98470028CD
S3151000905005D00948094B98470B480A4B984702B068
S315100090601CBC90469946A246F0BDC04635B20010CB
S31510009070BCA1011045B2001014740110CD6401108A
S315100090807C750110AD630110B475011070B5054DF6
S31510009090687802220449054CA047E879022204495F
S315100090A0A04770BDBCA101107D8F001075B60010D1
S315100090B09D8F001070B51F20084CA04705001D207D
S315100090C0A047002D04D00323002804D1023B02E060
S315100090D0431E98414300180070BDC046FDB30010F2
S315100090E070B50500474C637B2373474B98476073F5
S315100090F0002D03D14548464B984704E0012D75D104
S315100091004448434B98473F4B5B7B012B06D0002BC3
S3151000911067D0022B24D0032B43D06AE03E4B1B783A
S31510009120DBB2002B03D0223B012B64D80EE00122C8
S315100091303A4B1A7000233A4A13703A4A13700022B7
S31510009140FA210120384B9847002059E00023334A72
S315100091501370334A13700020344B984700204FE0A9
S315100091602D4B1B78DBB2002B02D0222B0FD045E003
S3151000917001222A4B1A700023294A1370294A1370A8
S315100091800022FA210120284B9847002038E00023BE
S31510009190224A1370224A13700020244B984700204D
S315100091A02EE01D4B1B78002B08D11C4A13701C4A4D
S315100091B0137001221E4B1A70002021E0002100209E
S315100091C01C4B98470222154B1A700023144A137031
S315100091D0144A13700022FA210120134B98470020DD
S315100091E00EE00122124B1A70002009E001204042C5
S315100091F006E0002004E00120404201E00120404248
S3151000920070BDC046BCA10110B5900010FC750110D0
S315100092104D93001010760110ACA10110CCA00110D6
S31510009220DBA20110FEA20110D1A70010998C00102C
S31510009230A9A1011069A5001010B50C00002804D1D1
S315100092400C4B58780C4B984705E0012803D1094B75
S3151000925058780A4B9847002C04D1064BD879064B00
S31510009260984705E0012C03D1024BD879034B984758
S3151000927010BDC046BCA1011045B70010A1B7001023
S3151000928010B582B06B46DA1D00231370094C21000D
S315100092900020094B98472000084B9847041E06D01B
S315100092A00748084B984721000748084B984702B0D3
S315100092B010BDC046CCA10110958E0010718E001005
S315100092C014740110CD64011024760110AD630110E1
S315100092D010B582B001AC2000154B984701232370BE
S315100092E021000E20134B9847002805D01248134B27
S315100092F098471348134B984700210E20124B984756
S3151000930001AC20000A4B98470123237021000F203F
S31510009310084B9847002805D00748084B9847084837
S31510009320084B984700210F20074B984702B010BDF5
S3151000933035B2001045B2001014740110CD6401103E
S3151000934068760110AD6301109DB40010044B1B78B4
S31510009350044B1B78044B1B78044B1B787047C04694
S31510009360ACA10110CCA00110DBA20110A8A1011024
S3151000937030B587B01020144CA047144B58601020FD
S31510009380A047134B586001AC2000124B984703239B
S3151000939023701B336380163B63600133E360073B26
S315100093A0A36023610C4D0D4C01AA0D492800A0475E
S315100093B00028F9D1084B1A682821535CDB07FCD426
S315100093C00123137507B030BD21620110E0A2011010
S315100093D0C4A2011005830010D0A201101D83001035
S315100093E000300040F8B5124C2080501CC0B260808E
S315100093F060680170002A0ED00020411C185C656858
S3151000940068540800C9B28A42F7D804E0013CA4B2F5
S31510009410002C04D109E0074C054E074D074F3100CB
S315100094202800B8470028F1D101E001204042F8BDDC
S31510009430E0A20110E9030000D0A20110B5830010CC
S31510009440F0B5474680B41700984680B21D4B188079
S3151000945001225A805B6819701B4B18805F801B4C69
S31510009460184E1B4D03E0013CA4B2002C1FD0310056
S315100094701848A8470028F6D1144E134D164C03E091
S31510009480013EB6B2002E15D029001248A04700287A
S31510009490F6D1002F11D000230B494A68D25C404602
S315100094A0C2540133DAB29742F7D8002006E0012001
S315100094B0404203E00120404200E0002004BC9046F8
S315100094C0F0BDC046E0A20110C4A20110E9030000DD
S315100094D0D9830010D0A201109183001010B570230B
S315100094E0064AD35C002B08D001217123D1540023E6
S315100094F0002201311E20024CA04710BDD0A0011041
S3151000950061E1001010B582B001AC20000A4B9847FB
S315100095100023237002336370013BE37021001E2089
S31510009520064B9847002805D00548064B984706482D
S31510009530064B984702B010BD35B2001045B2001068
S3151000954014740110CD64011088760110AD630110FA
S3151000955010B5022202491E20024B984710BDC04684
S31510009560DD94001075B6001010B51E20034B9847F9
S3151000957001217023024AD15410BDC04645B70010D0
S31510009580D0A0011010B51E20034B98470021702360
S31510009590024AD15410BDC046A1B70010D0A0011088
S315100095A010B582B06B46DA1D00231370094C2100EA
S315100095B00220094B98472000084B9847041E06D0F6
S315100095C00748084B984721000748084B984702B0B0
S315100095D010BDC04648A10110958E0010718E001066
S315100095E014740110CD640110C8760110AD6301101A
S315100095F030B583B004006B4606223B2169200C4D22
S31510009600A8476B461B781B026A4652781343238081
S315100096106B469B781B026A46D278134363806B466F
S315100096201B791B026A4652791343A38003B030BDDF
S315100096304194001030B583B004006B4606224321D6
S3151000964069200C4DA8476B461B781B026A46527858
S31510009650134323806B469B781B026A46D2781343CA
S3151000966063806B461B791B026A4652791343A380AB
S3151000967003B030BD41940010002802D0012802D05A
S3151000968003E0034802E0034800E000207047C046AC
S31510009690FFEBBF40FFEBBF3F012808D0002804D0E6
S315100096A0022806D0032806D007E0054806E005483C
S315100096B004E0054802E0054800E000207047C04677
S315100096C00000FA3B00007A3C0000FA3C00007A3DAC
S315100096D0012809D0002804D0022808D0032809D070
S315100096E00AE0E2239B0507E0E4239B0504E0E6235A
S315100096F09B0501E0E8239B05181C704710B582B046
S315100097006B4607331A700122014CA04702B010BDF8
S31510009710E5930010F0B55F4656464D464446F0B404
S315100097208FB00390059180226B216920CD4CA04704
S315100097306420CD4DA84701226B216920A047002245
S315100097406C216920A047C820A8470022382169202B
S31510009750A047002223216920A04700226B216920FF
S31510009760A047002224216920A04700226A216920EF
S31510009770A0470C226A216920A0470F20A847012282
S315100097801A216920A047002219216920A04700222A
S315100097901B216920A04700221C216920A0474022D6
S315100097A06A216920A047782223216920A047282012
S315100097B0A847002223216920A0470BAC23000222D0
S315100097C072216920A94DA8472078000263781843B2
S315100097D00C21A74B984783B20293002B42D000234B
S315100097E0984600279B469A46994600250BAC01934E
S315100097F023000C22742169209C4EB04723781B024B
S31510009800627813431BB2019A94469C4463460193B3
S31510009810A3781B02E27813431BB2FF1823791B02AD
S31510009820627913431BB29944A3791B02E27913435D
S315100098301BB29844237A1B02627A13431BB29A44D2
S31510009840A37A1B02E27A13431BB29B440135ADB2D5
S31510009850029BAB42CCD15346BA465A46E346160053
S315100098601F0006E000239846002700269B469A46CE
S315100098709946804C02995846A0470500029B9B4684
S3151000988019005046A047824659464846A047814689
S3151000989059464046A047019059463800A0470290C5
S315100098A059463000A04704904B46002B03DD724BFF
S315100098B09C46E14403E08023DB019C46E144019B86
S315100098C05942CA1703231A40521891109212D2B253
S315100098D00BAC2270617002994842C11719400918E1
S315100098E088108912A170E070049E7142C817034057
S315100098F05B1899109B122371617113216920594EBF
S31510009900B047627814216920B047A27815216920E2
S31510009910B047E27816216920B047227917216920CD
S31510009920B047627918216920B047544F0198B8475B
S31510009930534E5449B047039B18600298B847514993
S31510009940B047039B58600498B8474E49B047039BED
S3151000995098602300022277216920444EB046B04712
S3151000996027783F0263781F430897230002227A2143
S315100099706920B0472678360263781E43099623007D
S3151000998002227D216920C04723781B026178194382
S315100099900A9107AB00221A705A709A70002301249C
S315100099A09A0008A81258224201D007AA9C540133E3
S315100099B0032BF5D1EA1704331A405219D210BF1AE5
S315100099C05246D01718405044C010361A4A46D2177D
S315100099D013404B44DA108B1A3A12D2B20BAC2270E7
S315100099E007A90878074367703012A07048780643B5
S315100099F0E6701812207189780B43637177216920FC
S31510009A00184EB047627878216920B047A2787A213B
S31510009A106920B047E2787B216920B04722797D2101
S31510009A206920B04762797E216920B047134E28001D
S31510009A30B047154CE2218905A047059D2860504680
S31510009A40B047E2218905A04768604846B047E22141
S31510009A508905A047A8600FB03CBC90469946A2461F
S31510009A60AB46F0BDFD960010A1AB0010419400105E
S31510009A701D3201103133011000C0FFFFE542011005
S31510009A80A9390110000003433D3D0110F0B55F46B2
S31510009A9056464D464446F0B483B08046364C0123B4
S31510009AA0A3700133E370354B6363354BA363354BBA
S31510009AB0E36300220A210C20334EB0470A20334BB1
S31510009AC098470F220A210C20B0470A202F4B98479F
S31510009AD001AF3B00032210210C202D4DA8473878EA
S31510009AE080382C4B9B4698472B4B9A46984700221A
S31510009AF02A4B2B4DA84700222A4B2B4DA8472B4B00
S31510009B00994698474346186078788038D847D047A2
S31510009B100022224B224DA8470022224B224DA84755
S31510009B20C84743465860B8788038D847D04700228F
S31510009B301A4B1B4DA84700221A4B1B4DA847C84766
S31510009B404346986000220A210C20B0470A200F4B8A
S31510009B509847A2781201E3781A43D2B20A210C2050
S31510009B60B0470A20094B984703B03CBC904699462B
S31510009B70A246AB46F0BDC046D0A001100000EB4394
S31510009B800000F0420000FA42FD960010A1AB001052
S31510009B9041940010E5420110CD5F01100000703FA6
S31510009BA0915201100000F03FF14301107560011051
S31510009BB030B583B001AC23000122024DA8472078AE
S31510009BC003B030BD4194001010B500210C20034B9A
S31510009BD098474838431E9841404210BDB19B00102B
S31510009BE0F8B5244F00233B707B7000226B2169204F
S31510009BF0214CA0476420214DA84701226B216920E2
S31510009C00A047C820A84704221A216920A047082285
S31510009C1019216920A0471B216920194EB0477A786F
S31510009C20D2001A2398430243D2B21B216920A047BF
S31510009C301C216920B0473A78D20018239843024372
S31510009C40D2B21C216920A0471D216920B047F023FC
S31510009C5002001A40EC3B1A431D216920A04712222C
S31510009C6037216920A047012238216920A0476420A6
S31510009C70A847F8BDD0A00110FD960010A1AB0010AA
S31510009C80B19B0010F0B55F4656464D464446F0B4BB
S31510009C909DB00390062200211AA8E04CA0470C2282
S31510009CA0002117A8A0470C22002114A8A0470C22B7
S31510009CB0002111A8A0470C2200210EA8A0470022BF
S31510009CC019216920D64CA04702221A216920A047E3
S31510009CD000221B216920A04702221D216920A047CE
S31510009CE000221C216920A047C8251AACCD4E23009E
S31510009CF006223B216920B04723781B026278134362
S31510009D001BB2149A944663441493A3781B02E27808
S31510009D1013431BB2159A0092944663441593237904
S31510009D201B02627913431BB2169A0092944663443F
S31510009D3016932300062243216920B04723781B027D
S31510009D40627813431BB2179A944663441793A37809
S31510009D501B02E27813431BB2189A0092944663448E
S31510009D60189323791B02627913431BB2199A009236
S31510009D70944663441993013DEDB2002DB7D10024EA
S31510009D80A94E14ADC8216059B047605117ADC8210E
S31510009D906059B047605104340C2CF2D1E0221C21DA
S31510009DA069209F4CA047E0221C216920A04719205A
S31510009DB09E4B9847C8251AAC9A4E230006223B2183
S31510009DC06920B04723781B02627813431BB2119A9D
S31510009DD0944663441193A3781B02E27813431BB293
S31510009DE0129A009294466344129323791B02627965
S31510009DF013431BB2139A00929446634413932300A1
S31510009E00062243216920B04723781B026278134348
S31510009E101BB20E9A944663440E93A3781B02E27803
S31510009E2013431BB20F9A0092944663440F932379FF
S31510009E301B02627913431BB2109A00929446634434
S31510009E401093013DEDB2002DB7D10024764E11AD21
S31510009E50C8216059B04760510EADC8216059B0474E
S31510009E60605104340C2CF2D100221C2169206C4C58
S31510009E70A04700221B216920A04719206B4B984749
S31510009E800D2169206A4DA84704000E216920A847B4
S31510009E9000900F216920A847049000216920A84747
S31510009EA0059001216920A847069002216920A8473C
S31510009EB00790604B9A46200098475F4B9946984703
S31510009EC05E4E00225E4BB04702000B005D485E49B5
S31510009ED05E4FB8475E4D00225E4BA8475E4CA047CA
S31510009EE008900098D047C8470022554BB04702004B
S31510009EF00B0054485449B8470022564BA847A04770
S31510009F0009900498D047C84700224D4BB04702002D
S31510009F100B004C484C49B84700224E4BA847A04767
S31510009F200A900598D047C8470022454BB047020013
S31510009F300B0044484449B8470022464BA847A0475F
S31510009F400B900698D047C84700223D4BB0470200F9
S31510009F500B003C483C49B84700223E4BA847A04757
S31510009F600C900798D047C8470022354BB0470200DF
S31510009F700B0034483449B8470022364BA847A0474F
S31510009F800D900024354B99462B4D314B9846344B4A
S31510009F909A462A4F304E11ABE35814AAA058181AF5
S31510009FA0C847A84700222F4BC0470090019108AB25
S31510009FB0E058A84702000B0000980199D0470022EC
S31510009FC0284BB847B047039B18519B46A3440EAB8A
S31510009FD0E35817AAA058181AC847A8470022214BB9
S31510009FE0C04700900191230008AA94466344D8689C
S31510009FF0A84702000B0000980199D0470022194B80
S3151000A000B847B0475B46D86004340C2CC3D11DB09A
S3151000A0103CBC90469946A246AB46F0BD656201101F
S3151000A020FD9600104194001031330110A1AB0010C1
S3151000A030B19B001075430110CD5F011085570110BB
S3151000A0400000F03F295C8FC2F528F03F791E011001
S3151000A050915201100078A44075600110E54201107C
S3151000A060494A01100000594010B575216920064B68
S3151000A0709847712804D10548054B9847002001E000
S3151000A0800120404210BDC046B19B0010D4A0011063
S3151000A090859C001030B583B0040002210C20124BB1
S3151000A0A09847C3071ED56B46072203210C200F4D78
S3151000A0B0A8476B469B791B0714D46B465B781B022B
S3151000A0C06A461278134323806B46DB781B026A4676
S3151000A0D09278134363806B465B791B026A4612794A
S3151000A0E01343A38003B030BDB19B00104194001000
S3151000A0F0F0B55F4656464D464446F0B48FB04A4CCE
S3151000A10020004A4B9847523C2078494B9847061CEA
S3151000A1105223E05E474FB847474D311CA847089079
S3151000A1205423E05EB847311CA84709905623E05ED9
S3151000A130B847311CA8470A9023004C3318003F4BF0
S3151000A140984760783E4B9847061C4C23E05EB8470C
S3151000A150311CA8470B904E23E05EB847311CA84728
S3151000A1600C905023E05EB847311CA8470D90230091
S3151000A17058331800334B9847A078334B98470790BD
S3151000A180324B9A460B989847314B9946314A324B87
S3151000A190C847324B98460022314BC047314EB04724
S3151000A1A00B905C23E05EB8470799A847A16CA847B7
S3151000A1B02D4B9B46E16B984704905823E05EB847B9
S3151000A1C00799A847216CA847616BD84703905A2373
S3151000A1D0E05EB8470799A847616CA847A16BD847B6
S3151000A1E002900D98D0471B4A1B4BC84700221C4BA8
S3151000A1F0C047B04701900C98D047164A164BC8472F
S3151000A2000022174BC047B04700900B9B0A9A09993A
S3151000A2100898164CA04700200FB03CBC90469946B3
S3151000A220A246AB46F0BDC04622A10110F195001022
S3151000A230D1960010E54201103D3D011035960010F3
S3151000A2409996001095A0001079960010CD5F011018
S3151000A25091520110282D4454FB210940494A0110FE
S3151000A2600080664075600110653F01103D84001046
S3151000A27010B50021014B984710BDC0469DB4001083
S3151000A28010B50121014B984710BDC0469DB4001072
S3151000A29010B582B001AC2000064B984701232370FD
S3151000A2A021001620044B98471620044B984702B0FD
S3151000A2B010BDC04635B2001045B2001081A2001084
S3151000A2C010B50400054B9847002803D12000044B15
S3151000A2D0984702E02000034B984710BD4DB400107C
S3151000A2E081A2001071A2001010B50C4B98470022E5
S3151000A2F00B4B1A700B4B1B78DBB2022B02D0032BC5
S3151000A30002D004E0642103E0C821490000E00021E6
S3151000A31001220120044B984710BDC04671A20010BF
S3151000A32004A30110DBA20110D1A70010064B0022D6
S3151000A33025215A5406315A5401395A5402395A545D
S3151000A34001315A547047C04640A2011010B582B070
S3151000A350054A1E2313701D3B0093044B0449054800
S3151000A360054CA04702B010BD30A201101CA201106E
S3151000A370DCA20110E8A20110A1A60010F0B5574604
S3151000A38080B482B0374DA2232B7000236B70AB7054
S3151000A390354C03339A46009323002A003349344838
S3151000A3A0344FB847344E63781B02A2781343F380B8
S3151000A3B0A4232B705346009323002A002B492C48C4
S3151000A3C0B84763781B02A27813433381A6232B70F8
S3151000A3D05346009323002A0024492548B84763783A
S3151000A3E01B02A27813437381A8232B705346009344
S3151000A3F023002A001D491E48B84763781B02A2781D
S3151000A4001343B381AA232B705346009323002A00CB
S3151000A41016491748B84763781B02A2781343F3818D
S3151000A420AC232B705346009323002A000F49104883
S3151000A430B84763781B02A27813433382AE232B707E
S3151000A4405346009323002A0008490948B847637801
S3151000A4501B02A27813437382002002B004BC9246FA
S3151000A460F0BDC04630A201101CA20110DCA20110E2
S3151000A470E8A20110A1A6001040A2011010B50A4BC7
S3151000A480984700280DD1094B01225A700224252124
S3151000A4905C5403315A54002201315A5401315A5432
S3151000A4A000E0102010BDC0467DA3001040A2011090
S3151000A4B010B501210120104B9847012125230F4A81
S3151000A4C0D1540F4B984703200E4B98470E4B984785
S3151000A4D0002800D0FEE7094B0221252299540124B9
S3151000A4E05C701E3A094B1A7001390120084B9847C7
S3151000A4F0084B1C7010BDC0463992001040A20110C6
S3151000A5004DA30010A1AB00107DA40010A8A101104E
S3151000A51069A50010A9A1011010B582B06B46DA1D0D
S3151000A52000231370094C21000120094B9847200085
S3151000A530084B9847041E06D00748084B9847210039
S3151000A5400748084B984702B010BDC0466CA20110D0
S3151000A550958E0010718E001014740110CD640110C8
S3151000A56008770110AD63011010B50C00002806D055
S3151000A57002217523144AD154144B984705E0002143
S3151000A5807523114AD154124B9847002C10D0114BF9
S3151000A59003212522995401390632995400210E4877
S3151000A5A00E4B98470E4B984701220E4B1A700AE035
S3151000A5B002212523074AD1540B4B98470B4B98473A
S3151000A5C00022084B1A7010BDD0A00110699500101A
S3151000A5D08595001040A20110D503000005A70010B4
S3151000A5E039A70010CCA201102DA7001059A70010F2
S3151000A5F010B50C00002803D100210630074B9847F0
S3151000A600002C06D001212523054AD154054B984725
S3151000A61003E000210720014B984710BD9DB40010A0
S3151000A62040A20110B1A4001030B58DB001AC2000CD
S3151000A630134B98471023237021001248124B98474A
S3151000A64002AC2000114B9847682323710023A37096
S3151000A6501133A3600D3BA3611322E260E361143A48
S3151000A66022612262133262616362094D2200094936
S3151000A6702800094B98472800084B98470DB030BD65
S3151000A680CDAB0010DCA2011005AC0010D9AB001048
S3151000A690E8A2011000700040D5AC001045AC0010C7
S3151000A6A0F0B583B004000D000092019308AB1E882C
S3151000A6B00122084FB8473300019A00992000064E30
S3151000A6C0B0470600002229002000B847300003B02A
S3151000A6D0F0BDC046BDAE001039AE001010B528232F
S3151000A6E0064AD35C002B08D001212923D15400231C
S3151000A6F0002202314220024CA04710BD40A2011098
S3151000A70061E1001030B583B004000D006846054BBA
S3151000A71098476B465D7001946846034B984703B0A3
S3151000A72030BDC046E98000105D81001010B5014BA8
S3151000A730984710BDF980001010B50448044B98478F
S3151000A74080221205034B1A6010BDC046DDA600100C
S3151000A7504581001000E100E010B5044B98478021B8
S3151000A76009058023024AD15010BDC0465181001000
S3151000A77000E100E010B588B001AC2000094B984705
S3151000A780094BA36000236370084A6261637320005B
S3151000A790074B98470020074CA0470120A04708B058
S3151000A7A010BDC04621AF001080BA8C019065000024
S3151000A7B0C9AF0010A5AF001010B50400024B9847A2
S3151000A7C02000024B984710BDCDB00010A5AF001069
S3151000A7D010B51400012806D0002802D0022804D093
S3151000A7E005E01A2204E00C4A02E00C4A00E00122BD
S3151000A7F0002901D1FA2189000020094B18704A431B
S3151000A80000212000074B98472000074B98478022CD
S3151000A810D201064B1A6010BD9065000080BA8C01FB
S3151000A820A9A1011059AF001081AF001000E100E09E
S3151000A83010B5014B984710BDA5AF001010B50122F9
S3151000A840044B9A700023002201214020024CA0479D
S3151000A85010BDC0462CA2011061E1001010B5794B55
S3151000A8601B78DBB2012B03D0022B00D1AEE0E1E066
S3151000A8700022744B1A70744C637B2373734B984786
S3151000A88060737348734B9847237B012B02D0022BBE
S3151000A8904CD093E06C4B5B7B012B02D0022B23D068
S3151000A8A03BE06D4B1B78002B15D16C4A13780133A6
S3151000A8B0DBB213700F2B05D90022624B1A70684B4E
S3151000A8C09847BEE001225F4B1A700022FA21012040
S3151000A8D0644B9847B5E0644B1B78002B00D0B0E072
S3151000A8E00122624B1A70ACE05B4B1B78002B0BD12C
S3151000A8F000225A4B1A700132524B1A7000226421F0
S3151000A9000120584B98479CE0574B1B78002B00D0E2
S3151000A91097E00122554B1A7093E0534B1B78002B8E
S3151000A92000D08EE00122514B1A708AE0464B5B7BB9
S3151000A930012B23D0022B39D1474B1B78002B15D175
S3151000A940464A13780133DBB213700F2B05D9002258
S3151000A9503C4B1A70424B984773E00122394B1A70E0
S3151000A9600022FA2101203F4B98476AE03E4B1B78A4
S3151000A970002B66D101223D4B1A7062E0364B1B78D4
S3151000A980002B0BD10022354B1A7001322D4B1A7049
S3151000A990002264210120334B984752E0324B1B783A
S3151000A9A0002B4ED10122314B1A704AE02E4B1B78E8
S3151000A9B0002B46D101222D4B1A7042E02A4B1B78F0
S3151000A9C0002B3ED10122294B1A703AE01E4C637BB4
S3151000A9D023731E4B984760731D481E4B9847A289D8
S3151000A9E0234B9A4212D11D4A13780133DBB21370EE
S3151000A9F0092B02D91F4B984723E00222114B1A70DC
S3151000AA000022FA210120174B98471AE02B231A4AE5
S3151000AA10D35C012B03D101210020184B984700224B
S3151000AA20084B1A70104B1B78002B0AD101320F4BB2
S3151000AA301A7006E00C4B1B78002B02D101220B4B2F
S3151000AA401A7010BDCCA00110BCA10110B590001059
S3151000AA50507701104D930010ACA10110FEA2011009
S3151000AA60158A0010D1A70010DBA20110A9A10110B0
S3151000AA70030300002D8A001040A2011069A50010E2
S3151000AA8010B53A483A4B98473A4B1B78DBB2022B33
S3151000AA9028D0032B47D0012B66D10022354B1A70D4
S3151000AAA0354B1B78222B07D1344B1B78002B5BD1EF
S3151000AAB00132334B1A7057E0324A13780133DBB246
S3151000AAC01370002B06D000222A4B1A7022322A4B02
S3151000AAD01A7049E00122274B1A70642101202A4B73
S3151000AAE0984741E00022234B1A70284A1378013305
S3151000AAF0DBB213701378DBB2072B08D91620244B60
S3151000AB009847244B984701221D4B1A702CE01620AB
S3151000AB10214B98470222174B1A70013A64210120E3
S3151000AB20194B984720E00022124B1A70174A1378D7
S3151000AB300133DBB213701378DBB2032B08D916205E
S3151000AB40134B9847154B984701220D4B1A700BE083
S3151000AB501620114B98470322064B1A70023AC82149
S3151000AB6049000120084B984710BDC0466477011074
S3151000AB704D930010DBA20110ACA10110CCA0011066
S3151000AB80A9A10110CDA20110D1A7001004A3011094
S3151000AB9081A200109D8B0010C1A200103DE600108E
S3151000ABA010B5010001220120054B9847054C0120E4
S3151000ABB0A0470028FBD10130034B984710BDC04673
S3151000ABC0D1A7001045AF0010A5AF00100C230370DD
S3151000ABD00023437083707047012303700023437072
S3151000ABE08370C37081330371773B83600133C36015
S3151000ABF001330361013343610B3B8361C36103621C
S3151000AC004362704730B583B004000B7803704B78FD
S3151000AC1043708B78837001AD2800074B984701234A
S3151000AC202B7020782900054B984720780121044B7A
S3151000AC30984703B030BDC04635B2001045B200107B
S3151000AC409DB40010036801221A76704710B50023D0
S3151000AC500268137603680D4A934209D141200C4CC1
S3151000AC60A0472620A0473820A0470120A0470BE088
S3151000AC70084A934208D14220054CA0472720A047F6
S3151000AC803920A0470220A04710BDC04600600040F2
S3151000AC9035BC00100070004010B50468094B984789
S3151000ACA0094B9C4205D10120084CA0473820A047EB
S3151000ACB007E0074B9C4204D10220044CA0473920E0
S3151000ACC0A04710BD4DAC001000600040A1BF0010A1
S3151000ACD000700040F0B55F464646C0B483B006002B
S3151000ACE08846150031600B7EDB0701D500230B76F5
S3151000ACF030004A4B98473368494A934209D141205C
S3151000AD00484CA0472620A0473820A0470120A0473E
S3151000AD100BE0454A934208D14220424CA0472720D7
S3151000AD20A0473920A0470220A04701A83F4B9847CB
S3151000AD302C00083418239B46AB4427002068431C7C
S3151000AD4011D02B78012B02D16A46137103E0002B28
S3151000AD5001D16A461371C0B201A9354B9847398A99
S3151000AD603878344B984704345C45E6D1EB78424644
S3151000AD7013742B78012B00D113772B78002B01D16C
S3151000AD804246137733682A7872712A78012A01D1DC
S3151000AD902A799A826A78042A04D12421585C0243BB
S3151000ADA05A5404E024215A5C042082435A54AA7847
S3151000ADB0012A1AD0002A04D0022A0CD0032A1ED047
S3151000ADC026E02422995C022081439954995C01382B
S3151000ADD0814399541CE02422985C02210143995422
S3151000ADE0995C01208143995412E02422995C022037
S3151000ADF081439954985C01210143995408E0242217
S3151000AE00985C022101439954985C0121014399549D
S3151000AE10002003B00CBC90469B46F0BD99AC0010C8
S3151000AE2000600040D9B800100070004035B2001024
S3151000AE3045B2001029B50010F0B583B0046800269D
S3151000AE406D46EE710735002C34D0002904D1290047
S3151000AE508079287001270BE0002A05D01720002BD7
S3151000AE6029D00026002703E0012600276A4607326C
S3151000AE702825605DC007FCD4207B207A002B14D0D7
S3151000AE8000257842474170424641207AC007FCD5DA
S3151000AE9008782070207BC007FCD52079107001350A
S3151000AEA0ADB2C9199219AB42EFD1237ADB06FCD5A4
S3151000AEB0002000E01F2003B0F0BDC04610B5087892
S3151000AEC0002A03D00021044B984702E00121024BCF
S3151000AED09847002010BDC0469DB4001010B50D4B0C
S3151000AEE01B7D002B07D001220A4B1A730A4B1B68D5
S3151000AEF0002B00D098473423064AD35C002B07D08A
S3151000AF0001212C23D154054B1B68002B00D09847E8
S3151000AF1010BDC04600100040288601102C86011076
S3151000AF20012303700373022242704273837083738A
S3151000AF300022C270C273037103748260426102768A
S3151000AF407047C046002802D1024B586801E0014BF9
S3151000AF50586A704700100040002807D1002902D116
S3151000AF60064B1A6009E0054B9A6106E0002902D1EA
S3151000AF70024B1A6201E0014B9A63704700100040C1
S3151000AF80002805D1064A117A80230B43137205E077
S3151000AF9003492822885C802303438B547047C0469C
S3151000AFA000100040002805D1064A117A7F230B4075
S3151000AFB0137205E003492822885C7F2303408B54D3
S3151000AFC07047C0460010004070B504000420394B8D
S3151000AFD098472378002B02D1237B002B65D0364966
S3151000AFE0CA6820231343CB60227E8B69032002405C
S3151000AFF012012D30834313438B612378002B26D007
S3151000B00063780121002B03D0023B5D425D41A9010B
S3151000B010A278520002252A40E3789B000A352B407D
S3151000B0201A4315000D432379002B01D020231D430D
S3151000B030224BA2681A601D721F49C4225200885CF6
S3151000B040012303438B5400201D4B984700E0002535
S3151000B050237B002B29D0637B002B05D0012B05D039
S3151000B060022B04D1402502E0012500E00025A37B38
S3151000B0705B0002211940E27B92000C2313400B4324
S3151000B0801D43237C002B01D020231D4362690B4BEB
S3151000B0901A6228229D5408496132FF32885C0223C5
S3151000B0A003438B540120064B984706491E20064B36
S3151000B0B0984770BDA1BF001000B0004000100040BE
S3151000B0C081AF0010DDAE001009C40010002802D1B7
S3151000B0D0024B196001E0024B196070472886011077
S3151000B0E02C86011070B5164B1D68298F89B2CB07B7
S3151000B0F007D401230124180022009A40114214D0CB
S3151000B10001E00122002092B22A8746230C4AD35A24
S3151000B1100341DB070CD54423D35A0341DB0707D57C
S3151000B120800010184368984702E00133102BE2D1D3
S3151000B13080210904C0235B00024AD15070BDC0466D
S3151000B14008A3011000E100E0F8B5184B9B6C1E8FA8
S3151000B150B6B237000024760B7603144D002E01D0BC
S3151000B160134B984722000123A3401F4213D09BB2D2
S3151000B170A96C0B878E23EB5A2341DB070BD58C2347
S3151000B1800A49CB5A2341DB0705D5123292008A1899
S3151000B1905368984702E00134102CDFD1802149040E
S3151000B1A0C0235B00034AD150F8BDC04608A3011066
S3151000B1B051BC010000E100E010B590231B4AD258A3
S3151000B1C0138F9BB2D90414D499040AD459040CD4FD
S3151000B1D0DB0BDB039BB2002B20D080231B020F213D
S3151000B1E00AE080239B010D2106E08023DB010E215E
S3151000B1F002E080235B010C219BB21387D6230B4AF6
S3151000B200D35A0B41DB0709D5D423D35A0B41DB079D
S3151000B21004D52431890051184B6898478021890438
S3151000B220C0235B00024AD15010BDC04608A30110CE
S3151000B23000E100E000230370012242708370C370A6
S3151000B2407047C04670B51723012800D8C8E00728F4
S3151000B25009D8644D6A6C103B03409B0007249C4040
S3151000B260A2436A6429E00F2809D85E4DAA6C072309
S3151000B27003409B0007249C40A243AA641DE01728A4
S3151000B28009D8584DEA6C072303409B0007249C40BD
S3151000B290A243EA6411E003002C3B032B0DD8524D58
S3151000B2A08224E4002A5D120701269E40120F2B5DB0
S3151000B2B0B2430F26B34313432B5503001D3B022BFA
S3151000B2C029D84B78012B08D1474D2B7D1F24241AE2
S3151000B2D00122A24093432B7508E0434C257D1F2283
S3151000B2E0121A012393402B43DBB22375CA7800232D
S3151000B2F0002A75D03C490C881F22101A8000013391
S3151000B300834023439BB20B80384A117802230B43A8
S3151000B3101370002364E00A78002A40D10F2808D859
S3151000B320012383409BB2324A938200231F2857D8A9
S3151000B33012E01F2807D80F220240012393409BB228
S3151000B3402C4A938208E00F2318400E3B83409BB291
S3151000B350294A9382002343E04B78012B0CD0002B13
S3151000B36002D0022B10D03AE01E490A6D0123834009
S3151000B37013430B65002333E01A490B6D01228240FB
S3151000B38093430B6500232BE0164B596D0122824027
S3151000B39011435965196D91431965002320E0002367
S3151000B3A0012A1DD10F2806D8013383409BB2104ABB
S3151000B3B01382002314E01F2808D80F2318400E3BD1
S3151000B3C083409BB20B4A1382002309E00F231840D7
S3151000B3D00E3B83409BB2084A1382002300E01723DA
S3151000B3E0180070BD00B0004000F0004000E00040C2
S3151000B3F00000014000100140003001400F2806D81F
S3151000B4000F4B1988012383401800084014E01F28A9
S3151000B41009D80C4B19880F2303401A0001239340B7
S3151000B4201800084008E0084B19880F2303401A003B
S3151000B4300123934018000840431E9841C0B270473C
S3151000B4400000014000100140003001400F2806D8CE
S3151000B4500F4B9988012383401800084014E01F28D9
S3151000B46009D80C4B99880F2303401A0001239340E7
S3151000B4701800084008E0084B99880F2303401A006B
S3151000B4800123934018000840431E9841C0B27047EC
S3151000B49000000140001001400030014010B50F2897
S3151000B4A010D8002907D01D4A9188012383400B43E9
S3151000B4B09BB2938031E019498B88012282409343D5
S3151000B4C08B802AE01F2814D8002909D014498C88AB
S3151000B4D00F2210400123834023439BB28B801CE034
S3151000B4E00F498B880F2210400E3A824093438B806F
S3151000B4F013E0002909D00B498C880F221040012334
S3151000B500834023439BB28B8007E006498B880F222A
S3151000B51010400E3A824093438B8010BD00000140CC
S3151000B520001001400030014070B50D0AFF2319408C
S3151000B530072833D84E4A546CF83B03409B00072625
S3151000B5409E40B4435464546C0E009E403300234313
S3151000B5505364012900D08AE003280FD81100D022A5
S3151000B56052008C5803231840C0003C3383409C4340
S3151000B5708C508B5885401D438D5078E03C49D22223
S3151000B58052008C5803231840C0003C3383409C4320
S3151000B5908C508B5885401D438D5068E00F2832D84B
S3151000B5A0334A946C072303409B0007269E40B443FE
S3151000B5B09464946C0E009E403300234393640129D7
S3151000B5C055D10B280FD81100D42252008C580323C2
S3151000B5D01840C0003C3383409C438C508B588540A8
S3151000B5E01D438D5043E02249D62252008C58032326
S3151000B5F01840C0003C3383409C438C508B58854088
S3151000B6001D438D5033E0172831D8194AD46C0723BF
S3151000B61003409B0007269E40B443D464D46C0E00AE
S3151000B6209E4033002343D364012920D113280FD819
S3151000B6301100D82252008C5803231840C0003C3306
S3151000B64083409C438C508B5885401D438D500EE093
S3151000B650074ADA235B00D15803242040C0003C344B
S3151000B6608440A143D150D15885400D43D55070BD6B
S3151000B67000B00040F0B500230F2804D91F248442DF
S3151000B6805B411D3CE31A012A16D0002A04D0022A77
S3151000B69022D0032A30D03EE0294EDC00E218D20038
S3151000B6A097590F2505400122AA4092B2BA85E4188F
S3151000B6B0E400A459A2862EE0214EDC00E218D20046
S3151000B6C097590F2505400122AA4092B2BA85E4186F
S3151000B6D0E400A45922861EE0194EDC00E218D200BE
S3151000B6E097590F2505400122AA4092B23A85E418CF
S3151000B6F0E400A45922860EE0114EDC00E218D200B6
S3151000B70097590F2505400122AA4092B23A85E418AE
S3151000B710E400A459A2860F221040094CDD00EA1855
S3151000B720520012189200A2185160EA18D200A218FC
S3151000B73044320121814013880B431380F0BDC0466B
S3151000B74008A3011030B50F2805D880221204124B19
S3151000B7501A6000220CE01F2805D8802252040E4BD6
S3151000B7601A60012204E0802292040B4B1A60022216
S3151000B7700F23184001218140084CD500AB18DB007F
S3151000B780E3184633188808431880AA18D2001359AC
S3151000B79089B2198430BDC04600E100E008A301104B
S3151000B7A030B500230F2804D91F2282425B411D3A6F
S3151000B7B0D31A0F22104001218140074CDD00EA18F0
S3151000B7C0D200A2184632108888431080EB18DB008E
S3151000B7D01B5989B2998430BD08A3011010B5114ABE
S3151000B7E01000D830002107E002C39342FCD15180EB
S3151000B7F011804832824202D01300403BF4E70A4BD4
S3151000B8000A4A1A600A4A9A640A49902299500A49C1
S3151000B81027200A4CA0470A492820A0470949292071
S3151000B820A04710BD4CA3011008A301100000014051
S3151000B8300010014000300140E5B0001009C40010AE
S3151000B84049B10010B9B1001001280DD0002802D05E
S3151000B85002281CD02EE0184A90690C2303439361EA
S3151000B860164A174B1A601AE0134B986908220243BE
S3151000B8709A619A69042082439A61124A5368802019
S3151000B880000303435360104A0D4B1A6007E00A4A3F
S3151000B89093690C2083439361084A094B1A60064B3F
S3151000B8A09A69032082439A619A690140114399610A
S3151000B8B0002000E01720704700B0004080BA8C01CD
S3151000B8C0E0A3011000F0004080841E00014B1868B0
S3151000B8D07047C046E0A3011000B5352800D9A2E193
S3151000B8E08000D24B1B589F46D14AD16802230B4386
S3151000B8F0D360002098E1CE4AD16804230B43D3606D
S3151000B900002091E1CA4AD16808230B43D360002076
S3151000B9108AE1C74AD16810230B43D360002083E124
S3151000B920C34AD16820230B43D36000207CE1C04A70
S3151000B930D16880230B43D360002075E1BC4AD368DD
S3151000B940802149000B43D36000206DE1B84AD368CB
S3151000B950802109010B43D360002065E1B44AD36806
S3151000B960802149010B43D36000205DE1B04AD368C2
S3151000B970802189010B43D360002055E1AC4AD3687E
S3151000B9808021C9010B43D36000204DE1A84AD3683A
S3151000B990802109020B43D360002045E1A44AD368F5
S3151000B9A0802149020B43D36000203DE1A04AD368B1
S3151000B9B0802189020B43D360002035E19C4AD3686D
S3151000B9C08021C9020B43D36000202DE1984AD36829
S3151000B9D0802109030B43D360002025E1944AD368E4
S3151000B9E0802149030B43D36000201DE1904AD368A0
S3151000B9F0802189030B43D360002015E18C4AD3685C
S3151000BA008021C9030B43D36000200DE1884AD36817
S3151000BA10802109040B43D360002005E1844AD368D2
S3151000BA20802149040B43D3600020FDE0804AD3688F
S3151000BA30802189040B43D3600020F5E07C4AD3684B
S3151000BA408021C9040B43D3600020EDE0784AD36807
S3151000BA50802109050B43D3600020E5E0744AD368C2
S3151000BA60802149050B43D3600020DDE0704AD3687E
S3151000BA70802189050B43D3600020D5E06C4AD3683A
S3151000BA808021C9050B43D3600020CDE0684A1169B7
S3151000BA9001230B4313610020C6E0654A1169022396
S3151000BAA00B4313610020BFE0614A116904230B4365
S3151000BAB013610020B8E05E4A116908230B43136135
S3151000BAC00020B1E05A4A116910230B43136100207C
S3151000BAD0AAE0574A116920230B4313610020A3E003
S3151000BAE0534A116940230B43136100209CE0504ACE
S3151000BAF0116980230B431361002095E04C4A1369AA
S3151000BB00802149000B43136100208DE0484A1369D8
S3151000BB10802189000B431361002085E0444A136994
S3151000BB208021C9000B43136100207DE0404A136950
S3151000BB30802109010B431361002075E03C4A13690B
S3151000BB40802149010B43136100206DE0384A1369C7
S3151000BB50802189010B431361002065E0344A136983
S3151000BB608021C9010B43136100205DE0304A13693F
S3151000BB70802109020B431361002055E02C4A1369FA
S3151000BB80802149020B43136100204DE0284A1369B6
S3151000BB90802189020B431361002045E0244A136972
S3151000BBA08021C9020B43136100203DE0204A13692E
S3151000BBB0802109030B431361002035E01C4A1369E9
S3151000BBC0802149030B43136100202DE0184A1369A5
S3151000BBD0802189030B431361002025E0144A136961
S3151000BBE08021C9030B43136100201DE0104A13691D
S3151000BBF0802109040B431361002015E00C4A117DC6
S3151000BC0001230B43137500200EE0094A117D022310
S3151000BC100B431375002007E0054A117D04230B43DF
S3151000BC201375002000E0172000BDC046787701107C
S3151000BC3000B0004000B5352800D97DE18000BF4B2B
S3151000BC401B589F46BE4AD36802218B43D3600020FF
S3151000BC5073E1BB4AD36804218B43D36000206CE1A7
S3151000BC60B74AD36808218B43D360002065E1B44AF4
S3151000BC70D36810218B43D36000205EE1B04AD368AD
S3151000BC8020218B43D360002057E1AD4AD368802131
S3151000BC908B43D360002050E1A94AD168A94B0B40D1
S3151000BCA0D360002049E1A64AD168A74B0B40D36068
S3151000BCB0002042E1A24AD168A44B0B40D360002079
S3151000BCC03BE19F4AD168A24B0B40D360002034E180
S3151000BCD09B4AD1689F4B0B40D36000202DE1984AB8
S3151000BCE0D1689D4B0B40D360002026E1944AD16861
S3151000BCF09A4B0B40D36000201FE1914AD168984BB4
S3151000BD000B40D360002018E18D4AD168954B0B404B
S3151000BD10D360002011E18A4AD168934B0B40D3605F
S3151000BD2000200AE1864AD168904B0B40D360002070
S3151000BD3003E1834AD1688E4B0B40D3600020FCE0B0
S3151000BD407F4AD1688B4B0B40D3600020F5E07C4ACC
S3151000BD50D168894B0B40D3600020EEE0784AD16859
S3151000BD60864B0B40D3600020E7E0754AD168844BC0
S3151000BD700B40D3600020E0E0714AD168814B0B4044
S3151000BD80D3600020D9E06E4AD1687F4B0B40D36058
S3151000BD900020D2E06A4AD1687C4B0B40D360002069
S3151000BDA0CBE0674AD1687A4B0B40D3600020C4E0E1
S3151000BDB0634AD168774B0B40D3600020BDE0604AE0
S3151000BDC0136901218B4313610020B6E05C4A1369A5
S3151000BDD002218B4313610020AFE0594A13690421F5
S3151000BDE08B4313610020A8E0554A136908218B4341
S3151000BDF013610020A1E0524A136910218B4313618D
S3151000BE0000209AE04E4A136920218B4313610020CB
S3151000BE1093E04B4A136940218B43136100208CE059
S3151000BE20474A136980218B431361002085E0444AF9
S3151000BE301169444B0B40136100207EE0404A1169A2
S3151000BE40554B0B401361002077E03D4A1169534B67
S3151000BE500B401361002070E0394A11693A4B0B40D0
S3151000BE601361002069E0364A1169384B0B401361A3
S3151000BE70002062E0324A1169354B0B4013610020F5
S3151000BE805BE02F4A1169334B0B401361002054E0DD
S3151000BE902B4A1169304B0B40136100204DE0284AA4
S3151000BEA011692E4B0B401361002046E0244A11699C
S3151000BEB02B4B0B40136100203FE0214A1169294B9F
S3151000BEC00B401361002038E01D4A1169264B0B40C8
S3151000BED01361002031E01A4A1169244B0B4013619B
S3151000BEE000202AE0164A1169214B0B4013610020ED
S3151000BEF023E0134A11691F4B0B40136100201CE00D
S3151000BF000F4A11691C4B0B401361002015E00C4AB7
S3151000BF10137D01218B43137500200EE0084A137D13
S3151000BF2002218B431375002007E0054A137D042177
S3151000BF308B431375002000E0172000BD50780110C8
S3151000BF4000B00040FFFEFFFFFFF7FFFFFFEFFFFF10
S3151000BF50FFDFFFFFFFBFFFFFFF7FFFFFFFFFFEFFBC
S3151000BF60FFFFFDFFFFFFFBFFFFFFF7FFFFFFEFFFE9
S3151000BF70FFFFDFFFFFFFBFFFFFFF7FFFFFFFFFFE9C
S3151000BF80FFFFFFFDFFFFFFFBFFFFFFF7FFFFFFEFC9
S3151000BF90FFFFFFDFFFFFFFBFFFFDFFFFFFFBFFFF01
S3151000BFA000B5432800D923E28000E04B1B589F467A
S3151000BFB0DF4B596802229143596059680A435A6007
S3151000BFC0002016E2DA4B59680422914359605968E9
S3151000BFD00A435A6000200CE2D54B59680822914357
S3151000BFE0596059680A435A60002002E2D04B5968DA
S3151000BFF010229143596059680A435A600020F8E1AB
S3151000C000CB4B596820229143596059680A435A60AC
S3151000C0100020EEE1C64B5968402291435960596899
S3151000C0200A435A600020E4E1C14B596880229143CB
S3151000C030596059680A435A600020DAE1BC4B5968C6
S3151000C040BC4A0A405A605A68802149000A435A601D
S3151000C0500020CEE1B64B5968B74A0A405A605A6872
S3151000C060802189000A435A600020C2E1B04B59680A
S3151000C070B24A0A405A605A688021C9000A435A6077
S3151000C0800020B6E1AA4B5968AD4A0A405A605A6870
S3151000C090802109010A435A600020AAE1A44B59687D
S3151000C0A0A84A0A405A605A68802149010A435A60D0
S3151000C0B000209EE19E4B5968A34A0A405A605A686E
S3151000C0C0802189010A435A60002092E1984B5968F1
S3151000C0D09E4A0A405A605A688021C9010A435A602A
S3151000C0E0002086E1924B5968994A0A405A605A686C
S3151000C0F0802109020A435A6000207AE18C4B596864
S3151000C100944A0A405A605A68802149020A435A6082
S3151000C11000206EE1864B59688F4A0A405A605A6869
S3151000C120802189020A435A60002062E1804B5968D7
S3151000C1308A4A0A405A605A688021C9020A435A60DC
S3151000C140002056E17A4B5968854A0A405A605A6867
S3151000C150802109030A435A6000204AE1744B59684A
S3151000C160804A0A405A605A68802149030A435A6035
S3151000C17000203EE16E4B59687B4A0A405A605A6865
S3151000C180802189030A435A60002032E1684B5968BE
S3151000C190764A0A405A605A688021C9030A435A608F
S3151000C1A0002026E1624B5968714A0A405A605A6863
S3151000C1B0802109040A435A6000201AE15C4B596831
S3151000C1C06C4A0A405A605A68802149040A435A60E8
S3151000C1D000200EE1564B5968674A0A405A605A6861
S3151000C1E0802189040A435A60002002E1504B5968A5
S3151000C1F0624A0A405A605A688021C9040A435A6042
S3151000C2000020F6E04A4B59685D4A0A405A605A685F
S3151000C210802109050A435A600020EAE0444B596818
S3151000C220584A0A405A605A68802149050A435A609A
S3151000C2300020DEE03E4B5968534A0A405A605A685D
S3151000C240802189050A435A600020D2E0384B59688C
S3151000C2504E4A0A405A605A688021C9050A435A60F4
S3151000C2600020C6E0324A53685B005B08536053688F
S3151000C270802109060B4353600020BAE02C4B1A8923
S3151000C28001218A431A81198901220A431A81002041
S3151000C290AFE0274B1A8902218A431A811989022293
S3151000C2A00A431A810020A4E0214B1A8904218A43EB
S3151000C2B01A81198904220A431A81002099E01C4B1D
S3151000C2C01A8908218A431A81198908220A431A8170
S3151000C2D000208EE0164B1A8910218A431A8119897B
S3151000C2E010220A431A81002083E0114B1A8920215B
S3151000C2F08A431A81198920220A431A81002078E07C
S3151000C3000B4B1A8940218A431A81198940220A4304
S3151000C3101A8100206DE0064B1A8980218A431A8102
S3151000C320198980220A431A81002062E028790110B7
S3151000C33000B00040FFFEFFFFFFFDFFFFFFFBFFFF0A
S3151000C340FFF7FFFFFFEFFFFFFFDFFFFFFFBFFFFF5F
S3151000C350FF7FFFFFFFFFFEFFFFFFFDFFFFFFFBFF5E
S3151000C360FFFFF7FFFFFFEFFFFFFFDFFFFFFFBFFF3F
S3151000C370FFFF7FFFFFFFFFFEFFFFFFFDFFFFFFFB3E
S3151000C380FFFFFFF7FFFFFFEFFFFFFFDFFFFFFFBF1F
S3151000C390184B1989184A0A401A81198980225200A5
S3151000C3A00A431A81002024E0124B1989134A0A40C5
S3151000C3B01A811989802292000A431A81002018E0F6
S3151000C3C00C4B19890E4A0A401A8119898022D2000B
S3151000C3D00A431A8100200CE0064B1989094A0A40C3
S3151000C3E01A811989802212010A431A81002000E05D
S3151000C3F0172000BD00B00040FFFEFFFFFFFDFFFF4E
S3151000C400FFFBFFFFFFF7FFFF8023DB049C46604422
S3151000C410800001607047C04670B5204B1C682368C9
S3151000C4201D7DEDB26A0613D51E212222A1541A7E55
S3151000C43023318A431A762123E35C1B0706D5202372
S3151000C440E35C1B0702D520002369984723681B7CF1
S3151000C450EB0722D523681B7CDBB262691370636914
S3151000C46001336361A38B013B9BB2A383A38B9BB266
S3151000C470002B12D12133E35C5B070ED52023E35C3E
S3151000C4805B070AD500222223E2542268137E01217B
S3151000C4908B431376E3682000984770BDE4A3011020
S3151000C4A070B5214B1C6823681D79EDB2EA0717D5C4
S3151000C4B0A2691178C9B20132A2611970E38B013BEE
S3151000C4C09BB2E383E38B9BB2002B09D12268137ACC
S3151000C4D001218B4313722268117A10230B431372B6
S3151000C4E0EB0612D52123E35CDB070ED52023E35C94
S3151000C4F0DB070AD500222223E2542268137A102180
S3151000C5008B431372200063689847AB060AD5212324
S3151000C510E35C9B0706D52023E35C9B0702D5A36843
S3151000C5202000984770BDC046E4A3011070B5204B9B
S3151000C5305C6823681D7DEDB26A0613D51E21222282
S3151000C540A1541A7E23318A431A762123E35C1B07F2
S3151000C55006D52023E35C1B0702D5200023699847E4
S3151000C56023681B7CEB0722D523681B7CDBB2626930
S3151000C5701370636901336361A38B013B9BB2A38381
S3151000C580A38B9BB2002B12D12133E35C5B070ED534
S3151000C5902023E35C5B070AD500222223E25422689B
S3151000C5A0137E01218B431376E3682000984770BDF4
S3151000C5B0E4A3011070B5214B5C6823681D79EDB2B8
S3151000C5C0EA0717D5A2691178C9B20132A2611970AA
S3151000C5D0E38B013B9BB2E383E38B9BB2002B09D128
S3151000C5E02268137A01218B4313722268117A102361
S3151000C5F00B431372EB0612D52123E35CDB070ED532
S3151000C6002023E35CDB070AD500222223E2542268AA
S3151000C610137A10218B431372200063689847AB0678
S3151000C6200AD52123E35C9B0706D52023E35C9B07F1
S3151000C63002D5A3682000984770BDC046E4A3011038
S3151000C640E1235B0203600023037143718371C3719D
S3151000C650023383600322C2600132026101324261F9
S3151000C6608361C361036243627047C046F8B54F46A3
S3151000C6704646C0B40500170001600023436083607E
S3151000C680C36003614361836100228383C3832033C4
S3151000C690C2540133C2540133C254554B994218D176
S3151000C6A00920544CA0470A20A0470920524CA04705
S3151000C6B00A20A047514B1D6051491020514CA047EC
S3151000C6C051491120A047514B01221A6001321A60BC
S3151000C6D01AE04F4B994217D10B20464CA0470C201D
S3151000C6E0A0470B20444CA0470C20A047434B5D604D
S3151000C6F048491220434CA04747491320A047434BB3
S3151000C70004221A6004321A60FB7904229046002B28
S3151000C71052D1023398464FE0318A01CEC0B2C84793
S3151000C7200134E4B24445F7D32B681A7DD20704D5F9
S3151000C73001211A7C1A7D0A42FBD10021202299542C
S3151000C740FB79591E8B4159013B797A7913430B4377
S3151000C750BA79022A0DD0D1B2022902D8012A05D0FF
S3151000C7600FE0032A08D0042A09D00AE00222134354
S3151000C77007E00622134304E00A22134301E00E22C7
S3151000C7801343202229688B543E68244B9847040093
S3151000C7903100234B984782B20004000C7043201AD4
S3151000C7A03109884206D900230133DBB2401A884288
S3151000C7B0FAD807E0002305E03E0008360024194B9E
S3151000C7C09946A9E7002128202C68215401331B071C
S3151000C7D05B0FD20013439BB22A6893842B68197699
S3151000C7E02B68197200200CBC90469946F8BDC046BD
S3151000C7F000400040A1BF0010D9B80010E4A30110FA
S3151000C80019C4001009C40010A1C4001000E100E012
S3151000C810005000402DC50010B5C50010CDB8001051
S3151000C8201D32011029B50010026801201379034248
S3151000C830FCD011700020704702680120137D03425E
S3151000C840FCD0137C0B7000207047C0461723002ABB
S3151000C8500DD00B33C35CDBB2052B08D0828341614C
S3151000C86005222223C2540368043A1A7600231800BC
S3151000C8707047C0469300C318596020210123934086
S3151000C880425C13434354704710B5212201238B4059
S3151000C890845C23438354012904D10268117A20232E
S3151000C8A00B43137210BDC04610B501228A402124D5
S3151000C8B0035D93430355012904D10268137A1F318E
S3151000C8C08B43137210BDC046F0B5474680B40C00BA
S3151000C8D0904600280DD1002A0EDD8F18084E094DFE
S3151000C8E0306821002B6898470134A742F8D140469A
S3151000C8F003E00120404200E0002004BC9046F0BD59
S3151000C900F4A30110ECA30110F0B5474680B40E0055
S3151000C91015000138022811D8002A12D000240C4B19
S3151000C92098460C4F43461868315D3B689847002877
S3151000C93009DB0134A542F5D1200006E00120404272
S3151000C94003E0002001E00120404204BC9046F0BD07
S3151000C950F4A30110F0A301100020704700207047C7
S3151000C960C078002800D0E2207047C04600207047EB
S3151000C97010B50078002806D00348044B98470448A1
S3151000C980044B9847E22010BD14740110CD640110B9
S3151000C9909C7B0110AD63011010B50078002806D0FD
S3151000C9A00348044B98470448044B9847E22010BDAF
S3151000C9B014740110CD640110B07B0110AD63011029
S3151000C9C010B50400C078002808D00548054B9847D4
S3151000C9D0A27821880448054B9847E22010BDC0462E
S3151000C9E014740110CD640110C47B0110AD630110E5
S3151000C9F0F8B50400194B9B2292009D1801270026BA
S3151000CA0018001A00563A11882288914219D11A78BC
S3151000CA10052A01D0082A01D1077012E0072A0FD87B
S3151000CA2092000F498A5897461E700E4A1278002AAD
S3151000CA3007D00C4A1278013AD2B20A490A7000E0BD
S3151000CA4006707C33AB42DBD10748084B98472288E7
S3151000CA50A1780748074B98470020F8BD6EA401102F
S3151000CA60387A01107CA6011014740110CD640110DF
S3151000CA70FC7B0110AD630110F8B506000188284B48
S3151000CA8000241A898A4204D11A005E321278062AC4
S3151000CA902ED00134E4B27C33052CF2D139E0204992
S3151000CAA063011A1B92008A18157614005E34072348
S3151000CAB023701C481C4B98471C481D4B9847E22571
S3151000CAC02BE01848184B98471A48194B98471449A1
S3151000CAD063011A1B92008A1810005E30082707702F
S3151000CAE0F0781075B2781C1BA4000C19227614E08D
S3151000CAF0B578002DE5D0D2E70A4E30000A4DA8478A
S3151000CB000C480B4CA0473000A8470B48A047E2251D
S3151000CB1003E0B578002DC2D1EEE72800F8BDC04677
S3151000CB2010A4011014740110CD6401102C7C011096
S3151000CB30AD630110407C0110647C011010B501003A
S3151000CB40154B1B78DBB2132B12D8134C2378DBB2A0
S3151000CB509800C018C000C318104818182922104B86
S3151000CB609847237823780133DBB22370002311E032
S3151000CB700C480D4B98470D480D4B98470D4B984751
S3151000CB80E223002806D00748074B98470A48084B67
S3151000CB909847E223180010BD148F0110F4A6011057
S3151000CBA05362011014740110CD6401108C7C0110B5
S3151000CBB0AD630110B5F70010C47C0110F8B54F46EF
S3151000CBC04646C0B4050041883A4B00241A898A4269
S3151000CBD004D11A005E321278032A62D00134E4B20C
S3151000CBE07C33052CF2D12BE063011C1BA400314BC6
S3151000CBF01C195E342378012B13D92F482F4B9847D5
S3151000CC002F48304B9847688813212F4B9847061E9C
S3151000CC104BD02948294B98472C482A4B9847E2264F
S3151000CC2043E0002641E0244E3000244DA847284812
S3151000CC30244CA0473000A8472648A047E22634E0F7
S3151000CC402B79002BD0D1EEE71B481C4B9847204878
S3151000CC501C4B98472A78174B994667013B1B9B003C
S3151000CC604B441A752A791A765E3305221A70381BC8
S3151000CC70800048443630290022310B32164B984634
S3151000CC809847381B80004844463029003231172215
S3151000CC90C047381B800048441A30A91D1C22C047C3
S3151000CCA003E02E79002ECFD09EE730000CBC9046C4
S3151000CCB09946F8BD10A4011014740110CD6401102A
S3151000CCC0DC7C0110AD630110D5F70010FC7C01105F
S3151000CCD0187D0110447D01105362011010B50088B3
S3151000CCE0782301220121024CA047002010BDC04626
S3151000CCF0F5F70010F0B557464E464546E0B484B0F9
S3151000CD0004000922002101A86A4B984725886A4920
S3151000CD100A0000231089A84216D110005E30007850
S3151000CD20022811D164485A01D61AB60086195E3601
S3151000CD3006223270F93213405A01D21A9200821822
S3151000CD40127DD00705D41BE001337C32052BE1D1CF
S3151000CD501EE0E078002813D05901C91A8B005649F5
S3151000CD60C9181A312088554B9847002800D19BE0E6
S3151000CD705348544B98475448544B9847E22093E0F5
S3151000CD805A01D31A9B004C4AD3185E3302221A70EA
S3151000CD9025880022002316000889A8420DD1080014
S3151000CDA05E300078022808D15201921B9600424A42
S3151000CDB092195E320321117005E00133DBB20132A4
S3151000CDC07C31052BE7D101AAE178917001215170D0
S3151000CDD0033111701F005A01D21A92003649525C63
S3151000CDE0022A04D101AA03219171D17103E001AA8B
S3151000CDF001219171D17101AA1021517111717A011C
S3151000CE00D21B92002C498A18127E402A34D15A011C
S3151000CE10D31A9B009A461E0060367618554668351A
S3151000CE206D182B4B99460F239846C8474346184012
S3151000CE303070C84743461840B0740136AE42F4D13C
S3151000CE40564670361C4AB618214B99460F239846FB
S3151000CE50C8474346184028700135B542F8D11C4BD7
S3151000CE6098477B01DB1B9B00134AD3181A007032BC
S3151000CE7010807A3310221A707A01D71BBF006037E0
S3151000CE800D4ABA182088002301A9124CA047002881
S3151000CE900AD001AB00229A705A700948094B98477C
S3151000CEA00D480A4B9847E22004B01CBC90469946A0
S3151000CEB0A246F0BD6562011010A40110B90301105D
S3151000CEC014740110CD640110747D0110AD6301104E
S3151000CED0E1640110CD0101108C7D0110F0B55F46A3
S3151000CEE056464D464446F0B485B083460488484AB3
S3151000CEF0002100231089A0420DD110005E30007869
S3151000CF00022808D14A01521A9500414A52195E3236
S3151000CF100321117005E00133DBB201317C32052BA0
S3151000CF20E8D101AA0021117291705170032010707E
S3151000CF30D1701F005A01D21A92003549525C022A4A
S3151000CF4004D101AA03219171D17103E001AA012133
S3151000CF509171D17101AA1021517111717A01D21BEF
S3151000CF6092002B498A18127E402A31D15A01D31ABF
S3151000CF709B009A461D0060356D1854466834641837
S3151000CF80244B99460F26C84730402870C847304072
S3151000CF90A8740135A542F6D1554670351C4AAD1810
S3151000CFA01C4B99460F239846C84743461840207095
S3151000CFB00134AC42F8D1174B98477B01DB1B9B0021
S3151000CFC0134AD3181A00703210807A3310221A704E
S3151000CFD07A01D71BBF0060370D4ABA185B4618880E
S3151000CFE0002301A90C4CA04700280AD001AB00224F
S3151000CFF09A705A7009480A4B98470A480A4B98473C
S3151000D000E22005B03CBC90469946A246AB46F0BD20
S3151000D01010A40110E1640110CD0101101474011067
S3151000D020CD640110B87D0110AD630110F0B585B067
S3151000D030050006223D4902A83D4EB04701AC042228
S3151000D04029002000B047E378002B62D139483A4BCB
S3151000D05098473A483A4B984700263A4CFF271E20E5
S3151000D060A047C3B2002B1AD1324F3800324EB04708
S3151000D0703548334CA0473800B0473448A047288875
S3151000D0801321334B98470300E220002B4CD029483C
S3151000D090294B98472F482A4B9847E22044E01A001C
S3151000D0A0303A092ADBD802AAB35438402A4B98479B
S3151000D0B00136062E26D0D2E71E481F4B9847274822
S3151000D0C01F4B98470024244E02ABE05CB047013456
S3151000D0D0062CF9D101AB9978288802AA204B9847DB
S3151000D0E0002821D01348144B98471E48144B9847D4
S3151000D0F0002019E00F48104B98471B48104B9847D3
S3151000D100002011E00B480C4B984718480C4B9847D9
S3151000D110D8E701AB5A8880235B009A42CCD001AB8A
S3151000D1209B78012BE6D0002005B0F0BD647B011082
S3151000D1305362011014740110CD640110E07D0110CA
S3151000D140AD630110B5DC0010087E0110147E0110CD
S3151000D150D5F70010FC7C0110E1630110287E011048
S3151000D160FD020110607E0110787E0110947E011080
S3151000D170F8B5060005882F4B0022002410001989E7
S3151000D180A94216D119005E310978012911D9294908
S3151000D1905201101A800008185E30062303706201CF
S3151000D1A0131B9B00CB1870331A8873889A4213D1BD
S3151000D1B006E00134E4B201327C33052CDED10BE0FB
S3151000D1C06101091B89001B4B59187231301D082249
S3151000D1D0194B9847002815D0184F3800184EB047ED
S3151000D1E01848194DA8473800B0471848A847630192
S3151000D1F01C1BA4000F4B1C1920890521144B9847A2
S3151000D200E22016E06201131B9B00603309495B188C
S3151000D210141BA4000C19217D308801220D4CA04747
S3151000D220002806D00548064B98470B48064B9847EA
S3151000D2300020F8BD10A401103562011014740110FD
S3151000D240CD640110A87E0110AD630110E07E0110BF
S3151000D250D5F7001031040110387F011030B5002ABF
S3151000D26047D0062947D88900284B5B589F46284B3C
S3151000D27005240AE0274B012407E0274B052404E088
S3151000D280264B012401E0264B0524002816D11968E7
S3151000D29000290BD106E01D000433181F0068002872
S3151000D2A006D100E01D002A6001212CE00433002184
S3151000D2B00131C9B2A142EED3002124E00021012898
S3151000D2C021D119688A420CD106E01D000433181FBB
S3151000D2D00068824207D100E01D0000232B60012167
S3151000D2E011E0043300210131C9B2A142EDD300216E
S3151000D2F009E0002107E0002105E00A4B0524C4E7F8
S3151000D300094B0124C1E7080030BDC046587A011008
S3151000D310FCA30110F8A3011080A6011034AC011073
S3151000D32094A60110A8A60110F0A60110F0B55F464C
S3151000D33056464D464446F0B48DB006000024724B56
S3151000D3401C60072200217148714DA8471222002146
S3151000D3507048A847704A00217048A847704B1C7047
S3151000D360CD22920000216F48A8476F4B1C70832274
S3151000D370920000216D48A8476D4B9B468023DB0029
S3151000D3809A461A0000215846A8476A4B99468023A8
S3151000D3905B0198461A0000214846A847664F1C2292
S3151000D3A000213800A8475B46BB605346FB604B46DE
S3151000D3B03B6143467B61614B1C605C609C60DC603A
S3151000D3C01C615F4B1C605C609C60DC601C615D4B8B
S3151000D3D01C605C609C60DC601C615B4B1C605B4B82
S3151000D3E01C605B4B1C605C609C60DC601C61594B74
S3151000D3F01C60594C9B239B009846A044444F4025E3
S3151000D4007C2200212000B84723005E3300221A70C8
S3151000D41025767C34A045F3D1504B1A7046483E4BC6
S3151000D42043603E4B03604E4B984700280BD04D4E41
S3151000D43030004D4DA8474D484D4CA0473000A847E9
S3151000D4404C48A047FEE74C4A002100204B4CA04711
S3151000D4504B4A02210020A04709214A484A4B9847C7
S3151000D460002805D03F48404B98474848404B9847BE
S3151000D4700722474908316846464B9847262200211D
S3151000D48002A8234B9847002E0CD16846424B98476A
S3151000D4906E46002806D03348334B98473F48344BE6
S3151000D4A098476E4602AC0A2323703D4B63800722D1
S3151000D4B0310003A8374B98470023E3762377637729
S3151000D4C0A377E3772384638480239B00A3842000BF
S3151000D4D0344B9847002805D02248234B98473248AA
S3151000D4E0234B98473000314B9847002805D01D48EC
S3151000D4F01D4B98472E481E4B98470DB03CBC904686
