S0170000534D535F7065726970686572616C312E737265635E
S3151000800010B5184B184A9A4203D0184B154A9A4283
S3151000801004D3174B174A9A4210D31EE0164B134A35
S315100080200332D21A92080132920000230D480E49EB
S31510008030CC58C45004339342FAD1EAE70F4B0C499B
S315100080400331C91A8908013189000023094C00201F
S315100080501A19106004338B42FAD1094B9847094B11
S31510008060984710BD984E0110984E0110044F0110FC
S31510008070EC7C0110044F01109C4E0110084F0110AA
S315100080801121011061D8001010B5064C2378002B71
S3151000809007D1054B002B02D0044800E000BF012396
S315100080A0237010BD044F011000000000984E0110FF
S315100080B0084B10B5002B03D00749084800E000BF55
S315100080C007480368002B00D110BD064B002BFBD0D0
S315100080D09847F9E700000000084F0110984E01106C
S315100080E0984E011000000000012303704370FA231C
S315100080F0DB0143607047C046064B00225A601A687F
S3151000810003218A431A6019008022D2010B68134298
S31510008110FCD1704700D00040024A116810230B436F
S315100081201360704700D0004010B5044B9847044BBD
S315100081301B68002B00D0984710BDC046198100104F
S31510008140204F0110014B18607047C046204F011098
S315100081500022014B1A607047204F0110F0B583B012
S3151000816000222B4B1A730378022B05D1284A117B58
S3151000817001330B43137305E0012B03D1244A117B02
S315100081800B431373234B1A6853001FD0214D00273E
S315100081902C26FF368021C9012F6001970197019B7C
S315100081A0B34206D8C046019B01330193019BB342EB
S315100081B0F8D944780B00002C03D180239B0000E0F3
S315100081C02A681342FCD12A685300E5D14378002B64
S315100081D005D1104B42685A6001221A6004E00D4B1B
S315100081E042685A6002221A604378012B09D1094964
S315100081F0E022D2010B6813409342FBD10022054BBB
S315100082001A6005492B20054B984703B0F0BDC046B0
S3151000821000E0004000D0004029810010CDB00010D1
S3151000822010B582B00A480B4B98470B4B1978C9B258
S315100082300A4B1A78D2B20A4B1B78DBB2094800787F
S3151000824000900948094CA047002002B010BDC04656
S3151000825048330110BD220110D46901107E6A011045
S31510008260CC6901107F6A01104C3301109D21011059
S3151000827010B501200C4B984700220C4B1A70223275
S315100082800B4B1A700B480C4B98470C4C2178C9B203
S315100082900B480C4B98472378002B02D101220A4B2E
S315100082A01A70002010BDC046D59300107F6A0110C9
S315100082B07E6A011048330110BD220110CC690110ED
S315100082C09C3301109D210110D669011010B50120B3
S315100082D0084B98470022084B1A702232074B1A7027
S315100082E0074B1B78002B02D1213A064B1A7000203F
S315100082F010BDC046D59300107F6A01107E6A01102A
S31510008300CC690110D669011010B50222024B1A7001
S315100083101620024B984710BD7F6A0110FD8C001085
S3151000832010B52A482A4B98472A4B1B78002B05D1A3
S315100083300122294B1A70294B984745E0254B1B788B
S31510008340DBB2212B2CD002D8202B05D033E0222BE8
S3151000835017D0232B1BD02EE02148224B98472248BA
S31510008360224B9847224B9847002803D021481F4B91
S31510008370984720E020481D4B98471122154B1A703C
S3151000838019E01748174B98471C48184B984714483C
S31510008390144B98471A48154B98470120194B984784
S315100083A00F48104B98471848104B9847174B18888A
S315100083B01321174B98471122064B1A700E3A154B7C
S315100083C01A701620144B984710BDC046B4330110CE
S315100083D069D700107E6A0110D669011095D4001075
S315100083E048330110BD220110CC3301109D2101101C
S315100083F021E90010203401102C34011034340110FE
S315100084008C34011005D80010B8340110286A0110F8
S315100084104DE900107F6A0110FD8C001010B5112275
S31510008420054B1A700548064B98470648064B984761
S31510008430064B9847002010BD7E6A01104833011084
S31510008440BD220110F03401109D210110218300106E
S3151000845010B50A4B1B78202B0CD10289084B1A80B9
S315100084602122064B1A700748074B98470748084BB6
S31510008470984701E0074B9847002010BD7E6A01100F
S315100084807C6A011048330110BD22011024350110F9
S315100084909D2101102183001010B5094B1B78212B4B
S315100084A009D12222064B1A700648074B984701201D
S315100084B0064B984701E0064B9847002010BDC04672
S315100084C07E6A01105435011069D70010CDD70010FF
S315100084D02183001010B584B02022174B1A70174B49
S315100084E09847041E07D01648164B98471648174B40
S315100084F0984720001EE000230293154B0193C823D2
S31510008500DB0000930023002201210020114CA0471C
S31510008510041E07D10A480B4B98470F480B4B984738
S31510008520002007E00648074B984721000B48074BE9
S315100085309847E22004B010BD7E6A0110D1CA00101F
S3151000854048330110BD220110683501109D2101101C
S315100085508F020000E5E700109C350110CC350110A4
S3151000856030B583B005001A4B1B78222B05D101209C
S31510008570184B98470020184B9847154C1123237019
S315100085801648174B9847174B1978C9B22278D2B2AA
S31510008590154B1B78DBB21548007800901448154C23
S315100085A0A047AB781A2B0BD0DAB21A2A04D8052BAF
S315100085B006D0082B07D103E0292B01D03B2B02D183
S315100085C00D4B984701E00D4B9847002003B030BD86
S315100085D07E6A011005D80010CDD70010483301105F
S315100085E0BD220110D4690110CC6901107F6A0110F7
S315100085F0103601109D210110D58400102183001022
S3151000860070B584B023223D4B1A703D4A138801334E
S315100086101380012817D0002802D0022827D042E064
S31510008620384B1B785900384A895A00227E2901D8BE
S3151000863001318AB25B0034495A5201AB1A70334B7E
S315100086409D8A012231E0324B1A7851002E4BC95ABD
S315100086500023FE2901D801318BB252002A49535208
S31510008660803B01AA1370294B9D8A01221DE02949DE
S315100086700A6A01AB1A700A6A12125A700A6A12143E
S315100086809A700A6A1216DA70CA691A71CA691212CF
S315100086905A71CA6912149A71CA691216DA711E4B86
S315100086A09D8A082201E00022002592B201A9280025
S315100086B01A4B9847041E1DD1114B19881848194B8F
S315100086C0984701210220184EB0470022174B1A7006
S315100086D0174B18882900174B9847040000210220D1
S315100086E0B047002C06D10122134B1A7064210120C9
S315100086F0124B9847200004B070BDC0467E6A011028
S31510008700EC6A0110C8690110D0690110D86901100E
S315100087102C6A0110506A01109C6A0110C9F00010F1
S31510008720643601109D21011061A100107B6A0110B1
S31510008730286A011069F200107F6A01107593001003
S3151000874010B582B0010012310123019303001433D6
S31510008750009300230022024CA04702B010BDC04671
S31510008760A9F0001010B50122044B1A70044B58786A
S31510008770002300220221034CA04710BD786A011085
S31510008780C8690110C9D1001010B50222044B1A7025
S31510008790044B5878002300220221034CA04710BD39
S315100087A0786A01102C6A0110C9D1001010B582B078
S315100087B001AC2000204B98470023237002336370CE
S315100087C0013BE3701D4B587821001D4B984700283C
S315100087D005D01C481C4B98471C481D4B984701ACAC
S315100087E02000154B98470023237002336370013B1A
S315100087F0E370184B58782100114B9847002805D084
S315100088001048114B98471448114B984701AC20005B
S31510008810094B984700232370637021001720084BDB
S315100088209847002805D00748074B98470B48084B30
S31510008830984702B010BDC046F99E0010C8690110D5
S31510008840099F001048330110BD220110E4360110B3
S315100088509D2101102C6A01101C370110543701108C
S3151000886010B5064B587802220549064CA047064B10
S31510008870587802220549A04710BDC046C8690110A4
S315100088806587001039A300102C6A01108987001023
S3151000889070B51F200C4DA84704001D20A8470500E1
S315100088A006000A480A4B98472200290009480A4B35
S315100088B09847002C04D00320002D04D1023802E082
S315100088C0701E8641700070BDC1A0001048330110A3
S315100088D0BD2201109C3701109D21011070B50500B5
S315100088E0614C2378DBB2614A1370614B9847207054
S315100088F0002D03D15F48604B984705E0012D00D04D
S31510008900A3E05E485C4B9847574B1B78DBB2012BB4
S3151000891007D0002B00D193E0022B3AD0032B70D056
S3151000892096E0574B1B78DBB2002B03D0223B012B72
S3151000893026D80EE00122534B1A700023524A1370A8
S31510008940524A13700022FA210120514B98470020F9
S3151000895088E000234B4A13704B4A13704D4B1B781B
S31510008960AB4204D100204C4B984700207AE04B4B89
S315100089701B78AB426ED10120474B9847002071E01F
S315100089804748484B98474848484B9847012040422B
S3151000899068E03B4B1B78DBB2222B12D0232B27D05F
S315100089A0002B5AD10122374B1A700023364A137006
S315100089B0364A13700022FA210120354B98470020C1
S315100089C050E000232F4A13702F4A1370314B1B7837
S315100089D0AB4204D10020304B9847002042E02F4B89
S315100089E01B78AB423CD101202B4B9847002039E035
S315100089F02B482C4B98472E482C4B98470120404229
S31510008A0030E01F4B1B78002B08D11E4A13701E4AEC
S31510008A1013700122274B1A70002023E00120264BE9
S31510008A2098470322174B1A700023174A1370174AD8
S31510008A3013700022FA210120154B9847002011E0EF
S31510008A4001221C4B1A7000200CE00120404209E064
S31510008A50002007E00120404204E00120404201E0EE
S31510008A600120404270BDC046D46901108C6A0110C5
S31510008A7091880010C837011069D70010DC37011033
S31510008A807E6A0110CC6901107F6A0110EE6A01102E
S31510008A9075930010C8690110018600102C6A011028
S31510008AA048330110BD220110F03701109D2101102D
S31510008AB018380110D669011005D8001010B50C0031
S31510008AC0002804D10C4B58780C4B984705E0012828
S31510008AD003D1094B58780A4B9847002C04D1094BFF
S31510008AE05878064B984705E0012C03D1054B58786A
S31510008AF0034B984710BDC046C869011009A4001061
S31510008B0065A400102C6A011010B582B00023002154
S31510008B104382022202700022417082705724C47070
S31510008B203B3C047142718271A234C471643C04727C
S31510008B30427282722A3CC472203404734273827366
S31510008B40BB22C2730274993A02856A460732C26220
S31510008B500122028642863F3C3332845483638387E4
S31510008B60C38710328154013281540132815402324A
S31510008B7083520232835202328352036402B010BD12
S31510008B8010B582B06B46991D00230B800D4C20004A
S31510008B900D4B984720000D4B9847041E07D00C48E4
S31510008BA00C4B984721000C480C4B984707E0084897
S31510008BB0084B9847034B598A0948084B984702B007
S31510008BC010BDC046D8690110098B001041870010EE
S31510008BD048330110BD2201103C3801109D210110AF
S31510008BE08038011010B582B001AC2000154B9847A3
S31510008BF00023237002336370013BE37021001E20B3
S31510008C00114B9847002805D01048114B984711482A
S31510008C10114B984701AC20000A4B9847012323704B
S31510008C2021000620084B9847002805D10748084B15
S31510008C3098470A48084B984700210620084B984742
S31510008C4002B010BDF99E0010099F001048330110A4
S31510008C50BD220110C83801109D21011008390110DC
S31510008C6061A1001010B50021014B984710BDC046F8
S31510008C7061A1001010B50121014B984710BDC046E7
S31510008C8061A1001010B582B001AC20000A4B9847C4
S31510008C900123237021001620084B9847002805D081
S31510008CA00748084B98470848084B98471620084B22
S31510008CB0984702B010BDC046F99E0010099F0010DB
S31510008CC048330110BD220110483901109D210110B1
S31510008CD0758C001010B50400054B9847002803D179
S31510008CE02000044B984702E02000034B984710BD24
S31510008CF011A10010758C0010658C001010B50C4B6E
S31510008D00984700220B4B1A700B4B1B78DBB2022BC9
S31510008D1002D0032B02D004E0642103E0C8214900ED
S31510008D2000E0002101220120044B984710BDC046E7
S31510008D30658C0010F46A01107F6A0110759300109B
S31510008D4010B582B0054A1E2313701D3B0093044BC9
S31510008D5004490548054CA04702B010BD406A0110F1
S31510008D60306A0110806A0110846A01105592001051
S31510008D7010B50B480B4B98470B480C4B98470C4BB0
S31510008D8001212522995400225A700A4B9847022233
S31510008D90094B1A70002203210120084B984710BD79
S31510008DA048330110BD220110BC3901109D2101105C
S31510008DB0506A0110418D0010CC6901107593001096
S31510008DC0F0B5574680B482B0374DA2232B700023DE
S31510008DD06B70AB70354C03339A46009323002A0010
S31510008DE033493448344FB84763781B02A27813438B
S31510008DF0324EF380A4232B705346009323002A008F
S31510008E002B492C48B84763781B02A2781343338149
S31510008E10A6232B705346009323002A002449254885
S31510008E20B84763781B02A27813437381A8232B706B
S31510008E305346009323002A001D491E48B8476378FD
S31510008E401B02A2781343B381AA232B7053460093B7
S31510008E5023002A0016491748B84763781B02A278E0
S31510008E601343F381AC232B705346009323002A003F
S31510008E700F491048B84763781B02A2781343338210
S31510008E80AE232B705346009323002A000849094845
S31510008E90B84763781B02A27813437382002002B08E
S31510008EA004BC9246F0BDC046406A0110306A0110FB
S31510008EB0806A0110846A011055920010506A0110E0
S31510008EC010B5064B9847002806D1054B01229A701B
S31510008ED002212432995400E0102010BDC18D0010DB
S31510008EE0506A0110F0B54F464646C0B483B02523EC
S31510008EF02C4AD35CDBB2032B02D0042B25D04BE0DB
S31510008F00294C002323706370A370E370274D042748
S31510008F1000972B00220026492648274EB146B04717
S31510008F206B781A04AB781B021343EA7813431D4E71
S31510008F30736152232370513B00932B0022001C496E
S31510008F401C48C8472523F75426E0174C00232370E6
S31510008F506370A370E370154D043300932B00220049
S31510008F6013491448144EB046B0476B781A04AB78C0
S31510008F701B021343EA7813430A4EB361422323704C
S31510008F80012700972B00220009490A48C0470322EF
S31510008F902523F254013BF754002003B00CBC904635
S31510008FA09946F0BD506A0110406A0110306A0110EE
S31510008FB0806A0110846A011055920010F0B55F4660
S31510008FC056464D46E0B482B02B4DEC89AB69288AE3
S31510008FD080B224021C1BE3171F00284A9146220068
S31510008FE00021C8474902C00D0843FA23DB009C46FE
S31510008FF0604428622E89B6B2A88980B222000197F1
S315100090003B000021C8474F06C2093A43CB11002145
S31510009010300412184B4116001F00EB889AB2924684
S31510009020688980B26A6993462200019B0021C8476D
S315100090300C06020A22430B1200215446E003801844
S3151000904059415A460023C847CC02420D22434B15BC
S31510009050921BBB415B04D20B1A43EA610848094BC9
S315100090609847296AEA690848084B984702B01CBC19
S3151000907091469A46A346F0BD506A0110311101106F
S3151000908048330110BD220110F03901109D21011045
S3151000909010B5114B1B78222B1DD11048104B984739
S315100090A01048114B9847114B9847002806D00B488B
S315100090B00B4B98470E480C4B98470CE024230D4A4F
S315100090C0D35C002B07D000212423D1540A4B984798
S315100090D002200A4B984710BD7E6A011048330110D2
S315100090E0BD220110303A01109D210110E58E0010AD
S315100090F0603A0110506A0110BD8F001001860010F1
S3151000910082B00123438201330370002343708370BE
S315100091105722C2703B3A027143718371A232C271F7
S31510009120643A0272437283722A3AC272203202730E
S31510009130437383739E32C2730274CC3A02856A46B5
S315100091400732C26208220286428611212C328154CD
S31510009150836300228387C3873331425401314254DB
S3151000916001314254482283520232835202328352D0
S31510009170036402B07047C04610B582B06B46D91D65
S3151000918000230B700D4C20000D4B984720000D4B03
S315100091909847041E07D00C480C4B984721000C48E2
S315100091A00C4B984707E00848084B9847034B598AD9
S315100091B00948084B984702B010BDC0469C6A01107A
S315100091C0019100104187001048330110BD22011093
S315100091D0983A01109D210110E03A011030B58DB07A
S315100091E001AC2000134B984710232370210012481E
S315100091F0124B984702AC2000114B984768232371F5
S315100092000023A3701133A3600D3BA3611322E26008
S31510009210E361143A22612262133262616362094D7C
S31510009220220009492800094B98472800084B9847FF
S315100092300DB030BDA5980010806A0110DD980010A1
S31510009240B1980010846A011000700040AD990010AA
S315100092501D990010F0B583B004000D000092019323
S3151000926008AB1E880122084FB8473300019A0099AF
S315100092702000064EB0470600002229002000B847FD
S31510009280300003B0F0BDC046959B0010119B001036
S3151000929010B50422044B1A70002300220321422029
S315100092A0024CA04710BDC046786A0110C9D1001003
S315100092B030B583B004000D006846054B98476B46E1
S315100092C05D7001946846034B984703B030BDC046A5
S315100092D0E98000105D81001010B5014B984710BD54
S315100092E0F980001010B50448044B984780221205E7
S315100092F0034B1A6010BDC0469192001045810010B4
S3151000930000E100E010B5044B984780210905802341
S31510009310024AD15010BDC0465181001000E100E054
S3151000932010B588B001AC2000084B9847084AA260D7
S3151000933000236370626163732000064B9847002018
S31510009340054CA0470120A04708B010BDF99B00109E
S3151000935080BA8C018D9C0010699C001010B5040019
S31510009360024B98472000024B984710BD919D001064
S31510009370699C001010B51400012806D0002802D0F0
S31510009380022804D005E01A2204E00C4A02E00C4A36
S3151000939000E00122002901D1FA2189000020094BA1
S315100093A018704A4300212000074B98472000074BAE
S315100093B098478022D201064B1A6010BD90650000B6
S315100093C080BA8C01D66901101D9C0010459C0010B6
S315100093D000E100E010B5014B984710BD699C0010E4
S315100093E010B50522044B1A700023002201214020DB
S315100093F0024CA04710BDC046786A0110C9D10010B2
S3151000940010B50622044B1A700023002201214120B8
S31510009410024CA04710BDC046786A0110C9D1001091
S3151000942070B5A64B1B78DBB2022B06D0032B00D1EE
S3151000943009E1012B00D039E152E000229F4B1A704E
S315100094409F4B0121597025315A549E4B984700283D
S315100094502DD09D489D4B98479D489E4B98479849BF
S3151000946026228B5C0133DBB28B548B5CDBB2032B75
S3151000947014D99548954B98479748964B984700218D
S3151000948025238F4AD1540122944B1A70944B1B7882
S31510009490002B00D011E1934B1A700EE10222874B7C
S315100094A01A700022032101208F4B984705E10221F3
S315100094B02523834AD1540522884B1A708248834B40
S315100094C098478A48834B98470020894B9847844B86
S315100094D01B78002B00D0F0E00122824B1A70ECE0D2
S315100094E00022764B1A70834D2B78DBB2824C237098
S315100094F0824B984728708248824B98472378DBB274
S31510009500012B02D0022B4DD095E07A4B1B78DBB2A3
S31510009510012B02D0022B23D03BE07B4B1B78002B78
S3151000952015D17A4A13780133DBB213700F2B05D994
S315100095300022624B1A70764B9847BEE001225F4BB1
S315100095401A700022FA210120674B9847B5E0644B48
S315100095501B78002B00D0B0E00122624B1A70ACE0F1
S31510009560694B1B78002B0BD10022684B1A70013205
S31510009570524B1A700022642101205B4B98479CE0E5
S31510009580574B1B78002B00D097E00122554B1A70D1
S3151000959093E0534B1B78002B00D08EE00122514BE9
S315100095A01A708AE0534B1B78DBB2012B23D0022BA7
S315100095B039D1554B1B78002B15D1544A13780133EA
S315100095C0DBB213700F2B05D900223C4B1A70504B8F
S315100095D0984772E00122394B1A700022FA210120B5
S315100095E0414B984769E03E4B1B78002B65D1012211
S315100095F03C4B1A7061E0444B1B78002B0BD10022B8
S31510009600424B1A7001322D4B1A7000226421012030
S31510009610354B984751E0324B1B78002B4DD1012228
S31510009620304B1A7049E02E4B1B78002B45D1012286
S315100096302C4B1A7041E02A4B1B78002B3DD101228E
S31510009640284B1A7039E02B4D2B78DBB22A4C23703D
S315100096502A4B984728702A482A4B98472378032B79
S3151000966016D1244B1B78032B12D1284A13780133B9
S31510009670DBB21370092B02D9264B98471DE0032243
S315100096800E4B1A700022FA210120174B984714E04E
S315100096900020174B98470022084B1A70104B1B7866
S315100096A0002B0AD101320F4B1A7006E00C4B1B78B7
S315100096B0002B02D101220B4B1A7070BDCC69011020
S315100096C0506A0110C18E001048330110BD220110DE
S315100096D02C3B01109D2101105C3B0110D569011036
S315100096E07F6A0110D669011075930010B43B011002
S315100096F005D80010D46901108C6A011091880010E9
S31510009700EC3B011069D700107E6A0110EE6A011059
S31510009710098300102183001010B54B484B4B984716
S315100097204B4B1B78DBB2022B38D0032B5DD0012BB1
S3151000973000D087E00022464B1A70464B1B78222B2E
S3151000974007D1454B1B78002B7CD10132434B1A7045
S3151000975078E0434A13780133DBB21370002B11D033
S315100097604048414CA0470022394B1A702232394BDF
S315100097701A703E483E4B98473E48A04700203E4B45
S3151000978098475FE000213D48374B98470122304B00
S315100097901A70642101203A4B984753E03348344BF2
S315100097A098473848304B98470022294B1A70364A4A
S315100097B013780133DBB213701378DBB2072B08D999
S315100097C01620324B9847324B98470122234B1A707A
S315100097D038E016202F4B984702221D4B1A70013A7B
S315100097E064210120264B98472CE02048204B9847AF
S315100097F029481D4B98470022154B1A70224A137898
S315100098000133DBB213701378DBB2032B0ED916209B
S315100098101E4B98471548164B98472048124B9847A9
S315100098201F4B984701220D4B1A700BE01620194B4F
S3151000983098470322064B1A70023AC82149000120A4
S315100098400F4B984710BDC046003C011069D7001059
S315100098507F6A01107E6A0110CC690110D669011069
S315100098607B6A0110143C01109D2101104833011030
S31510009870BD220110243C011005D80010503C0110E7
S31510009880759300106C3C0110F46A0110758C001071
S31510009890D5840010D58C0010983C0110C43C0110E2
S315100098A065D600100C230370002343708370704735
S315100098B001230370002343708370C37081330371D7
S315100098C0773B83600133C360013303610133436126
S315100098D00B3B8361C36103624362704730B583B04B
S315100098E004000B7803704B7843708B78837001AD4E
S315100098F02800074B984701232B7020782900054B29
S31510009900984720780121044B984703B030BDC046D4
S31510009910F99E0010099F001061A100100368012232
S315100099201A76704710B500230268137603680D4A3D
S31510009930934209D141200C4CA0472620A04738203D
S31510009940A0470120A0470BE0084A934208D14220C5
S31510009950054CA0472720A0473920A0470220A04742
S3151000996010BDC04600600040F9A80010007000400D
S3151000997010B50468094B9847094B9C4205D1012044
S31510009980084CA0473820A04707E0074B9C4204D15B
S315100099900220044CA0473920A04710BD259900107D
S315100099A00060004065AC001000700040F0B55F46E6
S315100099B04646C0B483B006008846150031600B7E5B
S315100099C0DB0701D500230B7630004A4B98473368E6
S315100099D0494A934209D14120484CA0472620A04726
S315100099E03820A0470120A0470BE0454A934208D1F2
S315100099F04220424CA0472720A0473920A0470220EA
S31510009A00A04701A83F4B98472C00083418239B46C3
S31510009A10AB4427002068431C11D02B78012B02D1B0
S31510009A206A46137103E0002B01D16A461371C0B266
S31510009A3001A9354B9847398A3878344B98470434FE
S31510009A405C45E6D1EB78424613742B78012B00D196
S31510009A5013772B78002B01D14246137733682A7877
S31510009A6072712A78012A01D12A799A826A78042A8F
S31510009A7004D12421585C02435A5404E024215A5C30
S31510009A80042082435A54AA78012A1AD0002A04D0F4
S31510009A90022A0CD0032A1ED026E02422995C02202A
S31510009AA081439954995C0138814399541CE02422CE
S31510009AB0985C022101439954995C01208143995481
S31510009AC012E02422995C022081439954985C01216A
S31510009AD00143995408E02422985C022101439954C9
S31510009AE0985C012101439954002003B00CBC9046A8
S31510009AF09B46F0BD71990010006000409DA50010B6
S31510009B0000700040F99E0010099F0010EDA1001092
S31510009B10F0B583B0046800266D46EE710735002C4B
S31510009B2034D0002904D129008079287001270BE050
S31510009B30002A05D01720002B29D00026002703E085
S31510009B40012600276A4607322825605DC007FCD427
S31510009B50207B207A002B14D0002578424741704292
S31510009B604641207AC007FCD508782070207BC007B4
S31510009B70FCD5207910700135ADB2C9199219AB42D6
S31510009B80EFD1237ADB06FCD5002000E01F2003B0BE
S31510009B90F0BDC04610B50878002A03D00021044B4A
S31510009BA0984702E00121024B9847002010BDC0469D
S31510009BB061A1001010B50D4B1B7D002B07D00122A3
S31510009BC00A4B1A730A4B1B68002B00D09847342394
S31510009BD0064AD35C002B07D001212C23D154054B08
S31510009BE01B68002B00D0984710BDC04600100040DF
S31510009BF0244F0110284F0110012303700373022212
S31510009C0042704273837083730022C270C2730371F1
S31510009C1003748260426102767047C046002807D1FD
S31510009C20002902D1064B1A6009E0054B9A6106E03D
S31510009C30002902D1024B1A6201E0014B9A63704768
S31510009C4000100040002805D1064A117A80230B43E4
S31510009C50137205E003492822885C802303438B5442
S31510009C607047C04600100040002805D1064A117AF8
S31510009C707F230B40137205E003492822885C7F235B
S31510009C8003408B547047C0460010004070B5040066
S31510009C900420394B98472378002B02D1237B002BC5
S31510009CA065D03649CA6820231343CB60227E8B6960
S31510009CB00320024012012D30834313438B61237816
S31510009CC0002B26D063780121002B03D0023B5D4286
S31510009CD05D41A901A278520002252A40E3789B0033
S31510009CE00A352B401A4315000D432379002B01D05A
S31510009CF020231D43224BA2681A601D721F49C422DD
S31510009D005200885C012303438B5400201D4B984757
S31510009D1000E00025237B002B29D0637B002B05D088
S31510009D20012B05D0022B04D1402502E0012500E0CD
S31510009D300025A37B5B0002211940E27B92000C23D5
S31510009D4013400B431D43237C002B01D020231D43BE
S31510009D5062690B4B1A6228229D5408496132FF3200
S31510009D60885C022303438B540120064B984706490F
S31510009D701E20064B984770BD65AC001000B0004021
S31510009D8000100040459C0010B59B0010CDB000108F
S31510009D90002802D1024B196001E0024B196070478E
S31510009DA0244F0110284F011070B5164B1D68298FCE
S31510009DB089B2CB0707D401230124180022009A4048
S31510009DC0114214D001E00122002092B22A874623C4
S31510009DD00C4AD35A0341DB070CD54423D35A03410B
S31510009DE0DB0707D5800010184368984702E0013357
S31510009DF0102BE2D180210904C0235B00024AD15006
S31510009E0070BDC046F86A011000E100E0F8B5184BC5
S31510009E109B6C1E8FB6B237000024760B7603144D5A
S31510009E20002E01D0134B984722000123A3401F4256
S31510009E3013D09BB2A96C0B878E23EB5A2341DB07F9
S31510009E400BD58C230A49CB5A2341DB0705D5123291
S31510009E5092008A185368984702E00134102CDFD11B
S31510009E6080214904C0235B00034AD150F8BDC04687
S31510009E70F86A011051BC010000E100E010B5902312
S31510009E801B4AD258138F9BB2D90414D499040AD4FE
S31510009E9059040CD4DB0BDB039BB2002B20D08023A0
S31510009EA01B020F210AE080239B010D2106E080236F
S31510009EB0DB010E2102E080235B010C219BB213878C
S31510009EC0D6230B4AD35A0B41DB0709D5D423D35AD1
S31510009ED00B41DB0704D52431890051184B6898478C
S31510009EE080218904C0235B00024AD15010BDC046B0
S31510009EF0F86A011000E100E00023037001224270AD
S31510009F008370C3707047C04670B51723012800D8F8
S31510009F10C8E0072809D8644D6A6C103B03409B00C3
S31510009F2007249C40A2436A6429E00F2809D85E4D95
S31510009F30AA6C072303409B0007249C40A243AA64F3
S31510009F401DE0172809D8584DEA6C072303409B00DB
S31510009F5007249C40A243EA6411E003002C3B032B28
S31510009F600DD8524D8224E4002A5D120701269E4028
S31510009F70120F2B5DB2430F26B34313432B55030029
S31510009F801D3B022B29D84B78012B08D1474D2B7D31
S31510009F901F24241A0122A24093432B7508E0434C38
S31510009FA0257D1F22121A012393402B43DBB2237502
S31510009FB0CA780023002A75D03C490C881F22101A33
S31510009FC080000133834023439BB20B80384A1178BB
S31510009FD002230B431370002364E00A78002A40D151
S31510009FE00F2808D8012383409BB2324A938200235C
S31510009FF01F2857D812E01F2807D80F220240012326
S3151000A00093409BB22C4A938208E00F2318400E3BD4
S3151000A01083409BB2294A9382002343E04B78012B5D
S3151000A0200CD0002B02D0022B10D03AE01E490A6D3C
S3151000A0300123834013430B65002333E01A490B6D4C
S3151000A0400122824093430B6500232BE0164B596D7A
S3151000A0500122824011435965196D914319650023F8
S3151000A06020E00023012A1DD10F2806D80133834092
S3151000A0709BB2104A1382002314E01F2808D80F231E
S3151000A08018400E3B83409BB20B4A1382002309E013
S3151000A0900F2318400E3B83409BB2084A13820023BD
S3151000A0A000E01723180070BD00B0004000F000401B
S3151000A0B000E0004000000140001001400030014067
S3151000A0C00F2806D80F4B1988012383401800084023
S3151000A0D014E01F2809D80C4B19880F2303401A00C7
S3151000A0E0012393401800084008E0084B19880F23F5
S3151000A0F003401A000123934018000840431E98415C
S3151000A100C0B270470000014000100140003001400D
S3151000A1100F2806D80F4B9988012383401800084052
S3151000A12014E01F2809D80C4B99880F2303401A00F6
S3151000A130012393401800084008E0084B99880F2324
S3151000A14003401A000123934018000840431E98410B
S3151000A150C0B27047000001400010014000300140BD
S3151000A16010B50F2810D8002907D01D4A9188012351
S3151000A17083400B439BB2938031E019498B880122AF
S3151000A180824093438B802AE01F2814D8002909D0D7
S3151000A19014498C880F2210400123834023439BB21D
S3151000A1A08B801CE00F498B880F2210400E3A82409C
S3151000A1B093438B8013E0002909D00B498C880F221A
S3151000A1C010400123834023439BB28B8007E006494E
S3151000A1D08B880F2210400E3A824093438B8010BD1D
S3151000A1E000000140001001400030014070B50D0A1A
S3151000A1F0FF231940072833D84E4A546CF83B0340C6
S3151000A2009B0007269E40B4435464546C0E009E4037
S3151000A210330023435364012900D08AE003280FD862
S3151000A2201100D02252008C5803231840C0003C3332
S3151000A23083409C438C508B5885401D438D5078E04D
S3151000A2403C49D22252008C5803231840C0003C339C
S3151000A25083409C438C508B5885401D438D5068E03D
S3151000A2600F2832D8334A946C072303409B000726E5
S3151000A2709E40B4439464946C0E009E403300234376
S3151000A2809364012955D10B280FD81100D4225200FE
S3151000A2908C5803231840C0003C3383409C438C5099
S3151000A2A08B5885401D438D5043E02249D6225200DB
S3151000A2B08C5803231840C0003C3383409C438C5079
S3151000A2C08B5885401D438D5033E0172831D8194AD5
S3151000A2D0D46C072303409B0007269E40B443D464E6
S3151000A2E0D46C0E009E4033002343D364012920D141
S3151000A2F013280FD81100D82252008C580323184067
S3151000A300C0003C3383409C438C508B5885401D4382
S3151000A3108D500EE0074ADA235B00D1580324204003
S3151000A320C0003C348440A143D150D15885400D43E0
S3151000A330D55070BD00B00040F0B500230F2804D9E9
S3151000A3401F2484425B411D3CE31A012A16D0002AC1
S3151000A35004D0022A22D0032A30D03EE0294EDC0057
S3151000A360E218D20097590F2505400122AA4092B251
S3151000A370BA85E418E400A459A2862EE0214EDC002A
S3151000A380E218D20097590F2505400122AA4092B231
S3151000A390BA85E418E400A45922861EE0194EDC00A2
S3151000A3A0E218D20097590F2505400122AA4092B211
S3151000A3B03A85E418E400A45922860EE0114EDC001A
S3151000A3C0E218D20097590F2505400122AA4092B2F1
S3151000A3D03A85E418E400A459A2860F221040094CCD
S3151000A3E0DD00EA18520012189200A2185160EA18FD
S3151000A3F0D200A21844320121814013880B431380E6
S3151000A400F0BDC046F86A011030B50F2805D8802275
S3151000A4101204124B1A6000220CE01F2805D8802265
S3151000A42052040E4B1A60012204E0802292040B4B58
S3151000A4301A6002220F23184001218140084CD500D2
S3151000A440AB18DB00E3184633188808431880AA189F
S3151000A450D200135989B2198430BDC04600E100E01C
S3151000A460F86A011030B500230F2804D91F22824242
S3151000A4705B411D3AD31A0F22104001218140074C2F
S3151000A480DD00EA18D200A2184632108888431080E0
S3151000A490EB18DB001B5989B2998430BDF86A01109C
S3151000A4A010B5114A1000D830002107E002C39342BC
S3151000A4B0FCD1518011804832824202D01300403BB9
S3151000A4C0F4E70A4B0A4A1A600A4A9A640A49902221
S3151000A4D099500A4927200A4CA0470A492820A04724
S3151000A4E009492920A04710BD3C6B0110F86A0110DC
S3151000A4F0000001400010014000300140A99D0010ED
S3151000A500CDB000100D9E00107D9E001001280DD0BC
S3151000A510002802D002281CD02EE0184A90690C237D
S3151000A52003439361164A174B1A601AE0134B986946
S3151000A530082202439A619A69042082439A61124A58
S3151000A54053688020000303435360104A0D4B1A6072
S3151000A55007E00A4A93690C2083439361084A094B22
S3151000A5601A60064B9A69032082439A619A690140E0
S3151000A57011439961002000E01720704700B0004099
S3151000A58080BA8C01D06B011000F0004080841E0050
S3151000A590014B18687047C046D06B011000B53528BE
S3151000A5A000D9A2E18000D24B1B589F46D14AD168F0
S3151000A5B002230B43D360002098E1CE4AD1680423CE
S3151000A5C00B43D360002091E1CA4AD16808230B439C
S3151000A5D0D36000208AE1C74AD16810230B43D360A9
S3151000A5E0002083E1C34AD16820230B43D3600020A7
S3151000A5F07CE1C04AD16880230B43D360002075E10B
S3151000A600BC4AD368802149000B43D36000206DE11A
S3151000A610B84AD368802109010B43D360002065E155
S3151000A620B44AD368802149010B43D36000205DE111
S3151000A630B04AD368802189010B43D360002055E1CD
S3151000A640AC4AD3688021C9010B43D36000204DE189
S3151000A650A84AD368802109020B43D360002045E144
S3151000A660A44AD368802149020B43D36000203DE100
S3151000A670A04AD368802189020B43D360002035E1BC
S3151000A6809C4AD3688021C9020B43D36000202DE178
S3151000A690984AD368802109030B43D360002025E133
S3151000A6A0944AD368802149030B43D36000201DE1EF
S3151000A6B0904AD368802189030B43D360002015E1AB
S3151000A6C08C4AD3688021C9030B43D36000200DE167
S3151000A6D0884AD368802109040B43D360002005E122
S3151000A6E0844AD368802149040B43D3600020FDE0DF
S3151000A6F0804AD368802189040B43D3600020F5E09B
S3151000A7007C4AD3688021C9040B43D3600020EDE056
S3151000A710784AD368802109050B43D3600020E5E011
S3151000A720744AD368802149050B43D3600020DDE0CD
S3151000A730704AD368802189050B43D3600020D5E089
S3151000A7406C4AD3688021C9050B43D3600020CDE045
S3151000A750684A116901230B4313610020C6E0654A5C
S3151000A760116902230B4313610020BFE0614A11698E
S3151000A77004230B4313610020B8E05E4A11690823D5
S3151000A7800B4313610020B1E05A4A116910230B43A1
S3151000A79013610020AAE0574A116920230B43136165
S3151000A7A00020A3E0534A116940230B431361002094
S3151000A7B09CE0504A116980230B431361002095E0F9
S3151000A7C04C4A1369802149000B43136100208DE028
S3151000A7D0484A1369802189000B431361002085E0E4
S3151000A7E0444A13698021C9000B43136100207DE0A0
S3151000A7F0404A1369802109010B431361002075E05B
S3151000A8003C4A1369802149010B43136100206DE016
S3151000A810384A1369802189010B431361002065E0D2
S3151000A820344A13698021C9010B43136100205DE08E
S3151000A830304A1369802109020B431361002055E049
S3151000A8402C4A1369802149020B43136100204DE005
S3151000A850284A1369802189020B431361002045E0C1
S3151000A860244A13698021C9020B43136100203DE07D
S3151000A870204A1369802109030B431361002035E038
S3151000A8801C4A1369802149030B43136100202DE0F4
S3151000A890184A1369802189030B431361002025E0B0
S3151000A8A0144A13698021C9030B43136100201DE06C
S3151000A8B0104A1369802109040B431361002015E027
S3151000A8C00C4A117D01230B43137500200EE0094A33
S3151000A8D0117D02230B431375002007E0054A117DF5
S3151000A8E004230B431375002000E0172000BDC0465B
S3151000A8F0EC3C011000B0004000B5352800D97DE1D0
S3151000A9008000BF4B1B589F46BE4AD36802218B431B
S3151000A910D360002073E1BB4AD36804218B43D36014
S3151000A92000206CE1B74AD36808218B43D36000201E
S3151000A93065E1B44AD36810218B43D36000205EE1F1
S3151000A940B04AD36820218B43D360002057E1AD4A2B
S3151000A950D36880218B43D360002050E1A94AD16887
S3151000A960A94B0B40D360002049E1A64AD168A74BFA
S3151000A9700B40D360002042E1A24AD168A44B0B40A1
S3151000A980D36000203BE19F4AD168A24B0B40D360B5
S3151000A990002034E19B4AD1689F4B0B40D3600020C6
S3151000A9A02DE1984AD1689D4B0B40D360002026E1DB
S3151000A9B0944AD1689A4B0B40D36000201FE1914A0C
S3151000A9C0D168984B0B40D360002018E18D4AD168AE
S3151000A9D0954B0B40D360002011E18A4AD168934B06
S3151000A9E00B40D36000200AE1864AD168904B0B4099
S3151000A9F0D360002003E1834AD1688E4B0B40D360AD
S3151000AA000020FCE07F4AD1688B4B0B40D3600020BE
S3151000AA10F5E07C4AD168894B0B40D3600020EEE00C
S3151000AA20784AD168864B0B40D3600020E7E0754A20
S3151000AA30D168844B0B40D3600020E0E0714AD168A6
S3151000AA40814B0B40D3600020D9E06E4AD1687F4B12
S3151000AA500B40D3600020D2E06A4AD1687C4B0B4091
S3151000AA60D3600020CBE0674AD1687A4B0B40D360A5
S3151000AA700020C4E0634AD168774B0B40D3600020B6
S3151000AA80BDE0604A136901218B4313610020B6E0D3
S3151000AA905C4A136902218B4313610020AFE0594AC7
S3151000AAA0136904218B4313610020A8E0554A1369EA
S3151000AAB008218B4313610020A1E0524A136910212B
S3151000AAC08B43136100209AE04E4A136920218B4371
S3151000AAD01361002093E04B4A136940218B431361A5
S3151000AAE000208CE0474A136980218B4313610020B4
S3151000AAF085E0444A1169444B0B40136100207EE007
S3151000AB00404A1169554B0B401361002077E03D4ACE
S3151000AB101169534B0B401361002070E0394A1169DB
S3151000AB203A4B0B401361002069E0364A1169384BE5
S3151000AB300B401361002062E0324A1169354B0B401D
S3151000AB40136100205BE02F4A1169334B0B401361F0
S3151000AB50002054E02B4A1169304B0B401361002042
S3151000AB604DE0284A11692E4B0B401361002046E038
S3151000AB70244A11692B4B0B40136100203FE0214AF8
S3151000AB801169294B0B401361002038E01D4A1169E9
S3151000AB90264B0B401361002031E01A4A1169244BF1
S3151000ABA00B40136100202AE0164A1169214B0B4015
S3151000ABB01361002023E0134A11691F4B0B401361E8
S3151000ABC000201CE00F4A11691C4B0B40136100203A
S3151000ABD015E00C4A137D01218B43137500200EE0FE
S3151000ABE0084A137D02218B431375002007E0054A9E
S3151000ABF0137D04218B431375002000E0172000BD40
S3151000AC00C43D011000B00040FFFEFFFFFFF7FFFF3D
S3151000AC10FFEFFFFFFFDFFFFFFFBFFFFFFF7FFFFF1E
S3151000AC20FFFFFEFFFFFFFDFFFFFFFBFFFFFFF7FF2D
S3151000AC30FFFFEFFFFFFFDFFFFFFFBFFFFFFF7FFFFE
S3151000AC40FFFFFFFEFFFFFFFDFFFFFFFBFFFFFFF70D
S3151000AC50FFFFFFEFFFFFFFDFFFFFFFBFFFFDFFFF60
S3151000AC60FFFBFFFF00B5432800D923E28000E04B2D
S3151000AC701B589F46DF4B5968022291435960596809
S3151000AC800A435A60002016E2DA4B596804229143AF
S3151000AC90596059680A435A6000200CE2D54B59682E
S3151000ACA008229143596059680A435A60002002E20B
S3151000ACB0D04B596810229143596059680A435A601B
S3151000ACC00020F8E1CB4B596820229143596059680E
S3151000ACD00A435A600020EEE1C64B59684022914360
S3151000ACE0596059680A435A600020E4E1C14B59681B
S3151000ACF080229143596059680A435A600020DAE16C
S3151000AD00BC4B5968BC4A0A405A605A6880214900AF
S3151000AD100A435A600020CEE1B64B5968B74A0A403A
S3151000AD205A605A68802189000A435A600020C2E19D
S3151000AD30B04B5968B24A0A405A605A688021C90015
S3151000AD400A435A600020B6E1AA4B5968AD4A0A4038
S3151000AD505A605A68802109010A435A600020AAE104
S3151000AD60A44B5968A84A0A405A605A68802149017A
S3151000AD700A435A6000209EE19E4B5968A34A0A4036
S3151000AD805A605A68802189010A435A60002092E16C
S3151000AD90984B59689E4A0A405A605A688021C901E0
S3151000ADA00A435A60002086E1924B5968994A0A4034
S3151000ADB05A605A68802109020A435A6000207AE1D3
S3151000ADC08C4B5968944A0A405A605A688021490245
S3151000ADD00A435A6000206EE1864B59688F4A0A4032
S3151000ADE05A605A68802189020A435A60002062E13B
S3151000ADF0804B59688A4A0A405A605A688021C902AB
S3151000AE000A435A60002056E17A4B5968854A0A402F
S3151000AE105A605A68802109030A435A6000204AE1A1
S3151000AE20744B5968804A0A405A605A68802149030F
S3151000AE300A435A6000203EE16E4B59687B4A0A402D
S3151000AE405A605A68802189030A435A60002032E109
S3151000AE50684B5968764A0A405A605A688021C90375
S3151000AE600A435A60002026E1624B5968714A0A402B
S3151000AE705A605A68802109040A435A6000201AE170
S3151000AE805C4B59686C4A0A405A605A6880214904DA
S3151000AE900A435A6000200EE1564B5968674A0A4029
S3151000AEA05A605A68802189040A435A60002002E1D8
S3151000AEB0504B5968624A0A405A605A688021C90440
S3151000AEC00A435A600020F6E04A4B59685D4A0A4028
S3151000AED05A605A68802109050A435A600020EAE040
S3151000AEE0444B5968584A0A405A605A6880214905A5
S3151000AEF00A435A600020DEE03E4B5968534A0A4026
S3151000AF005A605A68802189050A435A600020D2E0A7
S3151000AF10384B59684E4A0A405A605A688021C9050A
S3151000AF200A435A600020C6E0324A53685B005B0849
S3151000AF3053605368802109060B4353600020BAE022
S3151000AF402C4B1A8901218A431A81198901220A4335
S3151000AF501A810020AFE0274B1A8902218A431A81F1
S3151000AF60198902220A431A810020A4E0214B1A896A
S3151000AF7004218A431A81198904220A431A8100205E
S3151000AF8099E01C4B1A8908218A431A8119890822CB
S3151000AF900A431A8100208EE0164B1A8910218A4323
S3151000AFA01A81198910220A431A81002083E0114B55
S3151000AFB01A8920218A431A81198920220A431A8163
S3151000AFC0002078E00B4B1A8940218A431A8119898F
S3151000AFD040220A431A8100206DE0064B1A8980210F
S3151000AFE08A431A81198980220A431A81002062E055
S3151000AFF09C3E011000B00040FFFEFFFFFFFDFFFF6B
S3151000B000FFFBFFFFFFF7FFFFFFEFFFFFFFDFFFFF76
S3151000B010FFBFFFFFFF7FFFFFFFFFFEFFFFFFFDFFED
S3151000B020FFFFFBFFFFFFF7FFFFFFEFFFFFFFDFFF56
S3151000B030FFFFBFFFFFFF7FFFFFFFFFFEFFFFFFFDCD
S3151000B040FFFFFFFBFFFFFFF7FFFFFFEFFFFFFFDF36
S3151000B050FFFFFFBF184B1989184A0A401A81198930
S3151000B060802252000A431A81002024E0124B1989CB
S3151000B070134A0A401A811989802292000A431A81BA
S3151000B080002018E00C4B19890E4A0A401A811989BA
S3151000B0908022D2000A431A8100200CE0064B19893F
S3151000B0A0094A0A401A811989802212010A431A8113
S3151000B0B0002000E0172000BD00B00040FFFEFFFF9B
S3151000B0C0FFFDFFFFFFFBFFFFFFF7FFFF8023DB0402
S3151000B0D09C466044800001607047C04670B5204BA6
S3151000B0E01C6823681D7DEDB26A0613D51E21222227
S3151000B0F0A1541A7E23318A431A762123E35C1B0757
S3151000B10006D52023E35C1B0702D520002369984748
S3151000B11023681B7CEB0722D523681B7CDBB2626994
S3151000B1201370636901336361A38B013B9BB2A383E5
S3151000B130A38B9BB2002B12D12133E35C5B070ED598
S3151000B1402023E35C5B070AD500222223E2542268FF
S3151000B150137E01218B431376E3682000984770BD58
S3151000B160D46B011070B5214B1C6823681D79EDB2A4
S3151000B170EA0717D5A2691178C9B20132A26119700E
S3151000B180E38B013B9BB2E383E38B9BB2002B09D18C
S3151000B1902268137A01218B4313722268117A1023C5
S3151000B1A00B431372EB0612D52123E35CDB070ED596
S3151000B1B02023E35CDB070AD500222223E25422680F
S3151000B1C0137A10218B431372200063689847AB06DD
S3151000B1D00AD52123E35C9B0706D52023E35C9B0756
S3151000B1E002D5A3682000984770BDC046D46B0110E5
S3151000B1F070B5204B5C6823681D7DEDB26A0613D5C9
S3151000B2001E212222A1541A7E23318A431A76212323
S3151000B210E35C1B0706D52023E35C1B0702D5200041
S3151000B2202369984723681B7CEB0722D523681B7C70
S3151000B230DBB262691370636901336361A38B013BEF
S3151000B2409BB2A383A38B9BB2002B12D12133E35C59
S3151000B2505B070ED52023E35C5B070AD50022222369
S3151000B260E2542268137E01218B431376E368200093
S3151000B270984770BDD46B011070B5214B5C6823687C
S3151000B2801D79EDB2EA0717D5A2691178C9B2013254
S3151000B290A2611970E38B013B9BB2E383E38B9BB2F4
S3151000B2A0002B09D12268137A01218B43137222686D
S3151000B2B0117A10230B431372EB0612D52123E35C8C
S3151000B2C0DB070ED52023E35CDB070AD500222223F9
S3151000B2D0E2542268137A10218B431372200063689C
S3151000B2E09847AB060AD52123E35C9B0706D5202396
S3151000B2F0E35C9B0702D5A3682000984770BDC04643
S3151000B300D46B0110E1235B020360002303714371C8
S3151000B3108371C371023383600322C26001320261FA
S3151000B320013242618361C361036243627047C04662
S3151000B330F8B54F464646C0B4050017000160002315
S3151000B34043608360C360036143618361002283832A
S3151000B350C3832033C2540133C2540133C254554BF4
S3151000B360994218D10920544CA0470A20A047092019
S3151000B370524CA0470A20A047514B1D60514910203E
S3151000B380514CA04751491120A047514B01221A6038
S3151000B39001321A601AE04F4B994217D10B20464CD6
S3151000B3A0A0470C20A0470B20444CA0470C20A047D8
S3151000B3B0434B5D6048491220434CA0474749132030
S3151000B3C0A047434B04221A6004321A60FB79042208
S3151000B3D09046002B52D1023398464FE0318A01CE67
S3151000B3E0C0B2C8470134E4B24445F7D32B681A7D7E
S3151000B3F0D20704D501211A7C1A7D0A42FBD10021FD
S3151000B40020229954FB79591E8B4159013B797A793F
S3151000B41013430B43BA79022A0DD0D1B2022902D8AE
S3151000B420012A05D00FE0032A08D0042A09D00AE021
S3151000B4300222134307E00622134304E00A221343B1
S3151000B44001E00E221343202229688B543E68244BB8
S3151000B450984704003100234B984782B20004000C31
S3151000B4607043201A3109884206D900230133DBB212
S3151000B470401A8842FAD807E0002305E03E00083655
S3151000B4800024194B9946A9E7002128202C6821543D
S3151000B49001331B075B0FD20013439BB22A689384B8
S3151000B4A02B6819762B68197200200CBC90469946A9
S3151000B4B0F8BDC0460040004065AC00109DA50010C8
S3151000B4C0D46B0110DDB00010CDB0001065B10010C6
S3151000B4D000E100E000500040F1B1001079B2001018
S3151000B4E091A5001019100110EDA10010026801209D
S3151000B4F013790342FCD011700020704702680120B6
S3151000B500137D0342FCD0137C0B7000207047C0469D
S3151000B5101723002A0DD00B33C35CDBB2052B08D0E2
S3151000B5208283416105222223C2540368043A1A76A3
S3151000B530002318007047C0469300C3185960202195
S3151000B54001239340425C13434354704710B52122A4
S3151000B55001238B40845C23438354012904D1026860
S3151000B560117A20230B43137210BDC04610B5012269
S3151000B5708A402124035D93430355012904D10268AF
S3151000B580137A1F318B43137210BDC046F0B5474670
S3151000B59080B40C00904600280DD1002A0EDD8F18BD
S3151000B5A0084E094D306821002B6898470134A74290
S3151000B5B0F8D1404603E00120404200E0002004BCE0
S3151000B5C09046F0BDE46B0110DC6B0110F0B54746F8
S3151000B5D080B40E0015000138022811D8002A12D0A6
S3151000B5E000240C4B98460C4F43461868315D3B6857
S3151000B5F09847002809DB0134A542F5D1200006E062
S3151000B6000120404203E0002001E00120404204BC3A
S3151000B6109046F0BDE46B0110E06B01100300064A82
S3151000B6201268002A02D10549034A1160024A1068BD
S3151000B630C31813607047C0462C4F0110F0940110C8
S3151000B640012040427047C04680239B014B6000207A
S3151000B6507047C046012070470020704710B5044857
S3151000B660044B98470448054B9847002010BDC04628
S3151000B67048330110BD220110104101109D21011007
S3151000B68010B50078002806D00348044B98470448A4
S3151000B690044B9847E22010BD48330110BD2201101B
S3151000B6A02C4101109D21011010B50078002806D0FC
S3151000B6B00348044B98470448044B9847E22010BDB2
S3151000B6C048330110BD220110404101109D21011087
S3151000B6D010B504000448054B984762882188044831
S3151000B6E0044B9847002010BD48330110BD220110AD
S3151000B6F0544101109D21011070B50400C578002D2C
S3151000B70008D10A480A4B9847A278218809480A4B5B
S3151000B710984708E00548064B9847A27821880748BD
S3151000B720054B9847E225280070BDC04648330110E6
S3151000B730BD2201108C4101109D210110BC41011048
S3151000B74070B50400C578002D08D10A480A4B9847F1
S3151000B750A278218809480A4B984708E00548064B05
S3151000B7609847A27821880748054B9847E225280074
S3151000B77070BDC04648330110BD220110F4410110BE
S3151000B7809D21011030420110F8B506001D4C9B2377
S3151000B7909B00E71825002300563B1A8833889A42E7
S3151000B7A022D12378052B01D0082B02D101232B702F
S3151000B7B01AE0072B0FD89B00134AD3589F46002335
S3151000B7C02370124B1B78002B0ED0104A1378013BB6
S3151000B7D0DBB2137008E00E480E4B984729780E48D6
S3151000B7E00E4B984700232B707C34BC42D2D10848AC
S3151000B7F0084B98473288B1780948084B984700207B
S3151000B800F8BDC0465E6C0110AC3F01106C6E0110A5
S3151000B81048330110BD2201106C4201109D21011008
S3151000B8208442011010B50448044B98470448054B50
S3151000B8309847002010BDC04648330110BD220110A4
S3151000B840B44201109D210110F8B506000188284B5D
S3151000B85000241A898A4204D11A005E321278062A06
S3151000B8602ED00134E4B27C33052CF2D139E02049D4
S3151000B87063011A1B92008A18157614005E3407238A
S3151000B88023701C481C4B98471C481D4B9847E225B3
S3151000B8902BE01848184B98471A48194B98471449E3
S3151000B8A063011A1B92008A1810005E300827077071
S3151000B8B0F0781075B2781C1BA4000C19227614E0CF
S3151000B8C0B578002DE5D0D2E70A4E30000A4DA847CC
S3151000B8D00C480B4CA0473000A8470B48A047E22560
S3151000B8E003E0B578002DC2D1EEE72800F8BDC046BA
S3151000B8F0006C011048330110BD220110D042011016
S3151000B9009D210110E44201100843011030B585B0A5
S3151000B91004001F4B1B78DBB2132B24D81C4D2B783D
S3151000B920DBB29800C018C000C3181A48181829228C
S3151000B9302100194B98471948194B98472978C9B2CD
S3151000B940A379E279A0780390E078029020790190AB
S3151000B950607900901348144CA0472B780133DBB262
S3151000B9602B70002311E00D480D4B98470F480E4BD6
S3151000B97098470F4B9847E223002806D00748084BF4
S3151000B98098470C48084B9847E223180005B030BD7D
S3151000B99014580110E46E01107B2101104833011078
S3151000B9A0BD220110304301109D2101106C4301107E
S3151000B9B02DE90010A4430110F0B55F4656464D46DA
S3151000B9C04446F0B483B005004188594B00241A89C7
S3151000B9D08A4205D11A005E321278032A00D19AE003
S3151000B9E00134E4B27C33052CF1D157E021783000D4
S3151000B9F0B84701344C45F9D14E484F4B98474F48FC
S3151000BA004F4B98472E0022362C0032344C4F31784B
S3151000BA104C48B8470136A642F9D14648464B984796
S3151000BA204948474B984742352F00464E444D21789A
S3151000BA303000A8470134BC42F9D171E063011C1BE8
S3151000BA40A4003B4B1C195E342378012B15D93948B9
S3151000BA50394B98473D483A4B9847688813213C4BD9
S3151000BA609847019000285BD03248334B98473948A5
S3151000BA70334B9847E223019352E0002301934FE0A2
S3151000BA802C4E30002C4DA84733482D4CA047300083
S3151000BA90A8473248A047E223019341E02B79002BB7
S3151000BAA0CCD1EDE72348244B9B4698472A48244B94
S3151000BAB09A4698472A781E4B984667013B1B9B006F
S3151000BAC043441A752A791A765E3305221A70381B82
S3151000BAD08000404436300B3229002231204B9946E3
S3151000BAE09847381B800040444630172229003231CF
S3151000BAF0C847381B800040441A30AC1D1C22210058
S3151000BB00C8470C48D8471748D04716239946A94422
S3151000BB100C4E0B4F6AE72B790193002BC2D08DE7A1
S3151000BB20019803B03CBC90469946A246AB46F0BD80
S3151000BB30006C011048330110BD220110C8430110DA
S3151000BB409D210110BC430110D0430110D8430110B0
S3151000BB504DE90010F843011014440110404401103F
S3151000BB607B2101107044011010B500887823012242
S3151000BB700121024CA047002010BDC0466DE90010FF
S3151000BB80F0B557464E464546E0B484B00400092247
S3151000BB90002101A86A4B984725886A490A000023A4
S3151000BBA01089A84216D110005E300078022811D1F3
S3151000BBB064485A01D61AB60086195E3606223270C5
S3151000BBC0F93213405A01D21A92008218127DD00708
S3151000BBD005D41BE001337C32052BE1D11EE0E07861
S3151000BBE0002813D05901C91A8B005649C9181A31A1
S3151000BBF02088554B9847002800D19BE05348544B5A
S3151000BC0098475448544B9847E22093E05A01D31A68
S3151000BC109B004C4AD3185E3302221A7025880022E4
S3151000BC20002316000889A8420DD108005E3000785E
S3151000BC30022808D15201921B9600424A92195E328E
S3151000BC400321117005E00133DBB201327C31052B83
S3151000BC50E7D101AAE1789170012151700331117079
S3151000BC601F005A01D21A92003649525C022A04D198
S3151000BC7001AA03219171D17103E001AA01219171E9
S3151000BC80D17101AA1021517111717A01D21B920042
S3151000BC902C498A18127E402A34D15A01D31A9B0095
S3151000BCA09A461E0060367618554668356D182B4B29
S3151000BCB099460F239846C847434618403070C847E0
S3151000BCC043461840B0740136AE42F4D1564670362B
S3151000BCD01C4AB618214B99460F239846C847434627
S3151000BCE0184028700135B542F8D11C4B98477B0196
S3151000BCF0DB1B9B00134AD3181A00703210807A335C
S3151000BD0010221A707A01D71BBF0060370D4ABA1875
S3151000BD102088002301A9124CA04700280AD001ABA5
S3151000BD2000229A705A700948094B98470D480A4BD9
S3151000BD309847E22004B01CBC90469946A246F0BD36
S3151000BD408D210110006C011031F5001048330110DF
S3151000BD50BD220110784401109D210110D12201103D
S3151000BD6045F3001090440110F0B55F4656464D4617
S3151000BD704446F0B485B080460488544A0021002316
S3151000BD801089A0420DD110005E300078022808D12B
S3151000BD904A01521A95004D4A52195E32032111700A
S3151000BDA005E00133DBB201317C32052BE8D101AA63
S3151000BDB0002111729170517003201070D1701E0005
S3151000BDC05A01D21A92004149525C022A04D101AAA0
S3151000BDD003219171D17103E001AA01219171D171F1
S3151000BDE001AA1021517111717201921B92003749EB
S3151000BDF08A18127E402A42D15F01FB1A9B009B468D
S3151000BE001C00603464185D4668356D182700304B89
S3151000BE109A460F239946D0474B4618403870D0475C
S3151000BE204B461840B8740137AF42F4D15B467033B5
S3151000BE30264FDF19264B9A460F239946D0474B4675
S3151000BE40184028700135BD42F8D12248224B984738
S3151000BE502248234B9847224D21782248A84701347F
S3151000BE60BC42F9D11A4B984773019B1B9B00174A8A
S3151000BE70D3181A00703210807A3310221A701548AF
S3151000BE80154B98471848164B984773019B1B9B00F8
S3151000BE9060330E4A9A1843461888002301A9134C9A
S3151000BEA0A04700280AD001AB00229A705A700948A0
S3151000BEB0094B98470E480A4B9847E22005B03CBC00
S3151000BEC090469946A246AB46F0BDC046006C01109E
S3151000BED0D122011048330110BD220110BC440110BB
S3151000BEE09D210110CC440110D444011045F30010DB
S3151000BEF0F0440110F0B585B0050006223D4902A8B0
S3151000BF003D4EB04701AC042229002000B047E3782B
S3151000BF10002B62D139483A4B98473A483A4B9847E2
S3151000BF2000263A4CFF271E20A047C3B2002B1AD179
S3151000BF30324F3800324EB0473548334CA0473800A0
S3151000BF40B0473448A04728881321334B984703003D
S3151000BF50E220002B4CD02948294B98472F482A4BD2
S3151000BF609847E22044E01A00303A092ADBD802AAA0
S3151000BF70B35438402A4B98470136062E26D0D2E7BE
S3151000BF801E481F4B984727481F4B98470024244E9E
S3151000BF9002ABE05CB0470134062CF9D101AB9978BD
S3151000BFA0288802AA204B9847002821D01348144B02
S3151000BFB098471E48144B9847002019E00F48104B1D
S3151000BFC098471B48104B9847002011E00B480C4B24
S3151000BFD0984718480C4B9847D8E701AB5A888023E6
S3151000BFE05B009A42CCD001AB9B78012BE6D00020A7
S3151000BFF005B0F0BDD84001107B2101104833011067
S3151000C000BD220110184501109D2101101DCD0010F3
S3151000C010404501104C4501104DE90010F843011040
S3151000C020D12101106045011075F4001098450110DA
S3151000C030B0450110CC450110F0B55F4656464D4649
S3151000C040E0B406000088494B002200241989814279
S3151000C05037D119005E310978012932D9434F53017E
S3151000C0609D1AAD007D195E3506232B704048414B55
S3151000C0709A46984731884048404B994698473C48DD
S3151000C080D04763011B1B9B00FF1870239B46BB44C4
S3151000C0905B4619883A48C8473548D047798D39489C
S3151000C0A0C8473348D04771883748C8473048D047C3
S3151000C0B021003648C8475B461A8873889A422AD1A7
S3151000C0C006E00134E4B201327C33052CBED122E005
S3151000C0D06101091B8900254B59187231301D082240
S3151000C0E02B4B9847002816D12148224B98472948B0
S3151000C0F0224B98476201131B9B0060331B495B1848
S3151000C100121B92008A18117D30880122224CA047FA
S3151000C110041E1ED015E0164F3800164EB0471F48A5
S3151000C120164DA8473800B0471D48A84763011C1B89
S3151000C130A4000E4B1C19208905211A4B9847E2249E
S3151000C1400DE00B480B4B984717480C4B98470024AB
S3151000C15005E00748074B98471448084B98472000B6
S3151000C1601CBC91469A46A346F0BDC046006C011011
S3151000C17048330110BD220110E04501109D21011028
S3151000C1800C46011020460110344601104446011099
S3151000C1905D21011054460110A9F5001068460110E2
S3151000C1A0A04601104DE90010F8460110184701107D
S3151000C1B030B5002A47D0062947D88900284B5B5846
S3151000C1C09F46284B05240AE0274B012407E0274BFE
S3151000C1D0052404E0264B012401E0264B0524002803
S3151000C1E016D1196800290BD106E01D000433181F5B
S3151000C1F00068002806D100E01D002A6001212CE00D
S3151000C200043300210131C9B2A142EED3002124E04A
S3151000C2100021012821D119688A420CD106E01D009F
S3151000C2200433181F0068824207D100E01D00002366
S3151000C2302B60012111E0043300210131C9B2A14262
S3151000C240EDD3002109E0002107E0002105E00A4BAB
S3151000C2500524C4E7094B0124C1E7080030BDC046D8
S3151000C260CC3F0110EC6B0110E86B0110706E0110E1
S3151000C27024740110846E0110986E0110E06E011086
S3151000C280F0B55F4656464D464446F0B491B00500AB
S3151000C29000247E4B1C60072200217D487D4EB0474E
S3151000C2A0122200217C48B0477C4A00217C48B047C6
S3151000C2B07C4B1C70CD22920000217B48B0477B4BF3
S3151000C2C01C708322920000217948B047794B9B4617
S3151000C2D08023DB009A461A0000215846B047764B59
S3151000C2E0994680235B0198461A0000214846B047BC
S3151000C2F0724F1C2200213800B0475B46BB60534684
S3151000C300FB604B463B6143467B616D4B1C605C603A
S3151000C3109C60DC601C616B4B1C605C609C60DC602C
S3151000C3201C61694B1C605C609C60DC601C61674B27
S3151000C3301C60674B1C60674B1C605C609C60DC601B
S3151000C3401C61654B1C60654C9B239B009846A04462
S3151000C350504F40267C2200212000B84723005E3330
S3151000C36000221A7026767C34A045F3D15C4B1A70E5
S3151000C370524C4A4B63604A4B23605A485A4B984773
S3151000C3805A485B4B984720005A4B984700280BD0C9
S3151000C390544E3000544DA8475748554CA0473000CE
S3151000C3A0A8475648A047FEE7554A00210020554C9D
S3151000C3B0A047554A02210020A04709215348544B53
S3151000C3C09847002805D04748474B98475148484B4F
S3151000C3D0984707225049083104A8504B98472622FF
S3151000C3E0002106A82B4B9847002D0CD104A84C4BC6
S3151000C3F0984704AD002806D03A483B4B9847494821
S3151000C4003B4B984704AD3748374B98472B796A7999
S3151000C410A9792878039068780290A8780190E8782E
S3151000C42000904148324CA04706AC0A2323703F4B7C
S3151000C43063800722290007A8384B98470023E37624
S3151000C44023776377A377E3772384638480239B0022
S3151000C450A3842000364B9847002805D02148224B4C
S3151000C46098473448224B98472800334B9847002862
S3151000C47005D01C481C4B984730481D4B984711B0A7
S3151000C4803CBC90469946A246AB46F0BD10580110EA
S3151000C490185801108D210110AC6E0110E204000035
S3151000C4A03053011014580110E46E0110DC6E0110A7
S3151000C4B018720110304F011020580110C06E011073
S3151000C4C0846E0110986E0110EC6B0110E06E011075
S3151000C4D0E86B0110706E011024740110006C0110CD
S3151000C4E06C6E011048330110BD2201103447011043
S3151000C4F09D21011059E5001058470110844701107D
S3151000C500344B0110B1C10010E8400110CC470110A6
S3151000C51071E40010D8470110D84001107B2101109A
S3151000C520A5E40010F04701101C480110983A0000CD
S3151000C530C9E400106C4801100DE70010A84801105E
S3151000C54010B5002200210A4B9847041E06D109484F
S3151000C550094B984709480A4B984706E00548064B89
S3151000C56098470848064B9847E224200010BDC0465D
S3151000C570F1F4001048330110BD220110F8480110E3
S3151000C5809D2101101C490110F0B55F464E464546E7
S3151000C590E0B49AB00500867A002E00D0CCE0784838
S3151000C5A0784FB8472B796A79A97968780290A87874
S3151000C5B00190E87800907448744CA0477048B847CA
S3151000C5C029897348A047122229007248724B98474E
S3151000C5D00495072229007148714B9847002800D10D
S3151000C5E0B3E02B78022B00D0AFE05022002106A832
S3151000C5F06C4B98476C4F00230BE0591C147806A817
S3151000C600C45401328BB2B342F7D17C37331E502B50
S3151000C61004D01E001036B6B23A00EEE706AA29007C
S3151000C6200520624B9847061E06D15548554B98472C
S3151000C6305F48564B98479CE05148524B98475D4887
S3151000C640524B9847E22694E0E7B2059407220499E4
S3151000C6504846D847002809D1059A53019B1A9A00D3
S3151000C660554B9B185E3302221A702BE001347C2343
S3151000C6709C46E144052CE7D172E01C001178002994
S3151000C6801AD101E00024002763019946181B800087
S3151000C690494B98464044122229003F4B9847474A37
S3151000C6A013780133DBB213704B461B1B9B004344BC
S3151000C6B05E3302221A7005E0791CCFB201337C3248
S3151000C6C0052FDAD1072229003448354B9847002820
S3151000C6D00CD17B01DB1B9B00374AD31805229A74B9
S3151000C6E0023200212D482F4B984742E0324B984694
S3151000C6F07C01E31B9B0043440A229A74033A0021EF
S3151000C7002648284B9847E41BA4004444A37C0A2BD4
S3151000C7102FD10DE01A481B4B9847284B1978C9B2F0
S3151000C72027481A4B984728891321264B984720E00B
S3151000C7302889254B98471CE01148124B9847A97A2F
S3151000C7402248124B9847002613E01C4B1B78DBB28D
S3151000C750042BDFD8184B99460024114B9B4673E7E0
S3151000C7605E23154AD35C002B8CD0194A012301276E
S3151000C77083E730001AB01CBC90469946A346F0BD1C
S3151000C78048330110BD2201103C4901109D210110B2
S3151000C79080490110AC6E01107B2101101858011050
S3151000C7A05D2101108D210110466C011079E90010F0
S3151000C7B098490110BC490110006C01106C6E0110F3
S3151000C7C0E04901104DE9001041C500101C4A011046
S3151000C7D0DA6C0110F0B5474680B40378002B52D1BD
S3151000C7E03E4D0024461C3E4F102229003000B8470B
S3151000C7F0002831D00134E4B27C35052CF4D142E066
S3151000C8001D00117800291BD101E000250024354BAD
S3151000C81098466E01771BBF004744122232493800F2
S3151000C820324B9847324A13780133DBB213705E37B6
S3151000C83002233B70751BAD0045440833AB7431E0E1
S3151000C8400134E4B201337C32052CD9D13AE0264BBF
S3151000C8501889284B98473CE02748284B9847284882
S3151000C860284B98471F4863011A1B92008218110023
S3151000C8705E3102250D700A219174100012221A4998
S3151000C8801A4B98470EE01C481C4B98471E481D4BE8
S3151000C89098475E23134AD35C002BB6D01B4A01235C
S3151000C8A00124ADE71448154B984721001848154B3D
S3151000C8B0984763011C1BA4000A4B1C19A37C0A2B66
S3151000C8C007D1C4E70C480D4B9847052110480D4B6E
S3151000C8D09847002004BC9046F0BDC046466C011037
S3151000C8E05D210110006C0110AC6E01107B2101104E
S3151000C8F06C6E011041C5001048330110BD220110A5
S3151000C900444A01109D2101105C4A0110DA6C011095
S3151000C910784A0110F8B504000D004848484B98476E
S3151000C92021004848484B98473B2C79D8A300474AE2
S3151000C930D3589F46A4000026454FBB59002B04D060
S3151000C9401B59002B01D0280098470436142EF4D119
S3151000C95072E0133CE4B2A40000263E4FBB59002BF4
S3151000C96004D01B59002B01D0280098470436142EEA
S3151000C970F4D161E01D3CE4B23048314B98472100B8
S3151000C9803548314B9847A4000026344FBB59002B2D
S3151000C99004D01B59002B01D0280098470436142EBA
S3151000C9A0F4D149E0273CE4B22D4B1B68002B43D051
S3151000C9B0A400E358002B3FD0280098473CE02D3CBC
S3151000C9C0E4B2284B1B68002B36D0A400E358002B8A
S3151000C9D032D0280098472FE0363CE4B2A400002657
S3151000C9E0214FBB59002B04D01B59002B01D0280016
S3151000C9F098470436142EF4D11EE0383CE4B21B4B93
S3151000CA001B68002B18D0A400E358002B14D0280064
S3151000CA10984711E0164B1B68002B0DD098470BE07A
S3151000CA20064E3000064DA84721001248064B98477F
S3151000CA303000A8473000A847F8BDC046483301105B
S3151000CA40BD220110884A01109D210110E83F0110F6
S3151000CA50846E0110986E0110984A0110EC6B01104B
S3151000CA60E06E0110E86B0110706E01102474011055
S3151000CA7010580110B04A011070B504000D4B1B7808
S3151000CA80012B01D10C4B984722000C490C480D4B39
S3151000CA90984704000500074B1B78012B01D10A4B60
S3151000CAA09847002D04D1064B18780449074B984730
S3151000CAB0200070BD1F58011095D400101872011077
S3151000CAC0DC6E011001DD00106DD4001015C90010C8
S3151000CAD030B591B008AC032262700223A3701633EE
S3151000CAE0E370227163710132A271E3710B3222720B
S3151000CAF06372092525700E3BA372E5720BAA164BBD
S3151000CB0003CB03C21B78137000236A4613701533C8
S3151000CB1053701248124B98471248134B98476B465E
S3151000CB201D70FF236A465370082210496B46981CE5
S3151000CB300F4B98470A236A46152120000D4CA04733
S3151000CB40002805D00548064B98470B48064B9847D2
S3151000CB50002011B030BDC046CC470110483301103B
S3151000CB60BD220110D04A01109D210110044B011065
S3151000CB707B21011061E70010104B0110014B18606A
S3151000CB807047C0461058011010B50E4B1B78012B7C
S3151000CB900BD102220B4B1A700B4B1B68002B10D1BA
S3151000CBA002210A480A4B98470BE0074B1B68002BDB
S3151000CBB007D0084C20789847012221000348064BDD
S3151000CBC0984710BD246801102C68011028740110B4
S3151000CBD06DB500102868011011B5001070B506006B
S3151000CBE00D00034C29003000A0470028FAD170BD73
S3151000CBF0FDB4001070B506000D00034C290030007E
S3151000CC00A0470028FAD170BDEDB4001070B5002110
S3151000CC100020194B9847194C2000194B9847E123CF
S3151000CC205B0223600223A3600322E26001322261C9
S3151000CC3001326261A361E36123626362114D124B9B
S3151000CC401D60124A124B1A60124A134B1A602200C8
S3151000CC5012492800124B9847124E336898680021E3
S3151000CC60114CA047336858680021A04702220F498B
S3151000CC7028000F4B984770BD0DA500104C7401107D
S3151000CC8005B3001028740110E46B0110F5CB0010E9
S3151000CC90E06B0110DDCB0010DC6B01100040004092
S3151000CCA031B30010004F01104923011089CB001039
S3151000CCB039B50010F0B583B005000D4CA047A0475C
S3151000CCC00C4FB8470C4E0D4A0D4BB04700900191D2
S3151000CCD0FA2080006843B84702000B0000980199BB
S3151000CCE0B047084B9847084B186003B0F0BDC046D4
S3151000CCF091A50010CD1D0110C5110110C7AEFE196A
S3151000CD00EFD8093F8911011020680110024B1A68EB
S3151000CD10501E18607047C0462068011070B5040098
S3151000CD200122114B1A70114B1B68002B03D10221E3
S3151000CD300F48104B984720000F4B98470F49002378
S3151000CD400B7001220A480E4B9847074C0D4D23785D
S3151000CD50022B02D0A8470028F9D10022024B1A70E4
S3151000CD60064B187870BDC046246801102C68011057
S3151000CD70287401104DB50010B5CC001028680110AC
S3151000CD8011B500100DCD0010024B1A680260186024
S3151000CD907047C0463468011030B50B4B1C68002C28
S3151000CDA011D025681D6000232360A160E280A08059
S3151000CDB0064B1A68002A02D11C6004E01A00136898
S3151000CDC0002BFBD1146030BD34680110306801109F
S3151000CDD070B50023064A1360064A1360064C2600F7
S3151000CDE07836064D2000A8470C34B442FAD170BDEF
S3151000CDF034680110306801103868011089CD0010B0
S3151000CE0070B50400134B1D68134B1B6898470C2C08
S3151000CE101FD00C3CE388052B1BD0EB0714D40F4B0B
S3151000CE201B68022098470E4B1B6898470D4C032031
S3151000CE30236898470028FAD10B4B1B680230984795
S3151000CE4001220A4B1A6004E0094B1868094B1B684B
S3151000CE50984770BDECB10040E0680110D868011029
S3151000CE60EC680110C4680110CC68011020B00040B5
S3151000CE70D0680110C068011010B5064B064A196833
S3151000CE8011605A68054B1A60054B1B68002B00D0C1
S3151000CE90984710BD747401100CB0004010B00040DB
S3151000CEA05077011070B5322200210D480D4B98476E
S3151000CEB000210B48012502244A0011548218537888
S3151000CEC02B43DBB2A343537001311929F4D1044B20
S3151000CED05A7818398A435A70DA788A43DA7070BDEC
S3151000CEE0907401108D210110064A1168064B0B40F3
S3151000CEF01360064A136006490868064B03400B6028
S3151000CF00536070470CB00040D30FFEFF74740110CD
S3151000CF1010B00040C0E7FFFFF0B557464E464546F5
S3151000CF20E0B44F4B1B78002B04D04D4B1B78012BD4
S3151000CF3000D18CE04B4B98474B4B984700239846B3
S3151000CF404A4B42461A604A4C80238022120492466B
S3151000CF50E250802252049146E250464D464B2B60D9
S3151000CF60464B474A13604749474A1160474A11687A
S3151000CF70474A1160474A1168474A11604749484A6B
S3151000CF8011604849484A1160484F494A3A60494930
S3151000CF90494A116049494A4A11604A4E4A4A326022
S3151000CFA04A494B4A11604B494B4A11604B494C4A0E
S3151000CFB011604C494C4A11604C494D4A1160282069
S3151000CFC098474C4928202B6898472B684A492720B0
S3151000CFD098474A4B1A684A4B1A604A4A4A4B1A6093
S3151000CFE04A4A4B4B1A604B4A4B4B1A604B4A4C4BB6
S3151000CFF01A604C4A4C4B1A604C4A4D4B1A604D4ABB
S3151000D0004D4B1A60A022920000214C484C4B984779
S3151000D010802292004B4B1A804B4B98475346236005
S3151000D0204B462360494B42461A603B68484A1A6091
S3151000D0303368484A1A600020474CA0470120A04791
S3151000D0400220A0470122064B1A70002003E001229D
S3151000D050034B1A7001201CBC90469946A246F0BD9F
S3151000D060C8680110A5CE0010E9CE0010E8680110BE
S3151000D07000E100E044770110D7070000BD0700006B
S3151000D0808074011051BC010048770110BC000410D7
S3151000D090B8680110B8000410B46801109FB90100F7
S3151000D0A07C740110DBB901008874011058770110E7
S3151000D0B03C000410C01F04108C740110C41F04100F
S3151000D0C0547701104C770110D41F0410D81F041088
S3151000D0D084740110E9CB0100D86801108FCD0100CE
S3151000D0E0CC680110A3CE0100EC680110CFCB010073
S3151000D0F0C4680110A1D5001035D50010E400041045
S3151000D100E0680110E99F0100F0680110DDDB010005
S3151000D110C06801105BDC0100D4680110EC05041036
S3151000D120D0680110E3D50100DC680110200C041052
S3151000D130F4680110099F0100B0680110C474011051
S3151000D1408D2101105C770110D1CD001050770110A0
S3151000D15079CE0010FDD50010E5D50010044B1A78D5
S3151000D1600523012A02D1034B1860002318007047CB
S3151000D170C8680110E868011070B504000E4B1B68F2
S3151000D180002B02D0408898476080E388A288618887
S3151000D19020880A4D2D68A8470500E288002A02D18A
S3151000D1A0074B984706E021000831064B98472800A0
S3151000D1B0034B984770BDC046B8680110F06801105F
S3151000D1C001CE00107B21011070B515001C000A025B
S3151000D1D002430A4B1E6823000521A020C000B04759
S3151000D1E0061E0AD0002C05D0002D03D022002900DF
S3151000D1F0034B98473000034B984770BDF0680110F9
S3151000D2007B21011001CE0010F0B55F4656464D4603
S3151000D2104446F0B487B0441E00239946E31C1CD83C
S3151000D2200D22002102A8824B9847332302AA1370BD
S3151000D230303B537093700233137193711472230A37
S3151000D2405372230C9372240ED472012313730D217F
S3151000D2501000784B98470123994600240025764FF5
S3151000D260764E7749386833689847002800D088E0AA
S3151000D270734B1C68A3889A46CD239B009A4500D110
S3151000D280C7E023899B46638998464B46002B11D0ED
S3151000D2900D22002102A8664B9847332302AA137069
S3151000D2A0303B537093700233137193710D2110003C
S3151000D2B0604B9847A023DB009A4521D1614B1B8810
S3151000D2C04344A0229200934202DD803A5D4B1A80BD
S3151000D2D05C4B9A461D885C4BED1821000C3142467A
S3151000D2E028005A4B9847424629005846584B9847AB
S3151000D2F053461B88434452461380002402253AE0C5
S3151000D300544B1B68002B32D04D4B1A689388CD2195
S3151000D31089008B4204D14B460124002B2BD028E0E8
S3151000D3204D4C494D25602B701B0A6B7010894B4B69
S3151000D3301B6898472871000A68712068404B1A6864
S3151000D340D28842801D686B89C380083020606A8944
S3151000D350002A03D029000C313C4B984769890831C3
S3151000D3603C4B1B68384898470024032503E00024EB
S3151000D37001E00024D025324B1868394B1B689847BA
S3151000D38000E00725002C00D06BE74B46002B46D05B
S3151000D390294B1E68002E04D100231C6A002C31D1A3
S3151000D3A03DE0346A14239C46B444634660460093B9
S3151000D3B02C4B1B689847002C1FD00027CD239B00B1
S3151000D3C09846274B9A46200003689B88434510D100
S3151000D3D0002F06D08368BB6053461B689847B86811
S3151000D3E009E0836833621E4B1B6801939847306AC5
S3151000D3F001E0070080680028E6D11B4B1B680098E7
S3151000D40098470CE014230093164B1B68142098477A
S3151000D410D3E7104B1B680024002BACD07BE7280009
S3151000D42007B03CBC90469946A246AB46F0BDC046F6
S3151000D4308D21011079D10010F4680110DC680110FB
S3151000D440BC6801105C770110C47401107B210110B7
S3151000D45099CD0010E8680110E4680110B468011055
S3151000D460B0680110D4680110C068011010B5034BE4
S3151000D4701B68802000029847082010BD7C7401109C
S3151000D48010B5034B1B688020C0019847002010BDC3
S3151000D4908874011010B5054C8020C0012368984788
S3151000D4A02368802000029847002010BD8874011060
S3151000D4B0002803D0024B1860002000E009207047B6
S3151000D4C05077011030B5184A138F9BB2108D8021FA
S3151000D4D00902014311851000144D01240022DB05B9
S3151000D4E0DB0D11D0DBB259420B40012B06D01100D7
S3151000D4F05B080131C9B2012BFAD100E011002300FB
