S0170000534D535F7065726970686572616C312E737265635E
S3151000800010B5184B184A9A4203D0184B154A9A4283
S3151000801004D3174B174A9A4210D31EE0164B134A35
S315100080200332D21A92080132920000230D480E49EB
S31510008030CC58C45004339342FAD1EAE70F4B0C499B
S315100080400331C91A8908013189000023094C00201F
S315100080501A19106004338B42FAD1094B9847094B11
S31510008060984710BDA8790110A8790110547A01100B
S3151000807048A90110547A0110AC790110587A0110F0
S315100080809551011095F9001010B5064C2378002B68
S3151000809007D1054B002B02D0044800E000BF012396
S315100080A0237010BD547A011000000000A879011049
S315100080B0084B10B5002B03D00749084800E000BF55
S315100080C007480368002B00D110BD064B002BFBD0D0
S315100080D09847F9E700000000587A0110A8790110B6
S315100080E0A87901100000000070B5094B98470500EB
S315100080F0084CFA218900A047074B18600749280049
S31510008100A047074B18600522064B1A6070BDC04683
S31510008110D9CB001021310110AC79011040420F006B
S31510008120A879011010E000E0F8B505000B4F0C4ED1
S315100081300C4C0DE02E20B8473368002B07D0636037
S315100081400023A3608022520223681342FCD0013D13
S31510008150002DEFD10448054B9847F8BDA1530110E7
S31510008160AC79011010E000E0CC6301106D530110E2
S31510008170012303704370FA23DB0143607047C04646
S31510008180064B00225A601A6803218A431A601900A6
S315100081908022D2010B681342FCD1704700D00040F8
S315100081A0024A116810230B431360704700D0004039
S315100081B010B5044B9847044B1B68002B00D098470A
S315100081C010BDC046A1810010707A0110014B1860D5
S315100081D07047C046707A01100022014B1A60704732
S315100081E0707A0110F0B583B00022294B1A73037808
S315100081F0022B05D1264A117B01330B43137305E07D
S31510008200012B03D1224A117B0B431373214B1A689E
S3151000821053001FD01F4D00272C26FF368021C90181
S315100082202F6001970197019BB34206D8C046019B68
S3151000823001330193019BB342F8D944780B00002C0B
S3151000824003D180239B0000E02A681342FCD12A68E0
S315100082505300E5D14378002B05D10E4B42685A6086
S3151000826001221A6004E00B4B42685A6002221A601F
S315100082704378012B06D10749E022D2010B6813403F
S315100082809342FBD104492B20044B984703B0F0BD11
S3151000829000E0004000D00040B181001015D700105A
S315100082A0F0B557464E464546E0B482B04D88172382
S315100082B0002D33D0036828241A5DD207FCD401227E
S315100082C034241A55143C1A550A8852000224FF34D5
S315100082D0224392B21A80F13C1A7A2242FCD0002232
S315100082E06C1EA4462024A1460024A04601264479EB
S315100082F0002C04D1624502D14C4647461F551C7BC3
S31510008300344208D0541CA2461F794C68A7545246D2
S315100083106C46E280E288AA42E9D30023180002B034
S315100083201CBC90469946A246F0BDC046F0B58446A0
S3151000833002684E882824135DDB07FCD401233424FD
S315100083401355143C13550B885B00E03423439BB242
S31510008350138000240125137ADBB21D4204D0671C5A
S315100083604868045D1480BCB2B442F4D3DB0603D46F
S315100083701021137A0B42FCD063465B79002B02D195
S3151000838000212033D1540020F0BDC04603230370D2
S315100083900D334380083B43600133C360073B836062
S315100083A003617047F8B5040015000160002856D027
S315100083B0002A56D028228B5CDB07FCD400230B75D1
S315100083C02368294A934203D10320284B984706E095
S315100083D01720274A934245D10230244B9847002351
S315100083E0237463746382A38200226277A361214B94
S315100083F01C6023681C4A93420FD11F4F3900182066
S315100084001E4EB04739001920B0471D4B802252002E
S315100084101A600132FF321A6011E0154A93420ED1EA
S31510008420154F39001A20154EB04739001B20B0479A
S31510008430134B8022D2001A60802212011A6024681F
S31510008440298928790F4EB047298A287BB0472B787F
S3151000845023746B88238301232377002002E01720DF
S3151000846000E01720F8BDC04600300040ADD2001025
S31510008470003400402C9501101985001015D70010F6
S3151000848000E100E035C8001010B500280CD0002916
S315100084900CD0828A92B20523002A08D10023437198
S315100084A0044B9847030002E0172300E01723180037
S315100084B010BDC046A182001010B500280CD00029AE
S315100084C00CD0828A92B20523002A08D10023437168
S315100084D0044B9847030002E0172300E01723180007
S315100084E010BDC0462D83001010B500280CD00029F1
S315100084F00CD0828A92B20523002A08D1043B43711C
S31510008500044B9847030002E0172300E017231800D6
S3151000851010BDC0462D83001070B582B0574B1C6835
S315100085202668637C257C1D40638A9BB2002B07D18D
S31510008530A38A9BB2002B03D0A38A9BB263824EE020
S31510008540638A9BB2002B19D0A38A9BB2002B15D13C
S31510008550637F052B12D1237F002B0FD12C22B3540E
S31510008560638263776379002B02D100222033F254A1
S31510008570EB0734D5A3682000984730E0638A9BB296
S31510008580002B2CD0A38A9BB2002B28D0237F002B44
S3151000859017D1638AA28A9B1A9BB26A46D380A38A92
S315100085A0013B9BB2A382D388A269944663441B788D
S315100085B03380A38A9BB2002B11D110222C33F25494
S315100085C00DE0638AA18AA28A013A92B2A2825B1A4C
S315100085D09BB2A269944663443279D2B21A70638A06
S315100085E09BB2002B1CD0A38A9BB2002B18D1637FA1
S315100085F0052B15D1237F012B12D100233022B35422
S31510008600638263776379002B02D100222033F25400
S31510008610AB0705D5237F012B02D1E36820009847CD
S31510008620237F012B14D12368154A934206D180214A
S315100086304900C0235B00134AD1501DE0124A9342F1
S315100086401AD18021C900C0235B000E4AD15013E015
S3151000865023680B4A934206D180218900C0235B0010
S31510008660084AD15008E0084A934205D180210901F1
S31510008670C0235B00034AD15002B070BD2C95011087
S315100086800030004000E100E00034004010B5484BD7
S315100086901C6823681A7B3021595C0A40D20700D423
S315100086A085E01A7B920623D5E279012A1DD01E2178
S315100086B02822A154253AE27112315A5C21208243B4
S315100086C05A542723E35C1B070FD52623E35C1B07AD
S315100086D00BD51E222823E254216812328B5C0138F6
S315100086E083438B5420006369984723681B795EE0A7
S315100086F0E279012A13D11A79628C013A92B2628414
S31510008700628C92B2002A52D130215A5C20208243C8
S315100087105A5400222823E254253BE37147E01B7983
S31510008720DBB2A2691370A3690133A361238C013BE9
S315100087309BB22384238C9BB2002B38D1E379002B78
S3151000874014D12733E35C9B0731D52623E35C9B07C3
S315100087502DD500222823E254216830328B5C01206B
S3151000876083438B54E3682000984720E0E379022B7B
S315100087701DD12533E35C5B0719D52623E35C5B0724
S3151000878015D5216830228B5C012083438B54094B0D
S315100087901B78002B08D00023083AA354054A1370FF
S315100087A023692000984702E00122024B1A7010BD7F
S315100087B030950110747A011070B5404B1868026834
S315100087C0137A2C21515C0B40D9073CD541790129EC
S315100087D01AD1C179002913D1394909781170428CFF
S315100087E0013A92B24284428C92B2002A05D10468B0
S315100087F02C21625C0125AA4362544179012903D1D7
S31510008800C279002A05D11EE000291CD1C279002A9E
S3151000881019D0C2691178C9B20132C26102681170E9
S31510008820828C013A92B28284828C92B2002A0AD148
S3151000883004682C32A15C0125A943A1540468A55CE7
S3151000884010212943A154DB0636D5C379012B13D148
S315100088502633C35CDB072FD52623C35CDB072BD55A
S3151000886000222823C25401682C328B5C1024A343A7
S315100088708B54836898471FE0C379022B1CD125338C
S31510008880C35C5B0718D52623C35C5B0714D5016848
S315100088902C228B5C1024A3438B540A4B1B78002B81
S315100088A007D00023043A8354064A13700369984785
S315100088B002E00122034B1A7070BDC04630950110BC
S315100088C0767A0110747A011010B5484B5C682368EB
S315100088D01A7B3021595C0A40D20700D485E01A7BF6
S315100088E0920623D5E279012A1DD01E212822A154F1
S315100088F0253AE27112315A5C212082435A542723B9
S31510008900E35C1B070FD52623E35C1B070BD51E2242
S315100089102823E254216812328B5C013883438B542E
S3151000892020006369984723681B795EE0E279012A83
S3151000893013D11A79628C013A92B26284628C92B225
S31510008940002A52D130215A5C202082435A540022E8
S315100089502823E254253BE37147E01B79DBB2A26979
S315100089601370A3690133A361238C013B9BB223844B
S31510008970238C9BB2002B38D1E379002B14D12733EB
S31510008980E35C9B0731D52623E35C9B072DD500229C
S315100089902823E254216830328B5C012083438B54A8
S315100089A0E3682000984720E0E379022B1DD1253398
S315100089B0E35C5B0719D52623E35C5B0715D52168B5
S315100089C030228B5C012083438B54094B5B78002B40
S315100089D008D00023083AA354054A5370236920008F
S315100089E0984702E00122024B5A7010BD30950110D3
S315100089F0747A011070B5404B58680268137A2C21AE
S31510008A00515C0B40D9073CD5417901291AD1C1795E
S31510008A10002913D1394909781170428C013A92B262
S31510008A204284428C92B2002A05D104682C21625CE1
S31510008A300125AA4362544179012903D1C279002A3A
S31510008A4005D11EE000291CD1C279002A19D0C269AD
S31510008A501178C9B20132C26102681170828C013A72
S31510008A6092B28284828C92B2002A0AD104682C3285
S31510008A70A15C0125A943A1540468A55C10212943D2
S31510008A80A154DB0636D5C379012B13D12633C35C2B
S31510008A90DB072FD52623C35CDB072BD50022282323
S31510008AA0C25401682C328B5C1024A3438B54836808
S31510008AB098471FE0C379022B1CD12533C35C5B0793
S31510008AC018D52623C35C5B0714D501682C228B5C52
S31510008AD01024A3438B540A4B5B78002B07D000233A
S31510008AE0043A8354064A53700369984702E00122F8
S31510008AF0034B5A7070BDC04630950110767A01103E
S31510008B00747A01100300064A1268002A02D1054938
S31510008B10034A1160024A1068C31813607047C046B2
S31510008B20787A011048B10110012040427047C046C2
S31510008B3080239B014B6000207047C0460120704780
S31510008B400020704710B582B02423254AD35C002B31
S31510008B5019D0002803D002226B46DA7102E00022F7
S31510008B606B46DA711E4B1A68517C5B6818786B4637
S31510008B70073301221B4CA047002827D16B46DA7910
S31510008B80174B5A742AE0164B9B7A002B21D00028DB
S31510008B9008D0134B5B7C0020002B1FD101226B46A3
S31510008BA0DA7102E000226B46DA710D4B1A68517CBD
S31510008BB05B6818786B46073301220A4CA0470028D9
S31510008BC00AD16B46DA79064B5A7407E00120404207
S31510008BD004E00120404201E00120404202B010BDF5
S31510008BE0B0790110D1AF0010F0B585B007000E00B6
S31510008BF0214B9B7A002B35D01F4B1A68117C5B6872
S31510008C00187803AB02221D4CA047019000282DD1E5
S31510008C1003AB1C7824025B781C4324B2002E02D0CE
S31510008C203000174B9847144B5D68164E2000B0471E
S31510008C30041C0823E85EB047011C201C124B984701
S31510008C40041CE888B047011C201C104B984710499B
S31510008C50104B98478F21C9050F4B98470F4B9847D4
S31510008C60386006E001235B42019302E001235B4278
S31510008C700193019805B0F0BDB07901102DB0001028
S31510008C80D9B90010B9410110693E0110AD38011073
S31510008C9000000C42C1350110413C01107541011014
S31510008CA010B582B0794B9B7A002B00D1CEE06B4683
S31510008CB0073300221A70754A1168497C5268107879
S31510008CC00122734CA047002800D0C2E06F4B1A68EF
S31510008CD051795B6818786B46073301226C4CA047B4
S31510008CE0002800D0B8E0694B1A6811795B681878CB
S31510008CF06B4607330122664CA047002800D0AEE031
S31510008D002423624AD35C002B4FD06B4607330C22C8
S31510008D101A705E4A116809795268107801225C4C03
S31510008D20A047002800D09DE032305A4B9847C02209
S31510008D306B46DA71554B9B7ADB0702D520326B46B0
S31510008D40DA71524B1A6811795B6818786B460733DB
S31510008D5001224F4CA047002800D086E04B4B5B7C8D
S31510008D60002B03D002226B46DA7102E000226B461A
S31510008D70DA71464B1A68517C5B6818786B46073374
S31510008D800122434CA047002872D16B4607330022BC
S31510008D901A703E4A116849795268107801223C4C83
S31510008DA0A047431E984140426DE06B4607330422AC
S31510008DB01A70364A11680979526810780122344CB3
S31510008DC0A047002857D1314B9B7C002B03D12F4B4A
S31510008DD09B7ADB0703D440226B46DA7102E06022ED
S31510008DE06B46DA71294B1A6811795B6818786B46ED
S31510008DF007330122264CA04700283FD13230254B9D
S31510008E009847224B5B7C002B03D001226B46DA710C
S31510008E1002E000226B46DA711C4B1A68517C5B68C3
S31510008E2018786B4607330122194CA047002828D121
S31510008E30164A1300103311684979526810780122C6
S31510008E40134CA047431E984140421CE0012040426B
S31510008E5019E00120404216E00120404213E00120B3
S31510008E60404210E0012040420DE0012040420AE05D
S31510008E700120404207E00120404204E00120404228
S31510008E8001E00120404202B010BDC046B079011089
S31510008E90D1AF00102981001010B582B0244B9B7AF7
S31510008EA0002B3BD0FA235B00984210D002D8FA2848
S31510008EB009D036E0FA239B0098420CD0FA23DB0047
S31510008EC098420CD02DE000226B46DA710AE0082297
S31510008ED06B46DA7106E010226B46DA7102E0182250
S31510008EE06B46DA716B4607331B78114A127ADB0828
S31510008EF000209A421AD00E4B1A6891795B6818783E
S31510008F006B46073301220B4CA04700280CD16B4649
S31510008F1007331B78DB08064A137207E0012040422C
S31510008F2004E00120404201E00120404202B010BDA1
S31510008F30B0790110D1AF0010114B5B7A012B09D01B
S31510008F40002B04D0022B08D0032B09D014E00223E7
S31510008F50037007E00423037004E00823037001E0A4
S31510008F6010230370064BDA7C0023002A06D0037800
S31510008F705B000370002301E001235B421800704779
S31510008F80B079011010B582B0214B9B7A002B35D0E9
S31510008F9004280CD002D8022805D032E008280AD0BE
S31510008FA010280CD02DE000226B46DA710AE0082258
S31510008FB06B46DA7106E010226B46DA7102E018226F
S31510008FC06B46DA716B4607331B78114A527ADB0807
S31510008FD000209A421AD00E4B1A68D1795B6818781D
S31510008FE06B46073301220B4CA04700280CD16B4669
S31510008FF007331B78DB08064A537207E0012040420C
S3151000900004E00120404201E00120404202B010BDC0
S31510009010B0790110D1AF001010B582B02B4B9B7AEE
S31510009020002B49D0BB2803D901226B46DA711AE00E
S31510009030612803D902226B46DA7114E0292803D974
S3151000904003226B46DA710EE0132803D904226B460D
S31510009050DA7108E0092803D905226B46DA7102E0B5
S3151000906006226B46DA71194BDA7A6B4607331B7890
S3151000907000209A4228D0154B1A6891785B681878A8
S315100090806B4607330122124CA047002817D16B46B6
S315100090900733197840220A431A700C4A1168097A64
S315100090A05268107801220A4CA04700280AD16B4654
S315100090B0DA79064BDA7207E00120404204E001201B
S315100090C0404201E00120404202B010BDB0790110CB
S315100090D0D1AF00102423054AD35C002B03D1D389CA
S315100090E00380002001E0012040427047B079011052
S315100090F030B583B0011E20D0174BD88981421FD8B6
S31510009100642920D86B46DC1D144B98470138207013
S31510009110114B24221968895C5B6818782300233A5E
S315100091200F4CA047041E11D10B4DE8896B46D97917
S3151000913001310C4B984728850AE00124644207E068
S315100091400124644204E00124644201E001246442E3
S31510009150200003B030BDC046B07901102131011096
S31510009160D1AF00103532011070B52423164AD35CE6
S315100091700024002B26D1947A002C15D00123984375
S31510009180157C04401474041B631E9C416442002821
S315100091900DD1137D002B12D10C4B984712E00A4BC0
S315100091A01D74012464420DE0012464420AE001208A
S315100091B0064B9847064B9847002803D0EFE7012047
S315100091C0024B9847200070BDB0790110458B0010F6
S315100091D0A18C0010F0B54F4680B488B00190039171
S315100091E002921E002423694AD35C002B00D0B6E0FD
S315100091F03370937A002B00D1B4E0137C002B00D18E
S31510009200B3E05A06D20F55009A0601D5AA1CD5B25C
S31510009210DA0601D5AA1CD5B21B0701D5AB1DDDB2E6
S315100092205A4B1A68117B5B68187805AB0222584CAA
S31510009230A047041E00D09BE005AA13781B025278A3
S315100092401A439146AFB2BA4200D299E04F4B5A68D0
S3151000925053885B08994513D94C4B1B68D97C1078F9
S3151000926005AB01224A4CA047002800D083E005AB8D
S315100092701B78DB0604D5474B9847022464427FE0EF
S315100092800298454B9847414B1A68517B5B68187892
S3151000929005AB2A003E4CA047041E6FD12900484654
S315100092A03E4B984701380E9B187000233370002DE3
S315100092B01AD0364B1A7C0023120715D505AB1A782F
S315100092C0120259780A43039802809A781202D978C2
S315100092D00A4342801A7912025B79134383803278EB
S315100092E00823134333700623BB4249D0274A127C06
S315100092F052060FD505A9CA5C1202C91849780A4345
S3151000930001990A80317840220A43327002339BB2A7
S315100093109F4235D01D4A127C92060FD505A9CA5C0C
S315100093201202C91849780A4301994A8031782022D5
S315100093300A43327002339BB29F4221D0134A127CE9
S31510009340D2061DD505A9CA5C1202CB185B78134349
S31510009350019A9380327810231343337010E001245E
S3151000936064420DE0012464420AE00124644207E0ED
S315100093700124644204E00124644201E001246442B1
S31510009380200008B004BC9146F0BDC046B07901106B
S315100093902DB00010A18C0010D9B900103532011073
S315100093A030B583B00400594B9B7C834200D197E0C3
S315100093B0002842D0554B1A6811795B6818786B46AD
S315100093C007330122524DA847002800D08AE06B4689
S315100093D007331A7820218A431A704C4A1168097982
S315100093E05268107801224B4DA84700287DD10330D2
S315100093F0494B984702226B46DA712223434AD35CC3
S31510009400002B02D082226B46DA7123233F4AD35CAB
S31510009410002B05D06B46DA1DD97930230B43137018
S315100094203A4B1A68D17D5B6818786B460733012270
S31510009430384DA84700284FD05AE0344B1A68117996
S315100094405B6818786B4607330122314DA847002810
S3151000945051D12E4B9B7ADB0706D56B46DA1DD9798F
S3151000946020230B43137005E06B46DA1DDB792021B0
S315100094708B431370254B1A6811795B6818786B4605
S3151000948007330122234DA847002837D10330224B3A
S31510009490984722231D4AD35C002B03D080226B46AB
S315100094A0DA7102E000226B46DA712323174AD35C85
S315100094B0002B05D06B46DA1DD97930230B43137078
S315100094C0124B1A68D17D5B6818786B4607330122F8
S315100094D0104DA847002814D10C4B9C74002012E0A4
S315100094E0002010E0012040420DE0012040420AE039
S315100094F00120404207E00120404204E001204042A2
S3151000950001E00120404203B030BDC046B0790110E1
S315100095102DB00010D1AF00102981001030B583B0E6
S31510009520040023231C4AD35C83422ED0002803D088
S3151000953030226B46DA7102E000226B46DA71164B66
S315100095409B7C002B05D06B46DA1DD97902230B4381
S3151000955013702223104AD35C002B06D06B46DA1DFB
S31510009560DB79802149420B4313700B4B1A68D17D6E
S315100095705B6818786B4607330122084DA847002808
S3151000958005D12323044AD45403E0002001E001202E
S31510009590404203B030BDC046B0790110D1AF0010C3
S315100095A010B582B0041E282C78D8002815D10020BA
S315100095B0444B984701AB00221A7007325A70424A40
S315100095C01168497D526810780222404CA047041E4B
S315100095D067D100223C4B1A7571E00120394B984730
S315100095E0012C03D1022201AB1A701AE0022C03D10E
S315100095F0032201AB1A7014E0052C03D8042201AB28
S315100096001A700EE00A2C03D8052201AB1A7008E076
S31510009610142C03D8062201AB1A7002E0072201AB04
S315100096201A70294B1A68517A5B68187801AB0122B7
S31510009630264CA047002837D1234B1A68117A5B684D
S31510009640187801AB0122224CA04700282FD101AB7C
S31510009650197808220A431A701B4A1168097A526847
S3151000966010780122194CA047002823D101AB2022E3
S315100096701A70154A1168497D526810780122134CE8
S31510009680A047041E19D1104B08229A7200221A7391
S3151000969001321A7500200F4B984710E001246442DE
S315100096A00DE0012464420AE00124644207E001242B
S315100096B0644204E00124644201E001246442200073
S315100096C002B010BD1D950010B0790110D1AF001079
S315100096D02DB000106991001030B583B004002C4BEA
S315100096E09B7A002B48D02423294AD35C002B46D1E1
S315100096F0137D002B0AD0431E9BB2272B03D8254B74
S315100097009847002440E00020224B98470421032C60
S3151000971007D9211CFA239B009C4201D91E4B19889C
S3151000972089B26B46DC1DFA2080001C4B9847013825
S315100097302070174B1A6851785B681878230001223D
S31510009740174CA047041E1DD1114D6B46D979013116
S31510009750FA208000114B9847E8812B8D181C9BB27C
S31510009760642B00D9642080B20E4B9847084BD889D9
S3151000977040080D4B984707E00124644204E0012499
S31510009780644201E001246442200003B030BDC046AB
S31510009790B0790110A1950010D06301103532011077
S315100097A0D1AF0010F19000101990001030B583B0B1
S315100097B004007023034203D001226B46DA7115E0D0
S315100097C0002803D000226B46DA710FE06B46073390
S315100097D040221A706A4A1168497D5268107801222F
S315100097E0684DA847002800D1B2E00BE0644B1A6818
S315100097F0517D5B6818786B4607330122614DA84787
S31510009800002805D000225E4B9A7201256D42B4E005
S315100098106B46DA1DDB7940218B4359490B730023C4
S315100098201370630602D404226B46DA71A30605D4BC
S315100098306B46DA1DD97902230B431370E30605D460
S315100098406B46DA1DD97901230B431370230705D410
S315100098506B46DA1DD97938230B431370484B1A68B7
S31510009860917D5B6818786B4607330122454DA847F2
S31510009870002805D00022424B9A7201256D427CE0E9
S31510009880082322009A436BD000203F4B98473C4B4D
S315100098901A6811795B6818786B46063301223B4DBE
S315100098A0A847002848D1E30709D511226B46DA717B
S315100098B06B469A1D997920230B43137008E01022EA
S315100098C06B46DA716B469A1D9B7920218B43137078
S315100098D024232B4AD35C002B07D06B469A1D9B7909
S315100098E0802149420B43137005E06B469A1D9B7904
S315100098F07F210B401370224B26221968895C5B6806
S3151000990018786B460733253A1E4DA847002816D1FE
S315100099101B4B1A6811795B6818786B46063301225F
S31510009920184DA847051E0DD1154B9C7200221A75AD
S315100099303220174B984720E001256D421DE0012586
S315100099406D421AE001256D4217E001256D4214E0C3
S315100099506B4607331B7840229343094A137362E719
S31510009960074B1A6811795B6818786B460633012223
S31510009970064DA8470028A2D0E7E7280003B030BD5F
S31510009980B0790110D1AF00101D9500102DB0001048
S315100099902981001030B585B002AB80221A70B94A01
S315100099A01168497D526810780122B74CA0470028EB
S315100099B000D049E16430B54B984702AB00221A70CB
S315100099C0B04A1168497D526810780122AE4CA04702
S315100099D0002800D03BE1AB4A0023D37402AB4021F0
S315100099E019701168097A526810780122A64CA0479E
S315100099F0002800D02EE1A34CFF23A37223726372BA
S31510009A00E37201225242E2812374A3742285FE3B43
S31510009A10237300252133E5540133E5546575257507
S31510009A20200016300D320021994B98472423E55417
S31510009A300133E554E584FA20C000964B9847002878
S31510009A4000D00AE10230944B9847002800D007E175
S31510009A502A30924B9847002800D004E13230904BC0
S31510009A609847002800D001E18E4B9847002800D077
S31510009A70FFE001308C4B98470C248C4D01AB012232
S31510009A8000212000A847002803D16B461B79482BDC
S31510009A9004D00134E4B2102CF0D101E00F2C05D91A
S31510009AA08348844CA0478448A047C4E02A23754ABB
S31510009AB0D45401AB10221A700F3A0A212000724CAE
S31510009AC0A047002800D0B6E00130704B984701AB94
S31510009AD01F221A700B326B49885C293A0A216A4C8C
S31510009AE0A047002800D0A6E00130684B98472A23EB
S31510009AF0644AD05C01AB032210216C4CA0470028AD
S31510009B0000D098E05F4A01AB197880319185597879
S31510009B108031D185997880311186102119701A31CA
S31510009B20505C01222039584CA047002800D082E012
S31510009B300130564B984700205B4B984701AB4022AB
S31510009B401A70504A1168897E5268107801224E4C5C
S31510009B50A04700286FD101AB4A4A2A21515C8038B0
S31510009B60014319701168897F526810780122464C9A
S31510009B70A04700285FD101AB02221A70414A116832
S31510009B80C97F5268107801223F4CA047002852D155
S31510009B9001AB88221A703B4A20211068415C52683A
S31510009BA010780122384CA047002844D101AB354A21
S31510009BB02A21515C197021211068415C5268107875
S31510009BC00122314CA047002835D101AB0A221A7068
S31510009BD02C4A22211068415C5268107801222A4CC6
S31510009BE0A047002827D101AB81221A70254A2321CC
S31510009BF01068415C526810780122234CA047002857
S31510009C0019D101AB11221A701E4A26211068415C27
S31510009C105268107801221C4CA04700280BD101ABCA
S31510009C2003221A70174A27211068415C526810786F
S31510009C300122154CA0470A20204B9847041E1BD121
S31510009C4000201F4B984719E00124644216E00124B6
S31510009C50644213E00124644210E0012464420DE0E2
S31510009C60012464420AE00124644207E001246442AC
S31510009C7004E00124644201E001246442200005B09E
S31510009C8030BDC046B0790110D1AF00102981001047
S31510009C9025520110998E0010858F00101990001012
S31510009CA0D996001069910010A19300102DB00010E4
S31510009CB0386601108D540110A8640110F19000103F
S31510009CC0AD97001070B582B00C00151E25D0194B3B
S31510009CD09B7A002B24D001AB020A1A70C0B25870BE
S31510009CE0144B5B6840185A8990421CDC114A126862
S31510009CF0D17E187801AB02220F4EB047002815D13D
S31510009D00E2B20C4B1968097E5B6818782B000A4C76
S31510009D10A047431E984140420AE00120404207E016
S31510009D200120404204E00120404201E0012040426F
S31510009D3002B070BDB0790110D1AF001070B582B00D
S31510009D402423214AD35C834237D0002820D02523F0
S31510009D50D35C002B33D000201C4DA84700201C4B91
S31510009D609847194CE08C1B4B98476B4607330022DB
S31510009D701A706268107801222321174EB04701220B
S31510009D802423E2540120A847144B9847002018E0DA
S31510009D9000200E4B98476B4607330B4C227C1A70EB
S31510009DA062681078012223210B4DA8470022242334
S31510009DB0E2540A4B9847002003E0002001E00120FE
S31510009DC0404202B070BDC046B0790110458B0010FC
S31510009DD0A1930010D9960010D1AF0010A18C0010DD
S31510009DE0F0B585B006000D00294B9B7ADB0740D5F0
S31510009DF0274B28221968895C5B68187801AB203AD2
S31510009E00244CA047041E37D101AB1B780322134004
S31510009E10012B34D101ABDB797F2B33D801A88178A4
S31510009E2009024378194309B2318002791202C378C4
S31510009E301A4312B2728083791B02407903431BB214
S31510009E409C46B38012482C23C75E79430912318091
S31510009E502E23C15E4A43121272803023C25E6346BD
S31510009E6053431B12B380002D0ED028000A4B98477F
S31510009E700AE00124644207E00124644204E002245B
S31510009E80644201E003246442200005B0F0BDC046E0
S31510009E90B07901102DB00010D9B90010024B5B68D3
S31510009EA09B89038000207047B079011010B586B0E9
S31510009EB004000C221549103103A8154B9847C82CDD
S31510009EC019D82100C820134B9847013880B201AA2F
S31510009ED0030A1370507002210F48104B9847002840
S31510009EE00CD103AA0C210E480C4B9847002808D118
S31510009EF00C4B9C8107E00120404204E001204042C7
S31510009F0001E00120404206B010BDC0468468011031
S31510009F10135201103532011016020000C59C0010B4
S31510009F20C10A00007C7A0110F0B5474680B482B0B1
S31510009F300400430700D19CE0C823DB00994200D9F6
S31510009F409AE00800584B98475849594B9847061CB1
S31510009F506B46DD1C2800574B98472B78042B19D0DD
S31510009F60DAB2042A02D8022B05D088E0082B20D0BA
S31510009F70102B2DD083E0504B98468D21C905301CEF
S31510009F8098474E4FB84785B24D49301CC047B84721
S31510009F9080B22BE0484B98468C21C905301C984757
S31510009FA0464FB84785B24749301CC047B84780B2BC
S31510009FB01CE0414B98468B21C905301C98473F4FF2
S31510009FC0B84785B24049301CC047B84780B20DE04B
S31510009FD0394B98468A21C905301C9847374FB847E0
S31510009FE085B23A49301CC047B84780B201AB2A0A3D
S31510009FF01A705D70020A9A70D870E30710D501AA1C
S3151000A0000221EA204000324B984700283AD16B468D
S3151000A0109A1D02212530FF302D4B9847002834D148
S3151000A020A30710D501AA0221EC204000284B98471F
S3151000A03000282DD16B469A1D02212930FF30244B62
S3151000A0409847002827D10020630729D501AA0221A5
S3151000A050DD30FF301E4B984700281FD16B469A1DE6
S3151000A06002212D30FF301A4B9847431E984140422B
S3151000A07016E00120404213E00120404210E001208A
S3151000A08040420DE0012040420AE00120404207E034
S3151000A0900120404204E00120404201E001204042FC
S3151000A0A002B004BC9046F0BD49420110000048437E
S3151000A0B0AD380110398F0010413C01105535011093
S3151000A0C0000040460000C045000040450000C04466
S3151000A0D0C59C001000B583B0C30703D400226B469D
S3151000A0E0DA7102E030226B46DA71830705D56B46CA
S3151000A0F0DA1DD9790C230B431370430705D56B462C
S3151000A100DA1DD97903230B4313706B46DA1D01212F
S3151000A110A4204000014B984703B000BDC59C001019
S3151000A12000B583B00123002804D0031C042800D9ED
S3151000A1300423DBB26A460732013B1370012150201B
S3151000A140FF30024B984703B000BDC046C59C0010B7
S3151000A15000B583B00521074B984780B201AA030AC0
S3151000A160137050700221EF204000034B984703B044
S3151000A17000BDC04621310110C59C001000B583B04A
S3151000A1800521074B984780B201AA030A1370507035
S3151000A1900221ED204000034B984703B000BDC04696
S3151000A1A021310110C59C001010B582B00C00FA21A7
S3151000A1B08900094B9847604301AA031613700314CC
S3151000A1C0537003129370D0700421AE204000034BDD
S3151000A1D0984702B010BDC04635320110C59C00101C
S3151000A1E000B583B00521074B984780B201AA030A30
S3151000A1F0137050700221AD204000034B984703B0F6
S3151000A20000BDC04621310110C59C001000B583B0B9
S3151000A2100521074B984780B201AA030A13705070A4
S3151000A2200221AC204000034B984703B000BDC04646
S3151000A23021310110C59C001000B585B000280CD046
S3151000A24009220D491C3101A80C4B984701AA092176
S3151000A2509720C0000A4B98470BE00922064928317F
S3151000A26001A8064B984701AA09219720C000044B64
S3151000A270984705B000BDC0468468011013520110FE
S3151000A280C59C001000B583B0002809D001ABC022D0
S3151000A2901A7002325A7002329A700232DA7001E083
S3151000A2A0054B019301AA04210448054B9847054B19
S3151000A2B0984703B000BDC0468B8B8B8B980A000065
S3151000A2C0C59C0010A18C001000B583B0002809D0E1
S3151000A2D001AB20221A7008325A7008329A7008326E
S3151000A2E0DA7001E0054B019301AA04210448054BDD
S3151000A2F09847054B984703B000BDC046A3A3A3A338
S3151000A3009E0A0000C59C0010A18C0010F0B585B007
S3151000A310040001AD02232B70C8336B701933AB7078
S3151000A320DA3BEB702A00042168206A4B9847A32376
S3151000A3302B704027274007D001ABC0225A70083235
S3151000A3409A70063ADA7004E001ABA3225A709A703A
S3151000A350DA70C0256D00254007D001ABC4221A71F2
S3151000A36008325A71063A9A7104E001ABA3221A71A7
S3151000A3705A719A7101AAA323D371137253720A21C7
S3151000A3805548544B98470326264003D0202201AB4C
S3151000A3901A7002E0D82201AB1A7001AA01214F48A7
S3151000A3A04C4B9847A30603D501204D4B984702E026
S3151000A3B000204B4B9847002D19D0E30509D501AB6A
S3151000A3C0B2221A70273A5A702B329A701B3ADA70E8
S3151000A3D008E001ABB0221A70303A5A7034329A70D3
S3151000A3E0243ADA7001AA04213E483A4B9847E3070B
S3151000A3F023D501AAF823137001218B200001354BB8
S3151000A4009847FA210720384B98470720374B98472B
S3151000A4100120374B98476420364B9847FA20400066
S3151000A420354B9847C8213548354B98472820354B2A
S3151000A43098470A20344B984707E001AAD82313708F
S3151000A44001218B200001234B9847A30703D5D9225E
S3151000A45001AB1A7002E0D82201AB1A7001AA0121D1
S3151000A4602A481C4B9847630703D50120284B984769
S3151000A47002E00020264B9847E30603D50120254B22
S3151000A480984702E00020234B984708232343224A8B
S3151000A4905381224B9847002F03D100221E4B9A73EB
S3151000A4A002E006221C4B9A73002D03D01A4A937BA6
S3151000A4B0063393731423234203D0174A937B103326
S3151000A4C09373002E03D0144A937B043393730020A6
S3151000A4D005B0F0BDC59C0010A70A0000B60A000022
S3151000A4E039A20010A20A0000299F0010D5A0001062
S3151000A4F021A1001051A100107DA1001009E3CA028C
S3151000A500A9A10010E1A100100DA200103D07000046
S3151000A51085A20010C9A200107C7A0110A18C00102F
S3151000A520034B1B78034B1B78034B1B78002070479B
S3151000A530D0950110389501100B97011070B5114880
S3151000A540114DA847114C6378013BDBB2637010487C
S3151000A550104B98471048A847012252420F4B1A60D9
S3151000A56001200F4B984700220E4B1A70222323709E
S3151000A5700D4B1B78002B02D101320C4B1A700020A8
S3151000A58070BDC046D06801106D530110D0950110F2
S3151000A590386601108D540110D8680110C895011045
S3151000A5A091BA00100B97011038950110CD95011036
S3151000A5B010B50120084B98470022084B1A7022321A
S3151000A5C0074B1A70074B1B78002B02D1213A064B0A
S3151000A5D01A70002010BDC04691BA00100B970110DA
S3151000A5E0D095011038950110CD9501100023024A1F
S3151000A5F01370024A13807047D095011048970110C6
S3151000A60010B50222024B1A701620024B984710BD45
S3151000A6100B97011065B3001010B51B481B4B9847DC
S3151000A6201B4B1B78002B05D101221A4B1A701A4BA3
S3151000A630984728E0164B1B78DBB2212B15D002D891
S3151000A640202B03D016E0232B08D913E0134B984781
S3151000A65000280FD111220E4B1A700BE000212B236C
S3151000A6600F4AD15400200F4B98470F4B18881321CF
S3151000A6700E4B98471122064B1A700E3A0C4B1A7055
S3151000A68016200C4B984710BDE468011039AF001026
S3151000A690D0950110CD95011039F70010290A011037
S3151000A6A05896011099B70010D2950110550A01104D
S3151000A6B00B97011065B3001010B51122024B1A70DA
S3151000A6C0024B9847002010BDD095011019A6001016
S3151000A6D010B50C4B1B78202B10D102890A4B1A800F
S3151000A6E02122084B1A700948094B984709480A4B0A
S3151000A6F09847FA225200094B1A6001E0084B984716
S3151000A700002010BDD0950110E69601103866011094
S3151000A7108D540110FC6801106D530110C89501107D
S3151000A72019A6001010B50E4B1B78212B14D122221E
S3151000A7300B4B1A700B480C4B9847012101200B4B01
S3151000A74098470B480B4B98470B480C4B98470122E0
S3151000A75052420B4B1A6001E00A4B9847002010BD7D
S3151000A760D09501100C69011039AF001025B80010F2
S3151000A770386601108D540110D86801106D53011000
S3151000A780C895011019A6001010B584B02022144BDC
S3151000A7901A70144B9847041E07D01348134B98474A
S3151000A7A01348144B9847200018E000230293124BCD
S3151000A7B00193C823DB00009300230022012100200F
S3151000A7C00E4CA04704000020002C07D00648074B6B
S3151000A7D0984721000A48074B9847E22004B010BD5D
S3151000A7E0D09501109DED0010386601108D540110A2
S3151000A7F0206901106D5301108F020000ED08011041
S3151000A8005469011010B50400164B1B78222B0AD17F
S3151000A81000210933144AD1540020144B98470021C3
S3151000A8200020134B98470F4B11221A701B78114BAF
S3151000A8301B78114B1B78A3781A2B0BD0DAB21A2A75
S3151000A84004D8052B06D0082B07D103E0292B01D0FD
S3151000A8503B2B02D1094B984701E0094B9847002042
S3151000A86010BDC046D09501105896011099B700102A
S3151000A87025B80010389501100B97011089A7001004
S3151000A88019A6001030B587B001282DD0002802D0A7
S3151000A89002283FD097E0002201AB1A70604B1B795B
S3151000A8A0002B0AD05E4B5A7900237E2A01D801323A
S3151000A8B0D3B25B4A537101AA1370594B9B7A002B82
S3151000A8C00ED0574BDB7AFF2B02D00133DBB200E000
S3151000A8D00023534AD37201AA803B11780B4313709D
S3151000A8E04F4B9D8C012270E04E490A6A01AB10163F
S3151000A8F018701014587010129870DA70CA69101601
S3151000A90018711014587110129871DA714023CD5ABB
S3151000A91008225AE0444A0E23D15E01AB197009127F
S3151000A92059701020115E99700912D9701220115E9B
S3151000A9301971091259710820115E99710912D9718C
S3151000A9400A20115E1972091259720C20115E997241
S3151000A9500912D9724423D55A183BD35C002B14D054
S3151000A9601423D15E01AB1973091259731620115EA7
S3151000A97099730912D9731820115E19740912597432
S3151000A98000212C23D154122208E001AB00221A73A5
S3151000A9905A739A73DA731A745A740C322D23224925
S3151000A9A0CB5C002B0AD00A00CB6901A98B741B1251
S3151000A9B0CB7400212D23D154142206E001AB0021C3
S3151000A9C09974D97401E00022002592B201A92800D9
S3151000A9D0164B9847041E1FD1154B18882900154B86
S3151000A9E09847041E15D1144A53780133DBB25370BD
S3151000A9F0124B1988013189B219801148114DA84797
S3151000AA001148124B98471248A8470222114B1A6058
S3151000AA1002E011480B4B9847200007B030BDC046E6
S3151000AA20D4950110589601103C950110D1110110C2
S3151000AA30D295011071130110D0950110489701108D
S3151000AA40986901106D530110386601108D5401106C
S3151000AA50A4690110C8950110B069011010B582B033
S3151000AA6001001231012301930300143300930023D4
S3151000AA700022024CA04702B010BDC046B111011011
S3151000AA80F0B54F464646C0B483B09446012810D060
S3151000AA90002802D0022819D025E0BB2350245325C4
S3151000AAA0BE265A2757201C2290461B3A01929146E1
S3151000AAB023E0EE2350245325BE265A2757201C2266
S3151000AAC09046143A0192063A914616E01123502404
S3151000AAD05325BE265A2757201C229046083A019223
S3151000AAE0113A914609E0002300240025002600278C
S3151000AAF0002000229046019291464A464A8202223E
S3151000AB000A7042464A708870CF700E714D718C7102
S3151000AB10CB710B7200234B728B72CB720B734B7310
S3151000AB208B73CB730B7412240C856246CA626A4609
S3151000AB3092880A864A861120342288548B63002212
S3151000AB408B87CB8733300A5401300A5401300A54AC
S3151000AB5048228B5202328B5202328B520B6403B054
S3151000AB600CBC90469946F0BD10B5054B0122DA7023
S3151000AB705878002300220221024CA04710BDC0467F
S3151000AB80D49501106DF4001010B5054B01225A72C0
S3151000AB90D879002300220221024CA04710BDC046DE
S3151000ABA0D49501106DF40010084B00225A731A70D8
S3151000ABB01F2159701E399970DA705A7199711D20BA
S3151000ABC0D87119725A72DA727047C046D49501104C
S3151000ABD0F0B557464E464546E0B482B001AC20006B
S3151000ABE01D4B9A4698470023994623700223984690
S3151000ABF063700127E770194E70782100184DA84729
S3151000AC002000D0474B46237043466370E770F079B7
S3151000AC102100A847002805D01248134B984713481F
S3151000AC20134B984701AC20000B4B98470023237019
S3151000AC306370210017200A4B9847002805D0094851
S3151000AC40094B98470B480A4B984702B01CBC9046D4
S3151000AC509946A246F0BDC04641C50010D4950110D4
S3151000AC6051C50010386601108D5401103C6A011050
S3151000AC706D530110746A011070B5054D6878022283
S3151000AC800449054CA047E87902220449A04770BD43
S3151000AC90D495011069AB001081C9001089AB001062
S3151000ACA070B51F20084CA04705001D20A047002D99
S3151000ACB004D00323002804D1023B02E0431E98412E
S3151000ACC04300180070BDC04609C7001070B50500D6
S3151000ACD0474C637B2373474B98476073002D03D112
S3151000ACE04548464B984704E0012D75D14448434BDF
S3151000ACF098473F4B5B7B012B06D0002B67D0022B6E
S3151000AD0024D0032B43D06AE03E4B1B78DBB2002BDA
S3151000AD1003D0223B012B64D80EE001223A4B1A7065
S3151000AD2000233A4A13703A4A13700022FA2101207E
S3151000AD30384B9847002059E00023334A1370334AA2
S3151000AD4013700020344B984700204FE02D4B1B7892
S3151000AD50DBB2002B02D0222B0FD045E001222A4B6A
S3151000AD601A700023294A1370294A13700022FA21F7
S3151000AD700120284B9847002038E00023224A137000
S3151000AD80224A13700020244B984700202EE01D4BBA
S3151000AD901B78002B08D11C4A13701C4A1370012211
S3151000ADA01E4B1A70002021E0002100201C4B9847F2
S3151000ADB00222154B1A700023144A1370144A13708A
S3151000ADC00022FA210120134B984700200EE00122A1
S3151000ADD0124B1A70002009E00120404206E00020C4
S3151000ADE004E00120404201E00120404270BDC0460F
S3151000ADF0D4950110A1AC0010BC6A011039AF001037
S3151000AE00D06A0110D0950110389501100B970110DA
S3151000AE104A97011031BA001085A80010CD9501107F
S3151000AE2099B7001010B50C00002804D10C4B5878B7
S3151000AE300C4B984705E0012803D1094B58780A4B6B
S3151000AE409847002C04D1064BD879064B984705E055
S3151000AE50012C03D1024BD879034B984710BDC0463D
S3151000AE60D495011051CA0010ADCA001010B582B0A9
S3151000AE706B46DA1D00231370094C21000020094B84
S3151000AE8098472000084B9847041E06D00748084BE1
S3151000AE90984721000748084B984702B010BDC04696
S3151000AEA0E495011081AA00105DAA00103866011001
S3151000AEB08D540110E46A01106D53011010B582B063
S3151000AEC001AC2000154B98470123237021000E205A
S3151000AED0134B9847002805D01248134B9847134830
S3151000AEE0134B984700210E20124B984701AC2000B7
S3151000AEF00A4B98470123237021000F20084B9847CF
S3151000AF00002805D00748084B98470848084B98472B
S3151000AF1000210F20074B984702B010BD41C5001005
S3151000AF2051C50010386601108D540110286B0110A0
S3151000AF306D530110A9C70010044B1B78044B1B78E6
S3151000AF40044B1B78044B1B787047C046D0950110F4
S3151000AF50389501100B970110CC95011030B587B0BC
S3151000AF601020144CA047144B58601020A047134BC8
S3151000AF70586001AC2000124B9847032323701B33F3
S3151000AF806380163B63600133E360073BA360236174
S3151000AF900C4D0D4C01AA0D492800A0470028F9D1E7
S3151000AFA0084B1A682821535CDB07FCD40123137560
S3151000AFB007B030BDE151011010970110DC96011059
S3151000AFC08D830010E8960110A58300100030004014
S3151000AFD0F8B5124C2080501CC0B2608060680170B9
S3151000AFE0002A0ED00020411C185C656868540800C1
S3151000AFF0C9B28A42F7D804E0013CA4B2002C04D1AD
S3151000B00009E0074C054E074D074F31002800B84799
S3151000B0100028F1D101E001204042F8BD109701103F
S3151000B020E9030000E8960110B9840010F0B5474610
S3151000B03080B41700984680B21D4B188001225A80A2
S3151000B0405B6819701B4B18805F801B4C184E1B4D8C
S3151000B05003E0013CA4B2002C1FD031001848A847C9
S3151000B0600028F6D1144E134D164C03E0013EB6B22D
S3151000B070002E15D029001248A0470028F6D1002F1F
S3151000B08011D000230B494A68D25C4046C2540133A2
S3151000B090DAB29742F7D8002006E00120404203E0DA
S3151000B0A00120404200E0002004BC9046F0BDC0469E
S3151000B0B010970110DC960110E9030000E9840010D6
S3151000B0C0E89601108984001010B52823064AD35C2F
S3151000B0D0002B08D001212923D1540023002201314D
S3151000B0E01E20024CA04710BD3C9501106DF40010B7
S3151000B0F010B582B001AC20000A4B9847002323708C
S3151000B10002336370013BE37021001E20064B984703
S3151000B110002805D00548064B98470648064B984721
S3151000B12002B010BD41C5001051C50010386601109F
S3151000B1308D540110486B01106D53011010B5022289
S3151000B14002491E20024B984710BDC046C9B00010D8
S3151000B15081C9001070B50020204B984700283AD1BD
S3151000B16079301F4B984778201E4B984732201E4B3C
S3151000B170984732201D4B98471D4D28001D4B984768
S3151000B180681F1D4B9847A81E1C4B9847AC1F0723DA
S3151000B190EB76F0204000E883194B98473220194B84
S3151000B1A098470120184B984701232222A3540632B0
S3151000B1B0A35400230132A3540132A3540132A354E1
S3151000B1C00132A3540132A3540132A3542C3A2F3323
S3151000B1D0E254002001E00120404270BD9599001014
S3151000B1E0AD97001069910010D9960010F1900010DB
S3151000B1F042950110D5900010398F00109D9E0010B9
S3151000B2000DA30010AD9E00103D9D001030B585B009
S3151000B2101E4C00222023E25421000E31200008305B
S3151000B220123B6B4400930F236B4402AA184DA84798
S3151000B2302B23E35C012B04D801332B2213498B54A7
S3151000B2400BE0124C00222B23E25420001C3002A9E2
S3151000B250104B984701222D23E2542A230B4AD35C24
S3151000B260012B04D801332A2208498B540BE0074CD2
S3151000B27000222A23E2542000143002A9064B9847D4
S3151000B28001222C23E254002005B030BD3C9501105C
S3151000B290D5910010E98B0010E19D001010B582B019
S3151000B2A06B46DA1D00231370094C21000220094B4E
S3151000B2B098472000084B9847041E06D00748084BAD
S3151000B2C0984721000748084B984702B010BDC04662
S3151000B2D06C95011081AA00105DAA00103866011045
S3151000B2E08D540110886B01106D53011010B500219B
S3151000B2F0014B984710BDC046A9C7001010B50121D3
S3151000B300014B984710BDC046A9C7001010B582B0B2
S3151000B31001AC2000064B984701232370210016200C
S3151000B320044B98471620044B984702B010BDC046F0
S3151000B33041C5001051C50010FDB2001010B5040033
S3151000B340054B9847002803D12000044B984702E08C
S3151000B3502000034B984710BD59C70010FDB20010CE
S3151000B360EDB2001010B50C4B984700220B4B1A701B
S3151000B3700B4B1B78DBB2022B02D0032B02D004E05E
S3151000B380642103E0C821490000E0002101220120C8
S3151000B390044B984710BDC046EDB2001050970110EF
S3151000B3A00B97011031BA0010064B002225215A5472
S3151000B3B006315A5401395A5402395A5401315A54E1
S3151000B3C07047C0465896011010B582B0054A1E2324
S3151000B3D013701D3B0093044B04490548054CA047C8
S3151000B3E002B010BD48960110349601100C9701104A
S3151000B3F01897011005B90010F0B5574680B482B001
S3151000B400374DA2232B7000236B70AB70354C033372
S3151000B4109A46009323002A0033493448344FB847DC
S3151000B420344E63781B02A2781343F380A4232B7047
S3151000B4305346009323002A002B492C48B8476378BB
S3151000B4401B02A27813433381A6232B705346009315
S3151000B45023002A0024492548B84763781B02A2789E
S3151000B46013437381A8232B705346009323002A009D
S3151000B4701D491E48B84763781B02A2781343B3814F
S3151000B480AA232B705346009323002A001649174807
S3151000B490B84763781B02A2781343F381AC232B7051
S3151000B4A05346009323002A000F491048B847637883
S3151000B4B01B02A27813433382AE232B70534600939C
S3151000B4C023002A0008490948B84763781B02A27866
S3151000B4D013437382002002B004BC9246F0BDC046EE
S3151000B4E048960110349601100C9701101897011008
S3151000B4F005B900105896011010B50A4B9847002848
S3151000B5000DD1094B01225A70022425215C540331B6
S3151000B5105A54002201315A5401315A5400E0102075
S3151000B52010BDC046F9B300105896011010B5012190
S3151000B5300120104B9847012125230F4AD1540F4B58
S3151000B540984703200E4B98470E4B9847002800D07B
S3151000B550FEE7094B02212522995401245C701E3AFC
S3151000B560094B1A7001390120084B9847084B1C707B
S3151000B57010BDC04625AE001058960110C9B3001074
S3151000B58029810010F9B40010CC95011099B700105C
S3151000B590CD950110F0B557464E46C0B483B025235D
S3151000B5A02C4AD35C032B02D0042B25D04BE02A4C1B
S3151000B5B0002323706370A370E370284D042700974F
S3151000B5C02B00220026492748274EB246B047214E67
S3151000B5D06B781A04AB781B021343EA781343736132
S3151000B5E052232370513B00932B0022001C491D4807
S3151000B5F0D0472523F75426E0174C00232370637099
S3151000B600A370E370154D043300932B0022001449E8
S3151000B6101448154EB146B0470E4E6B781A04AB78E7
S3151000B6201B021343EA781343B361422323700127A5
S3151000B63000972B0022000A490A48C84703222523EF
S3151000B640F254013BF754002003B00CBC91469A46C5
S3151000B650F0BDC04658960110489601103496011058
S3151000B6600C9701101897011005B90010F0B54F4648
S3151000B67080B482B0224DEC892402AB691C1BE317FF
S3151000B6801E00288A1F4A914622000021C8474902F7
S3151000B690C00D0843FA23DB009C4660442862A88943
S3151000B6A02200019633000021C8474E06C2093243D4
S3151000B6B0CB112E890021300412184B4116001F00A1
S3151000B6C068892200019B0021C8470C06020A224302
S3151000B6D00B12EC880021E003801859416A69002397
S3151000B6E0C847CC02420D22434B15921BBB41110099
S3151000B6F05B04CA0B1A43EA6102B004BC9146F0BD62
S3151000B70058960110FD34011010B50B4B1B78222BE7
S3151000B71011D10A4B984700280DD12423084AD35C2F
S3151000B720002B08D0140000222423E254054B98471E
S3151000B73001222A23E25410BDD095011095B50010B0
S3151000B740589601106DB6001010B582B06B46DA1D12
S3151000B75000231370094C21000120094B9847200043
S3151000B760084B9847041E06D00748084B98472100F7
S3151000B7700748084B984702B010BDC0468496011082
S3151000B78081AA00105DAA0010386601108D540110B0
S3151000B790C86B01106D53011010B50C00002807D0AE
S3151000B7A002212F23154AD1541E20154B984706E027
S3151000B7B000212F23114AD1541E20124B9847002CDA
S3151000B7C010D0114B03212522995401390632995470
S3151000B7D000210E480E4B98470E4B984701220E4BF0
S3151000B7E01A700AE002212523074AD1540B4B9847B9
S3151000B7F00B4B98470022084B1A7010BD3C95011050
S3151000B80051CA0010ADCA001058960110D503000099
S3151000B81069B900109DB90010E496011091B9001095
S3151000B820BDB9001010B50C00002810D0114B984768
S3151000B830002804D0002106200F4B98470BE0012268
S3151000B8400E4B1A70002101200D4B984703E0002182
S3151000B8500620094B9847002C06D001212523094ABA
S3151000B860D154094B984703E000210720024B984713
S3151000B87010BDC04655B10010A9C700103C95011067
S3151000B88099B70010589601102DB5001030B58DB02F
S3151000B89001AC2000134B9847102323702100124847
S3151000B8A0124B984702AC2000114B9847682323711E
S3151000B8B00023A3701133A3600D3BA3611322E26032
S3151000B8C0E361143A22612262133262616362094DA6
S3151000B8D0220009492800094B98472800084B984729
S3151000B8E00DB030BD21BE00100C97011059BE0010CE
S3151000B8F02DBE0010189701100070004081BF001077
S3151000B90099BE0010F0B583B004000D0000920193AB
S3151000B91008AB1E880122084FB8473300019A0099D8
S3151000B9202000064EB0470600002229002000B84726
S3151000B930300003B0F0BDC046DDC1001059C1001083
S3151000B94010B52823064AD35C002B08D001212923E1
S3151000B950D1540023002202314220024CA04710BDD0
S3151000B960589601106DF4001030B583B004000D0028
S3151000B9706846054B98476B465D7001946846034BC5
S3151000B980984703B030BDC04671810010E5810010A4
S3151000B99010B5014B984710BD8181001010B50448B1
S3151000B9A0044B984780221205034B1A6010BDC046FF
S3151000B9B041B90010CD81001000E100E010B5044B34
S3151000B9C09847802109058023024AD15010BDC046F0
S3151000B9D0D981001000E100E07047C04610B588B06C
S3151000B9E001AC2000084B9847084AA26000236370F8
S3151000B9F0626163732000064B98470020054CA047F0
S3151000BA000120A04708B010BD41C2001080BA8C01B9
S3151000BA10D5C20010B1C2001010B50400024B9847F1
S3151000BA202000024B984710BDD9C30010B1C20010B8
S3151000BA3010B51400012806D0002802D0022804D020
S3151000BA4005E01A2204E00C4A02E00C4A00E001224A
S3151000BA50002901D1FA2189000020094B18704A43A8
S3151000BA6000212000074B98472000074B984780225B
S3151000BA70D201064B1A6010BD9065000080BA8C0189
S3151000BA80CD95011065C200108DC2001000E100E0D6
S3151000BA9010B5014B984710BDB1C2001010B5012268
S3151000BAA0044B9A700023002201214020024CA0472B
S3151000BAB010BDC046449601106DF4001010B5012259
S3151000BAC0044B9A700023002201214120024CA0470A
S3151000BAD010BDC046089701106DF4001010B5794BD3
S3151000BAE01B78DBB2012B03D0022B00D1AEE0E1E0D4
S3151000BAF00022744B1A70744C637B2373734B9847F4
S3151000BB0060737348734B9847237B012B02D0022B2B
S3151000BB104CD093E06C4B5B7B012B02D0022B23D0D5
S3151000BB203BE06D4B1B78002B15D16C4A1378013313
S3151000BB30DBB213700F2B05D90022624B1A70684BBB
S3151000BB409847BEE001225F4B1A700022FA210120AD
S3151000BB50644B9847B5E0644B1B78002B00D0B0E0DF
S3151000BB600122624B1A70ACE05B4B1B78002B0BD199
S3151000BB7000225A4B1A700132524B1A70002264215D
S3151000BB800120584B98479CE0574B1B78002B00D050
S3151000BB9097E00122554B1A7093E0534B1B78002BFC
S3151000BBA000D08EE00122514B1A708AE0464B5B7B27
S3151000BBB0012B23D0022B39D1474B1B78002B15D1E3
S3151000BBC0464A13780133DBB213700F2B05D90022C6
S3151000BBD03C4B1A70424B984773E00122394B1A704E
S3151000BBE00022FA2101203F4B98476AE03E4B1B7812
S3151000BBF0002B66D101223D4B1A7062E0364B1B7842
S3151000BC00002B0BD10022354B1A7001322D4B1A70B6
S3151000BC10002264210120334B984752E0324B1B78A7
S3151000BC20002B4ED10122314B1A704AE02E4B1B7855
S3151000BC30002B46D101222D4B1A7042E02A4B1B785D
S3151000BC40002B3ED10122294B1A703AE01E4C637B21
S3151000BC5023731E4B984760731D481E4B9847A28945
S3151000BC60234B9A4212D11D4A13780133DBB213705B
S3151000BC70092B02D91F4B984723E00222114B1A7049
S3151000BC800022FA210120174B98471AE02B231A4A53
S3151000BC90D35C012B03D101210020184B98470022B9
S3151000BCA0084B1A70104B1B78002B0AD101320F4B20
S3151000BCB01A7006E00C4B1B78002B02D101220B4B9D
S3151000BCC01A7010BD38950110D4950110A1AC001052
S3151000BCD0106C011039AF0010D09501104A97011061
S3151000BCE001A6001031BA00100B970110CD95011066
S3151000BCF00303000019A600105896011099B70010FA
S3151000BD0010B53A483A4B98473A4B1B78DBB2022BA0
S3151000BD1028D0032B47D0012B66D10022354B1A7041
S3151000BD20354B1B78222B07D1344B1B78002B5BD15C
S3151000BD300132334B1A7057E0324A13780133DBB2B3
S3151000BD401370002B06D000222A4B1A7022322A4B6F
S3151000BD501A7049E00122274B1A70642101202A4BE0
S3151000BD60984741E00022234B1A70284A1378013372
S3151000BD70DBB213701378DBB2072B08D91620244BCD
S3151000BD809847244B984701221D4B1A702CE0162019
S3151000BD90214B98470222174B1A70013A6421012051
S3151000BDA0194B984720E00022124B1A70174A137845
S3151000BDB00133DBB213701378DBB2032B08D91620CC
S3151000BDC0134B9847154B984701220D4B1A700BE0F1
S3151000BDD01620114B98470322064B1A70023AC821B7
S3151000BDE049000120084B984710BDC046246C01102D
S3151000BDF039AF00100B970110D0950110389501102E
S3151000BE00CD950110E596011031BA0010509701102A
S3151000BE10FDB2001089A700103DB3001049F90010BB
S3151000BE200C23037000234370837070470123037043
S3151000BE30002343708370C37081330371773B836033
S3151000BE400133C36001330361013343610B3B8361EB
S3151000BE50C36103624362704730B583B004000B7848
S3151000BE6003704B7843708B78837001AD2800074BB5
S3151000BE70984701232B7020782900054B9847207886
S3151000BE800121044B984703B030BDC04641C5001090
S3151000BE9051C50010A9C7001003680A4A934205D17C
S3151000BEA0094A102111601031116007E0074A9342C8
S3151000BEB004D1054A402111604031116001221A76E1
S3151000BEC07047C0460060004000E100E0007000408E
S3151000BED010B50368174A934206D1174980221024D9
S3151000BEE08C5010348C5007E0144A934204D11249F6
S3151000BEF0802240248C508A5000221A7603680D4AFC
S3151000BF00934209D141200E4CA0472620A047382045
S3151000BF10A0470120A0470BE0084A934208D14220CF
S3151000BF20074CA0472720A0473920A0470220A0474A
S3151000BF3010BDC0460060004000E100E00070004007
S3151000BF4041CF001010B50468094B9847094B9C4225
S3151000BF5005D10120084CA0473820A04707E0074B21
S3151000BF609C4204D10220044CA0473920A04710BDA2
S3151000BF70D1BE001000600040ADD20010007000402D
S3151000BF80F0B55F464646C0B483B005008846160035
S3151000BF9029600B7EDB0701D500230B762800614B49
S3151000BFA098472B68604A934209D141205F4CA047BD
S3151000BFB02620A0473820A0470120A0470BE05C4A66
S3151000BFC0934222D14220594CA0472720A04739201E
S3151000BFD0A0470220A0472B68534A934209D1554BDC
S3151000BFE01D6055491420554CA04755491520A047AA
S3151000BFF00BE04F4A934208D14E4B5D6051491620D3
S3151000C0004E4CA04750491720A04701A84F4B9847C0
S3151000C0103400083418239B46B34427002068431C79
S3151000C02011D03378012B02D16A46137103E0002B2D
S3151000C03001D16A461371C0B201A9454B9847398A96
S3151000C0403878444B984704345C45E6D1F378424639
S3151000C05013743378012B00D113773378002B01D169
S3151000C060424613770023AB60EB602B616B61EB618B
S3151000C070AB610022AB842B842633EA540133EA5495
S3151000C0800133EA54253BEB712A712B6832786A71B9
S3151000C0903278012A01D132799A827278042A04D12F
S3151000C0A02421585C02435A5404E024215A5C04208B
S3151000C0B082435A54B278012A1AD0002A04D0022A8E
S3151000C0C00CD0032A1ED026E02422995C022081433C
S3151000C0D09954995C0138814399541CE02422985C48
S3151000C0E0022101439954995C01208143995412E02D
S3151000C0F02422995C022081439954985C01210143C2
S3151000C100995408E02422985C022101439954985CC2
S3151000C110012101439954002003B00CBC90469B4664
S3151000C120F0BDC04645BF001000600040E5CB0010D2
S3151000C13000700040309501108D86001015D7001044
S3151000C140B9870010C9880010F589001041C5001084
S3151000C15051C5001035C80010F0B583B0046800262C
S3151000C1606D46EE710735002C34D0002904D1290014
S3151000C1708079287001270BE0002A05D01720002BA4
S3151000C18029D00026002703E0012600276A46073239
S3151000C1902825605DC007FCD4207B207A002B14D0A4
S3151000C1A000257842474170424641207AC007FCD5A7
S3151000C1B008782070207BC007FCD5207910700135D7
S3151000C1C0ADB2C9199219AB42EFD1237ADB06FCD571
S3151000C1D0002000E01F2003B0F0BDC04610B508785F
S3151000C1E0002A03D00021044B984702E00121024B9C
S3151000C1F09847002010BDC046A9C7001010B50D4BBA
S3151000C2001B7D002B07D001220A4B1A730A4B1B68A1
S3151000C210002B00D098473423064AD35C002B07D056
S3151000C22001212C23D154054B1B68002B00D09847B5
S3151000C23010BDC046001000408C7A0110907A011093
S3151000C2400123037003730222427042738370837357
S3151000C2500022C270C2730371037482604261027657
S3151000C2607047C046002807D1002902D1064B1A6034
S3151000C27009E0054B9A6106E0002902D1024B1A62C9
S3151000C28001E0014B9A63704700100040002805D169
S3151000C290064A117A80230B43137205E003492822BC
S3151000C2A0885C802303438B547047C04600100040BF
S3151000C2B0002805D1064A117A7F230B40137205E038
S3151000C2C003492822885C7F2303408B547047C0465D
S3151000C2D00010004070B504000420394B98472378AD
S3151000C2E0002B02D1237B002B65D03649CA68202348
S3151000C2F01343CB60227E8B690320024012012D303E
S3151000C300834313438B612378002B26D06378012156
S3151000C310002B03D0023B5D425D41A901A278520079
S3151000C32002252A40E3789B000A352B401A43150054
S3151000C3300D432379002B01D020231D43224BA268E5
S3151000C3401A601D721F49C4225200885C01230343E0
S3151000C3508B5400201D4B984700E00025237B002BB3
S3151000C36029D0637B002B05D0012B05D0022B04D1DD
S3151000C370402502E0012500E00025A37B5B00022199
S3151000C3801940E27B92000C2313400B431D43237C80
S3151000C390002B01D020231D4362690B4B1A62282201
S3151000C3A09D5408496132FF32885C022303438B5443
S3151000C3B00120064B984706491E20064B984770BD2C
S3151000C3C0ADD2001000B00040001000408DC2001029
S3151000C3D0FDC1001015D70010002802D1024B1960BC
S3151000C3E001E0024B196070478C7A0110907A0110A7
S3151000C3F070B5164B1D68298F89B2CB0707D4012358
S3151000C4000124180022009A40114214D001E00122A2
S3151000C410002092B22A8746230C4AD35A0341DB07DF
S3151000C4200CD54423D35A0341DB0707D580001018D7
S3151000C4304368984702E00133102BE2D180210904AA
S3151000C440C0235B00024AD15070BDC04654970110FC
S3151000C45000E100E0F8B5184B9B6C1E8FB6B23700A2
S3151000C4600024760B7603144D002E01D0134B9847FB
S3151000C47022000123A3401F4213D09BB2A96C0B8745
S3151000C4808E23EB5A2341DB070BD58C230A49CB5A53
S3151000C4902341DB0705D5123292008A185368984754
S3151000C4A002E00134102CDFD180214904C0235B0047
S3151000C4B0034AD150F8BDC0465497011051BC010033
S3151000C4C000E100E010B590231B4AD258138F9BB29F
S3151000C4D0D90414D499040AD459040CD4DB0BDB0305
S3151000C4E09BB2002B20D080231B020F210AE0802351
S3151000C4F09B010D2106E08023DB010E2102E0802343
S3151000C5005B010C219BB21387D6230B4AD35A0B41DE
S3151000C510DB0709D5D423D35A0B41DB0704D52431C5
S3151000C520890051184B68984780218904C0235B0005
S3151000C530024AD15010BDC0465497011000E100E0E8
S3151000C54000230370012242708370C3707047C04687
S3151000C55070B51723012800D8C8E0072809D8644DFC
S3151000C5606A6C103B03409B0007249C40A2436A64FC
S3151000C57029E00F2809D85E4DAA6C072303409B00BB
S3151000C58007249C40A243AA641DE0172809D8584DD9
S3151000C590EA6C072303409B0007249C40A243EA64ED
S3151000C5A011E003002C3B032B0DD8524D8224E400DE
S3151000C5B02A5D120701269E40120F2B5DB2430F26ED
S3151000C5C0B34313432B5503001D3B022B29D84B783D
S3151000C5D0012B08D1474D2B7D1F24241A0122A2407E
S3151000C5E093432B7508E0434C257D1F22121A012315
S3151000C5F093402B43DBB22375CA780023002A75D0EB
S3151000C6003C490C881F22101A8000013383402343B3
S3151000C6109BB20B80384A117802230B431370002308
S3151000C62064E00A78002A40D10F2808D801238340F5
S3151000C6309BB2324A938200231F2857D812E01F2834
S3151000C64007D80F220240012393409BB22C4A9382B3
S3151000C65008E00F2318400E3B83409BB2294A938271
S3151000C660002343E04B78012B0CD0002B02D0022B79
S3151000C67010D03AE01E490A6D0123834013430B651F
S3151000C680002333E01A490B6D0122824093430B6558
S3151000C69000232BE0164B596D012282401143596538
S3151000C6A0196D91431965002320E00023012A1DD13D
S3151000C6B00F2806D8013383409BB2104A13820023F9
S3151000C6C014E01F2808D80F2318400E3B83409BB256
S3151000C6D00B4A1382002309E00F2318400E3B8340B8
S3151000C6E09BB2084A1382002300E01723180070BD7E
S3151000C6F000B0004000F0004000E0004000000140A3
S3151000C70000100140003001400F2806D80F4B198841
S3151000C710012383401800084014E01F2809D80C4B49
S3151000C72019880F2303401A0001239340180008406C
S3151000C73008E0084B19880F2303401A000123934081
S3151000C74018000840431E9841C0B2704700000140CF
S3151000C75000100140003001400F2806D80F4B998871
S3151000C760012383401800084014E01F2809D80C4BF9
S3151000C77099880F2303401A0001239340180008409C
S3151000C78008E0084B99880F2303401A0001239340B1
S3151000C79018000840431E9841C0B27047000001407F
S3151000C7A0001001400030014010B50F2810D80029A4
S3151000C7B007D01D4A9188012383400B439BB2938077
S3151000C7C031E019498B880122824093438B802AE0FD
S3151000C7D01F2814D8002909D014498C880F2210401C
S3151000C7E00123834023439BB28B801CE00F498B8827
S3151000C7F00F2210400E3A824093438B8013E000299B
S3151000C80009D00B498C880F22104001238340234303
S3151000C8109BB28B8007E006498B880F2210400E3A98
S3151000C820824093438B8010BD0000014000100140F0
S3151000C8300030014070B50D0AFF231940072833D880
S3151000C8404E4A546CF83B03409B0007269E40B44367
S3151000C8505464546C0E009E403300234353640129E4
S3151000C86000D08AE003280FD81100D02252008C582D
S3151000C87003231840C0003C3383409C438C508B5894
S3151000C88085401D438D5078E03C49D22252008C5889
S3151000C89003231840C0003C3383409C438C508B5874
S3151000C8A085401D438D5068E00F2832D8334A946C6A
S3151000C8B0072303409B0007269E40B4439464946C60
S3151000C8C00E009E40330023439364012955D10B2853
S3151000C8D00FD81100D42252008C5803231840C000E0
S3151000C8E03C3383409C438C508B5885401D438D5060
S3151000C8F043E02249D62252008C5803231840C00028
S3151000C9003C3383409C438C508B5885401D438D503F
S3151000C91033E0172831D8194AD46C072303409B00FB
S3151000C92007269E40B443D464D46C0E009E40330058
S3151000C9302343D364012920D113280FD81100D822FC
S3151000C94052008C5803231840C0003C3383409C434C
S3151000C9508C508B5885401D438D500EE0074ADA23C4
S3151000C9605B00D15803242040C0003C348440A143CE
S3151000C970D150D15885400D43D55070BD00B0004000
S3151000C980F0B500230F2804D91F2484425B411D3CB7
S3151000C990E31A012A16D0002A04D0022A22D0032A2A
S3151000C9A030D03EE0294EDC00E218D20097590F2510
S3151000C9B005400122AA4092B2BA85E418E400A459AF
S3151000C9C0A2862EE0214EDC00E218D20097590F25E0
S3151000C9D005400122AA4092B2BA85E418E400A4598F
S3151000C9E022861EE0194EDC00E218D20097590F2558
S3151000C9F005400122AA4092B23A85E418E400A459EF
S3151000CA0022860EE0114EDC00E218D20097590F254F
S3151000CA1005400122AA4092B23A85E418E400A459CE
S3151000CA20A2860F221040094CDD00EA185200121897
S3151000CA309200A2185160EA18D200A21844320121BD
S3151000CA40814013880B431380F0BDC04654970110E4
S3151000CA5030B50F2805D880221204124B1A60002216
S3151000CA600CE01F2805D8802252040E4B1A600122B2
S3151000CA7004E0802292040B4B1A6002220F23184006
S3151000CA8001218140084CD500AB18DB00E318463372
S3151000CA90188808431880AA18D200135989B2198425
S3151000CAA030BDC04600E100E05497011030B50023B8
S3151000CAB00F2804D91F2282425B411D3AD31A0F2236
S3151000CAC0104001218140074CDD00EA18D200A2185F
S3151000CAD04632108888431080EB18DB001B5989B248
S3151000CAE0998430BD5497011010B5114A1000D830F2
S3151000CAF0002107E002C39342FCD1518011804832D5
S3151000CB00824202D01300403BF4E70A4B0A4A1A60ED
S3151000CB100A4A9A640A49902299500A4927200A4CCF
S3151000CB20A0470A492820A04709492920A04710BD37
S3151000CB309897011054970110000001400010014011
S3151000CB4000300140F1C3001015D7001055C4001075
S3151000CB50C5C4001001280DD0002802D002281CD010
S3151000CB602EE0184A90690C2303439361164A174B1B
S3151000CB701A601AE0134B9869082202439A619A695F
S3151000CB80042082439A61124A5368802000030343AB
S3151000CB905360104A0D4B1A6007E00A4A93690C203D
S3151000CBA083439361084A094B1A60064B9A6903201E
S3151000CBB082439A619A69014011439961002000E00D
S3151000CBC01720704700B0004080BA8C012C980110D5
S3151000CBD000F0004080841E00014B18687047C04664
S3151000CBE02C98011000B5352800D9A2E18000D24B4F
S3151000CBF01B589F46D14AD16802230B43D3600020AD
S3151000CC0098E1CE4AD16804230B43D360002091E10A
S3151000CC10CA4AD16808230B43D36000208AE1C74A69
S3151000CC20D16810230B43D360002083E1C34AD16837
S3151000CC3020230B43D36000207CE1C04AD1688023B7
S3151000CC400B43D360002075E1BC4AD36880214900AC
S3151000CC500B43D36000206DE1B84AD36880210901E7
S3151000CC600B43D360002065E1B44AD36880214901A3
S3151000CC700B43D36000205DE1B04AD368802189015F
S3151000CC800B43D360002055E1AC4AD3688021C9011B
S3151000CC900B43D36000204DE1A84AD36880210902D6
S3151000CCA00B43D360002045E1A44AD3688021490292
S3151000CCB00B43D36000203DE1A04AD368802189024E
S3151000CCC00B43D360002035E19C4AD3688021C9020A
S3151000CCD00B43D36000202DE1984AD36880210903C5
S3151000CCE00B43D360002025E1944AD3688021490381
S3151000CCF00B43D36000201DE1904AD368802189033D
S3151000CD000B43D360002015E18C4AD3688021C903F8
S3151000CD100B43D36000200DE1884AD36880210904B3
S3151000CD200B43D360002005E1844AD368802149046F
S3151000CD300B43D3600020FDE0804AD368802189042C
S3151000CD400B43D3600020F5E07C4AD3688021C904E8
S3151000CD500B43D3600020EDE0784AD36880210905A3
S3151000CD600B43D3600020E5E0744AD368802149055F
S3151000CD700B43D3600020DDE0704AD368802189051B
S3151000CD800B43D3600020D5E06C4AD3688021C905D7
S3151000CD900B43D3600020CDE0684A116901230B4391
S3151000CDA013610020C6E0654A116902230B43136123
S3151000CDB00020BFE0614A116904230B431361002070
S3151000CDC0B8E05E4A116908230B4313610020B1E0F5
S3151000CDD05A4A116910230B4313610020AAE0574ADF
S3151000CDE0116920230B4313610020A3E0534A1169F4
S3151000CDF040230B43136100209CE0504A11698023A5
S3151000CE000B431361002095E04C4A136980214900B9
S3151000CE100B43136100208DE0484A13698021890075
S3151000CE200B431361002085E0444A13698021C90031
S3151000CE300B43136100207DE0404A136980210901EC
S3151000CE400B431361002075E03C4A136980214901A8
S3151000CE500B43136100206DE0384A13698021890164
S3151000CE600B431361002065E0344A13698021C90120
S3151000CE700B43136100205DE0304A136980210902DB
S3151000CE800B431361002055E02C4A13698021490297
S3151000CE900B43136100204DE0284A13698021890253
S3151000CEA00B431361002045E0244A13698021C9020F
S3151000CEB00B43136100203DE0204A136980210903CA
S3151000CEC00B431361002035E01C4A13698021490386
S3151000CED00B43136100202DE0184A13698021890342
S3151000CEE00B431361002025E0144A13698021C903FE
S3151000CEF00B43136100201DE0104A136980210904B9
S3151000CF000B431361002015E00C4A117D01230B43DE
S3151000CF10137500200EE0094A117D02230B43137589
S3151000CF20002007E0054A117D04230B4313750020EA
S3151000CF3000E0172000BDC046386C011000B000405C
S3151000CF4000B5352800D97DE18000BF4B1B589F46A0
S3151000CF50BE4AD36802218B43D360002073E1BB4ADB
S3151000CF60D36804218B43D36000206CE1B74AD368A1
S3151000CF7008218B43D360002065E1B44AD3681021A1
S3151000CF808B43D36000205EE1B04AD36820218B43E7
S3151000CF90D360002057E1AD4AD36880218B43D3601C
S3151000CFA0002050E1A94AD168A94B0B40D36000205C
S3151000CFB049E1A64AD168A74B0B40D360002042E155
S3151000CFC0A24AD168A44B0B40D36000203BE19F4A94
S3151000CFD0D168A24B0B40D360002034E19B4AD16844
S3151000CFE09F4B0B40D36000202DE1984AD1689D4B92
S3151000CFF00B40D360002026E1944AD1689A4B0B402F
S3151000D000D36000201FE1914AD168984B0B40D36042
S3151000D010002018E18D4AD168954B0B40D360002053
S3151000D02011E18A4AD168934B0B40D36000200AE184
S3151000D030864AD168904B0B40D360002003E1834AA7
S3151000D040D1688E4B0B40D3600020FCE07F4AD1683C
S3151000D0508B4B0B40D3600020F5E07C4AD168894B9E
S3151000D0600B40D3600020EEE0784AD168864B0B4027
S3151000D070D3600020E7E0754AD168844B0B40D3603B
S3151000D0800020E0E0714AD168814B0B40D36000204C
S3151000D090D9E06E4AD1687F4B0B40D3600020D2E0B6
S3151000D0A06A4AD1687C4B0B40D3600020CBE0674ABC
S3151000D0B0D1687A4B0B40D3600020C4E0634AD16834
S3151000D0C0774B0B40D3600020BDE0604A1369012105
S3151000D0D08B4313610020B6E05C4A136902218B432F
S3151000D0E013610020AFE0594A136904218B43136181
S3151000D0F00020A8E0554A136908218B4313610020CC
S3151000D100A1E0524A136910218B43136100209AE063
S3151000D1104E4A136920218B431361002093E04B4A3A
S3151000D120136940218B43136100208CE0474A136931
S3151000D13080218B431361002085E0444A1169444BDA
S3151000D1400B40136100207EE0404A1169554B0B409D
S3151000D1501361002077E03D4A1169534B0B40136170
S3151000D160002070E0394A11693A4B0B4013610020D8
S3151000D17069E0364A1169384B0B401361002062E0B2
S3151000D180324A1169354B0B40136100205BE02F4A80
S3151000D1901169334B0B401361002054E02B4A11697F
S3151000D1A0304B0B40136100204DE0284A11692E4B7D
S3151000D1B00B401361002046E0244A11692B4B0B40AB
S3151000D1C0136100203FE0214A1169294B0B4013617E
S3151000D1D0002038E01D4A1169264B0B4013610020D0
S3151000D1E031E01A4A1169244B0B40136100202AE0E2
S3151000D1F0164A1169214B0B401361002023E0134A94
S3151000D20011691F4B0B40136100201CE00F4A116976
S3151000D2101C4B0B401361002015E00C4A137D0121B5
S3151000D2208B43137500200EE0084A137D02218B43B1
S3151000D2301375002007E0054A137D04218B431375EF
S3151000D240002000E0172000BD106D011000B0004056
S3151000D250FFFEFFFFFFF7FFFFFFEFFFFFFFDFFFFF01
S3151000D260FFBFFFFFFF7FFFFFFFFFFEFFFFFFFDFF7B
S3151000D270FFFFFBFFFFFFF7FFFFFFEFFFFFFFDFFFE4
S3151000D280FFFFBFFFFFFF7FFFFFFFFFFEFFFFFFFD5B
S3151000D290FFFFFFFBFFFFFFF7FFFFFFEFFFFFFFDFC4
S3151000D2A0FFFFFFBFFFFDFFFFFFFBFFFF00B543289A
S3151000D2B000D923E28000E04B1B589F46DF4B59688C
S3151000D2C002229143596059680A435A60002016E2B7
S3151000D2D0DA4B596804229143596059680A435A60D7
S3151000D2E000200CE2D54B59680822914359605968C1
S3151000D2F00A435A60002002E2D04B5968102291432B
S3151000D300596059680A435A600020F8E1CB4B5968B6
S3151000D31020229143596059680A435A600020EEE171
S3151000D320C64B596840229143596059680A435A605E
S3151000D3300020E4E1C14B5968802291435960596835
S3151000D3400A435A600020DAE1BC4B5968BC4A0A40CD
S3151000D3505A605A68802149000A435A600020CEE17B
S3151000D360B64B5968B74A0A405A605A6880218900F4
S3151000D3700A435A600020C2E1B04B5968B24A0A40CB
S3151000D3805A605A688021C9000A435A600020B6E1E3
S3151000D390AA4B5968AD4A0A405A605A688021090159
S3151000D3A00A435A600020AAE1A44B5968A84A0A40C9
S3151000D3B05A605A68802149010A435A6000209EE14A
S3151000D3C09E4B5968A34A0A405A605A6880218901BF
S3151000D3D00A435A60002092E1984B59689E4A0A40C7
S3151000D3E05A605A688021C9010A435A60002086E1B2
S3151000D3F0924B5968994A0A405A605A688021090224
S3151000D4000A435A6000207AE18C4B5968944A0A40C4
S3151000D4105A605A68802149020A435A6000206EE118
S3151000D420864B59688F4A0A405A605A688021890289
S3151000D4300A435A60002062E1804B59688A4A0A40C2
S3151000D4405A605A688021C9020A435A60002056E180
S3151000D4507A4B5968854A0A405A605A6880210903EE
S3151000D4600A435A6000204AE1744B5968804A0A40C0
S3151000D4705A605A68802149030A435A6000203EE1E7
S3151000D4806E4B59687B4A0A405A605A688021890354
S3151000D4900A435A60002032E1684B5968764A0A40BE
S3151000D4A05A605A688021C9030A435A60002026E14F
S3151000D4B0624B5968714A0A405A605A6880210904B9
S3151000D4C00A435A6000201AE15C4B59686C4A0A40BC
S3151000D4D05A605A68802149040A435A6000200EE1B6
S3151000D4E0564B5968674A0A405A605A68802189041F
S3151000D4F00A435A60002002E1504B5968624A0A40BA
