S01F00004932435F515549434B5F53544152545F4D4153544552332E7372656320
S3151000800010B5184B184A9A4203D0184B154A9A4283
S3151000801004D3174B174A9A4210D31EE0164B134A35
S315100080200332D21A92080132920000230D480E49EB
S31510008030CC58C45004339342FAD1EAE70F4B0C499B
S315100080400331C91A8908013189000023094C00201F
S315100080501A19106004338B42FAD1094B9847094B11
S31510008060984710BDB8350110B835011064360110A7
S31510008070645E011064360110BC35011068360110BB
S31510008080D11201101DCC001010B5064C2378002B10
S3151000809007D1054B002B02D0044800E000BF012396
S315100080A0237010BD6436011000000000B8350110B1
S315100080B0084B10B5002B03D00749084800E000BF55
S315100080C007480368002B00D110BD064B002BFBD0D0
S315100080D09847F9E70000000068360110B83501101E
S315100080E0B83501100000000070B5094B984705001F
S315100080F0084CFA218900A047074B18600749280049
S31510008100A047074B18600522064B1A6070BDC04683
S3151000811039C30010D9F50010BC35011040420F00CC
S31510008120B835011010E000E030B5084B1C68084A5D
S3151000813000258021490206E0002C04D05460956089
S3151000814013680B42FCD00138F6D230BDBC35011095
S3151000815010E000E010B50D4B1B7D002B07D001225F
S315100081600A4B1A730A4B1B68002B00D0984734230E
S31510008170064AD35C002B07D001212C23D154054B82
S315100081801B68002B00D0984710BDC0460010004059
S315100081908036011084360110012303700373022206
S315100081A042704273837083730022C270C27303716C
S315100081B003748260426102767047C046002805D17A
S315100081C0064A117A80230B43137205E003492822CD
S315100081D0885C802303438B547047C04600100040D0
S315100081E070B504000420394B98472378002B02D130
S315100081F0237B002B65D03649CA6820231343CB60F6
S31510008200227E8B690320024012012D3083431343D3
S315100082108B612378002B26D063780121002B03D0A5
S31510008220023B5D425D41A901A278520002252A4017
S31510008230E3789B000A352B401A4315000D4323792A
S31510008240002B01D020231D43224BA2681A601D72F9
S315100082501F49C4225200885C012303438B5400201B
S315100082601D4B984700E00025237B002B29D0637B0C
S31510008270002B05D0012B05D0022B04D1402502E09E
S31510008280012500E00025A37B5B0002211940E27B5B
S3151000829092000C2313400B431D43237C002B01D06B
S315100082A020231D4362690B4B1A6228229D540849EC
S315100082B06132FF32885C022303438B540120064B44
S315100082C0984706491E20064B984770BDA1C6001058
S315100082D000B0004000100040BD8100105581001014
S315100082E009CB0010F0B5474680B41700984680B207
S315100082F01D4B188001225A805B6819701B4B188021
S315100083005F801B4C184E1B4D03E0013CA4B2002CA1
S315100083101FD031001848A8470028F6D1144E134D27
S31510008320164C03E0013EB6B2002E15D029001248B5
S31510008330A0470028F6D1002F11D000230B494A6818
S31510008340D25C4046C2540133DAB29742F7D80020C5
S3151000835006E00120404203E00120404200E00020F8
S3151000836004BC9046F0BDC046684C0110584C011034
S31510008370E903000091C20010604C011039C20010D0
S31510008380F8B5124C2080501CC0B260806068017035
S31510008390002A0ED00020411C185C6568685408003D
S315100083A0C9B28A42F7D804E0013CA4B2002C04D129
S315100083B009E0074C054E074D074F31002800B84716
S315100083C00028F1D101E001204042F8BD684C0110AF
S315100083D0E9030000604C01105DC2001010B582B0B8
S315100083E02423254AD35C002B19D0002803D002225F
S315100083F06B46DA7102E000226B46DA711E4B1A6880
S31510008400517C5B6818786B46073301221B4CA047DA
S31510008410002827D16B46DA79174B5A742AE0164B87
S315100084209B7A002B21D0002808D0134B5B7C0020B0
S31510008430002B1FD101226B46DA7102E000226B4637
S31510008440DA710D4B1A68517C5B6818786B460733E6
S3151000845001220A4CA04700280AD16B46DA79064B4E
S315100084605A7407E00120404204E00120404201E036
S315100084700120404202B010BDC035011081830010AA
S3151000848010B582B0794B9B7A002B00D1CEE06B46AB
S31510008490073300221A70754A1168497C52681078A1
S315100084A00122734CA047002800D0C2E06F4B1A6817
S315100084B051795B6818786B46073301226C4CA047DC
S315100084C0002800D0B8E0694B1A6811795B681878F3
S315100084D06B4607330122664CA047002800D0AEE059
S315100084E02423624AD35C002B4FD06B4607330C22F1
S315100084F01A705E4A116809795268107801225C4C2C
S31510008500A047002800D09DE032305A4B9847C02231
S315100085106B46DA71554B9B7ADB0702D520326B46D8
S31510008520DA71524B1A6811795B6818786B46073303
S3151000853001224F4CA047002800D086E04B4B5B7CB5
S31510008540002B03D002226B46DA7102E000226B4642
S31510008550DA71464B1A68517C5B6818786B4607339C
S315100085600122434CA047002872D16B4607330022E4
S315100085701A703E4A116849795268107801223C4CAB
S31510008580A047431E984140426DE06B4607330422D4
S315100085901A70364A11680979526810780122344CDB
S315100085A0A047002857D1314B9B7C002B03D12F4B72
S315100085B09B7ADB0703D440226B46DA7102E0602215
S315100085C06B46DA71294B1A6811795B6818786B4615
S315100085D007330122264CA04700283FD13230254BC5
S315100085E09847224B5B7C002B03D001226B46DA7135
S315100085F002E000226B46DA711C4B1A68517C5B68EC
S3151000860018786B4607330122194CA047002828D149
S31510008610164A1300103311684979526810780122EE
S31510008620134CA047431E984140421CE00120404293
S3151000863019E00120404216E00120404213E00120DB
S31510008640404210E0012040420DE0012040420AE085
S315100086500120404207E00120404204E00120404250
S3151000866001E00120404202B010BDC046C0350110E5
S3151000867081830010298100100E4B1B7A012B09D023
S31510008680002B04D0022B09D0032B0BD00EE0FA23BB
S3151000869003800DE0FA235B00038009E0FA239B00B8
S315100086A0038005E0FA23DB00038001E0002303804A
S315100086B000207047C035011010B582B0244B9B7A4C
S315100086C0002B3BD0FA235B00984210D002D8FA2830
S315100086D009D036E0FA239B0098420CD0FA23DB002F
S315100086E098420CD02DE000226B46DA710AE008227F
S315100086F06B46DA7106E010226B46DA7102E0182238
S315100087006B46DA716B4607331B78114A127ADB080F
S3151000871000209A421AD00E4B1A6891795B68187825
S315100087206B46073301220B4CA04700280CD16B4631
S3151000873007331B78DB08064A137207E00120404214
S3151000874004E00120404201E00120404202B010BD89
S31510008750C035011081830010114B5B7A012B09D0B3
S31510008760002B04D0022B08D0032B09D014E00223CF
S31510008770037007E00423037004E00823037001E08C
S3151000878010230370064BDA7C0023002A06D00378E8
S315100087905B000370002301E001235B421800704761
S315100087A0C035011010B582B0214B9B7A002B35D005
S315100087B004280CD002D8022805D032E008280AD0A6
S315100087C010280CD02DE000226B46DA710AE0082240
S315100087D06B46DA7106E010226B46DA7102E0182257
S315100087E06B46DA716B4607331B78114A527ADB08EF
S315100087F000209A421AD00E4B1A68D1795B68187805
S315100088006B46073301220B4CA04700280CD16B4650
S3151000881007331B78DB08064A537207E001204042F3
S3151000882004E00120404201E00120404202B010BDA8
S31510008830C03501108183001010B582B02B4B9B7A86
S31510008840002B49D0BB2803D901226B46DA711AE0F6
S31510008850612803D902226B46DA7114E0292803D95C
S3151000886003226B46DA710EE0132803D904226B46F5
S31510008870DA7108E0092803D905226B46DA7102E09D
S3151000888006226B46DA71194BDA7A6B4607331B7878
S3151000889000209A4228D0154B1A6891785B68187890
S315100088A06B4607330122124CA047002817D16B469E
S315100088B00733197840220A431A700C4A1168097A4C
S315100088C05268107801220A4CA04700280AD16B463C
S315100088D0DA79064BDA7207E00120404204E0012003
S315100088E0404201E00120404202B010BDC0350110E7
S315100088F0818300102423054AD35C002B03D1D3892E
S315100089000380002001E0012040427047C03501106D
S3151000891030B583B0011E20D0174BD88981421FD89D
S31510008920642920D86B46DC1D144B984701382070FB
S31510008930114B24221968895C5B6818782300233A46
S315100089400F4CA047041E11D10B4DE8896B46D979FF
S3151000895001310C4B984728850AE00124644207E050
S315100089600124644204E00124644201E001246442CB
S31510008970200003B030BDC046C0350110D9F5001037
S3151000898081830010EDF6001070B52423164AD35CCF
S315100089900024002B26D1947A002C15D0012398435D
S315100089A0157C04401474041B631E9C416442002809
S315100089B00DD1137D002B12D10C4B984712E00A4BA8
S315100089C01D74012464420DE0012464420AE0012072
S315100089D0064B9847064B9847002803D0EFE701202F
S315100089E0024B9847200070BDC0350110DD83001082
S315100089F08184001030B583B00400594B9B7C8342B0
S31510008A0000D197E0002842D0554B1A6811795B685F
S31510008A1018786B4607330122524DA847002800D01C
S31510008A208AE06B4607331A7820218A431A704C4A1B
S31510008A30116809795268107801224B4DA847002811
S31510008A407DD10330494B984702226B46DA712223B7
S31510008A50434AD35C002B02D082226B46DA71232361
S31510008A603F4AD35C002B05D06B46DA1DD9793023EB
S31510008A700B4313703A4B1A68D17D5B6818786B46B6
S31510008A8007330122384DA84700284FD05AE0344BFF
S31510008A901A6811795B6818786B4607330122314DD5
S31510008AA0A847002851D12E4B9B7ADB0706D56B467B
S31510008AB0DA1DD97920230B43137005E06B46DA1DB6
S31510008AC0DB7920218B431370254B1A6811795B686B
S31510008AD018786B4607330122234DA847002837D153
S31510008AE00330224B984722231D4AD35C002B03D018
S31510008AF080226B46DA7102E000226B46DA7123237C
S31510008B00174AD35C002B05D06B46DA1DD979302372
S31510008B100B431370124B1A68D17D5B6818786B463D
S31510008B2007330122104DA847002814D10C4B9C7412
S31510008B30002012E0002010E0012040420DE001204C
S31510008B4040420AE00120404207E00120404204E092
S31510008B500120404201E00120404203B030BDC04632
S31510008B60C0350110E58200108183001029810010A4
S31510008B7030B583B0040023231C4AD35C83422ED025
S31510008B80002803D030226B46DA7102E000226B46D1
S31510008B90DA71164B9B7C002B05D06B46DA1DD97902
S31510008BA002230B4313702223104AD35C002B06D0EA
S31510008BB06B46DA1DDB79802149420B4313700B4B50
S31510008BC01A68D17D5B6818786B4607330122084D09
S31510008BD0A847002805D12323044AD45403E00020D3
S31510008BE001E00120404203B030BDC046C03501103F
S31510008BF08183001010B582B0041E282C78D8002866
S31510008C0015D10020444B984701AB00221A70073249
S31510008C105A70424A1168497D526810780222404CB7
S31510008C20A047041E67D100223C4B1A7571E0012043
S31510008C30394B9847012C03D1022201AB1A701AE066
S31510008C40022C03D1032201AB1A7014E0052C03D8B1
S31510008C50042201AB1A700EE00A2C03D8052201ABD0
S31510008C601A7008E0142C03D8062201AB1A7002E021
S31510008C70072201AB1A70294B1A68517A5B6818786B
S31510008C8001AB0122264CA047002837D1234B1A6886
S31510008C90117A5B68187801AB0122224CA047002894
S31510008CA02FD101AB197808220A431A701B4A116892
S31510008CB0097A526810780122194CA047002823D14E
S31510008CC001AB20221A70154A1168497D5268107836
S31510008CD00122134CA047041E19D1104B08229A7278
S31510008CE000221A7301321A7500200F4B984710E0B4
S31510008CF0012464420DE0012464420AE00124644226
S31510008D0007E00124644204E00124644201E00124E6
S31510008D106442200002B010BD718B0010C0350110E6
S31510008D2081830010E58200108989001030B583B068
S31510008D3004002C4B9B7A002B48D02423294AD35C61
S31510008D40002B46D1137D002B0AD0431E9BB2272B36
S31510008D5003D8254B9847002440E00020224B984723
S31510008D600421032C07D9211CFA239B009C4201D90C
S31510008D701E4B198889B26B46DC1DFA2080001C4BED
S31510008D80984701382070174B1A6851785B68187825
S31510008D9023000122174CA047041E1DD1114D6B460E
S31510008DA0D9790131FA208000114B9847E8812B8D33
S31510008DB0181C9BB2642B00D9642080B20E4B9847C6
S31510008DC0084BD88940080D4B984707E001246442A8
S31510008DD004E00124644201E001246442200003B04F
S31510008DE030BDC046C0350110F58B001008250110A6
S31510008DF0EDF60010818300101189001039880010DB
S31510008E0030B583B004007023034203D001226B46B1
S31510008E10DA7115E0002803D000226B46DA710FE0F4
S31510008E206B46073340221A706A4A1168497D5268A8
S31510008E3010780122684DA847002800D1B2E00BE057
S31510008E40644B1A68517D5B6818786B4607330122AC
S31510008E50614DA847002805D000225E4B9A72012565
S31510008E606D42B4E06B46DA1DDB7940218B435949DC
S31510008E700B7300231370630602D404226B46DA7157
S31510008E80A30605D46B46DA1DD97902230B4313705A
S31510008E90E30605D46B46DA1DD97901230B4313700B
S31510008EA0230705D46B46DA1DD97938230B43137083
S31510008EB0484B1A68917D5B6818786B460733012218
S31510008EC0454DA847002805D00022424B9A7201252D
S31510008ED06D427CE0082322009A436BD000203F4B62
S31510008EE098473C4B1A6811795B6818786B460633BD
S31510008EF001223B4DA847002848D1E30709D5112286
S31510008F006B46DA716B469A1D997920230B431370C1
S31510008F1008E010226B46DA716B469A1D9B79202168
S31510008F208B43137024232B4AD35C002B07D06B463C
S31510008F309A1D9B79802149420B43137005E06B46BD
S31510008F409A1D9B797F210B401370224B262219689C
S31510008F50895C5B6818786B460733253A1E4DA8471F
S31510008F60002816D11B4B1A6811795B6818786B4666
S31510008F7006330122184DA847051E0DD1154B9C72BC
S31510008F8000221A753220174B984720E001256D42B2
S31510008F901DE001256D421AE001256D4217E00125FD
S31510008FA06D4214E06B4607331B7840229343094AFF
S31510008FB0137362E7074B1A6811795B6818786B466A
S31510008FC006330122064DA8470028A2D0E7E728005D
S31510008FD003B030BDC035011081830010718B0010B5
S31510008FE0E58200102981001070B584B0060002AB2E
S31510008FF080221A70BC4A1168497D52681078012285
S31510009000BA4CA047002800D050E16430B84B9847BE
S3151000901002AB00221A70B44A1168497D5268107862
S315100090200122B24CA047002800D042E1AE4A0023EC
S31510009030D37402AB402119701168097A52681078FE
S315100090400122AA4CA047002800D035E1A64CFF23E8
S31510009050A37223726372E37201225242E281237475
S31510009060A3742285FE3B237300252133E554013377
S31510009070E55465752575200016300D3200219D4B7F
S3151000908098472423E5540133E554E584FA20C000BB
S31510009090994B9847002800D011E10230974B98471A
S315100090A0002800D00EE12A30954B9847002800D0B2
S315100090B00BE13230934B9847002800D008E1924BD1
S315100090C09847002800D006E1002E04D002228F49CE
S315100090D01D308F4B984701208E4B98470C248E4D90
S315100090E001AB012200212000A847002803D16B46BE
S315100090F01B79482B04D00134E4B2102CF0D101E0D6
S315100091000F2C05D98548864CA0478648A047C4E051
S315100091102A23754AD45401AB10221A700F3A0A2129
S315100091202000724CA047002800D0B6E00130704BEA
S31510009130984701AB1F221A700B326B49885C293A8B
S315100091400A216A4CA047002800D0A6E00130684BDF
S3151000915098472A23644AD05C01AB032210216E4C37
S31510009160A047002800D098E05F4A01AB19788031FB
S31510009170918559788031D185997880311186102161
S3151000918019701A31505C01222039584CA04700281A
S3151000919000D082E00130564B984700205D4B98472F
S315100091A001AB40221A70504A1168897E52681078B5
S315100091B001224E4CA04700286FD101AB4A4A2A2102
S315100091C0515C8038014319701168897F5268107894
S315100091D00122464CA04700285FD101AB02221A702B
S315100091E0414A1168C97F5268107801223F4CA04746
S315100091F0002852D101AB88221A703B4A20211068F0
S31510009200415C526810780122384CA047002844D19E
S3151000921001AB354A2A21515C197021211068415C35
S31510009220526810780122314CA047002835D101AB85
S315100092300A221A702C4A22211068415C5268107852
S3151000924001222A4CA047002827D101AB81221A708F
S31510009250254A23211068415C526810780122234C5C
S31510009260A047002819D101AB11221A701E4A2621D7
S315100092701068415C5268107801221C4CA0470028E7
S315100092800BD101AB03221A70174A27211068415CD3
S31510009290526810780122154CA0470A20224B984795
S315100092A0041E1BD10020214B984719E0012464426B
S315100092B016E00124644213E00124644210E0012404
S315100092C064420DE0012464420AE00124644207E08E
S315100092D00124644204E00124644201E00124644252
S315100092E0200004B070BDC046C03501108183001047
S315100092F02981001061130110B9860010A58700108E
S31510009300398800102D8D00108989001059CB001056
S3151000931039BF0010F5890010E58200107027011082
S31510009320C9150110E025011011890010018E0010D9
S3151000933070B582B00C00151E25D0194B9B7A002BE8
S3151000934024D001AB020A1A70C0B25870144B5B6875
S3151000935040185A8990421CDC114A1268D17E18783E
S3151000936001AB02220F4EB047002815D1E2B20C4BCA
S315100093701968097E5B6818782B000A4CA047431EB3
S31510009380984140420AE00120404207E00120404255
S3151000939004E00120404201E00120404202B070BDCD
S315100093A0C035011081830010F0B5474680B482B0F5
S315100093B00400430700D19CE0C823DB00994200D982
S315100093C09AE00800584B98475849594B9847061C3D
S315100093D06B46DD1C2800574B98472B78042B19D069
S315100093E0DAB2042A02D8022B05D088E0082B20D046
S315100093F0102B2DD083E0504B98468D21C905301C7B
S3151000940098474E4FB84785B24D49301CC047B847AC
S3151000941080B22BE0484B98468C21C905301C9847E2
S31510009420464FB84785B24749301CC047B84780B247
S315100094301CE0414B98468B21C905301C98473F4F7D
S31510009440B84785B24049301CC047B84780B20DE0D6
S31510009450394B98468A21C905301C9847374FB8476B
S3151000946085B23A49301CC047B84780B201AB2A0AC8
S315100094701A705D70020A9A70D870E30710D501AAA7
S315100094800221EA204000324B984700283AD16B4619
S315100094909A1D02212530FF302D4B9847002834D1D4
S315100094A0A30710D501AA0221EC204000284B9847AB
S315100094B000282DD16B469A1D02212930FF30244BEE
S315100094C09847002827D10020630729D501AA022131
S315100094D0DD30FF301E4B984700281FD16B469A1D72
S315100094E002212D30FF301A4B9847431E98414042B7
S315100094F016E00120404213E00120404210E0012016
S3151000950040420DE0012040420AE00120404207E0BF
S315100095100120404204E00120404201E00120404287
S3151000952002B004BC9046F0BD85030110000048430C
S3151000953079FA0010598700100DFE00100DFA001070
S31510009540000040460000C045000040450000C044F1
S315100095503193001000B583B0C30703D400226B46C5
S31510009560DA7102E030226B46DA71830705D56B4655
S31510009570DA1DD9790C230B431370430705D56B46B7
S31510009580DA1DD97903230B4313706B46DA1D0121BB
S31510009590A4204000014B984703B000BD3193001042
S315100095A000B583B00123002804D0031C042800D979
S315100095B00423DBB26A460732013B137001215020A7
S315100095C0FF30024B984703B000BDC04631930010E0
S315100095D000B583B00521074B984780B201AA030A4C
S315100095E0137050700221EF204000034B984703B0D0
S315100095F000BDC046D9F500103193001000B583B0F8
S315100096000521074B984780B201AA030A13705070C0
S315100096100221ED204000034B984703B000BDC04621
S31510009620D9F500103193001010B582B00C00FA2154
S315100096308900094B9847604301AA03161370031457
S31510009640537003129370D0700421AE204000034B68
S31510009650984702B010BDC046EDF6001031930010C9
S3151000966000B583B00521074B984780B201AA030ABB
S31510009670137050700221AD204000034B984703B081
S3151000968000BDC046D9F500103193001000B583B067
S315100096900521074B984780B201AA030A1370507030
S315100096A00221AC204000034B984703B000BDC046D2
S315100096B0D9F500103193001000B585B000280CD0F4
S315100096C009220D491C3101A80C4B984701AA092102
S315100096D09720C0000A4B98470BE00922064928310B
S315100096E001A8064B984701AA09219720C000044BF0
S315100096F0984705B000BDC046BC2901104F13011094
S315100097003193001000B583B0002809D001ABC022F8
S315100097101A7002325A7002329A700232DA7001E00E
S31510009720054B019301AA04210448054B9847054BA4
S31510009730984703B000BDC0468B8B8B8B980A0000F0
S31510009740319300108184001000B583B0002809D031
S3151000975001AB20221A7008325A7008329A700832F9
S31510009760DA7001E0054B019301AA04210448054B68
S315100097709847054B984703B000BDC046A3A3A3A3C3
S315100097809E0A00003193001081840010F0B585B058
S31510009790040001AD02232B70C8336B701933AB7004
S315100097A0DA3BEB702A00042168206A4B9847A32302
S315100097B02B704027274007D001ABC0225A700832C1
S315100097C09A70063ADA7004E001ABA3225A709A70C6
S315100097D0DA70C0256D00254007D001ABC4221A717E
S315100097E008325A71063A9A7104E001ABA3221A7133
S315100097F05A719A7101AAA323D371137253720A2153
S315100098005548544B98470326264003D0202201ABD7
S315100098101A7002E0D82201AB1A7001AA01214F4832
S315100098204C4B9847A30603D501204D4B984702E0B1
S3151000983000204B4B9847002D19D0E30509D501ABF5
S31510009840B2221A70273A5A702B329A701B3ADA7073
S3151000985008E001ABB0221A70303A5A7034329A705E
S31510009860243ADA7001AA04213E483A4B9847E30796
S3151000987023D501AAF823137001218B200001354B43
S315100098809847FA210720384B98470720374B9847B7
S315100098900120374B98476420364B9847FA204000F2
S315100098A0354B9847C8213548354B98472820354BB6
S315100098B098470A20344B984707E001AAD82313701B
S315100098C001218B200001234B9847A30703D5D922EA
S315100098D001AB1A7002E0D82201AB1A7001AA01215D
S315100098E02A481C4B9847630703D50120284B9847F5
S315100098F002E00020264B9847E30603D50120254BAE
S31510009900984702E00020234B984708232343224A16
S315100099105381224B9847002F03D100221E4B9A7376
S3151000992002E006221C4B9A73002D03D01A4A937B31
S31510009930063393731423234203D0174A937B1033B1
S315100099409373002E03D0144A937B04339373002031
S3151000995005B0F0BD31930010A70A0000B60A00004A
S31510009960B9960010A20A0000A99300105595001090
S31510009970A1950010D1950010FD95001009E3CA02BB
S3151000998029960010619600108D9600103D07000074
S315100099900597001049970010883601108184001031
S315100099A00020704700207047C078002800D0E220C1
S315100099B07047C0460020704710B50078002806D0C2
S315100099C00348044B98470448044B9847E22010BDBF
S315100099D070270110C9150110782B0110A914011058
S315100099E010B50400C078002808D00548054B9847E4
S315100099F0A27821880448054B9847E22010BDC0463E
S31510009A0070270110C91501108C2B0110A914011013
S31510009A10F8B50400194B9B2292009D1801270026C9
S31510009A2018001A00563A11882288914219D11A78CC
S31510009A30052A01D0082A01D1077012E0072A0FD88B
S31510009A4092000F498A5897461E700E4A1278002ABD
S31510009A5007D00C4A1278013AD2B20A490A7000E0CD
S31510009A6006707C33AB42DBD10748084B98472288F7
S31510009A70A1780748074B98470020F8BDE64C01101F
S31510009A80082A0110F44E011070270110C915011093
S31510009A90C42B0110A9140110F8B506000188284B33
S31510009AA000241A898A4204D11A005E321278062AD4
S31510009AB02ED00134E4B27C33052CF2D139E02049A2
S31510009AC063011A1B92008A18157614005E34072358
S31510009AD023701C481C4B98471C481D4B9847E22581
S31510009AE02BE01848184B98471A48194B98471449B1
S31510009AF063011A1B92008A1810005E30082707703F
S31510009B00F0781075B2781C1BA4000C19227614E09C
S31510009B10B578002DE5D0D2E70A4E30000A4DA84799
S31510009B200C480B4CA0473000A8470B48A047E2252D
S31510009B3003E0B578002DC2D1EEE72800F8BDC04687
S31510009B40884C011070270110C9150110F42B011053
S31510009B50A9140110082C01102C2C011010B50100AD
S31510009B60154B1B78DBB2132B12D8134C2378DBB2B0
S31510009B709800C018C000C318104818182922104B96
S31510009B809847237823780133DBB22370002311E042
S31510009B900C480D4B98470D480D4B98470D4B984761
S31510009BA0E223002806D00748074B98470A48084B77
S31510009BB09847E223180010BD9C4A01106C4F011003
S31510009BC04F13011070270110C9150110542C0110E4
S31510009BD0A9140110B9D800108C2C0110F8B54F46F5
S31510009BE04646C0B4050041883A4B00241A898A4279
S31510009BF004D11A005E321278032A62D00134E4B21C
S31510009C007C33052CF2D12BE063011C1BA400314BD5
S31510009C101C195E342378012B13D92F482F4B9847E4
S31510009C202F48304B9847688813212F4B9847061EAC
S31510009C304BD02948294B98472C482A4B9847E2265F
S31510009C4043E0002641E0244E3000244DA847284822
S31510009C50244CA0473000A8472648A047E22634E007
S31510009C602B79002BD0D1EEE71B481C4B9847204888
S31510009C701C4B98472A78174B994667013B1B9B004C
S31510009C804B441A752A791A765E3305221A70381BD8
S31510009C90800048443630290022310B32164B984644
S31510009CA09847381B80004844463029003231172225
S31510009CB0C047381B800048441A30A91D1C22C047D3
S31510009CC003E02E79002ECFD09EE730000CBC9046D4
S31510009CD09946F8BD884C011070270110C91501105E
S31510009CE0A42C0110A9140110D9D80010C42C0110ED
S31510009CF0E02C01100C2D01104F13011010B5008827
S31510009D00782301220121024CA047002010BDC04635
S31510009D10F9D80010F0B557464E464546E0B484B023
S31510009D2004000922002101A86B4B984725886B492E
S31510009D300A0000231089A84216D110005E30007860
S31510009D40022811D165485A01D61AB60086195E3610
S31510009D5006223270F93213405A01D21A9200821832
S31510009D60127DD00705D41BE001337C32052BE1D1DF
S31510009D701EE0E078002813D05901C91A8B00574904
S31510009D80C9181A312088564B9847002800D19DE0F3
S31510009D905448554B98475548554B9847E22095E0FF
S31510009DA05A01D31A9B004D4AD3185E3302221A70F9
S31510009DB025880022002316000889A8420DD1080024
S31510009DC05E300078022808D15201921B9600434A51
S31510009DD092195E320321117005E00133DBB20132B4
S31510009DE07C31052BE7D101AA02211172E17891701D
S31510009DF001215170033111701F005A01D21A9200BD
S31510009E003649525C022A04D101AA03219171D171FB
S31510009E1003E001AA01219171D17101AA102151719A
S31510009E2011717A01D21B92002C498A18127E402A8F
S31510009E3034D15A01D31A9B009A461E006036761802
S31510009E40554668356D182B4B99460F239846C847CB
S31510009E50434618403070C84743461840B074013620
S31510009E60AE42F4D1564670361C4AB618214B994666
S31510009E700F239846C8474346184028700135B54207
S31510009E80F8D11C4B98477B01DB1B9B00134AD31858
S31510009E901A00703210807A3310221A707A01D71B8A
S31510009EA0BF0060370D4ABA182088002301A9124C4A
S31510009EB0A04700280AD001AB00229A705A700948B0
S31510009EC0094B98470D480A4B9847E22004B01CBC32
S31510009ED090469946A246F0BD61130110884C0110B8
S31510009EE031DE001070270110C91501103C2D01102C
S31510009EF0A9140110DD15011045DC0010542D0110B8
S31510009F00F0B55F4656464D464446F0B485B0834696
S31510009F100488494A002100231089A0420DD110005F
S31510009F205E300078022808D14A01521A9500424A3A
S31510009F3052195E320321117005E00133DBB2013193
S31510009F407C32052BE8D101AA0221117201399170D8
S31510009F50517000211170D1701F005A01D21A92004F
S31510009F603549525C022A04D101AA03219171D1719B
S31510009F7003E001AA01219171D17101AA1021517139
S31510009F8011717A01D21B92002B498A18127E402A2F
S31510009F9031D15A01D31A9B009A461D0060356D18AF
S31510009FA0544668346418254B99460F26C8473040E6
S31510009FB02870C8473040A8740135A542F6D15546D9
S31510009FC070351D4AAD181D4B99460F239846C84744
S31510009FD04346184020700134AC42F8D1174B9847CD
S31510009FE07B01DB1B9B00144AD3181A0070321080B9
S31510009FF07A3310221A707A01D71BBF0060370E4AC7
S3151000A000BA185B461888002301A90D4CA0470028F2
S3151000A0100AD001AB00229A705A700A480A4B984728
S3151000A0200A480B4B9847E22005B03CBC904699462F
S3151000A030A246AB46F0BDC046884C0110DD15011096
S3151000A04045DC001070270110C9150110802D011074
S3151000A050A9140110F0B585B0050006223D4902A8E5
S3151000A0603D4EB04701AC042229002000B047E378EA
S3151000A070002B62D139483A4B98473A483A4B9847A1
S3151000A08000263A4CFF271E20A047C3B2002B1AD138
S3151000A090324F3800324EB0473548334CA04738005F
S3151000A0A0B0473448A04728881321334B98470300FC
S3151000A0B0E220002B4CD02948294B98472F482A4B91
S3151000A0C09847E22044E01A00303A092ADBD802AA5F
S3151000A0D0B35438402A4B98470136062E26D0D2E77D
S3151000A0E01E481F4B984727481F4B98470024244E5D
S3151000A0F002ABE05CB0470134062CF9D101AB99787C
S3151000A100288802AA204B9847002821D01348144BC0
S3151000A11098471E48144B9847002019E00F48104BDB
S3151000A12098471B48104B9847002011E00B480C4BE2
S3151000A130984718480C4B9847D8E701AB5A888023A4
S3151000A1405B009A42CCD001AB9B78012BE6D0002065
S3151000A15005B0F0BD342B01104F13011070270110FC
S3151000A160C9150110A82D0110A91401106DAC00100D
S3151000A170D02D0110DC2D0110D9D80010C42C0110DF
S3151000A180DD140110F02D011075DD0010282E0110C0
S3151000A190402E01105C2E0110F8B5060005882F4BD5
S3151000A1A00022002410001989A94216D119005E3127
S3151000A1B00978012911D929495201101A8000081865
S3151000A1C05E30062303706201131B9B00CB1870339D
S3151000A1D01A8873889A4213D106E00134E4B2013228
S3151000A1E07C33052CDED10BE06101091B89001B4B6A
S3151000A1F059187231301D0822194B9847002815D06E
S3151000A200184F3800184EB0471848194DA84738004F
S3151000A210B0471848A84763011C1BA4000F4B1C1914
S3151000A22020890521144B9847E22016E06201131B82
S3151000A2309B00603309495B18141BA4000C19217D7F
S3151000A240308801220D4CA047002806D00548064B41
S3151000A25098470B48064B98470020F8BD884C0110CC
S3151000A2603113011070270110C9150110702E01103D
S3151000A270A9140110A82E0110D9D80010A9DE0010BB
S3151000A280002F011030B5002A47D0062947D889007B
S3151000A290284B5B589F46284B05240AE0274B012480
S3151000A2A007E0274B052404E0264B012401E0264B4A
S3151000A2B00524002816D1196800290BD106E01D00C7
S3151000A2C00433181F0068002806D100E01D002A601C
S3151000A2D001212CE0043300210131C9B2A142EED391
S3151000A2E0002124E00021012821D119688A420CD1CD
S3151000A2F006E01D000433181F0068824207D100E0F3
S3151000A3001D0000232B60012111E0043300210131CF
S3151000A310C9B2A142EDD3002109E0002107E00021D6
S3151000A32005E00A4B0524C4E7094B0124C1E70800E0
S3151000A33030BDC046282A0110744C0110704C011013
S3151000A340F84E0110AC5401100C4F0110204F0110A3
S3151000A350684F0110F0B55F4656464D464446F0B478
S3151000A36091B0050000247A4B1C6007220021794821
S3151000A370794EB047122200217848B047784B1C70AE
S3151000A380CD22920000217748B047774B1C7083226C
S3151000A390920000217548B047754B9B468023DB0021
S3151000A3A09A461A0000215846B047724B99468023A8
S3151000A3B05B0198461A0000214846B0476E4F1C2292
S3151000A3C000213800B0475B46BB605346FB604B46E6
S3151000A3D03B6143467B61694B1C605C609C60DC6042
S3151000A3E01C61674B1C605C609C60DC601C61654B8B
S3151000A3F01C605C609C60DC601C61634B1C60634B82
S3151000A4001C60634B1C605C609C60DC601C61614B73
S3151000A4101C60614C9B239B009846A0444E4F4026DF
S3151000A4207C2200212000B84723005E3300221A70D8
S3151000A43026767C34A045F3D1584B1A705848594BA0
S3151000A44098475948594B98474B48594B98470028B5
S3151000A4500BD0534E3000534DA8475648534CA04787
S3151000A4603000A8475448A047FEE7544A0021002070
S3151000A470534CA047534A02210020A04709215248B5
S3151000A480524B9847002805D04548464B98475048A8
S3151000A490464B984707224F49083104A84E4B984718
S3151000A4A02622002106A82C4B9847002D0CD104A873
S3151000A4B04A4B984704AD002806D03948394B98477F
S3151000A4C047483A4B984704AD3548364B98472B7951
S3151000A4D06A79A9792878039068780290A87801900B
S3151000A4E0E87800903F48314CA04706AC0A23237009
S3151000A4F03D4B63800722290007A8374B9847002356
S3151000A500E37623776377A377E377238463848023C3
S3151000A5109B00A3842000354B9847002805D020487F
S3151000A520204B98473248214B98472800314B984783
S3151000A530002805D01A481B4B98472F481B4B9847A5
S3151000A54011B03CBC90469946A246AB46F0BDC046FB
S3151000A550984A0110A04A011061130110344F0110DE
S3151000A5609C4A01106C4F0110644F0110A05201104B
S3151000A57098360110983A0110484F01100C4F0110EF
S3151000A580204F0110744C0110684F0110704C0110CF
S3151000A590F84E0110AC540110884C0110F44E011005
S3151000A5A070270110C9150110202F0110A9140110D0
S3151000A5B0B1D60010342F0110542F01108C31011018
S3151000A5C085A20010502B0110902F0110C9D5001034
S3151000A5D09C2F0110342B01104F130110FDD50010C4
S3151000A5E0B42F0110CC2F0110983A000021D600107C
S3151000A5F00430011065D800102830011010B5012262
S3151000A6000121064B9847002806D00548054B984768
S3151000A6100548064B9847E22010BDC046F1DD0010F4
S3151000A62070270110C915011064300110A91401100A
S3151000A630F0B55F464E464546E0B49AB00500867AB8
S3151000A640002E00D0C6E07548754FB8472B796A7949
S3151000A650A97968780290A8780190E87800907148F6
S3151000A660714CA0476D48B84729897048A0471222F7
S3151000A67029006F486F4B98470495072229006E48AA
S3151000A6806E4B9847002800D1ADE02B78022B00D0F6
S3151000A690A9E05022002106A8694B9847694F00236C
S3151000A6A00BE0591C147806A8C45401328BB2B3427D
S3151000A6B0F7D17C37331E502B04D01E001036B6B29D
S3151000A6C03A00EEE706AA290005205F4B9847061EBA
S3151000A6D000D19CE05148524B98475C48524B9847E2
S3151000A6E0E22694E0E7B20594072204994846D84733
S3151000A6F0002809D1059A53019B1A9A00544B9B18AE
S3151000A7005E3302221A702BE001347C239C46E1440E
S3151000A710052CE7D172E01C00117800291AD101E04E
S3151000A7200024002763019946181B8000484B984661
S3151000A7304044122229003F4B9847464A137801336A
S3151000A740DBB213704B461B1B9B0043445E33022245
S3151000A7501A7005E0791CCFB201337C32052FDAD19D
S3151000A760072229003448354B984700280CD17B0125
S3151000A770DB1B9B00364AD31805229A74023200213D
S3151000A7802D482F4B984742E0314B98467C01E31BEE
S3151000A7909B0043440A229A74033A00212648284B08
S3151000A7A09847E41BA4004444A37C0A2B2FD10DE048
S3151000A7B01A481B4B9847274B1978C9B226481A4B8B
S3151000A7C0984728891321254B984720E02889244B40
S3151000A7D098471CE01148124B9847A97A2148124B0A
S3151000A7E09847002613E01B4B1B78DBB2042BDFD8EF
S3151000A7F0174B99460024114B9B4673E75E23144A68
S3151000A800D35C002B8CD0184A0123012783E7300034
S3151000A8101AB01CBC90469946A346F0BD702701108D
S3151000A820C915011084300110A9140110C830011087
S3151000A830344F01104F130110A04A011031130110AB
S3151000A84061130110CE4C011005D90010E030011033
S3151000A850884C0110F44E011004310110D9D80010A3
S3151000A860FDA5001040310110624D0110F0B54746AC
S3151000A87080B40378002B41D12F4D0024461C2F4F56
S3151000A880102229003000B84700283FD00134E4B226
S3151000A8907C35052CF4D131E0DDB21C00117800298D
S3151000A8A022D101E000240025254B98466601371B6E
S3151000A8B0BF004744122223493800234B9847234AA6
S3151000A8C013780133DBB213705E3702233B70341BEF
S3151000A8D0A40044440833A3746B015D1BAD004544CA
S3151000A8E0AB7C0A2B23D104E001337C32052BD3D168
S3151000A8F01DE0144B1889164B984718E05E23104A32
S3151000A900D35C002BCED0134A0123C5E70C48630154
S3151000A9101A1B9200821811005E3102250D700A2151
S3151000A9209174100012220749074B9847E1E700205F
S3151000A93004BC9046F0BDC046CE4C01103113011038
S3151000A940884C0110344F01104F130110F44E0110B2
S3151000A950FDA50010624D0110F8B50D003B2872D808
S3151000A96083003C4AD3589F46840000263A4FBB5971
S3151000A970002B04D01B59002B01D028009847043611
S3151000A980142EF4D165E01338C4B2A4000026334F58
S3151000A990BB59002B04D01B59002B01D02800984717
S3151000A9A00436142EF4D154E01D38C4B2A400002687
S3151000A9B02B4FBB59002B04D01B59002B01D028005C
S3151000A9C098470436142EF4D143E02738C0B2254BED
S3151000A9D01B68002B3DD08000C358002B39D00800CF
S3151000A9E0984736E02D38C0B21F4B1B68002B30D06D
S3151000A9F08000C358002B2CD00800984729E0363821
S3151000AA00C4B2A4000026194FBB59002B04D01B5901
S3151000AA10002B01D0280098470436142EF4D118E0E4
S3151000AA203838C0B2124B1B68002B12D08000C358A6
S3151000AA30002B0ED0080098470BE00E4B1B68002B1E
S3151000AA4007D0984705E00C4D28000C4CA04728006D
S3151000AA50A047F8BD442A01100C4F0110204F0110D9
S3151000AA60744C0110684F0110704C0110F84E011013
S3151000AA70AC540110984A011070270110C915011025
S3151000AA8070B504000D4B1B78012B01D10C4B984768
S3151000AA9022000C490C480D4B984704000500074B43
S3151000AAA01B78012B01D10A4B9847002D04D1064B78
S3151000AAB018780449074B9847200070BDA74A011023
S3151000AAC0E5B30010A0520110644F011059CE0010CA
S3151000AAD0BDB3001059A9001010B50E4B1B78012BF1
S3151000AAE00BD102220B4B1A700B4B1B68002B10D18B
S3151000AAF002210A480A4B98470BE0074B1B68002BAC
S3151000AB0007D0084C20789847012221000348064BAD
S3151000AB10984710BDAC4A0110B44A0110B054011048
S3151000AB20B5BA0010B04A011059BA001070B5060037
S3151000AB300D00034C29003000A0470028FAD170BD43
S3151000AB4045BA001070B506000D00034C2900300000
S3151000AB50A0470028FAD170BD35BA001070B5002193
S3151000AB600020194B9847194C2000194B9847E123A0
S3151000AB705B0223600223A3600322E260013222619A
S3151000AB8001326261A361E36123626362114D124B6C
S3151000AB901D60124A124B1A60124A134B1A60220099
S3151000ABA012492800124B9847124E336898680021B4
S3151000ABB0114CA047336858680021A04702220F495C
S3151000ABC028000F4B984770BDB5C20010D454011021
S3151000ABD04DB80010B0540110FC57011045AB0010D1
S3151000ABE0F85701102DAB0010F4570110004000402B
S3151000ABF079B800106036011079160110D9AA001024
S3151000AC0081BA0010F0B583B005000D4CA047A047DF
S3151000AC100C4FB8470C4E0D4A0D4BB04700900191A2
S3151000AC20FA2080006843B84702000B00009801998B
S3151000AC30B047084B9847084B186003B0F0BDC046A4
S3151000AC4039C30010251201101D060110C7AEFE19DA
S3151000AC50EFD8093F3DFA0010A84A0110024B1A68B6
S3151000AC60501E18607047C046A84A011070B50400FF
S3151000AC700122114B1A70114B1B68002B03D10221B4
S3151000AC800F48104B984720000F4B98470F49002349
S3151000AC900B7001220A480E4B9847074C0D4D23782E
S3151000ACA0022B02D0A8470028F9D10022024B1A70B5
S3151000ACB0064B187870BDC046AC4A0110B44A011054
S3151000ACC0B054011095BA001005AC0010B04A01102E
S3151000ACD059BA00105DAC0010024B1A680260186079
S3151000ACE07047C046BC4A011030B50B4B1C68002C8F
S3151000ACF011D025681D6000232360A160E280A0802A
S3151000AD00064B1A68002A02D11C6004E01A00136868
S3151000AD10002BFBD1146030BDBC4A0110B84A01109B
S3151000AD2070B50023064A1360064A1360064C2600C7
S3151000AD307836064D2000A8470C34B442FAD170BDBF
S3151000AD40BC4A0110B84A0110C04A0110D9AC001013
S3151000AD5070B50400134B1D68134B1B6898470C2CD9
S3151000AD601FD00C3CE388052B1BD0EB0714D40F4BDC
S3151000AD701B68022098470E4B1B6898470D4C032002
S3151000AD80236898470028FAD10B4B1B680230984766
S3151000AD9001220A4B1A6004E0094B1868094B1B681C
S3151000ADA0984770BDECB10040684B0110604B011024
S3151000ADB0704B01104C4B0110544B011020B0004049
S3151000ADC0584B0110484B011010B5064B064A19682E
S3151000ADD011605A68054B1A60054B1B68002B00D092
S3151000ADE0984710BDFC5401100CB0004010B0004044
S3151000ADF0D857011070B5322200210D480D4B9847D7
S3151000AE0000210B48012502244A0011548218537858
S3151000AE102B43DBB2A343537001311929F4D1044BF0
S3151000AE205A7818398A435A70DA788A43DA7070BDBC
S3151000AE301855011061130110064A1168064B0B4094
S3151000AE401360064A136006490868064B03400B60F8
S3151000AE50536070470CB00040D30FFEFFFC54011036
S3151000AE6010B00040C0E7FFFFF0B557464E464546C6
S3151000AE70E0B44F4B1B78002B04D04D4B1B78012BA5
S3151000AE8000D18CE04B4B98474B4B98470023984684
S3151000AE904A4B42461A604A4C80238022120492463C
S3151000AEA0E250802252049146E250464D464B2B60AA
S3151000AEB0464B474A13604749474A1160474A11684B
S3151000AEC0474A1160474A1168474A11604749484A3C
S3151000AED011604849484A1160484F494A3A60494901
S3151000AEE0494A116049494A4A11604A4E4A4A3260F3
S3151000AEF04A494B4A11604B494B4A11604B494C4ADF
S3151000AF0011604C494C4A11604C494D4A1160282039
S3151000AF1098474C4928202B6898472B684A49272080
S3151000AF2098474A4B1A684A4B1A604A4A4A4B1A6063
S3151000AF304A4A4B4B1A604B4A4B4B1A604B4A4C4B86
S3151000AF401A604C4A4C4B1A604C4A4D4B1A604D4A8B
S3151000AF504D4B1A60A022920000214C484C4B98474A
S3151000AF60802292004B4B1A804B4B984753462360D6
S3151000AF704B462360494B42461A603B68484A1A6062
S3151000AF803368484A1A600020474CA0470120A04762
S3151000AF900220A0470122064B1A70002003E001226E
S3151000AFA0034B1A7001201CBC90469946A246F0BD70
S3151000AFB0504B0110F5AD001039AE00106C4B01105E
S3151000AFC000E100E0CC570110D7070000BD070000D4
S3151000AFD00855011051BC0100D0570110BC000410D7
S3151000AFE0444B0110B8000410404B01109FB90100EA
S3151000AFF004550110DBB9010010550110E05701107E
S3151000B0003C000410C01F041014550110C41F041076
S3151000B010DC570110D4570110D41F0410D81F041088
S3151000B0200C550110E9CB0100604B01108FCD0100CA
S3151000B030544B0110A3CE0100704B0110CFCB010071
S3151000B0404C4B0110DDB4001071B40010E400041074
S3151000B050684B0110E99F0100784B0110DDDB010000
S3151000B060484B01105BDC01005C4B0110EC05041031
S3151000B070584B0110E3D50100644B0110200C04104D
S3151000B0807C4B0110099F01003C4B01104C550110DF
S3151000B09061130110E457011021AD0010D8570110AB
S3151000B0A0C9AD001039B5001021B50010044B1A783F
S3151000B0B00523012A02D1034B18600023180070479C
S3151000B0C0504B01106C4B011070B504000E4B1B68F1
S3151000B0D0002B02D0408898476080E388A288618858
S3151000B0E020880A4D2D68A8470500E288002A02D15B
S3151000B0F0074B984706E021000831064B9847280071
S3151000B100034B984770BDC046444B0110784B011055
S3151000B11051AD00104F13011070B515001C000A0236
S3151000B12002430A4B1E6823000521A020C000B04729
S3151000B130061E0AD0002C05D0002D03D022002900AF
S3151000B140034B98473000034B984770BD784B01105E
S3151000B1504F13011051AD0010F0B55F4656464D46DF
S3151000B1604446F0B487B0441E00239946E31C1CD80D
S3151000B1700D22002102A8824B9847332302AA13708E
S3151000B180303B537093700233137193711472230A08
S3151000B1905372230C9372240ED472012313730D2150
S3151000B1A01000784B98470123994600240025764FC6
S3151000B1B0764E7749386833689847002800D088E07B
S3151000B1C0734B1C68A3889A46CD239B009A4500D1E1
S3151000B1D0C7E023899B46638998464B46002B11D0BE
S3151000B1E00D22002102A8664B9847332302AA13703A
S3151000B1F0303B537093700233137193710D2110000D
S3151000B200604B9847A023DB009A4521D1614B1B88E0
S3151000B2104344A0229200934202DD803A5D4B1A808D
S3151000B2205C4B9A461D885C4BED1821000C3142464A
S3151000B23028005A4B9847424629005846584B98477B
S3151000B24053461B88434452461380002402253AE095
S3151000B250544B1B68002B32D04D4B1A689388CD2166
S3151000B26089008B4204D14B460124002B2BD028E0B9
S3151000B2704D4C494D25602B701B0A6B7010894B4B3A
S3151000B2801B6898472871000A68712068404B1A6835
S3151000B290D28842801D686B89C380083020606A8915
S3151000B2A0002A03D029000C313C4B98476989083194
S3151000B2B03C4B1B68384898470024032503E00024BC
S3151000B2C001E00024D025324B1868394B1B6898478B
S3151000B2D000E00725002C00D06BE74B46002B46D02C
S3151000B2E0294B1E68002E04D100231C6A002C31D174
S3151000B2F03DE0346A14239C46B4446346604600938A
S3151000B3002C4B1B689847002C1FD00027CD239B0081
S3151000B3109846274B9A46200003689B88434510D1D0
S3151000B320002F06D08368BB6053461B689847B868E1
S3151000B33009E0836833621E4B1B6801939847306A95
S3151000B34001E0070080680028E6D11B4B1B680098B7
S3151000B35098470CE014230093164B1B68142098474B
S3151000B360D3E7104B1B680024002BACD07BE72800DA
S3151000B37007B03CBC90469946A246AB46F0BDC046C7
S3151000B38061130110C9B000107C4B0110644B011001
S3151000B390384B0110E45701104C5501104F13011092
S3151000B3A0E9AC00106C4B0110744B0110404B0110AE
S3151000B3B03C4B01105C4B0110484B011010B5034B70
S3151000B3C01B68802000029847082010BD0455011004
S3151000B3D010B5034B1B688020C0019847002010BD94
S3151000B3E01055011010B5054C8020C00123689847F0
S3151000B3F02368802000029847002010BD10550110C8
S3151000B40030B5184A138F9BB2108D80210902014363
S3151000B41011851000144D01240022DB05DB0D11D01F
S3151000B420DBB259420B40012B06D011005B080131EB
S3151000B430C9B2012BFAD100E0110023008B409BB258
S3151000B440038703E0038F2B439BB20387038FDB0530
S3151000B450DB0DE2D1802149008133FF33034AD150FD
S3151000B46030BDC046001001400080FFFF00E100E043
S3151000B47030B5174A138F9BB2108D802109020143F4
S3151000B48011851000134D01240022DB05DB0D11D0B0
S3151000B490DBB259420B40012B06D011005B0801317B
S3151000B4A0C9B2012BFAD100E0110023008B409BB2E8
S3151000B4B0038703E0038F2B439BB20387038FDB05C0
S3151000B4C0DB0DE2D180218133FF33034AD15030BDE9
S3151000B4D0000001400080FFFF00E100E010B50C4BBA
S3151000B4E01B8F5B0B10D00B4B1B689847084A138FAA
S3151000B4F0118F5B0B5B030B43138780214900C0231D
S3151000B5005B00054AD15001E0044B984710BDC04678
S3151000B51000100140D057011000E100E001B4001006
S3151000B5200323022804D880000022024BC2500023B5
S3151000B53018007047E857011010B504000378012B66
S3151000B54008D1114B1B68002B00D09847FF232268A7
S3151000B5509A4322606378012B08D10B4B5B68002B52
S3151000B56000D09847094B226813402360A378012B1B
S3151000B57008D1054B9B68002B00D09847044B2268D6
S3151000B5801340236010BDC046E8570110FF00FFFFAF
S3151000B590FFFF00FFF0B5474680B40C009046002828
S3151000B5A00DD1002A0EDD8F18084E094D3068210086
S3151000B5B02B6898470134A742F8D1404603E0012092
S3151000B5C0404200E0002004BC9046F0BDFC5701103C
S3151000B5D0F4570110F0B5474680B40E001500013837
S3151000B5E0022811D8002A12D000240C4B98460C4F72
S3151000B5F043461868315D3B689847002809DB0134DB
S3151000B600A542F5D1200006E00120404203E00020CB
S3151000B61001E00120404204BC9046F0BDFC570110E9
S3151000B620F857011070B5204B1C6823681D7DEDB2CC
S3151000B6306A0613D51E212222A1541A7E23318A436B
S3151000B6401A762123E35C1B0706D52023E35C1B0730
S3151000B65002D520002369984723681B7CEB0722D567
S3151000B66023681B7CDBB26269137063690133636103
S3151000B670A38B013B9BB2A383A38B9BB2002B12D14E
S3151000B6802133E35C5B070ED52023E35C5B070AD509
S3151000B69000222223E2542268137E01218B43137663
S3151000B6A0E3682000984770BD0058011070B5214B13
S3151000B6B01C6823681D79EDB2EA0717D5A2691178BF
S3151000B6C0C9B20132A2611970E38B013B9BB2E383CD
S3151000B6D0E38B9BB2002B09D12268137A01218B438D
S3151000B6E013722268117A10230B431372EB0612D5CC
S3151000B6F02123E35CDB070ED52023E35CDB070AD5A9
S3151000B70000222223E2542268137A10218B431372EB
S3151000B710200063689847AB060AD52123E35C9B0794
S3151000B72006D52023E35C9B0702D5A3682000984723
S3151000B73070BDC0460058011070B5204B5C68236878
S3151000B7401D7DEDB26A0613D51E212222A1541A7E42
S3151000B75023318A431A762123E35C1B0706D520235F
S3151000B760E35C1B0702D520002369984723681B7CDE
S3151000B770EB0722D523681B7CDBB262691370636901
S3151000B78001336361A38B013B9BB2A383A38B9BB253
S3151000B790002B12D12133E35C5B070ED52023E35C2B
S3151000B7A05B070AD500222223E2542268137E012168
S3151000B7B08B431376E3682000984770BD005801103C
S3151000B7C070B5214B5C6823681D79EDB2EA0717D571
S3151000B7D0A2691178C9B20132A2611970E38B013BDB
S3151000B7E09BB2E383E38B9BB2002B09D12268137AB9
S3151000B7F001218B4313722268117A10230B431372A3
S3151000B800EB0612D52123E35CDB070ED52023E35C80
S3151000B810DB070AD500222223E2542268137A10216C
S3151000B8208B431372200063689847AB060AD5212311
S3151000B830E35C9B0706D52023E35C9B0702D5A36830
S3151000B8402000984770BDC04600580110E1235B02E6
S3151000B85003600023037143718371C37102338360E4
S3151000B8600322C26001320261013242618361C36107
S3151000B870036243627047C046F8B54F464646C0B4A9
S3151000B880050017000160002343608360C3600361F5
S3151000B8904361836100228383C3832033C2540133FF
S3151000B8A0C2540133C254554B994218D10920544CF5
S3151000B8B0A0470A20A0470920524CA0470A20A047BB
S3151000B8C0514B1D6051491020514CA0475149112030
S3151000B8D0A047514B01221A6001321A601AE04F4BF1
S3151000B8E0994217D10B20464CA0470C20A0470B209D
S3151000B8F0444CA0470C20A047434B5D60484912209A
S3151000B900434CA04747491320A047434B04221A60D3
S3151000B91004321A60FB7904229046002B52D102336E
S3151000B92098464FE0318A01CEC0B2C8470134E4B21E
S3151000B9304445F7D32B681A7DD20704D501211A7C0A
S3151000B9401A7D0A42FBD1002120229954FB79591EF7
S3151000B9508B4159013B797A7913430B43BA79022A01
S3151000B9600DD0D1B2022902D8012A05D00FE0032A40
S3151000B97008D0042A09D00AE00222134307E006225F
S3151000B980134304E00A22134301E00E22134320223C
S3151000B99029688B543E68244B984704003100234B8A
S3151000B9A0984782B20004000C7043201A310988426D
S3151000B9B006D900230133DBB2401A8842FAD807E0D1
S3151000B9C0002305E03E0008360024194B9946A9E7E6
S3151000B9D0002128202C68215401331B075B0FD2004D
S3151000B9E013439BB22A6893842B6819762B681972B5
S3151000B9F000200CBC90469946F8BDC0460040004059
S3151000BA00A1C6001045C300100058011025B600103D
S3151000BA1009CB0010ADB6001000E100E00050004068
S3151000BA2039B70010C1B7001039C30010D9F500108E
S3151000BA30EDBD00100268012013790342FCD011708D
S3151000BA400020704702680120137D0342FCD0137C4E
S3151000BA500B7000207047C0461723002A0DD00B33F9
S3151000BA60C35CDBB2052B08D08283416105222223F9
S3151000BA70C2540368043A1A76002318007047C04669
S3151000BA809300C3185960202101239340425C13434D
S3151000BA904354704710B5212201238B40845C234305
S3151000BAA08354012904D10268117A20230B4313729F
S3151000BAB010BDC04610B501228A402124035D934370
S3151000BAC00355012904D10268137A1F318B4313726F
S3151000BAD010BDC04670B5164B1D68298F89B2CB07AD
S3151000BAE007D401230124180022009A40114214D0D1
S3151000BAF001E00122002092B22A8746230C4AD35A2B
S3151000BB000341DB070CD54423D35A0341DB0707D582
S3151000BB10800010184368984702E00133102BE2D1D9
S3151000BB2080210904C0235B00024AD15070BDC04673
S3151000BB300858011000E100E0F8B5184B9B6C1E8FF9
S3151000BB40B6B237000024760B7603144D002E01D0C2
S3151000BB50134B984722000123A3401F4213D09BB2D8
S3151000BB60A96C0B878E23EB5A2341DB070BD58C234D
S3151000BB700A49CB5A2341DB0705D5123292008A189F
S3151000BB805368984702E00134102CDFD18021490414
S3151000BB90C0235B00034AD150F8BDC04608580110B7
S3151000BBA051BC010000E100E010B590231B4AD258A9
S3151000BBB0138F9BB2D90414D499040AD459040CD403
S3151000BBC0DB0BDB039BB2002B20D080231B020F2143
S3151000BBD00AE080239B010D2106E08023DB010E2164
S3151000BBE002E080235B010C219BB21387D6230B4AFC
S3151000BBF0D35A0B41DB0709D5D423D35A0B41DB07A4
S3151000BC0004D52431890051184B689847802189043E
S3151000BC10C0235B00024AD15010BDC046085801101F
S3151000BC2000E100E000230370012242708370C370AC
S3151000BC307047C04670B51723012800D8C8E00728FA
S3151000BC4009D8644D6A6C103B03409B0007249C4046
S3151000BC50A2436A6429E00F2809D85E4DAA6C07230F
S3151000BC6003409B0007249C40A243AA641DE01728AA
S3151000BC7009D8584DEA6C072303409B0007249C40C3
S3151000BC80A243EA6411E003002C3B032B0DD8524D5E
S3151000BC908224E4002A5D120701269E40120F2B5DB6
S3151000BCA0B2430F26B34313432B5503001D3B022B00
S3151000BCB029D84B78012B08D1474D2B7D1F24241AE8
S3151000BCC00122A24093432B7508E0434C257D1F2289
S3151000BCD0121A012393402B43DBB22375CA78002333
S3151000BCE0002A75D03C490C881F22101A8000013397
S3151000BCF0834023439BB20B80384A117802230B43AF
S3151000BD001370002364E00A78002A40D10F2808D85F
S3151000BD10012383409BB2324A938200231F2857D8AF
S3151000BD2012E01F2807D80F220240012393409BB22E
S3151000BD302C4A938208E00F2318400E3B83409BB297
S3151000BD40294A9382002343E04B78012B0CD0002B19
S3151000BD5002D0022B10D03AE01E490A6D012383400F
S3151000BD6013430B65002333E01A490B6D0122824001
S3151000BD7093430B6500232BE0164B596D012282402D
S3151000BD8011435965196D91431965002320E000236D
S3151000BD90012A1DD10F2806D8013383409BB2104AC1
S3151000BDA01382002314E01F2808D80F2318400E3BD7
S3151000BDB083409BB20B4A1382002309E00F231840DD
S3151000BDC00E3B83409BB2084A1382002300E01723E0
S3151000BDD0180070BD00B0004000F0004000E00040C8
S3151000BDE000000140001001400030014070B50D0AFE
S3151000BDF0FF231940072833D84E4A546CF83B0340AA
S3151000BE009B0007269E40B4435464546C0E009E401B
S3151000BE10330023435364012900D08AE003280FD846
S3151000BE201100D02252008C5803231840C0003C3316
S3151000BE3083409C438C508B5885401D438D5078E031
S3151000BE403C49D22252008C5803231840C0003C3380
S3151000BE5083409C438C508B5885401D438D5068E021
S3151000BE600F2832D8334A946C072303409B000726C9
S3151000BE709E40B4439464946C0E009E40330023435A
S3151000BE809364012955D10B280FD81100D4225200E2
S3151000BE908C5803231840C0003C3383409C438C507D
S3151000BEA08B5885401D438D5043E02249D6225200BF
S3151000BEB08C5803231840C0003C3383409C438C505D
S3151000BEC08B5885401D438D5033E0172831D8194AB9
S3151000BED0D46C072303409B0007269E40B443D464CA
S3151000BEE0D46C0E009E4033002343D364012920D125
S3151000BEF013280FD81100D82252008C58032318404B
S3151000BF00C0003C3383409C438C508B5885401D4366
S3151000BF108D500EE0074ADA235B00D15803242040E7
S3151000BF20C0003C348440A143D150D15885400D43C4
S3151000BF30D55070BD00B00040F0B500230F2804D9CD
S3151000BF401F2484425B411D3CE31A012A16D0002AA5
S3151000BF5004D0022A22D0032A30D03EE0294EDC003B
S3151000BF60E218D20097590F2505400122AA4092B235
S3151000BF70BA85E418E400A459A2862EE0214EDC000E
S3151000BF80E218D20097590F2505400122AA4092B215
S3151000BF90BA85E418E400A45922861EE0194EDC0086
S3151000BFA0E218D20097590F2505400122AA4092B2F5
S3151000BFB03A85E418E400A45922860EE0114EDC00FE
S3151000BFC0E218D20097590F2505400122AA4092B2D5
S3151000BFD03A85E418E400A459A2860F221040094CB1
S3151000BFE0DD00EA18520012189200A2185160EA18E1
S3151000BFF0D200A21844320121814013880B431380CA
S3151000C000F0BDC0460858011030B50F2805D880225B
S3151000C0101204124B1A6000220CE01F2805D8802249
S3151000C02052040E4B1A60012204E0802292040B4B3C
S3151000C0301A6002220F23184001218140084CD500B6
S3151000C040AB18DB00E3184633188808431880AA1883
S3151000C050D200135989B2198430BDC04600E100E000
S3151000C0600858011010B5114A1000D830002107E009
S3151000C07002C39342FCD1518011804832824202D0D1
S3151000C0801300403BF4E70A4B0A4A1A600A4A9A64BC
S3151000C0900A49902299500A4927200A4CA0470A4972
S3151000C0A02820A04709492920A04710BD4C58011047
S3151000C0B008580110000001400010014000300140F6
S3151000C0C0D5BA001009CB001039BB0010A9BB00105F
S3151000C0D0F0B54F464646C0B481464D881723002D0D
S3151000C0E02FD002682824135DDB07FCD401233424E7
S3151000C0F01355143C13550B885B000224FF3423435D
S3151000C1009BB21380002401239846137BDBB2404672
S3151000C110184206D0671C107984464868664606554C
S3151000C120BCB2AC42F1D3DB0603D41021137A0B4216
S3151000C130FCD04B4659790023002902D12033D15423
S3151000C140002318000CBC90469946F0BDF0B5844605
S3151000C15002684E882824135DDB07FCD4012334249F
S3151000C1601355143C13550B885B00E03423439BB2E4
S3151000C170138000240125137ADBB21D4204D0671CFC
S3151000C1804868045D1480BCB2B442F4D3DB0603D411
S3151000C1901021137A0B42FCD063465B79002B02D137
S3151000C1A000212033D1540020F0BDC0460323037074
S3151000C1B00D334380083B43600133C360073B836004
S3151000C1C00361704770B5040015000160002826D081
S3151000C1D0002A26D028228B5CDB07FCD400230B75A3
S3151000C1E02368114A934203D10320104B984706E067
S3151000C1F017200F4A934215D102300C4B98472468EA
S3151000C200298928790B4EB047298A287BB0472B7885
S3151000C21023746B88238301232377002002E01720E1
S3151000C22000E0172070BDC04600300040A1C60010C7
S3151000C23000340040EDBD001010B5002808D01723BB
S3151000C240002906D000234371034B9847030000E0F2
S3151000C2501723180010BDC046D1C0001070B50400D9
S3151000C2600D0000280CD0172000290AD00023637176
S3151000C2700448054B984729002000044B984700E0D6
S3151000C280172070BDD8310110A91401104DC100102E
S3151000C29010B5002808D01723002906D0163B437185
S3151000C2A0034B9847030000E01723180010BDC04643
S3151000C2B04DC1001001280DD0002802D002281CD034
S3151000C2C02EE0184A90690C2303439361164A174BC4
S3151000C2D01A601AE0134B9869082202439A619A6908
S3151000C2E0042082439A61124A536880200003034354
S3151000C2F05360104A0D4B1A6007E00A4A93690C20E6
S3151000C30083439361084A094B1A60064B9A690320C6
S3151000C31082439A619A69014011439961002000E0B5
S3151000C3201720704700B0004080BA8C01E058011009
S3151000C33000F0004080841E00014B18687047C0460C
S3151000C340E058011000B5352800D9A2E18000D24B83
S3151000C3501B589F46D14AD16802230B43D360002055
S3151000C36098E1CE4AD16804230B43D360002091E1B3
S3151000C370CA4AD16808230B43D36000208AE1C74A12
S3151000C380D16810230B43D360002083E1C34AD168E0
S3151000C39020230B43D36000207CE1C04AD168802360
S3151000C3A00B43D360002075E1BC4AD3688021490055
S3151000C3B00B43D36000206DE1B84AD3688021090190
S3151000C3C00B43D360002065E1B44AD368802149014C
S3151000C3D00B43D36000205DE1B04AD3688021890108
S3151000C3E00B43D360002055E1AC4AD3688021C901C4
S3151000C3F00B43D36000204DE1A84AD368802109027F
S3151000C4000B43D360002045E1A44AD368802149023A
S3151000C4100B43D36000203DE1A04AD36880218902F6
S3151000C4200B43D360002035E19C4AD3688021C902B2
S3151000C4300B43D36000202DE1984AD368802109036D
S3151000C4400B43D360002025E1944AD3688021490329
S3151000C4500B43D36000201DE1904AD36880218903E5
S3151000C4600B43D360002015E18C4AD3688021C903A1
S3151000C4700B43D36000200DE1884AD368802109045C
S3151000C4800B43D360002005E1844AD3688021490418
S3151000C4900B43D3600020FDE0804AD36880218904D5
S3151000C4A00B43D3600020F5E07C4AD3688021C90491
S3151000C4B00B43D3600020EDE0784AD368802109054C
S3151000C4C00B43D3600020E5E0744AD3688021490508
S3151000C4D00B43D3600020DDE0704AD36880218905C4
S3151000C4E00B43D3600020D5E06C4AD3688021C90580
S3151000C4F00B43D3600020CDE0684A116901230B433A
S3151000C50013610020C6E0654A116902230B431361CB
S3151000C5100020BFE0614A116904230B431361002018
S3151000C520B8E05E4A116908230B4313610020B1E09D
S3151000C5305A4A116910230B4313610020AAE0574A87
S3151000C540116920230B4313610020A3E0534A11699C
S3151000C55040230B43136100209CE0504A116980234D
S3151000C5600B431361002095E04C4A13698021490062
S3151000C5700B43136100208DE0484A1369802189001E
S3151000C5800B431361002085E0444A13698021C900DA
S3151000C5900B43136100207DE0404A13698021090195
S3151000C5A00B431361002075E03C4A13698021490151
S3151000C5B00B43136100206DE0384A1369802189010D
S3151000C5C00B431361002065E0344A13698021C901C9
S3151000C5D00B43136100205DE0304A13698021090284
S3151000C5E00B431361002055E02C4A13698021490240
S3151000C5F00B43136100204DE0284A136980218902FC
S3151000C6000B431361002045E0244A13698021C902B7
S3151000C6100B43136100203DE0204A13698021090372
S3151000C6200B431361002035E01C4A1369802149032E
S3151000C6300B43136100202DE0184A136980218903EA
S3151000C6400B431361002025E0144A13698021C903A6
S3151000C6500B43136100201DE0104A13698021090461
S3151000C6600B431361002015E00C4A117D01230B4387
S3151000C670137500200EE0094A117D02230B43137532
S3151000C680002007E0054A117D04230B431375002093
S3151000C69000E0172000BDC046DC31011000B000409C
S3151000C6A000B5432800D923E28000E04B1B589F4673
S3151000C6B0DF4B596802229143596059680A435A6000
S3151000C6C0002016E2DA4B59680422914359605968E2
S3151000C6D00A435A6000200CE2D54B59680822914350
S3151000C6E0596059680A435A60002002E2D04B5968D3
S3151000C6F010229143596059680A435A600020F8E1A4
S3151000C700CB4B596820229143596059680A435A60A5
S3151000C7100020EEE1C64B5968402291435960596892
S3151000C7200A435A600020E4E1C14B596880229143C4
S3151000C730596059680A435A600020DAE1BC4B5968BF
S3151000C740BC4A0A405A605A68802149000A435A6016
S3151000C7500020CEE1B64B5968B74A0A405A605A686B
S3151000C760802189000A435A600020C2E1B04B596803
S3151000C770B24A0A405A605A688021C9000A435A6070
S3151000C7800020B6E1AA4B5968AD4A0A405A605A6869
S3151000C790802109010A435A600020AAE1A44B596876
S3151000C7A0A84A0A405A605A68802149010A435A60C9
S3151000C7B000209EE19E4B5968A34A0A405A605A6867
S3151000C7C0802189010A435A60002092E1984B5968EA
S3151000C7D09E4A0A405A605A688021C9010A435A6023
S3151000C7E0002086E1924B5968994A0A405A605A6865
S3151000C7F0802109020A435A6000207AE18C4B59685D
S3151000C800944A0A405A605A68802149020A435A607B
S3151000C81000206EE1864B59688F4A0A405A605A6862
S3151000C820802189020A435A60002062E1804B5968D0
S3151000C8308A4A0A405A605A688021C9020A435A60D5
S3151000C840002056E17A4B5968854A0A405A605A6860
S3151000C850802109030A435A6000204AE1744B596843
S3151000C860804A0A405A605A68802149030A435A602E
S3151000C87000203EE16E4B59687B4A0A405A605A685E
S3151000C880802189030A435A60002032E1684B5968B7
S3151000C890764A0A405A605A688021C9030A435A6088
S3151000C8A0002026E1624B5968714A0A405A605A685C
S3151000C8B0802109040A435A6000201AE15C4B59682A
S3151000C8C06C4A0A405A605A68802149040A435A60E1
S3151000C8D000200EE1564B5968674A0A405A605A685A
S3151000C8E0802189040A435A60002002E1504B59689E
S3151000C8F0624A0A405A605A688021C9040A435A603B
S3151000C9000020F6E04A4B59685D4A0A405A605A6858
S3151000C910802109050A435A600020EAE0444B596811
S3151000C920584A0A405A605A68802149050A435A6093
S3151000C9300020DEE03E4B5968534A0A405A605A6856
S3151000C940802189050A435A600020D2E0384B596885
S3151000C9504E4A0A405A605A688021C9050A435A60ED
S3151000C9600020C6E0324A53685B005B085360536888
S3151000C970802109060B4353600020BAE02C4B1A891C
S3151000C98001218A431A81198901220A431A8100203A
S3151000C990AFE0274B1A8902218A431A81198902228C
S3151000C9A00A431A810020A4E0214B1A8904218A43E4
S3151000C9B01A81198904220A431A81002099E01C4B16
S3151000C9C01A8908218A431A81198908220A431A8169
S3151000C9D000208EE0164B1A8910218A431A81198974
S3151000C9E010220A431A81002083E0114B1A89202154
S3151000C9F08A431A81198920220A431A81002078E075
S3151000CA000B4B1A8940218A431A81198940220A43FD
S3151000CA101A8100206DE0064B1A8980218A431A81FB
S3151000CA20198980220A431A81002062E0B43201106B
S3151000CA3000B00040FFFEFFFFFFFDFFFFFFFBFFFF03
S3151000CA40FFF7FFFFFFEFFFFFFFDFFFFFFFBFFFFF58
S3151000CA50FF7FFFFFFFFFFEFFFFFFFDFFFFFFFBFF57
S3151000CA60FFFFF7FFFFFFEFFFFFFFDFFFFFFFBFFF38
S3151000CA70FFFF7FFFFFFFFFFEFFFFFFFDFFFFFFFB37
S3151000CA80FFFFFFF7FFFFFFEFFFFFFFDFFFFFFFBF18
S3151000CA90184B1989184A0A401A811989802252009E
S3151000CAA00A431A81002024E0124B1989134A0A40BE
S3151000CAB01A811989802292000A431A81002018E0EF
S3151000CAC00C4B19890E4A0A401A8119898022D20004
S3151000CAD00A431A8100200CE0064B1989094A0A40BC
S3151000CAE01A811989802212010A431A81002000E056
S3151000CAF0172000BD00B00040FFFEFFFFFFFDFFFF47
S3151000CB00FFFBFFFFFFF7FFFF8023DB049C4660441B
S3151000CB10800001607047C0460300064A1268002A6A
S3151000CB2002D10549034A1160024A1068C3181360FE
S3151000CB307047C046804B01106866011001204042C4
S3151000CB407047C04680239B014B6000207047C0464B
S3151000CB50012070470020704710B50122044B1A704F
S3151000CB600023002202211D20024CA04710BDC04602
S3151000CB70844B011019B1001030B587B01020144C39
S3151000CB80A047144B58601020A047134B586001ACB7
S3151000CB902000124B98470023237041336380393BA2
S3151000CBA063600133E360073BA36023610C4D0D4CBA
S3151000CBB001AA0D492800A0470028F9D1084B1A6888
S3151000CBC02821535CDB07FCD40123137507B030BD55
S3151000CBD01D130110684C0110584C0110ADC1001006
S3151000CBE0604C0110C5C100100030004010B588B06F
S3151000CBF001AC2000064B9847064BA36063610023E7
S3151000CC00237023732000044B984708B010BDC0460C
S3151000CC109981001090650000E1810010F0B585B093
S3151000CC202C4B98472C4B98472C4B98472C4B984796
S3151000CC3000202C4B98472C4B98472C4B984701AC0F
S3151000CC4020002B4B98470023237002336370013B5F
S3151000CC50E37021001D20274B9847274B9847274DF7
S3151000CC6065601D2323802000254B98477820254B8F
S3151000CC7098477820244B98470A20244B98476B46B0
S3151000CC80981C234B98472000224B98476B46581CFC
S3151000CC90214B9847C020214B9847022229001D207E
S3151000CCA01F4B98471D201F4B98471F4F1F4D204E57
S3151000CCB0012464422000B8472B78002BFAD03000AC
S3151000CCC01C4B98471C481D4B98470022174B1A704F
S3151000CCD0EEE7C04669AE001065C00010BDB3001087
S3151000CCE05DAB001055A30010EDCB0010E9800010CD
S3151000CCF025BC001035BC001079CB001059CB0010A4
S3151000CD00E98F0010018E0010898900102D8D0010FA
S3151000CD10F588001079860010598700108D9700103D
S3151000CD2039BF001009C0001081AA0010844B0110F1
S3151000CD3070270110C9150110C4330110A914011070
S3151000CD4070B5124D2C68002C14D02668E2602E6047
S3151000CD5000250F4A238113682560A080E180AB422D
S3151000CD6001D1146011E01A68002A01D0131CFAE7E9
S3151000CD701C600AE0C4B2002C07D1064CE260012206
S3151000CD802381054BA080E1801A7070BDA04B011065
S3151000CD909C4B0110884B0110984B011010B5084B95
S3151000CDA0000900011A680818814203D00A600A1C9B
S3151000CDB01031F9E71A600022024B1A6010BDC04606
S3151000CDC0A04B01109C4B011038B51B4C031C258839
S3151000CDD0081C211C9D4207D1A588854204D1012338
S3151000CDE05B422380A26009E04C889C420AD18C8861
S3151000CDF0844207D101235B424B808A600F4B9847D0
S3151000CE00012017E00E498B420ED00E498B4207D0F7
S3151000CE100D4900208B420DD1101C0C4B9847EFE7A3
S3151000CE20111C0B4B002202E0111C0022094B9847E3
S3151000CE304342584138BDC046E4580110CDDF0010BA
S3151000CE40130E0000150E0000010E00003DE3001049
S3151000CE50FDE40010D5E500100023F0B587B004926C
S3151000CE600370049B0390013B0D1C0593033302D8FA
S3151000CE700498AE4B9847059BAD4C033302D900235B
S3151000CE80029315E0002302932368002B13D1029B13
S3151000CE90D02B00D1DAE20498A64B984702900228CC
S3151000CEA0F2D13FE00498A34B98470290022839D05C
S3151000CEB02368002BF6D0029BD02B00D1C6E2029B32
S3151000CEC0033B5A1E9341029A5B421A402368029210
S3151000CED0002B00D1C2E21A68DE682260DA8801925D
S3151000CEE0954A9C88116813601960944B1B78012B26
S3151000CEF00FD1934B924A9888D988D2681B89914F43
S3151000CF00B8471022904B8E480021984700238B4A31
S3151000CF101370029B002B14D18C4B9C4209D08C4B66
S3151000CF209C4227D13A23039A1370002302931D1CA7
S3151000CF3007E0019BA34200D08AE23823039A1370BC
S3151000CF402E60039B1B783B2B01D1824B9847039B8A
S3151000CF501B783B2B03D0059B033304D983E2029B3A
S3151000CF60002B88D0F7E7029BD02B00D17BE27A4BBF
S3151000CF70984778E2019BBB2B25D1BB2C23D16B465E
S3151000CF801B89AB80B3787278F0781B0213437179E2
S3151000CF903279A87071482B80834206D8704A934222
S3151000CFA00BD2704A934208D009E06F48834206D1EB
S3151000CFB00B021343AB80372302E0362300E0002335
S3151000CFC0039A1370BDE7694B9C4200D144E165D8C2
S3151000CFD0674B9C4200D1D5E12FD8664B9C4200D1BD
S3151000CFE0E0E113D8644B9C4200D1A3E104D8382663
S3151000CFF0B44200D125E217E1604B9C4200D19FE17B
S3151000D000FE33FF339C4200D1D3E10DE15C4B9C42D1
S3151000D01000D1A9E108D85B4B9C4200D196E15A4B4E
S3151000D0209C4200D199E1FFE0584B9C4200D1A2E10D
S3151000D030574B9C4200D1D4E1F6E0564B9C4200D1AE
S3151000D040C8E112D8544B9C4200D1D1E104D8534BBD
S3151000D0509C4200D19BE1E7E0514B9C4200D1ADE1EF
S3151000D060504B9C4200D1B0E1DEE04F4B9C4200D1C8
S3151000D070E0E009D8083B9C4200D1D7E04B4B39265B
S3151000D0809C4200D1DDE1CFE0D1231B019C4200D1AF
S3151000D090D6E0474B9C4200D1D8E0C5E0454B9C42B8
S3151000D0A000D117E12ED8444B9C4200D13DE112D855
S3151000D0B0424B9C4200D1E8E004D8033B9C4200D18D
S3151000D0C0D0E0B1E03E4B9C4200D1D0E03D4B9C42BB
S3151000D0D000D1F9E0A8E03C4B9C4200D1DBE008D837
S3151000D0E03A4B9C4200D11BE1394B9C4200D1D8E00F
S3151000D0F09AE0384B9C4200D1D8E0374B9C4200D185
S3151000D100DBE091E0354B9C4200D1F7E076D8344B0A
S3151000D1109C4200D1F8E069D8324B9C4200D1E0E045
S3151000D120314B9C4200D1A9E07EE0C04605E00010DC
S3151000D1309C4B011059B10010A04B0110984B0110D7
S3151000D140884B011041CD001061130110FFFF000044
S3151000D150FEFF0000D1B3001007E000101E200000F3
S3151000D1601D200000030C00001F2000001C0D0000F5
S3151000D1700C0C0000020C0000020A0000030A00005A
S3151000D180060C0000040C0000050C0000070C000043
S3151000D190090C0000170C0000120C00000D0C00000A
S3151000D1A0130C0000150C0000080D0000010D000006
S3151000D1B0150D00001B0E00000F0E0000030E0000E0
S3151000D1C0060E00000A0E0000150E0000110E0000DB
S3151000D1D0130E0000170E0000190E0000270E000097
S3151000D1E0210E00001C0E00001D0E00009F4B9C42DD
S3151000D1F07ED09F4B9C4200D18CE015E09D4B9C420B
S3151000D20000D10AE108D89C4B9C4200D1F7E09B4B19
S3151000D2109C4200D1FAE007E0994B9C4200D103E111
S3151000D220984B9C4200D106E100260AE1301C291CCD
S3151000D230954B14E0301C291C944B9847042600E1AA
S3151000D240301C291C924B98470126FAE0301C291CE9
S3151000D250904B98470F26F4E0301C291C8E4B9847AC
S3151000D260061CEEE00198311C2A1C8C4B17E0311C71
S3151000D27001982A1C8A4B98471126E2E0311C019826
S3151000D2802A1C884B98471226DBE0301C291C864B3B
S3151000D29098470626D5E0311C2A1C0198834B9847DF
S3151000D2A0DEE70198311C2A1C814BF8E7311C0198E6
S3151000D2B02A1C804B98470D26C3E0311C01982A1C66
S3151000D2C07D4B98470E26BCE00198311C2A1C7B4BDF
S3151000D2D0984784E0311C01982A1C794B98470B26F5
S3151000D2E0AFE0311C01982A1C764B98471026A8E00F
S3151000D2F0301C291C744B98472826A2E0301C291C88
S3151000D300724B984729269CE0301C291C704B984775
S3151000D310272696E0301C291C6E4B98472A2690E04B
S3151000D3200198311C2A1C6C4BB9E70198311C2A1C38
S3151000D3306A4BB4E7301C291C694B98472B2680E0B2
S3151000D340301C291C674B98472C267AE0311C019813
S3151000D3502A1C654B9847132673E0311C01982A1C2A
S3151000D360624B984714266CE0311C01982A1C604BBE
S3151000D3709847152665E0311C01982A1C5D4B984785
S3151000D38016265EE00198311C2A1C5B4B87E7311C80
S3151000D39001982A1C584B9847A988061C574B288871
S3151000D3A098474EE0311C01982A1C554B9847232666
S3151000D3B047E00198311C2A1C524B70E7019B301C28
S3151000D3C01F0A2F80291C504B49E70198311C2A1C33
S3151000D3D04E4B64E7301C291C019A4D4B98473B264F
S3151000D3E02FE0311C01982A1C4A4B9847182628E032
S3151000D3F0311C01982A1C484B9847202621E0311CE5
S3151000D40001982A1C454B984733261AE0311C01987F
S3151000D4102A1C434B9847302613E0311C01982A1CCE
S3151000D420404B984734260CE0311C01982A1C3E4B81
S3151000D4309847352605E0311C01982A1C3B4B984726
S3151000D4403226039B1E70002302937AE5D023FBE756
S3151000D450019B029EBB2B00D0E6E6F2E7029B002B57
S3151000D46000D06EE5E0E6029807B0F0BD220E00008F
S3151000D470250E0000051B0000011B0000031B000009
S3151000D480061B0000081B000031EE001015EE001000
S3151000D49079EF001069F000108DF00010A9E100106E
S3151000D4A029EA0010A5EA001061E40010FDE400105E
S3151000D4B0D5E500105DE80010FDE80010B5E9001094
S3151000D4C0DDE90010F3E90010BDEA0010EBEA0010E8
S3151000D4D001EB00102BEB001059E9001083E9001046
S3151000D4E0E9DB001015DC001035F2001071F20010A7
S3151000D4F0B9F20010FDF2001031F30010F5F1001032
