:020000041000EA
:108000001348144910B588420DD0134B99420AD237
:10801000CA43D2180023920801329200C458CC50AF
:1080200004339342FAD10D480D4B98420BD2C14311
:108030000024C9180023890801318900C2180433BB
:1080400014608B42FAD1074B9847074B984710BDF5
:10805000A8A40110A8A401105CA5011060A501103E
:1080600094D90110117D01100DDA001010B5064CE5
:108070002378002B07D1054B002B02D0044800E0E9
:1080800000BF0123237010BD60A501100000000097
:10809000A0E10110084B10B5002B03D00749084898
:1080A00000E000BF07480368002B00D110BD064B5D
:1080B000002BFBD09847F9E70000000064A50110F1
:1080C000A0E10110A0E101100000000070B5094B13
:1080D0009847FA21084C89000500A047074B08493A
:1080E00018602800A0470522064B1860064B1A604E
:1080F00070BDC046C5D10010754A0110ACA4011076
:1081000040420F00A8A4011010E000E0802130B52B
:108110000025084B084A1C684902013808D3002C86
:10812000FBD05460956013680B42FCD00138F6D246
:1081300030BDC046ACA4011010E000E010B50C4BFF
:108140001A7D002A06D001221A730A4B1B68002BE5
:1081500000D098473422064B9A5C002A07D00121B0
:108160002C229954044B1B68002B00D0984710BD5B
:10817000001000407CA5011080A5011002220123FF
:108180004270427300220370037383708373C27062
:10819000C273037103748260426102767047C04605
:1081A000034B002801D0586A70475868FCE7C04666
:1081B00000100040002806D0282280230549885C52
:1081C00003438B5470478023024A117A0B43137286
:1081D000F8E7C04600100040002806D028227F2083
:1081E00005498B5C03408B5470477F21024A137A08
:1081F0000B401372F8E7C0460010004070B5040051
:108200003A4B042098472378002B02D1237B002B84
:1082100057D0202303203649CA681343CB60227EFF
:108220008B6902402D301201834313438B61237805
:10823000002B20D062780120002A50D10223A1789F
:10824000E2784900194092000A331A400B001343A8
:1082500022790343002A3FD1C420A168254A244D36
:1082600011600121137240002E5C3143295480219A
:10827000107A01431172227B002A22D0627B002AED
:1082800024D101230220A27BE17B520010400C226A
:1082900089000A4002431343227C002A01D0202295
:1082A00013436169134AC4201162282153540223E5
:1082B0000F4C4000255C2B4323548023505C034328
:1082C00053540D491E200D4B984770BD012A0BD009
:1082D000022AD7D14023D5E720221343BCE7023A34
:1082E000534253419801A9E70023CBE7D9D40010AA
:1082F00000B00040001000403D810010F1D8001097
:10830000F8B5114D2880501CC0B2688068680170B3
:10831000002A08D00021481C6C68595C21540100D7
:10832000C0B29042F7D3094C094F0A4E03E0013C1A
:10833000A4B2002C05D029003800B0470028F6D19F
:10834000F8BD01204042FBE700C40110E903000032
:10835000F8C30110F1D00010F0B545469846204B07
:1083600057464E46994680B2E0B4924618804A4637
:108370000123538053681B4E19705346308073801D
:10838000194C1A4D1A4F03E0013CA4B2002C23D023
:1083900049462800B8470028F6D1164B124C99469A
:1083A00003E0013CA4B2002C16D031002800C847DD
:1083B0000028F6D152460023002A07D041467268B1
:1083C000D25CCA540133DAB29245F7D800201CBC03
:1083D00090469946A246F0BD01204042F7E7C046CC
:1083E00000C40110F0C30110E9030000F8C301103C
:1083F00021D10010D1D00010242370B5174C82B0C9
:10840000E35C002B12D06B46DD1D002817D12870CD
:1084100023680122597C6368114E18782B00B047FD
:10842000002818D12B78637402B070BDA37A002B9A
:1084300011D0002806D16B46DD1DD871E8E7022374
:108440002B70E5E7637C0020002BEDD16B46DD1D32
:1084500001232B70DCE701204042E5E7B0A40110C6
:1084600001830010F0B5474680B4244D82B0AB7A4A
:1084700007008846002B3DD02B680222197C6B68D0
:108480001F4C18786B46A047061E33D16B461C78EC
:108490005B7824021C43434624B2002B05D0194BC1
:1084A00001209847C0430190019B6B6820009846CB
:1084B000154DA8474346041C0820185EA847134BD7
:1084C000011C201C98474346041CD888A847104B21
:1084D000011C201C98470F490F4B98478F210F4BC9
:1084E000C90598470E4B98473860300002B004BC6D
:1084F0009046F0BD01267642F7E7C046B0A40110D1
:1085000059830010A18100108D5C01100D590110DC
:108510005153011000000C4265500110E556011046
:10852000495C011070B5544C82B0A37A002B00D185
:108530008FE06B46DD1D00232B7023680122597CE0
:1085400063684E4E18782B00B047002800D080E0BA
:10855000236801225979636818782B00B0470028F6
:1085600077D1236801221979636818782B00B04706
:1085700000286ED12423E35C002B34D00C232B7015
:10858000236801221979636818782B00B047002806
:108590005FD13B4B32309847C0232B70A37ADB0767
:1085A00061D4236801221979636818782B00B047D9
:1085B00000284ED1637C002B58D12B7023680122F8
:1085C000597C636818782B00B047002841D1236894
:1085D000287059796368012218782B00B047431E30
:1085E0009841404237E004232B7023680122197917
:1085F000636818782B00B04700282AD1A37C002B91
:108600002BD040232B7023680122197963681878D6
:108610002B00B04700281CD1194B32309847637C9F
:10862000002B26D001232B7023680122597C63681C
:1086300018782B00B04700280BD123002268103394
:108640005179626810780122B047431E9841404238
:1086500001E00120404202B070BDA37ADB07D0D513
:1086600060232B70CFE7E0232B709AE702232B7057
:10867000A4E72B70D8E7C046B0A401100183001016
:108680000D8100100E4B1B7A012B14D0002B0FD044
:10869000022B06D0032B08D1FA23DB000380002035
:1086A0007047FA239B000380F9E700230380F6E775
:1086B000FA230380F3E7FA235B000380EFE7C04669
:1086C000B0A4011070B5204C82B0A37A002B2AD040
:1086D000FA235B00984230D00DD9FA239B009842D0
:1086E00025D0FA23DB0098421DD16B46DD1D1823EF
:1086F0002B70153B05E0FA2815D16B46DD1D0023D4
:108700002B70227A00209A420FD023680122997997
:1087100063680E4E18782B00B047002803D12B78E1
:10872000DB08237201E00120404202B070BD6B46BD
:10873000DD1D10232B700E3BE3E76B46DD1D082388
:108740002B70073BDDE7C046B0A401100183001089
:10875000104A0100537A012B18D0002B13D0022BA2
:108760000BD0032B0CD110230370D37C0020002BE3
:1087700002D00B785B000B70704708230370F4E79E
:1087800001204042F8E702230370EEE70423037060
:10879000EBE7C046B0A4011070B51D4C82B0A37ABF
:1087A000002B24D004282CD009D9082823D0102845
:1087B0001DD16B46DD1D18232B70153B05E00228EB
:1087C00015D16B46DD1D00232B70627A00209A4282
:1087D0000FD023680122D97963680E4E18782B00D8
:1087E000B047002803D12B78DB08637201E0012039
:1087F000404202B070BD6B46DD1D10232B700E3B56
:10880000E3E76B46DD1D08232B70073BDDE7C04621
:10881000B0A401100183001070B5224C82B0A37A7D
:10882000002B33D06B46DD1DBB2822D8612823D90D
:1088300002232B70E27A00209A4218D0236801228A
:1088400099786368184E18782B00B04700281DD11E
:1088500040232A7813432B7023680122197A636816
:1088600018782B00B047002810D12B78E37202B0A3
:1088700070BD01232B70DDE7292804D8132808D9FF
:1088800004232B70D6E703232B70D3E7012040424B
:10889000EDE7092802D905232B70CBE706232B70BF
:1088A000C8E7C046B0A40110018300102422054B84
:1088B0009A5C002A03D1DB890380002070470120E5
:1088C0004042FBE7B0A4011030B5010083B000289E
:1088D00020D0124CE08981421CD864291AD8104B50
:1088E00098476B460138D871242322680D4DD15C1E
:1088F0006368012218786B460733A847051E09D123
:108900006B46D979E0890131074B984720852800CB
:1089100003B030BD01256D42F9E7C046B0A4011097
:10892000754A011001830010894B0110242370B592
:10893000144D0024EB5C002B13D1AC7A002C1DD01D
:108940000133984304402E7C2C74041B631E9C410D
:108950006442002807D12B7D002B00D001200A4B58
:108960009847200070BD084B01209847074B984757
:108970000028F6D001242E746442F2E701246442F8
:10898000EFE7C046B0A40110F98300102585001060
:10899000F0B54D4644465F46564698462423F0B40B
:1089A000684D87B000900191EB5C002B00D0BEE0D9
:1089B00042461370AB7A002B00D1B8E02B7C002B21
:1089C00000D1B4E05C06E40F64009A0601D50234DD
:1089D000E4B2DA0601D50234E4B21B0700D58BE01D
:1089E0002B6803AE197B6B68574F1878022233004F
:1089F000B847BA468146002800D098E037787378A7
:108A00003F021F43A3B29B469F426DD36A685388BF
:108A10005B089F420CD92B681078D97C0122330067
:108A2000D047002800D082E03378DB0600D582E012
:108A3000464B01209847C0430290029B2B682200BE
:108A4000597B6B6818783300D047824600286ED176
:108A50003F4B210038009847109B01381870524650
:108A600043461A700023002C02D02A7C120746D4F9
:108A70005B4539D02A7C510611D5F25CF118497852
:108A800012020A43009902330A80424611784022BA
:108A90000A4341469BB20A709B4525D02A7C910629
:108AA00011D5F25CF118497812020A430099023399
:108AB0004A804246117820220A4341469BB20A70FE
:108AC0009B4511D02A7CD2060ED5F25CF61873783D
:108AD00012021343009A938043461A7810231343DB
:108AE0004246137000239946484607B03CBC904666
:108AF0009946A246AB46F0BD0634E4B270E733783F
:108B0000727801991B0213430B80B378F2781B0231
:108B100013434B80337972791B0213438B80434696
:108B20001A7808231343424613700623A0E7012353
:108B30005B429946D8E7074B984702235B42994628
:108B4000D2E7C046B0A4011059830010A1810010E3
:108B5000894B011025850010F0B5364C83B0A37CFD
:108B6000060083425FD06B46DD1D23680122197920
:108B70006368314F18782B00002E2ED0B84700289C
:108B800055D120222B782D4F93432B7023681F3A09
:108B90001979636818782B00B847002847D1284B0B
:108BA0000330984702232B702033E35C002B37D12E
:108BB0002323E35C002B03D030232A7813432B704C
:108BC00023680122D97D636818782B00B8470028F4
:108BD0002DD10020A67403B0F0BDB847002826D1DF
:108BE000A37ADB0717D420222B7893432B702368BA
:108BF000012219796368114F18782B00B8470028B3
:108C000015D10F4B033098472223E35C002B0CD087
:108C100080232B70CCE720232A7813432B70E6E7C0
:108C200082232B70C4E70020D5E72B70C0E701201A
:108C30004042D0E7B0A40110598300100183001016
:108C40000D810010232370B5174C82B0E35C050042
:108C5000834224D06B46073300281DD11870A27CB4
:108C6000002A03D0022219780A431A702222A25C39
:108C7000002A04D080211A7849420A431A702268D7
:108C80000A4ED17D626810780122B047002808D1D1
:108C90002323E55402B070BD30221A70DFE70020B4
:108CA000F8E701204042F5E7B0A40110018300106D
:108CB000F0B5040083B028285AD8002814D1364BC8
:108CC00000209847072201AB1C70344C5A70226870
:108CD000334D517D626810780222A847051E47D1A6
:108CE0002075280003B0F0BD01202B4B984701AD43
:108CF000012C43D0022C44D0052C3CD90A2C43D85B
:108D000005232B70254C01222368254E597A636870
:108D100018782B00B04700282AD123680122197A3D
:108D20006368204F18782B00B847002820D108230B
:108D30002A7813432B7023680122197A6368187804
:108D40002B00B047002813D120232B702368012269
:108D5000597D636818782B00B047051E08D1082399
:108D6000A372073B2073237500200F4B9847B8E789
:108D700001256D42B5E704232B70C3E702232B7056
:108D8000C0E703232B70BDE7142C02D806232B70F9
:108D9000B8E707232B70B5E7458C0010B0A401108D
:108DA00001830010598300102D89001030B52C4C20
:108DB00083B0A37A0500002B4ED02423E35C002B64
:108DC0004AD1237D002B05D0431E272B40D90020FC
:108DD000244B9847F920032D22D86B46D87123687D
:108DE000214D59786368012218786B460733A847EC
:108DF000051E31D16B46FA20D97980001B4B013119
:108E00009847238DE081181C642B16D8184B80B22C
:108E10009847E089174B40089847280003B030BDB9
:108E2000FA23291C9B009D4209D8FA2089B28000B0
:108E30000E4B98470138C0B2CFE76420E6E7FA202E
:108E4000191C89B28000094B98470138C0B2C4E7A9
:108E5000044B98470025E0E701256D42DDE7C04659
:108E6000B0A40110B18C001001830010894B0110D7
:108E7000C988001019880010F0B54E46574645467F
:108E80007023E0B4034082B00600002B00D195E0CF
:108E90006B469D1D01232B705F4C604F23680122A0
:108EA000597D6368B84618782B00B847002800D071
:108EB000ADE040222B78287093432373324200D1D7
:108EC00093E0B30603D402232A7813432B70F306EE
:108ED00003D401232A7813432B70330700D48AE08C
:108EE00023680122997D636818782B00C047002809
:108EF00000D08CE0082332009A4341D0484B984779
:108F00006B4607339A462368012219796368454FF7
:108F100018785346B847002800D075E0F3073CD5D1
:108F200011232B7053461A78202313435246137093
:108F30002422A25C002A3CD0802252421343524693
:108F4000137026232268D15C6368012218782B00F5
:108F5000C047002858D1236801221979636818781E
:108F60005346C047051E4FD120752F4B3220A672A5
:108F70009847280002B01CBC90469946A246F0BD16
:108F80006B4607339A462368012219796368254F97
:108F900018785346B847002836D110232B70534613
:108FA00020221B789343524613702422A25C002A8D
:108FB000C2D17F22134052461370C2E700281FD14E
:108FC0006B469D1D4023144C2B7099462368134F0C
:108FD000597D6368012218782B00B846B8470028ED
:108FE00015D14A462B789343237304232B70B30681
:108FF00000D56CE767E738232A7813432B706FE7B7
:109000006A46951D2B7047E701256D42B1E70023A5
:109010000125A3726D42ACE7B0A4011001830010DA
:10902000458C0010598300100D810010F0B54D469D
:109030005F46564644468023F0B4A14C85B002AD4D
:109040002B7023680600597D6368012218789D4FB4
:109050002B00B847814600287CD19B4B6420984662
:1090600098474B462B7023680122597D6368187816
:109070002B00B84700286DD140232B702368E07483
:10908000197A6368012218782B00B847051E61D150
:10909000FF23A37223726372E372A374FE3B2373F4
:1090A0002133E05401220133E05460752075200023
:1090B0005242E28122742285844B16300D32002107
:1090C00098472423FA20E5540133E554C000804B2F
:1090D000E584984700283DD102307E4B9847002810
:1090E00038D12A307C4B9847002833D132307B4B23
:1090F000984700282ED17A4B984700282AD1002E75
:1091000004D0716830780222764B9847764B012064
:109110009B469847754B0C25994601AE33000122BA
:1091200000212800C847002802D13378482B1BD0E3
:109130000135EDB2102DF1D16D486E4CA0476E484F
:10914000A0470A206D4B9847041E03D16C4B0020AA
:10915000984701E001246442200005B03CBC9046E1
:109160009946A246AB46F0BD2A239A46E5541A3BDF
:109170003370012233000A212800B8470028E0D1CB
:109180000120C0471F23337053460122E05C0A21AF
:109190003300B8470028D4D10130C04753460322DA
:1091A000E05C10213300C8470028CAD1337801227F
:1091B0008033A38573780A218033E385B3788033C5
:1091C0002386102333705346E05C3300B8470028F1
:1091D000B7D10130C0470020D847402333702368FF
:1091E0000122997E636818783300B8470028A8D117
:1091F00053468022E35C524213433370236881322A
:10920000997F636818783300B847002899D1022302
:10921000337023680122D97F636818783300B84718
:10922000002800D08DE7882322683370683BD15C2A
:109230006368012218783300B847002800D080E71F
:109240002A23E35C226833702123D15C6368012206
:1092500018783300B847002800D072E70A23226844
:1092600033701833D15C6368012218783300B84733
:10927000002800D065E78123226833705E3BD15C13
:109280006368012218783300B847002800D058E7F7
:109290001123226833701533D15C6368012218787A
:1092A0003300B847002800D04BE70323226833700F
:1092B0002433D15C6368012218783300B84740E753
:1092C000B0A40110018300100D810010CB7D0110AE
:1092D000C58600109987001019880010AD8D001008
:1092E0002D890010F5CD0010598B00105983001006
:1092F000D89101103580011048900110C9880010E4
:10930000798E0010F0B50D0083B0161E21D0124CDE
:10931000A37A002B1DD0020A01AB1A70C0B262689A
:10932000587040185189884213DC21681078C97E32
:1093300002220A4FB84700280BD12368EAB2197EEF
:10934000636818783300B847431E9841404203B021
:10935000F0BD01204042FAE7B0A4011001830010E3
:10936000F0B5474680B4294E84B0B37A04008846ED
:10937000DB0742D52823326801AFD15C7368244DE6
:10938000187808223B00A847051E36D103223B78F7
:109390001340012B34D1FB797F2B34D8B9787B78FB
:1093A0000902194309B221803A79FB7812021A4363
:1093B00012B26280BB7978791B0203431BB2A3808F
:1093C0002C27F05F4143091221802E20315E4A4351
:1093D000121262803021725E53431B12A3804346F7
:1093E000002B05D00B4B01209847C0430090009BF9
:1093F000280004B004BC9046F0BD01256D42F7E79B
:1094000002256D42F4E703256D42F1E7B0A4011097
:1094100059830010A1810010024B5B689B89038077
:1094200000207047B0A4011000B585B0092206499C
:1094300001A8064B9847972001AA0921044BC000B8
:10944000984705B000BDC046249401108F7D0110DF
:1094500005930010F0B5474680B4050082B043077D
:1094600067D0C823DB00994263D84C4B080098476B
:109470004B4B4C4998476B46DC1C071C4A4B200061
:1094800098472378042B00D179E031D9082B67D095
:10949000102B4ED18A21454BC905381C9846984758
:1094A000434CA047434986B2381CC047A04780B20E
:1094B00001AC330A2370030A6670A370E070EB07F7
:1094C00027D4AB073BD400206B0734D5EE20220015
:1094D00002214000384CA04700282AD16B462D308D
:1094E0009A1D0221FF30A047431E9841404222E0CE
:1094F000022B1ED18D212D4BC905381C984698474B
:109500002B4CA0472D4986B2381CC047A04780B2DB
:10951000CEE7EA20220002214000274EB047002873
:1095200007D16B4625309A1D0221FF30B047002835
:10953000C7D00120404202B004BC9046F0BDEC20F0
:109540002200022140001C4EB0470028F1D16B469A
:1095500029309A1D0221FF30B0470028B3D0E8E738
:109560008B21124BC905381C98469847104CA047D0
:10957000134986B2381CC047A04780B298E78C21B7
:109580000A4BC905381C98469847094CA0470D4915
:1095900086B2381CC047A04780B289E71D5D011024
:1095A000515301100000484351870010E556011047
:1095B000F14E01100000C044059300100000404629
:1095C000000040450000C045012300B5034083B0C2
:1095D000002B15D16A4607321370830703D50C237D
:1095E00011780B431370430703D5032311780B4302
:1095F0001370A4200121054B4000984703B000BD23
:109600006B46DA1D30231370E7E7C0460593001060
:1096100000B585B000280DD1084909222831084B32
:1096200001A89847972001AA0921C000054B984737
:1096300005B000BD044B9847FAE7C04624940110DA
:109640008F7D0110059300102994001000B583B0A0
:10965000002810D0C02301AA1370023353700233C4
:1096600093700233D3700421054B06489847064B8C
:10967000984703B000BD054B01AA0193F3E7C0462C
:1096800005930010980A0000258500108B8B8B8BAA
:1096900000B583B0002810D0202301AA137008332E
:1096A0005370083393700833D3700421054B064878
:1096B0009847064B984703B000BD054B01AA01939C
:1096C000F3E7C046059300109E0A000025850010B0
:1096D000A3A3A3A3F0B545464E4657460223E0B4E4
:1096E00084B001AC2370C833637019330500A370D4
:1096F0002200DA3B042168207C4EE370B047402210
:10970000A3232A402370904600D1E1E01D3363700B
:109710000833A370063BE370C0277F002F4000D1C1
:10972000D1E0C423237108336371063BA371A323E3
:1097300022000A216E48E37123726372B04703234B
:109740002B40994600D1BBE0202323702200012149
:109750006848B047AB0600D4AEE0674B9847002F8F
:109760000ED0EB0500D5B7E0B0232370303B63701B
:109770003433A370243BE370220004215F48B047D8
:10978000EB0700D490E08B20F82322000121000198
:109790002370B047FA215A4B07209847594B0720AE
:1097A000984700239A4650206B46524601211A7072
:1097B000FF306A46B0476B465246EF201A701423BA
:1097C0006A46022140005370B0476B465246ED2076
:1097D0001A7064236A46022140005370B0476B46FA
:1097E00052461A706A468E23AE2053706B339370C4
:1097F0000421693B4000D370B0476B465246AD2010
:109800001A7008236A46022140005370B0476B4625
:109810005246AC201A7002236A460221400053705F
:10982000B047AB073DD5D92323702200012136482C
:10983000B0476B0731D50120344B9847EB0628D54C
:109840000120334B98470823324C2B436381324B22
:1098500098474346002B19D14346A373002F02D0EB
:10986000A37B0633A37314232B4202D0A37B1033B4
:10987000A3734B46002B02D0A37B0433A3730020B9
:1098800004B01CBC90469946A246F0BD0623A373C3
:10989000E4E71F4B00209847D5E71C4B0020984772
:1098A000CCE7D8232370C0E78B20D82322000121E6
:1098B00000012370B047B4E7184B002098474EE7EB
:1098C000D823237042E7A32323716371A3712EE78A
:1098D0006370A370E3701FE7B2232370273B6370AC
:1098E0002B33A3701B3BE37046E7C0460593001083
:1098F000A70A0000B60A000029940010A20A00007E
:1099000055940010C99500103D0700004D960010B9
:109910009196001084A50110258500101196001065
:1099200010B503494822F431024B9847002010BD7E
:1099300094A501108F7D011010B50E4C0100200080
:1099400048220D4BF4309847982252000B4BA258F6
:10995000BC215A639A225200A2589A679C22520054
:10996000A2585A50032A01D0002010BD0120044BF8
:109970009847F9E794A501108F7D0110D4A6011036
:10998000EDA80010024B186BC005C00F7047C04611
:10999000D4A6011070B50422835E86B0DB03039366
:1099A0000622835E0D00DB0304930822835E04001D
:1099B000DB0305930300426A114E51000C3303AAE6
:1099C0000088B0472B68039A5B10D31A03936B6827
:1099D000049A5B10D31A0493AB68059A5B10D31AF0
:1099E000059323000192626A18335100208803AA6C
:1099F000B0472023226B1343236306B070BDC046DB
:109A0000EDA500109E23024A5B00D0507047C0466F
:109A100094A50110F8B505000E001D4C002808D0D3
:109A2000671CFF3701000C2238001A4B98470028AA
:109A300017D19823184D5B00E6504C3BEB586E63F2
:109A4000002B20D1D822862352035B00E250002253
:109A500004210420114B9847882301225B00E25027
:109A6000F8BD29000C220E4B380098470A4D0D4BCB
:109A700039002800984798235B00E6504C3BEB5890
:109A80006E63002BDED086225200A350DFE7C04673
:109A900094A50110717D0110D4A60110499D0010FC
:109AA0008F7D011095990010882310B5044A5B0042
:109AB000D158481E4442444100212000D15010BDDD
:109AC00094A5011010B50C00002805D006490C2201
:109AD0000131FF31054B9847002C04D08623024A00
:109AE0005B00D358236010BD94A501108F7D011039
:109AF000F0B556464D465F464446F0B43A4B83B007
:109B00001E6800929946002E22DD5B68984217D0AD
:109B10004B469B68994213D04B460024103308E013
:109B20001D6885420CD00C331D00083D2D688D4208
:109B300006D00134B442F3D1132C1DDD0C2000E01B
:109B4000162003B03CBC90469946A246AB46F0BDF9
:109B500000239B46002E26D10193019B5D469C4627
:109B60006544009BAD004D44EB604B460136686098
:109B7000A9601E600020E4E74B469B6899422FDDF8
:109B80004B4600221433934605E00C331C000C3C7A
:109B90002468A14207DD01229446E344B345F4D191
:109BA0005B465B00D8E7B345FADA73009B199B006C
:109BB000083B4B449A465B465B001C005C44A40097
:109BC000083CA4460193CC44544652460C34A8CADF
:109BD000A8C40C235B429846C244D445F4D1BCE7E8
:109BE00000239B46E1E7C04694A50110F0B5174E4F
:109BF0003568002D10DD7368984225D032000023AF
:109C0000103206E00C3214000C3C2468844205D06B
:109C10000B00591CA942F5D10020F0BD0233AB4224
:109C20000FDA5A006900D31849199B008900083BD4
:109C30000839F31871181A000C3291CA91C38B427B
:109C4000F9D1013D3560E7E70123E8E794A501106C
:109C500070B50C001500002804D008490C225C31B6
:109C6000074B9847002D02D0044BDB6F2B60002C74
:109C700002D0024B9B6F237070BDC046D4A601106A
:109C80008F7D011010B503490C221831024B984703
:109C900010BDC046D4A601108F7D011010B5154C23
:109CA0000022230021006D339131FF33FF3104C3C3
:109CB0008B42FCD120004930242200210E4BFF3082
:109CC0009847FE22B62392055B00E250A421802330
:109CD0004900DB056350343162502439635034311C
:109CE0006250B4225200A350C82300225B00E2500D
:109CF00010BDC046D4A60110CB7D0110A02210B526
:109D00005200094C00210948A047CC2200215200F2
:109D10000748A047074B9847074B48220749084C7C
:109D20000848A04710BDC046CB7D011094A5011086
:109D3000D4A601109D9C001093D000002199001022
:109D4000FDA9001039990010002A04D1024A1368B5
:109D50008B431843106070476CA80110010002008B
:109D600000200C3108CA5B135B43C0189142F9D143
:109D70007047C0460A0010B5D317034CC117A0475F
:109D8000C900400F084310BD994E01100A0010B5DC
:109D9000D317034CC117A0478900800F084310BD9B
:109DA000994E0110F0B547460E0080B403680500D7
:109DB000D91733685E4C170000683268DB17A0477C
:109DC0008900830F0B4398466B687268D9177368D4
:109DD0006868DB17A04743468900800F08431B1AB9
:109DE0009846AB68B268D917B368A868DB17A04774
:109DF00043468900800F08431B1A9846EB68F268B7
:109E0000D917F368E868DB17A04743468900800F3D
:109E10000843181A38606B683268D9173368686865
:109E2000DB17A0478900830F0B4398462B687268A5
:109E3000D91773682868DB17A047AB688900800FC3
:109E40000843D917F3688044F268A868DB17A04775
:109E5000EB688900800F0843D917B368B268804463
:109E6000DB17E868A04743468900800F0843181AAB
:109E700078602B68B268D917B3682868DB17A047E9
:109E80008900830F0B4398466B68F268D917F36813
:109E90006868DB17A04743468900800F08431B1AF8
:109EA0009846AB683268D9173368A868DB17A047B3
:109EB000EB688900800F0843D91773687268804483
:109EC000DB17E868A0478900800F08434044B8606A
:109ED000B368D9176B686A68DB17B068A047890058
:109EE000830F0B4398462B68F268D917F3682868EC
:109EF000DB17A04773688900800F0843D917AB6848
:109F0000AA688044DB177068A04743468900800F29
:109F10000843EA681B1A30689846C117D317A04750
:109F20008900800F08434044F86004BC9046F0BDAF
:109F3000994E0110F0B55F4656464D464446002303
:109F40008946F0B497B00693436807009A46DB173A
:109F500019004B464C469B681500DA1710006468E0
:109F6000BA68A3469046E417D217009201941A00EB
:109F70003B4C03930490030002915046A047890094
:109F8000860F019B0E435A4640460099A047890020
:109F9000800F0843361A07964E4636683F68F11719
:109FA0008946F9174246009B059130004946A04773
:109FB000820F1000890008438046039A049B3800F2
:109FC000F917A04742468900800F0843101A019BE9
:109FD00008905A4638000599A0478900870F029BD0
:109FE0000F43524630004946A0478900800F08437E
:109FF0001C4C3F1A0AAA06A928000997A0472B68FB
:10A000000AA812936B680EAA5B421393AB6812A95D
:10A010005B421493EB685B421593A047109C0F982A
:10A02000002C01D1002819D00F4EB047C2210F4D8E
:10A030008905A847071C2000B047C2218905A84709
:10A040000B4B391C984780231B069C46604417B075
:10A050003CBC90469946A246AB46F0BD0020F6E7D0
:10A06000994E0110A59D00108D5C0110E556011060
:10A070008505011010B503681C000B689C466444FC
:10A08000146043681C004B689C46644454608368B9
:10A090001C008B689C4664449460C068CB68C318FD
:10A0A000D36010BD03680B6043685B424B608368FC
:10A0B0005B428B60C3685B42CB607047F0B50023A6
:10A0C0000400170091B00F4D0C2209A80893A8476F
:10A0D0006A4608A920000C4EB04723680CAA0493D6
:10A0E000636804A95B420593A36868465B420693D4
:10A0F000E3685B420793B0470C220DA93800A847DC
:10A1000011B0F0BD8F7D0110A59D0010F0B5574630
:10A110004E464546E0B43A4C05000E00006809681A
:10A120009146A0477168071C6868A047354B011C21
:10A13000381C98469847B168071CA868A047011CBE
:10A14000381CC047F168071CE868A047011C381C90
:10A15000C0474B46186071682868A047316882463E
:10A160006868A047284F011C5046B847F1688246EE
:10A17000A868A047011C5046B847B1688246E86805
:10A18000A047011C5046C0474B465860B16828683C
:10A19000A047F16882466868A047011C5046C04746
:10A1A00031688246A868A047011C5046B8477168CC
:10A1B0008246E868A047011C5046B8474B46986065
:10A1C000F1682868A047B16882466868A047011C0A
:10A1D0005046B84771688246A868A047011C50469F
:10A1E000C04731688046E868A047011C4046B84730
:10A1F0004B46D8601CBC90469946A246F0BDC0466E
:10A20000E55601100D59011065500110F8B5060012
:10A210000F00094D096800681400A847206079689C
:10A220007068A8476060B968B068A847A060F9681E
:10A23000F068A847E060F8BD65500110F8B55F46CA
:10A2400056464D464446F0B40368414C9A4643682E
:10A25000C768994683685146050050469846A0470E
:10A26000494683464846A0473A4E011C5846B047E7
:10A27000414683464046A047011C5846B047391C1A
:10A280008346381CA047011C5846B0478021324BFA
:10A29000C905061C984700280CD1FE239B052B609E
:10A2A00000236B60AB60EB603CBC90469946A246D5
:10A2B000AB46F8BDFC21301C8905A0478346011C34
:10A2C000301CA047311CA047011CFF20234B8005F8
:10A2D0009847011C301CA047061C011C5846A0478B
:10A2E000311CA047011CFF201C4B80059847011C16
:10A2F000301CA047061C011C5846A047311CA04733
:10A30000011CFF20154B80059847011C301CA047FD
:10A31000061C011C5846A047311CA047011CFF2009
:10A320000E4B80059847011C301CA047061C011CE1
:10A330005046A047311C28604846A047311C686041
:10A340004046A047311CA860381CA047E860ABE736
:10A35000E556011065500110014E01100D59011014
:10A36000F0B557464E464546E0B443680168994605
:10A370008368214DC7680400081C9846A8474946D1
:10A3800082464846A8471D4E011C5046B0474146EC
:10A3900081464046A847011C4846B047391C8046C4
:10A3A000381CA847011C4046B0470025144B98476D
:10A3B000291C144B061C984700280AD0FE239B0535
:10A3C00023606560A560E5601CBC90469946A24686
:10A3D000F0BD0D4D311C2068A847311C206060681D
:10A3E000A847311C6060A068A847311CA060E068E5
:10A3F000A847E060E8E7C046E55601106550011047
:10A400008D050110F54D01105153011080221206E7
:10A41000944603680B60436863444B6083686344FD
:10A420008B60C3686344CB607047C046F8B54F4645
:10A430004646C0B443680E009846DB179946036849
:10A4400004001A00D917684D0B001000A847C90076
:10A45000470F0F4342464B4640464946A847C02354
:10A460001B069C46C900400F084338186044306002
:10A470006368A268D917A3686068DB17A847E36818
:10A48000C900470F0F43D91723682268E068DB171C
:10A49000A847C900400F08433F1A7760A3682268A5
:10A4A000D9172368A068DB17A8476368C900470F5E
:10A4B0000F43D917E368E2686068DB17A847C90053
:10A4C000400F08433818B060E3682268D917236842
:10A4D000E068DB17A8476368C900470F0F43D91727
:10A4E000A368A268DB176068A847C900400F08434B
:10A4F0003818F060A3689846DB17994623681A005D
:10A50000D9170B001000A847C900470F4B460F434F
:10A51000424649464046A847C0231B069C46C90000
:10A52000400F0843381860443061A368E268D917C7
:10A53000E368A068DB17A8476368C900470F0F43AB
:10A54000D917236822686068DB17A847C900400F45
:10A5500008433F1A77616368E268D917E368606867
:10A56000DB17A847A368C900470F0F43D917236813
:10A570002268A068DB17A847C900400F08433F1AAC
:10A58000B76123686268D91763682068DB17A8473A
:10A59000E368C900470F0F43D917A368A268E068B2
:10A5A000DB17A847C900400F08433818F061276837
:10A5B000E068FB17C117984602000B00A847C900C6
:10A5C000440F43460C433A0038004146A847C02395
:10A5D0001B069C46C900400F0843201860443062A7
:10A5E0000CBC90469946F8BD994E0110F8B55F46EF
:10A5F00056464D464446F0B41F00032301259B46B2
:10A6000003409B009B589246CA170E0091460400D7
:10A610004007C01728435843194B32009846C117CA
:10A620004B46C0475A46E308134052468900800F04
:10A63000084338609B00A0069B58C0172843584326
:10A6400032004B46C117C0475A46A3091340524631
:10A650008900800F084378609B00E4059858E41750
:10A660002C43604332004B46C117C0478900800F1E
:10A670000843B8603CBC90469946A246AB46F8BD3C
:10A68000994E011010B5084B9847084CA047002878
:10A6900007D1074CA047002803D1064CA04700284B
:10A6A00001D0A047A04710BDDDA9001011A90010DE
:10A6B000FD9C0010C1A8001010B5034CA047002855
:10A6C00001D0A047A04710BDA9A900108023024ACD
:10A6D000D05000207047C04670A80110C82110B5A6
:10A6E000072289000248034B9847002010BDC0464E
:10A6F000CDA60010F19A0010022370B5064C0D0093
:10A70000E26F01001343E3672300103310221800A7
:10A71000024B9847656270BD70A801108F7D0110D3
:10A72000012370B5064C0D00E26F01001343E3678F
:10A730002300403310221800024B9847256270BD59
:10A7400070A801108F7D011070B5054C0D0021001F
:10A7500010224031034B9847236A2B6070BDC046DE
:10A7600070A801108F7D0110014B186D7047C04615
:10A7700070A80110024B9A6E02606422985C7047C8
:10A7800070A80110642210B50C4B995C81420CD06A
:10A790000021985401389966434243410220002227
:10A7A000C01A0331064B984710BD022902D000227F
:10A7B0009A66F9E79A6E01329A66F5E770A8011079
:10A7C000499D001010B503490C222831024B9847CF
:10A7D00010BDC04670A801108F7D0110F8B5124C55
:10A7E000124D0600E1686068A84721680700A0686C
:10A7F000A8473F1A3760E168A068A84721680700AA
:10A800006068A84738187060E1680800A84707002A
:10A8100020680100A847C0231B069C4638186044E6
:10A82000B0600020F8BDC04670A80110759D0010F2
:10A8300010B5040086B0002200210C4B984703A8F5
:10A840000B4B98470020039B22689B13D31A23606D
:10A85000049B626801939B13D31A6360059BA268F3
:10A860009B13D31AA36006B010BDC046519C0010C4
:10A87000DDA7001010B5034910221031024B984794
:10A88000002010BD70A801108F7D011010B5094C7B
:10A89000882200212000084B98478023DB05636352
:10A8A000A363E3632364236123608423034A0020BA
:10A8B000E25010BD70A80110CB7D0110DB0F4940A4
:10A8C00010B5044B9847002802D10348034B984722
:10A8D00010BDC0468DA80010DDA6001089A900108B
:10A8E000014B186F7047C04670A80110014B1867E4
:10A8F0007047C04670A8011010B51623002802D07A
:10A90000024B98470300180010BDC04631A8001044
:10A9100010B5542200210248024B9847002010BD78
:10A92000F8A80110CB7D011070B5154D2C68002CD6
:10A930000EDD6B6898420DD02A000023083204E037
:10A940000432111F0968814205D00133A342F7D1B7
:10A95000162070BD0023621E9A420DD0591CE21AC7
:10A9600089009B00EB18013A69189200181D043108
:10A97000044B98472B685A1E2A600020E9E7C0461E
:10A98000F8A80110A17D0110064A16211368132BA7
:10A9900001DD0800704799005118013348601360C9
:10A9A0000021F6E7F8A80110F8B50B4E3368002B2C
:10A9B00010DD00240027351D2B689847002802D0A1
:10A9C000002F00D10700336801340435A342F3DCC3
:10A9D0003800F8BD0027FBE7F8A80110CC2210B51D
:10A9E000044C520000212000034B98470C23636065
:10A9F00010BDC0464CA90110CB7D0110F0B54746F3
:10AA000080B488461B4984460F68002F18DDB020AB
:10AA10000C58A34212D00D000024BC3505E00C35C3
:10AA20002E000C3E36689E4208D00134BC42F6D15E
:10AA30001620132F04DD04BC9046F0BD1620FAE763
:10AA40007800C019800008180400A8300260604631
:10AA5000B0342360BB1C9B00C8503B0040461633FB
:10AA60009B00C8504B6801370C339A184A600F603E
:10AA70000020E0E74CA90110C078002800D0E220B7
:10AA80007047C046002070479B22204B9200F0B5D3
:10AA900004009818913A4746FF3A9446DA3A01255D
:10AAA0000026904680B41A4F1A00563A1188228820
:10AAB00091420ED07C338342F6D1164B164898470C
:10AAC0002288A178154B16489847002004BC904670
:10AAD000F0BD1A78052A0ED0082A0CD0072A08D80B
:10AAE000290091400A006146114206D141461142B7
:10AAF000E0D11E70DEE71D70DCE71E703A78002A98
:10AB0000D8D03A78013AD2B23A70D3E77EC4011075
:10AB10008CC6011035800110D8910110157F0110ED
:10AB2000A4950110F0B5474680B4334F06003B00B2
:10AB3000002445881A89AA4222D001347C33052C8E
:10AB4000F8D13379002B49D02C4BFB5C012B12D967
:10AB50002B4F2C4D3800A8472B482C4CA047708811
:10AB600013212B4B9847002805D03800A8472948C7
:10AB7000A047E22500E00025280004BC9046F0BD77
:10AB80001A005E321278032AD7D13579002DDFD131
:10AB90001C4B1B4898471D4B1F48984763011C1BC3
:10ABA0003278A4003B191A75327931001A760522E1
:10ABB0005E331A703819194B22310B3236309846F1
:10ABC000984731003819323117223C194630C047B6
:10ABD0002000B11D1C221A30C047CDE7084E094D98
:10ABE0003000A847094C0C48A0473000A8470C4843
:10ABF000A047E225C0E7C04620C40110CA020000F9
:10AC0000D891011035800110D4950110157F0110E5
:10AC100099E80010F4950110109601108F7D011035
:10AC20003C96011010B5782301220121024C0088C6
:10AC3000A047002010BDC046B9E80010F0B544465A
:10AC400056465F464D468246F0B487B003AC0922B3
:10AC50000021634B2000984753461988614B984662
:10AC600018001A00002315898D4241D001337C322F
:10AC7000052BF8D1002302891F008A4256D00133E8
:10AC80007C30052BF7D10527022323725346DB784E
:10AC90004146A3700423012223707B010093DB1B38
:10ACA0009B00CB5C6270022B00D184E0A271E27148
:10ACB000102363712371009BDE1B4346B6009B1972
:10ACC0001B7E402B4AD0009B2100DA1B534692008A
:10ACD0006032188842440023434DA847002832D1EF
:10ACE000002007B03CBC90469946A246AB46F0BD5A
:10ACF00015005E352D78022DB8D142465D01E91A66
:10AD000089005218160006275E363770127DD60766
:10AD100003D55646F678002E51D10222EB1A9B003D
:10AD200043445E331A7053461988A3E702005E322B
:10AD30001278022AA3D15B01DB1B9B0043445E33E4
:10AD400001321A70A0E700232848A3706370284BD3
:10AD500098472848284B9847E220C2E7274B350000
:10AD600099460F239B460196683560364644454414
:10AD7000C8475B4618403070C8475B461840B074FF
:10AD80000136AE42F4D10F239B46019E70364644F5
:10AD9000C8475B46184028700135B542F8D1C8470E
:10ADA000009BDB1B9B0043441A0070321080102272
:10ADB0007A331A7087E70133A371E37178E753465A
:10ADC000414418881A310E4B9847002800D187E774
:10ADD000074B064898470B48074B9847E22080E707
:10ADE000CB7D011020C4011005EC0010D89101109A
:10ADF0003580011084960110157F011049800110E3
:10AE0000F1ED00106C960110F0B556465F464D46C8
:10AE10004446454BF0B49A461A00002387B0009090
:10AE2000008811891C00814240D001337C32052BFF
:10AE3000F7D1052400225146022303AF3A70FA707D
:10AE400062019046121B92008A5C3B72013BBB7010
:10AE50007B70022A64D0BB71FB7110237B713B7144
:10AE600043461E1B5346B6009B191B7E402B2AD01F
:10AE700043461A1B9200009B6032188852440023FC
:10AE800039002A4CA047002809D000232848BB706D
:10AE90007B70284B98472848284B9847E22007B0FA
:10AEA0003CBC90469946A246AB46F0BD11005E31CF
:10AEB00009780229B9D103225B011B1B9B00534473
:10AEC0005E331A70B6E71E4B350099460F239B463A
:10AED00001966835603656445544C8475B4618406D
:10AEE0003070C8475B461840B0740136AE42F4D1AA
:10AEF0000F239B46019E70365644C8475B46184058
:10AF000028700135B542F8D1C84743461B1B9B004A
:10AF100053441A007032108010227A331A70A7E757
:10AF20000233BB71FB7198E720C4011005EC0010DF
:10AF3000D891011035800110B0960110157F0110D5
:10AF400049800110F0B55F4656464D464446F0B480
:10AF5000070087B004AC019006224049404E03AD83
:10AF60002000B047042239002800B047EB78002BBE
:10AF70002ED080236A885B009A420BD0AB78012BDD
:10AF800052D00024200007B03CBC90469946A2460F
:10AF9000AB46F0BD334B18009A46334B9946984761
:10AFA000324B334898469847324E0027E05D0137D0
:10AFB000B047062FFAD1019BA978188822002E4BA2
:10AFC00098470028DDD05046C8472C48C047D8E7EE
:10AFD000244B18009A46244B99469847234B2848FF
:10AFE000984698470023274F9B4603E01A00303AC3
:10AFF000092A21D91E20B847C3B2002BF6D15046EA
:10B00000C8472148C0475046C8472048C047019B11
:10B01000132118881E4B9847E2240028B2D05046CE
:10B02000C8471C48C047ADE70F4B0E4898471A4821
:10B030000E4B98470024A5E75A46A354FF230D4E14
:10B040001840B04701239C46E3445B46062BD1D110
:10B050005046C8471148C047A7E7C0466095011051
:10B060008F7D0110D891011035800110157F0110DE
:10B0700020970110497F011035ED001058970110FD
:10B08000D8960110A9BB0010009701100C97011071
:10B0900099E80010F4950110709701108C97011039
:10B0A000F0B54746294E80B43100070000220588DC
:10B0B00008891400A8421CD001327C31052AF7D13E
:10B0C0000524234B234F98461800B847224D2348A8
:10B0D000A8474046B8472248A84763011B1B9B006E
:10B0E000F318188905211F4B9847E22004BC9046AD
:10B0F000F0BD0B005E331B78012BDDD95501AD1A75
:10B100000622AD00731998465E331A705A8A7B88FE
:10B110009A42D6D171197231381D0822124B9847C4
:10B120000028CED12B0042466033117D9B19388810
:10B1300001220E4CA0470028D8D0064B044898475F
:10B140000B48054B98470020D0E7C04620C40110AB
:10B15000D891011035800110157F0110A0970110C2
:10B16000D897011099E80010717D011069EE001068
:10B170003098011010B50078002806D0034B044821
:10B1800098470448044B9847E22010BD35800110D1
:10B19000D891011050980110157F011010B50400CE
:10B1A000C078002808D0054B05489847A278218828
:10B1B0000448054B9847E22010BDC0463580011079
:10B1C000D891011064980110157F0110F8B5254D34
:10B1D00000242B00070000881A892100824218D021
:10B1E00001347C33052CF7D1BE78002E2CD00521FC
:10B1F0004B015C1A0723A4002C1926765E342370B9
:10B2000019481A4B98471A481A4B9847E2263000BB
:10B21000F8BD1A005E321278062AE1D1BE78002EFF
:10B22000E6D1124B10489847124B134898476301D8
:10B230001C1BA4002C19230008225E331A70FB7813
:10B240002375BB782376E2E7074E084D3000A84708
:10B25000084C0948A0473000A8470848A047E22604
:10B26000D5E7C04620C40110D891011035800110E7
:10B270009C980110157F0110B0980110D49801100E
:10B28000F8B5154C2378132B0DD9144F144E3800F4
:10B29000B0471448144DA847144B9847E22400289F
:10B2A00015D12000F8BD23780100DBB29A00D21836
:10B2B000D200D3180E4A9B18180029220D4B98472C
:10B2C000237823780133DBB223700024E9E73800C8
:10B2D000B0470948A847E4E7E8BE0110D89101103B
:10B2E00035800110FC980110157F011079E80010DD
:10B2F00004C701108F7D01103499011000207047A0
:10B3000000207047F0B55F4656464D464446F0B4BF
:10B310000027824B91B01F6007220021804B06005E
:10B3200080489847122200217D4B7F489847CD22C4
:10B330007E4B92001F700021794B7D4898478322F5
:10B340007C4B92001F700021754B7B4898477B4BCC
:10B3500080249A468023DB0099461A00002150463B
:10B360006F4B9847764D64012200002128006C4BFA
:10B370009847744B1C229B4618000021684B984745
:10B380005B4652469A604A461D61DA605C616E4BCC
:10B390006E4D1F605F609F60DF601F616C4B6D4C86
:10B3A0001F606D4B2F601F606C4B6F60AF60EF6074
:10B3B0002F6127606760A760E76027611F605F609B
:10B3C0009F60DF601F61664B1F60664B98469B2342
:10B3D0009B0043449A46402399467C2200214046E4
:10B3E0004F4B9847424600235E321370494642460F
:10B3F00011767C229446E044D045EED15A4A13702F
:10B400005A4B18009A465A4B99469847594B5A48F6
:10B41000984698475846594B984700285ED12B00CC
:10B4200014332A68002A62D004359D42F9D12300E2
:10B4300014332268002A6DD00434A342F9D10921C3
:10B440004F48504B9847002803D05046C8474E48B5
:10B45000C0474E490722083104A84D4D06ACA84705
:10B460002622002120002E4B9847002E47D0504620
:10B47000C847307833797279B17903907078029047
:10B48000B0780190F07800904248C0470A232370BA
:10B49000414B0722310007A86380A8470023E376C9
:10B4A00023776377A377E3772384638480239B00E8
:10B4B000A3842000394B984700281BD13000384B1B
:10B4C0009847002803D05046C8473648C04711B0B7
:10B4D0003CBC90469946A246AB46F0BD5046C84794
:10B4E0003148C0475046C8473048C047FEE7304B58
:10B4F0002B609CE75046C8472E48C047DEE704A8AB
:10B500002D4B984704AE0028B1D05046C8472B4871
:10B51000C047ACE72A4B236091E7C046E4BE011068
:10B52000CB7D0110ECBE0110CCC60110E8BE0110AD
:10B5300004C70110FCC6011038CA0110E4AA0110AA
:10B54000E4AE0110E0C60110B8C60110A4C6011097
:10B5500000C701100CC4011008C4011090C60110EE
:10B5600044CC011020C401108CC60110D8910110E8
:10B5700035800110157F01104C99011071E6001003
:10B58000BC99011089E50010C8990110609501105F
:10B590008F7D0110F8990110983A0000E1E5001044
:10B5A00025E80010549A011060990110809901104B
:10B5B000B89B0110309A0110BDE50010E099011010
:10B5C0007C95011010B501220121064B98470028F7
:10B5D00006D0054B054898470548064B9847E2209A
:10B5E00010BDC046B1ED001035800110D89101109A
:10B5F000909A0110157F0110F0B54D4644465F4604
:10B600005646F0B4857A99B00400002D56D1694BA6
:10B6100099461800684B9846984760782379627974
:10B62000A1790290A078654F0190E078009064487D
:10B63000B8474846C04721896248B84712222100CE
:10B64000614B62489847624B072218009B462100D5
:10B65000604B98478246002840D15F4B1B78042BF3
:10B6600000D976E05D4B0026A8461F000722210086
:10B670003800584B9847002800D176E001367C37D7
:10B68000052EF3D145460027554B1A78002A00D1E4
:10B690007DE001377C33052FF7D15346002B47D18E
:10B6A0007B01DF1B4D4BBF009C4605236744BB74E9
:10B6B0000722002158464B4B984707E03E4B3D4838
:10B6C0009847A17A48483D4B98470025280019B073
:10B6D0003CBC90469946A246AB46F0BD2378022B6F
:10B6E000BBD104AD50223F4B0021280098473F4B6F
:10B6F00022009C460023644694461E002200103619
:10B70000B6B21078591CE8548BB20132B342F8D16A
:10B710007C34502BF1D12A0061460520344B9847E8
:10B72000051ED3D04846C0473248B847E225CDE78A
:10B730007B01DF1B294BBF009C460A236744BB7477
:10B74000072200215846274B984720892A4B9847C3
:10B75000BCE74846C047204B28481978C9B2B847CB
:10B7600020891321264B9847B0E71C4A370094469E
:10B77000454673019B1B9B00634402225E331A7093
:10B78000210005325846134B9847824685E7134AF5
:10B790007B019046DB1B9B00984412220A4B210040
:10B7A000404698470C4B0C4A1B780133DBB21370B0
:10B7B0004346E2E7D891011035800110157F011052
:10B7C000B09A0110F49A01108F7D0110CCC60110BF
:10B7D000ECBE0110717D01108CC6011020C4011057
:10B7E0007EC40110CB7D01106C9B011066C401105A
:10B7F000C5E800100C9B0110C5B50010309B01106E
:10B8000099E80010F8B50378002B0DD10024214DE4
:10B81000214F461C102229003000B84700280ED0C6
:10B8200001347C35052CF5D100231C4A1178002900
:10B8300019D001337C32052BF8D10020F8BD60010E
:10B84000001B840016480222001903005E331A70A0
:10B850000A23144C837410322100134B984720891B
:10B86000124B9847E9E75D01EB1A0D4D9B000D4C1B
:10B87000ED1812220C4B2100280098470C4A13782F
:10B880000133DBB213702B0002225E331A700A23DD
:10B89000AB74E4E766C40110717D01107EC4011031
:10B8A00020C40110CCC601108F7D0110C5B5001059
:10B8B0008CC60110F8B50D003B2865D8364B8600C4
:10B8C0009B599F46354B38381B68C0B2002B05D0BA
:10B8D0008000C358002B01D028009847F8BD304B9A
:10B8E0001B68002BFAD09847F8E700242D4F3B59EE
:10B8F000002B04D09B59002B01D02800984704341A
:10B90000142CF4D1EAE700261338C4B2264FA40061
:10B91000BB59002B04D01B59002B01D0280098479D
:10B920000436142EF4D1D9E700261D38C4B21F4FB7
:10B93000A400BB59002B04D01B59002B01D02800B8
:10B9400098470436142EF4D1C8E7194B27381B68E2
:10B95000C0B2002BBCD1C1E7164B2D381B68C0B25A
:10B96000002BB5D1BAE700263638C4B2124FA40076
:10B97000BB59002B04D01B59002B01D0280098473D
:10B980000436142EF4D1A9E70C4D0D4C2800A04725
:10B990002800A047A2E7C0467094011044CC0110D3
:10B9A000E4BE0110A4C60110B8C601100CC40110F9
:10B9B00000C7011008C4011090C60110D8910110F1
:10B9C00035800110F8B50F4D04002B78012B15D0F0
:10B9D0000D4E0E4F22000E4B3100380098472B7849
:10B9E0000400012B07D0002C03D138783100094B1B
:10B9F00098472000F8BD084B9847F4E7074B984755
:10BA0000E6E7C046F3BE011038CA0110FCC60110BB
:10BA100019DE0010B5B8001011C3001039C30010B2
:10BA200070B506000D00034C29003000A047002827
:10BA3000FAD170BD8DC9001070B506000D00034C21
:10BA400029003000A0470028FAD170BD7DC9001040
:10BA500010B50E4B1A78012A0CD00D4B1B68002B29
:10BA600007D00C4C20789847012221000A480B4B44
:10BA7000984710BD01321A70054B1B68002BF8D196
:10BA800002210548064B9847F3E7C046F8BE01106F
:10BA900000BF0110FCBE011048CC0110A1C900106C
:10BAA000FDC9001070B50021194B00209847194CB2
:10BAB000194B20009847E1235B02236003220223F5
:10BAC000164DA360E260A361E36123626362013209
:10BAD000134B226101321D606261124B124A280031
:10BAE0001A60124A124B13491A602200124B9847EF
:10BAF000124E134C336800219868A0473368002128
:10BB00005868A047280002220E490F4B984770BD85
:10BB100041D100106CCC0110A5C7001048CC011019
:10BB200094CF011090CF011039BA001021BA001043
:10BB30008CCF011000400040D1C7001058A5011063
:10BB4000E580011051BA0010C9C90010F0B5474690
:10BB50000E4C80B48046A047A0470D4FB8470D4E0D
:10BB60000D4A0E4BB0470400FA204346800058436C
:10BB70000D00B84702000B0020002900B047084B19
:10BB80009847084B186004BC9046F0BDC5D1001022
:10BB9000C5780110396C0110C7AEFE19EFD8093F06
:10BBA000214F0110F4BE0110012370B5154C0500A2
:10BBB0002370154B154E1B68002B1DD02800144B0D
:10BBC00098470023134D01222B702900124B30009F
:10BBD000984712480021036803E0013B0121002B34
:10BBE00008D02278022AF8D1002903D1002328782E
:10BBF000237070BD0360F9E702213000084B9847BD
:10BC0000DCE7C046F8BE011000BF011048CC0110AF
:10BC10004DBB0010FCBE0110A1C90010F4BE011004
:10BC2000DDC9001030B50C4B1C68002C10D0256805
:10BC3000E2801D6000232360084BA1601A68A08089
:10BC4000002A01D105E01A001368002BFBD1146013
:10BC500030BD1C60FCE7C04608BF011004BF0110E6
:10BC6000002210B5074C084B20001A6023007830E2
:10BC700019001A600C330A008342F9D1034B6C346B
:10BC80001C6010BD0CBF011004BF011008BF0110E3
:10BC900010B5064B064A196811605A68054B1A60C0
:10BCA000054B1B68002B00D0984710BD94CC0110A9
:10BCB0000CB0004010B0004070CF011070B504000F
:10BCC000134B0C3C1D68134B1B689847002C18D075
:10BCD000E388052B15D0EB0714D40F4B02201B680B
:10BCE00098470E4B1B6898470D4C032023689847D4
:10BCF0000028FAD10B4B02301B68984701220A4BEF
:10BD00001A6070BD094B1868094B1B689847F8E723
:10BD1000ECB10040B4BF0110ACBF0110BCBF0110BA
:10BD200098BF0110A0BF011020B00040A4BF0110B7
:10BD300094BF011070B50E4C0021322220000D4B33
:10BD400098470126002102254A00A154A2185378E1
:10BD500001313343DBB2AB43012053701929F3D1D6
:10BD6000637883436370E3788343E37070BDC046B8
:10BD7000B0CC0110CB7D0110F8B544465F46564665
:10BD80004D46F0B4554C2378002B04D02378DBB219
:10BD9000012B00D19EE0524B9847524A524B1168FA
:10BDA000524D0B401360524A524913600868524B7F
:10BDB000524E03400B605360002399464A46504B55
:10BDC00050491A60802280231204EA509346802250
:10BDD0005204EA504C4B924633604C4A4C4B28205C
:10BDE00013604C4A11604C4A11684C4A11604C4A2D
:10BDF00011684C4A11604C4A4C4911604C4A4D49FB
:10BE000011604D4A904641464C4A0A604C4A4D49A1
:10BE100011604D494D4A11604D4F4E4A4E493A60AE
:10BE20004E4A11604E4A4F4911604F4A4F491160C6
:10BE30004F4A50491160504A504911609847504943
:10BE400033682820984733684E49272098474E4B3F
:10BE500000211A684D4B4E481A604E4B4E4A1A60EC
:10BE60004E4B4F4A1A604F4B4F4A1A604F4B504A45
:10BE70001A60504B504A1A60504B514A1A60514B4D
:10BE8000514A1A60A022514B920098478022504B91
:10BE900092001A804F4B98475B462B6053464A46A8
:10BEA0002B604D4B4D4D1A6043464D4A1B68002098
:10BEB0001A603B684B4A1A60A8470120A847022035
:10BEC000A8470123002023703CBC90469946A24617
:10BED000AB46F8BD23700120F6E7C0469CBF0110B9
:10BEE00035BD00100CB00040D30FFEFF00E100E0B4
:10BEF00094CC011010B00040C0E7FFFF64CF0110E8
:10BF0000B8BF011051BC0100D7070000A0CC011040
:10BF1000BD07000068CF0110BC00041090BF0110E5
:10BF2000B80004108CBF01109CCC01109FB9010017
:10BF3000A8CC0110DBB9010078CF01103C0004103F
:10BF4000ACCC0110C01F0410C41F041074CF01102A
:10BF50006CCF0110D41F0410D81F0410A4CC011002
:10BF6000ACBF0110E9CB0100A0BF01108FCD0100D3
:10BF7000BCBF0110A3CE010098BF0110CFCB0100C0
:10BF800015C40010B5C30010E4000410B4BF0110C4
:10BF9000E4CC0110C4BF0110E99F010094BF01105F
:10BFA000DDDB0100A8BF01105BDC0100A4BF0110B4
:10BFB000EC050410B0BF0110E3D50100C8BF0110AB
:10BFC000200C041088BF0110099F0100CB7D0110D7
:10BFD0007CCF011061BC001070CF011055C400105F
:10BFE00091BC001071C40010054B1A780523012A7A
:10BFF00001D018007047034B18600023F9E7C046D2
:10C000009CBF0110B8BF011070B50E4B04001B6837
:10C010004088002B14D09847010060800A4DA28808
:10C020002D68E3882088A847E2880500002A03D00D
:10C030002100064B083198472800054B984770BDF2
:10C040000100EBE790BF0110C4BF01108F7D01100C
:10C05000BDBC001070B516000A021D000243A020EE
:10C06000094B05211C68C0002B00A047041E0AD004
:10C07000002D05D0002E03D02A003100034B984735
:10C080002000034B984770BDC4BF01108F7D011085
:10C09000BDBC0010F0B544465F4656464D460023F1
:10C0A000F0B4441E89B00193E31C00D8EAE00023F9
:10C0B0009946884B00279846874B884D9B46884B6E
:10C0C000884E9A4603E04B460727002B52D0434642
:10C0D000290030681B6898470028F4D12C68A38891
:10C0E0009946CD239B0099454FD0238903936389BB
:10C0F0000293019B002B00D07BE0A023DB0099453D
:10C1000051D053461B682C68002B00D184E0CD220F
:10C11000A388920093423DD0734A744F91463B707E
:10C120001B0A7B70724B176020891B6898474B462F
:10C130003871000A787118682B68DB8843802C6896
:10C140006389C3804B46083018606289002A00D09A
:10C1500092E05346083238001B68110098470023CC
:10C16000032799462C685B4620001B6898474B467E
:10C17000002BACD1019B002B50D1380009B03CBC46
:10C1800090469946A246AB46F0BD554B1B680293BC
:10C19000002B41D001239946019B002BE3D00023C3
:10C1A000D0279946DFE7534B1F889946029BDA193F
:10C1B000A0239B009A4203DD80274B46BF001F80CF
:10C1C00021004A4B029CFF1822000C3138004A4BD8
:10C1D000984722003900494B039898474B46A4469C
:10C1E0004A461B882C686344138000230227994623
:10C1F000B9E70D22002104A8414B9847332304AA34
:10C200001370303B537093700233137193710D218F
:10C2100010003C4B984770E79946A4E7336898466E
:10C22000002B53D01C6A142343449A46364B504685
:10C230001B6898470025002C19D0CD26264B2000DE
:10C24000B6009B469946444603E0050080680028F6
:10C250000DD003689B88B342F7D18368002D2FD09F
:10C26000AB604B461B689847A8680028F1D1274B64
:10C2700050461B68984780E721001F4B0C319847B8
:10C28000628966E70D2200211D4B04A898473323DD
:10C2900004AA1370303B537093700233137193717F
:10C2A000230A5372230C9372012314721373240E06
:10C2B000144B0D211000D472984701230193F6E628
:10C2C00023625B461B689847206AC0E74B461B6A9F
:10C2D000FFDEC046B0BF011088BF011084BF01104F
:10C2E000B8BF0110C8BF0110C0BF0110E4CC0110DD
:10C2F0008CBF01107CCF01108F7D011025BC001078
:10C30000CB7D011009C00010A8BF011094BF01101F
:10C31000802010B5024B00021B689847082010BD12
:10C320009CCC0110802010B5024BC0011B689847BF
:10C33000002010BDA8CC0110802010B5044CC00115
:10C34000236898478020236800029847002010BD8A
:10C35000A8CC0110144915480B8F0A8D9BB20243DB
:10C3600092B20A85DB05DB0D18D0DBB25A421340CE
:10C37000012B17D0002201325B08D2B2012BFAD177
:10C3800093409BB20B870B8FDB05DB0DEAD180213D
:10C39000074A81334900FF33D15070470B8F034365
:10C3A0009BB2EFE70123EDE7001001400080FFFFA3
:10C3B00000E100E0144915480B8F0A8D9BB202433F
:10C3C00092B20A85DB05DB0D17D0DBB25A4213406F
:10C3D000012B16D0002201325B08D2B2012BFAD118
:10C3E00093409BB20B870B8FDB05DB0DEAD18021DD
:10C3F000074A8133FF33D15070470B8F03439BB201
:10C40000F0E70123EEE7C046000001400080FFFF97
:10C4100000E100E010B50B4C238F5B0B02D10A4BFF
:10C42000984710BD094B1B689847238F228F5B0BE1
:10C430005B03134323878021C023054A49005B0027
:10C44000D150EEE70010014055C3001068CF011035
:10C4500000E100E00323022801D918007047002200
:10C46000024B8000C2500023F7E7C04680CF011086
:10C47000027810B503680400012A1CD01A04120EB9
:10C48000012A0ED01A02120E012A00D010BD0F4A46
:10C490009268002A01D0904723680D4A1340236018
:10C4A000F4E70A4A5268002A01D090472368094AF3
:10C4B00013402360E6E7054A1268002A01D090473E
:10C4C0002368FF2293432360D8E7C04680CF011042
:10C4D000FFFF00FFFF00FFFFF0B547460C0080B4F0
:10C4E0009046002811D1002A0DDD094E094D8F1804
:10C4F000210030682B6801349847BC42F8D140468F
:10C5000004BC9046F0BD0020FAE701204042F7E766
:10C5100094CF01108CCF0110F0B54746013880B49C
:10C520000E001500022810D8002A15D00B4B00244D
:10C5300098460B4F02E00134A5420BD04346315DD3
:10C5400018683B6898470028F5DA0120404204BC8F
:10C550009046F0BD2800FAE70020F8E794CF0110DC
:10C5600090CF011070B5214B1C6823681D7DEDB282
:10C570006A060DD51E212222A1541A7E23318A4338
:10C580001A762123E25C193B13421DD123681A7CE1
:10C5900001222A4217D01B7C6169DBB20B706369F0
:10C5A00001336361A38B013B9BB2A383A38B9BB23B
:10C5B000002B08D12121605C1D39014203D02020CD
:10C5C000205C014208D170BD2022A25C1342DDD064
:10C5D000200023699847D9E71E3163542168200061
:10C5E0000B7E93430B76E3689847ECE798CF0110F6
:10C5F000012170B5224B1C6823681D79EDB22942D8
:10C600000CD0A26910780132C0B2A2611870E38B1D
:10C61000013B9BB2E383E38B002B22D010232B4200
:10C6200004D02122A15C203A0A420BD120232B42C4
:10C6300007D02122A15C1F3A0A4202D0E35C1A42D1
:10C6400019D170BD2021615C0A42EFD00021213256
:10C65000A154216820000A7A9A430A7263689847B5
:10C66000E4E72268137A8B43137210232268117A4D
:10C670000B431372D2E7A36820009847E1E7C04656
:10C6800098CF011070B5214B5C6823681D7DEDB219
:10C690006A060DD51E212222A1541A7E23318A4317
:10C6A0001A762123E25C193B13421DD123681A7CC0
:10C6B00001222A4217D01B7C6169DBB20B706369CF
:10C6C00001336361A38B013B9BB2A383A38B9BB21A
:10C6D000002B08D12121605C1D39014203D02020AC
:10C6E000205C014208D170BD2022A25C1342DDD043
:10C6F000200023699847D9E71E3163542168200040
:10C700000B7E93430B76E3689847ECE798CF0110D4
:10C71000012170B5224B5C6823681D79EDB2294276
:10C720000CD0A26910780132C0B2A2611870E38BFC
:10C73000013B9BB2E383E38B002B22D010232B42DF
:10C7400004D02122A15C203A0A420BD120232B42A3
:10C7500007D02122A15C1F3A0A4202D0E35C1A42B0
:10C7600019D170BD2021615C0A42EFD00021213235
:10C77000A154216820000A7A9A430A726368984794
:10C78000E4E72268137A8B43137210232268117A2C
:10C790000B431372D2E7A36820009847E1E7C04635
:10C7A00098CF0110E12303225B0203600023C260E3
:10C7B0000132037143718371C3710261023301322B
:10C7C000836042618361C361036243627047C04614
:10C7D000F0B54746002380B41700002283834360EE
:10C7E0008360C360036143618361C383203301605D
:10C7F000C2540133C2540133C254524B0500994212
:10C8000000D16CE0504B994200D181E0FA790223CB
:10C81000002A00D00233013BDEB24C4B3C0098466C
:10C820000336B6000834BE19218A01CCC0B2C04715
:10C83000A642F9D12B681A7DD20704D501211A7CB2
:10C840001A7D1142FBD1002120229954FB797A797B
:10C85000591E8B4159013B791343BA790B43022A84
:10C860003AD034D9032A2FD0042A01D10E221343FF
:10C87000202229688B54364B3E6898473100354B4F
:10C880000400984782B20004000C70433109201A5A
:10C890000023814207D20133DBB2401A8142FAD32E
:10C8A00001331B075B0F002128202C68D200215484
:10C8B00013432A689BB293842B68002019762B6857
:10C8C000197204BC9046F0BD0A221343D0E7012A36
:10C8D000CED102221343CBE706221343C8E71E4CF6
:10C8E0000920A0470A20A0471C4C0920A0470A2085
:10C8F000A0471B4B1B4910201B4C1D60A0471B4928
:10C900001120A04701221A4B1A6001321A607DE7FC
:10C91000114C0B20A0470C20A047104C0B20A04727
:10C920000C20A0470E4B134912200F4C5D60A0470E
:10C9300011491320A04704220D4B1A6004321A60DB
:10C9400064E7C046004000400050004019CD001090
:10C95000C5D10010754A0110D9D40010D1D10010F2
:10C9600098CF011065C50010F1D80010F1C5001076
:10C9700000E100E085C6001011C700100268012028
:10C9800013791842FCD00020117070470268012012
:10C99000137D1842FCD0137C00200B707047C046FA
:10C9A00010B51723002A01D1180010BD2224035D01
:10C9B000DBB2052BF8D005238283012241610355A8
:10C9C00003681A760023EFE79300C3185960012328
:10C9D00020219340425C134343547047012321229A
:10C9E0008B4010B5845C23438354012904D1202358
:10C9F0000268117A0B43137210BDC046012210B5B4
:10CA000021248A40035D93430355012904D1026820
:10CA10001F31137A8B43137210BDC04600230120CF
:10CA200070B5124D2E68318F89B202009A400124F0
:10CA3000114209D10133102BF7D18021C0230C4AB8
:10CA400009045B00D15070BD92B232874622AA5AC7
:10CA50001A411442F1D04422AA5A1A411442ECD08D
:10CA60009B00EB185B689847E7E7C046A0CF011032
:10CA700000E100E0F0B557464E464546E0B41B4E97
:10CA80000024B36C01251F8FBFB27B0B5B0398465C
:10CA9000174B9A468E23994613E02B00A3401F4262
:10CAA0000CD0B26C9BB213874B46F35A23411D4204
:10CAB00004D08C23F35A23411D4207D10134102C9A
:10CAC00009D04346002BE8D0D047E6E71234A40053
:10CAD0003419636898478021C023064A49045B00E3
:10CAE000D1501CBC90469946A246F0BDA0CF011083
:10CAF00051BC010000E100E09023802210B51A49EA
:10CB00005201C858038F9BB2134210D18022920168
:10CB1000134220D18022D20113421ED1DB0B1ED141
:10CB20008021C023114A89045B00D15010BD0C2420
:10CB3000D62392B20287CB5A012223411A42EFD068
:10CB4000D423CB5A23411A42EAD02434A400091931
:10CB50004B689847E4E70D24EAE70E24E8E78022D3
:10CB60000F241202E4E7C046A0CF011000E100E06C
:10CB700000230122037042708370C3707047C04667
:10CB8000030070B51720012B2BD9072B2AD89D0045
:10CB90001038A8405A4C626C824362641A001D3AF5
:10CBA000022A34D81F24574D4A78287DE41A012AD6
:10CBB00063D00122A2400243D2B22A75CA78002A69
:10CBC00023D01F20C01A0123800083404D4900203C
:10CBD0000A8813439BB20B8002234B4A11780B4304
:10CBE000137070BD0F2B3ED9172B4AD807221400A3
:10CBF0001C40A400A240424DE86C9043E864CDE79D
:10CC000003409A40414B92B21A820020E9E70A7829
:10CC1000002A1AD10F2B49D801329A403C4892B2CF
:10CC200082824A78012A63D0002A50D0022A5DD13C
:10CC300001219940324A0B00506D010019435165A2
:10CC4000116D002099431165CBE7012ADDD10F2B2F
:10CC500046D90F201F2BD3D903409A402D4B92B2B7
:10CC60001A820020BDE7072214001C40A400A24045
:10CC7000234DA86C9043A86490E7A2409043287588
:10CC80009CE71A002C3AD0B2032800D986E7012687
:10CC9000822496401B4DE400285D2A5D0007000FAA
:10CCA000B0430F26B24302432A5577E70F201840BE
:10CCB0001F2B05D801228240144892B28282B0E72D
:10CCC00001238340134A9BB29382002089E701210C
:10CCD00099400B000A48026D13430365002080E76A
:10CCE0009A400B4B92B21A8200207AE7172078E71D
:10CCF00003489A40016D0B0093430365002070E7E1
:10CD000000B0004000F0004000E000400010014092
:10CD10000000014000300140FF2370B50D0A1940AA
:10CD200007280ED807248600B440314B5A6CA24322
:10CD30000C00B4405A645A6C22435A64012936D01C
:10CD400070BD0F2816D8072422000240920094409C
:10CD5000274B9E6CA6439E640E00964032009C6C4E
:10CD600022439A640129EBD1A8310B283ED9D62160
:10CD7000490020E01728E3D807242200024092004F
:10CD800094401B4BDE6CA643DE640E0096403200DE
:10CD9000DC6C2243DA640129D2D1132825D903247B
:10CDA000DA22204052009958C0003C3415E0032894
:10CDB0000ED9D221490003221040C0003C328240EB
:10CDC00085405C5894435C505A5815435D50B7E712
:10CDD000D0223F2452009958C00084408540A1438E
:10CDE000995099580D439D50AAE7B031FF31E2E7C1
:10CDF00000B00040F0B58C4600230F2804D91F3343
:10CE000083429B415B420133012A43D0002A33D045
:10CE1000022A15D0032A21D00F2210400E3A824058
:10CE2000234CDD006146EB185D0028188000DB0014
:10CE30002018E3184433416019880A431A80F0BD72
:10CE40000F2210400E3A8240DD00194CEE18F60019
:10CE5000A15997B20F85A6593786E3E70F221040F4
:10CE60000E3A8240DD00124CEE18F600A15997B23E
:10CE70000F85A659B786D5E70F2210400E3A82409B
:10CE8000DD000B4CEE18F600A15997B28F85A6591C
:10CE9000B786C7E70F2738408240DD00044CEE1804
:10CEA000F600A15997B28F85A6593786BAE7C046D2
:10CEB000A0CF011010B580220F281BD91F2814D92C
:10CEC0000F4B92041A6002230F2210400E3A824048
:10CED000D9000C4CCB18DB00E11846310888E35828
:10CEE000104392B208801A8410BD054B52041A6098
:10CEF0000123E9E7024B12041A600023E4E7C0466D
:10CF000000E100E0A0CF0110114A10B5140000218B
:10CF10000020D8341300403B02C39A42FCD1508019
:10CF200010804832A242F5D10A4B0B4A0B491A60D5
:10CF30000B4A0C4C9A649022272099500A49A0472A
:10CF40000A492820A0470A492920A04710BDC04609
:10CF5000E4CF0110A0CF01100000014000300140DB
:10CF600000100140F1D800101DCA001075CA001051
:10CF7000F9CA0010F0B54F464646C0B44D88814608
:10CF80001723002D04D118000CBC90469946F0BD23
:10CF900028240268135DDB07FCD4012334241355D5
:10CFA000143C135502240B88FF345B0023439BB2CF
:10CFB00013800123002498464046137BDBB21842BD
:10CFC00006D01079671C8446664648680655BCB290
:10CFD000AC42F1D3DB0603D41021137A1942FCD002
:10CFE0004B46597900230029CDD120315354CAE74B
:10CFF000F0B58446282402684E88135DDB07FCD414
:10D00000012334241355143C13550B88E0345B0082
:10D010002343012500249BB21380137ADBB21D4207
:10D0200004D04868671C045D1480BCB2B442F4D3D9
:10D03000DB0603D41021137A1942FCD063465B79D6
:10D04000002B01D1202153540020F0BD0323037095
:10D050000D334380083B43600133C360073B83606B
:10D060000361704770B51500040001602822002D8F
:10D070000DD08B5CDB07DB0FDBB2002BF9D10B751E
:10D0800023680F4A934217D00E4A934201D01720CB
:10D0900070BD19200C4B9847298928790B4E2468BC
:10D0A000B047287B298AB0472B78002023746B88EF
:10D0B000238301232377EBE7034B03209847EBE718
:10D0C0000030004000340040D9D4001019CD0010C9
:10D0D000030010B51720002B06D0002904D0002231
:10D0E00018005A71014B984710BDC04675CF00100B
:10D0F00070B504000D001720002C0AD0002908D0BC
:10D10000002304486371044B984729002000034B17
:10D11000984770BD049C0110157F0110F1CF0010DD
:10D12000030010B51720002B06D0002904D00122DF
:10D1300018005A71014B984710BDC046F1CF00103E
:10D14000012821D0002816D0022812D10C20184A1C
:10D15000936983439361174A174B1A600320144B5A
:10D1600001409A6982439A619A690020114399614A
:10D1700000E0172070470C230D4A90690343936128
:10D180000C4A0D4B1A60E9E70822094B98690243E3
:10D1900004209A619A69824380209A61074A0003B9
:10D1A000536803435360064A034B1A60D6E7C046F0
:10D1B00000B0004080BA8C0178D0011000F000402F
:10D1C00080841E00014B18687047C04678D001105B
:10D1D00000B5352800D96DE1B74B80001B58B74A20
:10D1E0009F4602230020117D0B43137500BD0123D0
:10D1F000117D00200B431375F8E7802113690904A2
:10D200000B4313610020F1E780211369C9030B432D
:10D2100013610020EAE78021136989030B4313613E
:10D220000020E3E78021136949030B4313610020C9
:10D23000DCE78021136909030B4313610020D5E764
:10D2400080211369C9020B4313610020CEE78021BE
:10D25000136989020B4313610020C7E7802113691A
:10D2600049020B4313610020C0E7802113690902C2
:10D270000B4313610020B9E780211369C9010B43F7
:10D2800013610020B2E78021136989010B43136108
:10D290000020ABE78021136949010B431361002093
:10D2A000A4E78021136909010B43136100209DE766
:10D2B00080211369C9000B431361002096E7802188
:10D2C000136989000B43136100208FE780211369E4
:10D2D00049000B431361002088E780231169002077
:10D2E0000B43136182E74023116900200B43136154
:10D2F0007CE72023116900200B43136176E710239C
:10D30000116900200B43136170E7082311690020A5
:10D310000B4313616AE70423116900200B43136177
:10D3200064E70223116900200B4313615EE70123C8
:10D33000116900200B43136158E78021D368C905A8
:10D340000B43D360002051E78021D36889050B434C
:10D35000D36000204AE78021D36849050B43D3609E
:10D36000002043E78021D36809050B43D3600020E8
:10D370003CE78021D368C9040B43D360002035E724
:10D380008021D36889040B43D36000202EE78021DD
:10D39000D36849040B43D360002027E78021D3687A
:10D3A00009040B43D360002020E78021D368C90320
:10D3B0000B43D360002019E78021D36889030B4316
:10D3C000D360002012E78021D36849030B43D36068
:10D3D00000200BE78021D36809030B43D3600020B2
:10D3E00004E78021D368C9020B43D3600020FDE627
:10D3F0008021D36889020B43D3600020F6E68021A8
:10D40000D36849020B43D3600020EFE68021D36844
:10D4100009020B43D3600020E8E68021D368C901EC
:10D420000B43D3600020E1E68021D36889010B43E0
:10D43000D3600020DAE68021D36849010B43D36032
:10D440000020D3E68021D36809010B43D36000207C
:10D45000CCE68021D36849000B43D3600020C5E6A9
:10D460008023D16800200B43D360BFE62023D1681E
:10D4700000200B43D360B9E61023D16800200B4392
:10D48000D360B3E60823D16800200B43D360ADE638
:10D490000423D16800200B43D360A7E60223D168A0
:10D4A00000200B43D360A1E60423117D00200B4331
:10D4B00013759BE6172099E6089C011000B0004008
:10D4C0000122044B59689143596059680A435A60D4
:10D4D0007047C04600B0004000B5432800D900E2C4
:10D4E000D54B80001B589F46D44BD54A1989002044
:10D4F0000A4080211A811A8909010A431A8100BD54
:10D50000CE4BD04A198900200A4080211A811A89FD
:10D5100049000A431A81F2E78021C84B00201A898A
:10D520008A431A81802219890A431A81E7E7042174
:10D53000C24B00201A898A431A81042219890A439E
:10D540001A81DCE7BD4BC04A596800200A4080219F
:10D550005A605A6849040A435A60D0E7B74BBB4A3D
:10D56000596800200A4080215A605A6809040A4319
:10D570005A60C4E7B14BB64A596800200A4080217E
:10D580005A605A68C9030A435A60B8E7AB4BB14ABC
:10D59000596800200A4080215A605A6889030A436A
:10D5A0005A60ACE7A54BAC4A596800200A4080217C
:10D5B0005A605A6809030A435A60A0E79F4BA74A7A
:10D5C000596800200A4080215A605A6889000A433D
:10D5D0005A6094E78022994B596891435960596881
:10D5E00000200A435A608AE7944B20225968F4E7E6
:10D5F000924B08225968F0E7904B02225968ECE7F9
:10D6000040218E4B00201A898A431A8140221989B1
:10D610000A431A8173E72021884B00201A898A4324
:10D620001A81202219890A431A8168E71021834B45
:10D6300000201A898A431A81102219890A431A8103
:10D640005DE708217D4B00201A898A431A81082250
:10D6500019890A431A8152E7784B814A19890020B7
:10D660000A4080211A811A89C9000A431A8146E7B3
:10D67000724B7A4A198900200A4080211A811A893E
:10D6800089000A431A813AE780216C4A09065368E7
:10D6900000205B005B08536053680B4353602EE728
:10D6A000664B704A596800200A4080215A605A68C7
:10D6B000C9050A435A6022E7604B6B4A596800204B
:10D6C0000A4080215A605A6889050A435A6016E761
:10D6D0005A4B664A596800200A4080215A605A68AD
:10D6E00049050A435A600AE7544B614A59680020C9
:10D6F0000A4080215A605A6849030A435A60FEE68C
:10D7000002214E4B00201A898A431A81022219896C
:10D710000A431A81F3E6494B564A596800200A40E9
:10D7200080215A605A6809050A435A60E7E6434B6C
:10D73000514A596800200A4080215A605A68C90439
:10D740000A435A60DBE63D4B4C4A596800200A40C8
:10D7500080215A605A6889040A435A60CFE6374BE1
:10D76000474A596800200A4080215A605A68C90215
:10D770000A435A60C3E6314B424A596800200A40C6
:10D7800080215A605A6809020A435A60B7E62B4B57
:10D790003D4A596800200A4080215A605A68C901F0
:10D7A0000A435A60ABE6254B384A596800200A40C4
:10D7B00080215A605A6889010A435A609FE61F4BCC
:10D7C000334A596800200A4080215A605A6849014A
:10D7D0000A435A6093E6194B2E4A596800200A40C2
:10D7E00080215A605A6889020A435A6087E6134BBF
:10D7F000294A596800200A4080215A605A68490223
:10D800000A435A607BE60D4B0D4A596800200A40D6
:10D8100080215A605A6809010A435A606FE6074B33
:10D820000F4A596800200A4080215A605A68C9008E
:10D830000A435A6063E6C046E09C011000B0004015
:10D84000FFF7FFFFFFFEFFFFFFFFFFFEFFFF7FFF72
:10D85000FFFFBFFFFFFFDFFFFFFFF7FFFFFDFFFF42
:10D86000FFFBFFFFFFFFFFBFFFFFFFDFFFFFFFEF3C
:10D87000FFFFEFFFFFFFFFF7FFFFFFFBFFFFFFFDD6
:10D88000FFFFFBFFFF7FFFFFFFBFFFFFFFDFFFFF8C
:10D89000FFEFFFFFFFFFFDFFFFFFFEFF0121124B28
:10D8A00000201A898A431A81012219890A431A81A0
:10D8B00025E60D4B0D4A596800200A4080215A6028
:10D8C0005A6849000A435A6019E6074B40225968D2
:10D8D00083E6054B102259687FE6034B0422596802
:10D8E0007BE617200BE6C04600B00040FFFEFFFFBE
:10D8F0008023DB049C466044800001607047C04682
:10D90000044A1368002B03D01818106018007047E1
:10D91000014BF9E7CCBF0110A0E10110012040420A
:10D920007047C04680239B0100204B607047C04673
:10D930000120704700207047012210B5044B0221DE
:10D940001A711D2000230022024CA04710BDC046C2
:10D95000D0BF011055C0001070B5102086B0144C17
:10D96000A047144B58601020A047134B01AC5860DF
:10D97000124B200098470023237041336380393BCA
:10D9800063600133E3600E4D073B0E4EA3602361DD
:10D9900022000D492800B0470028F9D128212A6823
:10D9A000535CDB07FCD40123137506B070BDC04681
:10D9B0005D7D011000C40110F0C301104DD00010B6
:10D9C000F8C3011065D000100030004010B588B0D9
:10D9D00001AC2000094B9847094B2000A3600123AC
:10D9E0005B42636100232374064B9847064C00207A
:10D9F000A0470120A04708B010BDC0467D8100109F
:10DA000090650000FD810010D9810010F0B54446FA
:10DA100056464D465F46F0B497B004AB9C460B2586
:10DA200000266544864B2E709847864B9847864B58
:10DA30009847864B98470020854B9847854B13ACF9
:10DA40009847854B98472000844B98470223637082
:10DA5000013B2100E3701D20814B26709847814BCC
:10DA60009847814B200063601D2323807F4B98479C
:10DA70007F4C002800D0E0E07E4B9847002800D083
:10DA8000D9E07D4B98477D4B98477D4B98477D4B20
:10DA900098477D4B9847322800D1C0E0002800D03D
:10DAA000BBE07A4B79209847794B78209847794B9F
:10DAB0000A209847784B0A20984704AB9C460E20D2
:10DAC000764B60449847764B08A898472800754BDA
:10DAD000984704AB9C461220734B60449847734BA5
