:020000041000EA
:108000001348144910B588420DD0134B99420AD237
:10801000CA43D2180023920801329200C458CC50AF
:1080200004339342FAD10D480D4B98420BD2C14311
:108030000024C9180023890801318900C2180433BB
:1080400014608B42FAD1074B9847074B984710BDF5
:1080500074750110747501102C7601102C760110C6
:108060009CA20110BD43011019E3001010B5064C8D
:108070002378002B07D1054B002B02D0044800E0E9
:1080800000BF0123237010BD2C76011000000000FA
:10809000A8AA0110084B10B5002B03D007490848C7
:1080A00000E000BF07480368002B00D110BD064B5D
:1080B000002BFBD09847F9E7000000003076011054
:1080C000A8AA0110A8AA01100000000070B5094B71
:1080D0009847FA21084C89000500A047074B08493A
:1080E00018602800A0470522064B1860064B1A604E
:1080F00070BDC04665DA0010CD180110787501100A
:1081000040420F007475011010E000E0802130B58E
:108110000025084B084A1C684902013808D3002C86
:10812000FBD05460956013680B42FCD00138F6D246
:1081300030BDC0467875011010E000E010B50C4B62
:108140001A7D002A06D001221A730A4B1B68002BE5
:1081500000D098473422064B9A5C002A07D00121B0
:108160002C229954044B1B68002B00D0984710BD5B
:1081700000100040487601104C76011002220123C5
:108180004270427300220370037383708373C27062
:10819000C273037103748260426102767047C04605
:1081A000034B002801D0586A70475868FCE7C04666
:1081B0000010004070B504003A4B04209847237823
:1081C000002B02D1237B002B57D0202303203649DC
:1081D000CA681343CB60227E8B6902402D301201A6
:1081E000834313438B612378002B20D062780120D6
:1081F000002A50D10223A178E27849001940920068
:108200000A331A400B00134322790343002A3FD15B
:10821000C420A168254A244D116001211372400039
:108220002E5C314329548021107A01431172227B44
:10823000002A22D0627B002A24D101230220A27BC3
:10824000E17B520010400C2289000A400243134394
:10825000227C002A01D0202213436169134AC420E2
:1082600011622821535402230F4C4000255C2B43FC
:1082700023548023505C034353540D491E200D4B5F
:10828000984770BD012A0BD0022AD7D14023D5E7E9
:1082900020221343BCE7023A534253419801A9E715
:1082A0000023CBE779DD001000B000400010004053
:1082B0003D81001091E10010F8B5150001221E006B
:1082C000124B134C5A80134F5A6880B218801170A9
:1082D000208019003800104B65809847002811D184
:1082E000210038000D4B984700280BD10023002DAA
:1082F00006D06268D25CF2540133DAB2AA42F8D3F3
:108300000020F8BD01204042FBE7C046A0900110CC
:108310009090011098900110C1D9001081D90010DF
:1083200030B583B00C0000256946CD800C4908802B
:10833000501CC0B24880486804700020002A07D052
:10834000441C4D68185C28552000E4B29442F7D3D1
:10835000044B05489847431E9841404203B030BD46
:10836000A0900110A1D9001098900110F0B55646C8
:1083700044465F464D46F0B4F04CF14EA54406939A
:108380000123059204AA137400235374ED4B0C00CF
:1083900098461B680500597D43465B6802221878A1
:1083A00008ABB047B246071E00D03AE2C820E64B01
:1083B000984704AB1F7443461B680122597C43460F
:1083C0005B68187808ABB047002800D029E2434624
:1083D0001B680122597943465B68187808ABB0479F
:1083E000002800D01DE243461B680122597D434608
:1083F0005B68187808ABB047002800D011E243460C
:108400001B680122997E43465B68187808ABB04729
:10841000002800D005E243461B6801221979434633
:108420005B68187808ABB047002800D0F9E10C234E
:1084300004AA137443461B680122197943465B68FA
:10844000187808ABB047002800D0EAE10F30BE4BE7
:10845000984743465B6B04AA5B7A137443461B68D8
:108460000122997843465B68187808ABB04700282A
:1084700000D0D6E143465B6B04AA1B7A13744346D3
:108480001B680122597843465B68187808ABB047EF
:10849000002800D0C5E1059B002B00D1E3E1434655
:1084A00020275B6B7F429B7A04AA3B4313744346AD
:1084B0001B680122997943465B68187808ABB0477E
:1084C000002800D0ADE143465B6BDB7A1F4304AB71
:1084D0001F7443461B680122D97943465B681878AC
:1084E00008ABD047002800D09BE1C830964B984796
:1084F000402304AA137443461B680122197943469A
:108500005B68187808ABD047002800D089E1782351
:1085100004AA137443461B680122597943465B68D9
:10852000187808ABD047002800D07AE1069BA860F5
:1085300068602860A06060602060002B00D0A5E12A
:10854000824B0793079B82489847002399460A204D
:108550007D4B984743461B680222197B43465B6864
:108560007C4E187808ABB047002800D059E104AB26
:10857000187C5B7C000218430C21774B9847C3B2F0
:108580009B464A46C8239B1A5B4500DB56E13823CD
:108590005B429E1AF3B29B465A0043461B685A44FC
:1085A000597B43465B6892001878D2B208AB694E9B
:1085B000B047002800D034E15A46013AD2B2013225
:1085C00051008A1808AB92009F189978DA7809024E
:1085D00011431A7958791202024318785E78000222
:1085E0003043266800B2B44660442060606809B237
:1085F000844661446160A16812B28C46197A624473
:10860000A2605A7A090211439A7AD87A1202024376
:108610009879DE79000230432E6800B2B446604497
:108620002860686809B2844661446960A96812B22A
:108630008C460C336244AA609F42C6D1D9444B4653
:10864000C72B84DD069B002B00D024E14946434B19
:1086500043489847002304AA137443461B68012229
:10866000597943465B68187808ABD04780460028A4
:1086700000D0D6E04B46DB179A462868394EC11722
:10868000030C09041943832200230004B0474A461F
:108690005346B047286068688322C117030C090459
:1086A000194300040023B0474A465346B047686068
:1086B000A8688322C117030C09041943000400238E
:1086C000B0474A465346B047A8602368DA17944635
:1086D00067461A0C390411431804CB179B049A0CF3
:1086E000002312184B419904900B08434A469913F2
:1086F0005346B04763682060DA17944667461A0C01
:10870000390411431804CB179B049A0C0023121848
:108710004B419904900B08434A4699135346B0477E
:10872000A3686060DA17944667461A0C390411434F
:108730001804CB179B049A0C002315E0DCFDFFFF07
:10874000218300107C7501100D810010E14601109D
:108750006C560110B9820010CD180110C1450110EE
:1087600088560110A91C011012184B419904900B56
:1087700008434A4699135346B047A060002900DCDD
:108780008DE04C4B9C466044A060069B002B4BD078
:10879000079B49489847494A206893469047DE21FD
:1087A000474A890592469047464A914690470600B7
:1087B000A0680F00D847DE218905D047C84702903E
:1087C00003916068D847DE218905D047C847320049
:1087D000009001913B0005993B4C3C48A047079B0A
:1087E000354898472868D847DE218905D047C847CB
:1087F0000600A8680F00D847DE218905D047C84782
:10880000029003916868D847DE218905D047C847A0
:108810003200009001913B0005992B4C2C48A04759
:1088200002E001235B429846404689239B009D4419
:108830003CBC90469946A246AB46F0BD5B465A000A
:1088400043461B685A44597B43465B68920018783C
:10885000D2B208AB1F4EB0470028E2D15B46002BD6
:1088600000D0A9E6EAE643465B6B04AA9B7A137440
:1088700043461B680122997943465B68187808AB28
:10888000B0470028CDD104AB187422E6124B0A4839
:108890000793984756E6079B07489847D6E600296E
:1088A00002D1002800D06CE780235B029C46604424
:1088B000A0606AE70000FFFFA0580110152A011010
:1088C0006D240110E13F0110C145011098560110BF
:1088D000CC560110B9820010E1460110242370B576
:1088E000174C82B0E35C002B12D06B46DD1D0028D4
:1088F00017D1287023680122597C6368114E1878BB
:108900002B00B047002818D12B78637402B070BDDB
:10891000A37A002B11D0002806D16B46DD1DD8713B
:10892000E8E702232B70E5E7637C0020002BEDD104
:108930006B46DD1D01232B70DCE701204042E5E79B
:108940007C7501102183001070B5544C82B0A37A5D
:10895000002B00D18FE06B46DD1D00232B702368B8
:108960000122597C63684E4E18782B00B0470028CE
:1089700000D080E0236801225979636818782B00C1
:10898000B047002877D123680122197963681878E5
:108990002B00B04700286ED12423E35C002B34D099
:1089A0000C232B70236801221979636818782B0037
:1089B000B04700285FD13B4B32309847C0232B7023
:1089C000A37ADB0761D423680122197963681878D8
:1089D0002B00B04700284ED1637C002B58D12B7060
:1089E00023680122597C636818782B00B04700285F
:1089F00041D12368287059796368012218782B00C7
:108A0000B047431E9841404237E004232B7023684F
:108A100001221979636818782B00B04700282AD101
:108A2000A37C002B2BD040232B70236801221979C3
:108A3000636818782B00B04700281CD1194B3230DE
:108A40009847637C002B26D001232B7023680122DA
:108A5000597C636818782B00B04700280BD123009D
:108A6000226810335179626810780122B047431EA2
:108A70009841404201E00120404202B070BDA37A1B
:108A8000DB07D0D560232B70CFE7E0232B709AE76C
:108A900002232B70A4E72B70D8E7C0467C75011029
:108AA000218300100D8100100E4B1B7A012B14D076
:108AB000002B0FD0022B06D0032B08D1FA23DB00AA
:108AC000038000207047FA239B000380F9E700230E
:108AD0000380F6E7FA230380F3E7FA235B000380C1
:108AE000EFE7C0467C75011070B5204C82B0A37AC8
:108AF000002B2AD0FA235B00984230D00DD9FA23FC
:108B00009B00984225D0FA23DB0098421DD16B468A
:108B1000DD1D18232B70153B05E0FA2815D16B4697
:108B2000DD1D00232B70227A00209A420FD023688B
:108B30000122997963680E4E18782B00B0470028FF
:108B400003D12B78DB08237201E00120404202B000
:108B500070BD6B46DD1D10232B700E3BE3E76B46AB
:108B6000DD1D08232B70073BDDE7C0467C75011037
:108B700021830010104A0100537A012B18D0002BDA
:108B800013D0022B0BD0032B0CD110230370D37CFA
:108B90000020002B02D00B785B000B70704708237D
:108BA0000370F4E701204042F8E702230370EEE788
:108BB00004230370EBE7C0467C75011070B51D4CB3
:108BC00082B0A37A002B24D004282CD009D90828FD
:108BD00023D010281DD16B46DD1D18232B70153BAB
:108BE00005E0022815D16B46DD1D00232B70627A4B
:108BF00000209A420FD023680122D97963680E4E73
:108C000018782B00B047002803D12B78DB0863725B
:108C100001E00120404202B070BD6B46DD1D102313
:108C20002B700E3BE3E76B46DD1D08232B70073BE3
:108C3000DDE7C0467C750110218300100E4BDB7A06
:108C4000062B16D80D4A9B00D3589F460523038058
:108C500000207047BC230380FAE762230380F7E714
:108C60002A230380F4E714230380F1E70A23038017
:108C7000EEE700230380EBE77C750110205601101E
:108C800070B5224C82B0A37A002B33D06B46DD1D29
:108C9000BB2822D8612823D902232B70E27A002036
:108CA0009A4218D02368012299786368184E187880
:108CB0002B00B04700281DD140232A7813432B7086
:108CC00023680122197A636818782B00B0470028BE
:108CD00010D12B78E37202B070BD01232B70DDE759
:108CE000292804D8132808D904232B70D6E7032396
:108CF0002B70D3E701204042EDE7092802D9052374
:108D00002B70CBE706232B70C8E7C0467C7501109B
:108D1000218300102422054B9A5C002A03D1DB89B1
:108D200003800020704701204042FBE77C75011062
:108D300030B5010083B0002820D0124CE089814278
:108D40001CD864291AD8104B98476B460138D87143
:108D5000242322680D4DD15C6368012218786B468C
:108D60000733A847051E09D16B46D979E08901313F
:108D7000074B98472085280003B030BD01256D4280
:108D8000F9E7C0467C750110CD1801102183001051
:108D9000E1190110242370B5144D0024EB5C002B65
:108DA00013D1AC7A002C1DD00133984304402E7CA3
:108DB0002C74041B631E9C416442002807D12B7D48
:108DC000002B00D001200A4B9847200070BD084BB3
:108DD00001209847074B98470028F6D001242E74AD
:108DE0006442F2E701246442EFE7C0467C7501105B
:108DF000DD88001049890010F0B557464E464546BB
:108E00002423E0B4264C82B0E35C07008A469146F6
:108E1000002B3DD0A37A002B3AD0236801AE197BFA
:108E20006368204D187802223300A846A84700281E
:108E30002ED1357873782D021D43BD4226D360684C
:108E400043885B089D420BD923680078D97C0122B6
:108E50003300C04700281BD13378DB061BD4606881
:108E60002368FAB2597B00785346C047041E0FD1DD
:108E70000D4B3900280098474B46013818702000E8
:108E800002B01CBC90469946A246F0BD4B461870F5
:108E900001246442F3E70224044B98476442EEE75E
:108EA0007C750110B9820010CD180110498900109D
:108EB000F0B5364C83B0A37C060083425FD06B468E
:108EC000DD1D2368012219796368314F18782B0062
:108ED000002E2ED0B847002855D120222B782D4FB8
:108EE00093432B7023681F3A1979636818782B0015
:108EF000B847002847D1284B0330984702232B70EE
:108F00002033E35C002B37D12323E35C002B03D019
:108F100030232A7813432B7023680122D97D63689C
:108F200018782B00B84700282DD10020A67403B074
:108F3000F0BDB847002826D1A37ADB0717D420223A
:108F40002B7893432B702368012219796368114FA2
:108F500018782B00B847002815D10F4B03309847DD
:108F60002223E35C002B0CD080232B70CCE7202342
:108F70002A7813432B70E6E782232B70C4E7002086
:108F8000D5E72B70C0E701204042D0E77C75011087
:108F9000B9820010218300100D810010232370B5C9
:108FA000174C82B0E35C0500834224D06B46073344
:108FB00000281DD11870A27C002A03D00222197843
:108FC0000A431A702222A25C002A04D080211A7857
:108FD00049420A431A7022680A4ED17D62681078AD
:108FE0000122B047002808D12323E55402B070BD08
:108FF00030221A70DFE70020F8E701204042F5E751
:109000007C75011021830010F0B5040083B028287E
:109010005AD8002814D1364B00209847072201ABBC
:109020001C70344C5A702268334D517D6268107840
:109030000222A847051E47D12075280003B0F0BDC5
:1090400001202B4B984701AD012C43D0022C44D07A
:10905000052C3CD90A2C43D805232B70254C012222
:109060002368254E597A636818782B00B04700288A
:109070002AD123680122197A6368204F18782B00BF
:10908000B847002820D108232A7813432B7023687F
:109090000122197A636818782B00B047002813D191
:1090A00020232B7023680122597D636818782B00D8
:1090B000B047051E08D10823A372073B2073237510
:1090C00000200F4B9847B8E701256D42B5E7042310
:1090D0002B70C3E702232B70C0E703232B70BDE77F
:1090E000142C02D806232B70B8E707232B70B5E7A2
:1090F0009D8F00107C75011021830010B982001033
:10910000958D001030B52C4C83B0A37A0500002B50
:109110004ED02423E35C002B4AD1237D002B05D0C5
:10912000431E272B40D90020244B9847F920032DBC
:1091300022D86B46D8712368214D59786368012283
:1091400018786B460733A847051E31D16B46FA20C5
:10915000D97980001B4B01319847238DE081181C81
:10916000642B16D8184B80B29847E089174B4008FB
:109170009847280003B030BDFA23291C9B009D426C
:1091800009D8FA2089B280000E4B98470138C0B246
:10919000CFE76420E6E7FA20191C89B28000094B6A
:1091A00098470138C0B2C4E7044B98470025E0E770
:1091B00001256D42DDE7C0467C7501100990001065
:1091C00021830010E1190110318D0010818C0010F5
:1091D000F0B54E46574645467023E0B4034082B092
:1091E0000600002B00D195E06B469D1D01232B70DE
:1091F0005F4C604F23680122597D6368B846187838
:109200002B00B847002800D0ADE040222B78287012
:1092100093432373324200D193E0B30603D4022375
:109220002A7813432B70F30603D401232A781343BF
:109230002B70330700D48AE023680122997D63688C
:1092400018782B00C047002800D08CE0082332009B
:109250009A4341D0484B98476B4607339A46236858
:10926000012219796368454F18785346B84700289A
:1092700000D075E0F3073CD511232B7053461A78C4
:1092800020231343524613702422A25C002A3CD0B0
:109290008022524213435246137026232268D15C27
:1092A0006368012218782B00C047002858D1236832
:1092B00001221979636818785346C047051E4FD1BB
:1092C00020752F4B3220A6729847280002B01CBC94
:1092D00090469946A246F0BD6B4607339A462368EE
:1092E000012219796368254F18785346B84700283A
:1092F00036D110232B70534620221B7893435246BD
:1093000013702422A25C002AC2D17F22134052464D
:109310001370C2E700281FD16B469D1D4023144CDB
:109320002B7099462368134F597D63680122187882
:109330002B00B846B847002815D14A462B789343EE
:10934000237304232B70B30600D56CE767E738233B
:109350002A7813432B706FE76A46951D2B7047E7F9
:1093600001256D42B1E700230125A3726D42ACE7F0
:109370007C750110218300109D8F0010B9820010B0
:109380000D810010F0B54D465F4656464446802399
:10939000F0B4A14C85B002AD2B7023680600597D56
:1093A0006368012218789D4F2B00B847814600283A
:1093B0007CD19B4B6420984698474B462B70236882
:1093C0000122597D636818782B00B84700286DD1B9
:1093D00040232B702368E074197A6368012218789F
:1093E0002B00B847051E61D1FF23A372237263725D
:1093F000E372A374FE3B23732133E0540122013353
:10940000E0546075207520005242E281227422856A
:10941000844B16300D32002198472423FA20E5545E
:109420000133E554C000804BE584984700283DD1C6
:1094300002307E4B9847002838D12A307C4B984721
:10944000002833D132307B4B984700282ED17A4BFD
:10945000984700282AD1002E04D071683078022263
:10946000764B9847764B01209B469847754B0C25C9
:10947000994601AE3300012200212800C847002888
:1094800002D13378482B1BD00135EDB2102DF1D12C
:109490006D486E4CA0476E48A0470A206D4B984718
:1094A000041E03D16C4B0020984701E00124644264
:1094B000200005B03CBC90469946A246AB46F0BDA4
:1094C0002A239A46E5541A3B3370012233000A21BD
:1094D0002800B8470028E0D10120C0471F2333707F
:1094E00053460122E05C0A213300B8470028D4D15A
:1094F0000130C04753460322E05C10213300C847C7
:109500000028CAD1337801228033A38573780A21D9
:109510008033E385B378803323861023337053463A
:10952000E05C3300B8470028B7D10130C0470020C5
:10953000D8474023337023680122997E63681878E6
:109540003300B8470028A8D153468022E35C52423A
:109550001343337023688132997F6368187833002E
:10956000B847002899D10223337023680122D97F9C
:10957000636818783300B847002800D08DE7882347
:1095800022683370683BD15C63680122187833002D
:10959000B847002800D080E72A23E35C22683370B4
:1095A0002123D15C6368012218783300B847002872
:1095B00000D072E70A23226833701833D15C6368E5
:1095C000012218783300B847002800D065E78123CE
:1095D000226833705E3BD15C6368012218783300E7
:1095E000B847002800D058E711232268337015339C
:1095F000D15C6368012218783300B847002800D096
:109600004BE70323226833702433D15C6368012263
:1096100018783300B84740E77C75011021830010AB
:109620000D81001077440110E98A0010BD8B0010F5
:10963000818C001005910010958D001081D60010CE
:10964000B18E0010B9820010A0580110E14601103F
:1096500010570110318D0010D1910010F0B50D00A0
:1096600083B0161E21D0124CA37A002B1DD0020A03
:1096700001AB1A70C0B262685870401851898842B4
:1096800013DC21681078C97E02220A4FB8470028EF
:109690000BD12368EAB2197E636818783300B847A3
:1096A000431E9841404203B0F0BD01204042FAE71A
:1096B0007C75011021830010F0B50D0083B0161EDB
:1096C00022D0134CA37A002B1ED0020A01AB1A70D1
:1096D000C0B26268587040185189884214DC216811
:1096E0001078C97E02220B4FB84700280CD123689E
:1096F000EAB2197E6368084C18783300A047431E0D
:109700009841404203B0F0BD01204042FAE7C04614
:109710007C75011021830010B9820010F0B54D4610
:1097200044465F465646F0B489B001932523009223
:109730002A4A8046D35C8946002B29D1002927D0AC
:1097400000282ED0264B00249A46264B9B4611E03B
:1097500004AA31002000D847002819D12A04120C8D
:1097600004A93800204B9847002834D13419A4B2FA
:10977000A04516D943461D1B102D00DD10254B4674
:10978000AEB21F193A0031002000D0470028DFD0C8
:109790000120404209B03CBC90469946A246AB46E7
:1097A000F0BD009903AB0A0A1A700C4A597012688E
:1097B0000E4C0092517F094A5268009210780222A2
:1097C000A0470028E4D1012225230449CA546A464F
:1097D0009288CA84DEE702204042DBE77C750110F4
:1097E0005D960010B99600101D44011021830010F1
:1097F000F0B524261F4C83B0A35D0500834233D00F
:1098000000281FD02523E35C002B2FD01A4D002009
:10981000A8471A4B00209847194BE08C98476B4695
:10982000002207331A70626823211078154F012235
:10983000B84701230120A355A847134B98470020A0
:1098400003B0F0BD0C4B002098476B46227C0733D9
:109850001A706268232110780A4F0122B8470A4B18
:10986000A55598470020EBE70020E9E7012040429A
:10987000E6E7C0467C750110DD880010B18E00104F
:10988000059100102183001049890010F0B556465B
:109890004D465F464446F0B4A5B004900D00924694
:1098A000002A00D00DE1944B9B469448D8472423CE
:1098B0000022934CE35C0892002B00D0FBE00022D6
:1098C000237A0692032B03D88E4A5B009B5A069399
:1098D00014AA94461523634418008B4B984714AA86
:1098E0009446162363441800884B98472423E35C6E
:1098F000002B01D1E3890B93A37A0993237C0A936C
:109900005346002B00D0C6E08148D84700230022F0
:10991000290004987F4FB8478146002847D000238C
:1099200099464B46002229000498B8475346002820
:1099300038D0002B00D0A7E27748D8470023049303
:109940005346002B4DD17548D847FF23012223727F
:109950006372E3722374FE3B524223730698704B8A
:10996000E281A272984714AB587D6E4B984714ABB6
:10997000D88A6D4B98476D4B0B9898476C4B09985C
:1099800098476C4B0A989847089B002B02D00120FF
:10999000694B9847049825B03CBC90469946A2462E
:1099A000AB46F0BD002B02D0644E3000D84764486F
:1099B000D8474B4601221EA91BA8B847002814D03F
:1099C0004B4601221EA91BA8B84700280DD05346BC
:1099D000002B7CD15B48D847002304935346002BCF
:1099E000B1D0564E3000D847ADE7636803221878EF
:1099F0000D211AAB544EB047002800D1B4E04B46BD
:109A0000002B75D15148D847072307251093504B99
:109A1000059321AB0E935346002B00D02CE2290076
:109A2000059B4C48984763680322187800211AABBD
:109A3000454DA8474B46002800D15DE1002B53D18E
:109A40004248D8470023072704935346002B00D0F1
:109A500016E2059B390040489847109B002B3ED0EA
:109A60003E4B01209846984710232A270E9A0A2138
:109A70001370E05D13003A4E0122B047002800D178
:109A800006E25346002B01D000F0CAFC0721059BDB
:109A90003448984757E7294ED1463000D8471C48EC
:109AA000D84753460022290004981A4FB847002887
:109AB00000D036E779E7204B002098470123089330
:109AC000FDE61E4E0C4B30009B469847EDE61B4EC4
:109AD0003000D8471B48D847002304937EE7049AF8
:109AE00002331A430492BBE7144E3000D847A7E76D
:109AF000124E3000D84785E7E14601102457011087
:109B00007C750110EC5C0110758B00103D8C001011
:109B10003C5701106D83001050570110A05A0110DE
:109B2000E98A0010BD8B0010818C00100591001097
:109B3000D1910010958D0010F1970010A0580110E0
:109B40008057011098570110B9820010C8570110B2
:109B5000C145011068590110645A0110B18E0010FE
:109B600021830010805A01104B46002B01D000F0D9
:109B700007FCE24E14AB14AA14A99B7E527E097E08
:109B8000DF480596B04721AB0E931F0000230793D3
:109B9000DC4B00269846182214AB9B189B5D002BCB
:109BA00000D1A4E0D84A013B5B00985AD74B9847B4
:109BB0008F21C905C047E2218905C04738600136B9
:109BC0000437032EE7D1079B002B00D01EE24B4643
:109BD000002B00D078E3CE48D84700239846CD4FDD
:109BE0004646B8460F931093CB4B0793CB4B169337
:109BF000CB4B1293CB4B0C93282214AB9B189B5945
:109C0000AA591193981A079B98474B46071C002B9B
:109C100000D05BE20E9B9959169B9847FE21C24BE0
:109C200089059847071C381CC047020000200B001C
:109C3000BE49009001910599129888470021381C6F
:109C40000C9B9847002800D14BE3FC21381C890568
:109C50000C9B984700280DD04B46002B00D09CE36E
:109C6000109F059B3900B24898470123BB400F9ACB
:109C70001A430F92109B0436013310930C2EBBD164
:109C80000F9B002B00D039E34B46002B00D08BE319
:109C9000A84B0022A84805998847A24B00260C93A0
:109CA000A64B98462F68002F00DC0BE23800079B7C
:109CB00098478E210C9BC905984700280DD04B462C
:109CC000002B00D061E33A00059B310040469847E5
:109CD0000123B3400F9A1A430F9201360435032E25
:109CE000E0D1FF250F9B1D40DBB2109393E60023CC
:109CF0003B600123079362E7002B00D03CE314ABE9
:109D000014AA14A99B7E059D527E097E8C48A84703
:109D1000824B0027002598460E9E182214AB9B18F4
:109D20005B5D002B00D1A3E0774A013B5B00985AB2
:109D3000764B98478F21734BC90598478149C04797
:109D4000306001350436032DE7D14B46002F00D09B
:109D50000CE1002B00D0BBE27B48D847002398469B
:109D60000F936D4B6B4F07936C4B002516936C4B09
:109D700012936C4B0C93754B11933B0047469846DE
:109D80001C2214AB9B185B591493049B5B591793CB
:109D9000179A149B981A079B98474B46061C002B52
:109DA00000D0F5E10E9B5959169B9847061C301CB4
:109DB000C047020000200B005C490090019105990A
:109DC000129888470021301C0C9B9847002800D12E
:109DD00082E2FC21301C8905119B984700280CD099
:109DE0004B46002B00D0DCE2059B390058489847D1
:109DF0000123BB400F9A1A430F92043501370C2DF3
:109E0000BED10F9B002B00D070E24B46002B00D040
:109E1000CEE2504B0022504805998847414B00251F
:109E20000C934E4B049F98463E68002E00DC45E1A3
:109E30003000079B98474A490C9B984700280DD053
:109E40004B46002B00D0A4E23200059B290040467F
:109E500098470123AB400F9A1A430F9201350437FC
:109E6000032DE1D10F9FFDB26A426A410492ECE5F5
:109E700000230127336064E73A4E3000D847CEE52F
:109E8000384E3000D847E4E5364E3000D84753E529
:109E900040230E9A0C211370E05D13000122B0479D
:109EA000002800D1C8E107230C930793102399469B
:109EB0004A462A270E9D0C212A702B000122E05DC4
:109EC000B0474A462A702B0001220A21E05DB047C4
:109ED0000020C0475346002B00D1AAE2214E30009B
:109EE000D847059B0C9920489847079B002B00D02A
:109EF00078E50423049A1A43049221E5C145011030
:109F0000E45701106D240110C05A0110A52A011058
:109F1000FC570110E13F0110152A0110D920011052
:109F200058580110811C0110952601100000E03FD7
:109F3000785801100000E0401859011040590110F4
:109F40008859011000000343A0590110591C011049
:109F5000B059011000003441185A0110405A011044
:109F60000000A049A0580110805A0110002B00D019
:109F70009DE100230F93E84B00250793E74B002654
:109F80001693E74BE74F1193534614935B46CB462A
:109F900099461C2214AB9B18049A5B5952590C9396
:109FA000981A079B924698475B468046002B00D044
:109FB0001DE1B847079B1290139150469847B84748
:109FC000079B029003910C989847B847129A139BED
:109FD00000900191059916988847D3494046119BF6
:109FE0009847002808D0059B3100D04898470123A6
:109FF000B3400F9A1A430F92043501360C2DC8D185
:10A00000149B9A464B46D9469B46FAE64B46002B94
:10A0100000D037E100230F930C93BF4B002607932A
:10A02000BE4BC04F1693BE4B1193534617935B46DE
:10A03000CA46AB46B94635001493282214AB9B1888
:10A040005A465B5952591093981A1292079B984797
:10A0500053468046002B6DD1C847079B06001298D7
:10A060000F009847C847079B0290039110989847A4
:10A07000C8473B0000900191320005991698884727
:10A08000AB494046119B9847002800D13CE10C9E0B
:10A09000059B3100A74898470123B3400F9A1A4304
:10A0A0000F920C9B043501330C930C2DC5D1179BDB
:10A0B000D1469A46149B5D469B46E1E57042079B5C
:10A0C0009847B8E67842079B9847F2E59A4B180004
:10A0D0001193D847381CC04728221490159114A911
:10A0E00089188859079B9847C04702900391079B9E
:10A0F000A8599847C047149A159B0090019105995B
:10A100008E4888471198D8470E9A92591492101C7D
:10A11000C0470B0002000599894888471499169A90
:10A12000381C9047FE21874A89059047071C1198E3
:10A13000D84778E5804B10931800149B9847404609
:10A14000C8475B4606005859079B0F009847C84709
:10A1500002900391282114AA52185059079B98473E
:10A16000C8473B0000900191320005991698884736
:10A170006F494046119B9847002805D1724B73499F
:10A180004046984700288CD01098149B98477EE74B
:10A190006948D847301CC047149015911C2114AB56
:10A1A0005B185859079B9847C04702900391049940
:10A1B000079B48599847C047149A159B00900191F6
:10A1C00005995E4888475C48D8470E9B5B591493B5
:10A1D000181CC04702000B0059480599884714997C
:10A1E000301C169B9847061C5348D847DFE5524859
:10A1F000C8474046B847049B0C900D915859079B9F
:10A200009847B8471C220290039114A9891848590D
:10A21000079B9847B8470C9A0D9B009001910599B0
:10A220001698884740494046119B9847002800D11E
:10A23000E2E64148C847D6E618230E9D01222B705E
:10A24000E05D2B000A21B047002800D02BE62A232E
:10A250000B27994607950A203D4B98474B4601220C
:10A26000E05C0221079B3B4DA847002800D01AE67E
:10A27000079B1B78DB0700D59EE0013FFFB2002F54
:10A28000E9D110E62C4E3000D8473348D84730008B
:10A29000D847C022314B1206059F3148B8473000DD
:10A2A000D847A0222F4B12062F48B847B2E6224EBD
:10A2B0003000D8472D48D8473000D84700222C4BD3
:10A2C00005992C48884754E61B4E3000D84782E455
:10A2D000194E3000D8473FE580231B069C46664454
:10A2E00077E580231B069C466744AEE4FF27DDB27A
:10A2F0001F406A426A410492FFF7A7FBFF251D40F9
:10A30000DBB21093FFF787FB104940460E4B98478E
:10A31000002800D1C5E6BAE6152A0110C45801107C
:10A32000591C0110E13F01100000704AF059011062
:10A3300066666646EC580110A058011010580110CE
:10A340004458011095260110811C0110CDCC2C47DA
:10A350000D810010B982001090580110CCCCCC4077
:10A36000A45801109999E540B4580110C85901103A
:10A3700000004E41DC590110334E3000D847BEE496
:10A38000314E3000D847FFF7F4FB2F48D8472F68ED
:10A3900099E42D48D8473E6856E52B4B1800D8471E
:10A3A0005EE42948D8471FE5274E3000D8476FE4C0
:10A3B000254E3000D8472CE52A230622E05C0321F5
:10A3C0000E9B224DA847002800D06CE5C8220E99AC
:10A3D00052004F783B020F781F43C837BFB2BA42D2
:10A3E000BF41CB7889781B020B43C8339BB27F42B5
:10A3F000934201D902231F430E9A537912791B020B
:10A400001343C82212019446962263449BB2120160
:10A41000934201D904231F43FBB207930C9745E5F0
:10A42000094E3000D8470721059B09489847FFF798
:10A43000D9FA059B0C9906489847079B002B00D139
:10A4400057E5FFF780FAC046A0580110B982001006
:10A45000805A0110024B5B689B8903800020704783
:10A460007C75011000B585B00922064901A8064B8C
:10A470009847972001AA0921044BC000984705B0CE
:10A4800000BDC046F45C01103B4401105D96001015
:10A49000802210B5C823D2000249034C0348A047CC
:10A4A00010BDC046405D01101D970010F60B000066
:10A4B000F0B547463A4C80B4210086B0394B02AF24
:10A4C00005000C310322380098469847210003AE5E
:10A4D000103103223000C04721000322143104A8A8
:10A4E000C04721000322183105A8C04703210800F6
:10A4F0006A466C4628403B5C1370EA080A40BB5C25
:10A50000B25C6370AB090B40F95CF35CA170315C29
:10A5100001AC2170627003216A462348234EA37068
:10A52000B047002838D1220003212148B047002835
:10A5300032D1032204A96846C0476B469B8A238018
:10A540006B469B7DA3706B0704D537236A46137057
:10A55000103B2370AB0604D557236A465370103B5B
:10A560006370EB0512D488206A460321C000B0470F
:10A57000002811D1220003210E48B04700280BD13A
:10A580000D4B1D8106B004BC9046F0BD77236A4692
:10A590009370103BA370E6E701204042F2E7C0460B
:10A5A000F45C01103B440110260400005D9600108D
:10A5B0002A040000310400005076011030B5134920
:10A5C00087B004000C221C3103A8114B9847C82CFB
:10A5D00019D821000F4BC8209847013880B201AA32
:10A5E000030A507002210C480C4D1370A847002834
:10A5F00009D103AA0C210A48A847002803D1094B16
:10A600009C8107B030BD01204042FAE7F45C0110A4
:10A610003B440110E1190110160200005D96001084
:10A62000C10A000050760110F0B5474680B405001D
:10A6300082B0430767D0C823DB00994263D84C4BF4
:10A64000080098474B4B4C4998476B46DC1C071C4D
:10A650004A4B200098472378042B00D179E031D968
:10A66000082B67D0102B4ED18A21454BC905381CC9
:10A6700098469847434CA047434986B2381CC04788
:10A68000A04780B201AC330A2370030A6670A3703E
:10A69000E070EB0727D4AB073BD400206B0734D521
:10A6A000EE20220002214000384CA04700282AD189
:10A6B0006B462D309A1D0221FF30A047431E984162
:10A6C000404222E0022B1ED18D212D4BC905381CA2
:10A6D000984698472B4CA0472D4986B2381CC04756
:10A6E000A04780B2CEE7EA20220002214000274E98
:10A6F000B047002807D16B4625309A1D0221FF3054
:10A70000B0470028C7D00120404202B004BC9046A8
:10A71000F0BDEC202200022140001C4EB047002872
:10A72000F1D16B4629309A1D0221FF30B047002835
:10A73000B3D0E8E78B21124BC905381C98469847DF
:10A74000104CA047134986B2381CC047A04780B2BE
:10A7500098E78C210A4BC905381C98469847094C44
:10A76000A0470D4986B2381CC047A04780B289E790
:10A77000A52A0110D920011000004843758B001054
:10A780006D240110491D01100000C0445D960010A9
:10A7900000004046000040450000C045012300B5D0
:10A7A000034083B0002B15D16A460732137083072C
:10A7B00003D50C2311780B431370430703D50323F0
:10A7C00011780B431370A4200121054B40009847DA
:10A7D00003B000BD6B46DA1D30231370E7E7C046B7
:10A7E0005D96001000B585B000280DD108490922FA
:10A7F0002831084B01A89847972001AA0921C000D9
:10A80000054B984705B000BD044B9847FAE7C04692
:10A81000F45C01103B4401105D96001065A400102B
:10A8200000B583B0002810D0C02301AA13700233F2
:10A830005370023393700233D3700421054B0648E2
:10A840009847064B984703B000BD054B01AA0193FA
:10A85000F3E7C0465D960010980A00004989001091
:10A860008B8B8B8B00B583B0002810D0202301AADE
:10A87000137008335370083393700833D370042176
:10A88000054B06489847064B984703B000BD054B5B
:10A8900001AA0193F3E7C0465D9600109E0A0000EE
:10A8A00049890010A3A3A3A3F0B545464E465746D9
:10A8B0000223E0B484B001AC2370C8336370193351
:10A8C0000500A3702200DA3B042168207C4EE3706F
:10A8D000B0474022A3232A402370904600D1E1E0F4
:10A8E0001D3363700833A370063BE370C0277F00FD
:10A8F0002F4000D1D1E0C423237108336371063B9C
:10A90000A371A32322000A216E48E37123726372AC
:10A91000B04703232B40994600D1BBE0202323708E
:10A92000220001216848B047AB0600D4AEE0674B77
:10A930009847002F0ED0EB0500D5B7E0B023237069
:10A94000303B63703433A370243BE3702200042156
:10A950005F48B047EB0700D490E08B20F82322003B
:10A96000012100012370B047FA215A4B0720984774
:10A97000594B0720984700239A4650206B46524671
:10A9800001211A70FF306A46B0476B465246EF20ED
:10A990001A7014236A46022140005370B0476B4678
:10A9A0005246ED201A7064236A460221400053701B
:10A9B000B0476B4652461A706A468E23AE205370DB
:10A9C0006B3393700421693B4000D370B0476B46F2
:10A9D0005246AD201A7008236A4602214000537087
:10A9E000B0476B465246AC201A7002236A460221D9
:10A9F00040005370B047AB073DD5D92323702200E8
:10AA000001213648B0476B0731D50120344B9847B8
:10AA1000EB0628D50120334B98470823324C2B43B3
:10AA20006381324B98474346002B19D14346A373A9
:10AA3000002F02D0A37B0633A37314232B4202D032
:10AA4000A37B1033A3734B46002B02D0A37B0433AC
:10AA5000A373002004B01CBC90469946A246F0BDEA
:10AA60000623A373E4E71F4B00209847D5E71C4B50
:10AA700000209847CCE7D8232370C0E78B20D82349
:10AA80002200012100012370B047B4E7184B0020D9
:10AA900098474EE7D823237042E7A32323716371BD
:10AAA000A3712EE76370A370E3701FE7B2232370D6
:10AAB000273B63702B33A3701B3BE37046E7C04614
:10AAC0005D960010A70A0000B60A000065A40010F9
:10AAD000A20A000029A600109DA700103D07000053
:10AAE00021A8001065A800105076011049890010B7
:10AAF000E5A70010F0B55F46444656464D46002394
:10AB0000F0B489B0129C07002380564B8846987B8E
:10AB100091469B46139A6946534B9847061E00D0B0
:10AB200097E05B4658891423034245D1002342062F
:10AB300019D519006A466944D25C4D7812022A433D
:10AB400045462A808A78CD7812022A4345466A8093
:10AB50000A79497912020A43AA8008222188063319
:10AB60000A43DBB22280C0225200104217D01900E3
:10AB70006A466944D25C4D7812022A433A808A7848
:10AB8000CD7812022A437A800A79497912020A435F
:10AB9000BA807022218806330A43DBB22280820702
:10ABA0003CD10120314B9847300009B03CBC904665
:10ABB0009946A246AB46F0BD009B1ABA4B461A60B6
:10ABC000019B121419BA4B465960029B94461BBA5A
:10ABD0009A464B4655469D604D46039B52461BBACE
:10ABE000EB6065461B1499466D434B46AC46091411
:10ABF0001214494352435B4361448918C918F12335
:10AC00001B069C46802361449B04994224D88022E1
:10AC10002388520013432380102388E76B441C00D1
:10AC2000DF785B78DA070BD55A461268002A07D01E
:10AC300007200100FB083940184001319047637834
:10AC40001B07AED55B465B68002BAAD0B8099847B6
:10AC5000A7E701267642A7E7054B98472680013EE5
:10AC6000A2E7C04650760110F98D0010A1810010B6
:10AC700049890010024B186BC005C00F7047C046D1
:10AC8000A07701109E23024A5B00D0507047C04657
:10AC900060760110F0B556464D465F464446F0B426
:10ACA0003A4B83B01E6800929946002E22DD5B6805
:10ACB000984217D04B469B68994213D04B460024CC
:10ACC000103308E01D6885420CD00C331D00083D90
:10ACD0002D688D4206D00134B442F3D1132C1DDD12
:10ACE0000C2000E0162003B03CBC90469946A246DA
:10ACF000AB46F0BD00239B46002E26D10193019B5D
:10AD00005D469C466544009BAD004D44EB604B4660
:10AD100001366860A9601E600020E4E74B469B682E
:10AD200099422FDD4B4600221433934605E00C3345
:10AD30001C000C3C2468A14207DD01229446E34438
:10AD4000B345F4D15B465B00D8E7B345FADA73004C
:10AD50009B199B00083B4B449A465B465B001C00DA
:10AD60005C44A400083CA4460193CC44544652469B
:10AD70000C34A8CAA8C40C235B429846C244D445EC
:10AD8000F4D1BCE700239B46E1E7C04660760110A2
:10AD9000F0B5174E3568002D10DD7368984225D048
:10ADA00032000023103206E00C3214000C3C246800
:10ADB000844205D00B00591CA942F5D10020F0BDFA
:10ADC0000233AB420FDA5A006900D31849199B00CD
:10ADD0008900083B0839F31871181A000C3291CA1F
:10ADE00091C38B42F9D1013D3560E7E70123E8E7E4
:10ADF0006076011010B503490C221831024B9847B8
:10AE000010BDC046A07701103B44011000228256BD
:10AE10000023002A01DD180070470433002AFAD10C
:10AE200001228256033B002AF5DC0433002AF2D1CA
:10AE30008078033B40B20028EDDC431E9841072395
:10AE40001B1AE8E70100020000200C3108CA5B135E
:10AE50005B43C0189142F9D17047C0460A0010B553
:10AE6000D317034CC117A047C900400F084310BDBA
:10AE7000F11C0110F0B547460E0080B403680500D0
:10AE8000D91733685E4C170000683268DB17A0479B
:10AE90008900830F0B4398466B687268D9177368F3
:10AEA0006868DB17A04743468900800F08431B1AD8
:10AEB0009846AB68B268D917B368A868DB17A04793
:10AEC00043468900800F08431B1A9846EB68F268D6
:10AED000D917F368E868DB17A04743468900800F5D
:10AEE0000843181A38606B683268D9173368686885
:10AEF000DB17A0478900830F0B4398462B687268C5
:10AF0000D91773682868DB17A047AB688900800FE2
:10AF10000843D917F3688044F268A868DB17A04794
:10AF2000EB688900800F0843D917B368B268804482
:10AF3000DB17E868A04743468900800F0843181ACA
:10AF400078602B68B268D917B3682868DB17A04708
:10AF50008900830F0B4398466B68F268D917F36832
:10AF60006868DB17A04743468900800F08431B1A17
:10AF70009846AB683268D9173368A868DB17A047D2
:10AF8000EB688900800F0843D917736872688044A2
:10AF9000DB17E868A0478900800F08434044B86089
:10AFA000B368D9176B686A68DB17B068A047890077
:10AFB000830F0B4398462B68F268D917F36828680B
:10AFC000DB17A04773688900800F0843D917AB6867
:10AFD000AA688044DB177068A04743468900800F49
:10AFE0000843EA681B1A30689846C117D317A04770
:10AFF0008900800F08434044F86004BC9046F0BDCF
:10B00000F11C011003680B6043685B424B6083686E
:10B010005B428B60C3685B42CB607047F8B54F46BC
:10B020004646C0B443680E009846DB17994603684D
:10B0300004001A00D917684D0B001000A847C9007A
:10B04000470F0F4342464B4640464946A847C02358
:10B050001B069C46C900400F084338186044306006
:10B060006368A268D917A3686068DB17A847E3681C
:10B07000C900470F0F43D91723682268E068DB1720
:10B08000A847C900400F08433F1A7760A3682268A9
:10B09000D9172368A068DB17A8476368C900470F62
:10B0A0000F43D917E368E2686068DB17A847C90057
:10B0B000400F08433818B060E3682268D917236846
:10B0C000E068DB17A8476368C900470F0F43D9172B
:10B0D000A368A268DB176068A847C900400F08434F
:10B0E0003818F060A3689846DB17994623681A0061
:10B0F000D9170B001000A847C900470F4B460F4354
:10B10000424649464046A847C0231B069C46C90004
:10B11000400F0843381860443061A368E268D917CB
:10B12000E368A068DB17A8476368C900470F0F43AF
:10B13000D917236822686068DB17A847C900400F49
:10B1400008433F1A77616368E268D917E36860686B
:10B15000DB17A847A368C900470F0F43D917236817
:10B160002268A068DB17A847C900400F08433F1AB0
:10B17000B76123686268D91763682068DB17A8473E
:10B18000E368C900470F0F43D917A368A268E068B6
:10B19000DB17A847C900400F08433818F06127683B
:10B1A000E068FB17C117984602000B00A847C900CA
:10B1B000440F43460C433A0038004146A847C02399
:10B1C0001B069C46C900400F0843201860443062AB
:10B1D0000CBC90469946F8BDF11C0110F8B5074F1C
:10B1E0000500B8470400E81CB8470600A81DB8478A
:10B1F000F600800130430443A0B2F8BD0DAE00104C
:10B20000012370B5064C0D00E26F01001343E367A4
:10B210002300403310221800024B9847256270BD6E
:10B22000387901103B44011070B5054C0D00210028
:10B2300010224031034B9847236A2B6070BDC046F3
:10B24000387901103B440110014B186D7047C0461E
:10B250003879011010B503490C222831024B984768
:10B2600010BDC046387901103B440110F8B5124CAE
:10B27000124D0600E1686068A84721680700A068D1
:10B28000A8473F1A3760E168A068A847216807000F
:10B290006068A84738187060E1680800A847070090
:10B2A00020680100A847C0231B069C46381860444C
:10B2B000B0600020F8BDC046387901105DAE0010C6
:10B2C00010B5034910221031024B9847002010BDE1
:10B2D000387901103B440110014B186F7047C0468C
:10B2E00038790110064A16211368132B01DD080076
:10B2F0007047990051180133486013600021F6E748
:10B30000C0790110C078002800D0E2207047C04604
:10B31000002070479B22204B9200F0B50400981843
:10B32000913A4746FF3A9446DA3A0125002690467C
:10B3300080B41A4F1A00563A1188228891420ED0D2
:10B340007C338342F6D1164B164898472288A17861
:10B35000154B16489847002004BC9046F0BD1A785B
:10B36000052A0ED0082A0CD0072A08D829009140B7
:10B370000A006146114206D141461142E0D11E70D9
:10B38000DEE71D70DCE71E703A78002AD8D03A78E4
:10B39000013AD2B23A70D3E71E9101102C930110FA
:10B3A000E1460110A0580110C14501106C6A01105E
:10B3B000F0B5474680B4334F06003B000024458873
:10B3C0001A89AA4222D001347C33052CF8D1337972
:10B3D000002B49D02C4BFB5C012B12D92B4F2C4D51
:10B3E0003800A8472B482C4CA047708813212B4BC2
:10B3F0009847002805D03800A8472948A047E225EB
:10B4000000E00025280004BC9046F0BD1A005E3222
:10B410001278032AD7D13579002DDFD11C4B1B4878
:10B4200098471D4B1F48984763011C1B3278A400A6
:10B430003B191A75327931001A7605225E331A707B
:10B440003819194B22310B32363098469847310063
:10B450003819323117223C194630C0472000B11D3F
:10B460001C221A30C047CDE7084E094D3000A847CE
:10B47000094C0C48A0473000A8470C48A047E225DB
:10B48000C0E7C046C0900110CA020000A0580110D9
:10B49000E14601109C6A0110C145011079F00010CD
:10B4A000BC6A0110D86A01103B440110046B011002
:10B4B00010B5782301220121024C0088A04700200A
:10B4C00010BDC04699F00010F0B5444656465F46A0
:10B4D0004D468246F0B487B003AC09220021634B8D
:10B4E0002000984753461988614B984618001A0067
:10B4F000002315898D4241D001337C32052BF8D1D0
:10B50000002302891F008A4256D001337C30052B6C
:10B51000F7D10527022323725346DB784146A370F7
:10B520000423012223707B010093DB1B9B00CB5C77
:10B530006270022B00D184E0A271E271102363716A
:10B540002371009BDE1B4346B6009B191B7E402BDC
:10B550004AD0009B2100DA1B5346920060321888C3
:10B5600042440023434DA847002832D1002007B0B1
:10B570003CBC90469946A246AB46F0BD15005E35F0
:10B580002D78022DB8D142465D01E91A8900521882
:10B59000160006275E363770127DD60703D556464D
:10B5A000F678002E51D10222EB1A9B0043445E3301
:10B5B0001A7053461988A3E702005E321278022AF5
:10B5C000A3D15B01DB1B9B0043445E3301321A7045
:10B5D000A0E700232848A3706370284B98472848A9
:10B5E000284B9847E220C2E7274B350099460F23A6
:10B5F0009B4601966835603646444544C8475B46DD
:10B6000018403070C8475B461840B0740136AE42EF
:10B61000F4D10F239B46019E70364644C8475B46D3
:10B62000184028700135B542F8D1C847009BDB1B94
:10B630009B0043441A007032108010227A331A7033
:10B6400087E70133A371E37178E7534641441888D3
:10B650001A310E4B9847002800D187E7074B064860
:10B6600098470B48074B9847E22080E77744011042
:10B67000C0900110E5F30010A0580110E146011040
:10B680004C6B0110C1450110F5460110D1F50010B9
:10B69000346B0110F0B556465F464D464446454B67
:10B6A000F0B49A461A00002387B0009000881189F0
:10B6B0001C00814240D001337C32052BF7D1052498
:10B6C00000225146022303AF3A70FA70620190469D
:10B6D000121B92008A5C3B72013BBB707B70022A9A
:10B6E00064D0BB71FB7110237B713B7143461E1B01
:10B6F0005346B6009B191B7E402B2AD043461A1B8B
:10B700009200009B603218885244002339002A4C72
:10B71000A047002809D000232848BB707B70284B25
:10B7200098472848284B9847E22007B03CBC9046F1
:10B730009946A246AB46F0BD11005E310978022958
:10B74000B9D103225B011B1B9B0053445E331A706B
:10B75000B6E71E4B350099460F239B460196683588
:10B76000603656445544C8475B4618403070C84759
:10B770005B461840B0740136AE42F4D10F239B46AD
:10B78000019E70365644C8475B4618402870013504
:10B79000B542F8D1C84743461B1B9B0053441A00CF
:10B7A0007032108010227A331A70A7E70233BB710F
:10B7B000FB7198E7C0900110E5F30010A05801104C
:10B7C000E1460110786B0110C1450110F5460110EA
:10B7D000F0B55F4656464D464446F0B4070087B084
:10B7E00004AC019006224049404E03AD2000B04712
:10B7F000042239002800B047EB78002B2ED080239C
:10B800006A885B009A420BD0AB78012B52D000249F
:10B81000200007B03CBC90469946A246AB46F0BD1E
:10B82000334B18009A46334B99469847324B33486E
:10B8300098469847324E0027E05D0137B047062F03
:10B84000FAD1019BA978188822002E4B984700282E
:10B85000DDD05046C8472C48C047D8E7244B1800D5
:10B860009A46244B99469847234B28489846984730
:10B870000023274F9B4603E01A00303A092A21D9BA
:10B880001E20B847C3B2002BF6D15046C847214806
:10B89000C0475046C8472048C047019B132118881D
:10B8A0001E4B9847E2240028B2D05046C8471C4897
:10B8B000C047ADE70F4B0E4898471A480E4B9847C4
:10B8C0000024A5E75A46A354FF230D4E1840B04765
:10B8D00001239C46E3445B46062BD1D15046C84722
:10B8E0001148C047A7E7C046286A01103B44011031
:10B8F000A0580110E1460110C1450110E86B01108C
:10B90000F545011015F50010206C0110A06B011019
:10B9100035C40010C86B0110D46B011079F0001011
:10B92000BC6A0110386C0110546C0110F0B5474628
:10B93000294E80B4310007000022058808891400D0
:10B94000A8421CD001327C31052AF7D10524234BB3
:10B95000234F98461800B847224D2348A847404631
:10B96000B8472248A84763011B1B9B00F31818899E
:10B9700005211F4B9847E22004BC9046F0BD0B0008
:10B980005E331B78012BDDD95501AD1A0622AD00BF
:10B99000731998465E331A705A8A7B889A42D6D1B8
:10B9A00071197231381D0822124B98470028CED1E8
:10B9B0002B0042466033117D9B19388801220E4CC2
:10B9C000A0470028D8D0064B044898470B48054BA1
:10B9D00098470020D0E7C046C0900110A058011041
:10B9E000E1460110C1450110686C0110A06C011006
:10B9F00079F000101D44011049F60010F86C011098
:10BA000010B50078002806D0034B04489847044836
:10BA1000044B9847E22010BDE1460110A0580110E8
:10BA2000186D0110C145011010B50400C078002840
:10BA300008D0054B05489847A27821880448054B53
:10BA40009847E22010BDC046E1460110A058011001
:10BA50002C6D0110C1450110F8B5254D00242B00B7
:10BA6000070000881A892100824218D001347C33F3
:10BA7000052CF7D1BE78002E2CD005214B015C1A85
:10BA80000723A4002C1926765E34237019481A4B1C
:10BA900098471A481A4B9847E2263000F8BD1A001A
:10BAA0005E321278062AE1D1BE78002EE6D1124B22
:10BAB00010489847124B1348984763011C1BA40079
:10BAC0002C19230008225E331A70FB782375BB788B
:10BAD0002376E2E7074E084D3000A847084C094896
:10BAE000A0473000A8470848A047E226D5E7C0464F
:10BAF000C0900110A0580110E1460110646D0110C2
:10BB0000C1450110786D01109C6D0110F8B5154C00
:10BB10002378132B0DD9144F144E3800B047144816
:10BB2000144DA847144B9847E224002815D1200053
:10BB3000F8BD23780100DBB29A00D218D200D318E6
:10BB40000E4A9B18180029220D4B9847237823781A
:10BB50000133DBB223700024E9E73800B04709481D
:10BB6000A847E4E7188E0110A0580110E146011023
:10BB7000C46D0110C145011059F00010A4930110CB
:10BB80003B440110FC6D01100020704700207047FD
:10BB9000F0B55F4656464D464446F0B40027824B0A
:10BBA00091B01F6007220021804B06008048984713
:10BBB000122200217D4B7F489847CD227E4B920078
:10BBC0001F700021794B7D48984783227C4B92005F
:10BBD0001F700021754B7B4898477B4B80249A4609
:10BBE0008023DB0099461A00002150466F4B98478E
:10BBF000764D64012200002128006C4B9847744B5D
:10BC00001C229B4618000021684B98475B46524611
:10BC10009A604A461D61DA605C616E4B6E4D1F6032
:10BC20005F609F60DF601F616C4B6D4C1F606D4BF0
:10BC30002F601F606C4B6F60AF60EF602F612760FB
:10BC40006760A760E76027611F605F609F60DF60DB
:10BC50001F61664B1F60664B98469B239B004344C5
:10BC60009A46402399467C22002140464F4B9847F4
:10BC7000424600235E3213704946424611767C22CA
:10BC80009446E044D045EED15A4A13705A4B1800FE
:10BC90009A465A4B99469847594B5A48984698475E
:10BCA0005846594B984700285ED12B0014332A6818
:10BCB000002A62D004359D42F9D123001433226852
:10BCC000002A6DD00434A342F9D109214F48504BCA
:10BCD0009847002803D05046C8474E48C0474E49B1
:10BCE0000722083104A84D4D06ACA84726220021A2
:10BCF00020002E4B9847002E47D05046C84730783A
:10BD000033797279B179039070780290B0780190AC
:10BD1000F07800904248C0470A232370414B072225
:10BD2000310007A86380A8470023E3762377637771
:10BD3000A377E3772384638480239B00A38420007C
:10BD4000394B984700281BD13000384B98470028C2
:10BD500003D05046C8473648C04711B03CBC904657
:10BD60009946A246AB46F0BD5046C8473148C04749
:10BD70005046C8473048C047FEE7304B2B609CE731
:10BD80005046C8472E48C047DEE704A82D4B9847C9
:10BD900004AE0028B1D05046C8472B48C047ACE796
:10BDA0002A4B236091E7C046148E0110774401109E
:10BDB0001C8E01106C930110188E0110A4930110B9
:10BDC0009C930110D8960110147A0110147E011072
:10BDD000809301105893011044930110A093011017
:10BDE000AC900110A890011030930110E49801105C
:10BDF000C09001102C930110A0580110E1460110D1
:10BE0000C1450110146E011051EE0010846E011036
:10BE100069ED0010906E0110286A01103B4401107A
:10BE2000C06E0110983A0000C1ED001005F000103E
:10BE30001C6F0110286E0110486E011080700110F7
:10BE4000F86E01109DED0010A86E0110446A0110FB
:10BE500010B501220121064B9847002806D0054B5A
:10BE6000054898470548064B9847E22010BDC04654
:10BE700091F50010E1460110A0580110586F011013
:10BE8000C1450110F0B54D4644465F465646F0B4F4
:10BE9000857A99B00400002D56D1694B9946180057
:10BEA000684B98469847607823796279A179029027
:10BEB000A078654F0190E07800906448B847484604
:10BEC000C04721896248B84712222100614B62486D
:10BED0009847624B072218009B462100604B984709
:10BEE0008246002840D15F4B1B78042B00D976E0B6
:10BEF0005D4B0026A8461F00072221003800584B42
:10BF00009847002800D176E001367C37052EF3D122
:10BF100045460027554B1A78002A00D17DE00137AD
:10BF20007C33052FF7D15346002B47D17B01DF1B14
:10BF30004D4BBF009C4605236744BB74072200217C
:10BF400058464B4B984707E03E4B3D489847A17AEF
:10BF500048483D4B98470025280019B03CBC904606
:10BF60009946A246AB46F0BD2378022BBBD104AD67
:10BF700050223F4B0021280098473F4B22009C460F
:10BF80000023644694461E0022001036B6B2107894
:10BF9000591CE8548BB20132B342F8D17C34502B97
:10BFA000F1D12A0061460520344B9847051ED3D0B5
:10BFB0004846C0473248B847E225CDE77B01DF1B42
:10BFC000294BBF009C460A236744BB74072200210B
:10BFD0005846274B984720892A4B9847BCE7484644
:10BFE000C047204B28481978C9B2B8472089132187
:10BFF000264B9847B0E71C4A3700944645467301E4
:10C000009B1B9B00634402225E331A7021000532A1
:10C010005846134B9847824685E7134A7B01904662
:10C02000DB1B9B00984412220A4B21004046984794
:10C030000C4B0C4A1B780133DBB213704346E2E72A
:10C04000A0580110E1460110C1450110786F0110A0
:10C05000BC6F01103B4401106C9301101C8E011049
:10C060001D4401102C930110C09001101E9101106D
:10C07000774401103470011006910110A5F00010F2
:10C08000D46F011051BE0010F86F011079F000104C
:10C09000F8B50378002B0DD10024214D214F461C0B
:10C0A000102229003000B84700280ED001347C351A
:10C0B000052CF5D100231C4A1178002919D0013331
:10C0C0007C32052BF8D10020F8BD6001001B8400F4
:10C0D00016480222001903005E331A700A23144C1A
:10C0E000837410322100134B98472089124B9847D4
:10C0F000E9E75D01EB1A0D4D9B000D4CED18122286
:10C100000C4B2100280098470C4A13780133DBB20E
:10C1100013702B0002225E331A700A23AB74E4E71B
:10C12000069101101D4401101E910110C0900110D4
:10C130006C9301103B44011051BE00102C93011070
:10C14000F8B50D003B2865D8364B86009B599F46B5
:10C15000354B38381B68C0B2002B05D08000C3585F
:10C16000002B01D028009847F8BD304B1B68002BEE
:10C17000FAD09847F8E700242D4F3B59002B04D004
:10C180009B59002B01D0280098470434142CF4D17B
:10C19000EAE700261338C4B2264FA400BB59002B8F
:10C1A00004D01B59002B01D0280098470436142EC8
:10C1B000F4D1D9E700261D38C4B21F4FA400BB59E3
:10C1C000002B04D01B59002B01D0280098470436BF
:10C1D000142EF4D1C8E7194B27381B68C0B2002BC6
:10C1E000BCD1C1E7164B2D381B68C0B2002BB5D1AE
:10C1F000BAE700263638C4B2124FA400BB59002B50
:10C2000004D01B59002B01D0280098470436142E67
:10C21000F4D1A9E70C4D0D4C2800A0472800A047F9
:10C22000A2E7C04638690110E4980110148E01108D
:10C230004493011058930110AC900110A093011089
:10C24000A890011030930110A0580110E146011090
:10C25000F8B50F4D04002B78012B15D00D4E0E4F65
:10C2600022000E4B3100380098472B780400012B38
:10C2700007D0002C03D138783100094B98472000B3
:10C28000F8BD084B9847F4E7074B9847E6E7C046E8
:10C29000238E0110D89601109C930110F9E500102F
:10C2A00041C100109DCB0010C5CB001070B5060039
:10C2B0000D00034C29003000A0470028FAD170BDC2
:10C2C00019D2001070B506000D00034C2900300093
:10C2D000A0470028FAD170BD09D2001010B50E4B4E
:10C2E0001A78012A0CD00D4B1B68002B07D00C4C80
:10C2F00020789847012221000A480B4B984710BD2F
:10C3000001321A70054B1B68002BF8D10221054839
:10C31000064B9847F3E7C046288E0110308E011077
:10C320002C8E0110E89801102DD2001089D2001037
:10C3300070B50021194B00209847194C194B20006B
:10C340009847E1235B02236003220223164DA3607A
:10C35000E260A361E361236263620132134B2261F5
:10C3600001321D606261124B124A28001A60124AA3
:10C37000124B13491A602200124B9847124E134C6D
:10C38000336800219868A047336800215868A047A7
:10C39000280002220E490F4B984770BDE1D90010CA
:10C3A0000C99011031D00010E8980110349C011054
:10C3B000309C0110C5C20010ADC200102C9C0110B1
:10C3C000004000405DD00010287601109147011018
:10C3D000DDC2001055D20010F0B547460E4C80B4B7
:10C3E0008046A047A0470D4FB8470D4E0D4A0E4B53
:10C3F000B0470400FA204346800058430D00B84778
:10C4000002000B0020002900B047084B9847084B5A
:10C41000186004BC9046F0BD65DA0010713F011051
:10C4200069330110C7AEFE19EFD8093F791D01101D
:10C43000248E0110012370B5154C05002370154B97
:10C44000154E1B68002B1DD02800144B9847002365
:10C45000134D01222B702900124B300098471248CF
:10C460000021036803E0013B0121002B08D0227862
:10C47000022AF8D1002903D100232878237070BD47
:10C480000360F9E702213000084B9847DCE7C0461B
:10C49000288E0110308E0110E8980110D9C30010C9
:10C4A0002C8E01102DD20010248E011069D20010A4
:10C4B00030B50C4B1C68002C10D02568E2801D6044
:10C4C00000232360084BA1601A68A080002A01D1D4
:10C4D00005E01A001368002BFBD1146030BD1C600E
:10C4E000FCE7C046388E0110348E0110002210B5D2
:10C4F000074C084B20001A602300783019001A609E
:10C500000C330A008342F9D1034B6C341C6010BD1C
:10C510003C8E0110348E0110388E011010B5064B80
:10C52000064A196811605A68054B1A60054B1B686A
:10C53000002B00D0984710BD349901100CB000407A
:10C5400010B00040109C011070B50400134B0C3C5F
:10C550001D68134B1B689847002C18D0E388052BE7
:10C5600015D0EB0714D40F4B02201B6898470E4BD5
:10C570001B6898470D4C0320236898470028FAD180
:10C580000B4B02301B68984701220A4B1A6070BDA2
:10C59000094B1868094B1B689847F8E7ECB1004055
:10C5A000E48E0110DC8E0110EC8E0110C88E01109B
:10C5B000D08E011020B00040D48E0110C48E011026
:10C5C00070B50E4C0021322220000D4B98470126F9
:10C5D000002102254A00A154A218537801313343A7
:10C5E000DBB2AB43012053701929F3D16378834345
:10C5F0006370E3788343E37070BDC04650990110C7
:10C6000077440110F8B544465F4656464D46F0B4AF
:10C61000554C2378002B04D02378DBB2012B00D1BA
:10C620009EE0524B9847524A524B1168524D0B4074
:10C630001360524A524913600868524B524E0340ED
:10C640000B605360002399464A46504B50491A608C
:10C65000802280231204EA50934680225204EA503A
:10C660004C4B924633604C4A4C4B282013604C4A4A
:10C6700011604C4A11684C4A11604C4A11684C4A8E
:10C6800011604C4A4C4911604C4A4D4911604D4A69
:10C69000904641464C4A0A604C4A4D4911604D490A
:10C6A0004D4A11604D4F4E4A4E493A604E4A116014
:10C6B0004E4A4F4911604F4A4F4911604F4A504905
:10C6C0001160504A504911609847504933682820FA
:10C6D000984733684E49272098474E4B00211A68E7
:10C6E0004D4B4E481A604E4B4E4A1A604E4B4F4AC5
:10C6F0001A604F4B4F4A1A604F4B504A1A60504BCA
:10C70000504A1A60504B514A1A60514B514A1A60B4
:10C71000A022514B920098478022504B92001A80E1
:10C720004F4B98475B462B6053464A462B604D4B18
:10C730004D4D1A6043464D4A1B6800201A603B6805
:10C740004B4A1A60A8470120A8470220A8470123A6
:10C75000002023703CBC90469946A246AB46F8BDEB
:10C7600023700120F6E7C046CC8E0110C1C5001031
:10C770000CB00040D30FFEFF00E100E0349901103F
:10C7800010B00040C0E7FFFF049C0110E88E0110CC
:10C7900051BC0100D707000040990110BD070000FF
:10C7A000089C0110BC000410C08E0110B8000410D9
:10C7B000BC8E01103C9901109FB9010048990110ED
:10C7C000DBB90100189C01103C0004104C990110C9
:10C7D000C01F0410C41F0410149C01100C9C0110F5
:10C7E000D41F0410D81F041044990110DC8E0110CE
:10C7F000E9CB0100D08E01108FCD0100EC8E01102D
:10C80000A3CE0100C88E0110CFCB0100A1CC001037
:10C8100041CC0010E4000410E48E01108499011052
:10C82000F48E0110E99F0100C48E0110DDDB0100D0
:10C83000D88E01105BDC0100D48E0110EC050410D1
:10C84000E08E0110E3D50100F88E0110200C0410D9
:10C85000B88E0110099F0100774401101C9C011043
:10C86000EDC40010109C0110E1CC00101DC500109B
:10C87000FDCC0010054B1A780523012A01D01800C1
:10C880007047034B18600023F9E7C046CC8E0110B7
:10C89000E88E011070B50E4B04001B684088002B19
:10C8A00014D09847010060800A4DA2882D68E38863
:10C8B0002088A847E2880500002A03D02100064B03
:10C8C000083198472800054B984770BD0100EBE7F9
:10C8D000C08E0110F48E01103B44011049C50010B8
:10C8E00070B516000A021D000243A020094B052165
:10C8F0001C68C0002B00A047041E0AD0002D05D0E4
:10C90000002E03D02A003100034B98472000034B30
:10C91000984770BDF48E01103B44011049C50010CA
:10C92000F0B544465F4656464D460023F0B4441EDB
:10C9300089B00193E31C00D8EAE000239946884BB4
:10C9400000279846874B884D9B46884B884E9A46D1
:10C9500003E04B460727002B52D04346290030689E
:10C960001B6898470028F4D12C68A3889946CD23EA
:10C970009B0099454FD02389039363890293019BC0
:10C98000002B00D07BE0A023DB00994551D053461B
:10C990001B682C68002B00D184E0CD22A388920074
:10C9A00093423DD0734A744F91463B701B0A7B7093
:10C9B000724B176020891B6898474B463871000AF4
:10C9C000787118682B68DB8843802C686389C38082
:10C9D0004B46083018606289002A00D092E0534626
:10C9E000083238001B681100984700230327994636
:10C9F0002C685B4620001B6898474B46002BACD147
:10CA0000019B002B50D1380009B03CBC90469946A0
:10CA1000A246AB46F0BD554B1B680293002B41D09C
:10CA200001239946019B002BE3D00023D027994690
:10CA3000DFE7534B1F889946029BDA19A0239B001E
:10CA40009A4203DD80274B46BF001F8021004A4BDE
:10CA5000029CFF1822000C3138004A4B98472200F4
:10CA60003900494B039898474B46A4464A461B88D1
:10CA70002C6863441380002302279946B9E70D22EE
:10CA8000002104A8414B9847332304AA1370303B7C
:10CA9000537093700233137193710D2110003C4B4E
:10CAA000984770E79946A4E733689846002B53D01F
:10CAB0001C6A142343449A46364B50461B689847D9
:10CAC0000025002C19D0CD26264B2000B6009B4611
:10CAD0009946444603E00500806800280DD00368AD
:10CAE0009B88B342F7D18368002D2FD0AB604B46B3
:10CAF0001B689847A8680028F1D1274B50461B684F
:10CB0000984780E721001F4B0C319847628966E700
:10CB10000D2200211D4B04A89847332304AA13704B
:10CB2000303B53709370023313719371230A537225
:10CB3000230C9372012314721373240E144B0D21D2
:10CB40001000D472984701230193F6E623625B46F6
:10CB50001B689847206AC0E74B461B6AFFDEC04649
:10CB6000E08E0110B88E0110B48E0110E88E011015
:10CB7000F88E0110F08E011084990110BC8E011006
:10CB80001C9C01103B440110B1C4001077440110FB
:10CB900095C80010D88E0110C48E0110802010B5E9
:10CBA000024B00021B689847082010BD3C990110F9
:10CBB000802010B5024BC0011B689847002010BDB3
:10CBC00048990110802010B5044CC0012368984793
:10CBD0008020236800029847002010BD489901106A
:10CBE000144915480B8F0A8D9BB2024392B20A85F5
:10CBF000DB05DB0D18D0DBB25A421340012B17D0F6
:10CC0000002201325B08D2B2012BFAD193409BB2D1
:10CC10000B870B8FDB05DB0DEAD18021074A8133BF
:10CC20004900FF33D15070470B8F03439BB2EFE7AE
:10CC30000123EDE7001001400080FFFF00E100E06C
:10CC4000144915480B8F0A8D9BB2024392B20A8594
:10CC5000DB05DB0D17D0DBB25A421340012B16D097
:10CC6000002201325B08D2B2012BFAD193409BB271
:10CC70000B870B8FDB05DB0DEAD18021074A81335F
:10CC8000FF33D15070470B8F03439BB2F0E7012372
:10CC9000EEE7C046000001400080FFFF00E100E039
:10CCA00010B50B4C238F5B0B02D10A4B984710BD7C
:10CCB000094B1B689847238F228F5B0B5B03134341
:10CCC00023878021C023054A49005B00D150EEE74D
:10CCD00000100140E1CB0010089C011000E100E0D1
:10CCE0000323022801D9180070470022024B80005C
:10CCF000C2500023F7E7C046209C0110027810B50F
:10CD000003680400012A1CD01A04120E012A0ED056
:10CD10001A02120E012A00D010BD0F4A9268002A92
:10CD200001D0904723680D4A13402360F4E70A4A74
:10CD30005268002A01D090472368094A13402360B3
:10CD4000E6E7054A1268002A01D090472368FF22CF
:10CD500093432360D8E7C046209C0110FFFF00FFEB
:10CD6000FF00FFFFF0B547460C0080B49046002856
:10CD700011D1002A0DDD094E094D8F1821003068B0
:10CD80002B6801349847BC42F8D1404604BC904619
:10CD9000F0BD0020FAE701204042F7E7349C011083
:10CDA0002C9C0110F0B54746013880B40E001500E8
:10CDB000022810D8002A15D00B4B002498460B4FA0
:10CDC00002E00134A5420BD04346315D18683B6850
:10CDD00098470028F5DA0120404204BC9046F0BD97
:10CDE0002800FAE70020F8E7349C0110309C01107D
:10CDF00070B5214B1C6823681D7DEDB26A060DD508
:10CE00001E212222A1541A7E23318A431A7621231D
:10CE1000E25C193B13421DD123681A7C01222A428D
:10CE200017D01B7C6169DBB20B70636901336361EE
:10CE3000A38B013B9BB2A383A38B9BB2002B08D196
:10CE40002121605C1D39014203D02020205C014279
:10CE500008D170BD2022A25C1342DDD020002369DE
:10CE60009847D9E71E316354216820000B7E934315
:10CE70000B76E3689847ECE7389C0110012170B508
:10CE8000224B1C6823681D79EDB229420CD0A2699F
:10CE900010780132C0B2A2611870E38B013B9BB2E3
:10CEA000E383E38B002B22D010232B4204D02122DA
:10CEB000A15C203A0A420BD120232B4207D0212229
:10CEC000A15C1F3A0A4202D0E35C1A4219D170BD3C
:10CED0002021615C0A42EFD000212132A154216857
:10CEE00020000A7A9A430A7263689847E4E7226846
:10CEF000137A8B43137210232268117A0B43137237
:10CF0000D2E7A36820009847E1E7C046389C0110AB
:10CF100070B5214B5C6823681D7DEDB26A060DD5A6
:10CF20001E212222A1541A7E23318A431A762123FC
:10CF3000E25C193B13421DD123681A7C01222A426C
:10CF400017D01B7C6169DBB20B70636901336361CD
:10CF5000A38B013B9BB2A383A38B9BB2002B08D175
:10CF60002121605C1D39014203D02020205C014258
:10CF700008D170BD2022A25C1342DDD020002369BD
:10CF80009847D9E71E316354216820000B7E9343F4
:10CF90000B76E3689847ECE7389C0110012170B5E7
:10CFA000224B5C6823681D79EDB229420CD0A2693E
:10CFB00010780132C0B2A2611870E38B013B9BB2C2
:10CFC000E383E38B002B22D010232B4204D02122B9
:10CFD000A15C203A0A420BD120232B4207D0212208
:10CFE000A15C1F3A0A4202D0E35C1A4219D170BD1B
:10CFF0002021615C0A42EFD000212132A154216836
:10D0000020000A7A9A430A7263689847E4E7226824
:10D01000137A8B43137210232268117A0B43137215
:10D02000D2E7A36820009847E1E7C046389C01108A
:10D03000E12303225B0203600023C260013203711B
:10D0400043718371C37102610233013283604261B3
:10D050008361C361036243627047C046F0B54746CF
:10D06000002380B417000022838343608360C36081
:10D07000036143618361C38320330160C254013380
:10D08000C2540133C254524B0500994200D16CE0A6
:10D09000504B994200D181E0FA790223002A00D056
:10D0A0000233013BDEB24C4B3C0098460336B600DF
:10D0B0000834BE19218A01CCC0B2C047A642F9D1BA
:10D0C0002B681A7DD20704D501211A7C1A7D1142E2
:10D0D000FBD1002120229954FB797A79591E8B418A
:10D0E00059013B791343BA790B43022A3AD034D918
:10D0F000032A2FD0042A01D10E22134320222968AB
:10D100008B54364B3E6898473100354B04009847A6
:10D1100082B20004000C70433109201A00238142BE
:10D1200007D20133DBB2401A8142FAD301331B0725
:10D130005B0F002128202C68D200215413432A6859
:10D140009BB293842B68002019762B68197204BC5B
:10D150009046F0BD0A221343D0E7012ACED1022225
:10D160001343CBE706221343C8E71E4C0920A04710
:10D170000A20A0471C4C0920A0470A20A0471B4BAF
:10D180001B4910201B4C1D60A0471B491120A047C4
:10D1900001221A4B1A6001321A607DE7114C0B20F4
:10D1A000A0470C20A047104C0B20A0470C20A04704
:10D1B0000E4B134912200F4C5D60A04711491320FC
:10D1C000A04704220D4B1A6004321A6064E7C0467F
:10D1D0000040004000500040A5D5001065DA001066
:10D1E000CD18011079DD001071DA0010389C0110A3
:10D1F000F1CD001091E100107DCE001000E100E0C3
:10D2000011CF00109DCF0010026801201379184241
:10D21000FCD000201170704702680120137D184275
:10D22000FCD0137C00200B707047C04610B517234C
:10D23000002A01D1180010BD2224035DDBB2052BAA
:10D24000F8D00523828301224161035503681A76D1
:10D250000023EFE79300C318596001232021934076
:10D26000425C134343547047012321228B4010B585
:10D27000845C23438354012904D120230268117A5A
:10D280000B43137210BDC046012210B521248A4001
:10D29000035D93430355012904D102681F31137ABA
:10D2A0008B43137210BDC0460023012070B5124D90
:10D2B0002E68318F89B202009A400124114209D1AF
:10D2C0000133102BF7D18021C0230C4A09045B00E5
:10D2D000D15070BD92B232874622AA5A1A411442E6
:10D2E000F1D04422AA5A1A411442ECD09B00EB1808
:10D2F0005B689847E7E7C046409C011000E100E00A
:10D30000F0B557464E464546E0B41B4E0024B36C7C
:10D3100001251F8FBFB27B0B5B039846174B9A46C4
:10D320008E23994613E02B00A3401F420CD0B26C11
:10D330009BB213874B46F35A23411D4204D08C23E2
:10D34000F35A23411D4207D10134102C09D0434622
:10D35000002BE8D0D047E6E71234A4003419636804
:10D3600098478021C023064A49045B00D1501CBC69
:10D3700090469946A246F0BD409C011051BC010068
:10D3800000E100E09023802210B51A495201C858EC
:10D39000038F9BB2134210D180229201134220D1FD
:10D3A0008022D20113421ED1DB0B1ED18021C0236B
:10D3B000114A89045B00D15010BD0C24D62392B2CF
:10D3C0000287CB5A012223411A42EFD0D423CB5AF1
:10D3D00023411A42EAD02434A40009194B68984723
:10D3E000E4E70D24EAE70E24E8E780220F24120286
:10D3F000E4E7C046409C011000E100E00023012268
:10D40000037042708370C3707047C046030070B5EC
:10D410001720012B2BD9072B2AD89D001038A840A4
:10D420005A4C626C824362641A001D3A022A34D854
:10D430001F24574D4A78287DE41A012A63D001221F
:10D44000A2400243D2B22A75CA78002A23D01F20F4
:10D45000C01A0123800083404D4900200A881343ED
:10D460009BB20B8002234B4A11780B43137070BDA3
:10D470000F2B3ED9172B4AD8072214001C40A400BA
:10D48000A240424DE86C9043E864CDE703409A40E7
:10D49000414B92B21A820020E9E70A78002A1AD199
:10D4A0000F2B49D801329A403C4892B282824A7886
:10D4B000012A63D0002A50D0022A5DD1012199406F
:10D4C000324A0B00506D010019435165116D002067
:10D4D00099431165CBE7012ADDD10F2B46D90F20E7
:10D4E0001F2BD3D903409A402D4B92B21A820020B1
:10D4F000BDE7072214001C40A400A240234DA86CE5
:10D500009043A86490E7A240904328759CE71A00D6
:10D510002C3AD0B2032800D986E70126822496400F
:10D520001B4DE400285D2A5D0007000FB0430F2665
:10D53000B24302432A5577E70F2018401F2B05D826
:10D5400001228240144892B28282B0E701238340D4
:10D55000134A9BB29382002089E7012199400B0076
:10D560000A48026D13430365002080E79A400B4B85
:10D5700092B21A8200207AE7172078E703489A408F
:10D58000016D0B0093430365002070E700B000407D
:10D5900000F0004000E000400010014000000140A9
:10D5A00000300140FF2370B50D0A194007280ED83E
:10D5B00007248600B440314B5A6CA2430C00B4409F
:10D5C0005A645A6C22435A64012936D070BD0F2820
:10D5D00016D807242200024092009440274B9E6CEC
:10D5E000A6439E640E00964032009C6C22439A64CF
:10D5F0000129EBD1A8310B283ED9D621490020E0E2
:10D600001728E3D8072422000240920094401B4BC5
:10D61000DE6CA643DE640E0096403200DC6C2243D2
:10D62000DA640129D2D1132825D90324DA22204033
:10D6300052009958C0003C3415E003280ED9D2217D
:10D64000490003221040C0003C32824085405C58B3
:10D6500094435C505A5815435D50B7E7D0223F249D
:10D6600052009958C00084408540A1439950995870
:10D670000D439D50AAE7B031FF31E2E700B0004012
:10D68000F0B58C4600230F2804D91F3383429B41F9
:10D690005B420133012A43D0002A33D0022A15D03D
:10D6A000032A21D00F2210400E3A8240234CDD0085
:10D6B0006146EB185D0028188000DB002018E31895
:10D6C0004433416019880A431A80F0BD0F2210408C
:10D6D0000E3A8240DD00194CEE18F600A15997B2BF
:10D6E0000F85A6593786E3E70F2210400E3A824095
:10D6F000DD00124CEE18F600A15997B20F85A6591D
:10D70000B786D5E70F2210400E3A8240DD000B4C61
:10D71000EE18F600A15997B28F85A659B786C7E7CC
:10D720000F2738408240DD00044CEE18F600A15966
:10D7300097B28F85A6593786BAE7C046409C01103C
:10D7400010B580220F281BD91F2814D90F4B920423
:10D750001A6002230F2210400E3A8240D9000C4C6E
:10D76000CB18DB00E11846310888E358104392B229
:10D7700008801A8410BD054B52041A600123E9E7A2
:10D78000024B12041A600023E4E7C04600E100E007
:10D79000409C0110114A10B5140000210020D8341B
:10D7A0001300403B02C39A42FCD1508010804832A3
:10D7B000A242F5D10A4B0B4A0B491A600B4A0C4C9A
:10D7C0009A649022272099500A49A0470A492820A4
:10D7D000A0470A492920A04710BDC046849C0110DB
:10D7E000409C011000000140003001400010014049
:10D7F00091E10010A9D2001001D3001085D30010D0
:10D80000F0B54F464646C0B44D8881461723002DDB
:10D8100004D118000CBC90469946F0BD282402683B
:10D82000135DDB07FCD4012334241355143C13553A
:10D8300002240B88FF345B0023439BB21380012337
:10D84000002498464046137BDBB2184206D010797C
:10D85000671C8446664648680655BCB2AC42F1D3A4
:10D86000DB0603D41021137A1942FCD04B465979B8
:10D8700000230029CDD120315354CAE7F0B55746D3
:10D880004E464546E0B44B88824689469846282253
:10D890000468A35CDB07FCD401233422A354143AAC
:10D8A000A3544B46002501261B88E0325B0013433E
:10D8B0009BB2114F23802E20B847237ADBB21E4241
:10D8C00005D0494649686A1C495D95B221804545A5
:10D8D000F1D3DB0603D41022237A1A42FCD053463C
:10D8E0005B79002B01D12022A35400201CBC904660
:10D8F0009946A246F0BDC046F545011003230370CA
:10D900000D334380083B43600133C360073B8360B2
:10D910000361704770B51500040001602822002DD6
:10D920000DD08B5CDB07DB0FDBB2002BF9D10B7565
:10D9300023680F4A934217D00E4A934201D0172012
:10D9400070BD19200C4B9847298928790B4E246803
:10D95000B047287B298AB0472B78002023746B8836
:10D96000238301232377EBE7034B03209847EBE75F
:10D97000003000400034004079DD0010A5D50010D3
:10D98000030010B51720002B06D0002904D0002278
:10D9900018005A71014B984710BDC04601D80010BD
:10D9A000030010B51720002B06D0002904D0002258
:10D9B00018005A71014B984710BDC0467DD8001021
:10D9C000030010B51720002B06D0002904D0012237
:10D9D00018005A71014B984710BDC0467DD8001001
:10D9E000012821D0002816D0022812D10C20184A74
:10D9F000936983439361174A174B1A600320144BB2
:10DA000001409A6982439A619A69002011439961A1
:10DA100000E0172070470C230D4A9069034393617F
:10DA20000C4A0D4B1A60E9E70822094B986902433A
:10DA300004209A619A69824380209A61074A000310
:10DA4000536803435360064A034B1A60D6E7C04647
:10DA500000B0004080BA8C01189D011000F0004019
:10DA600080841E00014B18687047C046189D011045
:10DA700000B5352800D96DE1B74B80001B58B74A77
:10DA80009F4602230020117D0B43137500BD012327
:10DA9000117D00200B431375F8E7802113690904F9
:10DAA0000B4313610020F1E780211369C9030B4385
:10DAB00013610020EAE78021136989030B43136196
:10DAC0000020E3E78021136949030B431361002021
:10DAD000DCE78021136909030B4313610020D5E7BC
