:020000041000EA
:108000000D480E4970B5884202D000230C4C03E0A5
:108010000C4B0D4A002106E0CA18A242F8D2C558FE
:1080200004331560F8E7934201D202C3FBE7074B24
:108030009847074B984770BD684801106848011081
:108040001449011014490110B4770110B93201101C
:10805000E5DB001010B5064C2378002B07D1054B4B
:10806000002B02D0044800E000BF0123237010BDA4
:10807000144901100000000068480110084B10B5B9
:10808000002B03D00749084800E000BF07480368F9
:10809000002B00D110BD064B002BFBD09847F9E711
:1080A00000000000184901106848011068480110DC
:1080B0000000000070B5094B9847FA21084C890070
:1080C0000500A047074B084918602800A047052273
:1080D000064B1860064B1A6070BDC04669B80010A8
:1080E000451201106C48011040420F006848011011
:1080F00010E000E070B5802504006D02002C10D067
:108100000A4B2E2098470A4B1A68002A01D1013CDD
:10811000F4E7084B5A6000229A601A682A42FCD0A1
:10812000F5E7054B0548984770BDC046C5340110BA
:108130006C48011010E000E0913401101844011067
:10814000012303704370FA23DB0143607047000092
:1081500000220321054B5A601A688A431A60802264
:10816000D20119681142FCD17047C04600D00040CE
:108170001021024A13680B431360704700D000407F
:10818000044B10B59847044B1B68002B00D0984750
:1081900010BDC0467181001030490110014B1860BC
:1081A0007047C046304901100022014B1A607047E9
:1081B0003049011037B50022224B1A730178022989
:1081C00002D11A7B013102E0012902D11A7B0A4354
:1081D0001A732C2500211C4BFF351A68540018D047
:1081E000196001910191019CAC4204D8C046019CE8
:1081F00001340194F7E74478002C02D18024A400D4
:1082000001E08024E401144201D01A68FBE71A68F7
:10821000E4E7426841785A600122002900D0022236
:108220001A604278012A08D1E021C9011A680A407F
:108230008A42FBD10022044B1A6004492B20044BD4
:10824000984737BD00E0004000D000408181001019
:10825000E5BF0010030028331B78DB07FAD4704712
:10826000F7B54F8806000D001720002F2ED0346878
:10827000174B200098472300012234331A70A318AB
:10828000DA772B8802219340FF310B4300219BB208
:1082900023800192237B019ADBB2134208D04A1C4F
:1082A00000922279944660466A6850546A46118862
:1082B000B942EFD31022134202D1237ADBB2FAE79C
:1082C00000207379834201D10134E077FEBDC046BE
:1082D00055820010F0B585B002AB9D1D00232B80A8
:1082E00004684B88070001932000174B0E00984745
:1082F0002300012234331A70A318DA7733888021DF
:10830000934049000B439BB22380237ADBB2134294
:1083100007D0298889B2481C80B228807068415CE7
:108320002180298801988842EFD81022134202D177
:10833000237ADBB2FAE77B79002B01D10134E377B2
:10834000002005B0F0BDC046558200100323037025
:108350000D334380083B43600133C360073B8360B8
:108360000361704770B505000E00141E296001D12D
:1083700017201EE008000F4B9847002333752B6829
:108380000D4A0320934203D00C4A9342F0D11920A6
:108390000B4B9847218920790A4E2D68B047207BE6
:1083A000218AB047237800202B7463882B83012314
:1083B0002B7770BD55820010003000400034004023
:1083C0005DBC001091B5001010B51723002806D031
:1083D000002904D000234371024B98470300180082
:1083E00010BDC0466182001010B51723002806D0CA
:1083F000002904D000234371024B98470300180062
:1084000010BDC046D582001010B51723002806D035
:10841000002904D0163B4371024B98470300180013
:1084200010BDC046D582001073B5174C631DDB7FAD
:10843000002B08D06B46DD1D002802D002232B70D4
:1084400012E0287010E0A27A002A1AD0002807D083
:10845000627C1800002A16D16B460132DA7101E005
:108460006B46D8716B46DD1D23680122597C636819
:10847000064E18782B00B047002802D12B78637481
:1084800001E00120404276BD70480110A9A0001013
:10849000F0B5204D85B00190AB7A0F00002B02D1D2
:1084A0000126764232E02B6803AC197C6B681A4EC9
:1084B000187802222300B047061EF1D12378647891
:1084C0001B021C4324B2002F02D03800134B9847E4
:1084D0006F682000124DA847041C0823F85EA847C7
:1084E000104B011C201C9847041CF888A8470E4B11
:1084F000011C201C98470D490D4B98478F210D4BAF
:10850000C90598470C4B9847019B1860300005B08F
:10851000F0BDC04670480110F9A00010EDA9001090
:10852000DD2201108D1F0110D119011000000C4235
:10853000E5160110651D01109922011073B54E4C0E
:10854000A37A002B01D1012093E06B46DD1D0023AF
:108550002B7023680122597C6368484E18782B00E1
:10856000B0470028EFD12368012259796368187851
:108570002B00B0470028E6D12368012219796368EF
:1085800018782B00B0470028DDD1631DDB7F002B5E
:1085900034D00C232B702368012219796368187872
:1085A0002B00B0470028CED1354B32309847C0233E
:1085B0002B70A37ADB0701D5E0232B7023680122FF
:1085C000197963682D4E18782B00B0470028BAD16E
:1085D000637C002B00D002232B7023680122597C7E
:1085E0006368264E18782B00B0470028ABD123686B
:1085F00028705979636818782B0036E004232B70B3
:10860000236801221979636818782B00B047002885
:1086100099D1A37C002B02D1A37ADB0701D440239C
:1086200000E060232B702368012219796368134EE0
:1086300018782B00B047002885D1114B323098476D
:10864000637C002B00D001232B7023680122597C0E
:10865000636818782B00B047002800D073E7230028
:10866000226810335179626810780122B047431EA6
:108670009841404276BDC04670480110A9A0001044
:10868000F580001073B51A4CA37A002B2DD0FA2375
:108690005B0098420ED003D80022FA280DD024E0C7
:1086A000FA239B00984207D0FA231822DB00984255
:1086B00003D01AE0082200E010226B46DA716B4604
:1086C000227ADD1DDB790020DB089A420FD0236877
:1086D000012299796368074E18782B00B04700286B
:1086E00003D12B78DB08237201E00120404276BDE4
:1086F00070480110A9A0001000B50E4A0300507A7E
:10870000032813D808F08AFD02040608022104E0B9
:10871000042102E0082100E0102100201970D27C21
:10872000824205D01A7852001A7001E001204042BE
:1087300000BDC0467048011073B5174CA37A002BDA
:1087400027D004280AD003D80022022809D020E02C
:10875000082805D01822102803D01AE0082200E0CB
:1087600010226B46DA716B46627ADD1DDB790020E0
:10877000DB089A420FD023680122D9796368074E3B
:1087800018782B00B047002803D12B78DB086372E0
:1087900001E00120404276BD70480110A9A0001000
:1087A00073B51C4DAB7A002B02D10120404230E062
:1087B0006B46DC1D0123BB280CD80223612809D895
:1087C0000323292806D80423132803D805230928BE
:1087D00000D806232370EA7A237800209A4218D022
:1087E0002B68012299786B680B4E18782300B047EC
:1087F0000028DAD140222378134323702B683F3AB4
:10880000197A6B6818782300B0470028CDD12378F7
:10881000EB7276BD70480110A9A00010054A531DE7
:10882000DB7F002B03D1D2890280180001E00120F8
:10883000404270477048011073B5011E02D10125F6
:108840006D421CE00F4CE0898142F8D86429F6D8CB
:108850006B46DE1D0C4B984723680138307005339A
:10886000D97F6368094D187801223300A847051E97
:10887000E5D13178E0890131054B98472085280002
:1088800076BDC0467048011045120110A9A0001025
:1088900059130110F8B50024144B5A1DD27F1E0045
:1088A000A24220D19C7A002C1BD00122904304408C
:1088B0001F7C1C74041B621E9441050064420C4A18
:1088C000002802D1187D002804D001209047002DF7
:1088D00009D001E0904706E0064B9847002802D0F7
:1088E0003774012464422000F8BDC046704801106E
:1088F000298400103D850010F0B5664C8DB00590C0
:10890000069107921D00631DDB7F002B01D0012320
:1089100049E02B70A37A002BF9D0237C002BF6D0F2
:108920005A06D20F520001929A0603D5019A0232DA
:10893000D2B20192DA0603D5019A0232D2B2019282
:108940001B0703D5019B0633DBB20193236809AEF5
:10895000197B6368022218784F4F3300B8470290A2
:108960000028D4D1337872781B021A436B469B8857
:1089700004920393131E039A934200D286E0626826
:10898000049953885B0899420FD923681078D97CE1
:1089900001223300B8470028B9D13378DB0604D56B
:1089A0003E4B984702235B426FE007983C4B984749
:1089B000384F09AE3B68384C597B7B68019A187870
:1089C0003300A047041EA2D1364B01990498984762
:1089D000129B01381870019B2C70002B19D00822B3
:1089E0003B7C134215D03378717893400B43069942
:1089F00006340B80B378F17893400B4306994B8093
:108A00003379717993400B4306998B802B781A4305
:108A10002A70039B9C4239D040201E4B1A7C024294
:108A20000FD009A90A5D0919497812020A4305996C
:108A300002340A802A78A4B21043039A2870A24212
:108A400024D020201A7C02420FD009A90A5D0919FE
:108A5000497812020A43059902344A802A78A4B25E
:108A60001043039A2870A24210D010221B7C13429C
:108A70000CD009A90B5D0C1961781B020B430599F9
:108A80008B802B7813432B700023029302980DB038
:108A9000F0BDC04670480110F9A000103D850010DF
:108AA000EDA9001059130110F7B53C4C0600A37C4A
:108AB0000020B34270D06B46DD1D236819796368CE
:108AC000864231D0187801222B00354FB847002854
:108AD00002D0012040425FE020222B78314F9343A7
:108AE0002B7023681F3A1979636818782B00B847F0
:108AF0000028EED12C4B0330984702232B70E31C47
:108B0000DB7F002B01D082232B70231DDA7F6B4685
:108B10000733002A03D030211A780A431A702268DA
:108B2000D17D6268107831E0187801222B001C4F4B
:108B3000B8470028CDD1A17A20222B78C90701D5CA
:108B4000134300E093432B706B46DD1D2368012225
:108B500019796368134F18782B00B8470028B8D1EB
:108B6000114B03309847E31CDB7F002B00D08023A0
:108B70002B70231DDB7F002B03D030222B78134377
:108B80002B702368D97D636818782B000122B847C1
:108B900000289ED10020A674FEBDC046704801107A
:108BA000F9A00010A9A00010F580001073B5174CB3
:108BB0000500231DDB7F0020AB4225D06B46073329
:108BC000854202D030221A7000E01D70A27C002A7B
:108BD00003D002211A780A431A70E21CD27F002ABD
:108BE00004D080211A7849420A431A702268084E3C
:108BF000D17D626810780122B047002802D1043488
:108C0000E57701E00120404276BDC0467048011082
:108C1000A9A00010F7B5061E282E31D82F4B01ACA5
:108C20002F4D00280FD19847072363702B682670BB
:108C3000597D6B680222187823002A4CA047041E35
:108C40001ED1287547E0012098470223012E0CD041
:108C50000323022E09D00423052E06D905230A2E4C
:108C600003D90623142E00D9072323702B68012271
:108C7000597A6B681B4F18782300B847002802D038
:108C80000124644227E02B680122197A6B68164E92
:108C900018782300B0470028F2D108262378012253
:108CA000334323702B68197A6B6818782300B84710
:108CB0000028E5D1202323702B680122597D6B68A1
:108CC00018782300B847041EDAD101232B75074B0F
:108CD000AE72287398472000FEBDC046AD8B0010D1
:108CE00070480110A9A00010F9A00010958800108C
:108CF000F7B5244B06009A7A1D00002A02D1012400
:108D000064423CE05A1DD47F002CF8D11B7D002B1F
:108D100007D0431E1C4A272B01D890472FE0200084
:108D200090470421032E06D9FA23311C9B009E4252
:108D300000D9191C89B2FA206B46144F8000DE1D41
:108D4000B8472B680138307059786B68104C187828
:108D500001223300A047041ED1D1FA2031788000CF
:108D60000131B8472B8DE881181C642B00D9642091
:108D7000084B80B29847E889074B40089847200085
:108D8000FEBDC04670480110158C0010591301102B
:108D9000A9A0001039880010A18700107023F0B539
:108DA00085B002AA07000340951D002B01D00123C6
:108DB00002E0002800D14023424C2B70236801229E
:108DC000597D6368404E18782B00B047002802D0C8
:108DD0000023A37237E040222B789343237317427A
:108DE00001D0287001E004232B70BB0603D40222BB
:108DF0002B7813432B70FB0603D401222B781343EB
:108E00002B703B0703D438222B7813432B70236835
:108E10000122997D636818782B00B0470028D7D1CC
:108E200008233A009A4301D0284B984702AB0733F6
:108E300001932368012219796368254E1878019BF4
:108E4000B047002802D001256D4237E0019B1B7816
:108E5000FA0704D511222A700F32134303E01022BF
:108E60002A7092189343019A1370631DDB7F002BC5
:108E700005D08022019B52421B78134303E0019BE3
:108E80001A787F231340019A137023680122073355
:108E9000D97F636818782B000B4DA8470028D2D1E2
:108EA00023680122197963681878019BA847051E79
:108EB000C9D12075074B3220A7729847280005B00A
:108EC000F0BDC04670480110A9A00010AD8B001085
:108ED000F9A00010F58000108023F0B5994C85B002
:108EE00002AD2B7023680122597D6368964E187875
:108EF0002B00B047071E02D0012464421EE164200B
:108F0000924B984723682F70597D63680122187827
:108F10002B00B0470028EFD140232B702368E0746A
:108F2000197A6368012218782B00B047051EE3D137
:108F3000FF23A37223726372E372A374E31CD877D6
:108F40000122231DD877607520752000012652422A
:108F5000E281227422857E4B16300D322900267361
:108F60009847FA20631DDD77A31DDD77C000794B9C
:108F7000E58498470028BFD10230774B98470028F6
:108F8000BAD12A30754B98470028B5D13230744B8E
:108F900098470028B0D1734B98470028ACD13000D7
:108FA000714B98470B3601AD2B0001220021300098
:108FB0006E4FB847002802D12B78482B04D00136D9
:108FC000F6B2102EEFD118E0694B30001E7010235E
:108FD00001222B700A212B005B4EB04700280CD1D8
:108FE00001205A4B98471F232B70614B01221878A0
:108FF0000A212B00B047002808D00A205D4B984773
:10900000041E00D078E75C4B984797E001304F4B47
:109010009847574B0322187810212B00534FB8471D
:109020000028EAD12B7801228033A3856B780A21AE
:109030008033E385AB788033238610232B704C4B31
:1090400018782B00B047071ED7D101203F4B984717
:10905000454B3800984740232B7023680122997EA6
:10906000636818782B00B0470028C6D18022404B97
:1090700052421B7813432B7023688132997F6368B7
:1090800018782B00B0470028B7D102232B70236833
:109090000122D97F636818782B00B0470028ACD133
:1090A00088232B70236801220133D97F63681878E5
:1090B0002B00B0470028A0D1224C01AD23002A3359
:1090C0001B7801222B7023681F4E0233D97F6368FF
:1090D00018782B00B04700288FD10A232B70236803
:1090E00001220333D97F636818782B00B04700282A
:1090F00083D181232B70236801220433D97F6368D5
:1091000018782B00B047002800D076E711232B7089
:10911000236801220733D97F636818782B00B04792
:10912000002800D069E703232B702368012208334D
:10913000D97F636818782B00B0475EE7200005B040
:10914000F0BDC04670480110A9A00010F5800010C5
:10915000493301108586001039870010A18700105F
:10916000F18C001095880010A98A0010F9A0001059
:109170009A480110398800109D8D0010F7B50D0038
:10918000161E01D101201EE0104CA37A002BF9D04D
:10919000020A01AB1A70C0B2626858704018518957
:1091A0008842EFDC21681078C97E0222084FB84758
:1091B0000028E7D12368EAB2197E63681878330083
:1091C000B847431E98414042FEBDC046704801105A
:1091D000A9A00010F7B51C4D04006E1DF37F002000
:1091E000A3422FD0844219D0AB1DDB7F834227D00E
:1091F000164FB847164B00209847E88C154B9847F8
:109200006B4600246A6807331C7010782321012202
:10921000114DA8470120F077B8470DE00B4B200017
:1092200098476B462A7C07331A706A6823211078A6
:10923000094D0122A847F477084B9847200001E028
:1092400001204042FEBDC046704801102984001034
:10925000A98A0010F18C0010A9A000103D85001013
:10926000F0B5264E87B00191B37A0500DB0701D433
:1092700001273EE0336803AC283319787368204F28
:10928000187808222300B847071EF1D1032322785B
:109290001340012B2AD1E3797F2B29D8A178637859
:1092A0000902194309B229802279E37812021A438C
:1092B00012B26A80A37960791B0203431BB2AB80B0
:1092C0002C24305F4143091229802E20315E4A430D
:1092D00012126A803021725E53431B12AB80019BD5
:1092E000002B07D01800074B984703E0022700E047
:1092F00003277F42380007B0F0BDC0467048011018
:10930000F9A00010EDA90010024B5B689B89038057
:1093100000207047704801101FB50924064922003B
:1093200001A8064B9847972001AA2100044BC000D2
:10933000984704B010BDC046844401103733011073
:109340007D91001030B5134987B004000C2215310F
:1093500003A8114B9847C82C02D90120404217E0BE
:1093600021000E4BC8209847013880B201AA030A99
:10937000507002210A480B4D1370A8470028ECD109
:1093800003AA0C210848A8470028E6D1074B9C8176
:1093900007B030BD84440110373301105913011058
:1093A000160200007D910010C10A0000344901102E
:1093B000F7B50600430700D188E0C823DB009942D7
:1093C00000D983E0434B08009847434B43499847F3
:1093D0006B46DC1C051C424B200098472378042B6D
:1093E0001AD00BD8022B71D18D213E4FC905281CF4
:1093F000B8473D4B98473D4984B220E0082B15D033
:10940000102B63D18A21374FC905281CB847364B2A
:109410009847374984B212E08C21324FC905281C85
:10942000B847314B9847334984B208E08B212D4F20
:10943000C905281CB8472C4B98472F4984B2281CD3
:10944000B847294B984701AD80B2230A2B70030A15
:109450006C70AB70E870F30703D40224264221D06D
:1094600010E0EA202A0002214000244CA0470028F6
:109470002CD16B4625309A1D0221FF30A0470028D1
:10948000EBD023E0EC202A00210040001B4FB8471E
:1094900000281BD16B4629309A1D2100FF30B847A8
:1094A000002813D10420304012D0EE202A000221DF
:1094B0004000124CA047002808D16B462D309A1D61
:1094C0000221FF30A047461EB04100E0012040428B
:1094D000FEBDC0466D230110D119011000004843A4
:1094E000F9860010651D0110791601100000404634
:1094F0000000C0440000C045000040457D910010C0
:1095000007B501236A4603400732002B00D0302301
:109510001370830703D50C2113780B431370430793
:1095200003D5032113780B431370A42001214000BD
:10953000014B98470EBDC0467D91001007B5012331
:10954000002804D0031C042800D90423DBB26A4697
:1095500050200732013B13700121FF30014B984727
:109560000EBDC0467D91001007B5074B05219847F9
:1095700001AA80B2030A5070EF201370022140004C
:10958000024B98470EBDC046451201107D91001058
:1095900007B5074B0521984701AA80B2030A50700E
:1095A000ED20137002214000024B98470EBDC046CB
:1095B000451201107D91001013B50C00FA21094BE2
:1095C00089009847604301AA03161370031453706F
:1095D000D0700312AE2093700421034B40009847D3
:1095E00016BDC046591301107D91001007B5074BF9
:1095F0000521984701AA80B2030A5070AD2013706C
:1096000002214000024B98470EBDC0464512011092
:109610007D91001007B5074B0521984701AA80B23C
:10962000030A5070AC20137002214000024B98478F
:109630000EBDC046451201107D9100101FB50028D7
:1096400002D0084B98470BE0074909222131074B0C
:1096500001A89847972001AA0921C000044B984708
:1096600005B000BD19930010844401103733011078
:109670007D91001007B501AA002808D0C0231370FF
:1096800002335370023393700233D37001E0044B02
:1096900001930421034B04489847044B98470EBD9F
:1096A0008B8B8B8B7D910010980A00003D850010FC
:1096B00007B501AA002808D020231370083353707F
:1096C000083393700833D37001E0044B01930421F5
:1096D000034B04489847044B98470EBDA3A3A3A38C
:1096E0007D9100109E0A00003D8500100223F0B518
:1096F00087B003AC2370C83363701933A370DA3BAF
:109700000500E3702200604B042168209847402642
:10971000A3232E40237005D01D3363700833A3703C
:10972000063B01E06370A370E370C0235B002B4035
:10973000009305D0C423237108336371063B02E014
:10974000A32323716371A371A3232200E371237206
:1097500063720A214C4B4D48984703232B400193D9
:1097600001D0202300E0D8232370220001214848A3
:10977000454B98472020284002D0464B984701E0AF
:10978000454B9847009B002B16D0EB0507D5B2231D
:109790002370273B63702B33A3701B3B06E0B02381
:1097A0002370303B63703433A370243BE37022009A
:1097B00004213A48344B984701273D4223D0F823EF
:1097C0008B202200237039002F4B00019847FA218B
:1097D000334B07209847334B072098473800324BCC
:1097E0009847324B64209847FA20314B4000984705
:1097F000C821304B30489847304B28209847304B91
:109800000A20984707E0D8238B20237022003900D4
:1098100000011D4B9847AB0701D5D92300E0D823A1
:1098200023702200184B0121264898470420264B1C
:10983000284000D0012098471020244B284000D019
:10984000012098470823224C2B436381214B9847E2
:10985000002E01D1A67301E00623A373009B002B09
:1098600002D0A37B0633A37314231D4202D0A37B33
:109870001033A373019B002B02D0A37B0433A3738B
:10988000002007B0F0BDC0467D910010A70A00007F
:10989000B60A0000199300103D960010A20A0000BD
:1098A000B1930010019500103D95001069950010CE
:1098B00091950010B995001009E3CA02ED950010CA
:1098C000159600103D07000075960010B196001027
:1098D000344901103D850010034B00201B78034BD9
:1098E0001B78034B1B78704794650110E4630110EB
:1098F00098650110094B10B5012098470022084BCC
:109900001A70084B22321A70074B1B78002B02D1B9
:10991000064B213A1A70002010BDC04691AA0010D3
:109920009865011094650110E463011075640110DD
:1099300010B5014B984710BDF5980010022210B5E4
:10994000024B16201A70024B984710BD9865011003
:10995000F9A3001010B5184B18489847184C2378F5
:10996000002B05D10122174B1A70174B984722E0A4
:1099700020782038032816D807F050FC0210090977
:10998000124B984700280ED1112323700BE00020C2
:109990000F4B01002B3318700E4B98470E4B1321C1
:1099A00018880E4B98471123032223700C4B162066
:1099B0001A700C4B984710BD11A00010CD44011037
:1099C000946501107564011085D9001039EB001001
:1099D000F8640110D1A700107664011065EB001047
:1099E00098650110F9A30010112210B5024B1A70EE
:1099F000024B9847002010BD946501105599001046
:109A000010B5074B1A78202A05D10189054A118023
:109A100021221A7001E0044B9847002010BDC04677
:109A2000946501108A6501105599001010B5094B15
:109A30001A78212A09D101321A700748074B984732
:109A40000121074B0800984701E0064B984700208A
:109A500010BDC04694650110E244011011A0001031
:109A600051A8001055990010202230B50B4B85B03D
:109A70001A700B4B9847041E0DD10A4B02900193AC
:109A8000C823DB000093020003000121064DA84714
:109A9000002800D0E234200005B030BD94650110EC
:109AA00099D000108F020000FDE9001070B5164C2F
:109AB00006002378222B0BD10025144B29002B33D1
:109AC0001D702800124B984729002800114B984719
:109AD000112323702378104B1B78104B1B78B3781D
:109AE0001A2B09D004D8052B06D0082B07D103E088
:109AF000292B01D03B2B02D1094B984701E0094BA0
:109B00009847002070BDC04694650110F8640110AC
:109B1000D1A7001051A80010E4630110986501104E
:109B2000699A001055990010232230B54C4B87B02C
:109B30001A704C4A01A9138801331380032800D9F5
:109B40007FE007F06BFB020C192E474B00201A79BF
:109B50007E2A01D80132D0B21871087009E0424B58
:109B60000022587AFF2801D00130C2B25A72803ADE
:109B70000A701C8C012266E03C4B1A6A10160870B1
:109B800010144870CA701012DA69887010160871C3
:109B9000101448711012CA7188710233DC8F0822C8
:109BA00051E0334B0E201A5E0A7012124A701020D8
:109BB0001A5E8A701212CA7012201A5E0A7112128C
:109BC0004A7108201A5E8A711212CA710A201A5E3E
:109BD0000A7212124A720C201A5E18008A7212124D
:109BE000CA722C309A1DD48F0278002A07D10A73CA
:109BF0004A738A73CA730A744A740C3211E01425CA
:109C00005A5F0A7312124A7316255A5F8A73121228
:109C1000CA7318255A5F0A7412124A74002202701D
:109C200012321D002D352878002802D18874C8749E
:109C300009E0DB6914228B741B12CB7400232B7098
:109C400001E00022140092B220000A4B984700283D
:109C500004D1094B21001888084B984707B030BD44
:109C600094650110B465011078640110F864011066
:109C7000E8630110E1F200107664011081F4001035
:109C8000012313B501930300143300930100002353
:109C900012311A00014CA04716BDC046C1F2001097
:109CA000F0B585B0039202280FD85022234B0292C0
:109CB0001B5CBE249C46224B5A251B5C57260193F5
:109CC000204B1C271B5C532008E0002318001C00BD
:109CD0001D001E001F009C460293019362464A82AB
:109CE00002220A706A46127A48718A7112220A8523
:109CF000039ACB71CA626A4692880B720A864A86B8
:109D00000A000023112034324F708E70CD700C7118
:109D10004B728B72CB720B734B738B73CB730B7455
:109D200010708B638B87CB871374537493741232C8
:109D300053809380D3800B6405B0F0BDC444011000
:109D4000C7440110CA440110012210B5044B02217E
:109D5000DA7058780023034C1A00A04710BDC046A3
:109D6000786401101DD70010012210B5044B0221A8
:109D70001A7298790023034C1A00A04710BDC04600
:109D8000786401101DD70010F7B501AC104F20000A
:109D9000B8470223637001230025E3700D4B257043
:109DA0000D4E21005878B0472000B8470223637059
:109DB0000123E370074B257098792100B0472000FC
:109DC000B8472100172025706570B047F7BDC04621
:109DD00039B300107864011049B3001070B5054D17
:109DE000054C687802220549A047A8790222044957
:109DF000A04770BD7864011069B60010499D00103D
:109E0000699D001070B51F20084CA04705001D205B
:109E1000A0470300002D04D00320002B04D10238FA
:109E200002E0581E8341580070BDC046CDB40010FA
:109E300070B53E4D0600EB7AAB723D4B9847E87229
:109E40003C48002E02D03C48012E6BD13B4B98473A
:109E5000E87A0022032867D807F0E0F95F0223358B
:109E6000374B1A78D4B2002C23D02200223A012A90
:109E700058D8344B2B331978012902D10020324BAA
:109E800098470023314A00201370314A13702B7811
:109E9000B34203D06B79B34244D101202D4B984794
:109EA0003EE0274B1A78D4B2002C02D0222CE0D00E
:109EB00038E00120254B22001870254BFA211C7038
:109EC000254B1C7025E01E49204C0A78204DD2B24B
:109ED000002A05D10121214B22702A70197023E03C
:109EE000184B0A782B33222A02D00A78232A01D170
:109EF000012200E0002200211A700800124B98474E
:109F0000022323700024FA2122000120124B2C701E
:109F10001C70134B9847220006E001220F4B1A7069
:109F2000002201E001225242100070BD786401104D
:109F3000059E00106C4501107E45011011A0001017
:109F400094650110F8640110D1A70010E4630110BA
:109F500098650110299B0010B66501107564011009
:109F600045AA001010B50C00002803D10B4B5878FF
:109F70000B4B04E0012803D1084B5878094B984754
:109F8000002C03D1054B9879054B04E0012C03D13B
:109F9000024B9879034B984710BDC0467864011076
:109FA00001B700104DB7001013B56B460020054CEB
:109FB000DA1D2100044B107098472000034B98478E
:109FC00013BDC04684640110A19C0010819C001048
:109FD000F7B501AC0B4F2000B84701230A4E210012
:109FE0000E202370B047094D00210E20A847200005
:109FF000B847012321000F202370B04700210F2014
:10A00000A847F7BD39B3001049B3001045B500109B
:10A01000044B1B78044B1B78044B1B78044B1B78B8
:10A020007047C04694650110E46301109865011003
:10A030007464011030B5102087B0144CA047144B45
:10A0400058601020A047134B01AC5860124B200001
:10A05000984701232370813363807A3B6360013327
:10A06000E360073BA36023610C4D22000C492800EC
:10A070000C4B98470028F7D12B681A002832127829
:10A08000D207FAD401221A7507B030BD053301108A
:10A09000A0650110806501104D8300108C650110D2
:10A0A000003000406583001070B50F4C2080501CBC
:10A0B000C0B26080606801700021C8B2824205D9D8
:10A0C000481C6568595C29540100F6E7074D2100DA
:10A0D0000748084B9847002805D0013DADB2002D38
:10A0E000F5D10120404270BDA0650110E9030000D8
:10A0F0008C650110E9830010F7B517000122009369
:10A10000174B184C5A805A6880B2174D188001932B
:10A11000117020806780154E01993000144B9847CC
:10A12000002806D0013DADB2002DF4D101204042FF
:10A1300015E00D4D210030000E4B9847002804D04B
:10A14000013DADB2002DF5D1F0E7C3B29F4205D974
:10A150006368009A1B5C13540130F6E70020FEBDD3
:10A16000A065011080650110E90300008C650110F5
:10A1700009840010C9830010084B10B51A0028325A
:10A180001278002A08D0012229331A7000230221F4
:10A190001A001E20024CA04710BDC046E863011003
:10A1A0001DD70010F7B501AC0B4F2000B8470023B6
:10A1B00001252100094E23701E2002336370E570D3
:10A1C000B0472000B847210006202570B04729007D
:10A1D0000620034B9847F7BD39B3001049B3001070
:10A1E00045B5001010B5022202491E20024B9847C7
:10A1F00010BDC04679A1001069B6001070B50020EE
:10A20000234B9847051E40D1224B79209847224B7B
:10A2100078209847214B0A209847214B0A209847DD
:10A22000204B21489847214B21489847214B2248F1
:10A2300098470722F020214C4000A31CDA77204BDE
:10A24000A08498471F4B0A2098471F4B012098472E
:10A250000123E21CD3772200283213702300293314
:10A260001D7023002A331D7023002B331D70230023
:10A270002C331D7023002D331D7023002E331D70D1
:10A2800002232F342370280001E00120404270BDDA
:10A29000D98E00109D8D001095880010F18C001053
:10A2A000398800101D880010EE630110F986001037
:10A2B000E963011009930010EC630110E8630110D9
:10A2C000ED96001045930010D59100107FB5002544
:10A2D0001A4C03AA631CDD770B236B4400930A23FB
:10A2E00017496B441748184EB04722002B32137899
:10A2F000012B02D80133137008E0144B03A9144852
:10A3000015709847230001222D331A7022002A323B
:10A310001378012B02D80133137009E0002303A93D
:10A3200013700C480C4B9847230001222C331A70F1
:10A33000012300202E34237004B070BDE8630110A7
:10A34000F6630110F0630110F98800109184001089
:10A3500004640110FC6301106192001013B56B4698
:10A36000DA1D0023044C137021000220034B984790
:10A370002000034B984713BD18640110A19C0010E6
:10A38000819C001010B50021014B984710BDC046BC
:10A3900045B5001010B50121014B984710BDC046CE
:10A3A00045B5001013B501AC2000064B98470123BA
:10A3B000210023701620044B98471620034B984722
:10A3C00013BDC04639B3001049B3001095A3001067
:10A3D00010B5064B04009847002802D12000044B1A
:10A3E00001E02000034B984710BDC04609B500109E
:10A3F00095A3001085A300100B4B10B598470022C1
:10A400000A4B64211A700A4B1B78DBB2022B05D071
:10A41000032B02D12D31FF3100E011000122054B49
:10A420001000984710BDC04685A30010BC65011000
:10A430009865011045AA00101E2313B5044A05496A
:10A4400013701D3B0093044C044B0548A04713BDFB
:10A45000E76401109965011021A90010D46401106E
:10A46000A8650110A223F7B53B4D3C4C2B7000238F
:10A470006B700023AB700323394F00933900230026
:10A480002A00384E3848B0476378A2781B0213433D
:10A49000364A3900D380A4232B70A13B00932A00B5
:10A4A0002300304E3048B0476378A2781B02134334
:10A4B0002E4A39001381A6232B70A33B00932A0058
:10A4C0002300284E2848B0476378A2781B02134324
:10A4D000264A39005381A8232B70A53B00932A00FC
:10A4E0002300204E2048B0476378A2781B02134314
:10A4F0001E4A39009381AA232B70A73B00932A00A0
:10A500002300184E1848B0476378A2781B02134303
:10A51000164A3900D381AC232B70A93B00932A0043
:10A520002300104E1048B0476378A2781B021343F3
:10A530000E4A39001382AE232B70AB3B00932A00E6
:10A540002300084D0848A8476378A2781B021343EC
:10A55000064A00205382FEBDE7640110D464011056
:10A560009965011021A90010A8650110F864011077
:10A5700010B50A4B984700280ED10224084B01223F
:10A58000991DCC77190028315A700A701A002A33A5
:10A5900029321070187000E0102010BD65A4001062
:10A5A000F8640110012170B5012408000D4B984793
:10A5B0000D4D0E4BAE1DF47798470D4B0320984779
:10A5C0000C4B9847002800D0FEE702230722F377C0
:10A5D000094B21001A702000084B6C709847084BFB
:10A5E0001C7070BD659F0010F864011039A4001044
:10A5F000F580001071A5001074640110D1A700103F
:10A6000075640110F7B5294B294EDA7F032A26D04D
:10A61000042A48D10023274C274D23706370A37070
:10A62000E370264900922B002200254F2548B847A9
:10A630006B7822491A04AB7822481B021343EA784C
:10A640001343B36142232370413B009322002B004C
:10A65000B8470323154AD377731D012222E0002354
:10A66000144C154D23706370A370E3700433220003
:10A67000009312492B001348114FB8476B780F49CC
:10A680001A04AB780F481B021343EA781343736133
:10A6900052232370513B22000093094C2B00A0470A
:10A6A0000422024BDA770020FEBDC046FE64011092
:10A6B000F8640110E7640110D46401109965011079
:10A6C00021A90010A8650110F0B50025254C85B022
:10A6D000E689A36936029E1BF3170393224F208A53
:10A6E00032002900B847FA234902C00D0843DB00B5
:10A6F000C01820623200A089F3172900B8470B0068
:10A7000049068C460200D9112389D00962469C462D
:10A7100067462B0010433A0480185941009001917C
:10A720003200039B104E60892900B0470E060B12C1
:10A730002900020A3243E688F00380185941626911
:10A740002B00094DA847CD02420D2A434B15009816
:10A750000199121A8B4111005B04CA0B1A43E26182
:10A7600005B0F0BDF86401102116011010B50A4BB8
:10A770001B78222B0ED1094B984700280AD1084C90
:10A78000631DDA7F002A05D0D877064B984701234E
:10A790002A34237010BDC0469465011005A6001030
:10A7A000F8640110C9A6001013B56B46DA1D00232A
:10A7B000044C137021000120034B98472000034BE9
:10A7C000984713BD24650110A19C0010819C0010C6
:10A7D000154B70B52F330D00002804D002221E2027
:10A7E0001A70124B02E018701E20114B9847114B43
:10A7F000114C002D0ED003219A1DD17702222B334C
:10A800001A7000210D480E4B98470E4B98470123B4
:10A81000237007E002220633DA770B4B98470B4B85
:10A820009847257070BDC046E863011001B700105D
:10A830004DB70010F864011088650110642600000F
:10A8400085A90010B5A90010A9A90010D5A900106C
:10A8500010B50C00002803D00D4B9847011E04D002
:10A86000002106200B4B984704E001200A4A0B4BBD
:10A8700010709847002C06D00122094B0633DA7776
:10A88000084B984703E021000720024B984710BD72
:10A89000FDA1001045B50010E8630110D1A700101C
:10A8A000F8640110A5A5001030B58DB001AC2000F2
:10A8B000134B9847102321002370124802AC124B0F
:10A8C00098472000114B98476823132223710023D7
:10A8D0000F4DA370E2601133143AA36022610D3B67
:10A8E00022621332A361E36162616362220009495B
:10A8F0002800094B98472800084B98470DB030BDF9
:10A9000045AD0010996501107DAD001051AD0010EE
:10A91000A86501100070004045AE0010B9AD0010F0
:10A92000F7B504001E0008AB1B88094F00920122F6
:10A930000D000193B847019B320000992000054E9D
:10A94000B0470600290000222000B8473000FEBDB5
:10A95000E1AF001061AF0010084B10B51A002832AB
:10A960001278002A08D0012229331A70002303210B
:10A970001A004220024CA04710BDC046F8640110E6
:10A980001DD7001037B5064B040068460D009847E8
:10A990006B4668465D70034B0194984737BDC046CF
:10A9A00041810010B581001010B5014B984710BDD2
:10A9B0005181001010B5044B044898478022044B85
:10A9C00012051A6010BDC0469D81001059A90010E3
:10A9D00000E100E010B5034B98478022024B1205BE
:10A9E000DA6710BDA981001004E100E070470000A3
:10A9F00030B5002589B001AC2000084B9847084BC2
:10AA00002000A3606361074B657065739847280059
:10AA1000054CA0470120A04709B030BD41B000104F
:10AA200080BA8C01D5B00010B1B0001010B5040090
:10AA3000024B98472000024B984710BDE1B100102F
:10AA4000B1B0001010B514000122022802D80B4B3F
:10AA50008000C258002901D1FA218900002308484A
:10AA60004A43037019002000064B98472000064B0C
:10AA700098478022054BD2011A6010BD9045011005
:10AA80007564011065B0001089B0001000E100E0AD
:10AA900010B5014B984710BDB1B000100121044B17
:10AAA00010B59970002340201A00024CA04710BD39
:10AAB000E46401101DD700100121044B10B59970FA
:10AAC000002341201A00024CA04710BD95650110DB
:10AAD0001DD70010F8B5504C25782700EDB2012D98
:10AAE00002D0022D68D08FE000234C4E2370F37A01
:10AAF000B3724B4B98474B4BF0724B489847B37A25
:10AB0000012B02D0022B27D04FE0F07A012802D08F
:10AB100002280FD019E0454B1A78D2B2002A3DD155
:10AB200043490B780133DBB20B700F2B25D8207013
:10AB3000FA215CE03D4A1278D2B2002A05D13C49A4
:10AB400023700A701800642151E03A4A1278002AF2
:10AB500061D1394A13705EE0F07A012814D00228DE
:10AB600023D1324B1A78D2B2002A1ED130490B7849
:10AB70000133DBB20B700F2B02D922702F4B30E068
:10AB80002570FA21280032E0284B1A78D2B2002A28
:10AB900004D1274B20701A70642128E0254B1B78C4
:10ABA000002B38D1244B187035E0224B1B78002B3A
:10ABB00031D1214B1D702EE0184EF37AB372184B31
:10ABC0009847184BF0721848984772891C4B9A4264
:10ABD00010D1174A13780133DBB21370092B02D955
:10ABE000184B984717E00022FA2101202570164BD8
:10ABF000984710E0154B2B331978012902D100201A
:10AC0000134B984700233B700A4B1B78002B02D153
:10AC10000122094B1A70F8BDE46301107864011039
:10AC2000059E001011A000109C45011094650110B4
:10AC3000B665011098650110756401103D9900100A
:10AC4000030300005599001045AA0010F864011094
:10AC5000D1A7001070B52E482E4B98472E4D2C785A
:10AC6000E4B2022C20D0032C34D0012C4ED1002190
:10AC70002A4A29701378222B06D1294B1B788B4244
:10AC800044D1284B1C7041E0274803780133DBB2E4
:10AC90000370002B03D022232970137036E02C7030
:10ACA0002200642120002FE00023204A2B7013781B
:10ACB00016200133DBB213701378072B04D91C4B19
:10ACC00098471C4B984714E01B4B98472C70012267
:10ACD000642118E00023154A2B70137816200133E5
:10ACE000DBB213701378032B07D9114B9847134B22
:10ACF000984701220B4B1A7008E00F4B9847C82168
:10AD000001222C70490010000D4B984770BDC046C1
:10AD1000B045011011A00010986501109465011054
:10AD2000E46301107564011089650110BC650110B0
:10AD300095A30010699A0010D1A300106DDB0010DC
:10AD400045AA00100C2303700023437083707047E2
:10AD500001230370002343708370C3708133037138
:10AD6000773B83600133C360013303610133436187
:10AD70000B3B8361C36103624362704773B5040098
:10AD800001260B7801AD03704B7843708B7883708C
:10AD90002800064B984729002078054B2E709847CD
:10ADA00031002078034B984773BDC04639B300107B
:10ADB00049B3001045B50010012203681A767047A8
:10ADC000002310B50268137603680C4A934208D139
:10ADD0000B4C4120A0472620A0473820A047012047
:10ADE0000AE0084A934208D1054C4220A047272098
:10ADF000A0473920A0470220A04710BD00600040B6
:10AE00005DBA00100070004010B50A4B0468984706
:10AE1000094B9C4204D10120084CA047382006E091
:10AE2000074B9C4204D10220044CA0473920A04784
:10AE300010BDC046C1AD0010006000405DBC0010F8
:10AE400000700040F0B5060031600B7E85B00F0049
:10AE50001400DB0701D500230B763A4B30009847EE
:10AE60003368394A934208D1384D4120A8472620FB
:10AE7000A8473820A84701200AE0354A934208D164
:10AE8000324D4220A8472720A8473920A847022052
:10AE9000A847304B03A898472300250018330835EE
:10AEA00001932868431C0ED02378012B01D0002B7E
:10AEB00001D102AA137103A9274BC0B29847298A6E
:10AEC0002878264B9847019B04359D42E9D1E378C9
:10AED0003B742378012B00D13B772378002B00D1E2
:10AEE0003B772278336872712278012A01D1227966
:10AEF0009A8261780533DA7F042901D10A4301E09F
:10AF000004218A43DA77A078032817D80222D97F50
:10AF100006F084F9020B050E91430A0000E00A4393
:10AF20000121DA77DA7F8A4307E091430A0000E0E3
:10AF30000A430121DA77DA7F0A43DA77002005B085
:10AF4000F0BDC04609AE00100060004075B80010AA
:10AF50000070004039B3001049B3001091B50010E3
:10AF6000F7B56D46EF1D002504683D701F26AC4205
:10AF700034D0A94205D180790D0038701E3E3900C9
:10AF800009E0002A04D01726002B27D02E0002E06B
:10AF9000160001253A00200028300078C007C00FB5
:10AFA000C0B20028F7D1277B277A77427E416F42D3
:10AFB0007D4198420ED0277AFF07FCD50F78277085
:10AFC000277BFF07FCD527790130177080B28919DC
:10AFD0005219EEE7237ADB06FCD500263000FEBDD1
:10AFE00010B5044B08780021002A00D101219847B0
:10AFF000002010BD45B5001010B50C4B1A7D002A7D
:10B0000006D001221A730A4B1B68002B00D0984708
:10B01000084B1B78002B07D00122074B1A70074BF7
:10B020001B68002B00D0984710BDC04600100040A0
:10B0300044490110341000402C10004048490110D0
:10B040000222012342704273002203700373837053
:10B050008373C270C27303710374826042610276AB
:10B0600070470000074B002805D1002901D11A6064
:10B0700006E09A6104E0002901D11A6200E09A63B7
:10B080007047C0460010004080235B42002805D175
:10B0900005490A7A1343DBB20B7204E003490A78CC
:10B0A0001343DBB20B7070470010004028100040C3
:10B0B0007F23002804D1054A117A0B40137203E064
:10B0C000034A11780B4013707047C04600100040CF
:10B0D0002810004070B504003A4B042098472378AC
:10B0E000002B02D1237B002B0DD020223649CB68C8
:10B0F0001343CB60207E1D3A024030208B69120141
:10B10000834313438B61002322789A4226D06278CE
:10B110000133002A03D0023A534253419B010220DB
:10B12000A1782279490001400D00E17881400A3080
:10B13000014029430B43002A01D020221343C4209D
:10B140000126A168214A204D116040001372295C3C
:10B15000314329548021107A01431172227B002A45
:10B160002AD0627B002A05D0012A05D0022A04D108
:10B17000402302E0012300E000230221A27B5200D1
:10B180000A401000E27B8A400A310A40024313431E
:10B19000227C002A01D02022134361690B4A02203D
:10B1A00011620B4A08491370C42252008B5C03439E
:10B1B0008B540138074B984707491E20074B984787
:10B1C00070BDC0465DBC001000B0004000100040E3
:10B1D0002810004089B00010F9AF0010E5BF001042
:10B1E000024B002800D0024B1960704744490110FF
:10B1F0004849011070B50023012612480568298FBF
:10B2000089B232009A400124114211D092B22A87A9
:10B2100002000832D28F1A4122420CD0821DD28FF6
:10B220001A41224207D09B00C3185B68984702E08E
:10B230000133102BE5D18021C023034A09045B00B0
:10B24000D15070BDC065011000E100E0F7B50024E9
:10B250000127174DAB6C1E8FB6B2730B5B030193C6
:10B26000019B002B01D0134B98473B00A3401E428B
:10B2700014D0AA6C9BB213872B008E331B882341FA
:10B280003B420BD02B008C331B8823413B4205D023
:10B290001234A4002D196B68984702E00134102C79
:10B2A000DED18021C023044A49045B00D150F7BDA0
:10B2B000C065011051BC010000E100E01C4A10B55E
:10B2C000130090331C688023208F5B0180B2110033
:10B2D00018420DD180239B0118420BD18023DB0142
:10B2E000184209D1C00B1CD080230F221B0204E09E
:10B2F0000C2202E00D2200E00E229BB223870B00FD
:10B30000D6331B880120134103420AD00B00D433EB
:10B310001B881341034204D0243292008A185368D8
:10B3200098478021C023034A89045B00D15010BD97
:10B33000C065011000E100E00023012203704270AB
:10B340008370C3707047000070B51723012800D8C0
:10B35000AEE0072807D807228500AA40554C636C49
:10B36000934363642AE00F2809D8072304001C4094
:10B37000A400A3404F4DAA6C9A43AA641EE017286C
:10B3800009D8072304001C40A400A340494DEA6CDF
:10B390009A43EA6412E003002C3BDAB2032A0DD888
:10B3A000012682249E40444DE4002A5D2B5D120755
:10B3B000120FB2430F26B34313432B5503001D3B1B
:10B3C000022B24D84C783C4B1F22012C05D11D7D2B
:10B3D000121A94402A00A24306E00125121A954051
:10B3E0002A001C7D2243D2B21A75CA78002A5CD08A
:10B3F0001F22101A80001E3A824019880A43022137
:10B4000092B21A802D4A13780B4313704DE00B78DB
:10B41000002B35D10F2805D801338340284A9BB231
:10B4200093820FE001220F241F2805D80440A24078
:10B43000244B92B29A8205E020408240224992B287
:10B440008A8235E04B78012B14D0002B0BD0022BD5
:10B450002DD101228240174B596D11435965196D49
:10B460009143196521E001228240124C216D0A436B
:10B4700022651DE083400F490A6D9A430A6514E076
:10B48000012B12D10F2803D883400D4A9BB20BE049
:10B490000F221F2804D8104083400A4A9BB203E0C1
:10B4A00010408340084A9BB21382002300E0172318
:10B4B000180070BD00B0004000F0004000E0004007
:10B4C0000000014000100140003001400F2805D865
:10B4D0000A4B198801238340180009E00F231F2815
:10B4E00001D8074900E00749034001209840098836
:10B4F0000840431E9841C0B27047C046000001405A
:10B5000000100140003001400F2805D80A4B9988EF
:10B5100001238340180009E00F231F2801D80749A1
:10B5200000E0074903400120984089880840431EF5
:10B530009841C0B27047C046000001400010014071
:10B540000030014010B50F2806D801230D4C834070
:10B55000A288002912D00CE01F2802D80A4C0F2321
:10B5600001E00F23094CA2881840002904D00E3BAB
:10B57000834013439BB203E0012383409A431300AB
:10B58000A38010BD000001400010014000300140C8
:10B590000B0A70B5C9B2072821D807258600B54027
:10B5A000304A546CAC430D00B5405464546C2C4389
:10B5B0005464012955D103280CD83F25C00085408B
:10B5C0008340A031FF315458AC4354505458234366
:10B5D000535046E0D22464001559032132E00F286D
:10B5E00016D8072504002C40A400A5401D4A966CDF
:10B5F000AE4396640E00A6403400956C2C439464D0
:10B6000001292ED10231D4240B2819D9D6241CE0CB
:10B61000172826D8072504002C40A400A540114A6D
:10B62000D66CAE43D6640E00A6403400D56C2C43D5
:10B63000D464012915D10231DA24132805D8D8247D
:10B64000640015590840884003E06400084015591B
:10B65000C0003F21814083408D43155111590B4358
:10B66000135170BD00B0004070B5050000240F28D4
:10B6700004D91F23834264411D3B1C1B1F4E032A18
:10B6800029D848231000634305F0C8FD020A121CA4
:10B690000F20012228408240F05892B2828518E0A3
:10B6A0000F20012228408240F05892B2828506E0A5
:10B6B0000F20012228408240F05892B20285F358B0
:10B6C0001A8608E00F20012228408240F05892B2EA
:10B6D0000285F3589A860F231D40033363435B1999
:10B6E0009B00F318596048235C43473BAB40361935
:10B6F0000636F28F1343F38770BDC046C065011054
:10B7000010B5104B80220F2803D812041A600021B4
:10B7100008E01F2803D852041A60012102E0022128
:10B7200092041A600F23482218400E3B83404A437C
:10B73000054CA1180831C88F125918439BB2C8870D
:10B74000138410BD00E100E0C065011010B50022B7
:10B750000F2804D91F23834252411D3B9A1A0F23FD
:10B76000482118400E3B83404A43054CA11808313C
:10B77000C88F125998439BB2C887938410BDC046A6
:10B78000C0650110002270B515001400104B002098
:10B79000D1180E18043075604028FAD108004832DC
:10B7A0004630443104800C80D82AF0D1094A0A4C32
:10B7B0001A600A4A0A499A640A4A90331A60272092
:10B7C000A04709492820A04708492920A04770BD63
:10B7D000C065011000000140E5BF001000100140ED
:10B7E000F5B10010003001404DB20010BDB20010A4
:10B7F00001280DD0002806D0022829D10C20154A96
:10B800009369834315E00C20124A9369034310E0C7
:10B810000820104B9A6902439A619A69043882435E
:10B8200080209A610C4A00035368034353600B4A1B
:10B8300001E093610A4A0B4B1A600322054B986999
:10B840009043986198690A4002439A61002000E0A1
:10B850001720704700B0004000F0004080841E00B8
:10B8600080BA8C0198660110014B18687047C04679
:10B870009866011000B51723352800D9EAE0764B09
:10B8800005F0CCFC1B1E2126292C2F33373B3F43D0
:10B89000474B4F53575B5F63676B6F73777B7F8358
:10B8A00086898C8F9295989B9FA3A7ABAFB3B7BBAC
:10B8B000BFC3C7CBCFD3D7DDE0E3DA68022104E012
:10B8C000DA68042101E00821DA680A43DA60C0E09E
:10B8D000DA681021F9E7DA682021F6E7DA688021D2
:10B8E000F3E78021DA684900EFE78021DA6809018F
:10B8F000EBE78021DA684901E7E78021DA6889010E
:10B90000E3E78021DA68C901DFE78021DA6809020C
:10B91000DBE78021DA684902D7E78021DA6889020B
:10B92000D3E78021DA68C902CFE78021DA6809030A
:10B93000CBE78021DA684903C7E78021DA68890309
:10B94000C3E78021DA68C903BFE78021DA68090408
:10B95000BBE78021DA684904B7E78021DA68890407
:10B96000B3E78021DA68C904AFE78021DA68090506
:10B97000ABE78021DA684905A7E78021DA68890505
:10B98000A3E78021DA68C9059FE71A69012153E01E
:10B990001A69022150E01A6904214DE01A69082150
:10B9A0004AE01A69102147E01A69202144E01A6927
:10B9B000402141E01A6980213EE080211A69490056
:10B9C0003AE080211A69890036E080211A69C900AD
:10B9D00032E080211A6909012EE080211A694901AB
:10B9E0002AE080211A69890126E080211A69C901AB
:10B9F00022E080211A6909021EE080211A694902A9
:10BA00001AE080211A69890216E080211A69C902A8
:10BA100012E080211A6909030EE080211A694903A6
:10BA20000AE080211A69890306E080211A69C903A6
:10BA300002E080211A6909040A431A6109E01A7DAB
:10BA4000012104E01A7D022101E004211A7D0A434C
:10BA50001A750023180000BD00B0004000B5172380
:10BA6000352800D9C7E0654B05F0D8FB1B1E212601
:10BA7000292C2F3235383B3E4144474A4D505356CE
:10BA8000595C5F6265686B6F7275787B7E818488B4
:10BA90008B8E9194979A9DA0A3A6A9ACAFB2B5BA8C
:10BAA000BDC0DA68022104E0DA68042101E008215F
:10BAB000DA688A43DA609DE0DA681021F9E7DA682B
:10BAC0002021F6E7DA688021F3E7D9684C4A3AE0AA
:10BAD000D9684C4A37E0D9684B4A34E0D9684B4AB8
:10BAE00031E0D9684A4A2EE0D9684A4A2BE0D96841
:10BAF000494A28E0D968494A25E0D968484A22E0FD
:10BB0000D968484A1FE0D968474A1CE0D968474AC3
:10BB100019E0D968464A16E0D968464A13E0D96860
:10BB2000454A10E0D968454A0DE0D968444A0AE020
:10BB3000D968444A07E0D968434A04E0D968434ACF
:10BB400001E0D968424A0A40B4E71A69012113E0CA
:10BB50001A69022110E01A6904210DE01A6908210E
:10BB60000AE01A69102107E01A69202104E01A6925
:10BB7000402101E080211A698A432FE01969204A97
:10BB80002BE01969334A28E01969334A25E019691D
:10BB90001C4A22E019691C4A1FE019691B4A1CE073
:10BBA00019691B4A19E019691A4A16E019691A4AF3
:10BBB00013E01969194A10E01969194A0DE0196969
:10BBC000184A0AE01969184A07E01969174A04E097
:10BBD0001969174A01E01969164A0A401A6109E011
:10BBE0001A7D012104E01A7D022101E004211A7D61
:10BBF0008A431A750023180000BDC04600B00040FB
:10BC0000FFFEFFFFFFF7FFFFFFEFFFFFFFDFFFFF7D
:10BC1000FFBFFFFFFF7FFFFFFFFFFEFFFFFFFDFFF7
:10BC2000FFFFFBFFFFFFF7FFFFFFEFFFFFFFDFFF60
:10BC3000FFFFBFFFFFFF7FFFFFFFFFFEFFFFFFFDD7
:10BC4000FFFFFFFBFFFFFFF7FFFFFFEFFFFFFFDF40
:10BC5000FFFFFFBFFFFDFFFFFFFBFFFF00B5432816
:10BC600000D98CE105F0E4FA480055005D0065005C
:10BC7000400177008000AD00B600890092009B0073
:10BC8000A400BF008B018B018B018B018B018B0109
:10BC90008B018B01FE00070110014401D1008B01D3
:10BCA0008B018B018B018B018B01190122012B016F
:10BCB00035018B016D0176018B018B01500154011F
:10BCC00058015C018B018B018B018B018B018B0176
:10BCD0008B018B0144004C00590061006E00C800CC
:10BCE000DA00E300EC00F5004C0160016401820120
:10BCF000A44B0220596806E0A24B0420596802E0D8
:10BD00000820A04B5968814359605A6802435A6021
:10BD10002AE19C4B10205968F5E79A4B202059687E
:10BD2000F1E7984B40205968EDE7964B8020596821
:10BD3000E9E7944B944A59680A4080215A605A684E
:10BD40004900C4E08F4B914A59680A4080215A60EB
:10BD50005A688900BBE08B4B8D4A59680A408021A4
:10BD60005A605A68C900B2E0864B8A4A59680A404C
:10BD700080215A605A680901A9E0824B864A5968B5
:10BD80000A4080215A605A684901A0E07D4B834AED
:10BD900059680A4080215A605A68890197E0794BB6
:10BDA0007F4A59680A4080215A605A68C9018EE06A
:10BDB000744B7C4A59680A4080215A605A680902CB
:10BDC00085E0704B784A59680A4080215A605A6869
:10BDD00049027CE06B4B754A59680A4080215A60E1
:10BDE0005A68890273E0674B714A59680A4080219A
:10BDF0005A605A68C9026AE0624B6E4A59680A4042
:10BE000080215A605A68090361E05E4B6A4A5968AA
:10BE10000A4080215A605A68490358E0594B674AE2
:10BE200059680A4080215A605A6889034FE0554B8F
:10BE3000634A59680A4080215A605A68C90346E03B
:10BE4000504B604A59680A4080215A605A68090478
:10BE50003DE04C4B5C4A59680A4080215A605A6860
:10BE6000490434E0474B594A59680A4080215A60D6
:10BE70005A6889042BE0434B554A59680A4080218F
:10BE80005A605A68C90422E03E4B524A59680A4037
:10BE900080215A605A68090519E03A4B4E4A5968A0
:10BEA0000A4080215A605A68490510E0354B4B4AD8
:10BEB00059680A4080215A605A68890507E0314B69
:10BEC000474A59680A4080215A605A68C9050A439E
:10BED0001DE780212B4A090653685B005B0853600D
:10BEE00053680B4353603FE0264B0120198902E061
:10BEF0000220244B1989814319811A89024332E0B7
:10BF0000204B04201989F6E71E4B08201989F2E717
:10BF10001C4B10201989EEE71A4B20201989EAE7FB
:10BF2000184B40201989E6E7164B80201989E2E773
:10BF3000144B154A19890A4080211A811A8949002F
:10BF400010E0104B114A19890A4080211A811A8980
:10BF5000890007E00B4B0E4A19890A4080211A819B
:10BF60001A89C9000A431A81002009E0054B094AD1
:10BF700019890A4080211A811A890901F2E71720DC
:10BF800000BDC04600B00040FFFEFFFFFFFDFFFF09
:10BF9000FFFBFFFFFFF7FFFFFFEFFFFFFFDFFFFFED
:10BFA000FFBFFFFFFF7FFFFFFFFFFEFFFFFFFDFF64
:10BFB000FFFFFBFFFFFFF7FFFFFFEFFFFFFFDFFFCD
:10BFC000FFFFBFFFFFFF7FFFFFFFFFFEFFFFFFFD44
:10BFD000FFFFFFFBFFFFFFF7FFFFFFEFFFFFFFDFAD
:10BFE000FFFFFFBF8023DB04C018800001607047A3
:10BFF00070B5214B1C6823681D7DEDB26A0614D50F
:10C000001E21E21CD1771A7E23318A431A76A31CA3
:10C01000DA7F08231A4206D0621CD27F1A4202D06D
:10C0200020002369984723681B7C0122154221D0F8
:10C03000236861691B7CDBB20B7063699B186361C9
:10C04000A38B013B9BB2A383A38B9BB2002B11D18B
:10C05000A11CC87F042108420CD0A018C07F084250
:10C0600008D0E11CCB77216820000B7E93430B7630
:10C07000E368984770BDC0469C660110012270B508
:10C08000204B5C6820680579EDB2154215D0A36994
:10C0900019789B18C9B2A3610170E38B013B9BB275
:10C0A000E383E38B002B08D121680B7A93430B7257
:10C0B00010212268137A0B43137210210D4212D003
:10C0C000A31CDA7F01231A420DD0E218D27F1A4254
:10C0D00009D00022E31CDA7722682000137A8B4310
:10C0E000137263689847AB060BD5A31CDA7F022353
:10C0F0001A4206D0621CD27F1A4202D0A3682000E6
:10C10000984770BD9C66011070B5214B5C68236830
:10C110001D7DEDB26A0614D51E21E21CD1771A7E70
:10C1200023318A431A76A31CDA7F08231A4206D0E9
:10C13000621CD27F1A4202D02000236998472368EC
:10C140001B7C0122154221D0236861691B7CDBB274
:10C150000B7063699B186361A38B013B9BB2A38344
:10C16000A38B9BB2002B11D1A11CC87F04210842D4
:10C170000CD0A018C07F084208D0E11CCB77216802
:10C1800020000B7E93430B76E368984770BDC04652
:10C190009C660110012270B5204B1C68206805794F
:10C1A000EDB2154215D0A36919789B18C9B2A361E5
:10C1B0000170E38B013B9BB2E383E38B002B08D13F
:10C1C00021680B7A93430B7210212268137A0B4378
:10C1D000137210210D4212D0A31CDA7F01231A42E0
:10C1E0000DD0E218D27F1A4209D00022E31CDA7780
:10C1F00022682000137A8B43137263689847AB065A
:10C200000BD5A31CDA7F02231A4206D0621CD27F10
:10C210001A4202D0A3682000984770BD9C660110A6
:10C22000E12303225B0203600023C2600132037139
:10C2300043718371C37102610233013283604261D1
:10C240008361C3610362436270470000F8B5002355
:10C250001500421C838343608360C36003614361B4
:10C260008361C3830160D377821CD377C21CD377E9
:10C27000474B0400994215D1464E0920B0470A2089
:10C28000B047454E0920B0470A20B047434B4449C8
:10C290001020444E1C60B04743491120B047434B27
:10C2A000012217E0424B994217D13A4E0B20B0477A
:10C2B0000C20B047384E0B20B0470C20B047374B0E
:10C2C0003C491220374E5C60B0473B491320B047D1
:10C2D0000422364B1A6092181A60EA790423002A65
:10C2E00000D1023B2E00013BDBB203339B0008363A
:10C2F000EF18318A01CE314BC0B29847B742F8D11E
:10C30000012123681A7D0A4001D01A7CFAE7013323
:10C31000DA77EB7929795A1E9341A8795A016B791A
:10C3200001380B43134303280BD804F077FF0204B2
:10C330000608022204E0062202E00A2200E00E22A1
:10C34000134322680132D3771D4B2D68984729008B
:10C350001C4B0600984782B21000002368432D0949
:10C36000301A0133A84202D9DBB2401BF9E70020A2
:10C3700021681B0728310870D2005B0F1343226825
:10C380009BB293842368187623681872F8BDC04660
:10C39000004000405DBC001075B800109C660110A4
:10C3A000F1BF0010E5BF001095C1001000E100E0F2
:10C3B0000050004009C100107DC0001091B5001070
:10C3C00069B8001045120110012203681879104263
:10C3D000FCD000201970704701220368187D1042BC
:10C3E000FCD01B7C00200B70704730B50400172078
:10C3F000002A0CD0E51CEB7FD8B2052807D0052316
:10C40000A283012200206161EB7723681A7630BD98
:10C410009300C3185960012393400130C27F134336
:10C42000C377704701238B4010B5821CD47F234310
:10C43000D377012904D102681F31137A0B43137299
:10C4400010BD01228A4010B5841CE37F9343E3773B
:10C45000012904D102681F31137A8B43137210BD76
:10C4600070B50E001400150000280ED1611B711864
:10C47000002D06DD064B013D1868064B1B689847EA
:10C48000F4E7E043C017204001E00120404270BDC6
:10C49000AC660110A4660110013870B50E000228C8
:10C4A0000DD80C008D18A01BAC420AD0054B21788A
:10C4B0001868054B01341B6898470028F3DA0120FF
:10C4C000404270BDAC660110A8660110054B020029
:10C4D0001968002901D104491960186882181A6086
:10C4E0007047C0464C490110B88F011001204042EE
:10C4F000704780239B0100204B60704701207047EC
:10C50000002070470078002800D0E22070470078B3
:10C51000002800D0E2207047C078002800D0E22038
:10C52000704700000222F0B5944601240025DC2764
:10C53000144B154E1A00563A1188028891421CD1AC
:10C540001A78052A01D0082A01D11C7015E0072AA3
:10C5500012D8210091400A00394203D161460A42B3
:10C560000BD109E009491D700A78002A05D00A7824
:10C57000013AD2B20A7000E01D707C33B342D9D1C7
:10C580000020F0BD26670110926901103469011086
:10C5900000207047002310B5174A01881400563C4C
:10C5A00024888C4202D11478062C06D00133DBB2E9
:10C5B0007C32052BF2D1002200E001228178002993
:10C5C0000ED1002A14D07C2253430C4A0824D318DD
:10C5D0001A005E321470C2781A7582781A7608E0F2
:10C5E0007C225343054AD318072219765E331A700A
:10C5F000E221080010BDC04626670110C866011080
:10C60000012210B578231100024C0088A0470020B9
:10C6100010BDC04685EB0010F0B589B005AC0090A8
:10C620000021524B092220009847009B00251B88BF
:10C630004F4901937C239C46604668434218168903
:10C64000019F0B00BE420AD116005E363778022FDA
:10C6500005D104373770127DD60704D413E00135B5
:10C66000052DE9D115E0009EF678002E0BD0009B39
:10C6700009181A3118883F4B9847002801D100202B
:10C6800071E0E2206FE07C2255435D195E357A3A15
:10C690002A7000217C25009A1088CAB201922A00D3
:10C6A0004A439A181689864206D15E321678022EBF
:10C6B00002D10321117003E001310529EDD101916F
:10C6C0000421009A0198D2782170A2700122783159
:10C6D0004143595C6270022900D10232A271E271B9
:10C6E00010220199627122716C3251435A18127EE4
:10C6F0000291402A2AD10D000A000F2660356832C7
:10C700005D199B1803931C4FB84730402870B847F9
:10C71000039B3040A8740135AB42F4D10025164E7E
:10C72000B0470F22029B124F5B196833104001354E
:10C73000F854082DF3D1B0477C23019A5343FF18D6
:10C740003B007033188010237A373B707C22019BAA
:10C7500021005A43064B6032D218009B074C1888C0
:10C760000023A04789E709B0F0BDC0464933011056
:10C77000C866011049F70010ED3401105DF5001096
:10C78000F0B500227C2489B002903849008823004B
:10C7900053435B181E89D5B2864206D15E331E789C
:10C7A000022E02D103221A7003E00132052AEED1D3
:10C7B00015000022032105AB1A729A705A70DA70C4
:10C7C0007C326A4329481970825C022A02D199712D
:10C7D000D97102E001229A71DA7110225A711A712C
:10C7E0007C236B430193019A204B9B181B7E402BAB
:10C7F0002BD114001D4B60341C1913000F261B4A4B
:10C800006833D31803931A4FB84730402070B847A5
:10C81000039B3040A07401349C42F4D10024144E98
:10C82000B0470F22019B114F1B1968331040013490
:10C83000F854082CF3D1B0477C236B43FF183B001E
:10C840007033188010237A373B707C2255432A00BE
:10C85000064B60329A18029B05A91888054C0023E4
:10C86000A047002800D0E22009B0F0BDC866011042
:10C87000ED3401105DF50010F7B5002306000188C6
:10C880007C201D4CDAB2019202005A431719009223
:10C890003A898A420DD13A005E321578012D08D9C5
:10C8A000062313703B0070331A8873889A420ED1A6
:10C8B00004E00133052BE5D1019308E0009B301D16
:10C8C000E118723108220D4B9847051E0AD07C23CF
:10C8D000019A05215343084AD3181889084B9847F1
:10C8E000E22008E0009B397D60331B19308801226B
:10C8F000044CA0472800FEBDC86601101933011082
:10C9000065EB0010C1F7001070B50B4C01002378E7
:10C91000132B0DD829222578084B5543E818084BCE
:10C9200098472378237800200133DBB2237002E09C
:10C93000044B9847E22070BD34520110AC690110DD
:10C940003733011045EB0010F8B500240500254BE6
:10C9500040881A00563A1288824202D11A78032A75
:10C9600006D00134E4B27C33052CF2D1002300E080
:10C9700001232E79002E24D1002B01D1E2262EE0B6
:10C980007C204443184F2A783B191A752A792900CC
:10C990001A76052238195E331A7022310B32134B86
:10C9A0003630984729003819323117220F4B3C197D
:10C9B000463098472000A91D1C220C4B1A3098477E
:10C9C0000DE07C235C43084B1C195E342378012B5B
:10C9D00004D91321064B98470028CFD100263000F8
:10C9E000F8BDC04626670110C86601103733011034
:10C9F00065EB0010F0B5070087B004AE194D0622B4
:10CA0000194903AC3000A847042239002000A84788
:10CA1000E37801931D1E0BD0802362885B009A424D
:10CA200014D117E00300303B092B01D870550135B4
:10CA3000062DF1D01E200D4B9847C0B20028F1D131
:10CA4000388813210A4B9847E22009E00020019B17
:10CA5000834205D1A17838883200064B98470020E0
:10CA600007B0F0BD37330110C445011091D200105A
:10CA700065EB00108DF60010002070470020704715
:10CA8000C078002800D0E2207047000010B5CF2306
:10CA9000002804D0002902D0024B98470300180058
:10CAA00010BDC04689E6001030B50500101E27D025
:10CAB0000020062924D8134B5C5C134B8900CB580B
:10CAC00085420CD1A4001C199C4218D019000433D3
:10CAD000181F00680028F7D10A60013010E0012D0E
:10CAE0000ED1A4001C19A34209D019000433181F49
:10CAF00000688242F7D1002301200B6000E0002093
:10CB000030BDC0465C46011064460110F0B50024FB
:10CB10008FB0564B564D00900722210055481C609F
:10CB2000A847122221005448A847544A21005448DB
:10CB3000A847CD22534B9200210053481C70A847B0
:10CB40008322524B9200210051481C70A84780223A
:10CB50002100D2004F48A84780224F4F52012100A8
:10CB60003800A8474D4E1C2221003000A847494BF1
:10CB70003761B3608023DB00F36080235B01736166
:10CB8000474B1C605C609C60DC601C61454B1C601A
:10CB90005C609C60DC601C61434B1C605C609C6062
:10CBA000DC601C61414B1C60414B1C60414B1C60B4
:10CBB0005C609C60DC601C613F4B404F1C60304BF4
:10CBC000019338007C225E380021A8473B004022B8
:10CBD000463B3C701A703A4B7C37BB42F1D1002285
:10CBE000384B30001A70254B7360019B3360364B15
:10CBF0009847061E00D0FEE7344C354A0100A04796
:10CC0000344A02213000A047334B0921334898476A
:10CC100033490722063102A8324F04ACB847262216
:10CC200031002000A847009B002B04D12E4B02A806
:10CC3000984702AB00930A2323702C4B07220099DC
:10CC400005A86380B8470023E37623776377A3774B
:10CC5000E3772384638480239B00A3842000244BF8
:10CC600098470098234B98470FB0F0BD3052011001
:10CC7000493301103552011074690110E2040000BB
:10CC8000504D011034520110AC690110A46901101B
:10CC9000E06C0110504901103C52011088690110EC
:10CCA0004C69011060690110B4660110A869011097
:10CCB000B066011038690110EC6E01102667011092
:10CCC000926901103469011071E70010A9CA0010BF
:10CCD00010460110D44501108DCA0010FC4501100A
:10CCE000C445011037330110BDE60010983A00002A
:10CCF000E1E6001025E90010002210B51100034BF9
:10CD00009847002800D0E22010BDC04609F7001067
:10CD1000F0B5847A97B00500002C01D0002492E091
:10CD200001001222494E4A48B047072229004948CB
:10CD3000494B98470196002820D02B78022B1DD113
:10CD40005022210002A8454B9847454A2100130074
:10CD5000103189B21E78601C02AF3E5584B2013397
:10CD60008C42F7D17C32502CF0D102AA2900052048
:10CD70003C4B9847041E66D0E22464E03A4B1A7894
:10CD8000042A4BD800277C237B43384A29009B1870
:10CD9000009307221800304B9847FEB2334A002810
:10CDA00001D1009F17E00137052FECD100237C2132
:10CDB0000F005F4338005E30105CDEB200280ED1F9
:10CDC000D719019B1222290038009847264A137868
:10CDD0000133DBB2137002235E373B7003E0013393
:10CDE000052BE5D11E001B4F290038001A4B0722E6
:10CDF00098477C230100734338001C4F002904D15D
:10CE00000522FB189A740F0003E00A22FB18012781
:10CE10009A7407220021114B984706E000271B78DF
:10CE200028891321124B98473E007C235E430F4B09
:10CE30009E19B37C0A2B00D070E7002F00D16DE75C
:10CE400028890C4B9847200017B0F0BD37330110EC
:10CE50007469011035520110193301104933011062
:10CE60000E67011091EB001034690110C8660110C3
:10CE700065EB0010F9CC0010F7B50478002C11D147
:10CE8000431C284F01937C25654329004631C9196D
:10CE900010220198244BE6B29847002833D0013481
:10CEA000052CF0D100237C211E4A0C005C4320009D
:10CEB0005E30105CDEB2002812D114191B4B122216
:10CEC0001B49200098471B4A13780133DBB21370CB
:10CED000230002225E331A700A23013AA37404E08D
:10CEE0000133052BE1D100221E007C235E430D4B54
:10CEF0009E19B37C0A2B13D1002A11D00C4B188930
:10CF00000D4B98470CE07819030002225E331A702B
:10CF10000A23103283740649044B98470122E4E740
:10CF20000020FEBDC866011019330110373301100F
:10CF30007469011034690110F9CC001070B50D004E
:10CF40002C2808D8272843D21C2830D813281DD2D3
:10CF50008400002615E0372805D836283CD22D3825
:10CF6000C0B22F4B4CE03A2854D046D33B2844D093
:10CF700055E01B59002B01D0280098470436142E89
:10CF80004DD0284B9B59002BF3D1F7E700261338DF
:10CF9000C4B2A400244B9B59002B04D01B59002B76
:10CFA00001D0280098470436142EF3D137E000262C
:10CFB0001D38C4B2A4001D4B9B59002B04D01B5933
:10CFC000002B01D0280098470436142EF3D126E018
:10CFD0002738C0B2164B13E000263638C4B2A4007E
:10CFE000144B9B59002B04D01B59002B01D0280057
:10CFF00098470436142EF3D111E038380E4BC0B2E6
:10D000001B68002B0BD08000C358002B07D02800D2
:10D01000984704E0094B1B68002B00D0984770BD6F
:10D02000B06601104C69011060690110B46601100E
:10D03000A869011038690110EC6E0110305201101E
:10D04000F8B50E4E07003378012B01D10C4B9847F1
:10D050000C4C0D4D3A000D4B2100280098473378B9
:10D060000700012B01D10A4B9847002F03D12878E4
:10D070002100084B98473800F8BDC0463C620110BB
:10D0800085D90010E06C0110A469011019DF0010AF
:10D090005DD900103DCF001030B591B06946032234
:10D0A0006B465A700A71042202238A710F228B7018
:10D0B0001633CB704B71CB710A724B7209220A2363
:10D0C0000A708B72CA720B4D0B4903A8A84707233D
:10D0D000222008AC23700622F833084968446370A4
:10D0E000A8472200082315216846054CA0470020C8
:10D0F00011B030BD37330110FC4501100646011058
:10D1000079E9001070B504000D0029002000024BE1
:10D1100098470028F9D170BDD9C3001070B504003C
:10D120000D0029002000024B98470028F9D170BD5E
:10D13000C9C3001010B50D4A0D4B1178012908D153
:10D140001B6801311170002B0ED10A480A4B984719
:10D150000AE01B68002B07D0084C20789847012272
:10D1600021000448064B984710BDC0464462011098
:10D1700048620110F06E011043C4001045620110B6
:10D18000EBC300100021F8B50800194B9847194C63
:10D19000194B20009847E1235B02236003230225FB
:10D1A000E360013323610133144E6361144B154A6C
:10D1B0001E60154B30001A60144A154B15491A6051
:10D1C0002200154BA560A561E5612562656298475F
:10D1D000124F134C3B6800219868A0473B68002120
:10D1E0005868A0472A0030000E490F4B9847F8BDF9
:10D1F000F1B70010146F011021C20010F06E011081
:10D20000AC6601101DD10010A866011005D10010F8
:10D21000A4660110004000404DC2001010490110EA
:10D220008935011035D1001011C40010F7B50D4C2F
:10D230000190A047A0470C4CA0470C4D0C4A0D4B49
:10D24000A8470600FA20019B800058430F00A04722
:10D2500002000B0030003900A847074B9847074BE6
:10D260001860F7BD69B800100D32011005260110D5
:10D27000C7AEFE19EFD8093FA91601104062011090
:10D28000024B1A68501E18607047C0464062011079
:10D29000012370B5104C05002370104B104E1B6815
:10D2A000002B03D1022130000E4B984728000E4B73
:10D2B000984700230D4D01222B70290030000C4BA4
:10D2C00098472378022B03D00A4B98470028F8D1BF
:10D2D00000232878237070BD446201104862011059
:10D2E000F06E011025C400102DD20010456201100F
:10D2F000EBC3001081D20010024B1A681860026064
:10D300007047C0465062011030B50C4C2368002BAA
:10D3100012D01D689960256000240949DA800A68E6
:10D320001C609880A24201D10B6005E011680029C1
:10D3300001D00A00FAE7136030BDC0465062011008
:10D340004C62011010B50024054B1C60054B1C609D
:10D350000548064B00190C349847782CF8D110BDBD
:10D36000506201104C62011054620110F9D2001099
:10D3700010B5064B064A196811605A68054B1A60C9
:10D38000054B1B68002B00D0984710BD3C6F011067
:10D390000CB0004010B000401872011070B50400CD
:10D3A000134B0C3C1D68134B1B689847002C1ED078
:10D3B000E388052B1BD0EB0714D40F4B02201B680E
:10D3C00098470E4B1B6898470D4B03201B689847E6
:10D3D0000028F9D10B4B02301B68984701220A4BF9
:10D3E0001A6004E0094B0A4A1B681068984770BD30
:10D3F000ECB10040FC620110F462011008630110FE
:10D40000DC620110E462011020B00040D86201101B
:10D41000E862011070B50E4C0E4B20003222002144
:10D420009847012520000023022401265A00835436
:10D43000821851789B192943A1435170192BF4D1BB
:10D440004378B3434370C378B343C37070BDC046E1
:10D45000586F011049330110064A074B11680B4001
:10D460001360064A064913600868064B03400B60C8
:10D47000536070470CB00040D30FFEFF3C6F0110AB
:10D4800010B00040C0E7FFFFF8B54B4B1A78002AF8
:10D4900004D01878C0B2012800D18AE0474B9847E1
:10D4A0000024474B98478022464B12041C60464B91
:10D4B000464DDA6780225204DA67454B454A2B60B5
:10D4C000454B46491360464A464E1160464A28205D
:10D4D0001168464A464F1160464A1168464A116033
:10D4E000464A47491160474A47491160474A4849F7
:10D4F0003260484A1160484A484911604849494ADF
:10D500000A60494A4949116049494A4A11604A4AF0
:10D510004A4911604A4A4B4911604B4A4B491160D4
:10D5200098472B684A49282098472B684949272063
:10D530009847494B21001A68484B49481A60494BA3
:10D54000494A1A60494B4A4A1A604A4B4A4A1A6089
:10D550004A4B4B4A1A604B4B4B4A1A604B4B4C4A56
:10D560001A604C4B4C4A1A60A0224C4B92009847D0
:10D5700080224B4B92001A804A4B984780231B0411
:10D580003B6080235B043B60474B484A1C60336828
:10D59000474D1A60224B474A1B6820001A60A84773
:10D5A0000120A8470220A8470122034B20001A703F
:10D5B00000E01870F8BDC046E062011015D40010FC
:10D5C00059D400100063011004E100E00C72011056
:10D5D000D7070000486F0110BD07000051BC0100D3
:10D5E0001072011020720110BC000410D4620110EE
:10D5F00000E100E0B8000410D0620110446F011097
:10D600009FB90100506F0110DBB901003C0004100C
:10D61000C01F0410546F01101C720110C41F0410AD
:10D6200014720110D41F04104C6F0110D81F041085
:10D63000E9CB0100F4620110E46201108FCD01001A
:10D6400008630110A3CE0100DC620110CFCB010002
:10D6500065DA00100DDA0010E4000410FC6201101D
:10D660008A6F01100C630110E99F0100D86201105C
:10D67000DDDB0100EC6201105BDC0100E8620110FF
:10D68000EC050410F8620110E3D5010010630110ED
:10D69000200C0410CC620110099F010049330110D5
:10D6A0002472011045D300101872011071D30010BC
:10D6B000A5DA0010BDDA0010044B1A780523012A00
:10D6C00002D1034B1860002318007047E06201107C
:10D6D0000063011070B50D4B04001B68002B02D0D5
:10D6E0004088984760800A4DA2882D68E388618849
:10D6F0002088A847E2880500064E002A03D02100B2
:10D70000054B083198472800B04770BDD46201101E
:10D710000C6301109DD300103733011070B5160053
:10D720000A021D000243A020094B05211C68C0000D
:10D730002B00A047041E0AD0002D05D0002E03D0D8
:10D740002A003100034B98472000034B984770BDD7
:10D750000C630110373301109DD300100023F0B586
:10D76000441E89B00293E31C1BD80D2200216C4B90
:10D7700004A89847332304AA1370303B5370937066
:10D78000023313719371230A14725372230C240E03
:10D79000D472012493720D211000624B14739847C8
:10D7A000029400240194604D604B614A29001B687B
:10D7B00010689847011E00D07BE0CD232C689B00A9
:10D7C000A5889D4238D023890393029B6789002B4B
:10D7D00010D00D22524B04A89847332304AA13708B
:10D7E000303B537093700233137193710D2110000D
:10D7F0004C4B9847A023DB009D421DD1A0224D4DEC
:10D8000092002B88DB19934202DD80239B002B8042
:10D810002100494B2E883A00F6180C31474B300056
:10D8200098473A00464B3100039898472B880024CC
:10D83000FF182F80022335E0424D2C68002C32D097
:10D84000CD21394E8900326893888B4206D1029BE4
:10D850000124002B27D00024D02323E0364C3A4F5C
:10D8600023701B0A6370394B3C6010891B68984712
:10D8700033682071000A6071DB883868438036683D
:10D880007389C380083038607289002A03D0310060
:10D890002A4B0C31984771892B6820000831984732
:10D8A000002403230193204A294B10681B689847E2
:10D8B00001E007230193002C00D074E7029B002BAA
:10D8C0002BD01B4B1E68002E01D1236AFFDE3700D0
:10D8D000204B14371B683800356A9847002D18D044
:10D8E000CD212B6889009A88AB688A420ED1184AEC
:10D8F000002C05D0A360280013689847A568EDE7C1
:10D900003362280013689847356AE7E72C001D004A
:10D91000E4E7114B38001B689847019809B0F0BD47
:10D9200049330110D5D6001004630110F8620110CC
:10D9300010630110247201108A6F01103733011037
:10D9400009D3001000630110F0620110D0620110D1
:10D95000CC620110EC620110D8620110802010B579
:10D96000024B00021B689847082010BD446F01104D
:10D97000802010B5024BC0011B689847002010BDE5
:10D98000506F0110802010B5044CC00123689847E7
:10D990008020236800029847002010BD506F0110BE
:10D9A0000923002802D0024B18600023180070479A
:10D9B00018720110124A1349138F108D9BB208433D
:10D9C00080B21085DB05DB0D0BD0DBB25842034083
:10D9D0000020012B03D001305B08C0B2F9E783407F
:10D9E00001E0138F0B439BB21387138FDB05DB0D15
:10D9F000E8D18021044A81334900FF33D150704778
:10DA0000001001400080FFFF00E100E0124A1349CE
:10DA1000138F108D9BB2084380B21085DB05DB0DA0
:10DA20000BD0DBB2584203400020012B03D0013061
:10DA30005B08C0B2F9E7834001E0138F0B439BB250
:10DA40001387138FDB05DB0DE8D18021044A813376
:10DA5000FF33D1507047C046000001400080FFFFF7
:10DA600000E100E010B50B4C238F5B0B0FD00A4B8D
:10DA70001B689847238F228F5B0B5B03134323871D
:10DA80008021C023054A49005B00D15001E0044BCE
:10DA9000984710BD001001401072011000E100E035
:10DAA000B5D900100323022803D80023024A8000BE
:10DAB000835018007047C04628720110037810B5D3
:10DAC0000400012B08D1134B1B68002B00D0984792
:10DAD000FF2322689A43226023681B0ADBB2012BD2
