S0140000534D535F47617465776179312E73726563BB
S214400000C0770020550C4000510C4000510C400079
S214400010510C4000510C4000510C400000000000C4
S214400020000000000000000000000000510C4000EE
S214400030510C400000000000510C4000510C4000A4
S214400040510C4000510C4000510C4000510C4000F7
S214400050510C4000510C4000510C4000510C4000E7
S214400060510C4000510C4000510C4000510C4000D7
S214400070510C4000510C4000510C4000510C4000C7
S214400080510C4000510C4000510C4000510C4000B7
S214400090510C4000D95E4000510C4000510C4000CD
S2144000A0510C4000510C4000510C4000510C400097
S2144000B0510C4000510C4000510C4000510C400087
S2144000C0510C4000510C4000510C4000510C400077
S2144000D0510C4000510C4000510C4000510C400067
S2144000E0510C4000510C4000510C4000510C400057
S2144000F0155B4000510C400010B5054C237833B9D1
S214400100044B13B10448AFF300800123237010BDA5
S214400110A80800200000000014984000084B10B5C6
S2144001201BB108490848AFF300800848036803B984
S21440013010BD074B002BFBD0BDE81040184700BF52
S21440014000000000AC0800201498400014984000BE
S2144001500000000038B54FF40044AE4B5C60092008
S214400160AD4DA8470A20A8470B20A8470C20A84713
S2144001700D20A847A94B4FF480021A61C3F8A0206F
S2144001801A63A74A04215161C2F8A0105166C2F80A
S214400190901051651162C2F88410106F20F0040070
S2144001A01067506F20F004005067C2F8C010C2F8C5
S2144001B0D410C2F8B0104FF4C0601066C2F8900079
S2144001C050655062C2F88000156F25F4C06515670B
S2144001D0556F25F4C065556750604FF480421A66E7
S2144001E0C3F890205A655A62C3F88020186F20F4EE
S2144001F080401867586F20F4804058675A60012244
S2144002001A66C3F890205A655A62C3F88020186F61
S21440021020F001001867586F20F0010058675A60B8
S21440022002221A66C3F890205A655A62C3F88020A4
S214400230186F20F002001867586F20F002005867C9
S2144002405A604FF480321A66C3F890205A655A6254
S214400250C3F88020186F20F480301867586F20F459
S214400260803058675A601C66C3F890405C655C6294
S214400270C3F880401A6F22F400421A675A6F22F47D
S21440028000425A675C6008221A66C3F890205A6596
S2144002905A62C3F88020186F20F008001867586F1D
S2144002A020F0080058675A601966C3F890105965E0
S2144002B05962C3F880101A6F22F004021A675A6F08
S2144002C022F004025A6759604FF480521A66C3F807
S2144002D090205A655A62C3F88020196F21F48051E5
S2144002E01967596F21F4805159675A604FF400627C
S2144002F01A66C3F890205A655A62C3F88020196F70
S21440030021F400611967596F21F4006159675A60FA
S21440031040221A66C3F890205A655A62C3F8802075
S214400320196F21F040011967596F21F04001596754
S2144003305A6020221A66C3F890205A655A62C3F85B
S2144003408020196F21F020011967596F21F0200194
S21440035059675A6080221A66C3F890205A655A62D6
S214400360C3F88020196F21F080011967596F21F07A
S214400370800159675A6010221A66C3F890205A6561
S2144003805A62C3F88020196F21F010011967596F1F
S21440039021F0100159675A604FF480621A66C3F81C
S2144003A090205A655A62C3F88020196F21F4806104
S2144003B01967596F21F4806159675A604FF40052AB
S2144003C01A66C3F890205A655A62C3F88020196F9F
S2144003D021F400511967596F21F4005159675A604A
S2144003E04FF480721A66C3F890205A655A62C3F872
S2144003F08020196F21F480711967596F21F480713C
S21440040059675A604FF400721A66C3F890205A65CE
S2144004105A6207E050180E40CD0A400000140E40C5
S214400420000E0E40C3F88020196F21F40071196742
S214400430596F21F4007159675A604FF080525A61E3
S214400440C3F8A02038BD00BF10B50E480E4B9847E5
S2144004503E2100200D4B98470D4CA0470028FCD06D
S2144004600C4B98470C4A0D4B9A620D4CA0470028FF
S214400470FCD010200B4B98470B4B98470148024B3B
S214400480984710BD000E2707410E4000490A40001D
S2144004909D0A4000AD0A4000013F132000040E4074
S2144004A0BD0A4000E1094000310D400090B92DE9F9
S2144004B0F0410C469046002A0FDD8F18084E094D35
S2144004C0306821462B6898470134A742F8D1404609
S2144004D0BDE8F0814FF0FF3070470020BDE8F08166
S2144004E030370020283700200138022815D82DE95B
S2144004F0F0410E4614469AB10D46DFF838800C4F50
S214400500D8F8000015F8011B3B68984700280ADB1E
S214400510A81B013CF4D1BDE8F0814FF0FF30704796
S2144005200020BDE8F0814FF0FF30BDE8F08100BF0D
S2144005302C37002030370020F0B583B004460F46F5
S2144005401646036843F01003036001AB0122364DA4
S214400550A84720B1226822F01002226061E0019B89
S21440056013F0040F05D1236823F010032360FF2007
S21440057057E02EB9236823F010032360002050E094
S2144005806B461E2239462046274DA84720B1226892
S21440059022F01002226044E0019B13F4805F06D0F4
S2144005A0009A12F0050F0CBF0122002200E0012243
S2144005B013F4005F03D0009911F0020F28D113F412
S2144005C0006F03D0009B13F0010F08D14AB10123FE
S2144005D000E00023626842F00102626008E0002307
S2144005E002E0012300E00023626822F0010262601C
S2144005F023B1636843F00203636003E0636823F05B
S21440060002036360236823F010032360002008E0A1
S21440061013F4006FDDD0009B13F0010FE3D10023ED
S214400620D8E703B0F0BD00BF290940002DE9F041EE
S21440063082B004460D46036843F01003036001ABE6
S2144006400022594EB04720B1226822F010022260A4
S214400650A6E0019B23F4B04343F480630193002259
S21440066029462046514EB04720B1226822F010025B
S214400670226095E040F2E1130422294620464B4E84
S214400680B04720B1226822F01002226088E001AB19
S214400690002229462046444EB04720B1226822F028
S2144006A0100222607CE0019B43F4445301930022F5
S2144006B0294620463D4EB04720B1226822F010021F
S2144006C022606DE0019B23F4806343F40073019342
S2144006D0002229462046354EB04720B1226822F0F7
S2144006E0100222605CE0324E4FF001082E4F01AB04
S2144006F0424629462046B84720B1226822F01002DA
S21440070022604DE0019B13F0200F07D1013EEED151
S214400710236823F010032360012041E06B46052246
S21440072029462046204DA84720B1226822F01002D4
S214400730226035E0009B13F4807F09D113F0400F10
S2144007400CD113F0800F08BF002309D0002300E02F
S2144007500123626842F00102626005E00123FFE780
S214400760626822F00102626023B1636843F00203CC
S214400770636003E0636823F002036360E36843F06A
S2144007800103E3600B4B1A6842F008021A601A68CD
S21440079042F004021A60236823F01003236000200E
S2144007A002B0BDE8F08100BF290940008909400039
S2144007B040420F00004003402DE9F04383B0054619
S2144007C08946036843F0100303604FF4004302AECB
S2144007D046F8043D00220E4CA0470A244FF000087D
S2144007E00C4F3346424649462846B847013C019B93
S2144007F013F4004F01D0002CF3D12B6823F01003E4
S2144008002B60201C18BF012003B0BDE8F08300BF5A
S21440081089094000290940002DE9F04383B0064687
S214400820894614463748384B9847384B9C4265D8DB
S214400830374B9C420FD8374B9C420FD8364B9C4286
S2144008400FD8364B9C420FD8354B9C428CBF4FF44A
S214400850802300230AE04FF4A01307E04FF48013F0
S21440086004E04FF4402301E04FF40023726822F482
S214400870E012726074681C43746002AB002243F856
S214400880042D326842F01002326002224946304659
S214400890244CA047019B052B25D04C4620254FF0E5
S2144008A00208204F013404F01F0401AB42462146A3
S2144008B03046B847019B222B04D06B1E13F0FF0531
S2144008C0F0D117E0336823F010033360214601ABC4
S2144008D001223046134DA847A1450FD04946304621
S2144008E0094B98470AE0336823F0100333604946C3
S2144008F00024ECE7336823F010033360002003B095
S214400900BDE8F08300400340B9074000001C4E0E8F
S21440091000688909000E270700B4C404005A620222
S214400920002D31012909400010B483B0846814F0CA
S214400930040FFBD0920402F4F80242F0C04242F4A4
S2144009400032C90501F078610A43426300220192F1
S2144009500C4905E0019A01320192019A8A420CD86C
S214400960826812F0040FF5D0826812F0040FFBD0B4
S214400970426B92B21A60002000E0012003B05DF89E
S214400980044B70473F420F0010B483B0846814F0A5
S214400990040FFBD0920402F4F80242F0A04242F464
S2144009A00032C90501F078610A439BB21A4342639C
S2144009B000230193094A05E0019B01330193019B03
S2144009C0934205D8836813F0040FF5D0002000E06A
S2144009D0012003B05DF8044B704700BF3F420F0054
S2144009E0184A136B23F0700318431063936E13F08A
S2144009F0080F03D009E0013B03D11EE04FF400632B
S214400A0010498A6E12F0080FF5D00E4A136B23F089
S214400A10030343F002031363906E10F0080004D003
S214400A2000207047013B03D109E04FF400630549BD
S214400A308A6E12F0080FF5D07047012070470120EB
S214400A40704700BF00040E4038B111490B6A114A86
S214400A501A40114B13430B6270470D48026A090255
S214400A6089B222F45C1323F0030343F45C1343F08F
S214400A7001030B4303620246936E13F0010FFBD053
S214400A80034A136A43F09B7343F480331362704700
S214400A9000040E40FCFFC8FE02003701024B986E71
S214400AA000F48030704700BF00040E404FF0005204
S214400AB0014B9A62704700BF00040E40024B986E8E
S214400AC000F00200704700BF00040E402F281ED8DA
S214400AD01F280CD8114B9A6901238340934318D0A2
S214400AE0012303FA00F00D4B1861002070472038B0
S214400AF00A4BD3F808210123834093430BD00123AC
S214400B0003FA00F0054BC3F80001002070470120AF
S214400B107047002070470020704700BF00040E401A
S214400B2010B489014318022444504FF0FF319962B3
S214400B30196A5A605DF8044B704700BF8901052367
S214400B404350704700EB8111CA61704700EB81113A
S214400B504A627047F0B486B0022401940824029496
S214400B6020240394802404940A9CE40B0594B0EB60
S214400B70510F1CD84C0CA0421FD201AE012556F88E
S214400B80044FB1FBF4F4270C844212D3874215D9A4
S214400B900135052DF3D1002013E006A901EB8501B0
S214400BA051F8141C116033B11D60012009E000208B
S214400BB007E0002005E0012003E00025002AECD1F4
S214400BC0F1E706B0F0BC704710B4AC2303600B6886
S214400BD04A68B3FBF2F31B095C1E4FF6FE72944262
S214400BE00AD803628B68436040F20223C0F8203183
S214400BF050230360002000E001205DF8044B70475E
S214400C00436913F0020F1ABFC161002001207047EC
S214400C10436913F0010F1DBF83690B70002001204C
S214400C20704700BF436913F0020F1DBFC1F30801B0
S214400C30C161002001207047436913F0010F05D0C1
S214400C408369C3F308030B60002070470120704798
S214400C50FEE700BF00B583B0274B284A9A4203D030
S214400C60274B254A9A4204D3264B274A9A420FD30B
S214400C701AE02149254B5B1A23F0030304331F4A2D
S214400C80134452F8040B41F8040B9A42F9D1EBE7AF
S214400C901F4B204AD21A22F003021A44043B00217A
S214400CA043F8041B9342FBD11B4A1C4B23F07F03A3
S214400CB09360EFF31083B3FA83F35B09019372B644
S214400CC0BFF35F8F0022164B1A700199154A1368BE
S214400CD043F470031360BFF34F8FBFF36F8F29B198
S214400CE001220F4B1A70BFF35F8F62B60E4B9847C8
S214400CF00E4B9847FEE700BF0000002014984000C7
S214400D00A4080020C0470020A8080020A308002010
S214400D10AC080020C347002000ED00E00000400083
S214400D200000002088ED00E019634000F5604000B8
S214400D303C4B1B6B03F00303012B0FD013B1022B6C
S214400D4029D057E0384B5B6913F0800F14BF4FF43F
S214400D5000424FF4FA42354B1A604BE0314B1B6A67
S214400D6013F0807F03D0324A304B1A6042E0314A5B
S214400D702E4B1A602B4B1B6A03F07003102B02D0CD
S214400D80202B04D036E02C4A284B1A6032E0284A02
S214400D90264B1A602EE0234B1B6A13F0807F03D04D
S214400DA0234A224B1A6012E0224A204B1A601D4BFF
S214400DB01B6A03F07003102B02D0202B04D006E0F1
S214400DC01D4A1A4B1A6002E0194A184B1A60154B16
S214400DD01B6B03F00303022B0CD1124A936A926AF0
S214400DE01248C3F30A41036801FB0333D2B2B3FB94
S214400DF0F2F303600B4B1B6B03F07003702B07D1B1
S214400E000A4A13680D49A1FB03135B081360704739
S214400E10044B1B6B0549C3F302120B68D3400B60AF
S214400E20704700BF00040E4010180E40040000201B
S214400E30001BB70000093D0000127A00ABAAAAAA20
S214400E40124B984204D84FF08062114B1A6070479C
S214400E50104B984203D8104A0D4B1A6070470F4B00
S214400E60984203D80E4A0A4B1A6070470D4B984278
S214400E7003D80D4A064B1A6070470C4B984294BFF5
S214400E804FF004220A4A024B1A607047FF2C310189
S214400E90000A0E40FF59620200010004FF869303D9
S214400EA000020004FFB3C40400030004FFE0F5059D
S214400EB000050004094B1B6813B9094A074B1A6022
S214400EC0064B1B681A180749914204DB1046034A32
S214400ED01060184670474FF0FF307047C408002037
S214400EE0C0770020FCFF01204FF0FF30704700BF66
S214400EF04FF400534B600020704700BF01207047FE
S214400F0000207047030A43EA002080B2704700BFC3
S214400F10030A43EA002080B2704700BF030E43EA4C
S214400F200062030203F47F031343000A00F47F4089
S214400F301843704708B5014B984708BD1D0F400041
S214400F402DE9F04385B08046894615460022242187
S214400F500120224B984700283DD00646D8F804701A
S214400F60446884F800906570002525716571A57108
S214400F70E571D0F804C0D8F80430D3F800E05868DB
S214400F809968D3F80C80CCF808E0CCF80C00CCF884
S214400F901010CCF81480D3F810E058699969CCF852
S214400FA018E0CCF81C00CCF82010A570E5707189CC
S214400FB020460B4B98476080FB6804AA42F8043DE5
S214400FC0012301930095FF2329463046054CA04750
S214400FD03046054B984705B0BDE8F083D523400022
S214400FE071124000BD154000752340002DE9F043C6
S214400FF085B00646884647683C7804F00F04A4004F
S21440100065422DB22946464B984700287ED1338903
S214401010032B7BD973681B78082B73D1414BD3F8CD
S214401020009041464846404B984720B909F0F009A1
S214401030B9F1E00F03D130463C4B98476DE0338919
S214401040072B63D930463A4B984718B13046374B52
S214401050984762E024B222213046314B9847F8B197
S214401060214630462E4B9847002853D100223189DE
S2144010700220304B9847814600284BD031462E4BB5
S2144010809847002846D1D9F8047029464846244B4C
S214401090984700283ED13046244B98474E4606E0B7
S2144010A06FF0210130461E4B9847002832D17268B7
S2144010B01C4B1B68FB60214B1B683B610023137075
S2144010C053884FF6F6718B428CBF093308335380F2
S2144010D0FF233B720023BB72FB7214213846184B29
S2144010E098477881214630460D4B984750B9CDF801
S2144010F008800123019300220092FF2309493046CD
S214401100104CA0473046094B984706E03046074B00
S214401110984702E03046054B984705B0BDE8F08357
S214401120FD2240003C370020FD154000752340005E
S21440113081124000D5234000F92540003437002076
S21440114071124000C914400008B50A460321014BFD
S214401150984708BD410F400008B50A460B21014B91
S214401160984708BD410F400010B483B00023ADF847
S214401170063010F0010406D0994224DD03788DF83D
S214401180073001390130012907DD002330F8022BF2
S214401190134402390129F9DC00E000230029C4BFCA
S2144011A002788DF80620BDF80620134498B200EB6E
S2144011B013439AB202EB134354B11A0292B2C3F3EA
S2144011C00723134304E00129DFDCBDF80630F4E7CB
S2144011D098B203B05DF8044B704700BF2DE9F04766
S2144011E08A469146984600B30546002634461E4F2A
S2144011F069896868B847204484B204EB10446B8918
S21440120013F0010F07D0C6F10106F6B223029BB2D7
S214401210C4F307241C432D68002DE9D136B12302C0
S2144012209BB2C4F307241C4300E00024DAF80030E5
S214401230D9F800001A0C12FA83F313FA80F303EB82
S214401240104004444046094DA8470444BDF82000D9
S214401250A847204483B203EB104083B203EB104010
S214401260C04380B2BDE8F08769114000050F4000DA
S21440127008B5024B9847C04380B208BD691140008C
S214401280F8B500B3054600263446114F69896868AC
S214401290B847204484B204EB10446B8913F0010F26
S2144012A007D0C6F10106F6B223029BB2C4F3072468
S2144012B01C432D68002DE9D136B123029BB2C4F3FE
S2144012C007241C4300E00024E04380B2F8BD00BF82
S2144012D0691140000E4B1B686BB193F82D2012F03D
S2144012E0010F05D001685A684A4099680A420DD0F5
S2144012F01B68002BF1D1074B186840B190F82D3091
S21440130003F00103002B08BF0020704718467047C3
S214401310584700205C4700202DE9F84F0546D0F896
S214401320048098F800301A09042A02D0574B984790
S214401330A9E00F4603F00F039C00B8F80200544B98
S214401340984706466B89A34202D32B89834203D231
S21440135028464E4B984796E0214640464D4B984788
S21440136018B12846494B98478DE0314628464A4BA7
S2144013709847D8F81020494B1A60D8F80C20484BAC
S2144013801A603C460126DFF814A1DFF818B1DFF8F2
S214401390349194F82D3013F0010F0BD014F1040F54
S2144013A008D0636833B1DAF8000083420DD0214696
S2144013B0D84750B916B1D9F8004000E02468BC427E
S2144013C008BF3C680026002CE3D13946344B1868E9
S2144013D0344B984728B9324B1B6803F0F003E02B98
S2144013E003D12846294B98474DE01CB92846274B41
S2144013F0984748E0B8F8063023F0C0039BB23BB1AC
S2144014002846294B9847054600283CD0D0F804800B
S214401410264B1F60264BC3F8008098F80930062BF1
S21440142009D0112B02D0012B0FD109E039462846AE
S214401430204B98471EE0394628461F4B984719E0F0
S214401440394628461D4B984714E03946134B1868D2
S214401450144B984758B9114B1B6803F0F003E02B28
S21440146005D0C5F8048002212846154B98472846E3
S214401470064B984700230D4A13600D4A1360084AEE
S2144014801360064A13600020BDE8F88F75234000BD
S214401490110F400071124000292540003C370020C3
S2144014A034370020FD1540006D18400038370020C6
S2144014B040370020694E4000D93B4000ED0F4000C9
S2144014C049114000584700202DE9F04F87B00546A7
S2144014D002919DF840909DF844B0129E0192002AD9
S2144014E048D0984617461421304B9847002858D184
S2144014F06C6884F8088084F809B048EA0B2A3B6890
S21440150023611A0C12FA83F203924523237084F85F
S21440151001904FEA092949EA030B2889244FB84726
S214401520804660800023A371E371DFF88C90B9F8A1
S2144015300000B847A080B9F800300133A9F8003061
S214401540029B0BB11B6813B97368E36000E0E3606D
S214401550E268039B13FA82F303EB12435B44534463
S2144015609844404483B203EB104000EB1040C04325
S214401570608105E043681B6906AA42F8043D019273
S214401580B38C43B12A899A4205D9019A31462846F6
S214401590084B984707E07369019A294630469847B2
S2144015A001E06FF0010007B0BDE8F08FFD2240007B
S2144015B0050F4000D51B4000C8080020F0B585B098
S2144015C005460E4614461F4610460A4B984768B1D5
S2144015D002909DF82C3001939DF8283000933B46AE
S2144015E0224631462846044CA04701E06FF00300EF
S2144015F005B0F0BDD5124000C91440000246431E57
S21440160013F1030F14D891F82D3003F0020303F0C2
S214401610FF0093B14B689A420CD0896853400B4206
S2144016200AD1C94331EA02030CBF012000207047AB
S2144016300120704700207047002070472DE9F04F8A
S21440164085B0019103680DF1100E4EF8043D0DF182
S214401650100B8C460026B046274F4FF02E0A754694
S2144016609EF80030414600E02146A7FB0340C008F4
S21440167000EB8004A3EB44034C1CE4B230330DF182
S2144016801009894409F8083C00F0FF030028EBD114
S21440169085F800800EF1010EBCB1B24224DD6346EF
S2144016A0741CCCEB0404CCEB060604E00139C9B24A
S2144016B0981982421ADD1D1904A8084410F8080C2F
S2144016C003F8010B0029F1D101E0354663466E1C54
S2144016D0AA420DDD03F1010C83F800A0DE45BED121
S2144016E000221A70019804E0002002E0002000E08A
S2144016F0002005B0BDE8F08FCDCCCCCC08B510228C
S2144017000149024B984708BDCC0800203D164000D2
S2144017102DE9F04781468A4645686B689A88D2B973
S2144017201B6843606A68034653F8081F5E689C68F7
S214401730D868116056609460D060196911610121C3
S21440174028461A4B98472846194B984784B228464D
S214401750184B984700E00024D9F804606EB1DFF8D3
S2144017605080144F73681D683046C047204484B28A
S2144017703046B8472E46002DF4D10F4B1B6899458E
S21440178004D1D9F800200C4B1A6003E0D9F8003099
S214401790CAF8003049460420084B9847084A138840
S2144017A01B1B13802046BDE8F08700BF5911400040
S2144017B08925400075234000DC080020B921400000
S2144017C0E00800202DE9F843054688460026184FD5
S2144017D0DFF860903B6843B3D5F80CE00024214620
S2144017E0204601E0194613465A69724509D1D5F894
S2144017F010C09A69624504D1B3F80CC0AA889445D3
S21440180009D0013430B193F81FC0C27F944598BFC9
S214401810184600E018461A68002AE3D108B1C847BF
S2144018200644464501DA012CD4DC3046BDE8F88350
S214401830DC080020111740000A4B186880B170B5CC
S2144018400024094EC37F23B1013BC377044600689A
S21440185003E005682146B04728460028F2D170BD0F
S214401860704700BFDC080020111740002DE9F04FFC
S21440187083B007464668337803F00F03052B40F0E5
S2144018805481F088AF4CA04783467088A0470190AB
S21440189096F800A03846AC4B98478046AB4B1B8822
S2144018A003440A2B0CDD01463046A94B98470028D6
S2144018B000F03B81A54B1B8843440A2B00F335813F
S2144018C0A44B1C68B4B1F268002500E01C4663696E
S2144018D0934207D13369A169994203D1A189B3885C
S2144018E0994204D023682546002BEFD102E0002C15
S2144018F037D12C460420984B9847814668B94146D4
S2144019003046934B9847804500F30F810420924B16
S21440191098478146002800F008812022002148464A
S2144019208E4B9847032389F81F308A4B1A68C9F8AC
S2144019300020C3F8009032687568B068F168C9F84E
S2144019400820C9F80C50C9F81000C9F814103269BC
S214401950C9F81820B9F1000F00F0E78025464C463C
S21440196017E0F088774B9847C0F30C0088B9E089B9
S214401970744B9847C0F30C0058B13268D6F804E070
S214401980B068F168A260C4F80CE020616161326919
S214401990A2616E4A13889844A2F80080F38803F048
S2144019A020039BB263B9A37F43F00103A3770AF0F9
S2144019B00F0A019BA3EB8A0909EBCB0BA4F81CB0DA
S2144019C07E687088DFF87C91C84796F8008008F0FB
S2144019D00F08A0EB88001FFA80F8F088C847C0F3CD
S2144019E00C00C000D7F804C000238CF800308CF8F8
S2144019F001308CF802308CF80330ACF80400804498
S214401A001FFA88F8ACF806806268A2B353689988D3
S214401A108842C0F08F8056D0DA88824253D84FF042
S214401A20010E1CE07268918888420CD2CCF80060A7
S214401A30002B00F0C580D988814244D89288424520
S214401A4041D31F601AE088423DD0D68886423AD8B5
S214401A5023B1DB888B4218BF4FF0000E13461E683A
S214401A60002EDFD16BE01F60DA88BCF804309A4263
S214401A7040F0A48002E04FF0010E6760A37F13F0B1
S214401A80010F00F09B80BEF1000F00F09780606869
S214401A9043689B88002B40F09180DCF80030002B98
S214401AA066D05B68BCF806109A88914207D085E0FD
S214401AB05268D9889388994240F0808013461A68C5
S214401AC0002AF5D154E038461F4B98471F4A1388E2
S214401AD0181A10803846224B98476FE06FF0130B69
S214401AE0DFF884A0DFF88490776859463046D047C0
S214401AF031464046C8473E68002EF5D1154B1B6818
S214401B009C4203D12268134B1A6001E023682B6085
S214401B1021460420134B984740460B4B98470B4AA8
S214401B201388181A108040464CE038460C4B9847AD
S214401B30002047E0CCF800204FF0010E40E0002B9C
S214401B4091D19AE7110F400089254000E008002017
S214401B50C5174000DC080020992140002965400058
S214401B6075234000B9214000FD224000AD254000CD
S214401B70A38B1433A38347683E68234653F8082F45
S214401B80D3F804E09868D9683A60C7F804E0B860CB
S214401B90F9601A693A61A08B0C4B9847788000230D
S214401BA0BB71FB71BB72FB7214213846084B9847D9
S214401BB07881D4F80480002E90D19FE7002001E081
S214401BC067605BE703B0BDE8F08F00BF050F4000DD
S214401BD0711240002DE9F04F89B0044603900591FC
S214401BE006928E8CD0F804A0BAF806003F4B984771
S214401BF0C0F30C0B00F4005083B202932589143DC9
S214401C00ADB2A6F114030193002BB8BF0733C3F35C
S214401C10CF030493002D61D0DB009BB207934FF0B7
S214401C201409CBF30C08029B43EA0808019BAB421D
S214401C30BABF48F40058079C2C4600222146012093
S214401C402B4B9847064600284AD04B4622464168CA
S214401C500398284FB84748441FFA80F91421304665
S214401C60254B984728B13046244B98474FF0FF30D5
S214401C7038E07368DAF80020DAF80470DAF808001A
S214401C80DAF80C101A605F609860D960DAF81020B5
S214401C901A6177684046DFF86C80C047F88004F1E8
S214401CA0140080B2C04778800023BB72FB721421B8
S214401CB03846134B9847788105984369069A3146CB
S214401CC0984730460D4B98472D1BADB2049B9B441E
S214401CD01FFA8BFB002DA4D1002003E0002001E07A
S214401CE04FF0FF3009B0BDE8F08F00BF110F400045
S214401CF0D5234000A1264000FD2240007523400029
S214401D0071124000050F400008B5064B9847064B39
S214401D109847064B9847064B9847064B9847064BBE
S214401D20984708BDB11E400025214000D121400003
S214401D30654E400019274000391E400070B50446E5
S214401D400E46154605201B4B9847002831D00146C5
S214401D50002303608660C5604460174B1D680DB95C
S214401D60186070BD6868844214D2001B68600D60BD
S214401D70114B196070BD4B685068181A486013685C
S214401D8023B15C68A0420ED31A46F4E713680B6092
S214401D90116070BD201A48602A6842B15368984264
S214401DA0E9D213462A465C68201A5860EEE72A466F
S214401DB0ECE770BD99214000EC08002008B5094BBF
S214401DC01B686BB9084B1B6813B9084B1B683BB1C3
S214401DD00122044B1A6000220549FA20054B984719
S214401DE008BD00BFE4080020684700207C4700206C
S214401DF0F91D40003D1D400008B5094B9847094B6A
S214401E001B6813B9084B1B682BB100220749FA2000
S214401E10074B984708BD0022064B1A6008BD00BF16
S214401E20712F4000684700207C470020F91D400085
S214401E303D1D4000E408002010B5002207494FF43D
S214401E407A70074CA0470022064941F28830A047E6
S214401E50054B9847054B186010BD00BF911E4000CB
S214401E603D1D4000711E4000955F4000E808002080
S214401E7008B5044B98470022034941F28830034B8B
S214401E80984708BD45544000711E40003D1D400027
S214401E9008B5044B9847002203494FF47A70034B29
S214401EA0984708BD39184000911E40003D1D40002F
S214401EB00A4B23F003030A4A13604FF480511980FB
S214401EC000225A801A715A18064802600120107182
S214401ED011805180044A1360704700BF4737002086
S214401EE0F8080020F4080020F008002000283FD022
S214401EF00346204A126890423AD31F4908688342F4
S214401F0036D270B4A3F10801002403F8044C1B4CED
S214401F102468A1423CBF194C216033F8085C541930
S214401F20A14210D0267976B9A0420CD0134800685A
S214401F30844204BF11480160505B23F8080C505B94
S214401F4010448C1A448033F8060C1418A1420ED064
S214401F50257965B9094D2D68A94204BF07490C602B
S214401F6033F8081C115233F8083C1A44508070BCB1
S214401F70704700BFF8080020F4080020F008002052
S214401F8003314FF6FC730B400B2B03D9B3F5805F40
S214401F9001D951E00C232B4A1268824250D82A4974
S214401FA0096888424CD2F0B4A0F10804A41AA4B23E
S214401FB030F8085CA5F10801091B89B299423DD367
S214401FC03DD056193779CFB9555B04F108010B441B
S214401FD09BB21E4909688E4202D1D1181B4E316011
S214401FE0D11800260E71D5524C8020F8083CD15AA4
S214401FF0B1F5805F23D00A44538020E003F11405F6
S2144020008D421CD804F108010B449BB2D1180F4DE9
S2144020102D68A9423CBF0D4D296000250D7130F852
S214402020085CD5524C8020F8083CD15AB1F5805F08
S21440203005D00A44538002E0002070470020F0BCE0
S214402040704700BFF8080020F4080020F008002081
S214402050002859D0F0B4034603334FF6FC741C40B6
S2144020600B2C03D9B4F5805F01D94FE00C242A4BE2
S21440207019682A4B1B685B1A9BB2C4F58055AB4265
S21440208046DA2646C8180279002A38D1CA5A083A8B
S214402090D21A3746A24232D31437BA4213D304F187
S2144020A008021A4492B28C180025257105888D5274
S2144020B063800280012303718B5AB3F5805F04D09E
S2144020C00B445A8001E001230371144B1B6898426D
S2144020D013D11A7962B1124A11688B420BD00E4A5C
S2144020E014681B8823441A7922B18B42F9D102E046
S2144020F0194600E01946094B1960083009E0038884
S214402100AB42BFDB002004E000207047002000E028
S2144021100020F0BC704700BFF8080020F008002000
S214402120F40800202DE9F047174D25F00305174B1E
S2144021301C1F174F174E03F11C0C4FF000080434B9
S214402140A646C4F8008037F8020FB8B1B6F800903B
S2144021502B460022114600E05346196003EB090A5D
S2144021600132194693B29842F6D8013880B200FB45
S214402170099309FB0050CEF800001D440236A445E2
S214402180DDD1BDE8F08700BFFF080020BC2300205B
S2144021905A9540006C954000072800D9FEE7054B4D
S2144021A053F820301BB11968024A42F820101846EE
S2144021B0704700BFBC2300200B4629B1034A52F8A3
S2144021C02010196042F82030704700BFBC23002022
S2144021D0704700BFF8B5044611B30D460A68436819
S2144021E09A4220D0114B186858B1114F0268636864
S2144021F09A4203D1C668B847304600E0C068002817
S214402200F4D10C4B1B6873B133B11A6822B16168C4
S2144022108A4204BF2A681A60DB68002BF4D102E0C9
S21440222000236360F8BD2B68FBE700BF68470020CB
S214402230393040007047002070B5044616461D46AB
S214402240064B98470EB1336800E00023A3600DB1FB
S2144022502B6800E00023E36070BD00BFD52140003E
S214402260F8B50446002545608560C56080F82D5069
S214402270C561069D05620B4E35786F1C377080F839
S2144022803050089D0561084DA8472046079B984753
S21440229028B9064B1A6822601C602046F8BD00200C
S2144022A0F8BD00BFDC2300203922400058470020FC
S2144022B0014B1860704700BF5C47002090F82D30F7
S2144022C013F0010F13D110B5044643F0010380F814
S2144022D02D30C36903B1984794F82D3003F030038E
S2144022E0302B03D1211D2046014B984710BD704727
S2144022F08554400000B1C161704700BF59B30B46DA
S21440230058B310B4002905DA4C42A4B24289A2421E
S21440231001D2FEE78CB2017B426809B1032906D19F
S214402320D21A00F110018A4219D342600AE00139FC
S21440233089B2012915D8002B15DA4189A14214D358
S214402340D21A42609BB242891A444281028913449F
S214402350038100200AE000207047002070470120DB
S21440236004E0012002E0012000E001205DF8044B7B
S214402370704700BF28B32DE9F04101460024134DB5
S2144023804FF00608124E13E00F680B7B032B02D16A
S2144023900720B04708E0013B9BB2012B02D84046DD
S2144023A0B04701E00846A8470134E4B25FB1394679
S2144023B0CB89013B9BB2CB81002BE5D02046BDE8C4
S2144023C0F081002070472046BDE8F081ED1E4000B9
S2144023D0B92140002DE9F843032800F29180DFE858
S2144023E000F008020406222604E00E2602E000263C
S2144023F000E0362617468846032A00F28480DFE847
S21440240002F0516B6B020720434B9847054620B9B4
S2144024100122424B1A70BDE8F8830323037300235E
S21440242003608319133323F003034360A0F8088046
S214402430033626F00306C6F5C0664645A8BF4646A0
S21440244046810123C381B4B2C4EB0804002C50DD9E
S21440245081460727304E4FF003083846B04740B90C
S21440246001222E4B1A7028462D4B98470020BDE877
S214402470F88380F80C80002242730260C9F800009E
S2144024800481A2B2B2F5C06FA8BF4FF4C0624281C9
S21440249000F1100141600121C181A41A8146002C3F
S2144024A0DBDC26E006F1130020F00300CB1C23F013
S2144024B00303184480B21B4B9847054630B3064486
S2144024C0133626F003064660A0F80880A0F80A8077
S2144024D00023036003730CE006200F4B9847054625
S2144024E0B8B100234360A0F80880A0F80A800360D3
S2144024F007730123EB8100236B732846BDE8F883FE
S2144025000020BDE8F8830020BDE8F8830020BDE841
S214402510F8830020BDE8F8839921400060470020FA
S214402520752340005120400002898A4226D938B59A
S2144025300446438999420BD90D46EB1A9DB223892E
S2144025409B1A0B44238124686389AB42F5D300E091
S2144025500D46227B4AB99D4207D063681B1BE9188B
S21440256089B22046064B98470446658125812068F7
S21440257008B1044B98470023236038BD704700BF1E
S214402580811F400075234000034630B100200130D3
S214402590C0B21B68002BFAD170470020704700BFBE
S2144025A010B1C3890133C381704700BF30B10246C2
S2144025B021B110B403681BB9034609E0FEE70346A1
S2144025C0148908892044108118681A460028F6D1D4
S2144025D018890A8902441A8119605DF8044B7047CD
S2144025E010B50C46024B98472046024B984710BD04
S2144025F0AD254000A12540002DE9F04730B10D46FD
S214402600044619B102890B899A4200D2FEE74FF080
S214402610000A5746DFF88490D04663896A89D81BFB
S214402620CAEB02018842A7BF0A4696B2DB1B9EB29F
S21440263060686968324651443844C8473744BFB238
S21440264056441FFA86FA6B8953459CBF2D68C2468E
S2144026506389BB4204D124680CB9E5B1FEE747461E
S21440266075B16A892B899A4208D12B6833B1FEE747
S214402670236803B1FEE7002DCFD10CE034B9CCE798
S2144026804CB1628923899A42F2D004E06289238958
S2144026909A42C2D1ECE70020BDE8F087F5634000DF
S2144026A000B9FEE72DE9F84F88469346064601B93D
S2144026B0FEE74AB300252F46DFF858A0A9462BB1BF
S2144026C072899A4202D89B1A9BB214E07489E41A23
S2144026D0A4B25C4528BF5C4671682246194408EBA4
S2144026E00700D0472544ADB22744BFB2C4EB0B0425
S2144026F01FFA84FB4B463668BBF1000F07D0002E0E
S214402700DDD12846BDE8F88F0020BDE8F88F284682
S214402710BDE8F88FF5634000704700BFF0B401464F
S214402720866A858DAA19046BC38E40F2B4508342E4
S21440273088BF0346101BC31A002B01DBCD8509E07A
S214402740331B002B03DD0023CB85184602E0A41B79
S214402750CC850020F0BC704710B50446838D1944E4
S21440276089B240F66833994292BF818540F6683315
S2144027708385074B984740F2D923984206DDA37FCE
S21440278043F00203A3772046024B984710BD00BF94
S2144027901D274000E148400050B110B5044640684F
S2144027A008B1044B984721460320034B984710BD79
S2144027B0704700BF75234000B921400048B138B586
S2144027C00346044D1C681846A8472346002CF9D1FA
S2144027D038BD70479927400038B505460320084B5A
S2144027E09847044650B128686968AA68EB68206034
S2144027F06160A260E3606068024B9847204638BD3F
S21440280099214000A1254000037E012B1AD90A2BAE
S21440281018D070B50446806F18B10B4B984700230C
S214402820A367606F094EB047002565674FF6FF7394
S214402830A386E06EB047206FB047E5662567A4F8EC
S2144028406A5070BD704700BF75234000BD274000EA
S2144028502DE9F04F83B0B24A136801331360B14A92
S2144028601378013313701546AF4FDFF8ECB2AF4B19
S2144028701C68002C00F0798100262B7894F82120E3
S2144028809A4201D1E4686DE184F82130227E022A22
S21440289005D194F84630062B40F08981A9E094F89B
S2144028A046300C2B53D094F89510C9B194F8943018
S2144028B00133DBB284F894309D4A0A4412F8012C66
S2144028C09A4247D8002384F8943006299CBF0131A9
S2144028D084F895102046974B98474FF0000841E003
S2144028E0B4F934100029A4BF0131A186216FA1B3E9
S2144028F0B4F93400B4F94410884231DB022A0BD0D4
S214402900B4F94010B4F9422002EBE1028A49CB5CAC
S21440291002FA03F3A4F844300023A386B4F86020F8
S214402920B4F84C30934228BF13465B08A4F84E30A8
S214402930E28EB3EB420FBCBF5300A4F84E30A4F86F
S2144029404C2020467D4B98474FF000080AE04FF059
S214402950010807E04FF0000804E04FF0000801E0EF
S2144029604FF00008237E062B10D1A37F13F0100FE4
S21440297000F021816A4B1B68626A9B1A282B40F242
S2144029801A8108F101085FFA88F814E1227A12F0F9
S214402990080F33D0042B01D0072B32D1604B1A6876
S2144029A0636AD21AD4F8900000F5242303F6B8439D
S2144029B0ABFB0313B2EB531F06D908F101085FFACD
S2144029C088F84FF0010926E094F896105C4B03FB1C
S2144029D00103ABFB0313B2EB531F15D92046594BEB
S2144029E0984794F89630013384F896304FF00009B3
S2144029F011E04FF000094FF001080CE04FF00009DD
S214402A0009E04FF0000906E04FF0000903E04FF000
S214402A1000094FF00108606F10B910E04FF0000950
S214402A203F4B1B68626A9A1AB4F9443003EB43037F
S214402A30B2EB430F03D3444B984700236367237E90
S214402A40032B0AD1364B1B68626A9B1A282B10D977
S214402A5008F101085FFA88F80BE0092B09D1304BE2
S214402A601B68626A9B1AF02B84BF08F101085FFA64
S214402A7088F8B8F1000F30D02046344B984716B14E
S214402A80E368F36002E0E368284A1360B9F1000F98
S214402A900AD0A16A206DA38B0193638B0093231DFC
S214402AA02246DFF8B880C047D4F88C80D4F810A00F
S214402AB0D4F80C9021460120254B984700233B70C4
S214402AC0B8F1000F27D06FF009015046C0473B7859
S214402AD0002B7FF4CCAE4C4644E0D4F80C80E37F29
S214402AE00133DBB2E37794F820209A4215D80023CE
S214402AF0E3773B70D4F888303BB12146206998474D
S214402B003B78002B7FF4B3AE50BB2046114B984722
S214402B102646444626E04C4624E02646444621E0E7
S214402B206C470020DE2300206447002068470020D2
S214402B308C954000914D40007C954000394C4000BB
S214402B40F8240100254D4000BD27400009284000DC
S214402B50B9214000E1484000D34D6210954B4000FB
S214402B6026464446002C7FF488AE184B1C684CB36F
S214402B700025174EDFF86080164F626A33689B1A4E
S214402B80F02B0FD92046C04715B1E368EB6002E052
S214402B90E2680E4B1A60D4F80C9021460120B847E4
S214402BA04C4601E02546E468002CE6D10AE00C2BB2
S214402BB07FF479AE2BE7606F00287FF42FAF4FF09D
S214402BC0000956E703B0BDE8F08F00BF7C47002001
S214402BD06C470020B92140000928400010B50C463B
S214402BE002688A4202D1D368036016E0164B1A6028
S214402BF09AB1D36899420BD105E0DA68944206D17F
S214402C00114A136000E01346E268DA6005E01346B6
S214402C10002BF2D100220C4B1A600023E3602046C2
S214402C200A4B9847237E0A2B0BD0012B09D0A37F53
S214402C3013F0010F05D043F00203A3772046044B60
S214402C4098470023237610BD74470020092840008B
S214402C50E148400030B583B00446002900F0AC801F
S214402C60037E042B02D0072B40F0A680A36F2BB91F
S214402C70A28D40F668339A4200F09E80A38B019363
S214402C80638B0093231D2246A16A206D5A4DA847A8
S214402C9020465A4B98475A4B1A68944202D1E268EB
S214402CA01A6016E0574B1A609AB1D3689C420BD113
S214402CB005E0DA68944206D1524A136000E01346B3
S214402CC0E268DA6005E01346002BF2D100224D4B55
S214402CD01A600023E36001224B4B1A70237E042BBC
S214402CE009D10A232376494B1A68E2601C60484B98
S214402CF0984700207DE021460120464B984700201B
S214402D0077E0638BFBB1444B1A68944202D1E26889
S214402D101A6016E03B4B1A609AB1D3689C420BD1BE
S214402D2005E0DA68944206D1364A136000E013465E
S214402D30E268DA6005E01346002BF2D10022314B00
S214402D401A600023E36021460120324B984749E051
S214402D5021463248324B9847214602202D4B984711
S214402D6040E0214626482E4B98470120264B1870B7
S214402D702146284B984735E020462A4B984703463D
S214402D80002835D1052323762EE02046254B98474C
S214402D90034668BB0523237626E02046214B98470A
S214402DA0034628BB092323761EE020461E4B984741
S214402DB000201EE000201CE0237E072BFAD801A24C
S214402DC052F823F0032D4000512D4000632D400063
S214402DD0792D40008B2D4000B52D4000B52D40008C
S214402DE09B2D4000002004E0002CDED1002000E0B7
S214402DF0184603B030BD00BF954B40000928400040
S214402E006847002074470020644700207C47002025
S214402E10BD1D4000B9214000784700207047002083
S214402E20DD2B400019484000E148400008B5037ECD
S214402E30012B03D0837F43F0100383770121014B9E
S214402E40984708BD552C400010B5084642B1144678
S214402E501189064B98472046054B9847002010BDE1
S214402E6013B9044B984710BD002010BD59274000A9
S214402E70752340002D2E4000F8B50446856F6F7BC5
S214402E8000238367D0F8806026B12A460146006951
S214402E90B04705E000232A4601461846144EB04780
S214402EA0C0B917F0200F1BD0A38D40F6683293426E
S214402EB01CBF0133A385D4F880509DB100231A4629
S214402EC021462069A84710F10A0F0CBF6FF0090091
S214402ED00020F8BD10F10A0F06D0A5670020F8BD07
S214402EE00020F8BD0020F8BD6FF00900F8BD00BF17
S214402EF0492E40002DE9F843184A137801331370E1
S214402F00174F1546DFF86480164E3C681CE0FEE717
S214402F1084F82130A37F13F0010F08D043F002035A
S214402F20A3772046C047A37F23F00303A377D4F8B4
S214402F300C90A36F3BB10023337020460A4B984752
S214402F403378002BE1D14C462CB12B7894F82120D5
S214402F509A42DDD1DBE7BDE8F88300BFDE230020E0
S214402F606847002064470020792E4000E148400032
S214402F7008B5064B9847064A13780133DBB2137000
S214402F8013F0010F01D0034B984708BDF52E4000C3
S214402F90DD230020512840002DE9F04383B004464D
S214402FA0037E0A2B08D101461C481D4B98472146F4
S214402FB001201C4B98472EE00E46D0F85080D0F8A3
S214402FC02890D0F88C50076901461748144B98470C
S214402FD00122164B1A70206F08B1154B9847E06EC9
S214402FE008B1134B9847606F08B1114B98474EB1E4
S214402FF0A38B0193638B0093231D2246494640468C
S2144030000C4EB04721460120064B98471DB16FF045
S21440301009013846A84703B0BDE8F0837C47002046
S214403020DD2B4000B921400068470020644700205F
S214403030BD274000954B400008B50121014B9847FD
S21440304008BD00BF992F4000034A1068034B1B6819
S21440305018441060704700BF080000206C470020EE
S214403060F8B5054601203A4B98470446002835D126
S214403070384B1B6873B1384A146801465A6AA21A1C
S2144030808A4224BF11461846DB68002BF6D108B1A9
S214403090324B984701202E4B98470446F0B9304BA8
S2144030A01B68ABB12C4A176806467F245A7E954269
S2144030B008D3A24206D8596A791AB14202D31446B6
S2144030C00E461846DB68002BF0D108B1234B9847D4
S2144030D001201F4B98470446002837D098220021ED
S2144030E02046204B9847657640F66833A4F866300D
S2144030F00025A4F86850A385E3856572FF23A37274
S2144031004FF40673E3860623A4F84430A4F84050F0
S214403110A4F842304FF6FF73A3860123A4F84C3040
S214403120114B9847A0652065A064E0650A4B1B6874
S21440313063620E4B1B7884F82130E5770C4BC4F85D
S21440314080300C4BC4F8903084F896502046F8BD3A
S214403150992140007C4700206C47002039304000D1
S214403160684700202965400049304000DE230020A3
S214403170492E400000DD6D0010B504460846064B5B
S214403180984730B1838C23B1283B9BB29C4228BFE2
S2144031901C46204610BD00BFD5124000F8B5054677
S2144031A0214B1C68A089214B9847C0F30F30052857
S2144031B038D91D4B1B6898891C4B9847000B05381F
S2144031C0800080B270B304F11402002340F2B3577B
S2144031D040F2B4561C46D15C012903D011B30229F3
S2144031E003D018E001339BB21AE0D118497804297D
S2144031F018D1191D814215DC144494F802E0E17898
S21440320041EA0E214C1EA4B2BC4288BF3146E98634
S21440321004339BB204E01444617819B10B449BB26A
S2144032208342D7D3F8BD00BFE0230020110F4000F3
S2144032302DE9F04705468946C36898892B4B984741
S21440324010F0010F12D1B9F1000F4CD0D9F80C1084
S2144032502B894A689A1A264B1B681344B9F80820EB
S2144032609B1A002BB8BF4C4633DB06E04846214B42
S214403270984700242AE0A14603E01C4FDFF88080F0
S2144032801D4E8889B84710F0010F08D0D5F80CA01D
S214403290BAF80C400120C0472043AAF80C00D9F8E1
S2144032A000404846B047F4B1E1682B894A689B1A0B
S2144032B00F4A1268134422899B1A002BDBDA08E077
S2144032C0521A91B2298168680C4B98472C60BDE829
S2144032D0F087074B1968E3685A682B899B1A0B449A
S2144032E0002BEDDCF2E70024F0E700BF110F4000B2
S2144032F0E4230020BD2740009927400029254000B0
S214403300050F40002DE9F0470446984B1B7813F014
S214403310100F00F08581B0F86050806D626D944B60
S2144033201B68D11A00290FDB9A4204D1914A1268D1
S214403330821A002A08DB8F4A1268904226D18E4AAB
S2144033401268D289AA4221D98B4A1268D1898EB294
S214403350A4F86010D28991B2B4F862708F4238BF38
S214403360A4F862206365834B1B68A36546B994F84E
S21440337095305BB984F89430012384F8953005E0A5
S21440338094F8953013B1002384F89530794B1A6839
S214403390A36CD11A002937DC0021A4F864107749C1
S2144033A00988002940F0EB832844B4F86050A16DAA
S2144033B02944884240F0E383B4F934100029C0F22F
S2144033C0DE839A4240F0DB8394F84720531CDBB2FE
S2144033D09A4238BF84F8473094F84730032B09D9CF
S2144033E0B4F84C20E38E13449BB29A4207D2A4F81A
S2144033F04C3004E0032B02D12046614B9847E36EE5
S214403400002B40F0C780E4E0012900F18880216D60
S214403410511A002900F38380A17F11F0040F06D0D3
S21440342021F00401A177B4F84E10A4F84C10002007
S21440343084F84600B4F94050B4F8421001EBE50178
S214403440A4F84410D31A9BB2A4F86430B4F86610BB
S2144034500B44A4F8663084F84700A264237E032B0E
S21440346018D9B4F84C20B4F84E30934207D9E38EBE
S21440347013449BB29A420DD2A4F84C300AE0E38E35
S21440348003FB03F393FBF2F313449BB29A4238BF19
S214403490A4F84C30236FFBB938E0256F2B682367C0
S2144034A0B4F8643053B1EB689889B04710F0010F18
S2144034B004D0B4F86430013BA4F864306868314BFB
S2144034C09847B4F86830181AA4F8680028462E4B77
S2144034D09847236F23B919E0DFF8B4802B4E254F69
S2144034E0DB685868C0470546236FB3F80890DB682A
S2144034F09889B04710F0030018BF012081443B680C
S214403500ED1A4D44002DC8DD236F1BB94FF6FF73EF
S214403510A38601E00023A3860023E3776FE700231A
S214403520A4F864306BE7E56E2B68E3660BB9A4F845
S2144035306A30B4F8643053B1EB689889B84710F0F5
S214403540010F04D0B4F86430013BA4F864306868D6
S2144035500C4B9847B4F86830181AA4F86800284608
S214403560094B9847E36ECBB933E000BFF023002009
S214403570E4230020EC230020E0230020E823002062
S214403580C94C40008925400099274000110F400053
S214403590350F4000A24EDFF8B082A24F3568DB6898
S2144035A05868C0478246E36EB3F80890DB6898894F
S2144035B0B847CAEB050510F0030018BF0120814448
S2144035C0C9EB0505002D04DB3368226D9B1A002BE2
S2144035D0A9DDA36B23B3E26B91490968521A002A0E
S2144035E01EDAB4F94010904A1268D21AA2EBE102F1
S2144035F092B213B2114409B2A4F84010002BBCBFDB
S214403600524213B2B4F94220A2EBA20213449BB238
S214403610A4F8423003EBE103A4F844300023A3634C
S214403620824B1B88002B00F09882227E062A00F2EE
S2144036309482A16A7E4A12688D1A012D2ED4481CA7
S214403640801AC31A002B29DC2B467A4A50684289D6
S21440365095420FDD0189491B89B200259B1A0181DD
S2144036604581006842899A42F8DB594209B2724B5A
S214403670984703E0694209B26F4B9847A26A6D4982
S2144036806B4805680B892B449B1A0B81CB680260FC
S2144036905A60A16A531A002B08DA59E2531A002BD3
S2144036A004DAA37F43F00203A37751E2A38DC3F16C
S2144036B0010313445B1A002B00F34A828A4240F00F
S2144036C066815C4B1D89DB689889564B984710F09D
S2144036D0030018BF01202B189BB2544A1380A28DBA
S2144036E09A4235D2534BDB6898894E4B984710F038
S2144036F0010F0DD04F4BDE68B5892846494B984799
S21440370000F03E004D4B984725F47C552843B08149
S214403710484BA28D1A81DB689889424B984700F047
S214403720020083B21BB1434A1389013B1381414DCA
S21440373029896868424B98472E89EB689889394BA7
S214403740984710F0030018BF01203044374B1880CC
S214403750636F002B00F09B80364BDB689889314BBB
S214403760984710F0010F0BD0606F002800F08F8054
S214403770344D03686367A847606F0028F9D186E038
S214403780D4F87490B9F1000F00F0FD81D9F80C1010
S214403790264B1B884A689A1A254B1B681344B9F86F
S2144037A008209B1A002BC0F2F0811E4E214FDFF8F6
S2144037B08C8000E0A9468889B04710F0010F1AD0E7
S2144037C0FB689889B04700F0020083B29BB9D7F8EF
S2144037D00CA0BAF80C500120C0472843AAF80C00A9
S2144037E03D89FB689889B04710F0030018BF012058
S2144037F028440E4B1880D9F800504846114B98473D
S214403800002D00F0C081E968084B1B884A689A1A68
S214403810074B1B6813442A899B1A002BCADAB5E16A
S214403820EC230020110F40006C470020E8230020C6
S214403830E4230020F8230020FD224000050F40002E
S2144038402925400099274000350F4000834B521AE7
S2144038501A81DB689889824B984700F0020083B251
S2144038601BB17E4A1389013B13817C4E31897068B7
S2144038707C4B98473789F3689889794B984710F07E
S214403880030018BF01203844774B18806567764B95
S2144038901988764B1A680A44A262A38D5B1AA385E0
S2144038A02046734B98476D4B5B681A8922B1714A24
S2144038B013600022694B5A60684BDB689889684BF6
S2144038C0984710F0010F04D06B4A137843F020035A
S2144038D01370656F002D4DD0EB68A26A596891420F
S2144038E048D1DFF888915E4FDFF88481C9F8002020
S2144038F02E899889B84710F0030018BF0120064467
S214403900A36A1E44A6622E89EB689889B84710F0D1
S214403910030018BF01200644A38D9B1BA3852046A9
S214403920C04769680B894BB1524B186810B1534B6E
S214403930984701E04F4B196000236B60EB6898890D
S214403940B84710F0010F09D04B4A137843F02003D4
S2144039501370237E042B04BF072323762B686367EC
S2144039602846474B9847656F25B1EB685A68A16A69
S2144039708A42BBD0A37F13F0010F1ABF23F0010386
S21440398043F0020343F00103A377BDE8F0872046E7
S2144039903C4B9847666F5EB1F1684A68334B18688F
S2144039A082420BD0002700F1FF3E00F1010C1EE0E2
S2144039B02A48354B98476067BDE8F087354600266D
S2144039C0264B1A892B899A4240F2F48023482E4B84
S2144039D098470346002800F0ED800EB1306000E0C6
S2144039E0606729461846294B9847BDE8F08777B95F
S2144039F0831A002B4CDA1948234B9847002800F0CE
S214403A00D98060673146214B9847BDE8F087FB6810
S214403A105B68C3EB0E03002B3ADBC2EB0C03002BB8
S214403A2036DC0E48184B98470446002800F0C28003
S214403A30FB6859680D4B1B683A89D21A0A44002A1B
S214403A4005DD5B1A99B239817868064B98473C6029
S214403A50314620460D4B9847BDE8F087F8230020B6
S214403A60110F400029254000E8230020E4230020D1
S214403A701D274000F4230020F1230020AD25400000
S214403A809927400069484000D9274000313240001D
S214403A903568002D40F08680821A002A40F38A80DE
S214403AA08889454B984710F0010F40F08380434883
S214403AB0434B9847306000287CD0F3685968414BA8
S214403AC01B683289D21A0A44002A05DD5B1A99B26D
S214403AD0318170683C4B98473C4B1A88394B1B6881
S214403AE01A44A18DA36A0B449A4263D93368DB68B3
S214403AF09889314B984710F0010F0DD03368DF6836
S214403B00BD8928462C4B984700F03E00304B9847DE
S214403B1025F47C552843B8813268A16AA38D0B44AE
S214403B20284909685B1A1381336819895868264BF7
S214403B30984733681C89DB6898891F4B984710F074
S214403B40030018BF01202044204B1880BDE8F087B2
S214403B502046204B9847BDE8F0871A4B1B68A26A60
S214403B60991A002905DB01339B1AA28D9B1A002B5C
S214403B7020DDA37F43F00203A377BDE8F087002350
S214403B8084F847303BE4002580E64D460D4B1968E7
S214403B90EB685A680D4B1B889B1A0B44002B3FF76B
S214403BA055AE73E6E9684A68374682423FF408AF46
S214403BB02E461CE7BDE8F087110F4000F823002092
S214403BC0D9274000E423002029254000E823002090
S214403BD0050F4000694840002DE9F04383B0044695
S214403BE00D464368197801F00F0103EB8103894ABB
S214403BF0136089004942884B9847002840F0A884C3
S214403C002389132B40F2A4842946844B1868844B9E
S214403C109847002840F09C84804B1B6803F0F003D4
S214403C20E02B00F095842389009306237B4A7D4948
S214403C3020467D4DA847002840F08A84754B1B6877
S214403C4098897A4B9847000BC0EB8030810009B2C8
S214403C502046714B9847002840F07A846D4D2F6877
S214403C603888724EB04738802F687888B04778805A
S214403C702F687868DFF8E481C04778606C4B18603E
S214403C802F68B868C047B8606A4B18602F68F889D4
S214403C90B047F8812B689889B0475FFA80FE0EF0EF
S214403CA03F02654B1A701EF0030118BF012123899D
S214403CB0194489B2614B1980614B186840B32F682C
S214403CC03E88584BD3F800C0544BD3F80080054686
S214403CD0002200E01D46AB8BB34211D1B5F81A90D6
S214403CE07B8899450CD16B68634509D12B68434561
S214403CF006D152B1EB68D360E860514B1D6004E0DA
S214403D00EB682A46002BE5D102E0002D40F0F88013
S214403D104C4B1868002841D03E4B1E683288414BB9
S214403D20D3F800C03D4B1F68838B934233D1438BFF
S214403D3075889D422FD1456865452CD10568BD42A2
S214403D4029D11EF0040F22D11EF0020F12D0384D9A
S214403D502E68856A751B13D4878DED1B002D0FDCEE
S214403D60019200932F4B2D4A314432480068364D1D
S214403D70A8470CE01EF0010F02D0344B1B6843628C
S214403D8029B1837F43F002038377314B984720461F
S214403D90304B9847FEE3C0680028C5D12E4BD3F879
S214403DA000C0BCF1000F00F0B5831A4B1F6878883E
S214403DB01A4B1E686546002200E01D466B8B834208
S214403DC004D12B68B34206D02DB123B1EB682A4606
S214403DD0002BF2D19EE3002D00F09C832AB1EB68C5
S214403DE0D360C5F80CC01C4B1D601EF0040F40F09D
S214403DF083801EF0100F33D00D4B18683B8801931C
S214403E007B880093074B054A01440A4800680E4DDC
S214403E10A84771E0E0230020FD2240003C37002008
S214403E20FD15400034370020DD114000110F4000E2
S214403E30E4230020EC230020F0230020E823002089
S214403E40684700207C470020954B40006C47002088
S214403E50E14840007523400070470020350F400081
S214403E601EF0020F48D0687E914B984706460028C1
S214403E7042D0904B1B6803606B8B43838E4B1B6812
S214403E8043608E4B1A6813888383032303768C4BD8
S214403E901B68591C81620163D189A0F86010D289E1
S214403EA0A0F86220A0F84E10013B43652B690361E1
S214403EB06B6943612B7A23F073030372814B1A6854
S214403EC0C2601860804B98470122804B1A7030467B
S214403ED07F4B9847311DF08E7E4B9847F0861221D7
S214403EE030467D4B984720B1002130467B4B984763
S214403EF002E030467A4B984720467A4B984749E34B
S214403F00794B00221A60218919815C60DF60774B0B
S214403F101A60774B1A701EF0080F03D0637B43F08D
S214403F2001036373AB6F6BB12846724B984710F131
S214403F300A0F00F0E082AB6F23B16F4B1B88002B5B
S214403F4040F0D9826D4B1D606D4B1B7813F0040F0B
S214403F5023D02B7E022B07D12B6D6A4A12689342E0
S214403F6014BF002301230BE0554B1B68AA6A9B1A1B
S214403F7000F14482AA8D9B1A002BCCBF002301235C
S214403F80002B00F03B825A4A137843F00803137024
S214403F90AB7F23F00103AB7730E213F0020F09D07A
S214403FA02B7E023BDBB2012B04D9AB7F43F00203EE
S214403FB0AB7723E2AB7F13F0100F40F0CD82524B2D
S214403FC01B686B62C8E24E4B1B7803F01203122B41
S214403FD056D12B6FDB6858684C4B98470130494B9D
S214403FE01B6898424CD1B5F866300133A5F8663068
S214403FF0334B1B685A1CAA622A63A8642F4A12686D
S214404000D189A5F86010D289A5F86220013B6B657E
S21440401004232B76E918E88E2E4B9847E88600EB6B
S21440402080035B00A5F84E30B5F84C30012B04BF3A
S214404030400080B2A5F84C00B5F86830013BA5F8C2
S2144040406830286F03682B67314B98472B6F1BB936
S2144040504FF6FF73AB8603E00023AB8685F8463009
S214404060D5F884303BB1002229462869984710F19C
S2144040700A0F00F04082AB7F43F00203AB77BDE10E
S2144040801F4B1B7813F0100F00F0B8810B4B1B68CA
S214404090194A10880A4A11681A8801925B88009368
S2144040A0054B044A0144174800681A4CA047A5E14E
S2144040B0613040003C37002034370020E0230020A9
S2144040C0E423002068470020BD1D400064470020D0
S2144040D09D3140007931400041474000992F4000D3
S2144040E0E148400075234000F8230020F4230020D8
S2144040F0F1230020792E4000E8230020804700204E
S214404100F0230020EC2300206C470020350F4000B1
S21440411099274000954B4000934B1B7813F0100FA7
S21440412049D0924B1868AB6CDB43C34233D42B6DFB
S214404130C31A002B2FDC04232B766B6943B1002275
S21440414029462869984738B110F10A0F00F0D38104
S2144041502846874B9847CEE1B5F84C402846854BD5
S2144041609847B5F8643013B1013BA5F86430012C8C
S214404170EB8E04BF5B009BB2A5F84C307E4B1B78A1
S21440418013F0200F00F03A81AB7F43F00203AB7789
S21440419007232B7632E1794B1B68794A1488794A93
S2144041A011681A8801925B880093774B774A2144BE
S2144041B0774CA04722E113F0020F00F01F81AB6A54
S2144041C0013B704A1268934240F018812846714B72
S2144041D0984713E12846674B9847674B1B7813F080
S2144041E0200F00F00B81AB7F43F00203AB77072331
S2144041F02B7603E128465F4B98475F4B1B7813F0BE
S214404200200F41D0584B1B7813F0100F35D02A6D35
S214404210564B1B689A4230D1AB7F43F00203AB77D4
S21440422028465D4B98475D4B1B689D4203D1EA6824
S2144042305A4B1A6015E05A4A1360002201200AE0E1
S214404240D9688D4205D10AB1554A1360EA68DA60EA
S21440425007E002460B46002BF2D112B10022504B2B
S2144042601A6001224F4B1A700A232B764E4B1A685F
S214404270EA601D604D4B9847C0E0AB7F43F00203B9
S214404280AB7708232B76B9E0374B1B7813F0100F2B
S21440429000F0B4802A6D354B1B689A4240F0AE80E1
S2144042A006232B76AAE02846324B9847324B1B789B
S2144042B013F0200F00F0A280AB7F43F00203AB77F1
S2144042C02846354B9847354B1B689D4203D1EA68D4
S2144042D0324B1A6015E0324A1360002201200AE091
S2144042E0D9688D4205D10AB12D4A1360EA68DA6072
S2144042F007E002460B46002BF2D112B10022284BB3
S2144043001A600122274B1A700A232B76264B1A680E
S214404310EA601D60254B984770E02846154B984745
S214404320114B1B7813F0100F68D02A6D0F4B1B688B
S2144043309A4263D12846184B9847184B1B689D42B3
S21440434003D1EA68154B1A603AE0154A136000221A
S21440435001202FE0D9688D422AD10AB1104A136055
S214404360EA68DA602CE000BFF0230020EC2300204F
S2144043703930400005334000F1230020E023002080
S214404380E8230020E4230020343700203C37002078
S214404390954B40006D4C400009284000684700207F
S2144043A074470020644700207C470020BD1D400025
S2144043B002460B46002BCDD112B10022774B1A6035
S2144043C00122774B1A700A232B76764B1A68EA60DE
S2144043D01D60754B984711E02846744B9847744BC0
S2144043E01B7813F0100F09D02A6D724B1B689A4247
S2144043F004D1714A137843F0100313706E4B1B7848
S21440440013F0080F0FD0D5F88C301BB16FF00A01AF
S2144044102869984729466948694B984729460120A4
S214404420684B984767E013F0100F13D0AB7F13F03C
S214404430100F06D1D5F88C301BB16FF00B012869F0
S214404440984729465D485E4B9847294601205D4B74
S214404450984750E0B5F864203AB1EB6F2BB1294647
S2144044602869984710F10A0F45D0574B1A68F2B1A1
S214404470AB7F13F0100F06D01046544B9847284693
S214404480534B984737E0D5F8804024B1002329465F
S2144044902869A04704E00023294618464D4CA0470B
S2144044A010F10A0F27D010B1474B1B68AB67424B41
S2144044B01B7813F0200F18D0AB6F23B15A7B42F015
S2144044C020025A7311E0AB8D40F6683293421CBF0F
S2144044D00133AB85D5F880403CB100231A462946C7
S2144044E02869A04710F10A0F05D000223A4B1A60FF
S2144044F028463A4B98470023374A1360324A13609F
S214404500374B5868002845D0304B98470022344BEC
S2144045105A603FE0334B1B689889334B984700F00E
S214404520040083B283B92F4B1B68304A1088304A48
S21440453011681A8801925B8800932E4B2E4A0144DC
S2144045401C4800682D4DA8472046204B984721E040
S21440455020461E4B98471DE0002385F89630284697
S214404560274B98472B7E023B072B3FF647AF01A2CF
S21440457052F823F0C73F400019414000D541400063
S214404580F5414000A7424000D54140001B43400053
S214404590D943400003B0BDE8F08300BF7447002015
S2144045A0644700207C470020BD1D40000533400086
S2144045B0F0230020EC230020F12300206847002051
S2144045C0DD2B4000B9214000F42300207523400035
S2144045D039304000492E400080470020E1484000E6
S2144045E0F8230020E0230020110F4000E82300209D
S2144045F0E4230020343700203C370020954B400011
S2144046009D3140002DE9F04780460F4615469946B5
S2144046109DF8206006F0010406F00202D3B2002B9B
S21440462018BF0C2303EB8403DCB20320214B9847CE
S21440463028B93846204B98470020BDE8F087824688
S21440464086720023036047603B891B1B038114214D
S21440465038461A4B984728B15046194B9847002081
S214404660BDE8F087DAF804305F68CAF80C70B8F82E
S2144046701A00144EB0473880DAF80C70B8F81C00B0
S214404680B0477880DAF80C7048460F4B9847786009
S214404690DAF80C70A408053445EA0434A0B2B047F2
S2144046A0B881DAF80C3000229A74DA745046BDE8C5
S2144046B0F08700BF9921400075234000FD2240004E
S2144046C099274000050F40001D0F40002DE9F84394
S2144046D006460C46994614321144002289B20120FF
S2144046E0144B9847804610B34568708B124FB847B6
S2144046F02880B08BB8476880C5F80490B06A0F4BE6
S2144047009847A860A0080530000300F4704040F0C9
S2144047101000B847A881F08DB847E88100232B7475
S2144047206B74AB74EB74F38DB26A134433634046D8
S214404730BDE8F883D5234000050F40001D0F40001C
S214404740B0F86830072B06D9837F63F07F03837702
S2144047504FF0FF30704770B582B001F002031E1C68
S21440476018BF0126002B14BF04230023B0F8662090
S214404770002A46D00D460446002219461046234BD2
S2144047809847014630B9A37F63F07F03A3774FF085
S214404790FF3038E00096E36D2A4620461C4EB04770
S2144047A0014630B9A37F63F07F03A3774FF0FF3015
S2144047B029E0E26E12B9E06604E01A461368002B60
S2144047C0FBD111600023A4F86A3015F0030F07D020
S2144047D0E36D0133E365B4F86630013BA4F8663018
S2144047E015F0010F03D0A37F43F02003A37748685A
S2144047F0084B9847B4F868301844A4F8680000207E
S21440480001E04FF0FF3002B070BD00BFD52340003E
S214404810054640008925400070B50546C46E0CB973
S21440482017E01C462368002BFBD1E36898890B4BA6
S214404830984710F0070F0CD1E668B4890120084B62
S21440484098472043B081AB7F43F02003AB770020EE
S21440485070BD01212846034B984770BD110F40009C
S214404860050F4000414740002DE9F04182B0044624
S214404870006D164B98470346002211462046144DBD
S214404880A847F0B105464768A37F23F00303A37704
S214404890261D03890093062332462146DFF83C80D6
S2144048A0C0473882A37A06220192627A0092324644
S2144048B021462846074CA0472846074B98470020E5
S2144048C001E06FF0010002B0BDE8F0811D0F40002E
S2144048D0CD464000BD15400075234000DD11400028
S2144048E0A04B1B68834200F031812DE9F04F85B024
S2144048F00546B0F84C20B0F860309A4228BF1A46B9
S2144049009246C46E837F13F0020F0FD054B1E36813
S2144049105868954B98472389AA6C9B1A1844824539
S21440492080F016812846914B984718E1D0F8708061
S214404930B8F1000F04D1002C40F0F080FBE0984620
S214404940D8F80030002BFAD1F5E72B6FB3B1AB7F28
S21440495013F0440F12D1EA6E2AB1116871B9118969
S214404960EA8E91420AD2B5F866203AB1B5F8682088
S214404970072A03D813F0A00F00F0DD802368EB660B
S2144049802B7E022B0CD0D4F80C90B9F80C7010206B
S214404990D8473843A9F80C00AB7F23F00303AB7726
S2144049A0E768A86A724B9847B860E768E88DD847CA
S2144049B0F881EB8DAA6A13442B63A37A13F0010F98
S2144049C00AD0E768291D40F2B4506A4B984740F039
S2144049D00170674B98477861B5F93430B3F1FF3FC3
S2144049E004BF0023AB860DB12B6833B9281D624B3C
S2144049F09847002833D043682B60AB6B33B95F4B86
S214404A001B68AB63E3685868B047E8636268E3686E
S214404A1051685B1A9BB25189C91A518161680A89EB
S214404A20D31A0B816368E2685A60E36800221A74FE
S214404A305A74E7682A1D6068038900930623039228
S214404A402946DFF84891C8473882AB7A6068062224
S214404A5001926A7A0092039A2946494FB847E3681A
S214404A605868B0470746B4F80890E3689889454BBD
S214404A70984710F0030018BF0120484438442B6D77
S214404A801B1A002BB8BF28652789E36898893D4BD9
S214404A90984710F0030018BF0120F84238D0002392
S214404AA023602B6F13B92C67A04634E0E368586840
S214404AB0B0470746D8F80C305868B047381A002830
S214404AC022DA05F170092B6F3BB917E0246823689A
S214404AD033B94B46A1461C4610E022464C4691460A
S214404AE0DB685868B0470746D9F80C305868B04776
S214404AF0381A0028EADB4B46A1461C46D9F8003057
S214404B002360C9F8004006E0C8F80040A04602E02E
S214404B1020461D4B9847EC6E1CB90EE0124EDFF84F
S214404B2070B0E3685868B0472389AA6C9B1A18444B
S214404B308245BFF40AAFEB6E13B90023A5F86A307E
S214404B40AB7F03F07F03AB77002008E00020704780
S214404B50D5F87080B8F1000F7FF4F2AEDEE705B00E
S214404B60BDE8F08F80470020350F40006948400080
S214404B701D0F400079314000D51240006C470020A0
S214404B80BD154000110F400099274000DD11400040
S214404B90050F40002DE9F04F83B081468A46934684
S214404BA098460022142101201D4B9847002833D0F8
S214404BB005464468BDF830001A4EB0472080BDF820
S214404BC03400B04760804846174FB847606050464C
S214404BD0B847A06045F21400B047A08100260B23DA
S214404BE0A3736823E37326746674A674E6742B89ED
S214404BF0009306234246594628460C4FB847208223
S214404C00062301930096FF23424659462846084C01
S214404C10A0472846074B984703B0BDE8F08F00BF33
S214404C20D5234000050F40001D0F4000DD11400019
S214404C30BD15400075234000026F12B970471A46F2
S214404C4000E008B51368002BF9D1C36E1360036FFC
S214404C50C3660022026790F84630013380F846303B
S214404C608263014B984708BDE14840002DE9F0417A
S214404C70076F2FB380463B68036700F16C05C36E31
S214404C8023B90EE02D682B680BB90AE00D4EDB68A1
S214404C905868B0470446FB685868B047201A002852
S214404CA0F0DB2B683B602F603B680BB9A8F86A3096
S214404CB098F84630013388F846300023C8F8383034
S214404CC0BDE8F081350F4000036F43B3837F13F098
S214404CD0040F24D110B50446114B9847B4F84C3015
S214404CE0B4F86020934287BF5208A4F84E205B0871
S214404CF0A4F84E30E38EB4F84E20B2EB430FBCBF60
S214404D005A00A4F84E2003EB4303B4F84E20134455
S214404D10A4F84C30A37F43F00403A37710BD70473C
S214404D206D4C40002DE9F04182B00446006D0138DC
S214404D30124B98470346002211462046104DA8477E
S214404D40C0B105464768261D0389009306233246B0
S214404D502146DFF83880C0473882A37A062201927F
S214404D6000220092324621462846064CA047284656
S214404D70054B984702B0BDE8F08100BF1D0F4000CC
S214404D80CD464000BD15400075234000DD11400073
S214404D902DE9F04182B0056F15B9C56E002D4FD094
S214404DA00446EB689889284B984710F0010F3DD091
S214404DB02B8923B33AE0251D3389009306232A46E0
S214404DC021463046DFF89880C0473882A37A0622CC
S214404DD00192002200922A46214630461B4CA047AC
S214404DE030461B4B98472BE07768B7F90C5025F4B4
S214404DF07C551120174B98472843B881DBE7EB6872
S214404E005B68002211462046134DA84706460028F8
S214404E10EAD115E07768686803892A899B1A9BB2AD
S214404E20012207F114010D4DA847C4E7EB685B6803
S214404E30012200212046084EB04706460028E9D108
S214404E4002B0BDE8F08100BF110F4000BD15400024
S214404E5075234000050F4000CD464000A126400087
S214404E60DD114000704700BF2DE9F04F85B0044685
S214404E708946D0F8048098F8001001F00F010389A5
S214404E808A1CB3EB820F04DB890049425B4B984790
S214404E9018B120465A4B9847ACE0D4F804A049468F
S214404EA0584B1868584B98470746BAF80000574E74
S214404EB0B0470546BAF80200B047554BD3F800E075
S214404EC0BEF1000F40D04F4BD3F800C0514BD3F843
S214404ED000B0734600263246039400E00B46598ADB
S214404EE0814229D1002F7DD163B1196851B1614506
S214404EF022D107E033B129B18CEA0104D9F8081071
S214404F000C4219D1002E71D1197C01F00401C9B2AE
S214404F10002908BF1E4669E013F1040F03D0596804
S214404F2009B1594508D1039C62B1D968D160C3F82C
S214404F300CE0374A136005E0D9681A460029CDD1FF
S214404F40039C00E043B946B9D9F804202D4B1B68B2
S214404F509A4243D1002600E01E46BAF806306BB1AE
S214404F60238900931123274A2A492046DFF8AC902C
S214404F70C84718B12046224B98473BE06FF00701E0
S214404F8020461E4B984718B120461D4B984731E0A7
S214404F9066B1B76937B1F06900951E4B2246314677
S214404FA0B84727E02046164B984723E097B9154B5D
S214404FB01B6803F0F003E02B0CD098F8001001F0CB
S214404FC00F010231890020460C4B984703212046AA
S214404FD0114B984720460A4B98470BE02046084B13
S214404FE0984707E019688C4584D18BE7998AA9428F
S214404FF0A2D191E705B0BDE8F08F00BFFD2240008A
S214405000752340003C370020FD154000110F40003E
S214405010844700203437002049114000DD1140000D
S214405020F0B5364B1B68C3B10026012798420FD017
S2144050305C8A94420DD1002B4BD01C68002C4BD080
S21440504000294CD00D68002D4CD0AC4201D14CE02C
S2144050503E46DB68002BE9D100E0002609B10B682C
S21440506000E000230360002A2BD1254B1988234BF0
S2144050701C684FF480454FF6FF774FF4404EB942D8
S2144050801ABF013189B2714614B91D4B198015E01B
S214405090638A8B4204D023460BE05A8A8A4208D160
S2144050A0013DADB2002DEAD1154B19806FF00700D7
S2144050B0F0BDDB68002BF0D1114B1980104B1A88DD
S2144050C0B2B14282BEB90D4B1A68C2601860002069
S2144050D0F0BD6FF00700F0BD6FF00700F0BD6FF059
S2144050E00700F0BD6FF00700F0BD6FF00700F0BDA1
S2144050F06FF00700F0BD0020F0BD00BF84470020E1
S2144051000C0000202DE9F04F85B004460F4691462E
S2144051109A46DDF83880438A2BB900220146364B42
S214405120984700285DD108213846344B984768B1E7
S214405130002208210120324B98470646002851D0CD
S2144051403B8923B139462F4B984700E03E46756869
S214405150608ADFF8B8B0D84728805046D84768807D
S2144051600023AB71EB71A2460CB1236813B908F16A
S214405170040A0BE0D8F80420934207D0BE4234D04D
S2144051803046214B98476FF0050031E030891F4B81
S2144051909847A880237C13F0010F0ED133890093E3
S2144051A011234A4651463046DFF868B0D8474FF696
S2144051B0FF73002808BF1846E880A37ACDF8088019
S2144051C011220192627A00924A4651463046104C6D
S2144051D0A0470446BE420BD030460B4B984720466D
S2144051E006E005E04FF0FF3002E06FF00500FFE715
S2144051F005B0BDE8F08F00BF21504000FD224000C2
S214405200D5234000E125400075234000050F4000AF
S214405210C9144000DD114000F0B583B005460E4687
S21440522014461F461046074B984738B100903B46F9
S214405230224631462846044CA04701E06FF0030062
S21440524003B0F0BDD51240000551400010B50246EF
S214405250838A0432014CA04710BD00BF195240005B
S21440526070B504460D461646438A23B900220146C9
S214405270114B9847D0B90DB12B6800E0002363600E
S214405280A682237C43F0040323740C4B1A6842B175
S21440529094420CD0134601E09C420AD0DB68002BB7
S2144052A0FAD1E260054B1C60002070BD70BD002046
S2144052B070BD002070BD00BF2150400084470020D4
S2144052C08161C261704700BF10B50020054B98470A
S2144052D0044628B120220021034B9847FF23A3729F
S2144052E0204610BD992140002965400010B504466F
S2144052F000EB8002094B53F8220038B1084B984720
S21440530004EB84039B000021044AD15004EB840440
S214405310024B03EB84040023A37410BD0C2400202E
S214405320752340002DE9F04F83B03B4A0023994651
S2144053304FF00A0E9C467546F046F24601931446D8
S214405340977C0A2D02D117B95DB223E017B330B16E
S2144053500668B3466668B34501D158B259E0012F96
S21440536010D1276837B1E47C4C4513D34FFA83FEFF
S214405370A1460FE0E47C019EB4420BD34FFA83FA79
S214405380019407E0012F05D9E47C644524BF4FFA19
S21440539083F8A446013314320A2BD0D111F0020F01
S2144053A02FD104460A2D03D111F0010F04D12BE072
S2144053B0092D01DCEDB213E0B8F1090F02DC5FFA0B
S2144053C088F50AE0BAF1090F02DC5FFA8AF504E0D4
S2144053D0BEF1090F1BDC5FFA8EF528460F4B984747
S2144053E034B1216805EB85030B4A02EB8303596011
S2144053F005EB8502084B03EB82030022DA7468B2A1
S21440540007E04FF0FF3004E04FF0FF3001E04FF090
S214405410FF3003B0BDE8F08F0C240020ED52400072
S21440542038B54C681D6825609B88A3801368C4F80F
S214405430063093886381082323730023637383694C
S214405440984738BDF8B50D4C00250D4E0227284626
S214405450A27C72B1E37C0133DBB2E374EF2B03D85A
S214405460012A03D1012B04D9B04702E0032A08BF22
S214405470A774013514340A2DE9D1F8BD0C24002058
S214405480ED5240002DE9F8430546884600222A2181
S2144054900320224B984700283CD00746446801200A
S2144054A01F4B9847A082D5F82730C4F81630B5F879
S2144054B02B3063831B4B186820629B88A3841A4B4F
S2144054C0186820609B88A380D5F82730C4F806303B
S2144054D0B5F82B3063816B68E361D8F80030C4F8C8
S2144054E026300022A2730123E373082323746274D8
S2144054F00622A2740422E274237306236373AB6904
S21440550039462846984704463846084B984720462A
S214405510BDE8F8834FF0FF30BDE8F883D523400060
S214405520050F40009C954000949540007523400030
S21440553070B505460E46144602EB8202144B03EB4A
S21440554082039B7C022B15D11346114A02EB830340
S214405550DB7CE32B0ED904EB840102EB81010431A2
S2144055600C4B984730B904EB8403094A02EB83039B
S21440557003229A7404EB8404054B03EB84030C3338
S21440558005F1270231462846034CA04770BD00BFB0
S2144055900C2400208554400021544000F8B50746AE
S2144055A00D46164601462868494B9847002865D15F
S2144055B02B6803F0F002E02A63D0002D64D0002B65
S2144055C065D001212846434B9847041E62DB04EB16
S2144055D08403414A02EB83039B7C33B904EB840388
S2144055E002EB830301229A7404E0012B02D0002EC2
S2144055F057D151E029463846384B9847002E65D05B
S21440560004EB8403344A02EB83039B7C012B0ED9C4
S214405610334B1C7004EB84042F4A02EB84030C3398
S21440562007F12702314638462E4CA047F8BD012BDD
S2144056304CD1337B012B39D1334602E01A7B012A09
S21440564035D11B68002BF9D13CE031462846264B25
S214405650984718B12846254B984730E02E4604EB2D
S21440566084031D4A52F8230008B1204B984704EBA8
S2144056708404194A42F824600020F8BD6FF00D00FB
S214405680F8BD6FF00D00F8BD6FF00D00F8BD6FF07F
S2144056900D00F8BD2046F8BD294638460F4B9847C2
S2144056A0F8BD012BB4D84FF0FF30F8BD334600228A
S2144056B0198903200E4B984705460028C5D14FF060
S2144056C0FF30F8BD30460B4B9847C8E7F8BD00BFE3
S2144056D0FD154000255340000C2400208554400012
S2144056E00824002021544000F9254000752340003E
S2144056F0D5234000A125400070B582B005460E4631
S21440570014460E2130463C4B984700286AD129461D
S21440571020683A4B984700285CD1236803F0F00293
S214405720E02A15D101238DF8003000238DF8013092
S2144057305E238DF80230637803F07F038DF80330E4
S214405740A3788DF80430E3788DF805306B4642E058
S2144057506A685A40A9680A420AD09BB24FF6A962C4
S214405760934205D015F10C043FD0EB68002B3FD098
S214405770234B1A7802EB8201224B03EB81039B7C7E
S214405780012B0CD90B461F4901EB830321685B684C
S214405790994204D1314628461B4B98472AE0194B7C
S2144057A00022997C01290BD920685968884207D184
S2144057B0D2B2134B1A7031462846134B984719E01D
S2144057C0013214330A2AECD13246214628460F4B82
S2144057D098470FE00E4B05F12702314628460D4C00
S2144057E0A04707E06FF0010004E06FF0030001E01F
S2144057F06FF0030002B070BDFD224000FD15400072
S214405800082400200C240020315540009D554000BF
S21440581094954000215440002DE9F04F85B0044651
S21440582047890E2F40F2E6800E464568B5F80C8054
S2144058302B7813F0010F15D0012B09D16B788BB95B
S214405840AB785E2B0ED1437B43F01003437309E0E5
S214405850062270492846704B984718B9637B43F038
S21440586008036373B8F1080F03D0B8F5C16F13D0BF
S214405870C0E096F82D3013F0200F00F0BB806FF09C
S2144058800D012046654B9847002840F0B3803146CE
S2144058902046634B9847B9E096F82D3013F0200F1A
S2144058A000F0A88006B9FEE7292F03D820465D4BB6
S2144058B09847ABE0EB89B3F5807F08D1AB7C062BED
S2144058C005D1EB7C042B02D12B8A082B03D0204633
